:100000000C94BF080C94E7080C94E7080C94E708DC
:100010000C94E7080C94E7080C94E7080C94E708A4
:100020000C94E7080C94E7080C94E7080C949C38AF
:100030000C94E7080C94E7080C94E7080C94E70884
:100040000C94F9380C94E7080C94E7080C94E70832
:100050000C94E7080C94E7080C94E7080C94E70864
:100060000C94E7080C94E708D414DF14EA14F51490
:10007000051512151D152815C818CB18CE18D5183A
:10008000DE18E518E818EF180A1D2C1D4E1D721D0C
:10009000971DBC1DDF1D031E5D25622567256C2590
:1000A00078257D2582258725392660268026A0266D
:1000B000C026E12604272B27100E0218023002600A
:1000C00007C00A7E163F103D10793FF37FE6FFCC54
:1000D000FF98FFF071C0100E008000800FF81F7CA9
:1000E0001F7C1E3C1C5C1C5C1E3C1FFC1FFC1FFC80
:1000F00013E41E3C100E02003FF83DF83C783838FF
:10010000383839383D783EF83EF83EF83EF827C892
:100110003C78100E02000200020003E0FE10FC0812
:10012000BC689E38CFEC67F633FB19FF0FFF038ED8
:10013000100E080008000980067F0820383C3FFEAA
:100140003FFE3FFE200215540FF800000000080A91
:1001500000000020704468D47AFE080A7CFE447CCB
:100160007C446C546C4420200000000006000050C9
:1001700009000212055C01000914000071AA400C7C
:1001800041550A207EFF8104558040125091200085
:10019000519521E44A911AB84D800D506EFFFABE78
:1001A000160187565A0362BC9701C1501A813AB0B2
:1001B000158003503EFE0EF80155F50401AAAB244C
:1001C0000F57D51435F7FF286B1F8148D519E1E487
:1001D000AB3FF15CD563D124791FD14449F7FF24AB
:1001E000C11401147F0C01FC2020080000203E00F7
:1001F00000F84900012441FFFF04E155550E41AAD2
:10020000AB04415555047EFFFEFC558003545A91C2
:1002100012B4559113545A9112B4558003547AFF75
:10022000FEBC158003501A8002B0158003501A805E
:1002300002B0158003503EFFFEF84155550441AA17
:10024000AB04E155550E41FFFF04490001247F0F27
:10025000E1FC4917D1244117D1044917D12449FFA2
:10026000FF24410001047F0001FC48290000000038
:1002700000000000000A0000000520000000060049
:10028000000018B000092404200000086014049243
:100290000414000006400809242678000002C0006B
:1002A00005963BC02800038040092C0F80100003F6
:1002B000804404920300000003815509FC03000000
:1002C000000380FF8DFA0300000200008109240072
:1002D000000006000CAD049E0000000A0002AD0FF5
:1002E000260002101AA800A26C9200412012AA1047
:1002F000FC092400195823FF060200000906002A01
:10030000022480000000BFE46ADA0000000000E080
:1003100020EADA0000000001A431AA028000000AED
:10032000283FEAFFFE40000004106180400000000A
:100330000000008C461404002060000005109002AC
:1003400000326800001081E3C0002DFC00001000A6
:100350008420282022080330800BD0102DAF1001FC
:10036000E4800BD0002DAE800187800C30002C2E55
:100370009C01C3000BD001BFFF8000E600042141B7
:10038000000000007E0003C3C0008058003C014014
:1003900007E006608A003C008007F0480286003CC7
:1003A00000000208800184003C0000029E0000CC96
:1003B000003E000001AA000068145500002282805F
:1003C00014380800000073FE200830000000000010
:1003D0000000003000000000000000000048290E6E
:1003E0000000080FE00000001BC0001C15500000BA
:1003F00000157000082AB00009242AA8000835500A
:100400001404925558001C2AB00809246AAC001C38
:1004100015500004923554283E0FE07E09241AB886
:10042000103E0380FF049207C0007F0381FF8924F0
:100430000300007F0381FF849203000022000081FB
:100440000924001E00220000AD0492003F002A0093
:1004500000AD09240073802BFC00A10492006DE024
:1004600023FE00FF0924002DF023FF000000000000
:1004700020202A0200000000002DA02ADA001FC060
:1004800000002DB02ADA003FE000002C282A0200EC
:100490007FF00A283FF43FFE007FF00410000000C8
:1004A00000002020000000000000002DA000007CC3
:1004B000000000002DBF8001AA0003C000203FC043
:1004C0000155800420282020C002AA800BD0102DC6
:1004D000AE800355400BD0002DAE8002AAC00C3078
:1004E000002C2E800355400BD0003FFFB802AAC05D
:1004F0000421FC00005601558003C3FE0001AB003F
:10050000FF014007FF000155003C008007FF00028B
:10051000AB003C00000202000355003C000002BAA0
:100520000002AB003E000002BA0001561455000064
:1005300002820014FC0800000003FE0008300000E6
:10054000000000000000300000000000000000007B
:10055000482980000000000007F8FF000007C000E5
:10056000000110110080046000000FFCFF100985DD
:10057000E0000011101108812570004010000100FA
:1005800000051820E01280013000078C2040128006
:1005900028025864EC20E013C02803FFFD7C206192
:1005A00013C07826C1643C00601140786630758CB9
:1005B00020E01060510E98258420E40000C1420024
:1005C000E58420E210000107FFE7FC20E00782003D
:1005D00015000000006011C3C100020000000017F8
:1005E00080F100096400000011E1C1080000000072
:1005F000001020F10C02001E000010000108008015
:100600002100000F9C3F0C00005E80000150110C87
:1006100000005E80033FFE1F1C000061800011117E
:10062000111C00005E80000000001C000021000082
:100630000000001C1C1E1E00000000001C222200E6
:1006400000000000000C5FFB00000000000000A79D
:10065000E500000002000000A6E20000001E00000D
:1006600000FE3C0000003E0000008388010600669A
:10067000102000A2A8010001EE3010088038000010
:10068000039E003000337E70000372007806BB7951
:10069000502003CA009410B0FF49589B8261320079
:1006A000FFF831EF02C2003A00000007D582C21CF9
:1006B0003810080026C682C2061800000003FF0397
:1006C000FE001848298000000000001FFFFF03FF04
:1006D000E7FC00001111110200240600181FFFFFA3
:1006E00002FFA5F500EE1111110280A516C15510EB
:1006F000C0010280A51562AA90500D03FFE7FEA578
:10070000555078290200240566ACD0787902AAA554
:1007100056A57450287902002405666C10285102F1
:10072000CC2584E5A410005102CC258420A0100023
:100730000102C0258420A010330103FFE7FC20A0A4
:1007400010A14100000000006011E1E10300000081
:10075000000011E1E11DC0000000001140A12AB01D
:10076000000000001140A15550001E0000100001C3
:10077000AAA8802100001FFFFFD598005E8000110D
:100780001111AE88005E80001FFFFFCD80006180E8
:10079000001111119480005E800000000014000020
:1007A00021000000000014FFFE1E000000000014E5
:1007B00080020000000000000CBFFF0000000000ED
:1007C0000000A00103FE03FE00C000A0010202021F
:1007D0000203B800FFFF02FB8EFA055400800902F5
:1007E0008B768A0AAA00AAAF028AAA8A15550080C7
:1007F0000903FF57FE19AB00B30F0202AA021175DD
:1008000000B30902AB56AA01B300B00F0203AE0257
:10081000012900FFF802C272C2002800000002C2D3
:1008200002C2002800080002C202C2002800000024
:1008300003FE03FE00301016101010105410AA0012
:1008400054008A8814449280500E0000000000007A
:1008500000400000400020141080000012008A12A6
:100860008290ECFE10161010383854549292AAAAB6
:10087000C6C692929292FEFE0000000000000000A8
:100880001010383854549292AAAAC6C68282828224
:10089000FEFE10151F0035F06AAC55562AAA355ECB
:1008A0000FE00640034E01D57DCAABFC57E039C0CE
:1008B0000DC007C003C001C001C001C003E010119A
:1008C0000F0035C06AB0D550AAA8D554AAAC55546B
:1008D000BAACDDD46FA837501FE0078007000700CF
:1008E0000F80281800040030202004005860200ADF
:1008F0000068A050150058E0A80A006CB0501F0016
:10090000D550F80400A9B02000015950002C01A9CD
:10091000B0105C00D950188C00A8E0290600704087
:100920005B1980204069186021005966B100806D14
:1009300066A142A055062001406DFFEFFD40540026
:100940001006406C002201C05408402060380A9014
:100950008410102C8003E0101C7FFC00080E182C63
:10096000342C366A54ACD46C54381010080805A2E4
:1009700040000A0450200E090C001E0017002B80B6
:1009800037E06BF0D5F8AAFCFFFC080C04048CA837
:10099000F8606870206070F80808020040040020C9
:1009A000040028180000C000000003B80000000583
:1009B000540000000AAA000000155500000019AB01
:1009C000000000117500000801B300000A012900B1
:1009D000002C402800001C502800000000280000C7
:1009E0003FFE3000005555C0FC00AAAAA14200D528
:1009F0005562A1006AFAA490801F07CC9FC0003006
:100A000017F4A00114000000039E000000011E0066
:100A10000000028A000000000A0000000809101807
:100A20001858DAFB7F1E1808052592623C10201A20
:100A300003E000000C180000100400002202000077
:100A4000401100004001000083E08000AC188000ED
:100A50009004BF80AFFABD80D7F5BC80D7F5BB80CE
:100A600097F4A78097F4B78097F4BF80FFFFA0802A
:100A700000000000000000000006000003880000E5
:100A80000250000002600000FFBC7000B032E000C5
:100A9000C84A7000CFCCE000201D003F800000D588
:100AA00040001FABE00075D60000AABC0000DD6B63
:100AB0000000A7D58000CB7EC00095403FFC1D40C4
:100AC00040020B40FFFF0D4090090940A5690280DC
:100AD000B5490280A6250480FFFF07864002006911
:100AE0004EFA009F4EAA00E54EFA00BD4E0260A5E8
:100AF0007FFE96660000F9180E38A7000B2CBD008B
:100B00000EBAA5000F3C66000E3818000000180F42
:100B100001F00003F80007FC000208003E4F807E51
:100B2000AFC0FC47E04000405CE74054E5405CE774
:100B30004040E04043F8407C07C007FC001009AA91
:100B4000A800008D880D808F880D808D880000AAF8
:100B5000A80606E0E05CF0E0A0080C000000000041
:100B600000000000001C2A080C000000000000002B
:100B700000001C3E3E080C00000000000000003E8B
:100B80007F7F7F080C0000000000003E7F7F7F7F9A
:100B90001C080C000000003E7F7F7F7F1C1C3E086D
:100BA0000C00003E7F7F7F7F1C08081C3E080C0065
:100BB0003E7F7F7F7F00000000081C080C001C3E69
:100BC0007F7F36000000000008080C00001C3E3645
:100BD00000000000000000080C0000081C000000DD
:100BE0000000000000080C000000080000000000E9
:100BF000000000080C0000000000000000000000E1
:100C00000008080000000000081C000808000000A0
:100C10000008221400080800000000220844001008
:100C2000071C003E003E00FF80BE801C0022000F1B
:100C3000071C003E003600F380BE801C0022000F1F
:100C4000071C0022002200F780BE801C002200103A
:100C500009007803F807FE03FC07F80DC058007878
:100C60000030001009007802F805F203FC07F80DC7
:100C7000C0580068003000100E8000C000C000E0C6
:100C800000700018000E000F000F80FFE07FF037AB
:100C9000D81BC001C0100E8000C000C000A00070B2
:100CA0000018000E000F000F80FE607E70274813B2
:100CB000C001C010068040C1F0FFF847FC03FE01F0
:100CC000FE10068040C1F0BFE847E4033A01FE0889
:100CD000050050A850000F03007003801C000F0394
:100CE0000000FFFE00000F031C00038000700F03D4
:100CF0000100038001002804DBFFC5FFE0FA004982
:100D0000002072004D002023FFC9FFE048230000AF
:100D100000000000000000000000001800000001BA
:100D20000000000007C000003E00000000007C0240
:100D300001E0000000000007F27F0000000000005A
:100D4000003DE000008020000003DFDF00011B36D3
:100D5000C0001E0201E0012AA48001F007003E004D
:100D6000B312800700020001000200001800070013
:100D7000000000000000000D800000005000000096
:100D800018C00000501000000018C000009B5580E3
:100D900000003FE000005259000000EFB800008A58
:100DA00054800001EFBC00000000000001FFFC00C7
:100DB000000000000001FFFC000000800000FFFFB9
:100DC000FFF807FBEFF0007FFFFFF00001C000001D
:100DD000221FC22000794F0000771FC7700000005B
:100DE0000000720F827000000000003507056000EF
:100DF0000000000000FFF8000000000000007FF08D
:100E000000000000000000020000000000000000E0
:100E100002000000000000000000000000000000D0
:100E20000000000000008000000000000000010041
:100E300000210002000400C56310A1444420C50243
:100E4000FFFFFFFFFFFFFFFFFF03053F213F1208EA
:100E5000120A100A0E1C0E0C1E0C141A14161F1661
:100E60001E131E1E1B1E1E1F1E3F213F3A2F3A1728
:100E70003D173F213F181F02040A041F0E04040EF1
:100E80001F0A1F0A0E0E1F04110E2E252E2F2A2EAA
:100E9000262929021F02081F08150E04040E150E2C
:100EA00015151B151B040604040C04000000001794
:100EB000000300031F0A1F16371A1904130A153AF4
:100EC000000300000E11110E000A040A040E0400B3
:100ED00030000404040010001804031F111F121F27
:100EE000101D151711151F07041F17151D1F151DA0
:100EF00001011F1F151F17151F000A0000320004F3
:100F00000A110A0A0A110A040115020E11171E0518
:100F10001E1F150A0E110A1F110E1F15111F0501A4
:100F20000E111D1F041F111F1108100F1F041B1F7E
:100F300010101F061F1E040F0E110E1F09060E11A2
:100F40002E1F051A121509011F011F101F0F180F60
:100F50001F0C1F1B041B031C03191513001F110377
:100F60000418111F000201022020200001020C12AF
:100F70001E1F120C0C12120C121F0C1A14041E0548
:100F8000242A1E1F021C141D1020201D1F081411CE
:100F90001F101E041E1E021C0C120C3E0A040C1212
:100FA0003E1E040214160A020F120E101E0E100E20
:100FB0001E081E120C1226281E322A26041E21008C
:100FC0001F00211E040102013F213F0A4E6F2053E2
:100FD000442063617264206F720A6E6F204C4F412F
:100FE0004445522E4845580A0A153A457869740016
:100FF0001D20466C617368696E670A20206C6F6102
:101000006465722E2E2E0A0A444F4E2754205455E2
:10101000524E204F464621006D560A0A504C45411B
:1010200053450A5455524E204F4646004C4F5720C8
:10103000424154544552590A00175344001613783C
:101040000016131400151020001520100000540A7B
:1010500003E181867F3E186D830F0F0E018386604A
:1010600033186DC3198F1803C38E6033186DE330C6
:10107000CF1803C39E603630CDE360CF3006C79EE5
:101080007E3E30CDB360CF300CC6F6603330D9B67B
:1010900060CF33CFCCF66061B0DB1E60CF30D86C50
:1010A000E6C061B0DB1E618F19986CC6C063B19B4E
:1010B0000E330F0FB078C6FF7E1F1B061E0F0500F4
:1010C000893008023802497868140000F6E8DBCF5E
:1010D000C3B8AEA49B928A827B746E68625C5752DE
:1010E0004E4945413E3A3734312E2C2927252321BC
:1010F0001F1D1C1A1917161514131211100F0E0D9F
:101100000C0B0A09080706450068010000050038B5
:1011100001680100001D1119110101FF030101F710
:1011200003000000080002010000030407000000A3
:1011300000000000000102040810204080010204A9
:10114000081020010204081020040404040404040C
:10115000040202020202020303030303030000006D
:101160000023002600290000000000250028002B95
:101170000000000000240027002A0000D42A1124C7
:101180001FBECFEFD8E0DEBFCDBF11E0A0E0B1E0E1
:10119000EAEEFCE702C005900D92A23FB107D9F735
:1011A00028E0A2EFB1E001C01D92AD30B207E1F737
:1011B00011E1CEE7D1E104C02297FE010E94553E25
:1011C000CC37D107C9F70E94133B0C94733E0C94A3
:1011D0000000643508F047C0403308F044C0FC010B
:1011E000878D242F259525952595E62FFF27E7FD4B
:1011F000F0954770823091F4DF01AA5FB94F84E522
:101200002802A00DB11D11248C9190E0042E02C083
:10121000959587950A94E2F780958170811112C0A7
:1012200084E52802E00DF11D1124EA5FF94F81E009
:1012300090E0042E01C0880F0A94EAF7809590810F
:10124000982310C084E52802E00DF11D1124EA5F07
:10125000F94F81E090E0042E01C0880F0A94EAF76C
:101260009081982B9083089581E490E090936D0590
:1012700080936C058BE290E090936F0580936E05F0
:1012800010927405109270051092720510927105FB
:1012900083E08093730581E08093750510927A0551
:1012A00094E19093790580937705109278051092D8
:1012B000760510927B0510927C0510927E0580E0E9
:1012C00097E0989FF0011124EA5FFD4F128211828E
:1012D00014821382158216828F5F8A3090F3809376
:1012E000050208958FE795E00E94BD3581E0809367
:1012F00000021092FF011092FE011092FD01109267
:10130000FC01109201020E9434096CE07DE08FE73D
:1013100095E00E943F351092970508951092FB01C9
:101320001092FD011092FC018091FF01882321F0B1
:10133000813009F44DC40895E5E0E093F40189E0BB
:101340008093F20185E18093F3018CE390E0909328
:101350004F0580934E0588E290E09093510580936D
:1013600050053DE03093520527E02093530581E579
:1013700092E0909355058093540589E390E0909313
:1013800057058093560530935805209359058BE8EF
:1013900091E090935B0580935A0585E890E09093E7
:1013A0005D0580935C0530935E0520935F0582E0C8
:1013B00091E0909361058093600586E291E09093BF
:1013C00063058093620530936405209365058EE282
:1013D00090E0909367058093660587E392E0909391
:1013E00069058093680530936A0520936B0526E1B3
:1013F00030E03093F0042093EF0480E190E090938C
:10140000F2048093F104F3E0F093F3046EE170E0F2
:101410007093F5046093F40445E150E05093F704B1
:101420004093F604F093F8043093FA042093F904FF
:101430004AE150E05093FC044093FB04F093FD0418
:101440002DE430E03093FF042093FE042BE030E0E5
:101450003093010520930005F09302052BE230E064
:1014600030930405209303052DE230E03093060508
:1014700020930505F093070522E530E03093090538
:101480002093080520E330E030930B0520930A05F4
:10149000F0930C052BE130E030930E0520930D0501
:1014A00021E530E03093100520930F05F0931105EE
:1014B00024E230E0309313052093120525E530E057
:1014C0003093150520931405F09316052CE130E0B8
:1014D00030931805209317052BE530E030931A055B
:1014E00020931905F0931B0527E630E030931D0586
:1014F00020931C0524E730E030931F0520931E0540
:10150000F093200520E430E030932205209321055C
:101510007093240560932305109225056EE070E01A
:10152000709327056093260530932905209328059D
:1015300010922A0525E330E030932C0520932B05EB
:1015400027E730E030932E0520932D0510922F05CC
:1015500024E030E0309331052093300523E030E083
:101560003093330520933205F1E0F093340529E5FB
:1015700030E0309336052093350529E430E0309390
:10158000380520933705F093390562E670E07093D3
:101590003B0560933A0560E570E070933D0560930C
:1015A0003C05F0933E0564E570E070934005609360
:1015B0003F057093420560934105E093430567E062
:1015C00070E070934505609344056DE670E070939C
:1015D000470560934605E4E0E09348056EE670E059
:1015E00070934A056093490550934C0540934B0511
:1015F000E0934D0541E250E0509369044093680444
:1016000048E450E050936B0440936A044AE152E08E
:1016100050937204409371043093740420937304C4
:1016200090937B0480937A0484E492E090937D0409
:1016300080937C0480E059E048E439E224E090E5BE
:10164000589FF0011124E859FB4F448335832683CA
:10165000108697838F5F833098F381E291E09093B7
:1016600084048093830484EA90E0909386048093BA
:10167000850488E392E090938D0480938C0484E148
:1016800091E090938F0480938E048DE791E0909386
:1016900096048093950488EC91E09093980480934D
:1016A000970488E592E090939F0480939E0425E040
:1016B00032E03093A1042093A00425E132E030937E
:1016C000A8042093A70424E132E03093AA042093D5
:1016D000A9042FEF31E03093B1042093B00490932C
:1016E000B3048093B20483E059E040E136E127E09F
:1016F00094E1589FF0011124E859FB4F448335834E
:101700002683108697838F5F893098F38FE590E06A
:1017100090933D0380933C038EE191E090933F03CF
:1017200080933E032DE430E030934703209346033B
:1017300084E491E0909349038093480385E790E027
:10174000909351038093500388E591E09093530365
:101750008093520386E890E090935B0380935A0352
:1017600080E391E090935D0380935C038DE791E0CB
:10177000909365038093640386E290E090936703FF
:101780008093660384EB91E090936F0380936E03E4
:1017900045E150E0509371034093700341EA51E0FA
:1017A000509379034093780330937B0320937A031B
:1017B0002DE831E030938303209382032CE831E05D
:1017C00030938503209384032AE731E030938D031F
:1017D00020938C032CEA31E030938F0320938E0307
:1017E0002DE931E0309397032093960328EC31E004
:1017F000309399032093980323EC31E03093A103B5
:101800002093A00328EA31E03093A3032093A2039E
:101810009093AB038093AA038FE891E09093AD037C
:101820008093AC0380E692E09093B5038093B40379
:1018300088E292E09093B7038093B6038AE492E043
:101840009093BF038093BE038AE292E09093C1031A
:101850008093C0038CE292E09093C9038093C80305
:1018600084E392E09093CB038093CA0386E292E0F4
:101870009093D3038093D20389E492E09093D503AD
:101880008093D40383E292E09093DD038093DC03A2
:1018900081E692E09093DF038093DE0380E09AE09C
:1018A00047E038E024E1989FF0011124E45CFC4F0C
:1018B0004483958336831086278311868F5F813119
:1018C00090F38EE590E09093E7038093E6038EE239
:1018D00091E09093E9038093E80381E991E090938C
:1018E000F1038093F00324E230E03093F30320937C
:1018F000F2039093FB038093FA038BE991E09093BA
:10190000FD038093FC0381E492E0909305048093AF
:10191000040488E492E0909307048093060481E134
:101920005AE090E236E020E5589FF0011124E45C93
:10193000FC4F9483958346E0368310862783118677
:101940008F5F853188F3809305028091FE018823A3
:1019500009F48BC58CE392E090934D0280934C0286
:101960008BE790E090934F0280934E0285E391E0E5
:10197000909359028093580286EA90E090935B021C
:1019800080935A0223E02093630286E291E09093D1
:101990006502809364028FEB90E0909367028093DE
:1019A000660220936F028AE492E090937102809322
:1019B000700223E131E0309373022093720254E00D
:1019C00050937B0223E432E030937D0220937C022B
:1019D0002CE231E030937F0220937E025093870205
:1019E0002EE631E0309389022093880227EC31E023
:1019F00030938B0220938A0255E05093930225E89E
:101A000031E0309395022093940223EE31E030933D
:101A100097022093960250939F0229E632E030937A
:101A2000A1022093A00228E032E03093A302209389
:101A3000A2024093AB0222E632E03093AD02209343
:101A4000AC022DE132E03093AF022093AE0240931E
:101A5000B70226E232E03093B9022093B80227E1C0
:101A600032E03093BB022093BA0247E04093C302B6
:101A700020E232E03093C5022093C4022EE232E02D
:101A80003093C7022093C6024093CF0227E032E092
:101A90003093D1022093D00220E532E03093D3027C
:101AA0002093D20248E04093DB0220E132E0309301
:101AB000DD022093DC022BE532E03093DF0220933D
:101AC000DE024093E7022DE530E03093E9022093F7
:101AD000E8029093EB028093EA0222E02093F30263
:101AE00089E591E09093F5028093F4028CE192E015
:101AF0009093F7028093F6022093FF0280E04CE07F
:101B000096E035E021E0489FF0011124E45BFD4FB1
:101B100094839583168210863783118622878F5F80
:101B20008F3088F38BE791E090930103809300035B
:101B300087E190E0909303038093020389E490E0AF
:101B400090930D0380930C038CE191E090930F032D
:101B500080930E038BE991E090931903809318030F
:101B60008EE891E090931B0380931A0387E191E044
:101B7000909325038093240380E292E090932703BF
:101B80008093260384E18093570280E492E090934F
:101B900031038093300383E192E090933303809389
:101BA00032038FE06CE050E14EE031E02EE194E052
:101BB000689FF0011124E45BFD4F54834583368315
:101BC00010862783118692878F5F843188F34BC4F8
:101BD00085E08093F401E9E0E093F20185E18093F0
:101BE000F3018CE390E090934F0580934E0588E2DB
:101BF00090E090935105809350052DE0209352057D
:101C0000F7E0F093530581E592E0909355058093BA
:101C1000540589E390E090935705809356052093EF
:101C20005805F09359058BE891E090935B058093FC
:101C30005A0585E890E090935D0580935C052093BC
:101C40005E05F0935F0582E091E0909361058093DB
:101C5000600586E291E0909363058093620520938E
:101C60006405F09365058EE290E09093670580939C
:101C7000660587E392E09093690580936805209359
:101C80006A05F0936B0526E130E03093F004209371
:101C9000EF0480E190E09093F2048093F104A6E0D9
:101CA000A093F3046EE170E07093F5046093F40484
:101CB00045E150E05093F7044093F604A093F804F4
:101CC0003093FA042093F9044AE150E05093FC0465
:101CD0004093FB04A093FD042DE430E03093FF0417
:101CE0002093FE042BE030E03093010520930005A3
:101CF000A09302052BE230E0309304052093030506
:101D00002DE230E03093060520930505A0930705EA
:101D100022E530E0309309052093080520E330E008
:101D200030930B0520930A05A0930C052BE130E0BE
:101D300030930E0520930D0521E530E0309310051A
:101D400020930F05A093110524E230E03093130592
:101D50002093120525E530E03093150520931405F6
:101D6000A09316052CE130E0309318052093170559
:101D70002BE530E030931A0520931905A0931B053D
:101D800027E630E030931D0520931C0524E730E062
:101D900030931F0520931E05A093200520E430E01A
:101DA0003093220520932105709324056093230529
:101DB000109225056EE070E070932705609326056C
:101DC000309329052093280510922A0525E330E059
:101DD00030932C0520932B0527E730E030932E0518
:101DE00020932D052AE020932F0524E030E0309346
:101DF00031052093300523E030E030933305209304
:101E00003205F093340529E530E030933605209310
:101E1000350529E430E03093380520933705F093F9
:101E2000390562E670E070933B0560933A0560E522
:101E300070E070933D0560933C05F0933E0564E5CA
:101E400070E07093400560933F0570934205609386
:101E50004105E093430567E070E0709345056093AA
:101E600044056DE670E07093470560934605E4E035
:101E7000E09348056EE670E070934A05609349056B
:101E800050934C0540934B05E0934D0541E250E0E3
:101E9000509369044093680445E450E050936B0408
:101EA00040936A044AE152E05093720440937104F3
:101EB000309374042093730490937B0480937A048A
:101EC00084E492E090937D0480937C0480E059E068
:101ED00048E439E225E090E5589FF0011124E859E3
:101EE000FB4F448335832683108697838F5F83302F
:101EF00098F381E291E0909384048093830484EAD0
:101F000090E0909386048093850488E392E0909318
:101F10008D0480938C0484E191E090938F048093EE
:101F20008E048DE791E0909396048093950488EC5D
:101F300091E0909398048093970488E592E09093C1
:101F40009F0480939E0425E032E03093A104209307
:101F5000A00425E132E03093A8042093A70424E1F3
:101F600032E03093AA042093A9042FEF31E030939C
:101F7000B1042093B0049093B3048093B20483E03F
:101F800059E040E136E127E094E1589FF001112447
:101F9000E859FB4F448335832683108697838F5FF0
:101FA000893098F38FE590E090933D0380933C0354
:101FB0008EE191E090933F0380933E032DE430E067
:101FC000309347032093460384E491E090934903C0
:101FD0008093480385E790E09093510380935003EA
:101FE00088E591E0909353038093520386E890E054
:101FF00090935B0380935A0380E391E090935D0399
:1020000080935C038DE791E0909365038093640374
:1020100086E290E0909367038093660384EB91E0FF
:1020200090936F0380936E0345E150E050937103EA
:102030004093700341EA51E0509379034093780351
:1020400030937B0320937A032DE831E030938303B0
:10205000209382032CE831E030938503209384039E
:102060002AE731E030938D0320938C032CEA31E092
:1020700030938F0320938E032DE931E03093970343
:102080002093960328EC31E0309399032093980332
:1020900023EC31E03093A1032093A00328EA31E040
:1020A0003093A3032093A2039093AB038093AA03DE
:1020B0008FE891E09093AD038093AC0380E692E0CB
:1020C0009093B5038093B40388E292E09093B703B2
:1020D0008093B6038AE492E09093BF038093BE039B
:1020E0008AE292E09093C1038093C0038CE292E075
:1020F0009093C9038093C80384E392E09093CB0349
:102100008093CA0386E292E09093D3038093D20334
:1021100089E492E09093D5038093D40383E292E024
:102120009093DD038093DC0381E692E09093DF03DC
:102130008093DE0380E09AE047E038E024E1989F56
:10214000F0011124E45CFC4F4483958336831086B0
:10215000278311868F5F813190F38EE590E0909315
:10216000E7038093E6038EE291E09093E903809386
:10217000E80381E991E09093F1038093F00324E276
:1021800030E03093F3032093F2039093FB038093AA
:10219000FA038BE991E09093FD038093FC0381E4C3
:1021A00092E0909305048093040488E492E0909375
:1021B00007048093060481E15AE090E236E020E5CE
:1021C000589FF0011124E45CFC4F9483958346E012
:1021D00036831086278311868F5F853188F380933D
:1021E00005028091FE01882309F43FC18CE392E04F
:1021F00090934D0280934C028BE790E090934F02B6
:1022000080934E0285E391E09093590280935802A7
:1022100086EA90E090935B0280935A0223E0209339
:10222000630286E291E090936502809364028FEBF3
:1022300090E0909367028093660220936F028AE495
:1022400092E0909371028093700223E131E0309329
:1022500073022093720254E050937B0223E432E035
:1022600030937D0220937C022CE231E030937F0298
:1022700020937E02509387022EE631E0309389024C
:102280002093880227EC31E030938B0220938A025E
:1022900055E05093930225E831E030939502209366
:1022A000940223EE31E030939702209396025093EC
:1022B0009F0229E632E03093A1022093A00228E099
:1022C00032E03093A3022093A2024093AB0222E6B5
:1022D00032E03093AD022093AC022DE132E0309336
:1022E000AF022093AE024093B70226E232E0309371
:1022F000B9022093B80227E132E03093BB02209369
:10230000BA0247E04093C30220E232E03093C502B4
:102310002093C4022EE232E03093C7022093C6021B
:102320004093CF0227E032E03093D1022093D002D5
:1023300020E532E03093D3022093D20248E040936C
:10234000DB0220E132E03093DD022093DC022BE55A
:1023500032E03093DF022093DE024093E7022DE566
:1023600030E03093E9022093E8029093EB028093EF
:10237000EA0222E02093F30289E591E09093F502CE
:102380008093F4028CE192E09093F7028093F6023E
:102390002093FF0280E04CE096E035E021E0489F8A
:1023A000F0011124E45BFD4F94839583168210861F
:1023B0003783118622878F5F8F3088F38BE791E018
:1023C000909301038093000387E190E090930303CF
:1023D0008093020389E490E090930D0380930C03B3
:1023E0008CE191E090930F0380930E038BE991E0D1
:1023F00090931903809318038EE891E090931B0348
:1024000080931A0387E191E090932503809324033E
:1024100080E292E0909327038093260384E18093E7
:10242000570280E492E0909331038093300383E17C
:1024300092E090933303809332038FE06CE050E19D
:102440004EE031E02EE194E0689FF0011124E45B5E
:10245000FD4F5483458336831086278311869287E8
:102460008F5F843188F38093050208958091000284
:10247000813021F0823009F461C0089562E089E87A
:1024800095E00E94032C882341F08091FF0190E0A9
:102490000196817099278093FF0160E089E895E0BB
:1024A0000E94032C882351F08091FF01811102C00A
:1024B00081E002C0817081508093FF0163E089E870
:1024C00095E00E94032C882351F08091FE0190E05A
:1024D000019663E070E00E94FE3D8093FE0161E0A2
:1024E00089E895E00E94032C882371F08091FE0119
:1024F000811104C082E08093FE0106C063E00E9467
:10250000DE3D91509093FE0164E089E895E00E94E1
:10251000032C882329F082E0809300020E948E0918
:1025200066E089E895E00E94032C882309F472C1D3
:102530006CE07DE08FE795E00C943F3566E089E83C
:1025400095E00E94032C882319F081E0809300021B
:1025500065E089E895E00E94032C882361F0809172
:102560007E05882329F0813031F410927E0503C066
:1025700081E080937E0540E064E089E895E00E9478
:102580000C2C90917505882309F4F6C09111F4C0C4
:1025900080917405883009F0EFC081E08093760562
:1025A00080917905882309F435C140E062E089E82B
:1025B00095E00E940C2C882369F040917205242F2D
:1025C000332727FD30958091730590E02817390750
:1025D00014F51EC040E060E089E895E00E940C2CF4
:1025E00040917205882371F08091730590E0919578
:1025F00081959109242F332727FD30958217930762
:1026000054F402C0141614F4415003C0442319F0CA
:102610004F5F4093720540E063E089E895E00E94D7
:102620000C2C882369F040917105242F332727FD56
:1026300030958091730590E02817390714F51EC076
:1026400040E061E089E895E00E940C2C4091710522
:10265000882371F08091730590E09195819591099F
:10266000242F332727FD30958217930754F402C097
:10267000141614F4415003C0442319F04F5F4093E3
:102680007105209172051216A4F480916C05909149
:102690006D0560E0332727FD3095462F50E0421747
:1026A0005307BCF4863742E094070CF401966F5F41
:1026B000F4CF2223A1F080916C0590916D0560E02C
:1026C000332721950CF43095462F50E042175307DD
:1026D0009CF090936D0580936C05609305022091AA
:1026E00071051216DCF480916E0590916F0560E023
:1026F000332727FD30950CC0181619060CF40197E6
:102700006F5FE2CF863742E094070CF401966F5F6B
:10271000462F50E042175307ACF310C02223A1F01C
:1027200080916E0590916F0560E0332721950CF440
:102730003095462F50E0421753077CF06093050216
:1027400090936F0580936E0540E064E089E895E022
:102750000E940C2C811107C015C08E3091050CF021
:1027600001976F5FE6CF8091750581110BC0809155
:102770007405883039F442C010927605992309F423
:102780000FCF08951092760580917E05811142C089
:102790008091720518163CF490917105911117C043
:1027A0001092700519C0811108C08091710518162A
:1027B000ACF482E08093700511C087FF15C0809152
:1027C00071051816FCF493E0909370051FC019165C
:1027D0001CF491E090937005811106C08091710501
:1027E00087FF18C086E007C01816A4F48091710511
:1027F00087FF10C087E080937005089581E0809383
:102800007605C2CF811102C084E0F5CF87FF02C0F8
:1028100085E0F1CF0895282F30E06CE0869FF0012D
:102820001124E45BFD4F8781882309F484C088E08C
:10283000809302028081918140916C0550916D05D9
:1028400064816695DC01A60FB11DBA01665F7F4FFA
:102850006A177B073CF401979183808384E0828729
:10286000809302028CE0829FF001839FF00D11247F
:10287000E45BFD4F8081918164816695DC01A60F48
:10288000B11D4A505109A417B50734F4019691833C
:1028900080831286109202028CE0829FF001839F57
:1028A000F00D1124E45BFD4F8281938140916E0510
:1028B00050916F0565816695DC01A60FB11DBA01C7
:1028C00068507109A617B7078CF401969383828329
:1028D00080910202843031F0883031F0811106C0DD
:1028E00081E003C083E001C082E082878CE0829FA8
:1028F000F001839FF00D1124E45BFD4F82819381F1
:1029000025812695BC01620F711D485F5F4F4617F8
:1029100057078CF40197938382838091020284305D
:1029200031F0883031F0811106C087E003C085E0C6
:1029300001C086E0828708952F923F924F925F9266
:102940006F927F928F929F92AF92BF92CF92DF92BF
:10295000EF92FF920F931F93CF93DF93CDB7DEB724
:102960002E970FB6F894DEBF0FBECDBF10E047E044
:102970005AE01A3008F099C0212F30E0429FF00150
:10298000439FF00D1124EA5FFD4F8681882309F4EF
:102990008AC0858190E08830910508F06AC0FC010A
:1029A000EC5CFF4F0C94533E429FF001439FF00DAF
:1029B0001124EA5FFD4F81819281029630C0429FCF
:1029C000F001439FF00D1124EA5FFD4F8181928158
:1029D000019615C0429FF001439FF00D1124EA5F5C
:1029E000FD4F83819481029642C0429FF001439F34
:1029F000F00D1124EA5FFD4F81819281019792834E
:102A0000818383819481019632C0429FF001439F6C
:102A1000F00D1124EA5FFD4F81819281029792832C
:102A2000818327C0429FF001439FF00D1124EA5F8C
:102A3000FD4F81819281019715C0429FF001439F14
:102A4000F00D1124EA5FFD4F8381948102970FC03E
:102A5000429FF001439FF00D1124EA5FFD4F8181F9
:102A600092810196928381838381948101979483DB
:102A70008383429FF001439FF00D1124EA5FFD4FD5
:102A800086818F5F86838F3170F0A0815A9FD0013D
:102A90001124A45CBC4F19961C92128211821482DC
:102AA0001382158216821F5F64CF0091F30180911B
:102AB0006C0590916D0560906E0570906F0520918A
:102AC0007405B301621B7109E091F9015091FA019B
:102AD0004091F7012091F801B0900302A12CFAE097
:102AE0009F2E88248394A01608F0DFC09A9C600172
:102AF00011249601245C3C4F6901D90114962C9154
:102B0000149726954D915C911197420F511D159682
:102B1000EC911597E69512962D913C9113972E0FF7
:102B2000311DFC01E41BF50BE65BFF4FE539F105B8
:102B300008F0B6C0F301E21BF30BE65BFF4FE5398B
:102B4000F10508F0ADC07601B9E0EB0EF11CD6013D
:102B50001996EC911997E111A3C01796EC91EE2309
:102B600009F49EC0EBE0F2E0A6E0B2E0BA87A987E4
:102B7000ACE0B2E0BC87AB87B12C2701D60116963A
:102B8000BE83AD83DA011596BE87AD871A01B5E025
:102B90002B1A3108790115E0E10EF11CD9011697C5
:102BA000B887AF836901B5E0CB1AD108B2E0E1354F
:102BB000FB0709F474C0AB85BC851C91111163C07F
:102BC000B11061C014E1D2011C93AD81BE81BC90F3
:102BD000B6E0BB1202C0D2019C92A985BA85AC9224
:102BE00012965C934E93119714963C932E931397E1
:102BF000AB85BC858C921082AD85BE85A817B907C0
:102C000024F4E616F7060CF48082821593055CF036
:102C1000AD85BE85A817B9075CF02617370744F4C1
:102C2000B2E0B08305C0E616F70614F413E0108393
:102C30008417950744F46C157D052CF0E616F7060D
:102C400014F0A4E0A083821593052CF46C157D0587
:102C500074F4B5E00BC0AD85BE85A817B9073CF08C
:102C6000AF81B8856A177B0714F4B6E0B083AD85F1
:102C7000BE85A817B9072CF46C157D0514F4B7E0D0
:102C8000B083BB24B3943796A985BA851796BA87C3
:102C9000A987AB85BC851796BC87AB8787CF1AE021
:102CA000A394E42F422F232F1ECF10930402E0930E
:102CB000F9015093FA014093F7012093F801B09283
:102CC0000302A09205023091FE01332309F412C1E0
:102CD00030917405B301631B71094B2C912C88242E
:102CE000839434E0532EF3E1F91508F4F5C0FCE0C9
:102CF000F99DF0011124E45BFD4FF887EF832481F7
:102D0000269540815181420F511DE581E695AF81A5
:102D1000B88512962D913C9113972E0F311DFC0111
:102D2000E41BF50BE65BFF4FE539F10508F0CFC07A
:102D3000F301E21BF30BE65BFF4FE539F10508F009
:102D4000C6C07D01B9E0EB0EF11CAF81B8851996C4
:102D5000EC911997E111BBC01796EC91EE2309F4A1
:102D6000B6C0EBE0F2E006E012E01C870B87ACE0B7
:102D7000B2E0BA87A987412C0F8118850A5F1F4FDF
:102D80001C830B83FA82E9827A0115E0E10EF11CC3
:102D90001A01A5E02A1A31085901B5E0AB0EB11CA1
:102DA0008901065011091E830D83690115E0C11ABE
:102DB000D108AF81B8851A96B887AF83B2E0E13504
:102DC000FB0709F483C0A985BA851C91111171C054
:102DD00041106DC0AB85BC859C9212965C934E935E
:102DE000119714963C932E931397A985BA858C92CC
:102DF000AB81BC811C911123C1F0113009F057C087
:102E000008E2A981BA810C93AF81B8851C91108327
:102E1000AB85BC8513960D911C9114970550110933
:102E200014961C930E93139742C004E1A981BA81B2
:102E30000C931082E816F90624F4A616B7060CF4D3
:102E40008082821593054CF0E816F9065CF026178F
:102E5000370744F412E0108305C0A616B70614F431
:102E6000A3E0A083841795073CF46C157D0524F03E
:102E7000A616B7060CF050828215930534F46C1533
:102E80007D056CF4B5E0B0830AC0E816F9063CF0A5
:102E90000D811E816017710714F416E01083E81687
:102EA000F9062CF46C157D0514F4A7E0A0834424E6
:102EB000439437960B851C85095F1F4F1C870B8732
:102EC000A985BA851796BA87A98778CF1AE093940F
:102ED000E42F422F232F07CF10930402E093F90130
:102EE0005093FA014093F7012093F80140920302B6
:102EF000909205022E960FB6F894DEBF0FBECDBF9E
:102F0000DF91CF911F910F91FF90EF90DF90CF90C5
:102F1000BF90AF909F908F907F906F905F904F90F9
:102F20003F902F900895EF92FF920F931F93CF93AE
:102F3000DF9380917D0581114CC080916C0590914B
:102F40006D05AC0143505109BC016D5F7F4F20916D
:102F5000740580916E0590916F05821B9109DC01CB
:102F600015970196D0917905F0907A0500E01091BF
:102F70007505C0E027E0E22ECA3008F5EC9EF001AE
:102F80001124EA5FFD4F2181328124173507ACF00F
:102F90006217730794F0238134812A173B076CF082
:102FA0008217930754F0DD2311F0D55021F4FF244C
:102FB000F394D0E002C010E00CE0CF5FDDCFD093FF
:102FC0007905F0927A0500937D0510937505C093FD
:102FD0000402DF91CF911F910F91FF90EF90089520
:102FE0001F93CF93DF9340E06CE07AE0DEE1C9E02D
:102FF00015E04F3008F074C0242F30E0629FF001DC
:10300000639FF00D1124E45BFD4FA385AA2309F40F
:1030100065C08781811162C08085883C09F05EC0EF
:103020008681811128C0CA9FD0011124A859BB4FA5
:1030300017968C9117978823F1F0178310861496B2
:103040005C91149756958D919C91850F911D91835C
:103050008083A385CA9FD0011124A859BB4F159620
:103060005C911597569512968D919C911397850FAB
:10307000911D93838283629FF001639FF00D112461
:10308000E45BFD4F8681813049F5A3857A9FD001AD
:103090001124A45CBC4F17968C9117978823F1F0EC
:1030A000D783108614962C91149726958D919C9118
:1030B000820F911D91838083A3857A9FD001112473
:1030C000A45CBC4F15962C91159712968D919C91EE
:1030D0001397820F911D0596938382834F5F89CF4B
:1030E00040930502DF91CF911F910895909175054E
:1030F00080917A05992319F0913059F011C090917F
:103100007405983068F481110BC09F5F909374052B
:10311000089590917405992319F091509093740536
:10312000813099F420917405222379F08091700503
:10313000992787FD9095019668E070E00E94FE3D1A
:10314000809370052150209374050895FF920F938A
:103150001F93CF93DF9380917605813009F022C1D0
:1031600080917005992787FD9095A92FB92F8830F8
:10317000910508F040C0FC01E45CFF4F40916C05F4
:1031800050916D0520916E0530916F050C94533E62
:10319000405F5F4F15C0485F5F4F09C05093FA0111
:1031A0004093F901285F3F4F22C048505109509386
:1031B000FA014093F9012B5F3F4F19C0405151096B
:1031C0005093FA014093F90112C04850510909C0C7
:1031D0005093FA014093F9012850310908C0485F23
:1031E0005F4F5093FA014093F90125503109309314
:1031F000F8012093F701C091F3012091F90130917A
:10320000FA014091F7015091F801A091FB018091E2
:10321000FC019091FD01B0E0DAE0BC1790F5DB9F76
:10322000F0011124E45CFC4F608171816217730727
:1032300034F51481610F711D2617370704F562817B
:10324000738164177507DCF41581610F711D4617D2
:103250005707ACF46781662391F061506783611171
:103260000EC0608561110BC0AF5F6681663029F0CA
:10327000683029F486509F4F02C088519C4FBF5F31
:10328000CCCFA093FB01B091F201C091FE01A0E070
:10329000D9E0AB17B0F5DA9FF0011124E859FB4FE4
:1032A000608171816217730754F51481610F711D7C
:1032B0002617370724F56281738164177507FCF4BC
:1032C0001581610F711D46175707CCF4678166237E
:1032D000B1F061506783611112C0C23081F4608522
:1032E00061110DC06681673029F0693031F06430BA
:1032F00031F403C0825A9E4F02C088539F4FAF5F84
:10330000C8CF9093FD018093FC01A0930502CC23CC
:1033100009F448C0D0E01CE009E0D431E8F56D2F95
:1033200070E0169FF001179FF00D1124E45BFD4F34
:10333000A081B181A217B3076CF5F480AF0DB11D68
:103340002A173B073CF5A281B381A417B50714F5F2
:10335000F580AF0DB11D4A175B07E4F4A781AA23DE
:10336000C9F0A150A783A11115C0C13099F4E0851F
:10337000E11110C0069FF001079FF00D1124E859DC
:10338000FB4F6681662329F0613021F48C599F4FF1
:1033900001C0C296DF5FC1CF9093FD018093FC0115
:1033A000D0930502DF91CF911F910F91FF90089567
:1033B000FF920F931F93CF93DF938091710581113B
:1033C000A0C08091720581119CC08091750581110A
:1033D00098C08091FF018823A9F0813009F091C045
:1033E000C091F40180916C0590916D0520916E055E
:1033F00030916F0570917905A0917705B0E060E09C
:10340000D6E051C0C091F40180916C0590916D059A
:1034100020916E0530916F0570917905A091770527
:10342000B0E060E0D6E06C1708F067C0D69FF0010E
:103430001124E25BFA4F408151814817590734F556
:103440001481410F511D8417950704F54281538162
:1034500042175307DCF4E5814E0F511D2417350741
:10346000ACF4623069F028F4662341F0613061F019
:103470000DC0633049F0643019F008C0713310F0AA
:10348000AD3120F4B1E002C07133E0F36F5FCBCF18
:10349000D69FF0011124E25BFA4F40815181481719
:1034A000590724F06F5F6C1798F327C01481410F00
:1034B000511D84179507B4F7428153814217530772
:1034C0008CF7E5814E0F511D241735075CF76230EC
:1034D00069F028F4662341F0613061F0E3CF633096
:1034E00049F0643019F0DECF713310F0AD31D0F611
:1034F000B1E0D8CF7133E0F3D5CFB09375056093C9
:10350000050280917505813009F0F4C08091740541
:103510008111F0C08091FF018823A9F0813009F06A
:10352000E9C0C091F40180916C0590916D052091E6
:103530006E0530916F057091790560917705B1E066
:10354000A0E0D6E09AC01091F40120916C05309172
:103550006D0540916E0550916F05B0917905A09170
:103560007705D1E08091FC019091FD01C0E006E07B
:10357000C11708F06AC00C9FF0011124E25BFA4FFA
:1035800060817181621773070CF05DC0F4806F0D6C
:10359000711D261737070CF056C0628173816417BE
:1035A00075070CF050C0E5816E0F711D4617570767
:1035B0000CF049C0C23069F128F4CC2341F0C1308D
:1035C000E1F041C0C330C9F0C43019F13CC0B2339E
:1035D00019F4AE3121F432C0B23308F4BF5FAE311A
:1035E00008F4AF5FB23379F5AE3169F5883E63E038
:1035F0009607ECF0885E934026C0B233F9F0B23300
:1036000010F5BF5FB233F9F48E3E62E0960794F096
:103610000BC0AE3199F0AE31B0F4AF5FAE3199F47A
:103620008E3E62E0960764F08E5E92400CC080E0B1
:1036300090E009C080E090E0B2E305C0D0E003C0B4
:1036400080E090E0AEE1CF5F93CFB0937905A09397
:103650007705D0937505C09305029093FD01809383
:10366000FC0148C0DA9FF0011124E25BFA4F40816F
:1036700051814817590724F0AF5FAC1798F332C057
:103680001481410F511D84179507B4F7428153816E
:10369000421753078CF7E5814E0F511D241735074C
:1036A0005CF7A230B9F028F4AA2341F0A13061F010
:1036B000E3CFA33049F0A43069F0DECF723351F08C
:1036C000723350F47F5F08C0723351F07233A0F64A
:1036D0007F5FD2CF6E3121F06E3170F66F5FCCCF4D
:1036E000B0E0CACF7093790560937705B093750504
:1036F000A0930502DF91CF911F910F91FF90089544
:10370000809174058823E1F08091780590E001961E
:1037100064E670E00E94FE3D80937805892B39F4C1
:1037200080917705882319F08150809377058091E7
:103730007705811105C081E080937A058093750536
:1037400008958A3291054CF09C012A5231092332A6
:10375000324010F0825208958AE208958232910533
:103760004CF09C01225231092734324010F086542B
:10377000089582E2089520916C0530916D052A32FA
:10378000310564F0A9014A5251094332524020F4F4
:10379000821B930B8A9602C0825292402DE730E042
:1037A000B9010E94FE3D83589F4FB9010E94FE3D22
:1037B000089520916E0530916F052232310564F035
:1037C000A901425251094734524020F4821B930B05
:1037D000829602C0865492402DE730E0B9010E94E3
:1037E000FE3D83589F4FB9010E94FE3D08952091F0
:1037F0006C0530916D052A32310564F0A9014A52F9
:1038000051094332524020F4821B930B8A9608954B
:1038100082529240089520916E0530916F052232B8
:10382000310564F0A901425251094734524020F455
:10383000821B930B8296089586549240089580913E
:103840007705882361F080917405882341F0809189
:103850007B0590E001968370992780937B0580918A
:10386000010290E0019662E370E00E94FE3D8093C9
:10387000010280917A05813059F48091740581119B
:1038800007C080917C058B3018F48F5F80937C0596
:1038900080917D05882319F0815080937D0550919A
:1038A000F30120E03AE02517F8F4822F90E0389FEA
:1038B000F001399FF00D1124E45CFC4F4781411168
:1038C00005C040854C3010F44F5F4087389FF001B1
:1038D000399FF00D1124E45CFC4F8185882311F0A1
:1038E000815081872F5FDFCF2091F20180E039E0A6
:1038F000821778F4389FF0011124E859FB4F978123
:10390000911105C090859C3010F49F5F90878F5F68
:10391000EFCF809305028091FE01882329F120E0FA
:103920003CE02431F8F4822F90E0389FF001399F79
:10393000F00D1124E45BFD4F4781411105C0408526
:10394000493C10F44F5F4087389FF001399FF00DDC
:103950001124E45BFD4F8185882311F0815081871C
:103960002F5FDFCF209305020895EF920F93CF933F
:1039700080916C0590916D050E94A11BC82F282F86
:1039800030E03093FA012093F90180916E05909117
:103990006F050E94AE1B282F30E03093F801209372
:1039A000F7014EEF480F6EEF6C0F2FEC3CE08DEC03
:1039B00095E00E94FE2E80917D0563E00E94DE3D31
:1039C000911148C120917B0588E0289F9001112426
:1039D0002A52334F4091F70180917405481B48509B
:1039E0006091F90167508DEC95E00E94FE2E809168
:1039F0007005992787FD9095A92FB92F88309105DB
:103A000008F028C1FC01EC5BFF4F60E08DEC95E015
:103A10000C94533E0E949D2C4091F70180917405B7
:103A2000481B46506091F9016950E12C00E023EBFE
:103A30003CE08DEC95E00E947E2F61E08DEC95E0FE
:103A40000E949D2C4091F70180917405481B4650BF
:103A50006091F90169508DC00E949D2C4091F70141
:103A600080917405481B4D506091F9016750E12C1D
:103A700000E027E73CE08DEC95E00E947E2F61E0BE
:103A80008DEC95E00E949D2C4091F701809174058A
:103A9000481B4D506091F901675046C00E949D2C13
:103AA0004091F70180917405481B46506091F901DF
:103AB0006450E12C00E02FE13CE08DEC95E00E94A9
:103AC0007E2F61E08DEC95E00E949D2C4091F701E6
:103AD00080917405481B46506091F90164502FE3B2
:103AE0003CE0B4C00E949D2C4091F7018091740588
:103AF000481B4D506091F9016950EE24E39400E0B9
:103B000027E73CE08DEC95E00E947E2F61E08DEC94
:103B100095E00E949D2C4091F70180917405481B0F
:103B20004D506091F901695025E93CE08FC00E9439
:103B30009D2C4091F70180917405481B465060917F
:103B4000F9016750EE24E39400E023EB3CE08DECB8
:103B500095E00E947E2F61E08DEC95E00E949D2C07
:103B60004091F70180917405481B46506091F9011E
:103B7000675021EC3CE06AC00E949D2C4091F70107
:103B800080917405481B46506091F9016750EE24FE
:103B9000E39400E02FE43CE08DEC95E00E947E2F62
:103BA00061E08DEC95E00E949D2C4091F7018091A1
:103BB0007405481B46506091F901675045C00E944A
:103BC0009D2C4091F70180917405481B46506091EF
:103BD000F9016450E12C00E02FE13CE08DEC95E030
:103BE0000E947E2F61E08DEC95E00E949D2C40911B
:103BF000F70180917405481B46506091F9016450AB
:103C00002FE23CE023C00E949D2C4091F70180915F
:103C10007405481B46506091F9016950E12C00E0A1
:103C20002FE43CE08DEC95E00E947E2F61E08DEC6E
:103C300095E00E949D2C4091F70180917405481BEE
:103C400046506091F901695023E63CE08DEC95E027
:103C50000E947E2FCF910F91EF9008950F9360E017
:103C60008DEC95E00E949D2C05E024E540E060E0AD
:103C70008DEC95E00E94262D61E08DEC95E00E9490
:103C80009D2C26EF3CE041E06AE28DEC95E00E943D
:103C9000FE2E80917E058823C9F0813039F54AE0F7
:103CA00050E06091FB018DEC95E00E945C3C66E584
:103CB00071E08DEC95E00E94853B4AE050E0609118
:103CC000F3018DEC95E00E945C3C10C064E571E06E
:103CD0008DEC95E00E94853B6091FC017091FD01A7
:103CE0004AE050E08DEC95E00E94473C80917905D8
:103CF00065E00E94DE3D02E0282F42E061E38DECAA
:103D000095E00E94262D209177058BEA289F212D92
:103D10001124269542E062E48DEC95E00E94262D68
:103D20008FE48093D6051092D70580917E05882375
:103D300029F0813051F46CE571E002C068E571E072
:103D40008DEC95E00F910C94853B0F9108950F93A6
:103D5000CF938091FF01882329F0813049F463E7F4
:103D600071E002C060E671E08DEC95E00E94853B59
:103D700003E12EE147E06AE08DEC95E00E94572DCB
:103D8000209142013091430141E166E18DEC95E0E3
:103D90000E94FE2E209142013091430143E16DE1EA
:103DA0008DEC95E00E94FE2E20913C0130913D016A
:103DB00049E06EE18DEC95E00E94FE2E20913E01DF
:103DC00030913F0149E06CE08DEC95E00E94FE2EC1
:103DD0002EE147E062E38DEC95E00E94572D609163
:103DE000FF0188E2689F602D1124675F05E120E2F2
:103DF00046E08DEC95E00E94572DC3E2C093D605B6
:103E00008EE18093D70566E871E08DEC95E00E9425
:103E1000853BC093D60584E28093D7056BE871E0BB
:103E20008DEC95E00E94853BC093D6058AE2809395
:103E3000D70562E971E08DEC95E00E94853B8091A9
:103E4000FE01482F440F480F440F435E21EC3CE035
:103E50006FE08DEC95E00E94FE2E8091FE01482FD0
:103E6000440F480F440F455E2EED3CE061E18DECC0
:103E700095E0CF910F910C94FE2E0F931F93CF934B
:103E8000DF938091FF01882339F0813009F068C009
:103E90001092050205E034C01092050205E0C091C1
:103EA0000502C33108F05CC00C9FE0011124C15130
:103EB000DB4F888199810E94BB1B182F8093F901E9
:103EC0009093FA018A819B810E94D91B8093F7010C
:103ED0009093F801EC81F0E0EE0FFF1FE45CFE4FE1
:103EE000208131814CEE480F6CEE610F8DEC95E036
:103EF0000E94FE2E809105028F5F80930502CFCF36
:103F0000C0910502C33160F50C9FE0011124C1513D
:103F1000DB4F888199810E94BB1B182F8093F90188
:103F20009093FA018A819B810E94D91B8093F701AB
:103F30009093F801EC81F0E0EE0FFF1FE45CFE4F80
:103F4000208131814CEE480F6CEE610F8DEC95E0D5
:103F50000E94FE2E809105028F5F80930502D0CFD4
:103F6000DF91CF911F910F910895FF920F931F93AF
:103F7000CF93DF938091FF01882321F0813009F4F2
:103F800008C20DC489E390E00E94F71BEC019093F6
:103F9000FA018093F90183E190E00E940B1C909359
:103FA000F8018093F70123E12093F6012FE020939D
:103FB000F5019E012E5E3F4F2636310580F49C01AF
:103FC000225F3F4F2E33310550F420911E01309176
:103FD0001F01482F6C2F8DEC95E00E94FE2E88E18A
:103FE00090E00E94F71BEC019093FA018093F90195
:103FF0008BE190E00E940B1C9093F8018093F701F5
:1040000020E22093F6012DE12093F5019E01215E2F
:104010003F4F2337310580F49C01245E3F4F2C3401
:10402000310550F42091200130912101482F6C2F4F
:104030008DEC95E00E94FE2E8AE090E00E94F71B36
:10404000EC019093FA018093F90186E292E00E94DC
:104050000B1C9093F8018093F70120E22093F60166
:104060002DE12093F5019E01215E3F4F233731055D
:1040700080F49C01245E3F4F2C34310550F4209194
:10408000200130912101482F6C2F8DEC95E00E948A
:10409000FE2E81E891E00E94F71BEC019093FA015B
:1040A0008093F90187E690E00E940B1C9093F80141
:1040B0008093F70120E22093F6012DE12093F50192
:1040C0009E01215E3F4F2337310580F49C01245E21
:1040D0003F4F2C34310550F42091200130912101C3
:1040E000482F6C2F8DEC95E00E94FE2E8DE490E021
:1040F0000E94F71BEC019093FA018093F90181E291
:1041000090E00E940B1C9093F8018093F70129E145
:104110002093F6012AE12093F5019E01285E3F4F8E
:104120002C36310580F49C01275E3F4F2934310540
:1041300050F42091220130912301482F6C2F8DECF7
:1041400095E00E94FE2E8DE492E00E94F71BEC01A8
:104150009093FA018093F9018AE190E00E940B1C90
:104160009093F8018093F70129E12093F6012AE169
:104170002093F5019E01285E3F4F2C36310580F4D7
:104180009C01275E3F4F2934310550F420912201D4
:1041900030912301482F6C2F8DEC95E00E94FE2E6C
:1041A00082E191E00E94F71BEC019093FA01809369
:1041B000F9018FE191E00E940B1C9093F80180932C
:1041C000F70129E12093F6012AE12093F5019E01F0
:1041D000285E3F4F2C36310580F49C01275E3F4F0F
:1041E0002934310550F42091220130912301482FC8
:1041F0006C2F8DEC95E00E94FE2E8DEF90E00E94DA
:10420000F71BEC019093FA018093F9018FE990E09C
:104210000E940B1C9093F8018093F70124E22093F5
:10422000F60128E12093F5019E012D5D3F4F2737D0
:10423000310580F49C01295E3F4F2734310550F44D
:1042400020912E0130912F01482F6C2F8DEC95E09D
:104250000E94FE2E88E990E00E94F71BEC019093EB
:10426000FA018093F9018EE991E00E940B1C909372
:10427000F8018093F70124E22093F60128E12093CE
:10428000F5019E012D5D3F4F2737310580F49C01DC
:10429000295E3F4F2734310550F420912E01309193
:1042A0002F01482F6C2F8DEC95E00E94FE2E8EE0A2
:1042B00092E00E94F71BEC019093FA018093F901C0
:1042C0008CE191E00E940B1C9093F8018093F70120
:1042D00024E22093F60128E12093F5019E012D5D53
:1042E0003F4F2737310580F49C01295E3F4F27342B
:1042F000310550F420912E0130912F01482F6C2F61
:104300008DEC95E00E94FE2E1092050266E0F62EDE
:10431000C0910502C53008F042C2FC9EE0011124A4
:10432000C25BDA4F888199810E94F71B8C019093C0
:10433000FA018093F9018A819B810E940B1C909362
:10434000F8018093F70104351105ECF42C8130E07D
:1043500031952195310920173107ACF4803391054F
:1043600094F42D8130E031952195310928173907D2
:1043700054F420911C0130911D01482F602F8DECC9
:1043800095E00E94FE2E809105028F5F80930502CA
:10439000BFCF89E390E00E94F71BEC019093FA01F4
:1043A0008093F90183E190E00E940B1C9093F80147
:1043B0008093F70123E12093F6012FE02093F5018C
:1043C0009E012E5E3F4F2636310580F49C01225F10
:1043D0003F4F2E33310550F420911E0130911F01C3
:1043E000482F6C2F8DEC95E00E94FE2E88E190E026
:1043F0000E94F71BEC019093FA018093F9018BE185
:1044000090E00E940B1C9093F8018093F70120E24A
:104410002093F6012DE12093F5019E01215E3F4F8F
:104420002337310580F49C01245E3F4F2C34310545
:1044300050F42091200130912101482F6C2F8DECF8
:1044400095E00E94FE2E8AE090E00E94F71BEC01AE
:104450009093FA018093F90186E292E00E940B1C8E
:104460009093F8018093F70120E22093F6012DE16B
:104470002093F5019E01215E3F4F2337310580F4E3
:104480009C01245E3F4F2C34310550F420912001D3
:1044900030912101482F6C2F8DEC95E00E94FE2E6B
:1044A00081E891E00E94F71BEC019093FA01809360
:1044B000F90187E690E00E940B1C9093F80180932D
:1044C000F70120E22093F6012DE12093F5019E01F2
:1044D000215E3F4F2337310580F49C01245E3F4F1E
:1044E0002C34310550F42091200130912101482FC6
:1044F0006C2F8DEC95E00E94FE2E8DE490E00E94E2
:10450000F71BEC019093FA018093F90181E290E0AE
:104510000E940B1C9093F8018093F70129E12093EE
:10452000F6012AE12093F5019E01285E3F4F2C36CB
:10453000310580F49C01275E3F4F2934310550F44A
:104540002091220130912301482F6C2F8DEC95E0B2
:104550000E94FE2E8DE492E00E94F71BEC019093E6
:10456000FA018093F9018AE190E00E940B1C90937C
:10457000F8018093F70129E12093F6012AE12093C5
:10458000F5019E01285E3F4F2C36310580F49C01D9
:10459000275E3F4F2934310550F42091220130919C
:1045A0002301482F6C2F8DEC95E00E94FE2E82E1B6
:1045B00091E00E94F71BEC019093FA018093F901BE
:1045C0008FE191E00E940B1C9093F8018093F7011A
:1045D00029E12093F6012AE12093F5019E01285E4E
:1045E0003F4F2C36310580F49C01275E3F4F293424
:1045F000310550F42091220130912301482F6C2F76
:104600008DEC95E00E94FE2E8DEF90E00E94F71B4E
:10461000EC019093FA018093F9018FE990E00E94F8
:104620000B1C9093F8018093F70124E22093F6018C
:1046300028E12093F5019E012D5D3F4F273731057D
:1046400080F49C01295E3F4F2734310550F42091BE
:10465000300130913101482F6C2F8DEC95E00E9494
:10466000FE2E88E990E00E94F71BEC019093FA017E
:104670008093F9018EE991E00E940B1C9093F80160
:104680008093F70124E22093F60128E12093F501BD
:104690009E012D5D3F4F2737310580F49C01295E37
:1046A0003F4F2734310550F42091300130913101D2
:1046B000482F6C2F8DEC95E00E94FE2E8EE092E04C
:1046C0000E94F71BEC019093FA018093F9018CE1B1
:1046D00091E00E940B1C9093F8018093F70124E273
:1046E0002093F60128E12093F5019E012D5D3F4FB7
:1046F0002737310580F49C01295E3F4F273431056F
:1047000050F42091300130913101482F6C2F8DEC05
:1047100095E00E94FE2E1092050256E0F52EC09103
:104720000502C530E0F5FC9EE0011124C25BDA4FC2
:10473000888199810E94F71B8C019093FA018093E4
:10474000F9018A819B810E940B1C9093F801809350
:10475000F70104351105ECF42C8130E031952195F9
:10476000310920173107ACF48033910594F42D8181
:1047700030E03195219531092817390754F42091FB
:104780001C0130911D01482F602F8DEC95E00E9497
:10479000FE2E809105028F5F80930502C0CFDF91CE
:1047A000CF911F910F91FF900895DF92EF92FF92AA
:1047B0000F931F93CF93DF9310920502B9E0DB2E86
:1047C000E09005028091F201E81608F057C0F12C44
:1047D000DE9CE001DF9CD00D1124C859DB4F88819D
:1047E00099810E94F71B8C019093FA018093F90143
:1047F0008A819B810E940B1C9093F8018093F701A2
:1048000004351105ACF52C8130E031952195310945
:10481000201731076CF58033910554F52D8130E078
:104820003195219531092817390714F52F81211168
:104830000AC02885263038F0EE81F0E0EE0FFF1F29
:10484000E65FFE4F0DC0DE9CF001DF9CF00D1124F1
:10485000E859FB4FE681F0E0EE0FFF1FE45EFE4FEC
:1048600020813181482F602F8DEC95E00E94FE2E33
:10487000809105028F5F80930502A2CFDF91CF91D7
:104880001F910F91FF90EF90DF900895DF92EF92CC
:10489000FF920F931F93CF93DF93109205021AE0BC
:1048A000D12EE09005028091F301E81608F057C080
:1048B000F12CDE9CE001DF9CD00D1124C45CDC4FA8
:1048C000888199810E94F71B8C019093FA01809353
:1048D000F9018A819B810E940B1C9093F8018093BF
:1048E000F70104351105ACF52C8130E031952195A7
:1048F0003109201731076CF58033910554F52D816E
:1049000030E03195219531092817390714F52F81A9
:1049100021110AC02885263038F0EE81F0E0EE0F34
:10492000FF1FE65FFE4F0DC0DE9CF001DF9CF00D27
:104930001124E45CFC4FE681F0E0EE0FFF1FE45E23
:10494000FE4F20813181482F602F8DEC95E00E9431
:10495000FE2E809105028F5F80930502A2CFDF912A
:10496000CF911F910F91FF90EF90DF900895CF921C
:10497000DF92EF92FF920F931F93CF93DF931092EA
:1049800005020CE0F02ECCEEDFEFE0900502F3E143
:10499000FE1508F4CAC02E2D30E0F29EF001F39E01
:1049A000F00D1124E45BFD4F878181110AC08085E1
:1049B000883038F0883108F0B2C08370823009F056
:1049C000AEC0F29E8001F39E100D1124045B1D4FBA
:1049D000F801808191810E94F71B6C019093FA018C
:1049E0008093F901F801828193810E940B1C9093BE
:1049F000F8018093F701F8E6CF16D104ACF4F80182
:104A00002481AE01421B51094C155D056CF48434C0
:104A1000910554F42581FE01E21BF109E817F9071D
:104A20001CF48E2D0E940B146091F9017091FA0113
:104A3000643571050CF073C0E0910502FE9EF00133
:104A40001124E45BFD4F848190E09195819591095B
:104A5000861797070CF063C04091F7015091F80159
:104A6000403351050CF05BC0858190E091958195B4
:104A70009109841795070CF052C08681811113C0EB
:104A80008781882359F082858250843020F4EE2477
:104A9000E39400E005C021E53BE03DC0E12C01E0EE
:104AA00021E53BE020C0828590E088309105B8F593
:104AB000FC01E45BFF4F0C94533E20913201309196
:104AC000330129C0209134013091350124C0209157
:104AD0003601309137011FC02091340130913501EA
:104AE000EE24E39400E08DEC95E00E947E2F17C049
:104AF0002091320130913301F3CF20913A0130916E
:104B00003B01EECF209138013091390104C0209152
:104B10003A0130913B018DEC95E00E94FE2E809190
:104B200005028F5F8093050230CFDF91CF911F91F7
:104B30000F91FF90EF90DF90CF9008950F938091A9
:104B4000790581112BC080917C058B3039F560E0AF
:104B50008DEC95E00E949D2C07E026E242E168E1A1
:104B60008DEC95E00E94262D61E08DEC95E00E9491
:104B70009D2C09E028E241E167E18DEC95E00E947F
:104B8000572D89E18093D60583E18093D70567E9A6
:104B900071E08DEC95E00F910C94853B0F91089599
:104BA0000F93CF93DF9398E0899FE0011124CF55B5
:104BB000DE4F00E020E04E8160E084EA95E00E9454
:104BC0008A3620E0488161E084EA95E00E948A36D6
:104BD0002C8121954D8162E084EA95E00E948A361D
:104BE0002A812A534B8163E084EA95E00E948A3649
:104BF00020E04F81698184EA95E0DF91CF910F91A8
:104C00000C94BB36EF920F93CF9380917605813051
:104C100009F04AC180E00E94D02580916C059091F6
:104C20006D050E94A11BC82F482F50E05093FA0138
:104C30004093F90180916E0590916F050E94AE1B23
:104C4000E82FF0E0F093F801E093F7014091700550
:104C5000552747FD5095652F752F4830510508F0B1
:104C600023C1FA01EC5AFF4F9091010293700C940A
:104C7000533E91110DC020E12C0F90917405482FE7
:104C8000491B66E06C0F082F8DEC95E00E94A52C67
:104C9000209101028BEA289F812D11248695982F5F
:104CA000990F980F291B8AE0289F900111242F5FEC
:104CB000334F4091F70144506091F901645FEDC0BA
:104CC00091110FC005E0080F28E02C0F909174059A
:104CD000482F491B4F5F63E06C0F8DEC95E00E94FD
:104CE000A52C8091010263E00E94DE3D8AE0989F3E
:104CF000900111242F5F334F4091F7014F5FCAC0DD
:104D000091110CC008E0080F90917405482F491BC1
:104D10002C2F6C2F8DEC95E00E94A52C8091010228
:104D200063E00E94DE3D8AE0989F900111242F5F8E
:104D3000334F4091F7014C5F6091F9016450ADC071
:104D400091110FC005E0080F28EF2C0F909174050A
:104D5000482F491B4F5F6DEF6C0F8DEC95E00E9463
:104D6000A52C8091010263E00E94DE3D8AE0989FBD
:104D7000900111242F5F334F4091F7014F5F40C0E6
:104D800091110DC020EF2C0F90917405482F491BF5
:104D90006AEF6C0F082F8DEC95E00E94A52C809196
:104DA000010263E00E94DE3D8AE0989F9001112499
:104DB0002F5F334F4091F70144506091F9016451E6
:104DC00042C091110FC00BEF080F28EF2C0F9091EC
:104DD0007405482F491B42506BEF6C0F8DEC95E02A
:104DE0000E94A52C8091010263E00E94DE3D8AE0D2
:104DF000989F900111242F5F334F4091F701495044
:104E00006091F9016C501FC091110CC008EF080FA0
:104E100090917405482F491B2C2F6C2F8DEC95E039
:104E20000E94A52C8091010263E00E94DE3D8AE091
:104E3000989F900111242F5F334F4091F7014C5000
:104E40006091F9016450EE24E39400E08DEC95E06C
:104E50000E947E2F29C091110FC00BEF080F28E090
:104E60002C0F90917405482F491B425065E06C0F40
:104E70008DEC95E00E94A52C8091010263E00E94D8
:104E8000DE3D8AE0989F900111242F5F334F4091BF
:104E9000F70149506091F9016C5F8DEC95E0CF917D
:104EA0000F91EF900C94FE2ECF910F91EF900895FB
:104EB000EF92FF921F93CF93DF931F92CDB7DEB790
:104EC0001092050217E0E0910502EA3008F053C0A5
:104ED0001E9FF0011124EA5FFD4F8681882309F4AB
:104EE00044C0813019F480E00E94D02580910502F1
:104EF000189F70011124C7018A5F9D4F7C01FC013E
:104F0000818192810E94F71B682F8093F901909311
:104F1000FA01F7018381948169830E940B1C8093BD
:104F2000F7019093F801482F69818DEC95E00E947C
:104F3000E9086091F9016F5F4091F7018DEC95E010
:104F40000E94E9084091F7014F5F6091F9016F5F9E
:104F50008DEC95E00E94E9084091F7014F5F609168
:104F6000F9018DEC95E00E94E908809105028F5FC0
:104F700080930502A8CF0F90DF91CF911F91FF90F2
:104F8000EF900895AF92BF92DF92EF92FF920F934E
:104F90001F93CF93DF9380917A05813099F58091AB
:104FA000740581112FC080917C058B3058F581E00C
:104FB0000E94D02580916C0590916D050E94A11BE7
:104FC000C82FD0E02297D093FA01C093F9018091C5
:104FD0006E0590916F050E94AE1B482F50E04A501D
:104FE00051095093F8014093F70120917C058EE020
:104FF000289F90011124275A344F6C2F8DEC95E097
:105000000E94FE2E109205026AE0F62E7EE0E72E48
:10501000E09105028091F301E81708F0FEC0FE9EC2
:10502000F0011124E45CFC4F87818111F0C0808580
:105030008C3008F0ECC081E00E94D025C0910502C0
:10504000FC9EE0011124C45CDC4F888199810E94A0
:10505000F71B2C818C01020F111D045011091093B4
:10506000FA010093F9018A819B810E940B1C2D811A
:10507000820F911D06979093F8018093F701288580
:10508000E29E90011124275A344F482F602F8DEC57
:1050900095E00E94FE2EE0910502FE9EF001112493
:1050A000E45CFC4F8681843009F0B1C02085E29E2B
:1050B00090011124275A344F4091F701415F6091CC
:1050C000F9016E5F8DEC95E00E94FE2EE0910502E5
:1050D000FE9EF0011124E45CFC4F2085E29E9001CD
:1050E0001124275A344F4091F7014F5F6091F90125
:1050F000665F8DEC95E00E94FE2EE0910502FE9E1B
:10510000F0011124E45CFC4F2085E29E9001112403
:10511000275A344F4091F701495E6091F901625F6F
:105120008DEC95E00E94FE2EE0910502FE9EF001BE
:105130001124E45CFC4F2085E29E90011124275A43
:10514000344F4091F7014E5F6091F901655E8DEC3F
:1051500095E00E94FE2EE0910502FE9EF0011124D2
:10516000E45CFC4F2085E29E90011124275A344FC5
:105170004091F701445E6091F901625E8DEC95E02B
:105180000E94FE2EE0910502FE9EF0011124E45CD7
:10519000FC4F2085E29E90011124275A344F409104
:1051A000F7014B5E6091F901625D8DEC95E00E9424
:1051B000FE2EE0910502FE9EF0011124E45CFC4FFE
:1051C0002085E29E90011124275A344F4091F70127
:1051D0004E5F6091F901675C8DEC95E00E94FE2EB8
:1051E000E0910502FE9EF0011124E45CFC4F208555
:1051F000E29E90011124275A344F4091F701465EF8
:105200006091F901615C8DEC95E00E94FE2E809129
:1052100005028F5F80930502FBCE1092050239E0F4
:10522000F32E4AE0D42E5EE0E52EE0910502809157
:10523000F201E81708F00AC1FE9EF0011124E859B6
:10524000FB4F87818111FCC080858C3008F0F8C04D
:1052500081E00E94D025A0900502B12CDA9CE001EB
:10526000DB9CD00D1124C45CDC4F888199810E94A5
:10527000F71B2C818C01020F111D04501109109392
:10528000FA010093F9018A819B810E940B1C2D81F8
:10529000820F911D06979093F8018093F701FA9C75
:1052A000F001FB9CF00D1124E859FB4F2085E29E94
:1052B00090011124275A344F482F602F8DEC95E030
:1052C0000E94FE2EE0910502FE9EF0011124E85995
:1052D000FB4F8681843019F0853009F0B1C02085FC
:1052E000E29E90011124275A344F4091F701415F0B
:1052F0006091F9016E5F8DEC95E00E94FE2EE091C9
:105300000502FE9EF0011124E859FB4F2085E29E24
:1053100090011124275A344F4091F7014F5F60915B
:10532000F901665F8DEC95E00E94FE2EE09105028A
:10533000FE9EF0011124E859FB4F2085E29E90016A
:105340001124275A344F4091F701495E6091F901C9
:10535000625F8DEC95E00E94FE2EE0910502FE9EBC
:10536000F0011124E859FB4F2085E29E90011124A1
:10537000275A344F4091F7014E5F6091F901655E05
:105380008DEC95E00E94FE2EE0910502FE9EF0015C
:105390001124E859FB4F2085E29E90011124275AE1
:1053A000344F4091F701445E6091F901625E8DECEB
:1053B00095E00E94FE2EE0910502FE9EF001112470
:1053C000E859FB4F2085E29E90011124275A344F63
:1053D0004091F7014B5E6091F901625D8DEC95E0C3
:1053E0000E94FE2EE0910502FE9EF0011124E85974
:1053F000FB4F2085E29E90011124275A344F4091A3
:10540000F7014E5F6091F901675C8DEC95E00E94B9
:10541000FE2EE0910502FE9EF0011124E859FB4F9B
:105420002085E29E90011124275A344F4091F701C4
:10543000465E6091F901615C8DEC95E00E94FE2E64
:10544000809105028F5F80930502EFCE8091FE016F
:10545000882309F45EC0109205028CE0F82E9AE0D1
:10546000E92E2EE0D22E80910502843108F051C041
:1054700090E0F89E8001F99E100D1124045B1D4FF1
:10548000F801278121113FC020852C30E0F5E89EEE
:10549000E001E99ED00D1124C45CDC4F8881998124
:1054A0000E94F71B2C81820F911D04979093FA01A3
:1054B0008093F9018A819B810E940B1C2D81820FB0
:1054C000911D06979093F8018093F701F80186816A
:1054D0008130C9F40E94D025E0910502FE9EF001C2
:1054E0001124E45BFD4F2085D29E90011124275AA0
:1054F000344F4091F70143506091F9016B5F8DEC9F
:1055000095E00E94FE2E809105028F5F8093050238
:10551000AACFDF91CF911F910F91FF90EF90DF9075
:10552000BF90AF9008958FE795E00E9402338823E3
:10553000D1F180910002813019F0823029F0089574
:105540000E94A71E0C9436120E94B51F0E94D523FC
:105550000E9446248091FE0181110E94B7240E947E
:105560003D1F0E9402260E9458270E942E1E0E9464
:10557000B51C0E94C2270E949E250E94D8190E9435
:1055800036120E9476180E94A6180E9493170E9455
:10559000801B0E949C140E941F1C8091FE0182307F
:1055A00011F40C94F01708951092D0051092CF05C5
:1055B00085ED91E09093CE058093CD050895CF932E
:1055C000CFB7F89480910506811127C0E3E5F1E19A
:1055D0008491EFE3F1E19491E82FF0E0EE0FFF1FEB
:1055E000EF58FE4EA591B4918C91892321F461E08E
:1055F0008AE00E94B33A61E08AE00E947A3A8CB570
:1056000080618CBD8CB580648CBD61E08DE00E94B2
:105610007A3A61E08BE00E947A3A809105068F5FCA
:1056200080930506CFBFCF91089521E0FC01208330
:10563000089570E085E00C94F239AF92BF92CF925A
:10564000DF92EF92FF920F931F93CF93DF93EC01C2
:1056500089819A812FE0289F8001299F100D1124B4
:1056600085E10E94D539800F911F24E0969587959A
:105670002A95E1F79A8389832881222391F1AC81CD
:10568000AD80B12CC12CD12CE885F9857F0100E0DB
:1056900010E06E817F819B0140E050E08617970704
:1056A00028F0BC01E817F90708F4BF0180E090E09A
:1056B0001F921F921F92AF930E94693C6B830F90C1
:1056C0000F900F900F9070E085E0DF91CF911F91C8
:1056D0000F91FF90EF90DF90CF90BF90AF900C9420
:1056E000F239DF91CF911F910F91FF90EF90DF90F2
:1056F000CF90BF90AF900895FC018CE39FE093831F
:10570000828384E0818381E084870895CF93DF934F
:10571000EC018C858F7151F584E10E94D539BC0173
:10572000882777FD8095982F0E94DF3C26EE3FE387
:105730004EEC50E40E946B3D0E94B13C9B017B8388
:105740006A836115710581F084E08983FE0140E080
:10575000848195812817390710F449830AC04F5F67
:1057600032964430A9F702C08FEF89838C858F5F12
:105770008C87DF91CF910895FC0188E0808389E0D8
:10578000818387E0828386E0838384E0848382E070
:10579000858381E186830895DF92EF92FF920F93D4
:1057A0001F93CF93DF937C01EC0100E010E0DD2438
:1057B000DA9462E088810E947A3A88810E94E93A0C
:1057C000F701E00FF11F892B21F487818F5F878319
:1057D00008C08781882349F08F3F11F4178201C0E8
:1057E000D78260E088810E947A3A0F5F1F4F21962E
:1057F00007301105F1F6DF91CF911F910F91FF90C6
:10580000EF90DF900895FC01E60FF11D81E0978194
:10581000913009F080E00895262F30E0FC01E20F7E
:10582000F31F8781423028F481508E3F48F080E09A
:1058300008958F3FE1F3642F0E94DE3D9130B9F768
:1058400081E008958EBD00000DB407FEFDCF8EB53A
:1058500008951F93CF93DF93EC01162FF89460E027
:105860008E850E94B33A8F8518161CF460E00E9462
:10587000B33A812F0E94222C8F8518161CF461E008
:105880000E94B33A7894DF91CF911F91089528EF49
:1058900031E0E6E0F6E0DF01A9011D924150504001
:1058A000E1F7DC0119961C9219971A961C9208953B
:1058B000DF92EF92FF920F931F93CF93DF93EC0150
:1058C00086E0E82E86E0F82ED12C6D2D6064CE01A6
:1058D0000E94292C60E8CE010E94292C61E08E856F
:1058E0000E94B33A8F8518161CF460E00E94B33A08
:1058F00000E010E0F701E00FF11F80810E94222CF0
:105900000F5F1F4F04351105A9F78F8518161CF47A
:1059100061E00E94B33AD39484E5E80EF11C86E07E
:10592000D812D3CF60E4CE01DF91CF911F910F91B8
:10593000FF90EF90DF900C94292CFC01678F60A3FF
:105940000895FC01678F40A30895AF92BF92CF9254
:10595000DF92EF92FF920F931F93CF93DF93EC01AF
:10596000162FF42EE22EA02FBB27A7FDB095A41B67
:10597000B10947FDB395B7FF03C0B195A195B10932
:10598000EE2DFF27E7FDF095E11BF10917FDF395DB
:10599000F7FF03C0F195E195F109BB24B394EA1731
:1059A000FB0714F0B12C06C08E2DE02E082F812F9E
:1059B0001F2DF82EE11634F48F2DF02E082F812F95
:1059C0001E2DE82ECE2CC11AE02FFF27E7FDF09503
:1059D000EF19F109F7FCF395F7FF03C0F195E19595
:1059E000F109AE2EDC2CC7FE03C0DD24D394DC0C01
:1059F000D594F01614F401E00FC00FEF0DC0BB20DA
:105A000071F0412F6F2DCE010E94E908DA18D7FE00
:105A100002C0F00EDC0C1F5FE1168CF703C04F2DA7
:105A2000612FF1CFDF91CF911F910F91FF90EF90F8
:105A3000DF90CF90BF90AF9008950F93022F015049
:105A4000040F262F0E94A52C0F910895DF92EF924C
:105A5000FF920F931F93CF93DF937C01D42E162FC9
:105A6000C22FDD27C7FDD095C60FD11D67FDDA9582
:105A7000812F992787FD90958C179D0744F4202F3F
:105A80004D2D612FC7010E941D2D1F5FF1CFDF91AA
:105A9000CF911F910F91FF90EF90DF9008950F939A
:105AA0002150260F042F0E94A52C0F910895EF92EC
:105AB000FF920F931F93CF93DF93EC01F62E142FD9
:105AC000E22E0E944F2D4FEF400F410F2E2D6F2DD4
:105AD000CE010E944F2D202F412F6F2DCE010E940D
