:100000000C948F060C94B7060C94B7060C94B706A4
:100010000C94B7060C94B7060C94B7060C94B7066C
:100020000C94B7060C94B7060C94B7060C94782978
:100030000C94B7060C94B7060C94B7060C94B7064C
:100040000C94D5290C94B7060C94B7060C94B706FB
:100050000C94B7060C94B7060C94B7060C94B7062C
:100060000C94B7060C94B7069C0CA70CB20CBD0CF4
:10007000CD0CDA0CE50CF00CC80ECB0ECE0ED50E66
:10008000DE0EE50EE80EEF0E2C102D102A102A10B1
:100090002A102A102D102C1064168616A816CC16BD
:1000A000F116161739175D179318B118CD18EA18FD
:1000B0000619241943196719080A00000020704422
:1000C00068D47AFE080A7CFE447C7C446C546C4400
:1000D0001016101010105410AA0054008A881444EE
:1000E0009280500E00000000000000400000400020
:1000F00020141080000012008A128290ECFE10166C
:100100001010383854549292AAAAC6C6929292926B
:10011000FEFE0000000000000000101038385454AB
:100120009292AAAAC6C682828282FEFE2020000087
:1001300000000600005009000212055C01000914CD
:10014000000071AA400C41550A207EFF81045580B1
:10015000401250912000519521E44A911AB84D80E7
:100160000D506EFFFABE160187565A0362BC970106
:10017000C1501A813AB0158003503EFE0EF8015569
:10018000F50401AAAB240F57D51435F7FF286B1FD0
:100190008148D519E1E4AB3FF15CD563D124791FE7
:1001A000D14449F7FF24C11401147F0C01FC202025
:1001B000080000203E0000F84900012441FFFF0430
:1001C000E155550E41AAAB04415555047EFFFEFC96
:1001D000558003545A9112B4559113545A9112B444
:1001E000558003547AFFFEBC158003501A8002B07C
:1001F000158003501A8002B0158003503EFFFEF8B0
:100200004155550441AAAB04E155550E41FFFF0489
:10021000490001247F0FE1FC4917D1244117D10483
:100220004917D12449FFFF24410001047F0001FC4C
:10023000482980000000000007F8FF000007C00008
:10024000000110110080046000000FFCFF10098500
:10025000E00000111011088125700040100001001D
:1002600000051820E01280013000078C2040128029
:1002700028025864EC20E013C02803FFFD7C2061B5
:1002800013C07826C1643C00601140786630758CDC
:1002900020E01060510E98258420E40000C1420047
:1002A000E58420E210000107FFE7FC20E007820060
:1002B00015000000006011C3C1000200000000171B
:1002C00080F100096400000011E1C1080000000095
:1002D000001020F10C02001E000010000108008038
:1002E0002100000F9C3F0C00005E80000150110CAB
:1002F00000005E80033FFE1F1C00006180001111A2
:10030000111C00005E80000000001C0000210000A5
:100310000000001C1C1E1E00000000001C22220009
:1003200000000000000C5FFB00000000000000A7C0
:10033000E500000002000000A6E20000001E000030
:1003400000FE3C0000003E000000838801060066BD
:10035000102000A2A8010001EE3010088038000033
:10036000039E003000337E70000372007806BB7974
:10037000502003CA009410B0FF49589B826132009C
:10038000FFF831EF02C2003A00000007D582C21C1C
:100390003810080026C682C2061800000003FF03BA
:1003A000FE001848298000000000001FFFFF03FF27
:1003B000E7FC00001111110200240600181FFFFFC6
:1003C00002FFA5F500EE1111110280A516C155100E
:1003D000C0010280A51562AA90500D03FFE7FEA59B
:1003E000555078290200240566ACD0787902AAA578
:1003F00056A57450287902002405666C1028510215
:10040000CC2584E5A410005102CC258420A0100046
:100410000102C0258420A010330103FFE7FC20A0C7
:1004200010A14100000000006011E1E103000000A4
:10043000000011E1E11DC0000000001140A12AB040
:10044000000000001140A15550001E0000100001E6
:10045000AAA8802100001FFFFFD598005E80001130
:100460001111AE88005E80001FFFFFCD800061800B
:10047000001111119480005E800000000014000043
:1004800021000000000014FFFE1E00000000001408
:1004900080020000000000000CBFFF000000000010
:1004A0000000A00103FE03FE00C000A00102020242
:1004B0000203B800FFFF02FB8EFA05540080090218
:1004C0008B768A0AAA00AAAF028AAA8A15550080EA
:1004D0000903FF57FE19AB00B30F0202AA02117500
:1004E00000B30902AB56AA01B300B00F0203AE027B
:1004F000012900FFF802C272C2002800000002C2F7
:1005000002C2002800080002C202C2002800000047
:1005100003FE03FE003028180000C000000003B8EE
:1005200000000005540000000AAA00000015550054
:10053000000019AB000000117500000801B30000B5
:100540000A012900002C402800001C50280000004F
:10055000002800003FFE3000005555C0FC00AAAA4C
:10056000A14200D55562A1006AFAA490801F07CC71
:100570009FC0003017F4A00114000000039E00008B
:1005800000011E000000028A000000000A000000B6
:10059000201A03E000000C180000100400002202E2
:1005A0000000401100004001000083E08000AC1812
:1005B00080009004BF80AFFABD80D7F5BC80D7F52E
:1005C000BB8097F4A78097F4B78097F4BF80FFFFB4
:1005D000A08000000000000000000006000003886A
:1005E00000000250000002600000FFBC7000B0324A
:1005F000E000C84A7000CFCCE000201D003F800022
:1006000000D540001FABE00075D60000AABC00007A
:10061000DD6B0000A7D58000CB7EC00095403FFC7D
:100620001D4040020B40FFFF0D4090090940A569A5
:100630000280B5490280A6250480FFFF078640029C
:1006400000694EFA009F4EAA00E54EFA00BD4E0228
:1006500060A57FFE96660000F9180E38A7000B2CE7
:10066000BD000EBAA5000F3C66000E381800000051
:10067000180F01F00003F80007FC000208003E4FCD
:10068000807EAFC0FC47E04000405CE74054E5405E
:100690005CE74040E04043F8407C07C007FC0010A6
:1006A00009AAA800008D880D808F880D808D880094
:1006B00000AAA810090C001E0017002B8037E06B61
:1006C000F0D5F8AAFCFFFC080C04048CA8F86068BC
:1006D00070206070F8080802004004002004000840
:1006E0000910181858DAFB7F1E1808052592623C7D
:1006F00010080C000000000000000000001C2A0888
:100700000C0000000000000000001C3E3E080C0031
:10071000000000000000003E7F7F7F080C0000000A
:100720000000003E7F7F7F7F1C080C000000003E21
:100730007F7F7F7F1C1C3E080C00003E7F7F7F7FF9
:100740001C08081C3E080C003E7F7F7F7F000000D5
:1007500000081C080C001C3E7F7F360000000000D3
:1007600008080C00001C3E360000000000000008D5
:100770000C0000081C0000000000000000080C0035
:100780000000080000000000000000080C0000004D
:100790000000000000000000000808000000000049
:1007A000081C0008080000000008221400080800C7
:1007B0000000002208440010071C003E003E00FF1D
:1007C00080BE801C0022000F071C003E003600F394
:1007D00080BE801C0022000F071C0022002200F7B0
:1007E00080BE801C0022001009007803F807FE0379
:1007F000FC07F80DC058007800300010090078029E
:10080000F805F203FC07F80DC0580068003000102E
:100810000E8000C000C000E000700018000E000F45
:10082000000F80FFE07FF037D81BC001C0100E80A2
:1008300000C000C000A000700018000E000F000FE4
:1008400080FE607E70274813C001C010068040C142
:10085000F0FFF847FC03FE01FE10068040C1F0BF28
:10086000E847E4033A01FE08050050A850000F03D2
:10087000007003801C000F030000FFFE00000F0348
:100880001C00038000700F03010003800100380486
:10089000DBFFC5FFE27FF8FA00490025400872003F
:1008A0004D0027400823FFC9FFE57FF848230000DB
:1008B000000000000000000000000018000000011F
:1008C0000000000007C000003E00000000007C02A5
:1008D00001E0000000000007F27F000000000000BF
:1008E000003DE000008020000003DFDF00011B3638
:1008F000C0001E0201E0012AA48001F007003E00B2
:10090000B312800700020001000200001800070077
:10091000000000000000000D8000000050000000FA
:1009200018C00000501000000018C000009B558047
:1009300000003FE000005259000000EFB800008ABC
:1009400054800001EFBC00000000000001FFFC002B
:10095000000000000001FFFC000000800000FFFF1D
:10096000FFF807FBEFF0007FFFFFF00001C0000081
:10097000221FC22000794F0000771FC770000000BF
:100980000000720F82700000000000350705600053
:100990000000000000FFF8000000000000007FF0F1
:1009A0000000000000000002000000000000000045
:1009B0000200000000000000000000000000000035
:1009C00000000000000080000000000000000100A6
:1009D00000210002000400C56310A1444420C502A8
:1009E000FFFFFFFFFFFFFFFFFF03053F213F12084F
:1009F000120A100A0E1C0E0C1E0C141A14161F16C6
:100A00001E131E1E1B1E1E1F1E3F213F3A2F3A178C
:100A10003D173F213F181F02040A041F0E04040E55
:100A20001F0A1F0A0E0E1F04110E2E252E2F2A2E0E
:100A3000262929021F02081F08150E04040E150E90
:100A400015151B151B040604040C040000000017F8
:100A5000000300031F0A1F16371A1904130A153A58
:100A6000000300000E11110E000A040A040E040017
:100A700030000404040010001804031F111F121F8B
:100A8000101D151711151F07041F17151D1F151D04
:100A900001011F1F151F17151F000A000032000457
:100AA0000A110A0A0A110A040115020E11171E057D
:100AB0001E1F150A0E110A1F110E1F15111F050109
:100AC0000E111D1F041F111F1108100F1F041B1FE3
:100AD00010101F061F1E040F0E110E1F09060E1107
:100AE0002E1F051A121509011F011F101F0F180FC5
:100AF0001F0C1F1B041B031C03191513001F1103DC
:100B00000418111F000201022020200001020C1213
:100B10001E1F120C0C12120C121F0C1A14041E05AC
:100B2000242A1E1F021C141D1020201D1F08141132
:100B30001F101E041E1E021C0C120C3E0A040C1276
:100B40003E1E040214160A020F120E101E0E100E84
:100B50001E081E120C1226281E322A26041E2100F0
:100B60001F00211E040102013F213F0A4E6F205346
:100B7000442063617264206F720A6E6F204C4F4193
:100B80004445522E4845580A0A153A45786974007A
:100B90001D20466C617368696E670A20206C6F6166
:100BA0006465722E2E2E0A0A444F4E275420545547
:100BB000524E204F464621006D560A0A504C454180
:100BC00053450A5455524E204F4646004C4F57202D
:100BD000424154544552590A0017534400161378A1
:100BE0000016131400151020001520100000540AE0
:100BF00003E181867F3E186D830F0F0E01838660AF
:100C000033186DC3198F1803C38E6033186DE3302A
:100C1000CF1803C39E603630CDE360CF3006C79E49
:100C20007E3E30CDB360CF300CC6F6603330D9B6DF
:100C300060CF33CFCCF66061B0DB1E60CF30D86CB4
:100C4000E6C061B0DB1E618F19986CC6C063B19BB2
:100C50000E330F0FB078C6FF7E1F1B061E0F050058
:100C6000893008023802497868140000F6E8DBCFC2
:100C7000C3B8AEA49B928A827B746E68625C575242
:100C80004E4945413E3A3734312E2C292725232120
:100C90001F1D1C1A1917161514131211100F0E0D03
:100CA0000C0B0A090807064500680100000500381A
:100CB0000168010000BD0CB90C0101FF030101F73F
:100CC0000300000008000201000003040700000008
:100CD000000000000001020408102040800102040E
:100CE0000810200102040810200404040404040471
:100CF00004020202020202030303030303000000D2
:100D00000023002600290000000000250028002BF9
:100D10000000000000240027002A00007D1B112491
:100D20001FBECFEFD8E0DEBFCDBF11E0A0E0B1E045
:100D3000EEEFFDE502C005900D92A83CB107D9F792
:100D400026E0A8ECB1E001C01D92A532B207E1F7A0
:100D50001DE0CEE1DDE004C02297FE010E94DF2EFF
:100D6000CC31D107C9F70E94EF2B0C94FD2E0C94C7
:100D70000000643508F047C0403308F044C0FC016F
:100D8000878D242F259525952595E62FFF27E7FDAF
:100D9000F0954770823091F4DF01A25EBB4F84E58D
:100DA0002802A00DB11D11248C9190E0042E02C0E8
:100DB000959587950A94E2F780958170811112C00C
:100DC00084E52802E00DF11D1124E25EFB4F81E075
:100DD00090E0042E01C0880F0A94EAF78095908174
:100DE000982310C084E52802E00DF11D1124E25E75
:100DF000FB4F81E090E0042E01C0880F0A94EAF7CF
:100E00009081982B9083089581E490E090938503DE
:100E1000809384038BE290E0909387038093860312
:100E200010928C031092880310928A031092890307
:100E300084E080938B0381E080938D031092930371
:100E400082E380938F0384E68093920384E180930E
:100E500090031092910310928E03109294031092BB
:100E6000950380E097E0989FF0011124EA52FE4F2D
:100E70001282118214821382158216828F5F8A3049
:100E800090F38093D501089587E993E00E94992615
:100E900081E08093D1011092D0011092D2010E9482
:100EA00004076CEA78E087E993E00E941B26109221
:100EB000AF0308958091D00181114AC378E0709307
:100EC000C8018DE390E0909349038093480389E241
:100ED00090E090934B0380934A032DE020934C03C2
:100EE00067E060934D0389E390E090934F03809314
:100EF0004E038FE591E0909351038093500320932C
:100F000052036093530381EB90E0909355038093D9
:100F1000540386E993E090935703809356032093FC
:100F200058036093590380E791E090935B038093AB
:100F30005A0388EB91E090935D0380935C032093C8
:100F40005E0360935F0389E993E09093610380936C
:100F5000600380E290E090936303809362032093A8
:100F60006403609365038CE293E09093670380933E
:100F700066038BE491E09093690380936803209368
:100F80006A0360936B0385EB92E090936D0380930B
:100F90006C0381E593E090936F0380936E0320933D
:100FA0007003609371038AE893E0909373038093D6
:100FB000720381EC93E09093750380937403209304
:100FC0007603609377038EE18093C90188E690E011
:100FD00090931D0280931C0280E390E090931F0287
:100FE00080931E0258E45093200249E2409321026C
:100FF00034E030932202109224022FEF2093230238
:101000001092250285E493E09093270280932602B4
:101010008CE290E0909329028093280250932A0258
:1010200040932B0230932C0210922E0220932D021B
:1010300010922F0281EC92E0909331028093300263
:101040008DE091E09093330280933202509334020A
:1010500040933502309336021092380220933702C3
:10106000109239028EE892E090933B0280933A020C
:1010700081E093E090933D0280933C0250933E02C6
:1010800040933F023093400210924202209341026B
:101090001092430283E390E09093450280934402D0
:1010A00082E693E090934702809346025093480271
:1010B0004093490230934A0210924C0220934B0213
:1010C00010924D0283E991E090934F0280934E027B
:1010D00085EB90E09093510280935002E0E1E09321
:1010E000520256E1509353026093540210925602FA
:1010F00044E1409355021092570228ED31E03093BD
:1011000059022093580290935B0280935A02E09315
:101110005C0250935D0260935E0210926002409305
:101120005F021092610284E991E0909363028093E0
:10113000620286EF90E09093650280936402E093F0
:101140006602509367026093680210926A024093AD
:10115000690210926B022AED31E030936D02209308
:101160006C0290936F0280936E02E0937002509332
:101170007102609372021092740240937302109293
:1011800075028CE491E090937702809376028BE86D
:1011900092E09093790280937802E0937A025093E0
:1011A0007B0260937C0210927E0240937D0210923B
:1011B0007F0228E631E030938102209380029093F1
:1011C000830280938202E0938402509385026093AD
:1011D000860210928802409387021092890285E667
:1011E00093E090938B0280938A0286E192E0909341
:1011F0008D0280938C02E0938E0250938F02609355
:10120000900210929202409391021092930281E90F
:1012100093E090939502809394022BE332E0309315
:10122000970220939602E09398025093990260935C
:101230009A0210929C0240939B0210929D022EEB08
:1012400033E030939F0220939E0225E132E03093F9
:10125000A1022093A002E093A2025093A302609304
:10126000A4021092A6024093A5021092A7029093A6
:10127000A9028093A8028CEE91E09093AB02809338
:10128000AA02E093AC025093AD026093AE021092BA
:10129000B0024093AF021092B10284E491E09093C7
:1012A000B3028093B20245E852E05093B5024093F6
:1012B000B4026093B602FAE0F093B7027093B802FA
:1012C0001092BA02E0E5E093B9021092BB0290934B
:1012D000BD028093BC028DE992E09093BF0280939F
:1012E000BE026093C002F093C1027093C2021092DA
:1012F000C402E093C3021092C50228E731E03093A4
:10130000C7022093C6025093C9024093C80260935B
:10131000CA02F093CB027093CC021092CE02E093FB
:10132000CD021092CF023093D1022093D00290933D
:10133000D3028093D2026093D402F093D5027093CB
:10134000D6021092D802E093D7021092D9028AE313
:1013500091E09093DB028093DA0281E493E0909332
:10136000DD028093DC026093DE02F093DF02709373
:10137000E0021092E202E093E1021092E3028EE7B3
:1013800091E09093E5028093E4028FE593E09093DF
:10139000E7028093E6026093E802F093E90270931B
:1013A000EA021092EC02E093EB021092ED022DE9BA
:1013B00031E03093EF022093EE022FE733E03093D9
:1013C000F1022093F0026093F202F093F302709323
:1013D000F4021092F602E093F5021092F7022CEB61
:1013E00031E03093F9022093F8029093FB0280934E
:1013F000FA026093FC02F093FD027093FE021092D9
:101400000003E093FF021092010325E733E03093DD
:101410000303209302038FEF91E0909305038093E1
:10142000040360930603F09307037093080310927C
:101430000A03E093090310920B0330930D032093EA
:101440000C034DE352E050930F0340930E0360935F
:101450001003F09311037093120310921403E0939E
:1014600013031092150324EB33E0309317032093FA
:101470001603509319034093180360931A03F093D3
:101480001B0370931C0310921E03E0931D03109224
:101490001F03309321032093200390932303809311
:1014A000220360932403F093250370932603109284
:1014B0002803E0932703109229038AEA91E090938E
:1014C0002B0380932A038FEC90E090932D0380935D
:1014D0002C0320E220932E0320932F0346E0409319
:1014E00030031092320336E9309331031092330304
:1014F00081E991E0909335038093340384E593E090
:101500009093370380933603209338032093390355
:1015100040933A0310923C0330933B0310923D03F7
:1015200088E893E090933F0380933E0382E192E04A
:1015300090934103809340032093420320934303FD
:10154000409344031092460330934503109247039F
:1015500008958091D101813019F08230A1F1089570
:1015600062E081EA93E00E94AC1C882351F08091F4
:10157000D00190E0019663E070E00E94882E809395
:10158000D00160E081EA93E00E94AC1C882371F0F6
:101590008091D001811104C082E08093D00106C007
:1015A00063E00E94682E91509093D00164E081EA3C
:1015B00093E00E94AC1C882309F488C182E08093E8
:1015C000D1010C945A0766E081EA93E00E94AC1CBA
:1015D000882331F06CEA78E087E993E00E941B26CB
:1015E00065E081EA93E00E94AC1C8823E9F08091D9
:1015F0008D03882319F0813089F016C080918A0309
:10160000811112C08091890381110EC080918C03D9
:101610008A3051F481E080938D0306C0809193035A
:10162000811102C010928D0340E064E081EA93E0F2
:101630000E94B51C20918D0390918F03882339F06F
:10164000211105C080918C038A3009F4F3C01092F7
:101650008E03923318F49F5F90938F03211136C14C
:1016600040E062E081EA93E00E94B51C882369F0C3
:1016700040918A03242F332727FD309580918B03D7
:1016800090E02817390714F51EC040E060E081EAB9
:1016900093E00E94B51C40918A03882371F08091E9
:1016A0008B0390E0919581959109242F332727FD95
:1016B00030958217930754F402C0141614F4415065
:1016C00003C0442319F04F5F40938A0340E063E076
:1016D00081EA93E00E94B51C882369F04091890358
:1016E000242F332727FD309580918B0390E0281716
:1016F000390714F51EC040E061E081EA93E00E94E2
:10170000B51C40918903882371F080918B0390E090
:10171000919581959109242F332727FD30958217C4
:10172000930754F402C0141614F4415003C0442328
:1017300019F04F5F4093890320918A031216A4F495
:10174000809184039091850360E0332727FD3095D5
:10175000462F50E042175307BCF4883E43E09407FD
:101760000CF401966F5FF4CF2223A1F080918403E3
:101770009091850360E0332721950CF43095462F36
:1017800050E0421753079CF09093850380938403A5
:101790006093D501209189031216DCF480918603B1
:1017A0009091870360E0332727FD30950CC0181611
:1017B00019060CF401976F5FE2CF883E43E094076F
:1017C0000CF401966F5F462F50E042175307ACF3BD
:1017D00010C02223A1F0809186039091870360E0DE
:1017E000332721950CF43095462F50E042175307CC
:1017F0007CF06093D501909387038093860340E04B
:1018000064E081EA93E00E94B51C811107C01EC00C
:10181000863091050CF001976F5FE6CF80918D03C4
:10182000811114C080918C038A3081F481E080930F
:101830008E030895992339F081E080938E039150AF
:1018400090938F030DCF10928E030ACF10928E03C8
:1018500080918A0318163CF490918903911117C066
:101860001092880319C0811108C08091890318164D
:10187000ACF482E08093880311C087FF17C0809189
:1018800089031816DCF493E0909388031BC01916A3
:101890001CF491E090938803811108C08091890322
:1018A00087FF14C086E0809388030895181674F4A7
:1018B0008091890387FF0AC087E0F5CF811102C0BC
:1018C00084E0F1CF87FF02C085E0EDCF08952F922D
:1018D0003F924F925F926F927F928F929F92AF92C0
:1018E000BF92CF92DF92EF92FF920F931F93CF930D
:1018F000DF9300D000D000D0CDB7DEB710E047E0D6
:101900005AE01A3008F099C0212F30E0429FF001D0
:10191000439FF00D1124EA52FE4F8681882309F47B
:101920008AC0858190E08830910508F06AC0FC018A
:10193000EC5CFF4F0C94DD2E429FF001439FF00DB5
:101940001124EA52FE4F81819281029630C0429F5B
:10195000F001439FF00D1124EA52FE4F81819281E4
:10196000019615C0429FF001439FF00D1124EA52E9
:10197000FE4F83819481029642C0429FF001439FB3
:10198000F00D1124EA52FE4F8181928101979283DA
:10199000818383819481019632C0429FF001439FED
:1019A000F00D1124EA52FE4F8181928102979283B9
:1019B000818327C0429FF001439FF00D1124EA521A
:1019C000FE4F81819281019715C0429FF001439F94
:1019D000F00D1124EA52FE4F8381948102970FC0CB
:1019E000429FF001439FF00D1124EA52FE4F818186
:1019F000928101969283818383819481019794835C
:101A00008383429FF001439FF00D1124EA52FE4F61
:101A100086818F5F86838F3170F0A0815A9FD001BD
:101A20001124A45EBD4F19961C9212821182148259
:101A30001382158216821F5F64CF409184035091F8
:101A40008503609086037090870380918C03B301B7
:101A5000681B7109F12EE091CE013091CF012091E8
:101A6000CC018091CD01A090D301B5E0BB2E3324F1
:101A700033949DE19B1508F4C1C08AE08B9DF00171
:101A80001124E45EFD4F8481869520813181280FE9
:101A9000311DA581A695828193818A0F911DDA015E
:101AA000A21BB30BA65BBF4FA539B10508F0A1C0BF
:101AB000D301A81BB90BA65BBF4FA539B10508F030
:101AC00098C08F01075F1F4FA185A11192C0E781C8
:101AD000EE2309F48EC0EBEDF1E0A6EDB1E0BE839C
:101AE000AD83ACEDB1E0BC83AB83A12C1A83098339
:101AF00089010B5F1F4F4901B5E08B1A91087C01EA
:101B0000A5E0EA0EF11C2C01B6E04B1A51086C015D
:101B1000A5E0CA1AD108B2E0E132FB0709F467C0B8
:101B2000AB81BC812C90211056C0A11054C0A4E1FF
:101B3000AA2EA981BA81AC92AD81BE81BC921296C7
:101B40003C932E93119714969C938E931397AB818D
:101B5000BC813C9210820417150724F4E616F706A0
:101B60000CF43082481559054CF00417150764F041
:101B7000861797074CF4B2E0B08306C0E616F70666
:101B80001CF4B3E0AB2EA0824217530744F46C154B
:101B90007D052CF0E616F70614F0A4E0A0834815A6
:101BA000590534F46C157D0564F4B5E0B08309C0C3
:101BB0000417150734F0641575051CF4A6E0AA2E69
:101BC000A082041715072CF46C157D0514F4A7E00A
:101BD000A083AA24A3943796AD81BE811796BE83B5
:101BE000AD83AB81BC811796BC83AB8394CFEAE015
:101BF000FE2EB394E22F282F892F3BCFF092D401F1
:101C0000E093CE013093CF012093CC018093CD019E
:101C1000A092D301B092D50126960FB6F894DEBFFC
:101C20000FBECDBFDF91CF911F910F91FF90EF902D
:101C3000DF90CF90BF90AF909F908F907F906F90EC
:101C40005F904F903F902F900895EF92FF920F93E7
:101C50001F93CF93DF938091960381114CC08091A5
:101C6000840390918503AC0143505109BC016D5F21
:101C70007F4F20918C038091860390918703821B74
:101C80009109DC0113970396D0919203F09093038E
:101C900000E010918D03C0E027E0E22ECA3008F585
:101CA000EC9EF0011124EA52FE4F2181328124176B
:101CB0003507ACF06217730794F0238134812A173B
:101CC0003B076CF08217930754F0DD2311F0D550D9
:101CD00021F4FF24F394D0E002C010E00CE0CF5FC9
:101CE000DDCFD0939203F092930300939603109369
:101CF0008D03C093D401DF91CF911F910F91FF907D
:101D0000EF90089580918D03882319F0813039F088
:101D10000DC080918C038A3048F48F5F05C080919C
:101D20008C03882319F0815080938C038091930356
:101D3000813081F480918C03882361F08091880345
:101D4000992787FD9095019668E070E00E94882EA3
:101D500080938803089580918E03813009F07DC0BF
:101D600080918803992787FD9095A92FB92F8830F6
:101D7000910508F040C0FC01E45CFF4F40918403F2
:101D80005091850320918603309187030C94DD2EBA
:101D9000405F5F4F15C0485F5F4F09C05093CF0150
:101DA0004093CE01285F3F4F22C0485051095093C5
:101DB000CF014093CE012B5F3F4F19C040515109D5
:101DC0005093CF014093CE0112C04850510909C031
:101DD0005093CF014093CE012850310908C0485F8D
:101DE0005F4F5093CF014093CE012550310930937E
:101DF000CD012093CC017091C9018091CE019091C9
:101E0000CF012091CC013091CD0160E0AAE06717AD
:101E100010F5A69FF0011124E45EFD4F4081518131
:101E200048175907B4F4B4814B0F511D8417950717
:101E300084F442815381421753075CF4B5814B0F00
:101E4000511D241735072CF44781442311F04150CC
:101E500047836F5FDCCF6093D501089580918C0339
:101E60008823E1F08091910390E0019664E670E0B0
:101E70000E94882E80939103892B39F480919003DE
:101E8000882319F0815080939003809190038111F1
:101E900005C081E08093930380938D0308958A3277
:101EA00091054CF09C012A5231092539334010F03C
:101EB000845908958AE20895823291054CF09C017C
:101EC00022523109293B334010F0885B089582E2A9
:101ED0000895AF92BF92DF92EF92FF920F931F93FC
:101EE000CF93DF931F92CDB7DEB780918D03813002
:101EF00009F068C080918C03833009F063C0809141
:101F00008403909185030E944F0FE0908603F09028
:101F100087034091D40150E03EEFD32ED80EA82E77
:101F2000B12C2FEFA21AB20A0D2D10E0A016B106A7
:101F30006CF1C70159830E945C0F4FEF480F90E08E
:101F4000025E1B4F5981242F30E082179307E4F083
:101F500033E53D15B8F04033A8F4242F2595259599
:101F60002595F80134E52302E00DF11D11242081AF
:101F700030E0642F677002C0359527956A95E2F7C7
:101F800020FD51E04F5FDFCFD394CECF4093D401FB
:101F90005093D301D092D5015130A1F48091920396
:101FA000882319F0855080939203809192038111C8
:101FB00004C081E08093930305C08CE08093960376
:101FC00010928D0380918D03813009F04FC0809174
:101FD0008C0381114BC080919303811147C0809184
:101FE000D001811143C0F090C80120918403309149
:101FF000850340918603509187030091920360917D
:10200000900370E016E07F1558F5179FF00111243A
:10201000E85BFC4F8081918182179307FCF4A481D7
:102020008A0F911D28173907CCF482819381841778
:102030009507A4F4E5818E0F911D4817590774F494
:10204000872F90E08830910548F4FC01EC5BFF4F4E
:102050000C94DD2E64E102C064E104E67F5FD3CF1F
:102060007093D50100939203609390030F90DF91DA
:10207000CF911F910F91FF90EF90DF90BF90AF90A5
:10208000089520918403309185032A32310564F04C
:10209000A9014A5251094539534020F4821B930B40
:1020A0008A9602C0845993402DE730E0B9010E941E
:1020B000882E83589F4FB9010E94882E0895209141
:1020C0008603309187032232310564F0A901425220
:1020D0005109493B534020F4821B930B829602C066
:1020E000885B93402DE730E0B9010E94882E835829
:1020F0009F4FB9010E94882E08952091840330914A
:1021000085032A32310564F0A9014A525109453943
:10211000534020F4821B930B8A9608958459934070
:10212000089520918603309187032232310564F0AF
:10213000A90142525109493B534020F4821B930BA1
:1021400082960895885B93400895DF92EF92FF9204
:102150000F931F93CF93DF938091D00181119EC382
:1021600080E490E00E944110C82F8093CE019093AC
:10217000CF018EE190E00E945F108093CC0190939C
:10218000CD014CEE480F6CEE6C0F2AEE36E085EE7A
:1021900093E00E94A71F8EE090E00E944110C82F9C
:1021A0008093CE019093CF0180E490E00E945F1075
:1021B0008093CC019093CD014CEE480F6CEE6C0FE8
:1021C0002AEE36E085EE93E00E94A71F85E390E0BB
:1021D0000E944110C82F8093CE019093CF0187E7D2
:1021E00090E00E945F108093CC019093CD014CEE63
:1021F000480F6CEE6C0F2AEE36E085EE93E00E94FD
:10220000A71F84E090E00E944110C82F8093CE0168
:102210009093CF0183E090E00E945F108093CC0107
:102220009093CD014CEE480F6CEE6C0F2FED36E025
:1022300085EE93E00E94A71F89E590E00E9441107F
:10224000C82F8093CE019093CF0189E490E00E9443
:102250005F108093CC019093CD014CEE480F6CEE53
:102260006C0F2FED36E085EE93E00E94A71F84E50A
:1022700090E00E944110C82F8093CE019093CF012F
:1022800084E590E00E945F108093CC019093CD0193
:102290004CEE480F6CEE6C0F23EB36E085EE93E0CE
:1022A0000E94A71F82E690E00E944110C82F8093F1
:1022B000CE019093CF0180E590E00E945F10809363
:1022C000CC019093CD014CEE480F6CEE6C0F2FEDCE
:1022D00036E085EE93E00E94A71F87E090E00E9421
:1022E0004110C82F8093CE019093CF018DE690E0EE
:1022F0000E945F108093CC019093CD014CEE480F6B
:102300006CEE6C0F27EC36E085EE93E00E94A71F81
:102310008EE690E00E944110C82F8093CE019093EA
:10232000CF018AE190E00E945F108093CC019093EE
:10233000CD014CEE480F6CEE6C0F27EC36E085EECD
:1023400093E00E94A71F8AE390E00E947D10EC01B9
:102350009093CF018093CE0184E190E00E94911090
:102360009093CD018093CC0123E12093CB012FE00A
:102370002093CA019E012E5E3F4F2636310580F420
:102380009C01225F3F4F2E33310550F420911E01F6
:1023900030911F01482F6C2F85EE93E00E94A71FFC
:1023A00089E190E00E947D10EC019093CF01809331
:1023B000CE018CE190E00E9491109093CD0180932A
:1023C000CC0120E22093CB012DE12093CA019E0194
:1023D000215E3F4F2337310580F49C01245E3F4F3F
:1023E0002C34310550F42091200130912101482FE7
:1023F0006C2F85EE93E00E94A71F8AE890E00E9470
:102400007D10EC019093CF018093CE0189E893E099
:102410000E9491109093CD018093CC0120E22093F3
:10242000CB012DE12093CA019E01215E3F4F23374E
:10243000310580F49C01245E3F4F2C34310550F46B
:102440002091200130912101482F6C2F85EE93E0DF
:102450000E94A71F8EE491E00E947D10EC019093F2
:10246000CF018093CE018BEA91E00E94911090936E
:10247000CD018093CC0120E22093CB012DE120936C
:10248000CA019E01215E3F4F2337310580F49C0134
:10249000245E3F4F2C34310550F4209120013091BF
:1024A0002101482F6C2F85EE93E00E94A71F8CEA34
:1024B00093E00E947D10EC019093CF018093CE01B8
:1024C00083E190E00E9491109093CD018093CC0124
:1024D00020E22093CB012DE12093CA019E01215ED1
:1024E0003F4F2337310580F49C01245E3F4F2C344D
:1024F000310550F42091200130912101482F6C2F9B
:1025000085EE93E00E94A71F87E093E00E947D1074
:10251000EC019093CF018093CE0188E391E00E947B
:1025200091109093CD018093CC0120E22093CB01B8
:102530002DE12093CA019E01215E3F4F23373105D3
:1025400080F49C01245E3F4F2C34310550F42091DF
:10255000200130912101482F6C2F85EE93E00E94DD
:10256000A71F8AE993E00E947D10EC019093CF01B0
:102570008093CE0185EB93E00E9491109093CD0162
:102580008093CC0120E22093CB012DE12093CA015E
:102590009E01215E3F4F2337310580F49C01245E6C
:1025A0003F4F2C34310550F420912001309121010E
:1025B000482F6C2F85EE93E00E94A71F8EE490E0D9
:1025C0000E947D10EC019093CF018093CE0182E2B6
:1025D00090E00E9491109093CD018093CC0129E16D
:1025E0002093CB012AE12093CA019E01285E3F4F30
:1025F0002C36310580F49C01275E3F4F293431058C
:1026000050F42091220130912301482F6C2F85EE48
:1026100093E00E94A71F8CE190E00E947D10EC01E6
:102620009093CF018093CE0184E591E00E949110B8
:102630009093CD018093CC0129E12093CB012AE135
:102640002093CA019E01285E3F4F2C36310580F44D
:102650009C01275E3F4F2934310550F4209122011F
:1026600030912301482F6C2F85EE93E00E94A71F25
:102670008BE992E00E947D10EC019093CF01809352
:10268000CE0180E493E00E9491109093CD0180935D
:10269000CC0129E12093CB012AE12093CA019E01BC
:1026A000285E3F4F2C36310580F49C01275E3F4F5A
:1026B0002934310550F42091220130912301482F13
:1026C0006C2F85EE93E00E94A71F8CE693E00E949A
:1026D0007D10EC019093CF018093CE018AEB93E0C3
:1026E0000E9491109093CD018093CC0129E1209319
:1026F000CB012AE12093CA019E01285E3F4F2C3670
:10270000310580F49C01275E3F4F2934310550F498
:102710002091220130912301482F6C2F85EE93E008
:102720000E94A71F80E990E00E947D10EC01909329
:10273000CF018093CE0184E691E00E9491109093A6
:10274000CD018093CC0124E22093CB0128E120939A
:10275000CA019E012D5D3F4F2737310580F49C0152
:10276000295E3F4F2734310550F4209122013091EA
:102770002301482F6C2F85EE93E00E94A71F8EEC5B
:1027800091E00E947D10EC019093CF018093CE01E7
:102790008AEA93E00E9491109093CD018093CC013E
:1027A00024E22093CB0128E12093CA019E012D5DF4
:1027B0003F4F2737310580F49C01295E3F4F273476
:1027C000310550F42091220130912301482F6C2FC4
:1027D00085EE93E00E94A71F1092D5016AE0D62EE5
:1027E000E090D5018091C901E81608F057C0F12C9E
:1027F000DE9CE001DF9CD00D1124C45EDD4F88819A
:1028000099810E947D108C019093CF018093CE011D
:102810008A819B810E9491109093CD018093CC017D
:1028200004351105ACF52C8130E031952195310945
:10283000201731076CF58033910554F52D8130E078
:102840003195219531092817390714F52F81211168
:102850000AC02885263038F0EE81F0E0EE0FFF1F29
:10286000E65FFE4F0DC0DE9CF001DF9CF00D1124F1
:10287000E45EFD4FE681F0E0EE0FFF1FE45EFE4FE9
:1028800020813181482F602F85EE93E00E94A71FA1
:102890008091D5018F5F8093D501A2CFDF91CF9139
:1028A0001F910F91FF90EF90DF900895FF920F938B
:1028B0001F93CF93DF938091D001811152C186E1A4
:1028C00090E00E944110C82F8093CE019093CF01D9
:1028D00080E190E00E945F108093CC019093CD0145
:1028E0004CEE480F6CEE6C0F25ED36E085EE93E074
:1028F0000E94A71F8EE190E00E944110C82F809394
:10290000CE019093CF0185E190E00E945F1080930B
:10291000CC019093CD014CEE480F6CEE6C0F25ED81
:1029200036E085EE93E00E94A71F86E190E00E94CA
:102930004110C82F8093CE019093CF018AE190E09F
:102940000E945F108093CC019093CD014CEE480F14
:102950006CEE6C0F25ED36E085EE93E00E94A71F2C
:102960008DE490E00E944110C82F8093CE01909397
:10297000CF018BE090E00E945F108093CC01909398
:10298000CD014CEE480F6CEE6C0F25ED36E085EE78
:1029900093E00E94A71F8BE290E00E944110C82F95
:1029A0008093CE019093CF018DE290E00E945F1062
:1029B0008093CC019093CD014CEE480F6CEE6C0FE0
:1029C00025ED36E085EE93E00E94A71F82E590E0BA
:1029D0000E944110C82F8093CE019093CF0180E3D5
:1029E00090E00E945F108093CC019093CD014CEE5B
:1029F000480F6CEE6C0F25ED36E085EE93E00E94FB
:102A0000A71F8BE190E00E944110C82F8093CE0158
:102A10009093CF0181E590E00E945F108093CC01FC
:102A20009093CD014CEE480F6CEE6C0F25ED36E027
:102A300085EE93E00E94A71F84E290E00E9441107F
:102A4000C82F8093CE019093CF0185E590E00E943E
:102A50005F108093CC019093CD014CEE480F6CEE4B
:102A60006C0F25ED36E085EE93E00E94A71F8CE108
:102A700090E00E944110C82F8093CE019093CF0127
:102A80008BE590E00E945F108093CC019093CD0184
:102A90004CEE480F6CEE6C0F25ED36E085EE93E0C2
:102AA0000E94A71F87E690E00E944110C82F8093E4
:102AB000CE019093CF0184E790E00E945F10809355
:102AC000CC019093CD014CEE480F6CEE6C0F25EDD0
:102AD00036E085EE93E00E94A71F1092D50176E0C4
:102AE000F72EC091D501C830E0F5FC9EE00111241D
:102AF000C85BDC4F888199810E947D108C01909386
:102B0000CF018093CE018A819B810E949110909386
:102B1000CD018093CC0104351105ECF42C8130E01B
:102B200031952195310920173107ACF48033910597
:102B300094F42D8130E0319521953109281739071A
:102B400054F420911C0130911D01482F602F85EE17
:102B500093E00E94A71F8091D5018F5F8093D501DC
:102B6000C0CFDF91CF911F910F91FF900895809179
:102B70009003882361F080918C03882341F0809139
:102B8000940390E001968370992780939403809139
:102B9000D20190E0019662E370E00E94882E80935B
:102BA000D20180919303813059F480918C0381117B
:102BB00007C0809195038B3018F48F5F8093950345
:102BC00080919603882319F0815080939603209179
:102BD000C90180E03AE0821778F4389FF0011124AF
:102BE000E45EFD4F9781911105C090859C3010F4F3
:102BF0009F5F90878F5FEFCF85E02AE08E3160F492
:102C0000289FF0011124E45EFD4F9185992311F076
:102C1000915091878F5FF2CF8093D5010895EF9205
:102C20000F93CF9380918403909185030E944F0F5F
:102C3000C82F282F30E03093CF012093CE01809110
:102C40008603909187030E945C0F282F30E0309319
:102C5000CD012093CC014EEF480F6EEF6C0F27E6AD
:102C600038E085EE93E00E94A71F8091960363E011
:102C70000E94682E911148C12091940388E0289FFA
:102C8000900111242259374F4091CC0180918C033F
:102C9000481B48506091CE01675085EE93E00E943A
:102CA000A71F80918803992787FD9095A92FB92F99
:102CB0008830910508F028C1FC01E45BFF4F60E01B
:102CC00085EE93E00C94DD2E0E94461D4091CC01D0
:102CD00080918C03481B46506091CE016950E12CD5
:102CE00000E02BE438E085EE93E00E943F2061E0B5
:102CF00085EE93E00E94461D4091CC0180918C03AB
:102D0000481B46506091CE0169508DC00E94461DFF
:102D10004091CC0180918C03481B4D506091CE01B5
:102D20006750E12C00E02FE038E085EE93E00E9450
:102D30003F2061E085EE93E00E94461D4091CC016A
:102D400080918C03481B4D506091CE01675046C066
:102D50000E94461D4091CC0180918C03481B465037
:102D60006091CE016450E12C00E027EB37E085EE66
:102D700093E00E943F2061E085EE93E00E94461DB3
:102D80004091CC0180918C03481B46506091CE014C
:102D9000645027ED37E0B4C00E94461D4091CC013D
:102DA00080918C03481B4D506091CE016950EE24F8
:102DB000E39400E02FE038E085EE93E00E943F20AE
:102DC00061E085EE93E00E94461D4091CC01809128
:102DD0008C03481B4D506091CE0169502DE238E0C4
:102DE0008FC00E94461D4091CC0180918C03481BEE
:102DF00046506091CE016750EE24E39400E02BE44E
:102E000038E085EE93E00E943F2061E085EE93E09C
:102E10000E94461D4091CC0180918C03481B465076
:102E20006091CE01675029E538E06AC00E94461DD6
:102E30004091CC0180918C03481B46506091CE019B
:102E40006750EE24E39400E027EE37E085EE93E050
:102E50000E943F2061E085EE93E00E94461D409174
:102E6000CC0180918C03481B46506091CE01675085
:102E700045C00E94461D4091CC0180918C03481BA7
:102E800046506091CE016450E12C00E027EB37E022
:102E900085EE93E00E943F2061E085EE93E00E9482
:102EA000461D4091CC0180918C03481B4650609197
:102EB000CE01645027EC37E023C00E94461D4091AC
:102EC000CC0180918C03481B46506091CE01695023
:102ED000E12C00E027EE37E085EE93E00E943F20F2
:102EE00061E085EE93E00E94461D4091CC01809107
:102EF0008C03481B46506091CE0169502BEF37E0A0
:102F000085EE93E00E943F20CF910F91EF900895BE
:102F10000F9360E085EE93E00E94461D04E024E5F7
:102F200040E060E085EE93E00E94CF1D61E085EE19
:102F300093E00E94461D2EE838E040E060E085EE18
:102F400093E00E94A71F809192036AE00E94682E7E
:102F500002E0282F41E067E085EE93E00E94CF1D5C
:102F600020919003269541E068E185EE93E00E9470
:102F7000CF1D80918F0365E00E94682E282F41E0CD
:102F80006AE285EE93E00E94CF1D60E371E085EE7A
:102F900093E00E94612C87E993E00E94E0224AE0DE
:102FA00050E0682F85EE93E00F910C94E62C0F9380
:102FB0008091D001813049F028F0823061F465E6DB
:102FC00071E005C06FE371E002C062E571E085EE7B
:102FD00093E00E94612C08E128E14EE063E085EE79
:102FE00093E00E94001E25ED36E04CE167E085EE9F
:102FF00093E00E94A71F2AEE36E044E16FE085EEE1
:1030000093E00E94A71F28E14EE06EE185EE93E079
:103010000E94001E28E14EE069E385EE93E00E94E5
:10302000001E6091D0018BE1689F602D11246E5FBE
:103030000AE12AE14DE085EE93E00E94001E0F9127
:1030400008950F93CF93DF9398E0899FE0011124B7
:10305000C958DE4F00E020E04E8160E08CEB93E049
:103060000E94662720E0488161E08CEB93E00E949B
:1030700066272C8121954D8162E08CEB93E00E94C4
:1030800066272A812A534B8163E08CEB93E00E94F0
:10309000662720E04F8169818CEB93E0DF91CF912F
:1030A0000F910C949727CF92EF920F931F93CF938A
:1030B000DF931F92CDB7DEB780918E03813009F088
:1030C0002FC180E00E942118809184039091850394
:1030D0000E944F0F682F482F50E05093CF0140932C
:1030E000CE01809186039091870369830E945C0FD3
:1030F000E82FF0E0F093CD01E093CC01C09088037D
:103100000C2D112707FD1095212F312F69810830D3
:10311000110508F005C1F801EC5AFF4F9091D2015A
:1031200093700C94DD2E91110AC020E1260F46EF1A
:10313000480F6A5F082F85EE93E00E944E1D809134
:10314000D20163E00E94682E8AE0989F90011124CA
:103150002756384F4091CC0144506091CE01645FB6
:10316000D4C091110BC005E0080F28E0260F47EFEF
:10317000480F6D5F85EE93E00E944E1D8091D20155
:1031800063E00E94682EEAE09E9F9001112427567A
:10319000384F4091CC014F5FB5C0911109C008E094
:1031A000080F46EF480F262F85EE93E00E944E1D34
:1031B0008091D20163E00E94682EFAE09F9F900107
:1031C00011242756384F4091CC014C5F6091CE01BD
:1031D00064509BC091110BC005E0080F28EF260F2B
:1031E00047EF480F635085EE93E00E944E1D80919B
:1031F000D20163E00E94682E8AE0989F900111241A
:103200002756384F4091CC014F5F39C091110AC009
:1032100020EF260F46EF480F6650082F85EE93E00B
:103220000E944E1D8091D20163E00E94682EEAE068
:103230009E9F900111242756384F4091CC01445055
:103240006091CE0164513BC091110BC00BEF080F90
:1032500028EF260F44EF480F655085EE93E00E945B
:103260004E1D8091D20163E00E94682EFAE09F9F7C
:10327000900111242756384F4091CC01495060915C
:10328000CE016C501CC0911109C008EF080F46EF29
:10329000480F262F85EE93E00E944E1D8091D201AB
:1032A00063E00E94682E8AE0989F900111242756BF
:1032B000384F4091CC014C506091CE016450EE24C7
:1032C000E39400E085EE93E00E943F2029C0911135
:1032D0000BC00BEF080F28E0260F44EF480F6B5F81
:1032E00085EE93E00E944E1D8091D20163E00E9422
:1032F000682EEAE09E9F900111242756384F409196
:10330000CC0149506091CE016C5F85EE93E00F9047
:10331000DF91CF911F910F91EF90CF900C94A71F49
:103320000F90DF91CF911F910F91EF90CF90089563
:10333000EF92FF921F93CF93DF931F92CDB7DEB72B
:103340001092D50117E0E091D501EA3008F053C0A2
:103350001E9FF0011124EA52FE4F8681882309F452
:1033600044C0813019F480E00E9421188091D50179
:10337000189F70011124C7018A529E4F7C01FC01E5
:10338000818192810E947D10682F8093CE0190935D
:10339000CF01F7018381948169830E94911080930A
:1033A000CC019093CD01482F698185EE93E00E9476
:1033B000B9066091CE016F5F4091CC0185EE93E03C
:1033C0000E94B9064091CC014F5F6091CE016F5FC2
:1033D00085EE93E00E94B9064091CC014F5F609169
:1033E000CE0185EE93E00E94B9068091D5018F5FF2
:1033F0008093D501A8CF0F90DF91CF911F91FF90BF
:10340000EF900895EF92FF920F931F93CF93DF9366
:103410001F92CDB7DEB780919303813079F580910B
:103420008C0381112BC081E00E94211880918403BC
:10343000909185030E944F0F082F10E00250110950
:103440001093CF010093CE01809186039091870362
:103450000E945C0F282F30E03093CD012093CC01E7
:10346000209195039EE0299F900111242F50394F00
:10347000482F602F85EE93E00E94A71F1092D50180
:103480001AE00EE0E091D5018091C901E81708F03B
:10349000FCC01E9FF0011124E45EFD4F8781811165
:1034A000EEC080858C3008F0EAC081E00E942118CF
:1034B0008091D501189F70011124F701E45EFD4F42
:1034C0007F01808191810E947D10682F8093CE01C1
:1034D0009093CF01F7018281938169830E949110BB
:1034E000AC01445051095093CD014093CC01F701F8
:1034F0002085029F900111242F50394F698185EE5C
:1035000093E00E94A71FE091D5011E9FF0011124B6
:10351000E45EFD4F8681843009F0B1C02085029FB2
:10352000900111242F50394F4091CC01415F60919F
:10353000CE016E5F85EE93E00E94A71FE091D5015A
:103540001E9FF0011124E45EFD4F2085029F900133
:1035500011242F50394F4091CC014F5F6091CE0123
:10356000665F85EE93E00E94A71FE091D5011E9F44
:10357000F0011124E45EFD4F2085029F900111248B
:103580002F50394F4091CC01495E6091CE01625F6E
:1035900085EE93E00E94A71FE091D5011E9FF001E8
:1035A0001124E45EFD4F2085029F900111242F50CD
:1035B000394F4091CC014E5F6091CE01655E85EE42
:1035C00093E00E94A71FE091D5011E9FF0011124F6
:1035D000E45EFD4F2085029F900111242F50394F4A
:1035E0004091CC01445E6091CE01625E85EE93E035
:1035F0000E94A71FE091D5011E9FF0011124E45EF7
:10360000FD4F2085029F900111242F50394F40918A
:10361000CC014B5E6091CE01625D85EE93E00E942D
:10362000A71FE091D5011E9FF0011124E45EFD4F1C
:103630002085029F900111242F50394F4091CC01D9
:103640004E5F6091CE01675C85EE93E00E94A71FFC
:10365000E091D5011E9FF0011124E45EFD4F20850D
:10366000029F900111242F50394F4091CC01465EAA
:103670006091CE01615C85EE93E00E94A71F80916E
:10368000D5018F5F8093D501FDCE0F90DF91CF9153
:103690001F910F91FF90EF90089587E993E00E94AA
:1036A000DE23882349F18091D101813019F08230E5
:1036B00029F008950E94D7170C94A90A0E94A5101A
:1036C0000E94690F0E9456140E940F160E94531800
:1036D0000E9498190E9488170E94021A0E94A90A43
:1036E0000E94820E0E94AB0E0E94250E0E942E0F99
:1036F0000E94670C0C94B71508951092E80310927D
:10370000E7038BEA91E09093E6038093E503089545
:10371000CF93CFB7F89480911D04811127C0E3EFB8
:10372000FCE08491EFEDFCE09491E82FF0E0EE0FE7
:10373000FF1FEF5EF24FA591B4918C91892321F484
:1037400061E08AE00E948F2B61E08AE00E94562BA4
:103750008CB580618CBD8CB580648CBD61E08DE0E2
:103760000E94562B61E08BE00E94562B80911D0435
:103770008F5F80931D04CFBFCF91089521E0FC019E
:103780002083089570E085E00C94CE2AAF92BF921A
:10379000CF92DF92EF92FF920F931F93CF93DF931D
:1037A000EC0189819A812FE0289F8001299F100DCB
:1037B000112485E10E94B12A800F911F24E0969583
:1037C00087952A95E1F79A8389832881222391F1AD
:1037D000AC81AD80B12CC12CD12CE885F9857F015D
:1037E00000E010E06E817F819B0140E050E0861791
:1037F000970728F0BC01E817F90708F4BF0180E03B
:1038000090E01F921F921F92AF930E94F32C6B8344
:103810000F900F900F900F9070E085E0DF91CF91A7
:103820001F910F91FF90EF90DF90CF90BF90AF90DE
:103830000C94CE2ADF91CF911F910F91FF90EF90C2
:10384000DF90CF90BF90AF900895FC018CE39FE094
:103850009383828384E0818381E084870895CF937A
:10386000DF93EC018C858F7151F584E10E94B12AC0
:10387000BC01882777FD8095982F0E94692D26EE40
:103880003FE34EEC50E40E94F52D0E943B2D9B013E
:103890007B836A836115710581F084E08983FE0171
:1038A00040E0848195812817390710F449830AC0C4
:1038B0004F5F32964430A9F702C08FEF89838C8521
:1038C0008F5F8C87DF91CF910895FC0188E0808322
:1038D00089E0818387E0828386E0838384E0848338
:1038E00082E0858381E186830895DF92EF92FF92E3
:1038F0000F931F93CF93DF937C01EC0100E010E066
:10390000DD24DA9462E088810E94562B88810E942F
:10391000C52BF701E00FF11F892B21F487818F5F01
:10392000878308C08781882349F08F3F11F417826D
:1039300001C0D78260E088810E94562B0F5F1F4F25
:10394000219607301105F1F6DF91CF911F910F916C
:10395000FF90EF90DF900895FC01E60FF11D81E0EC
:103960009781913009F080E00895262F30E0FC0126
:10397000E20FF31F8781423028F481508E3F48F0D8
:1039800080E008958F3FE1F3642F0E94682E91300C
:10399000B9F781E008958EBD00000DB407FEFDCF9C
:1039A0008EB508951F93CF93DF93EC01162FF894F3
:1039B00060E08E850E948F2B8F8518161CF460E0C6
:1039C0000E948F2B812F0E94CB1C8F8518161CF410
:1039D00061E00E948F2B7894DF91CF911F91089521
:1039E00028EF31E0EEE1F4E0DF01A9011D92415042
:1039F0005040E1F7DC0119961C9219971A961C9217
:103A00000895DF92EF92FF920F931F93CF93DF936E
:103A1000EC018EE1E82E84E0F82ED12C6D2D60644F
:103A2000CE010E94D21C60E8CE010E94D21C61E04F
:103A30008E850E948F2B8F8518161CF460E00E94E3
:103A40008F2B00E010E0F701E00FF11F80810E9452
:103A5000CB1C0F5F1F4F04351105A9F78F85181672
:103A60001CF461E00E948F2BD39484E5E80EF11CD6
:103A700086E0D812D3CF60E4CE01DF91CF911F91C1
:103A80000F91FF90EF90DF900C94D21CFC01678F98
:103A900060A30895FC01678F40A30895AF92BF9281
:103AA000CF92DF92EF92FF920F931F93CF93DF930A
:103AB000EC01162FF42EE22EA02FBB27A7FDB09508
:103AC000A41BB10947FDB395B7FF03C0B195A195FC
:103AD000B109EE2DFF27E7FDF095E11BF10917FD78
:103AE000F395F7FF03C0F195E195F109BB24B39479
:103AF000EA17FB0714F0B12C06C08E2DE02E082F1C
:103B0000812F1F2DF82EE11634F48F2DF02E082F63
:103B1000812F1E2DE82ECE2CC11AE02FFF27E7FDA6
:103B2000F095EF19F109F7FCF395F7FF03C0F19554
:103B3000E195F109AE2EDC2CC7FE03C0DD24D39441
:103B4000DC0CD594F01614F401E00FC00FEF0DC09B
:103B5000BB2071F0412F6F2DCE010E94B906DA18FB
:103B6000D7FE02C0F00EDC0C1F5FE1168CF703C01D
:103B70004F2D612FF1CFDF91CF911F910F91FF90CA
:103B8000EF90DF90CF90BF90AF9008950F93022FEA
:103B90000150040F262F0E944E1D0F910895DF92B1
:103BA000EF92FF920F931F93CF93DF937C01D42E5C
:103BB000162FC22FDD27C7FDD095C60FD11D67FD7B
:103BC000DA95812F992787FD90958C179D0744F4EE
:103BD000202F4D2D612FC7010E94C61D1F5FF1CF01
:103BE000DF91CF911F910F91FF90EF90DF9008959B
:103BF0000F932150260F042F0E944E1D0F91089500
:103C0000EF92FF920F931F93CF93DF93EC01F62E69
:103C1000142FE22E0E94F81D4FEF400F410F2E2D62
:103C20006F2DCE010E94F81D202F412F6F2DCE0148
:103C30000E94C61D6FEF6E0D6F0D202F412FCE011C
:103C4000DF91CF911F910F91FF90EF900C94C61DC3
:103C50008F929F92AF92BF92CF92DF92EF92FF929C
:103C60000F931F93CF93DF93EC01E62ED42E122FE8
:103C7000CC24C394C21AB22EB194BB0CF12C802F69
:103C80008470A82E802F8270982E802F8870882EA6
:103C90000170F1160CF04DC0C7FC04C01150B39474
:103CA000B394CB0CF3948F2D880F8F5FC80EAA208E
:103CB00071F0412F4D0D6F2D6E0DCE010E94B90692
:103CC0004F2D4D0D612F6E0DCE010E94B90699202A
:103CD00071F04D2D411B6F2D6E0DCE010E94B90666
:103CE0004D2D4F19612F6E0DCE010E94B90688200F
:103CF00071F04F2D4D0D6E2D611BCE010E94B90646
:103D0000412F4D0D6E2D6F19CE010E94B906002373
:103D100009F4BFCF4D2D4F196E2D611BCE010E94AE
:103D2000B9064D2D411B6E2D6F19CE010E94B906AB
:103D3000B0CFDF91CF911F910F91FF90EF90DF9067
:103D4000CF90BF90AF909F908F9008958F929F9249
:103D5000AF92BF92CF92DF92EF92FF920F931F9399
:103D6000CF93DF93EC01B62EA42E122FDD24D39433
:103D7000D21AC22EC194CC0CFF24F394802F8170F0
:103D8000882E992493949E0C02708FEF8F0D8117CB
:103D9000C4F5D7FC04C01150C394C394DC0C8F2D20
:103DA000880F8F5FD80E882099F0212F220F290DC0
:103DB0004A2D411B6F2D6B0DCE010E94C61D23E0C5
:103DC0002E0D4A2D4F19612F6B0DCE010E94C61D7D
:103DD000002399F0212F220F290D4A2D411B6B2D15
:103DE0006F19CE010E94C61D23E02E0D4A2D4F19DA
:103DF0006B2D611BCE010E94C61DF394E394E394E6
:103E0000C4CFDF91CF911F910F91FF90EF90DF9082
:103E1000CF90BF90AF909F908F9008959F92AF9258
:103E2000BF92CF92DF92EF92FF920F931F93CF93A7
:103E3000DF93EC01B62EF42EA22EDE2CD194DD0CF5
:103E40009D2C920E1E2D160F292D612F0E94F81DFC
:103E5000CC24CA94C00ECF0C292D4C2D612FCE013D
:103E60000E94F81DD00EFE0C2D2D4F2D6B2DCE0176
:103E70000E94C61DBA0C6FEF6B0D2D2D4F2DCE017C
:103E80000E94C61D01E02E2D4F2D612FCE010E94F4
:103E9000281EDE2CD094DB0C02E02E2D4F2D6D2D34
:103EA000CE010E94281ECE1804E02E2D4C2D6D2D23
:103EB000CE010E94281E08E02E2D4C2D612FCE0130
:103EC0000E94281EDF91CF911F910F91FF90EF90DC
:103ED000DF90CF90BF90AF909F900895AF92BF9228
:103EE000CF92DF92EF92FF920F931F93CF93DF93C6
:103EF000EC01A62EC42EB22EF02E1E2DE194EE0C57
:103F0000D12ED60E2E2D2B0D6D2D0E94CF1DFA9485
:103F1000FE0CC10E6FEF6A0D6B0D611BEF2C01E003
:103F2000212F4C2DCE010E94A61E02E0212F4C2DE8
:103F30006D2DCE010E94A61EDF91CF911F910F9192
:103F4000FF90EF90DF90CF90BF90AF9008952F92A9
:103F50003F924F925F926F927F928F929F92AF9219
:103F6000BF92CF92DF92EF92FF920F931F93CF9366
:103F7000DF9300D000D01F92CDB7DEB77C01262E94
:103F8000542FF90104913196A4902901F2E04F0ECB
:103F9000511C10E0B801695F7F4F93E075956795FC
:103FA0009A95E1F77D836C8320E030E8C32ED12C15
:103FB000B12C822F992787FD9095801791070CF0DF
:103FC00046C0822F27FF02C087E0820F682E6594CB
:103FD00065946594822F877887FF03C08150886F2E
:103FE0008F5F460102C0959487948A95E2F7312C41
:103FF000772467FC7094322F320D832D992787FD2B
:1040000090958A159B050CF56C817D81869FF0014A
:10401000879FF00D969FF00D1124E60DF71DE40D1E
:10402000F51DE491F0E0E821F921EF2B61F0432D3B
:10403000450F632FC70129833B835A830E94B9062A
:104040005A813B8129813394D8CF2F5FB2CF0F9013
:104050000F900F900F900F90DF91CF911F910F91C4
:10406000FF90EF90DF90CF90BF90AF909F908F9098
:104070007F906F905F904F903F902F9008952F9278
:104080003F924F925F926F927F928F929F92AF92E8
:10409000BF92CF92DF92EF92FF920F931F93CF9335
:1040A000DF93CDB7DEB72A970FB6F894DEBF0FBE09
:1040B000CDBF6C01562F742F01111CC0E1101AC026
:1040C0002A960FB6F894DEBF0FBECDBFDF91CF9119
:1040D0001F910F91FF90EF90DF90CF90BF90AF9026
:1040E0009F908F907F906F905F904F903F902F9018
:1040F0000C94A71FF901349031962490C9010296BF
:104100009A838983A32CB12CD501179613E0B5951A
:10411000A7951A95E1F7BA87A987037055245A9491
:10412000530C10E03FEF320DE22DF0E0FC83EB8307
:10413000812F992787FD90958A159B050CF071C0FA
:10414000812F17FF02C087E0810F682E6594659468
:104150006594812F877887FF03C08150886F8F5FB8
:10416000F0E88F2E912C02C0959487948A95E2F7FF
:10417000432EF12C772467FC70948F2D992787FDAF
:104180009095EB81FC818E179F070CF047C0A985A5
:10419000BA858A9FF0018B9FF00D9A9FF00D112434
:1041A000E60DF71D89819A81E80FF91FE491F0E08F
:1041B000E821F921EF2B79F1023039F0033041F099
:1041C000013049F4452D6F2D08C0652D442D05C0E3
:1041D000642D412F02C04F2D612FEE2069F02E2D4E
:1041E0002370E0FE03C0932D961B692FE1FE05C0EE
:1041F000A22DA41B4A2F01C020E0650F470FC60166
:104200002D8338875E837F830E94B9062D81E22E3D
:104210007F815E813885F3944A94AFCF1F5F5A94B3
:1042200087CF2A960FB6F894DEBF0FBECDBFDF91C1
:10423000CF911F910F91FF90EF90DF90CF90BF90A3
:10424000AF909F908F907F906F905F904F903F9036
:104250002F900895DC01FB0184918F5F14968C935D
:1042600014973196E491EF5F1596EC9315976E5F76
:104270007F4F5E967C936E935D970895EF920F93B8
:10428000CF93DF93EC014D876C872E87E88A0F87E9
:1042900081E088878F8F18A28F8369EE79E0CE0145
:1042A0000E942A210E94881B8CB58F7D8CBD8CB505
:1042B0008C7F81608CBD8DB581608DBD8CB58C602F
:1042C0008CBD61E08D850E94562B61E08C850E943B
:1042D000562B61E08E850E94562B888918161CF497
:1042E00061E00E94562B8F8518161CF461E00E9435
:1042F000562B888918166CF460E00E948F2B6AE0B8
:1043000070E080E090E00E944E2A61E088890E947F
:104310008F2B8C85992787FD9095FC01E751F34FF2
:10432000E491F0E0EE0FFF1FE95FF24F2591349129
:104330003C8B2B8BFC01EB52F34F84918A8F8D8544
:10434000992787FD9095FC01E751F34FE491F0E048
:10435000EE0FFF1FE95FF24F259134913A8B298BC5
:10436000FC01EB52F34F8491898F8F85992787FD4C
:104370009095FC01E751F34FE491F0E0EE0FFF1F41
:10438000E95FF24F259134913E8B2D8BFC01EB526E
:10439000F34F84918B8F8E85992787FD9095FC0133
:1043A000E751F34FE491F0E0EE0FFF1FE95FF24FAA
:1043B00025913491388F2F8BFC01EB52F34F849170
:1043C0008C8F61E2CE010E94D21C64E1CE010E947A
:1043D000D21C8B8587FF02C08FE78B876B85606857
:1043E000CE010E94D21C60E2CE010E94D21C6CE081
:1043F000CE010E94D21CCE01DF91CF910F91EF90A0
:104400000C94011D6F927F928F929F92AF92BF92F8
:10441000CF92DF92EF92FF920F931F93CF93DF9390
:10442000EC01162FF42EB02EEF8C64350CF081C009
:104430008FE284170CF47DC0EC81F0E031970E9F81
:10444000C0010F9F900D1124860F911D67FD9A9555
:10445000181619060CF06DC08D81809FC0011124C3
:10446000840F911D47FD9A95181619060CF061C02E
:10447000A62E962EC22ED12C8A2D811B992787FD20
:1044800090952C8130E0821793070CF051C0215099
:1044900031098217930779F0C29ED001C39EB00DF7
:1044A000D29EB00D1124A80FB91FED8DFE8DEA0F1D
:1044B000FB1F749001C0712C8F2C6F2C282D2F198D
:1044C000332727FD30958D8190E0281739076CF54B
:1044D00070FE11C081E0B81206C0482D6A2DCE01D1
:1044E0000E94B9061EC00B2D2B2D462D692DCE0125
:1044F0000E94CF1D16C088A19F8D891791F08F8FC4
:1045000081E0B81206C0482D6A2DCE010E94B9067E
:1045100007C00B2D2B2D462D692DCE010E94CF1DDE
:10452000EF8E76946B0C8394C9CF9B0CA394A4CF8D
:10453000EF8EDF91CF911F910F91FF90EF90DF9061
:10454000CF90BF90AF909F908F907F906F90089585
:104550000F93CF93DF93EC01262F6A3039F42D812E
:1045600098858A85299F800D112422C06D3011F114
:1045700008854A8569850E94022248855C812985D3
:10458000549F200D112429878F81882399F0332788
:1045900027FD309584E590E0459F8019910911240D
:1045A000821793073CF49D818A85499F800D1124D1
:1045B0008A87198681E090E0DF91CF910F9108956D
:1045C000FC01E258FF4F60813A978AE0689FB00192
:1045D0001124808191810E94742E862F08958F92DC
:1045E0009F92AF92BF92CF92DF92EF92FF920F9382
:1045F0001F93CF93DF93EC015C0185E8A80EB11CFB
:10460000D5018C91882309F44DC08C3018F41CE03E
:10461000181B01C010E0FE01EA5AFF4F81E08083C1
:104620006E01BEE4CB0ED11C60E0C6010E94461DA7
:104630004E01E3E58E0E911CD4018C9103E0080F2E
:104640009DE2F92E4F2D481B410F23E0E22E24E579
:1046500060E0C6010E946E1F61E0C6010E94461D17
:10466000F401808103E0080F4F2D481B410F24E522
:1046700060E0C6010E940E1FFE01E95AFF4F84E070
:1046800080833196D4018C91181B115D1083CD5716
:10469000DF4F68817981C6010E943C2CF501808141
:1046A00081508083DF91CF911F910F91FF90EF9008
:1046B000DF90CF90BF90AF909F908F9008950F9311
:1046C0001F93CF93DF93EC018C01025B1F4F40E0FF
:1046D00061E0C8010E944A1DFE01E95AFF4FDE0158
:1046E000AE5ABF4F85E59C91891B8083319610821D
:1046F000698D613009F43CC028F0888D653008F080
:104700004EC049C0CE0185960E941E2860E0CE01B1
:104710000E94C21BC8010E94F01CFE01EA5AFF4F12
:1047200081E080836CEC7BE0C8010E943C2C6A8DA8
:104730007B8D4AE050E0C8010E94ED2C68EB7BE0E5
:10474000C8010E943C2CC8010E94011D83B7817FD3
:10475000846083BF83B7816083BF83B7816083BF79
:10476000889583B78E7F83BF83B78E7F83BF21C039
:10477000C059DF4F488159816A817B814F7055272D
:1047800066277727483051056105710510F467E009
:1047900009C068E707C0882361F06B5F03C0882306
:1047A00041F06FE2C801DF91CF911F910F910C94FE
:1047B000632CDF91CF911F910F9108958F929F925B
:1047C000AF92BF92EF92FF920F931F93CF93DF931D
:1047D000EC017C010FE7E00EF11CF7018080918075
:1047E000A280B3800E941F2A95018401061B170B2B
:1047F000280B390BB901A8015E011EE7A10EB11CFF
:10480000F501808190E0A0E0B0E08E0106581F4FD6
:1048100084179507A607B70750F4F80180819181A6
:10482000A281B381892B8A2B8B2B09F040C0F80120
:1048300080819181A281B381892B8A2B8B2BA9F551
:104840007E01F5E2EF0EF11CC7010E941B28C70193
:104850000E948828C7010E944C29CE010E94EF22A5
:10486000CE010E945F237E012EE4E20EF11CC701FF
:104870000E94011DFE01EC5AFF4F8081811103C08F
:10488000C7010E94F01C0E942B2AF80160837183EB
:1048900082839383FE01EC58FF4FCA58DF4F288173
:1048A0003981621B730B7183608380E036C00E9484
:1048B0001F2AF5012081620F711D811D911DF701D5
:1048C0006083718382839383FE01E059FF4F4081AF
:1048D0005181628173814F5F5F4F6F4F7F4F408384
:1048E000518362837383F8011082118212821382D2
:1048F0000E942B2AFE01EA58FF4F60837183828356
:104900009383CE010E94C61BCE010A960E94751C9D
:10491000CE0148960E942F1C81E0DF91CF911F911C
:104920000F91FF90EF90BF90AF909F908F90089560
:104930000F931F93CF93DF938C01EC01C25BDF4F8A
:10494000CE010E94F01C60E97BE0CE010E943C2C6D
:10495000CE010E94011D8CB583608CBD8DB58E7F0C
:104960008DBD8FEA91E0EEEFFFE30995F801EC5A77
:10497000FF4F10826BE67BE0CE010E946E2CCE01D1
:104980000E94011D065F1F4FC8010E94751C64E054
:10499000C8010E94AC1C811107C062E370E080E096
:1049A00090E00E944E2AF0CFDF91CF911F910F919E
:1049B00008952F923F924F925F926F927F928F92C3
:1049C0009F92AF92BF92CF92DF92EF92FF920F939E
:1049D0001F93CF93DF93CDB7DEB729970FB6F89427
:1049E000DEBF0FBECDBF998788871B012A013C011E
:1049F0008FE6680E711CF3018081882309F402C1DF
:104A000081E0E885F985EA5AFF4F8083E885F985DA
:104A1000EB5AFF4F1082E885F985EC5AFF4F108260
:104A2000E885F985108E8F01025B1F4F61E0C80198
:104A30000E94461D888599858D5A9F4F9C838B8344
:104A4000C884D98497E5C90ED11CE884F984E8E5C7
:104A5000EE0EF11C888599858E5A9F4F9A83898323
:104A6000E885F985E059FF4FFE83ED8388849984BA
:104A7000FAE08F0E911CA884B98485E2A80EB11CBF
:104A8000888599850E94DE238823D1F3F1018491E2
:104A9000882321F0EB81FC81508101C050E02EEE93
:104AA0003BE040E060E0C8015F830E94A71F5F8198
:104AB0004114510439F04CE0450F920160E0C80107
:104AC0000E94A71FF60110828CE0F7018083B101DC
:104AD000C8010E943C2CE981FA819081892F880FBE
:104AE000890F81958D5AF6018083EB81FC8190813D
:104AF000892F880F890F8195835DF7018083ED8170
:104B0000FE81808184FF03C069EE7BE002C065EE18
:104B10007BE0C8010E946E2CE981FA819081892F87
:104B2000880F890F81958D5AF6018083F701808166
:104B30008F5F8083E885F98582A5882319F061EE6F
:104B40007BE002C06DED7BE0C8010E946E2CE98124
:104B5000FA819081892F880F890F81958D5AF601EE
:104B60008083F70180818F5F808369ED7BE0C801DE
:104B70000E946E2C65E0C4010E94AC1C882351F099
:104B8000E885F98562A56F5FC5010E94C829C50146
:104B90000E94B22964E0C4010E94AC1C811113C0C0
:104BA000F3012081822F90E0A0E0B0E0ED81FE8152
:104BB0004081518162817381481759076A077B07D9
:104BC000A8F02F3F99F08FEFF301808308851985B6
:104BD0000B5D1F4F60E0C8010E94C527C8010E94FD
:104BE0009C2981E0E885F985808F0CC066E0C401CE
:104BF0000E94AC1C882309F443CF888599850E94C4
:104C0000982434CF29960FB6F894DEBF0FBECDBFDF
:104C1000DF91CF911F910F91FF90EF90DF90CF9098
:104C2000BF90AF909F908F907F906F905F904F90CC
:104C30003F902F900895AB016DEE7BE00C94D9244A
:104C4000E0E8F7E72591349181E02130304C09F01C
:104C500080E00895CF93DF93EC010E9420269E010F
:104C6000275A3F4FDE01A159BF4F882309F43CC0AA
:104C7000E6E9F7E78491F9018083E7E9F7E7E49152
:104C8000EC83E8E9F7E7E491ED83E9E9F7E785915B
:104C900094919F838E83EBE9F7E7859194919987AF
:104CA0008887EDE9F7E7E491EBA7EEE9F7E7E49110
:104CB000EAA7EFE9F7E7E491EC93E0EAF7E78591FB
:104CC00094919D8F8C8FE2EAF7E7859194919F8F65
:104CD0008E8FE4EAF7E78591949199A388A3E6EA99
:104CE000F7E78591949120C08CE3F90180831C82C1
:104CF0002FEF2D8380E293E09F838E8384ED93E0FA
:104D00009987888781E08BA78AA72C938CEA9DE0FE
:104D10009D8F8C8F8EED9DE09F8F8E8F84E79EE020
:104D200099A388A38CE39FE09BA38AA3DF91CF91F3
:104D30000895CF92DF92EF920F93CF93DF93EC0120
:104D4000FC01E258FF4F82E38083349741E050E05A
:104D500060E070E040835183628373833B978FEF01
:104D60008083CE010E942A26CE010E94BE1B6FEFD7
:104D7000CE010E94C21B6E018AE0C80ED11CC60182
:104D80000E94651CC6010E94751CCE0148960E94B7
:104D9000251C0EE0E02E0FE020E14BE06DE0CE019F
:104DA000825B9F4F0E943E21A596CE010E94312733
:104DB00065E0C6010E94AC1C882351F060E0CE0182
:104DC000DF91CF910F91EF90DF90CF900C94C82995
:104DD00040E06EE57CE0CE01DF91CF910F91EF9046
:104DE000DF90CF900C94D027CF93DF9350E0FA015F
:104DF000EE0FFF1FE80FF91F37852089E32FF22FF1
:104E0000E60FF11DE60FF11D25913491FA01EE0F29
:104E1000FF1FE80FF91F30A3278FF90165917491E7
:104E2000FC01D481D69FC02D1124E40FF51FC1A32E
:104E3000F901A591B4916B2F70E0EC2FF0E0DC014B
:104E4000A40FB51F6E177F0720F4F9012591349147
:104E5000C32FCD9FC02D11249296CC93DF91CF917B
:104E6000089521E0FC01248324E020A725EB3CE009
:104E7000308B278740E060E00E94F42661E070E01C
:104E800083E00E94CE2AE1EBF0E08081887F8160A0
:104E90008083F89410928000E1E8F0E01082109294
:104EA00085001092840088E191E0909389008093BE
:104EB0008800808188608083808181608083EFE6C4
:104EC000F0E0808182608083789408950F93FC01E4
:104ED000862F642F011129C08230D1F048F4882335
:104EE00091F0813011F540E0CF010F910C94F42640
:104EF0008330A9F08430C9F48481489F602D112447
:104F0000658F268F12C04B3008F06AE0668B0DC0AB
:104F10008481489F602D1124618F228F06C0848177
:104F2000489F602D1124638F248F0F910895FC01F9
:104F300021110EC0648B8481489F402D1124458B24
:104F400015A214A213A281E0878B80931A06108EFB
:104F5000089580911A06882319F08091170601C0E0
:104F600080E08093B4000895FC0161110DC0178AA0
:104F7000158A14A213A2108E10921706109218060A
:104F800010921A060C94A9270895CF93DF93EC0191
:104F9000611103C00E94B4271982DF91CF91089557
:104FA0000F931F93CF93DF93EC018B0141110EC040
:104FB00060E00E94C5271E870D871B8A1A8A81E040
:104FC000898389E08E8B198E1B8E1D8EDF91CF9188
:104FD0001F910F910895CF93DF93EC01611128C0C9
:104FE0008881882329F18981811122C089852F81B7
:104FF0009885E22FF92FE80FF11DE80FF11D85913B
:1050000094918F3F2FEF920711F4188211C09C8763
:105010009927880F991FEA85FB85E80FF91F65918D
:10502000749140E0CE010E94D02789858F5F8987E7
:10503000DF91CF91089560E00C94EB2760E00C9431
:10504000C5270F93CF93DF93EC0161115DC0898178
:10505000882309F459C08D89811156C02D853E855C
:105060008A899B89880F991F820F931FFC01859164
:1050700094910097D1F48989882321F01B8A1A8A98
:10508000F90111C01982888160E0882331F0CE01D6
:105090000E94EB278A899B8925C0CE01DF91CF91A1
:1050A0000F910C94B42785919491BC0176956795E6
:1050B0007695679580FF1DC0AC01A6E05695479593
:1050C000AA95E1F7292F26952695269520514F710F
:1050D0006F7000E0CE010E9466278A899B89019645
:1050E0009B8B8A8B880F991FED85FE85E80FF91F32
:1050F000DACF492F6F7320E0CE010E9497278A896B
:105100009B8901969B8B8A8BDF91CF910F9108959C
:1051100060E00C942128CF93DF93EC016111B9C0BA
:105120008F89882309F4B5C08D89811105C0CE010E
:10513000DF91CF910C94B42781508D8B8DA181117B
:1051400038C08BA19CA101969C01220F331FEF8DCB
:10515000F8A1E20FF31F25913491422F47704EA31F
:10516000A90163E0569547956A95E1F7BA017695EE
:105170006795232F269526952FA36F732C81629F09
:10518000602D11246DA34170409316069CA38BA340
:1051900029A130E08217930760F08AA1882329F0C3
:1051A000281B31093CA32BA304C060E0CE010E9460
:1051B000B4278DA181508DA3288D2F5F288F4C8916
:1051C0003FA1340F8C85380F3A836B8D662361F0D5
:1051D00070E0822F992787FD90950E94882E8C8DF4
:1051E000869F300D11243A838A8190E0CB966BE341
:1051F00070E00E94882E8A833E893B83698D6623F6
:1052000071F0772767FD7095822F992787FD90951C
:105210000E94882E8A8D869F300D11243B836D8DD0
:10522000662391F0822F992787FD909570E00E9468
:10523000882ECB0162E070E00E94882E2E8D9B812B
:10524000289F900D11249B838B814F3339F08A3036
:105250000CF089E087FD80E08B8301C01B82F8940D
:10526000EA81F0E0E459F34FE491E093190698A540
:105270008D81989F802D11249B81899F802D1124E1
:105280009EA1899F802D1124809318068093170674
:105290007894DF91CF91089560E00C948B28609111
:1052A0001806662321F180911B068F5F80931B06F1
:1052B000909119068917D8F080911A0691E08927F4
:1052C00080931A0610921B0680911606882369F0B7
:1052D00090912E0183E4989F802D1124895B809307
:1052E0002E010E94682E909317060C94A92708950A
:1052F0001F920F920FB60F9211242F933F934F934B
:105300005F936F937F938F939F93AF93BF93EF932D
:10531000FF930E944F29FF91EF91BF91AF919F9111
:105320008F917F916F915F914F913F912F910F904E
:105330000FBE0F901F901895CF93DF93EC0160E0A4
:105340000E94C5278DEA9CE09E878D871B8A1A8A5A
:1053500081E0898389E08E8B198E1B8E1D8EDF91F3
:10536000CF910895CF93DF93EC0160E00E94C527B1
:1053700087EA9CE09E878D871B8A1A8A81E0898351
:1053800089E08E8B198E1B8E1D8EDF91CF91089533
:10539000FC01862F992787FD9095668170E06F5FED
:1053A0007F4F0E94882E858308951F920F920FB61B
:1053B0000F9211242F933F938F939F93AF93BF939B
:1053C00080911D0690911E06A0911F06B0912006A7
:1053D00030911C0623E0230F2D3720F40196A11DE8
:1053E000B11D05C026E8230F0296A11DB11D209313
:1053F0001C0680931D0690931E06A0931F06B09373
:1054000020068091210690912206A0912306B0915A
:1054100024060196A11DB11D8093210690932206BA
:10542000A0932306B0932406BF91AF919F918F91D3
:105430003F912F910F900FBE0F901F9018952FB78F
:10544000F89460911D0670911E0680911F06909140
:1054500020062FBF08953FB7F894809121069091C0
:105460002206A0912306B091240626B5A89B05C06C
:105470002F3F19F00196A11DB11D3FBF6627782F60
:10548000892F9A2F620F711D811D911D42E0660FB9
:10549000771F881F991F4A95D1F70895CF92DF9201
:1054A000EF92FF92CF93DF936B017C010E942B2A36
:1054B000EB01C114D104E104F10489F00E943A2DFA
:1054C0000E942B2A6C1B7D0B683E734090F381E099
:1054D000C81AD108E108F108C851DC4FEACFDF91C2
:1054E000CF91FF90EF90DF90CF900895789484B59E
:1054F000826084BD84B5816084BD85B5826085BDD0
:1055000085B5816085BDEEE6F0E0808181608083B5
:10551000E1E8F0E010828081826080838081816098
:105520008083E0E8F0E0808181608083E1EBF0E05F
:10553000808184608083E0EBF0E080818160808303
:10554000EAE7F0E0808184608083808182608083EC
:105550008081816080838081806880831092C10017
:1055600008958E3008F08E50877020912F0190E4BE
:10557000299F90011124822B80937C0080917A00D6
:10558000806480937A0080917A0086FDFCCF8091C0
:1055900078002091790090E0922B08951F93CF938B
:1055A000DF93182FEB0161E00E94562B209711F436
:1055B00060E004C0CF3FD10539F461E0812FDF9175
:1055C000CF911F910C948F2BE12FF0E0EF53F34F0D
:1055D000E491E330F9F048F4E130B9F0E230A1F5BC
:1055E00084B5806284BDC8BD34C0E730E9F0E830DE
:1055F00019F1E43049F58091800080628093800049
:10560000D0938B00C0938A0024C084B5806884BD89
:10561000C7BD1FC080918000806880938000D093B8
:105620008900C093880015C08091B0008068809385
:10563000B000C093B3000DC08091B0008062809331
:10564000B000C093B40005C0C038D1050CF0B5CF90
:10565000AFCFDF91CF911F910895833081F028F46F
:10566000813099F08230A1F008958730A9F0883018
:10567000B9F08430D1F4809180008F7D03C0809197
:1056800080008F7780938000089584B58F7702C063
:1056900084B58F7D84BD08958091B0008F7703C05D
:1056A0008091B0008F7D8093B0000895CF93DF93F9
:1056B00090E0FC01EB52F34F2491FC01E751F34FD2
:1056C0008491882349F190E0880F991FFC01EF5ED7
:1056D000F24FA591B491895F924FFC01C591D4918D
:1056E0009FB7611108C0F8948C91209582238C9308
:1056F000888182230AC0623051F4F8948C91322F51
:10570000309583238C938881822B888304C0F894FE
:105710008C91822B8C939FBFDF91CF9108950F9333
:105720001F93CF93DF931F92CDB7DEB7282F30E0C2
:10573000F901EF53F34F8491F901EB52F34F1491B8
:10574000F901E751F34F04910023C9F0882321F0B8
:1057500069830E942D2B6981E02FF0E0EE0FFF1F7F
:10576000E95FF24FA591B4919FB7F8948C916111C4
:1057700003C01095812301C0812B8C939FBF0F9094
:10578000DF91CF911F910F910895CF93DF93282F31
:1057900030E0F901EF53F34F8491F901EB52F34FED
:1057A000D491F901E751F34FC491CC2391F08111C9
:1057B0000E942D2BEC2FF0E0EE0FFF1FE350F34F74
:1057C000A591B4912C912D2381E090E021F480E00B
:1057D00002C080E090E0DF91CF91089508950E948B
:1057E000762A0E94EE2B0E944407C0E0D0E00E947F
:1057F0004D1B2097E1F30E940000F9CFCF92DF927A
:10580000EF92FF920F931F93CF93DF936C017A0176
:10581000EB01E60EF71E00E010E0CE15DF0561F0AB
:105820006991D601ED91FC910190F081E02DC601C6
:105830000995080F191FF1CFC801DF91CF911F9172
:105840000F91FF90EF90DF90CF9008956115710553
:1058500081F0DB010D900020E9F7AD0141505109C5
:10586000461B570BDC01ED91FC910280F381E02D8A
:10587000099480E090E00895EF92FF920F931F93B8
:10588000CF93DF938C01FB01C0E0D0E064917F01F6
:105890008FEFE81AF80A662361F0D801ED91FC91C8
:1058A0000190F081E02DC8010995C80FD91FF701BB
:1058B000EDCFCE01DF91CF911F910F91FF90EF902F
:1058C00008950C94262CDC01ED91FC910190F0815F
:1058D000E02D099466EB71E00C94262C0F931F9336
:1058E000CF93DF93EC010E943C2C8C01CE010E94EF
:1058F0006A2C800F911FDF91CF911F910F91089516
:105900008F929F92AF92BF92CF92DF92EF92FF92CF
:105910000F931F93CF93DF93CDB7DEB7A1970FB649
:10592000F894DEBF0FBECDBF7C01C42EE52FCB01A6
:10593000D22E19A221E02D1510F02AE0D22E8E01D0
:105940000F5D1F4F8D2C912CA12CB12C6C2D7E2F17
:10595000A50194010E949C2E8C2DD29E80191124A9
:10596000015011098A3014F4805D01C0895CF8018E
:105970008083211531054105510521F0C22EE32F09
:10598000CA01E4CFB801C7010E94262CA1960FB628
:10599000F894DEBF0FBECDBFDF91CF911F910F9165
:1059A000FF90EF90DF90CF90BF90AF909F908F903F
:1059B00008952115310541F4DC01ED91FC91019030
:1059C000F081E02D642F09940C94802C9A01462FCD
:1059D00050E060E070E00C94D92C9A01AB0160E0DB
:1059E00070E00C94D92C4F925F926F927F92AF929D
:1059F000BF92CF92DF92EF92FF920F931F93CF93BC
:105A0000DF93CDB7DEB729013A01621B730B840B1C
:105A1000950B29893A894B895C892A193B094C09DC
:105A20005D09298B3A8B4B8B5C8B9B01AC0169899F
:105A30007A898B899C890E94582EE418F5080609FA
:105A40001709A80197010E94BE2E2A0D3B1D4C1D6F
:105A50005D1DCA01B901DF91CF911F910F91FF9098
:105A6000EF90DF90CF90BF90AF907F906F905F905E
:105A70004F900895089598D088F09F5790F0B92FCF
:105A80009927B751A0F0D1F0660F771F881F991F93
:105A90001AF0BA95C9F712C0B13081F09FD0B1E0C9
:105AA00008959CC0672F782F8827B85F39F0B93FD9
:105AB000CCF3869577956795B395D9F73EF4909595
:105AC0008095709561957F4F8F4F9F4F0895E89413
:105AD00009C097FB3EF490958095709561957F4F36
