:100000000C94BF080C94E7080C94E7080C94E708DC
:100010000C94E7080C94E7080C94E7080C94E708A4
:100020000C94E7080C94E7080C94E7080C94F0345F
:100030000C94E7080C94E7080C94E7080C94E70884
:100040000C944D350C94E7080C94E7080C94E708E1
:100050000C94E7080C94E7080C94E7080C94E70864
:100060000C94E7080C94E708DE15E915F415FF1564
:100070000F161C1627163216D219D519D819DF19E2
:10008000E819EF19F219F9196C1C8E1CB01CD41C5C
:10009000F91C1E1D411D651DE620EB20F020F520FA
:1000A000012106210B211021DC23032423244324D6
:1000B00063248424A724CE24100E02180230026088
:1000C00007C00A7E163F103D10793FF37FE6FFCC54
:1000D000FF98FFF071C0100E008000800FF81F7CA9
:1000E0001F7C1E3C1C5C1C5C1E3C1FFC1FFC1FFC80
:1000F00013E41E3C100E02003FF83DF83C783838FF
:10010000383839383D783EF83EF83EF83EF827C892
:100110003C78100E02000200020003E0FE10FC0812
:10012000BC689E38CFEC67F633FB19FF0FFF038ED8
:10013000100E080008000980067F0820383C3FFEAA
:100140003FFE3FFE200215540FF800000000080A91
:1001500000000020704468D47AFE080A7CFE447CCB
:100160007C446C546C4420200000000006000050C9
:1001700009000212055C01000914000071AA400C7C
:1001800041550A207EFF8104558040125091200085
:10019000519521E44A911AB84D800D506EFFFABE78
:1001A000160187565A0362BC9701C1501A813AB0B2
:1001B000158003503EFE0EF80155F50401AAAB244C
:1001C0000F57D51435F7FF286B1F8148D519E1E487
:1001D000AB3FF15CD563D124791FD14449F7FF24AB
:1001E000C11401147F0C01FC2020080000203E00F7
:1001F00000F84900012441FFFF04E155550E41AAD2
:10020000AB04415555047EFFFEFC558003545A91C2
:1002100012B4559113545A9112B4558003547AFF75
:10022000FEBC158003501A8002B0158003501A805E
:1002300002B0158003503EFFFEF84155550441AA17
:10024000AB04E155550E41FFFF04490001247F0F27
:10025000E1FC4917D1244117D1044917D12449FFA2
:10026000FF24410001047F0001FC48290000000038
:1002700000000000000A0000000520000000060049
:10028000000018B000092404200000086014049243
:100290000414000006400809242678000002C0006B
:1002A00005963BC02800038040092C0F80100003F6
:1002B000804404920300000003815509FC03000000
:1002C000000380FF8DFA0300000200008109240072
:1002D000000006000CAD049E0000000A0002AD0FF5
:1002E000260002101AA800A26C9200412012AA1047
:1002F000FC092400195823FF060200000906002A01
:10030000022480000000BFE46ADA0000000000E080
:1003100020EADA0000000001A431AA028000000AED
:10032000283FEAFFFE40000004106180400000000A
:100330000000008C461404002060000005109002AC
:1003400000326800001081E3C0002DFC00001000A6
:100350008420282022080330800BD0102DAF1001FC
:10036000E4800BD0002DAE800187800C30002C2E55
:100370009C01C3000BD001BFFF8000E600042141B7
:10038000000000007E0003C3C0008058003C014014
:1003900007E006608A003C008007F0480286003CC7
:1003A00000000208800184003C0000029E0000CC96
:1003B000003E000001AA000068145500002282805F
:1003C00014380800000073FE200830000000000010
:1003D0000000003000000000000000000048290E6E
:1003E0000000080FE00000001BC0001C15500000BA
:1003F00000157000082AB00009242AA8000835500A
:100400001404925558001C2AB00809246AAC001C38
:1004100015500004923554283E0FE07E09241AB886
:10042000103E0380FF049207C0007F0381FF8924F0
:100430000300007F0381FF849203000022000081FB
:100440000924001E00220000AD0492003F002A0093
:1004500000AD09240073802BFC00A10492006DE024
:1004600023FE00FF0924002DF023FF000000000000
:1004700020202A0200000000002DA02ADA001FC060
:1004800000002DB02ADA003FE000002C282A0200EC
:100490007FF00A283FF43FFE007FF00410000000C8
:1004A00000002020000000000000002DA000007CC3
:1004B000000000002DBF8001AA0003C000203FC043
:1004C0000155800420282020C002AA800BD0102DC6
:1004D000AE800355400BD0002DAE8002AAC00C3078
:1004E000002C2E800355400BD0003FFFB802AAC05D
:1004F0000421FC00005601558003C3FE0001AB003F
:10050000FF014007FF000155003C008007FF00028B
:10051000AB003C00000202000355003C000002BAA0
:100520000002AB003E000002BA0001561455000064
:1005300002820014FC0800000003FE0008300000E6
:10054000000000000000300000000000000000007B
:10055000482980000000000007F8FF000007C000E5
:10056000000110110080046000000FFCFF100985DD
:10057000E0000011101108812570004010000100FA
:1005800000051820E01280013000078C2040128006
:1005900028025864EC20E013C02803FFFD7C206192
:1005A00013C07826C1643C00601140786630758CB9
:1005B00020E01060510E98258420E40000C1420024
:1005C000E58420E210000107FFE7FC20E00782003D
:1005D00015000000006011C3C100020000000017F8
:1005E00080F100096400000011E1C1080000000072
:1005F000001020F10C02001E000010000108008015
:100600002100000F9C3F0C00005E80000150110C87
:1006100000005E80033FFE1F1C000061800011117E
:10062000111C00005E80000000001C000021000082
:100630000000001C1C1E1E00000000001C222200E6
:1006400000000000000C5FFB00000000000000A79D
:10065000E500000002000000A6E20000001E00000D
:1006600000FE3C0000003E0000008388010600669A
:10067000102000A2A8010001EE3010088038000010
:10068000039E003000337E70000372007806BB7951
:10069000502003CA009410B0FF49589B8261320079
:1006A000FFF831EF02C2003A00000007D582C21CF9
:1006B0003810080026C682C2061800000003FF0397
:1006C000FE001848298000000000001FFFFF03FF04
:1006D000E7FC00001111110200240600181FFFFFA3
:1006E00002FFA5F500EE1111110280A516C15510EB
:1006F000C0010280A51562AA90500D03FFE7FEA578
:10070000555078290200240566ACD0787902AAA554
:1007100056A57450287902002405666C10285102F1
:10072000CC2584E5A410005102CC258420A0100023
:100730000102C0258420A010330103FFE7FC20A0A4
:1007400010A14100000000006011E1E10300000081
:10075000000011E1E11DC0000000001140A12AB01D
:10076000000000001140A15550001E0000100001C3
:10077000AAA8802100001FFFFFD598005E8000110D
:100780001111AE88005E80001FFFFFCD80006180E8
:10079000001111119480005E800000000014000020
:1007A00021000000000014FFFE1E000000000014E5
:1007B00080020000000000000CBFFF0000000000ED
:1007C0000000A00103FE03FE00C000A0010202021F
:1007D0000203B800FFFF02FB8EFA055400800902F5
:1007E0008B768A0AAA00AAAF028AAA8A15550080C7
:1007F0000903FF57FE19AB00B30F0202AA021175DD
:1008000000B30902AB56AA01B300B00F0203AE0257
:10081000012900FFF802C272C2002800000002C2D3
:1008200002C2002800080002C202C2002800000024
:1008300003FE03FE00301016101010105410AA0012
:1008400054008A8814449280500E0000000000007A
:1008500000400000400020141080000012008A12A6
:100860008290ECFE10161010383854549292AAAAB6
:10087000C6C692929292FEFE0000000000000000A8
:100880001010383854549292AAAAC6C68282828224
:10089000FEFE10151F0035F06AAC55562AAA355ECB
:1008A0000FE00640034E01D57DCAABFC57E039C0CE
:1008B0000DC007C003C001C001C001C003E010119A
:1008C0000F0035C06AB0D550AAA8D554AAAC55546B
:1008D000BAACDDD46FA837501FE0078007000700CF
:1008E0000F80080E182C342C366A54ACD46C543853
:1008F0001010281800000030202000405860200010
:100900004068A05000A058E0A801506CB05000A072
:10091000D550F801F0A9B0204C41595000EC01A984
:10092000B0215C00D95032AC00A8E05513007040F3
:10093000B60CC02040D633202100B230E10080DA6E
:10094000CD6142A0AACD400140DA0C4FFD40ABFF83
:10095000D55640D8002AABC0A808555560700AAAE1
:10096000AAB0202CD557E0201C7FFC00080805A267
:1009700040000A0450200E090C001E0017002B80B6
:1009800037E06BF0D5F8AAFCFFFC080C04048CA837
:10099000F8606870206070F80808020040040020C9
:1009A000040028180000C000000003B80000000583
:1009B000540000000AAA000000155500000019AB01
:1009C000000000117500000801B300000A012900B1
:1009D000002C402800001C502800000000280000C7
:1009E0003FFE3000005555C0FC00AAAAA14200D528
:1009F0005562A1006AFAA490801F07CC9FC0003006
:100A000017F4A00114000000039E000000011E0066
:100A10000000028A000000000A0000000809101807
:100A20001858DAFB7F1E1808052592623C10201A20
:100A300003E000000C180000100400002202000077
:100A4000401100004001000083E08000AC188000ED
:100A50009004BF80AFFABD80D7F5BC80D7F5BB80CE
:100A600097F4A78097F4B78097F4BF80FFFFA0802A
:100A700000000000000000000006000003880000E5
:100A80000250000002600000FFBC7000B032E000C5
:100A9000C84A7000CFCCE000201D003F800000D588
:100AA00040001FABE00075D60000AABC0000DD6B63
:100AB0000000A7D58000CB7EC00095403FFC1D40C4
:100AC00040020B40FFFF0D4090090940A5690280DC
:100AD000B5490280A6250480FFFF07864002006911
:100AE0004EFA009F4EAA00E54EFA00BD4E0260A5E8
:100AF0007FFE96660000F9180E38A7000B2CBD008B
:100B00000EBAA5000F3C66000E3818000000180F42
:100B100001F00003F80007FC000208003E4F807E51
:100B2000AFC0FC47E04000405CE74054E5405CE774
:100B30004040E04043F8407C07C007FC001009AA91
:100B4000A800008D880D808F880D808D880000AAF8
:100B5000A80606E0E05CF0E0A0080C000000000041
:100B600000000000001C2A080C000000000000002B
:100B700000001C3E3E080C00000000000000003E8B
:100B80007F7F7F080C0000000000003E7F7F7F7F9A
:100B90001C080C000000003E7F7F7F7F1C1C3E086D
:100BA0000C00003E7F7F7F7F1C08081C3E080C0065
:100BB0003E7F7F7F7F00000000081C080C001C3E69
:100BC0007F7F36000000000008080C00001C3E3645
:100BD00000000000000000080C0000081C000000DD
:100BE0000000000000080C000000080000000000E9
:100BF000000000080C0000000000000000000000E1
:100C00000008080000000000081C000808000000A0
:100C10000008221400080800000000220844001008
:100C2000071C003E003E00FF80BE801C0022000F1B
:100C3000071C003E003600F380BE801C0022000F1F
:100C4000071C0022002200F780BE801C002200103A
:100C500009007803F807FE03FC07F80DC058007878
:100C60000030001009007802F805F203FC07F80DC7
:100C7000C0580068003000100E8000C000C000E0C6
:100C800000700018000E000F000F80FFE07FF037AB
:100C9000D81BC001C0100E8000C000C000A00070B2
:100CA0000018000E000F000F80FE607E70274813B2
:100CB000C001C010068040C1F0FFF847FC03FE01F0
:100CC000FE10068040C1F0BFE847E4033A01FE0889
:100CD000050050A850000F03007003801C000F0394
:100CE0000000FFFE00000F031C00038000700F03D4
:100CF0000100038001002804DBFFC5FFE0FA004982
:100D0000002072004D002023FFC9FFE048230000AF
:100D100000000000000000000000001800000001BA
:100D20000000000007C000003E00000000007C0240
:100D300001E0000000000007F27F0000000000005A
:100D4000003DE000008020000003DFDF00011B36D3
:100D5000C0001E0201E0012AA48001F007003E004D
:100D6000B312800700020001000200001800070013
:100D7000000000000000000D800000005000000096
:100D800018C00000501000000018C000009B5580E3
:100D900000003FE000005259000000EFB800008A58
:100DA00054800001EFBC00000000000001FFFC00C7
:100DB000000000000001FFFC000000800000FFFFB9
:100DC000FFF807FBEFF0007FFFFFF00001C000001D
:100DD000221FC22000794F0000771FC7700000005B
:100DE0000000720F827000000000003507056000EF
:100DF0000000000000FFF8000000000000007FF08D
:100E000000000000000000020000000000000000E0
:100E100002000000000000000000000000000000D0
:100E20000000000000008000000000000000010041
:100E300000210002000400C56310A1444420C50243
:100E4000FFFFFFFFFFFFFFFFFF03053F213F1208EA
:100E5000120A100A0E1C0E0C1E0C141A14161F1661
:100E60001E131E1E1B1E1E1F1E3F213F3A2F3A1728
:100E70003D173F213F181F02040A041F0E04040EF1
:100E80001F0A1F0A0E0E1F04110E2E252E2F2A2EAA
:100E9000262929021F02081F08150E04040E150E2C
:100EA00015151B151B040604040C04000000001794
:100EB000000300031F0A1F16371A1904130A153AF4
:100EC000000300000E11110E000A040A040E0400B3
:100ED00030000404040010001804031F111F121F27
:100EE000101D151711151F07041F17151D1F151DA0
:100EF00001011F1F151F17151F000A0000320004F3
:100F00000A110A0A0A110A040115020E11171E0518
:100F10001E1F150A0E110A1F110E1F15111F0501A4
:100F20000E111D1F041F111F1108100F1F041B1F7E
:100F300010101F061F1E040F0E110E1F09060E11A2
:100F40002E1F051A121509011F011F101F0F180F60
:100F50001F0C1F1B041B031C03191513001F110377
:100F60000418111F000201022020200001020C12AF
:100F70001E1F120C0C12120C121F0C1A14041E0548
:100F8000242A1E1F021C141D1020201D1F081411CE
:100F90001F101E041E1E021C0C120C3E0A040C1212
:100FA0003E1E040214160A020F120E101E0E100E20
:100FB0001E081E120C1226281E322A26041E21008C
:100FC0001F00211E040102013F213F0A4E6F2053E2
:100FD000442063617264206F720A6E6F204C4F412F
:100FE0004445522E4845580A0A153A457869740016
:100FF0001D20466C617368696E670A20206C6F6102
:101000006465722E2E2E0A0A444F4E2754205455E2
:10101000524E204F464621006D560A0A504C45411B
:1010200053450A5455524E204F4646004C4F5720C8
:10103000424154544552590A00175344001613783C
:101040000016131400151020001520100000540A7B
:1010500003E181867F3E186D830F0F0E018386604A
:1010600033186DC3198F1803C38E6033186DE330C6
:10107000CF1803C39E603630CDE360CF3006C79EE5
:101080007E3E30CDB360CF300CC6F6603330D9B67B
:1010900060CF33CFCCF66061B0DB1E60CF30D86C50
:1010A000E6C061B0DB1E618F19986CC6C063B19B4E
:1010B0000E330F0FB078C6FF7E1F1B061E0F0500F4
:1010C000893008023802497868140000F6E8DBCF5E
:1010D000C3B8AEA49B928A827B746E68625C5752DE
:1010E0004E4945413E3A3734312E2C2927252321BC
:1010F0001F1D1C1A1917161514131211100F0E0D9F
:101100000C0B0A09080706450068010000050038B5
:1011100001680100001D1119110101FF030101F710
:1011200003000000080002010000030407000000A3
:1011300000000000000102040810204080010204A9
:10114000081020010204081020040404040404040C
:10115000040202020202020303030303030000006D
:101160000023002600290000000000250028002B95
:101170000000000000240027002A0000DD261124C2
:101180001FBECFEFD8E0DEBFCDBF11E0A0E0B1E0E1
:10119000E2E9F5E702C005900D92A43EB107D9F748
:1011A00027E0A4EEB1E001C01D92A73BB207E1F732
:1011B00011E1CEE7D1E104C02297FE010E94A93AD5
:1011C000CC37D107C9F70E9467370C94C73A0C9403
:1011D000000089E295E00E94113281E08093F001E5
:1011E0001092EF011092EE011092ED011092EC01BD
:1011F0001092F1016CE07DE089E295E00E9493316C
:101200001092410508958091EF01882359F08130B3
:10121000A9F48CE392E0909318058093170581E57B
:1012200092E008C081E490E0909318058093170540
:101230008BE290E090931A058093190510921E0599
:1012400010921B0510921D0510921C0581E08093E1
:101250001F051092240594E19093230580932105A6
:101260001092220510922005109225051092260555
:101270001092280580E097E0989FF0011124EA5031
:10128000FE4F1282118214821382158216828F5FA2
:101290008A3090F38093F5010895BF92CF92DF9248
:1012A000EF92FF920F931F93CF93DF931092EB0176
:1012B0001092ED011092EC01C091EF01CC2309F4E2
:1012C00097C2C13011F00C945413D5E0D093E601CD
:1012D00019E01093E40185E18093E501A7E3B0E014
:1012E000B0935004A0934F0488E290E0909352048E
:1012F0008093510406E0009353048EE490E09093B1
:1013000055048093540485E290E0909357048093B1
:10131000560400935804E8E4F0E0F0935A04E09394
:1013200059042AE330E030935C0420935B0400937B
:101330005D0484E390E090935F0480935E044CE549
:1013400050E050936104409360040093620469E6A6
:1013500070E070936404609363048CE690E0909373
:101360006604809365040093670483E190E09093A2
:1013700069048093680480E190E090936B0480930B
:101380006A04D0936C0489E590E090936E04809396
:101390006D0487E190E09093700480936F04D09384
:1013A000710404E0E02EF12CF0927304E0927204D8
:1013B0000FE6E02EF12CF0927504E0927404D093C5
:1013C0007604D5E0ED2EF12CF0927804E0927704CB
:1013D000F0937A04E0937904D7E0D0937B04709380
:1013E0007D0460937C0460E470E070937F046093FC
:1013F0007E04D093800461E370E070938204609374
:1014000081046BE070E0709384046093830408E0CF
:1014100000938504E2E0F0E0F0938704E093860413
:10142000E1E2F0E0F0938904E093880400938A04F9
:101430000F2EF7E6EF2EF12CF02DF0928C04E092B7
:101440008B040F2EF7E2EF2EF12CF02DF0928E048C
:10145000E0928D0400938F040F2EF2E2EF2EF12C18
:10146000F02DF0929104E0929004B0939304A09335
:10147000920400939404ABE4B0E0B0939604A0937C
:101480009504A2E5B0E0B0939804A093970400936C
:101490009904AAE1B0E0B0939B04A0939A04AFE54D
:1014A000B0E0B0939D04A0939C0400939E04A3E03D
:1014B000B0E0B093A004A0939F04A9E0B0E0B09383
:1014C000A204A093A1041093A304F093A504E093B5
:1014D000A404EDE1F0E0F093A704E093A6041093D8
:1014E000A8047093AA046093A90463E370E0709366
:1014F000AC046093AB041093AD0467E372E07093A7
:10150000AF046093AE046EE472E07093B104609334
:10151000B004EDE0E093B204D093B30461E171E074
:101520007093B6046093B5045093B8044093B70425
:10153000E093B904D093BA0449E352E05093BD0458
:101540004093BC044FE150E05093BF044093BE046D
:10155000E093C004D093C1045093C4044093C304E7
:1015600048E551E05093C6044093C504E093C70496
:10157000D093C8043093CB042093CA0428E532E00A
:101580003093CD042093CC04E093CE04D093CF04C9
:1015900025E332E03093D2042093D1042BE332E0F0
:1015A0003093D4042093D30423E12093D5042FE077
:1015B0002093D604C093D70420E232E03093D904BC
:1015C0002093D80423E532E03093DB042093DA043F
:1015D00060E26093DC045DE15093DD0442E04093FF
:1015E000DE0428E132E03093E0042093DF0422E1BE
:1015F00030E03093E2042093E1046093E3045093DD
:10160000E4044093E5049093E7048093E60488E4BF
:1016100092E09093E9048093E8046093EA04509385
:10162000EB044093EC0489E492E09093EE04809301
:10163000ED0485E592E09093F0048093EF0449E196
:101640004093F1043AE13093F20423E02093F30451
:1016500084E291E09093F5048093F40485E590E0B2
:101660009093F7048093F6044093F8043093F904C0
:101670002093FA048FE290E09093FC048093FB04A3
:1016800080E591E09093FE048093FD044093FF0475
:10169000309300052093010589EA90E090930305BB
:1016A0008093020581ED91E09093050580930405F8
:1016B00044E24093060538E1309307052AE0209381
:1016C000080583E990E090930A058093090583ED6E
:1016D00090E090930C0580930B0540930D0530939B
:1016E0000E0520930F058AE891E0909311058093F1
:1016F000100583E591E090931305809312054093C4
:10170000140530931505209316058BE891E090930E
:10171000FF038093FE0381E492E0909301048093A1
:10172000000484E290E0909308048093070481E52C
:1017300090E090930A048093090487E192E09093EB
:101740001104809310048BE590E090931304809330
:1017500012048AE790E090931A048093190488E0B9
:1017600090E090931C0480931B0484E791E0909395
:1017700023048093220427E030E030932504209353
:10178000240490932C0480932B0425E830E03093BC
:101790002E0420932D0427EF30E03093350420935E
:1017A000340421E031E030933704209336049093E1
:1017B0003E0480933D048EE791E090934004809333
:1017C0003F048BE790E090934704809346048BEFAF
:1017D00091E0909349048093480480E099E020E1EF
:1017E00036E147E054E168E479E2A5E0B0E5FFC402
:1017F00015E01093E60189E0C82EC092E40185E16E
:101800008093E50186E190E09093500480934F042B
:1018100020E130E0309352042093510443E0F42E51
:10182000F0925304CEE1D0E0D0935504C093540419
:1018300045E150E05093570440935604F092580409
:1018400090935A04809359048AE190E090935C0449
:1018500080935B04F0925D046DE470E070935F042C
:1018600060935E044BE050E0509361044093600449
:10187000F09262044BE250E050936404409363049E
:101880004DE250E05093660440936504F092670483
:1018900042E550E0509369044093680440E350E00F
:1018A00050936B0440936A04F0926C04ABE1B0E097
:1018B000B0936E04A0936D0441E550E05093700422
:1018C00040936F04F092710444E250E0509373042B
:1018D0004093720445E550E05093750440937404BE
:1018E000F09276044CE150E05093780440937704F2
:1018F0004BE550E050937A0440937904F0927B04D6
:10190000E7E6F0E0F0937D04E0937C0444E750E0E8
:1019100050937F0440937E04F092800440E450E0B2
:101920005093820440938104D0938404C093830431
:1019300010928504CEE0D0E0D0938704C093860453
:10194000509389044093880410928A0445E350E040
:1019500050938C0440938B0447E750E050938E04DF
:1019600040938D0410928F0444E050E05093910412
:101970004093900443E050E05093930440939204CA
:10198000BB24B394B092940449E550E0509396047C
:101990004093950449E450E0509398044093970491
:1019A000B0929904C2E6D0E0D0939B04C0939A040D
:1019B000C0E5D0E0D0939D04C0939C04B0929E04F7
:1019C000C4E5D0E0D093A004C0939F04D093A204B8
:1019D000C093A1041093A304C7E0D0E0D093A50462
:1019E000C093A404CDE6D0E0D093A704C093A6048E
:1019F00014E01093A804CEE6D0E0D093AA04C093DC
:101A0000A9049093AC048093AB041093AD04CCE391
:101A1000D0E0D093AF04C093AE04C8E2D0E0D0933E
:101A2000B104C093B004CDE0DC2ED092B204D7E074
:101A3000ED2EE092B3041092B404C1E5D2E0D0934D
:101A4000B604C093B504C9E3D0E0D093B804C09302
:101A5000B704D092B904E092BA041092BB040BE828
:101A600011E01093BD040093BC0405E810E010934E
:101A7000BF040093BE04D092C004E092C10410924F
:101A8000C20402E011E01093C4040093C30406E210
:101A900011E01093C6040093C504D092C704E092ED
:101AA000C8041092C9040EE210E01093CB04009316
:101AB000CA0407E312E01093CD040093CC04D09243
:101AC000CE04E092CF041092D004D093D204C093FD
:101AD000D104C3E1D0E0D093D404C093D304C09325
:101AE000D504CFE0C093D604B092D704C8E1D0E0CB
:101AF000D093D904C093D804B093DB04A093DA0444
:101B000010E21093DC04DDE1D093DD04C2E0C09369
:101B1000DE04AAE0B0E0B093E004A093DF04A6E204
:101B2000B2E0B093E204A093E1041093E304D093F5
:101B3000E404C093E504A1E8B1E0B093E704A09306
:101B4000E604F093E904E093E8041093EA04D093E8
:101B5000EB04C093EC047093EE046093ED0461E237
:101B600070E07093F0046093EF04F9E1F093F104F6
:101B7000EAE1E093F204F092F3046DE472E0709312
:101B8000F5046093F4049093F7048093F604F093C3
:101B9000F804E093F904F092FA0482E191E0909362
:101BA000FC048093FB048FE191E09093FE0480930A
:101BB000FD04F093FF04E0930005F09201058DEF22
:101BC00090E090930305809302058FE990E0909355
:101BD00005058093040574E27093060568E160933F
:101BE0000705C092080588E990E090930A05809364
:101BF00009058EE991E090930C0580930B05709395
:101C00000D0560930E05C0920F058EE092E0909353
:101C10001105809310058CE191E09093130580935A
:101C200012057093140560931505C09216058FE197
:101C300090E09093FF038093FE0388E490E09093FC
:101C40000104809300048AE192E090930804809359
:101C5000070450930A04409309043093110420931D
:101C6000100484E492E0909313048093120481E2C0
:101C700091E090931A048093190484EA90E0909381
:101C80001C0480931B0488E392E0909323048093C8
:101C9000220484E191E090932504809324048DE74D
:101CA00091E090932C0480932B0488EC91E0909326
:101CB0002E0480932D0488E592E090933504809360
:101CC000340425E032E0309337042093360425E1D4
:101CD00032E030933E0420933D0424E132E030931F
:101CE000400420933F042FEF31E0309347042093CA
:101CF0004604909349048093480480E099E020E1F1
:101D000036E147E054E168E479E2A4E0B0E58930E7
:101D100098F4989FF0011124E250FC4F1086833014
:101D200028F464837583A683B78304C02483358332
:101D3000468357838F5FEBCF8FE590E090932D0321
:101D400080932C038EE191E090932F0380932E03D8
:101D50002DE430E0309337032093360384E491E0A0
:101D6000909339038093380385E790E09093410383
:101D70008093400388E591E090934303809342036E
:101D800086E890E090934B0380934A0380E391E0D0
:101D900090934D0380934C038DE791E0909355030E
:101DA0008093540386E290E0909357038093560308
:101DB00084EB91E090935F0380935E0345E150E0F4
:101DC000509361034093600341EA51E050936903EB
:101DD0004093680330936B0320936A032DE831E04E
:101DE00030937303209372032CE831E03093750332
:101DF000209374032AE731E030937D0320937C0322
:101E00002CEA31E030937F0320937E032DE931E00B
:101E1000309387032093860328EC31E030938903C5
:101E20002093880323EC31E03093910320939003B7
:101E300028EA31E0309393032093920390939B031D
:101E400080939A038FE891E090939D0380939C0385
:101E500080E692E09093A5038093A40388E292E049
:101E60009093A7038093A6038AE492E09093AF0334
:101E70008093AE038AE292E09093B1038093B00323
:101E80008CE292E09093B9038093B80384E392E0EC
:101E90009093BB038093BA0386E292E09093C303CE
:101EA0008093C20389E492E09093C5038093C403B6
:101EB00083E292E09093CD038093CC0381E692E09D
:101EC0009093CF038093CE038EE590E09093D70359
:101ED0008093D6038EE291E09093D9038093D80348
:101EE00081E991E09093E1038093E00324E230E004
:101EF0003093E3032093E2039093EB038093EA0390
:101F00008BE991E09093ED038093EC0381E492E000
:101F10009093F5038093F40388E492E09093F703A1
:101F20008093F60380E09AE020E236E040E557E057
:101F300068E074E18531A0F4989FF0011124E45D1C
:101F4000FC4F10861186813128F454839583668373
:101F5000778304C024832583368347838F5FEACF4A
:101F60008093F5018091EE01882309F49DC38CE3F1
:101F700092E090933D0280933C028BE790E0909337
:101F80003F0280933E0285E391E090934902809363
:101F9000480286EA90E090934B0280934A0223E045
:101FA0002093530286E291E090935502809354026D
:101FB0008FEB90E0909357028093560220935F023C
:101FC0002AE432E0309361022093600283E191E0E1
:101FD000909363028093620244E040936B0283E437
:101FE00092E090936D0280936C028CE291E090936A
:101FF0006F0280936E02409377028EE691E0909399
:1020000079028093780287EC91E090937B02809331
:102010007A0245E04093830285E891E0909385023F
:102020008093840283EE91E09093870280938602EE
:1020300040938F0289E692E0909391028093900200
:1020400088E092E0909393028093920246E040935E
:102050009B0282E692E090939D0280939C028DE128
:1020600092E090939F0280939E024093A70286E2A3
:1020700092E09093A9028093A80287E192E0909366
:10208000AB028093AA0267E06093B30280E292E021
:102090009093B5028093B4024EE252E05093B7029F
:1020A0004093B6026093BF0247E052E05093C102F2
:1020B0004093C00240E552E05093C3024093C202F5
:1020C00068E06093CB0240E152E05093CD02409330
:1020D000CC024BE552E05093CF024093CE02609386
:1020E000D7024DE550E05093D9024093D802309387
:1020F000DB022093DA0242E04093E30229E531E07B
:102100003093E5022093E4022CE132E03093E702C1
:102110002093E6024093EF022BE731E03093F10287
:102120002093F00227E130E03093F3022093F20293
:1021300029E430E03093FD022093FC022CE131E0F1
:102140003093FF022093FE022BE931E03093090324
:10215000209308032EE831E030930B0320930A0309
:1021600027E131E030931503209314039093170374
:102170008093160384E18093470280E492E0909379
:1021800021038093200383E192E0909323038093C3
:10219000220380E02CE034E040E15EE061E07EE19B
:1021A00096E0A5E0843108F07DC2289FF00111245B
:1021B000E45CFD4F1086118632878F3028F49483BB
:1021C00095831682A78304C04483558366837783EF
:1021D0008F5FE8CF989FF0011124E250FC4F1086EA
:1021E000833040F464837583A683B7838F5F89301F
:1021F00088F305C02483358346835783F7CF83E074
:1022000090E090932D0380932C0380E190E09093D5
:102210002F0380932E038BE290E0909337038093FB
:10222000360382E090E090933903809338038BE388
:1022300090E0909341038093400383E390E0909378
:1022400043038093420389E490E090934B0380938F
:102250004A0383E290E090934D0380934C0381EB1B
:1022600090E0909355038093540381E690E090931F
:1022700057038093560386E991E090935F03809320
:102280005E0386E590E0909361038093600387EAA4
:1022900091E0909369038093680386E490E09093C3
:1022A0006B0380936A038FEC91E0909373038093A8
:1022B00072038BE690E0909375038093740383EB35
:1022C00091E090937D0380937C0381EE90E0909366
:1022D0007F0380937E0384E890E09093870380934C
:1022E000860387E191E0909389038093880380E1DE
:1022F00091E0909391038093900380E691E0909316
:102300009303809392038AE391E090939B038093DD
:102310009A0385E491E090939D0380939C038FE45E
:1023200091E09093A5038093A4038AE691E09093B3
:10233000A7038093A60381E190E09093AF0380937D
:10234000AE0381EB91E09093B1038093B0038EE7ED
:1023500090E09093B9038093B80385E891E090935F
:10236000BB038093BA0382E690E09093C30380930B
:10237000C20385EC91E09093C5038093C40384E08D
:1023800090E09093CD038093CC0383E092E0909310
:10239000CF038093CE0384E290E09093D7038093A1
:1023A000D6038EE090E09093D9038093D8038EE219
:1023B00090E09093E1038093E0038EEC91E09093A2
:1023C000E3038093E2038AE291E09093EB0380932E
:1023D000EA0381E591E09093ED038093EC0386EAB4
:1023E00091E09093F5038093F40385E590E090935A
:1023F000F7038093F60380E09AE020E236E040E5C0
:1024000057E068E074E18531A0F4989FF001112451
:10241000E45DFC4F10861186813128F45483958346
:102420006683778304C024832583368347838F5F45
:10243000EACF8093F5018091EE01882309F434C13D
:102440008CE392E090933D0280933C028BE790E016
:1024500090933F0280933E0285E391E0909349027E
:102460008093480286EA90E090934B0280934A0260
:1024700023E02093530286E291E0909355028093EB
:1024800054028FEB90E09093570280935602209372
:102490005F022AE432E0309361022093600283E11C
:1024A00091E0909363028093620244E040936B0258
:1024B00083E492E090936D0280936C028CE291E051
:1024C00090936F0280936E02409377028EE691E0C4
:1024D000909379028093780287EC91E090937B024D
:1024E00080937A0245E04093830285E891E09093DF
:1024F00085028093840283EE91E09093870280931B
:10250000860240938F0289E692E090939102809335
:10251000900288E092E0909393028093920246E0CA
:1025200040939B0282E692E090939D0280939C02EE
:102530008DE192E090939F0280939E024093A702C8
:1025400086E292E09093A9028093A80287E192E04C
:102550009093AB028093AA0267E06093B30280E29B
:1025600092E09093B5028093B4024EE252E0509311
:10257000B7024093B6026093BF0247E052E0509327
:10258000C1024093C00240E552E05093C302409321
:10259000C20268E06093CB0240E152E05093CD026A
:1025A0004093CC024BE552E05093CF024093CE02D1
:1025B0006093D7024DE550E05093D9024093D80282
:1025C0003093DB022093DA0242E04093E30229E5F4
:1025D00031E03093E5022093E4022CE132E03093C5
:1025E000E7022093E6024093EF022BE731E03093BD
:1025F000F1022093F00227E130E03093F3022093C0
:10260000F20229E430E03093FD022093FC022CE139
:1026100031E03093FF022093FE022BE931E030934A
:102620000903209308032EE831E030930B03209335
:102630000A0327E131E030931503209314039093AC
:1026400017038093160384E18093470280E492E0AD
:10265000909321038093200383E192E090932303DE
:102660008093220380E02CE034E040E15EE061E012
:102670007EE196E0A5E08431A8F4289FF0011124C2
:10268000E45CFD4F1086118632878F3028F49483E6
:1026900095831682A78304C044835583668377831A
:1026A0008F5FE9CF8093F501DF91CF911F910F915B
:1026B000FF90EF90DF90CF90BF9008958091F00150
:1026C000813021F0823009F463C0089562E083E331
:1026D00095E00E940C28882341F08091EF0190E062
:1026E0000196817099278093EF0160E083E395E084
:1026F0000E940C28882351F08091EF01811102C0C3
:1027000081E002C0817081508093EF0163E083E338
:1027100095E00E940C28882351F08091EE0190E012
:10272000019663E070E00E94523A8093EE0161E00E
:1027300083E395E00E940C28882371F08091EE01DC
:10274000811104C082E08093EE0106C063E00E9424
:10275000323A91509093EE0164E083E395E00E9459
:102760000C28882339F082E08093F0010E944D0903
:102770000E94030966E083E395E00E940C28882309
:1027800009F452C16CE07DE089E295E00C9493314C
:1027900066E083E395E00E940C28882319F081E02D
:1027A0008093F00165E083E395E00E940C28882384
:1027B00061F080912805882329F0813031F410924E
:1027C000280503C081E08093280540E064E083E3AE
:1027D00095E00E94152890911F05882309F4D6C022
:1027E0009111D4C080911E05883009F0CFC081E0DE
:1027F0008093200580912305882309F415C140E0CA
:1028000062E083E395E00E941528882341F08091DF
:102810001D058330D4F48F5F80931D0516C040E002
:1028200060E083E395E00E94152890911D058823C0
:1028300019F09E3F54F002C0191614F4915003C0D1
:10284000992319F09F5F90931D0540E063E083E3B7
:1028500095E00E941528882341F080911C05833063
:10286000D4F48F5F80931C0516C040E061E083E3E1
:1028700095E00E94152890911C05882319F09E3F31
:1028800054F002C0191614F4915003C0992319F0A2
:102890009F5F90931C0520911D051216A4F4809152
:1028A00017059091180560E0332727FD3095462FD6
:1028B00050E042175307BCF4863742E094070CF40B
:1028C00001966F5FF4CF2223A1F0809117059091BC
:1028D000180560E0332721950CF43095462F50E021
:1028E000421753079CF09093180580931705609347
:1028F000F50120911C051216DCF4809119059091C8
:102900001A0560E0332727FD30950CC0181619060C
:102910000CF401976F5FE2CF863742E094070CF426
:1029200001966F5F462F50E042175307ACF310C07B
:102930002223A1F08091190590911A0560E03327B8
:1029400021950CF43095462F50E0421753077CF048
:102950006093F50190931A058093190540E064E0B7
:1029600083E395E00E941528811107C015C08E30C1
:1029700091050CF001976F5FE6CF80911F058111E3
:102980000BC080911E05883039F442C0109220059A
:10299000992309F42FCF08951092200580912805DE
:1029A000811142C080911D0518163CF490911C05C0
:1029B000911117C010921B0519C0811108C0809198
:1029C0001C051816ACF482E080931B0511C087FF2C
:1029D00015C080911C051816FCF493E090931B051C
:1029E0001FC019161CF491E090931B05811106C0BD
:1029F00080911C0587FF18C086E007C01816A4F454
:102A000080911C0587FF10C087E080931B05089507
:102A100081E080932005C2CF811102C084E0F5CF10
:102A200087FF02C085E0F1CF0895282F30E06CE0E9
:102A3000869FF0011124E45CFD4F8781882309F40F
:102A400084C088E08093F2018081918140911705D4
:102A50005091180564816695DC01A60FB11DBA017D
:102A6000665F7F4F6A177B073CF4019791838083F1
:102A700084E082878093F2018CE0829FF001839F43
:102A8000F00D1124E45CFD4F808191816481669595
:102A9000DC01A60FB11D4A505109A417B50734F443
:102AA00001969183808312861092F2018CE0829FBE
:102AB000F001839FF00D1124E45CFD4F828193812E
:102AC0004091190550911A0565816695DC01A60FA4
:102AD000B11DBA0168507109A617B7078CF40196A9
:102AE000938382838091F201843031F0883031F019
:102AF000811106C081E003C083E001C082E08287CB
:102B00008CE0829FF001839FF00D1124E45CFD4F67
:102B10008281938125812695BC01620F711D485FDA
:102B20005F4F461757078CF40197938382838091F8
:102B3000F201843031F0883031F0811106C087E035
:102B400003C085E001C086E0828708952F923F92FE
:102B50004F925F926F927F928F929F92AF92BF92AD
:102B6000CF92DF92EF92FF920F931F93CF93DF9359
:102B7000CDB7DEB72E970FB6F894DEBF0FBECDBF30
:102B800010E047E05AE01A3008F099C0212F30E0F9
:102B9000429FF001439FF00D1124EA50FE4F8681C1
:102BA000882309F48AC0858190E08830910508F077
:102BB0006AC0FC01EC5CFF4F0C94A73A429FF00105
:102BC000439FF00D1124EA50FE4F818192810296BD
:102BD00030C0429FF001439FF00D1124EA50FE4F98
:102BE00081819281019615C0429FF001439FF00DB3
:102BF0001124EA50FE4F83819481029642C0429F85
:102C0000F001439FF00D1124EA50FE4F8181928123
:102C100001979283818383819481019632C0429F80
:102C2000F001439FF00D1124EA50FE4F8181928103
:102C300002979283818327C0429FF001439FF00D4A
:102C40001124EA50FE4F81819281019715C0429F65
:102C5000F001439FF00D1124EA50FE4F83819481CF
:102C600002970FC0429FF001439FF00D1124EA50DC
:102C7000FE4F818192810196928381838381948129
:102C8000019794838383429FF001439FF00D1124A9
:102C9000EA50FE4F86818F5F86838F3170F0A0816E
:102CA0005A9FD0011124A45DBC4F19961C92128228
:102CB000118214821382158216821F5F64CF0091E5
:102CC000E5018091170590911805609019057090A5
:102CD0001A0520911E05B301621B7109E091E901FB
:102CE0005091EA014091E7012091E801B090F30191
:102CF000A12C3AE0932E88248394A01608F0DFC01C
:102D00009A9C600111249601245D3C4F6901D90110
:102D100014962C91149726954D915C911197420F22
:102D2000511D1596EC911597E69512962D913C91B3
:102D300013972E0F311DFC01E41BF50BE65BFF4FD3
:102D4000E539F10508F0B6C0F301E21BF30BE65BD1
:102D5000FF4FE539F10508F0ADC07601B9E0EB0EA3
:102D6000F11CD6011996EC911997E111A3C01796A1
:102D7000EC91EE2309F49EC0EBEFF1E0A6EFB1E099
:102D8000BA87A987ACEFB1E0BC87AB87B12C27012C
:102D9000D6011696BE83AD83DA011596BE87AD8740
:102DA0001A01B5E02B1A3108790115E0E10EF11C8A
:102DB000D9011697B887AF836901B5E0CB1AD1085E
:102DC000B2E0E134FB0709F474C0AB85BC851C910B
:102DD000111163C0B11061C014E1D2011C93AD8127
:102DE000BE81BC90B6E0BB1202C0D2019C92A98504
:102DF000BA85AC9212965C934E93119714963C93BD
:102E00002E931397AB85BC858C921082AD85BE85C1
:102E1000A817B90724F4E616F7060CF48082821589
:102E200093055CF0AD85BE85A817B9075CF0261741
:102E3000370744F4B2E0B08305C0E616F70614F491
:102E400013E010838417950744F46C157D052CF06E
:102E5000E616F70614F0A4E0A083821593052CF47F
:102E60006C157D0574F4B5E00BC0AD85BE85A81763
:102E7000B9073CF0AF81B8856A177B0714F4B6E058
:102E8000B083AD85BE85A817B9072CF46C157D05F8
:102E900014F4B7E0B083BB24B3943796A985BA8500
:102EA0001796BA87A987AB85BC851796BC87AB8771
:102EB00087CF1AE0A394E42F422F232F1ECF109325
:102EC000F401E093E9015093EA014093E701209374
:102ED000E801B092F301A092F5013091EE013323A5
:102EE00009F412C130911E05B301631B71094B2C0B
:102EF000912C8824839404E0502EF3E1F91508F412
:102F0000F5C0FCE0F99DF0011124E45CFD4FF88769
:102F1000EF832481269540815181420F511DE58127
:102F2000E695AF81B88512962D913C9113972E0F9F
:102F3000311DFC01E41BF50BE65BFF4FE539F105A4
:102F400008F0CFC0F301E21BF30BE65BFF4FE5395E
:102F5000F10508F0C6C07D01B9E0EB0EF11CAF81B0
:102F6000B8851996EC911997E111BBC01796EC91B1
:102F7000EE2309F4B6C0EBEFF1E006EF11E01C8799
:102F80000B87ACEFB1E0BA87A987412C0F81188578
:102F90000A5F1F4F1C830B83FA82E9827A0115E0D6
:102FA000E10EF11C1A01A5E02A1A31085901B5E019
:102FB000AB0EB11C8901065011091E830D836901F6
:102FC00015E0C11AD108AF81B8851A96B887AF83CA
:102FD000B2E0E134FB0709F483C0A985BA851C91EE
:102FE000111171C041106DC0AB85BC859C921296C9
:102FF0005C934E93119714963C932E931397A98547
:10300000BA858C92AB81BC811C911123C1F0113027
:1030100009F057C008E2A981BA810C93AF81B88545
:103020001C911083AB85BC8513960D911C91149750
:103030000550110914961C930E93139742C004E196
:10304000A981BA810C931082E816F90624F4A61619
:10305000B7060CF48082821593054CF0E816F90649
:103060005CF02617370744F412E0108305C0A6165B
:10307000B70614F4A3E0A083841795073CF46C15FD
:103080007D0524F0A616B7060CF050828215930534
:1030900034F46C157D056CF4B5E0B0830AC0E81615
:1030A000F9063CF00D811E816017710714F416E0DB
:1030B0001083E816F9062CF46C157D0514F4A7E0CE
:1030C000A0834424439437960B851C85095F1F4FCA
:1030D0001C870B87A985BA851796BA87A98778CFE9
:1030E0001AE09394E42F422F232F07CF1093F4017B
:1030F000E093E9015093EA014093E7012093E8014E
:103100004092F3019092F5012E960FB6F894DEBF2F
:103110000FBECDBFDF91CF911F910F91FF90EF9028
:10312000DF90CF90BF90AF909F908F907F906F90E7
:103130005F904F903F902F900895EF92FF920F93E2
:103140001F93CF93DF938091270581114CC080910D
:10315000170590911805AC0143505109BC016D5FF2
:103160007F4F20911E058091190590911A05821BB1
:103170009109DC0115970196D0912305F090240563
:1031800000E010911F05C0E0E7E0EE2ECA3008F520
:10319000EC9EF0011124EA50FE4F21813281241768
:1031A0003507ACF06217730794F0238134812A1736
:1031B0003B076CF08217930754F0DD2311F0D550D4
:1031C00021F4FF24F394D0E002C010E00CE0CF5FC4
:1031D000DDCFD0932305F0922405009327051093AB
:1031E0001F05C093F401DF91CF911F910F91FF90C4
:1031F000EF9008951F93CF93DF9340E06CE07AE067
:10320000DEE1C9E015E04F3008F074C0242F30E053
:10321000629FF001639FF00D1124E45CFD4FA385D4
:10322000AA2309F465C08781811162C08085883C2A
:1032300009F05EC08681811128C0CA9FD001112487
:10324000A250BC4F17968C9117978823F1F01783E3
:10325000108614965C91149756958D919C91850FCC
:10326000911D91838083A385CA9FD0011124A25010
:10327000BC4F15965C911597569512968D919C9121
:103280001397850F911D93838283629FF001639F43
:10329000F00D1124E45CFD4F8681813049F5A38552
:1032A0007A9FD0011124A45DBC4F17968C9117977B
:1032B0008823F1F0D783108614962C9114972695C5
:1032C0008D919C91820F911D91838083A3857A9F1C
:1032D000D0011124A45DBC4F15962C911597129620
:1032E0008D919C911397820F911D059693838283F4
:1032F0004F5F89CF4093F501DF91CF911F910895E2
:1033000090911F0580912405992319F0913059F06F
:1033100011C090911E05983068F481110BC09F5F19
:1033200090931E05089590911E05992319F09150D0
:1033300090931E05813099F420911E05222379F087
:1033400080911B05992787FD9095019668E070E0B4
:103350000E94523A80931B05215020931E05089528
:10336000FF920F931F93CF93DF93809120058130BD
:1033700009F022C180911B05992787FD9095A92FFF
:10338000B92F8830910508F040C0FC01E45CFF4F84
:1033900040911705509118052091190530911A0593
:1033A0000C94A73A405F5F4F15C0485F5F4F09C05C
:1033B0005093EA014093E901285F3F4F22C04850F3
:1033C00051095093EA014093E9012B5F3F4F19C027
:1033D000405151095093EA014093E90112C048500D
:1033E000510909C05093EA014093E901285031097D
:1033F00008C0485F5F4F5093EA014093E9012550B0
:1034000031093093E8012093E701C091E501209153
:10341000E9013091EA014091E7015091E801A09162
:10342000EB018091EC019091ED01B0E0DAE0BC1786
:1034300090F5DB9FF0011124E45DFC4F6081718108
:103440006217730734F51481610F711D2617370752
:1034500004F56281738164177507DCF41581610FCF
:10346000711D46175707ACF46781662391F06150D0
:10347000678361110EC0608561110BC0AF5F66810B
:10348000663029F0683029F486509F4F02C0885179
:103490009C4FBF5FCCCFA093EB01B091E401C091F2
:1034A000EE01A0E0D9E0AB17B0F5DA9FF0011124EE
:1034B000E250FC4F608171816217730754F51481EB
:1034C000610F711D2617370724F562817381641718
:1034D0007507FCF41581610F711D46175707CCF471
:1034E00067816623B1F061506783611112C0C230F9
:1034F00081F4608561110DC06681673029F0693003
:1035000031F0643031F403C0825A9E4F02C08853B8
:103510009F4FAF5FC8CF9093ED018093EC01A093D4
:10352000F501CC2309F448C0D0E01CE009E0D43117
:10353000E8F56D2F70E0169FF001179FF00D112434
:10354000E45CFD4FA081B181A217B3076CF5F48054
:10355000AF0DB11D2A173B073CF5A281B381A4171B
:10356000B50714F5F580AF0DB11D4A175B07E4F4FC
:10357000A781AA23C9F0A150A783A11115C0C1300A
:1035800099F4E085E11110C0069FF001079FF00D4E
:103590001124E250FC4F6681662329F0613021F44A
:1035A0008C599F4F01C0C296DF5FC1CF9093ED0150
:1035B0008093EC01D093F501DF91CF911F910F9192
:1035C000FF90089580911E058823E1F080912205E7
:1035D00090E0019664E670E00E94523A80932205E2
:1035E000892B39F480912105882319F0815080932B
:1035F000210580912105811105C081E0809324057A
:1036000080931F0508958A3291054CF09C012A523F
:1036100031092332324010F0825208958AE208952F
:10362000823291054CF09C012252310927343240FC
:1036300010F08654089582E2089520911705309184
:1036400018052A32310564F0A9014A525109433262
:10365000524020F4821B930B8A9602C08252924001
:103660002DE730E0B9010E94523A83589F4FB901CB
:103670000E94523A08952091190530911A0522327C
:10368000310564F0A901425251094734524020F4F7
:10369000821B930B829602C0865492402DE730E045
:1036A000B9010E94523A83589F4FB9010E94523A81
:1036B000089520911705309118052A32310564F0DC
:1036C000A9014A5251094332524020F4821B930B04
:1036D0008A9608958252924008952091190530915A
:1036E0001A052232310564F0A901425251094734CA
:1036F000524020F4821B930B829608958654924088
:10370000089580912105882361F080911E0588230A
:1037100041F08091250590E0019683709927809370
:1037200025058091F10190E0019662E370E00E942E
:10373000523A8093F10180912405813059F48091AF
:103740001E05811107C0809126058B3018F48F5F0C
:103750008093260580912705882319F08150809356
:1037600027055091E50120E03AE02517F8F4822F73
:1037700090E0389FF001399FF00D1124E45DFC4F7B
:103780004781411105C040854C3010F44F5F4087A0
:10379000389FF001399FF00D1124E45DFC4F8185C5
:1037A000882311F0815081872F5FDFCF2091E401C2
:1037B00080E039E0821778F4389FF0011124E2505C
:1037C000FC4F9781911105C090859C3010F49F5F4C
:1037D00090878F5FEFCF8093F5018091EE01882372
:1037E00029F120E03CE02431F8F4822F90E0389F6A
:1037F000F001399FF00D1124E45CFD4F4781411128
:1038000005C04085493C10F44F5F4087389FF00168
:10381000399FF00D1124E45CFD4F8185882311F060
:10382000815081872F5FDFCF2093F5010895EF92BC
:103830000F93CF9380911705909118050E94031B59
:10384000C82F282F30E03093EA012093E9018091BE
:10385000190590911A050E94101B282F30E0309313
:10386000E8012093E7014EEF480F6EEF6C0F2FEC4D
:103870003CE087E795E00E94522B8091270563E0AA
:103880000E94323A911148C12091250588E0289F75
:10389000900111242A52334F4091E70180911E0577
:1038A000481B48506091E901675087E795E00E9406
:1038B000522B80911B05992787FD9095A92FB92F31
:1038C0008830910508F028C1FC01EC5BFF4F60E0F7
:1038D00087E795E00C94A73A0E94F1284091E70110
:1038E00080911E05481B46506091E9016950E12C0A
:1038F00000E023EB3CE087E795E00E94D22B61E0FB
:1039000087E795E00E94F1284091E70180911E052C
:10391000481B46506091E90169508DC00E94F12812
:103920004091E70180911E05481B4D506091E901CF
:103930006750E12C00E027E73CE087E795E00E9434
:10394000D22B61E087E795E00E94F1284091E701E2
:1039500080911E05481B4D506091E901675046C09B
:103960000E94F1284091E70180911E05481B4650B6
:103970006091E9016450E12C00E02FE13CE087E731
:1039800095E00E94D22B61E087E795E00E94F12844
:103990004091E70180911E05481B46506091E90166
:1039A00064502FE33CE0B4C00E94F1284091E7014D
:1039B00080911E05481B4D506091E9016950EE242D
:1039C000E39400E027E73CE087E795E00E94D22BF4
:1039D00061E087E795E00E94F1284091E70180913E
:1039E0001E05481B4D506091E901695025E93CE0F6
:1039F0008FC00E94F1284091E70180911E05481B6D
:103A000046506091E9016750EE24E39400E023EB17
:103A10003CE087E795E00E94D22B61E087E795E0E4
:103A20000E94F1284091E70180911E05481B4650F5
:103A30006091E901675021EC3CE06AC00E94F128E6
:103A40004091E70180911E05481B46506091E901B5
:103A50006750EE24E39400E02FE43CE087E795E034
:103A60000E94D22B61E087E795E00E94F128409107
:103A7000E70180911E05481B46506091E90167509F
:103A800045C00E94F1284091E70180911E05481B26
:103A900046506091E9016450E12C00E02FE13CE0E8
:103AA00087E795E00E94D22B61E087E795E00E94CE
:103AB000F1284091E70180911E05481B4650609116
:103AC000E90164502FE23CE023C00E94F1284091BC
:103AD000E70180911E05481B46506091E90169503D
:103AE000E12C00E02FE43CE087E795E00E94D22B38
:103AF00061E087E795E00E94F1284091E70180911D
:103B00001E05481B46506091E901695023E63CE0E0
:103B100087E795E00E94D22BCF910F91EF90089507
:103B20000F9360E087E795E00E94F12805E024E527
:103B300040E060E087E795E00E947A2961E087E74E
:103B400095E00E94F1289091EB018091E501981396
:103B50000BC08091F1018F3038F480911E058823CD
:103B600019F064E571E05FC026EF3CE041E06AE2F5
:103B700087E795E00E94522B809128058823C9F0A1
:103B8000813039F54AE050E06091EB0187E795E03C
:103B90000E94B0386AE671E087E795E00E94D93765
:103BA0004AE050E06091E50187E795E00E94B03877
:103BB00010C068E671E087E795E00E94D937609110
:103BC000EC017091ED014AE050E087E795E00E943A
:103BD0009B388091230565E00E94323A02E0282F4D
:103BE00042E061E387E795E00E947A292091210570
:103BF0008BEA289F212D1124269542E062E487E775
:103C000095E00E947A298FE48093800510928105C7
:103C100080912805882329F0813051F460E771E014
:103C200002C06CE671E087E795E00F910C94D937FC
:103C30000F9108950F93CF938091EF01882329F07E
:103C4000813049F467E871E002C064E771E087E71A
:103C500095E00E94D93703E12EE147E06AE087E76B
:103C600095E00E94AB29209142013091430141E14E
:103C700066E187E795E00E94522B20914201309146
:103C8000430143E16DE187E795E00E94522B2091CB
:103C90003C0130913D0149E06EE187E795E00E94EB
:103CA000522B20913E0130913F0149E06CE087E7C3
:103CB00095E00E94522B2EE147E062E387E795E012
:103CC0000E94AB2920914A0130914B0149E064E305
:103CD00087E795E00E94522B2091460130914701E1
:103CE0004FE06AE387E795E00E94522B209148015C
:103CF0003091490149E064E487E795E00E94522B46
:103D00006091EF0188E2689F602D1124675F05E1F3
:103D100020E246E087E795E00E94AB29C3E2C0932A
:103D200080058EE1809381056AE971E087E795E07F
:103D30000E94D937C093800584E2809381056FE9A2
:103D400071E087E795E00E94D937C09380058AE249
:103D50008093810566EA71E087E795E00E94D93794
:103D60008091EE01482F440F480F440F435E21EC31
:103D70003CE06FE087E795E00E94522B8091EE01D6
:103D8000482F440F480F440F455E2EED3CE061E1A3
:103D900087E795E0CF910F910C94522B0F931F93CF
:103DA000CF93DF931092F50105E0C091F501C33187
:103DB00060F50C9FE0011124C15BDB4F8881998184
:103DC0000E941D1B182F8093E9019093EA018A81BC
:103DD0009B810E943B1B8093E7019093E801EC815B
:103DE000F0E0EE0FFF1FE45CFE4F208131814CEECE
:103DF000480F6CEE610F87E795E00E94522B80918F
:103E0000F5018F5F8093F501D0CFDF91CF911F91A6
:103E10000F910895FF920F931F93CF93DF9310920A
:103E2000F501C7E0FC2EC091F501CF3008F040C08D
:103E3000FC9EE0011124C255DB4F888199810E94CC
:103E4000591B8C019093EA018093E9018A819B813F
:103E50000E946D1B9093E8018093E70104351105E2
:103E60000CF52C8130E0319521953109201731076F
:103E7000CCF480339105B4F42D8130E03195219557
:103E800031092817390774F4EE81F0E0EE0FFF1FB7
:103E9000E45EFE4F20813181482F602F87E795E057
:103EA0000E94522B8091F5018F5F8093F501BBCF6B
:103EB000DF91CF911F910F91FF900895DF92EF92C4
:103EC000FF920F931F93CF93DF931092F50109E0B8
:103ED000D02EE090F5018091E401E81608F057C07B
:103EE000F12CDE9CE001DF9CD00D1124C250DC4F90
:103EF000888199810E94591B8C019093EA018093DB
:103F0000E9018A819B810E946D1B9093E801809357
:103F1000E70104351105ACF52C8130E03195219590
:103F20003109201731076CF58033910554F52D8147
:103F300030E03195219531092817390714F52F8183
:103F400021110AC02885263038F0EE81F0E0EE0F0E
:103F5000FF1FE65FFE4F0DC0DE9CF001DF9CF00D01
:103F60001124E250FC4FE681F0E0EE0FFF1FE45E0B
:103F7000FE4F20813181482F602F87E795E00E9416
:103F8000522B8091F5018F5F8093F501A2CFDF91D5
:103F9000CF911F910F91FF90EF90DF900895DF92E6
:103FA000EF92FF920F931F93CF93DF931092F5013F
:103FB0003AE0D32EE090F5018091E501E81608F093
:103FC00057C0F12CDE9CE001DF9CD00D1124C45DB4
:103FD000DC4F888199810E94591B8C019093EA01E2
:103FE0008093E9018A819B810E946D1B9093E80177
:103FF0008093E70104351105ACF52C8130E0319553
:1040000021953109201731076CF58033910554F55E
:104010002D8130E03195219531092817390714F5A4
:104020002F8121110AC02885263038F0EE81F0E07A
:10403000EE0FFF1FE65FFE4F0DC0DE9CF001DF9C20
:10404000F00D1124E45DFC4FE681F0E0EE0FFF1F60
:10405000E45EFE4F20813181482F602F87E795E095
:104060000E94522B8091F5018F5F8093F501A2CFC2
:10407000DF91CF911F910F91FF90EF90DF90089506
:10408000CF92DF92EF92FF920F931F93CF93DF9324
:104090001092F5014CE0F42ECCEEDFEFE090F5014C
:1040A000F3E1FE1508F4CAC02E2D30E0F29EF001B7
:1040B000F39EF00D1124E45CFD4F878181110AC04D
:1040C0008085883038F0883108F0B2C08370823043
:1040D00009F0AEC0F29E8001F39E100D1124045C25
:1040E0001D4FF801808191810E94591B6C019093B2
:1040F000EA018093E901F801828193810E946D1B9E
:104100009093E8018093E701F8E6CF16D104ACF470
:10411000F8012481AE01421B51094C155D056CF478
:104120008434910554F42581FE01E21BF109E8175E
:10413000F9071CF48E2D0E9415156091E90170910C
:10414000EA01643571050CF073C0E091F501FE9E43
:10415000F0011124E45CFD4F848190E091958195FC
:104160009109861797070CF063C04091E7015091C1
:10417000E801403351050CF05BC0858190E09195DA
:1041800081959109841795070CF052C086818111A1
:1041900013C08781882359F082858250843020F4AF
:1041A000EE24E39400E005C021E53BE03DC0E12CB6
:1041B00001E021E53BE020C0828590E08830910558
:1041C000B8F5FC01E45BFF4F0C94A73A2091320153
:1041D0003091330129C0209134013091350124C040
:1041E00020913601309137011FC020913401309168
:1041F0003501EE24E39400E087E795E00E94D22B9E
:1042000017C02091320130913301F3CF20913A0150
:1042100030913B01EECF209138013091390104C03B
:1042200020913A0130913B0187E795E00E94522BA3
:104230008091F5018F5F8093F50130CFDF91CF91B1
:104240001F910F91FF90EF90DF90CF9008950F9303
:104250008091230581112BC0809126058B3039F583
:1042600060E087E795E00E94F12807E026E242E15E
:1042700068E187E795E00E947A2961E087E795E0A9
:104280000E94F12809E028E241E167E187E795E033
:104290000E94AB2989E18093800583E180938105A9
:1042A0006BEA71E087E795E00F910C94D9370F9195
:1042B00008950F9360E087E795E00E94F1280FE0F2
:1042C0002CE444E064E087E795E00E947A2961E00D
:1042D00087E795E00E94F12801E12AE443E063E0EA
:1042E00087E795E00E94AB2989E08093800585E00F
:1042F0008093810565EB71E087E795E00E94D937EF
:104300008091EC019091ED018A30910514F488E2DE
:1043100008C08436910514F1883E23E09207BCF46E
:104320008FE1809380058CE08093810568E671E0E1
:1043300087E795E00E94D9376091EC017091ED011B
:104340004AE050E087E795E00F910C949B3880316C
:10435000974214F48BE1E5CF87E1E3CF83E2E1CF2D
:104360001F93CF93DF9380911C058111A0C0809192
:104370001D0581119CC080911F05811198C08091FD
:10438000EF018823A9F0813009F091C0C091E601C6
:1043900080911705909118052091190530911A0503
:1043A00070912305A0912105B0E060E0D7E051C0F5
:1043B000C091E6018091170590911805209119058B
:1043C00030911A0570912305A0912105B0E060E0BD
:1043D000D7E06C1708F067C0D69FF0011124E255B2
:1043E000FB4F408151814817590734F51481410F23
:1043F000511D8417950704F54281538142175307D5
:10440000DCF4E5814E0F511D24173507ACF4623002
:1044100069F028F4662341F0613061F00DC063302B
:1044200049F0643019F008C0713310F0AD3120F458
:10443000B1E002C07133E0F36F5FCBCFD69FF001E4
:104440001124E255FB4F408151814817590724F050
:104450006F5F6C1798F327C01481410F511D8417AB
:104460009507B4F742815381421753078CF7E581D2
:104470004E0F511D241735075CF7623069F028F4A0
:10448000662341F0613061F0E3CF633049F064307E
:1044900019F0DECF713310F0AD31D0F6B1E0D8CFE6
:1044A0007133E0F3D5CFB0931F056093F501809190
:1044B0001F05813009F016C180911E05811112C1BE
:1044C0008091EF018823A9F0813009F00BC1C091E0
:1044D000E6018091170590911805209119053091FA
:1044E0001A057091230560912105B1E0A0E0D7E0A5
:1044F000BCC01092F501C7E04091F5018091E60142
:10450000481708F0EFC08091170590911805C49FD7
:10451000F0011124E255FB4F208131812817390722
:104520000CF092C05481250F311D821793070CF0B7
:104530008BC08091190590911A052281338128172B
:1045400039070CF081C05581250F311D8217930763
:104550000CF07AC0423009F457C028F4442349F0E3
:104560004130D1F171C04330B9F1443009F44CC04D
:104570006BC09091EB018091E501981303C00E94FC
:10458000592162C09091230580912105923329F42D
:104590008E3141F410921F0557C0923318F49F5F7B
:1045A000909323058E3118F48F5F809321058091BD
:1045B0002305823309F048C0809121058E3109F02E
:1045C00043C08091EC019091ED01883E23E0920779
:1045D00084F18052934034C0809123058233D1F21C
:1045E000823318F48F5F80932305809123058233F3
:1045F00059F58091EC019091ED018E3E22E09207F9
:10460000C4F08E5E92401CC0809121058E3111F263
:104610008E3118F48F5F80932105809121058E31B2
:1046200099F48091EC019091ED018E3E22E0920789
:104630002CF41092ED011092EC0106C086599109FC
:104640009093ED018093EC018091F5018F5F809351
:10465000F50152CFDA9FF0011124E255FB4F408162
:1046600051814817590724F0AF5FAC1798F332C057
:104670001481410F511D84179507B4F7428153816E
:10468000421753078CF7E5814E0F511D241735074C
:104690005CF7A230B9F028F4AA2341F0A13061F010
:1046A000E3CFA33049F0A43069F0DECF723351F08C
:1046B000723350F47F5F08C0723351F07233A0F64A
:1046C0007F5FD2CF6E3121F06E3170F66F5FCCCF4D
:1046D000B0E0CACF7093230560932105B0931F0506
:1046E000A093F501DF91CF911F9108950F93882337
:1046F00031F0813061F400E020E04AE003C000E0E6
:1047000020E043E060E08EE495E00E94DE3200E0CD
:1047100020E041E061E08EE495E00E94DE3229EF86
:1047200040E062E08EE495E00E94DE3228EF40E057
:1047300063E08EE495E00E94DE3220E043E061E138
:104740008EE495E00F910C940F33EF920F93CF937B
:1047500080912005813009F04AC180E00E947623D3
:1047600080911705909118050E94031BC82F482FB0
:1047700050E05093EA014093E9018091190590912E
:104780001A050E94101BE82FF0E0F093E801E09377
:10479000E70140911B05552747FD5095652F752F63
:1047A0004830510508F023C1FA01EC5AFF4F9091AF
:1047B000F10193700C94A73A91110DC020E12C0FD8
:1047C00090911E05482F491B66E06C0F082F87E764
:1047D00095E00E94F9282091F1018BEA289F812D14
:1047E00011248695982F990F980F291B8AE0289FEE
:1047F000900111242F5F334F4091E70144506091A5
:10480000E901645FEDC091110FC005E0080F28E0D9
:104810002C0F90911E05482F491B4F5F63E06C0FD2
:1048200087E795E00E94F9288091F10163E00E94FA
:10483000323A8AE0989F900111242F5F334F4091C4
:10484000E7014F5FCAC091110CC008E0080F9091BA
:104850001E05482F491B2C2F6C2F87E795E00E94DF
:10486000F9288091F10163E00E94323A8AE0989F32
:10487000900111242F5F334F4091E7014C5F60910D
:10488000E9016450ADC091110FC005E0080F28EF99
:104890002C0F90911E05482F491B4F5F6DEF6C0F39
:1048A00087E795E00E94F9288091F10163E00E947A
:1048B000323A8AE0989F900111242F5F334F409144
:1048C000E7014F5F40C091110DC020EF2C0F909178
:1048D0001E05482F491B6AEF6C0F082F87E795E0EC
:1048E0000E94F9288091F10163E00E94323A8AE047
:1048F000989F900111242F5F334F4091E70144505E
:104900006091E901645142C091110FC00BEF080F93
:1049100028EF2C0F90911E05482F491B42506BEF3A
:104920006C0F87E795E00E94F9288091F10163E020
:104930000E94323A8AE0989F900111242F5F334FF2
:104940004091E70149506091E9016C501FC09111FD
:104950000CC008EF080F90911E05482F491B2C2F03
:104960006C2F87E795E00E94F9288091F10163E0C0
:104970000E94323A8AE0989F900111242F5F334FB2
:104980004091E7014C506091E9016450EE24E394BA
:1049900000E087E795E00E94D22B29C091110FC05B
:1049A0000BEF080F28E02C0F90911E05482F491B94
:1049B000425065E06C0F87E795E00E94F9288091EE
:1049C000F10163E00E94323A8AE0989F900111243D
:1049D0002F5F334F4091E70149506091E9016C5FCF
:1049E00087E795E0CF910F91EF900C94522BCF91E8
:1049F0000F91EF900895EF92FF920F931F93CF9333
:104A0000DF931092F50117E0E091F501EA3008F02C
:104A10003FC01E9FF0011124EA50FE4F868188237B
:104A200089F1813019F480E00E947623C091F5016C
:104A30001C9FE0011124CA50DE4F89819A810E9497
:104A4000591B7C019093EA018093E9018B819C8141
:104A50000E946D1B9093E8018093E701970121501C
:104A600031092335310570F49C01215031092F3271
:104A7000310540F402E022E0482F6E2D87E795E0F3
:104A80000E947A298091F5018F5F8093F501BCCF58
:104A9000DF91CF911F910F91FF90EF900895AF920A
:104AA000BF92DF92EF92FF920F931F93CF93DF930A
:104AB0001F92CDB7DEB7809124058130A1F580919A
:104AC0001E05811130C0809126058B3060F581E094
:104AD0000E94762380911705909118050E94031B70
:104AE000082F10E0025011091093EA010093E90128
:104AF0008091190590911A050E94101B482F50E0D3
:104B00004A5051095093E8014093E701209126054E
:104B10008EE0289F90011124275A344F602F87E799
:104B200095E00E94522B1092F5011AE00EE0E09100
:104B3000F5018091E501E81708F03FC01E9FF001E4
:104B40001124E45DFC4F8781811131C080858C3058
:104B500070F581E00E9476238091F501189F700125
:104B60001124F701E45DFC4F7F01808191810E9457
:104B7000591B682F8093E9019093EA01F701828124
:104B8000938169830E946D1BAC014450510950937D
:104B9000E8014093E701F7012085029F900111246D
:104BA000275A344F698187E795E00E94522B809104
:104BB000F5018F5F8093F501BACF1092F50119E0EE
:104BC0000EE0E091F5018091E401E81708F040C0A3
:104BD0001E9FF0011124E250FC4F8781811132C0E9
:104BE00080858C3078F581E00E9476238091F501F4
:104BF000189F70011124C70182509C4F7C01FC0159
:104C0000808191810E94591B682F8093E9019093C4
:104C1000EA01F7018281938169830E946D1BAC01D7
:104C2000445051095093E8014093E701F701208572
:104C3000029F90011124275A344F698187E795E03C
:104C40000E94522B8091F5018F5F8093F501B9CFBF
:104C50008091EE01882309F464C01092F5015CE0B4
:104C6000F52E6AE0E62E7EE0D72E8091F5018431A4
:104C700008F057C090E0F89E8001F99E100D1124B5
:104C8000045C1D4FF8012781211145C020852C307F
:104C900008F041C0E89E5001E99EB00C1124C50106
:104CA000845D9C4F5C01FC01808191810E94591BB5
:104CB000F5012481820F911D04979093EA0180935E
:104CC000E901828193810E946D1BF5012581820F8C
:104CD000911D06979093E8018093E701F801868182
:104CE0008130C9F40E947623E091F501FE9EF00127
:104CF0001124E45CFD4F2085D29E90011124275A97
:104D0000344F4091E70143506091E9016B5F87E7C1
:104D100095E00E94522B8091F5018F5F8093F50101
:104D2000A4CF0F90DF91CF911F910F91FF90EF9043
:104D3000DF90BF90AF90089589E295E00E94562FD2
:104D40008823D1F18091F001813019F0823029F06F
:104D500008950E941A1E0C945E130E940A1F0E945E
:104D60005E1F0E94CF1F8091EE0181110E944020A2
:104D70000E94CE1E0E94A5230E94FB240E94901D2B
:104D80000E94171C0E944F250E9427210E94B021DB
:104D90000E945E130E9480190E94B0190E949D1803
:104DA0000E94E21A0E94A6150E94811B8091EE01CA
:104DB000823011F40C94FA18089510927A0510922A
:104DC00079058AEC91E090937805809377050895B2
:104DD000CF93CFB7F8948091AF05811127C0E3E559
:104DE000F1E18491EFE3F1E19491E82FF0E0EE0F2F
:104DF000FF1FEF58FE4EA591B4918C91892321F4A9
:104E000061E08AE00E94073761E08AE00E94CE36C6
:104E10008CB580618CBD8CB580648CBD61E08DE00B
:104E20000E94CE3661E08BE00E94CE368091AF05C5
:104E30008F5F8093AF05CFBFCF91089521E0FC0134
:104E40002083089570E085E00C944636AF92BF92BF
:104E5000CF92DF92EF92FF920F931F93CF93DF9346
:104E6000EC0189819A812FE0289F8001299F100DF4
:104E7000112485E10E942936800F911F24E0969528
:104E800087952A95E1F79A8389832881222391F1D6
:104E9000AC81AD80B12CC12CD12CE885F9857F0186
:104EA00000E010E06E817F819B0140E050E08617BA
:104EB000970728F0BC01E817F90708F4BF0180E064
:104EC00090E01F921F921F92AF930E94BD386B8398
:104ED0000F900F900F900F9070E085E0DF91CF91D1
:104EE0001F910F91FF90EF90DF90CF90BF90AF9008
:104EF0000C944636DF91CF911F910F91FF90EF9068
:104F0000DF90CF90BF90AF900895FC018CE39FE0BD
:104F10009383828384E0818381E084870895CF93A3
:104F2000DF93EC018C858F7151F584E10E94293665
:104F3000BC01882777FD8095982F0E94333926EE93
:104F40003FE34EEC50E40E94BF390E9405399B01BB
:104F50007B836A836115710581F084E08983FE019A
:104F600040E0848195812817390710F449830AC0ED
:104F70004F5F32964430A9F702C08FEF89838C854A
:104F80008F5F8C87DF91CF910895FC0188E080834B
:104F900089E0818387E0828386E0838384E0848361
:104FA00082E0858381E186830895DF92EF92FF920C
:104FB0000F931F93CF93DF937C01EC0100E010E08F
:104FC000DD24DA9462E088810E94CE3688810E94D6
:104FD0003D37F701E00FF11F892B21F487818F5FA7
:104FE000878308C08781882349F08F3F11F4178297
:104FF00001C0D78260E088810E94CE360F5F1F4FCC
:10500000219607301105F1F6DF91CF911F910F9195
:10501000FF90EF90DF900895FC01E60FF11D81E015
:105020009781913009F080E00895262F30E0FC014F
:10503000E20FF31F8781423028F481508E3F48F001
:1050400080E008958F3FE1F3642F0E94323A91305F
:10505000B9F781E008958EBD00000DB407FEFDCFC5
:105060008EB50895643508F047C0403308F044C059
:10507000FC01878D242F259525952595E62FFF2763
:10508000E7FDF0954770823091F4DF01A055BA4FEB
:1050900084E52802A00DB11D11248C9190E0042E0E
:1050A00002C0959587950A94E2F7809581708111E9
:1050B00012C084E52802E00DF11D1124E055FA4FDD
:1050C00081E090E0042E01C0880F0A94EAF78095F1
:1050D0009081982310C084E52802E00DF11D112471
:1050E000E055FA4F81E090E0042E01C0880F0A9449
:1050F000EAF79081982B908308951F93CF93DF93C5
:10510000EC01162FF89460E08E850E9407378F859A
:1051100018161CF460E00E940737812F0E942B288C
:105120008F8518161CF461E00E9407377894DF9190
:10513000CF911F91089528EF31E0E0EBF5E0DF011A
:10514000A9011D9241505040E1F7DC0119961C92D3
:1051500019971A961C920895DF92EF92FF920F937F
:105160001F93CF93DF93EC0180EBE82E85E0F82EC0
:10517000D12C6D2D6064CE010E947D2860E8CE01A7
:105180000E947D2861E08E850E9407378F85181662
:105190001CF460E00E94073700E010E0F701E00F28
:1051A000F11F80810E942B280F5F1F4F04351105CE
:1051B000A9F78F8518161CF461E00E940737D39475
:1051C00084E5E80EF11C86E0D812D3CF60E4CE016E
:1051D000DF91CF911F910F91FF90EF90DF900C9492
:1051E0007D28FC01678F60A30895FC01678F40A3B1
:1051F0000895AF92BF92CF92DF92EF92FF920F93FA
:105200001F93CF93DF93EC01162FF42EE22EA02FE5
:10521000BB27A7FDB095A41BB10947FDB395B7FF08
:1052200003C0B195A195B109EE2DFF27E7FDF095DB
:10523000E11BF10917FDF395F7FF03C0F195E19527
:10524000F109BB24B394EA17FB0714F0B12C06C094
:105250008E2DE02E082F812F1F2DF82EE11634F40D
:105260008F2DF02E082F812F1E2DE82ECE2CC11A47
:10527000E02FFF27E7FDF095EF19F109F7FCF39513
:10528000F7FF03C0F195E195F109AE2EDC2CC7FEC6
:1052900003C0DD24D394DC0CD594F01614F401E0A3
:1052A0000FC00FEF0DC0BB2071F0412F6F2DCE014D
:1052B0000E943228DA18D7FE02C0F00EDC0C1F5F05
:1052C000E1168CF703C04F2D612FF1CFDF91CF9105
:1052D0001F910F91FF90EF90DF90CF90BF90AF9014
:1052E00008950F93022F0150040F262F0E94F928D2
:1052F0000F910895DF92EF92FF920F931F93CF9338
:10530000DF937C01D42E162FC22FDD27C7FDD09549
:10531000C60FD11D67FDDA95812F992787FD9095DE
:105320008C179D0744F4202F4D2D612FC7010E943B
:1053300071291F5FF1CFDF91CF911F910F91FF90E6
:10534000EF90DF9008950F932150260F042F0E94B5
:10535000F9280F910895EF92FF920F931F93CF9327
:10536000DF93EC01F62E142FE22E0E94A3294FEFBB
:10537000400F410F2E2D6F2DCE010E94A329202F0B
:10538000412F6F2DCE010E9471296FEF6E0D6F0DB1
:10539000202F412FCE01DF91CF911F910F91FF90D0
:1053A000EF900C9471298F929F92AF92BF92CF92FF
:1053B000DF92EF92FF920F931F93CF93DF93EC0155
:1053C000E62ED42E122FCC24C394C21AB22EB1943E
:1053D000BB0CF12C802F8470A82E802F8270982E09
:1053E000802F8870882E0170F1160CF04DC0C7FC1C
:1053F00004C01150B394B394CB0CF3948F2D880F49
:105400008F5FC80EAA2071F0412F4D0D6F2D6E0DCC
:10541000CE010E9432284F2D4D0D612F6E0DCE0111
:105420000E943228992071F04D2D411B6F2D6E0D79
:10543000CE010E9432284D2D4F19612F6E0DCE01E5
:105440000E943228882071F04F2D4D0D6E2D611B6A
:10545000CE010E943228412F4D0D6E2D6F19CE01C5
:105460000E943228002309F4BFCF4D2D4F196E2D15
:10547000611BCE010E9432284D2D411B6E2D6F19EC
:10548000CE010E943228B0CFDF91CF911F910F91B2
:10549000FF90EF90DF90CF90BF90AF909F908F9054
:1054A00008958F929F92AF92BF92CF92DF92EF9228
:1054B000FF920F931F93CF93DF93EC01B62EA42E90
:1054C000122FDD24D394D21AC22EC194CC0CFF2407
:1054D000F394802F8170882E992493949E0C0270EF
:1054E0008FEF8F0D8117C4F5D7FC04C01150C39402
:1054F000C394DC0C8F2D880F8F5FD80E882099F015
:10550000212F220F290D4A2D411B6F2D6B0DCE012E
:105510000E94712923E02E0D4A2D4F19612F6B0D2A
:10552000CE010E947129002399F0212F220F290D0D
:105530004A2D411B6B2D6F19CE010E94712923E06A
:105540002E0D4A2D4F196B2D611BCE010E94712922
:10555000F394E394E394C4CFDF91CF911F910F9123
:10556000FF90EF90DF90CF90BF90AF909F908F9083
:1055700008959F92AF92BF92CF92DF92EF92FF92E7
:105580000F931F93CF93DF93EC01B62EF42EA22E30
:10559000DE2CD194DD0C9D2C920E1E2D160F292D84
:1055A000612F0E94A329CC24CA94C00ECF0C292DB0
:1055B0004C2D612FCE010E94A329D00EFE0C2D2D63
:1055C0004F2D6B2DCE010E947129BA0C6FEF6B0D20
:1055D0002D2D4F2DCE010E94712901E02E2D4F2D32
:1055E000612FCE010E94D329DE2CD094DB0C02E087
:1055F0002E2D4F2D6D2DCE010E94D329CE1804E003
:105600002E2D4C2D6D2DCE010E94D32908E02E2D7C
:105610004C2D612FCE010E94D329DF91CF911F9194
:105620000F91FF90EF90DF90CF90BF90AF909F9041
:105630000895AF92BF92CF92DF92EF92FF920F93B5
:105640001F93CF93DF93EC01A62EC42EB22EF02E23
:105650001E2DE194EE0CD12ED60E2E2D2B0D6D2D80
:105660000E947A29FA94FE0CC10E6FEF6A0D6B0D41
:10567000611BEF2C01E0212F4C2DCE010E94512AFD
:1056800002E0212F4C2D6D2DCE010E94512ADF9179
:10569000CF911F910F91FF90EF90DF90CF90BF902F
:1056A000AF9008952F923F924F925F926F927F92A8
:1056B0008F929F92AF92BF92CF92DF92EF92FF9222
:1056C0000F931F93CF93DF931F92CDB7DEB78C015B
:1056D000862E942EF9017490319664907901F2E04F
:1056E000EF0EF11C872D992787FD9095DC01179609
:1056F000B7FD17966D0193E0D594C7949A95E1F79D
:10570000212C312C512C20E8A22EB12C5614B4F5AA
:1057100020E0452C490C27156CF5822F27FF02C08D
:1057200087E0820F859585958595F101E80FF11D3C
:1057300087FDFA95EE0DFF1DE491F0E0A22FA7780A
:10574000A7FF03C0A150A86FAF5FC50102C0959528
:105750008795AA95E2F7DC01AE23BF23AB2B41F07E
:10576000442D622F680DC80129830E9432282981A7
:105770002F5FD1CF53942C0C3D1CC8CF0F90DF91DD
:10578000CF911F910F91FF90EF90DF90CF90BF903E
:10579000AF909F908F907F906F905F904F903F90D1
:1057A0002F9008952F923F924F925F926F927F9227
:1057B0008F929F92AF92BF92CF92DF92EF92FF9221
:1057C0000F931F93CF93DF9300D000D000D0CDB7BD
:1057D000DEB76C01762E642E01111CC0E1101AC0D8
:1057E00026960FB6F894DEBF0FBECDBFDF91CF91E6
:1057F0001F910F91FF90EF90DF90CF90BF90AF90EF
:105800009F908F907F906F905F904F903F902F90E0
:105810000C94522BF9014490319624905901F2E0F6
:10582000AF0EB11C302F3370842D992787FD9095D2
:105830004C0127E0820E911C97FE04C04C01EEE063
:105840008E0E911C43E0959487944A95E1F733249A
:105850003A94320C1E821D82F12C5FEF540D00E849
:1058600010E0F2140CF064C0552E20E024150CF06A
:1058700056C0822F27FF02C087E0820F859585954D
:105880008595ED81FE81E80FF11D87FDFA95EA0D02
:10589000FB1DE491F0E0A22FA778A7FF03C0A15061
:1058A000A86FAF5FC80102C095958795AA95E2F7EA
:1058B000DC01AE23BF23AB2B79F1323039F033302A
:1058C00041F0313049F4452D6F2D08C0652D432D31
:1058D00005C0632D422F02C04F2D622FEE2069F0CC
:1058E0007E2D7370E0FE03C0942D961B692FE1FEA0
:1058F00005C0E22DE41B4E2F01C070E0670D460D80
:10590000C6012A833B835C8379830E943228798194
:10591000E72E5C813B812A812F5F5A94A7CFF394B5
:105920008D819E81880D991D9E838D833A9499CF98
:1059300026960FB6F894DEBF0FBECDBFDF91CF9194
:105940001F910F91FF90EF90DF90CF90BF90AF909D
:105950009F908F907F906F905F904F903F902F908F
:105960000895DC01FB0184918F5F14968C9314974A
:105970003196E491EF5F1596EC9315976E5F7F4F2C
:105980005E967C936E935D970895EF920F93CF93FD
:10599000DF93EC014D876C872E87E88A0F8781E0C3
:1059A00088878F8F18A28F8369E47EE0CE010E94E2
:1059B000B12C0E94E8268CB58F7D8CBD8CB58C7F78
:1059C00081608CBD8DB581608DBD8CB58C608CBDCA
:1059D00061E08D850E94CE3661E08C850E94CE36D6
:1059E00061E08E850E94CE36888918161CF461E02D
:1059F0000E94CE368F8518161CF461E00E94CE36C8
:105A0000888918166CF460E00E9407376AE070E03D
:105A100080E090E00E94C63561E088890E940737E7
:105A20008C85992787FD9095FC01E75BFE4EE491FC
:105A3000F0E0EE0FFF1FE959FE4E259134913C8BAB
:105A40002B8BFC01EB5CFE4E84918A8F8D85992710
:105A500087FD9095FC01E75BFE4EE491F0E0EE0FD0
:105A6000FF1FE959FE4E259134913A8B298BFC0199
:105A7000EB5CFE4E8491898F8F85992787FD9095E9
:105A8000FC01E75BFE4EE491F0E0EE0FFF1FE959E9
:105A9000FE4E259134913E8B2D8BFC01EB5CFE4E2E
:105AA00084918B8F8E85992787FD9095FC01E75B0C
:105AB000FE4EE491F0E0EE0FFF1FE959FE4E2591F6
:105AC0003491388F2F8BFC01EB5CFE4E84918C8FD0
:105AD00061E2CE010E947D2864E1CE010E947D2812
