:100000000C944D080C9475080C9475080C947508A4
:100010000C9475080C9475080C9475080C9475086C
:100020000C9475080C9475080C9475080C94E934BC
:100030000C9475080C9475080C9475080C9475084C
:100040000C9446350C9475080C9475080C9475083E
:100050000C9475080C9475080C9475080C9475082C
:100060000C9475080C947508551260126B12761278
:10007000861293129E12A912AB15AE15B115B815C2
:10008000C115C815CB15D215A818CA18EC18101927
:1000900035195A197D19A11906220B221022152291
:1000A000212226222B223022B022D722F722172308
:1000B000372358237B23A223100E0218023002603C
:1000C00007C00A7E163F103D10793FF37FE6FFCC54
:1000D000FF98FFF071C0100E008000800FF81F7CA9
:1000E0001F7C1E3C1C5C1C5C1E3C1FFC1FFC1FFC80
:1000F00013E41E3C100E02003FF83DF83C783838FF
:10010000383839383D783EF83EF83EF83EF827C892
:100110003C78100E02000200020003E0FE10FC0812
:10012000BC689E38CFEC67F633FB19FF0FFF038ED8
:10013000100E080008000980067F0820383C3FFEAA
:100140003FFE3FFE200215540FF800000000080A91
:1001500000000020704468D47AFE080A7CFE447CCB
:100160007C446C546C4420200000000006000050C9
:1001700009000212055C01000914000071AA400C7C
:1001800041550A207EFF8104558040125091200085
:10019000519521E44A911AB84D800D506EFFFABE78
:1001A000160187565A0362BC9701C1501A813AB0B2
:1001B000158003503EFE0EF80155F50401AAAB244C
:1001C0000F57D51435F7FF286B1F8148D519E1E487
:1001D000AB3FF15CD563D124791FD14449F7FF24AB
:1001E000C11401147F0C01FC2020080000203E00F7
:1001F00000F84900012441FFFF04E155550E41AAD2
:10020000AB04415555047EFFFEFC558003545A91C2
:1002100012B4559113545A9112B4558003547AFF75
:10022000FEBC158003501A8002B0158003501A805E
:1002300002B0158003503EFFFEF84155550441AA17
:10024000AB04E155550E41FFFF04490001247F0F27
:10025000E1FC4917D1244117D1044917D12449FFA2
:10026000FF24410001047F0001FC48290000000038
:1002700000000000000A0000000520000000060049
:10028000000018B000092404200000086014049243
:100290000414000006400809242678000002C0006B
:1002A00005963BC02800038040092C0F80100003F6
:1002B000804404920300000003815509FC03000000
:1002C000000380FF8DFA0300000200008109240072
:1002D000000006000CAD049E0000000A0002AD0FF5
:1002E000260002101AA800A26C9200412012AA1047
:1002F000FC092400195823FF060200000906002A01
:10030000022480000000BFE46ADA0000000000E080
:1003100020EADA0000000001A431AA028000000AED
:10032000283FEAFFFE40000004106180400000000A
:100330000000008C461404002060000005109002AC
:1003400000326800001081E3C0002DFC00001000A6
:100350008420282022080330800BD0102DAF1001FC
:10036000E4800BD0002DAE800187800C30002C2E55
:100370009C01C3000BD001BFFF8000E600042141B7
:10038000000000007E0003C3C0008058003C014014
:1003900007E006608A003C008007F0480286003CC7
:1003A00000000208800184003C0000029E0000CC96
:1003B000003E000001AA000068145500002282805F
:1003C00014380800000073FE200830000000000010
:1003D0000000003000000000000000000048290E6E
:1003E0000000080FE00000001BC0001C15500000BA
:1003F00000157000082AB00009242AA8000835500A
:100400001404925558001C2AB00809246AAC001C38
:1004100015500004923554283E0FE07E09241AB886
:10042000103E0380FF049207C0007F0381FF8924F0
:100430000300007F0381FF849203000022000081FB
:100440000924001E00220000AD0492003F002A0093
:1004500000AD09240073802BFC00A10492006DE024
:1004600023FE00FF0924002DF023FF000000000000
:1004700020202A0200000000002DA02ADA001FC060
:1004800000002DB02ADA003FE000002C282A0200EC
:100490007FF00A283FF43FFE007FF00410000000C8
:1004A00000002020000000000000002DA000007CC3
:1004B000000000002DBF8001AA0003C000203FC043
:1004C0000155800420282020C002AA800BD0102DC6
:1004D000AE800355400BD0002DAE8002AAC00C3078
:1004E000002C2E800355400BD0003FFFB802AAC05D
:1004F0000421FC00005601558003C3FE0001AB003F
:10050000FF014007FF000155003C008007FF00028B
:10051000AB003C00000202000355003C000002BAA0
:100520000002AB003E000002BA0001561455000064
:1005300002820014FC0800000003FE0008300000E6
:10054000000000000000300000000000000000007B
:10055000482980000000000007F8FF000007C000E5
:10056000000110110080046000000FFCFF100985DD
:10057000E0000011101108812570004010000100FA
:1005800000051820E01280013000078C2040128006
:1005900028025864EC20E013C02803FFFD7C206192
:1005A00013C07826C1643C00601140786630758CB9
:1005B00020E01060510E98258420E40000C1420024
:1005C000E58420E210000107FFE7FC20E00782003D
:1005D00015000000006011C3C100020000000017F8
:1005E00080F100096400000011E1C1080000000072
:1005F000001020F10C02001E000010000108008015
:100600002100000F9C3F0C00005E80000150110C87
:1006100000005E80033FFE1F1C000061800011117E
:10062000111C00005E80000000001C000021000082
:100630000000001C1C1E1E00000000001C222200E6
:1006400000000000000C5FFB00000000000000A79D
:10065000E500000002000000A6E20000001E00000D
:1006600000FE3C0000003E0000008388010600669A
:10067000102000A2A8010001EE3010088038000010
:10068000039E003000337E70000372007806BB7951
:10069000502003CA009410B0FF49589B8261320079
:1006A000FFF831EF02C2003A00000007D582C21CF9
:1006B0003810080026C682C2061800000003FF0397
:1006C000FE001848298000000000001FFFFF03FF04
:1006D000E7FC00001111110200240600181FFFFFA3
:1006E00002FFA5F500EE1111110280A516C15510EB
:1006F000C0010280A51562AA90500D03FFE7FEA578
:10070000555078290200240566ACD0787902AAA554
:1007100056A57450287902002405666C10285102F1
:10072000CC2584E5A410005102CC258420A0100023
:100730000102C0258420A010330103FFE7FC20A0A4
:1007400010A14100000000006011E1E10300000081
:10075000000011E1E11DC0000000001140A12AB01D
:10076000000000001140A15550001E0000100001C3
:10077000AAA8802100001FFFFFD598005E8000110D
:100780001111AE88005E80001FFFFFCD80006180E8
:10079000001111119480005E800000000014000020
:1007A00021000000000014FFFE1E000000000014E5
:1007B00080020000000000000CBFFF0000000000ED
:1007C0000000A00103FE03FE00C000A0010202021F
:1007D0000203B800FFFF02FB8EFA055400800902F5
:1007E0008B768A0AAA00AAAF028AAA8A15550080C7
:1007F0000903FF57FE19AB00B30F0202AA021175DD
:1008000000B30902AB56AA01B300B00F0203AE0257
:10081000012900FFF802C272C2002800000002C2D3
:1008200002C2002800080002C202C2002800000024
:1008300003FE03FE00301016101010105410AA0012
:1008400054008A8814449280500E0000000000007A
:1008500000400000400020141080000012008A12A6
:100860008290ECFE10161010383854549292AAAAB6
:10087000C6C692929292FEFE0000000000000000A8
:100880001010383854549292AAAAC6C68282828224
:10089000FEFE28180000C000000003B8000000059C
:1008A000540000000AAA000000155500000019AB12
:1008B000000000117500000801B300000A012900C2
:1008C000002C402800001C502800000000280000D8
:1008D0003FFE3000005555C0FC00AAAAA14200D539
:1008E0005562A1006AFAA490801F07CC9FC0003017
:1008F00017F4A00114000000039E000000011E0078
:100900000000028A000000000A000000201A03E034
:1009100000000C180000100400002202000040112A
:1009200000004001000083E08000AC1880009004CB
:10093000BF80AFFABD80D7F5BC80D7F5BB8097F4F8
:10094000A78097F4B78097F4BF80FFFFA0800000D6
:1009500000000000000000060000038800000250B4
:10096000000002600000FFBC7000B032E000C84A26
:100970007000CFCCE000201D003F800000D540007B
:100980001FABE00075D60000AABC0000DD6B0000C4
:10099000A7D58000CB7EC00095403FFC1D404002A3
:1009A0000B40FFFF0D4090090940A5690280B54941
:1009B0000280A6250480FFFF0786400200694EFAE8
:1009C000009F4EAA00E54EFA00BD4E0260A57FFED4
:1009D00096660000F9180E38A7000B2CBD000EBA61
:1009E000A5000F3C66000E3818000000180F01F03B
:1009F0000003F80007FC000208003E4F807EAFC0F5
:100A0000FC47E04000405CE74054E5405CE7404084
:100A1000E04043F8407C07C007FC001009AAA8008A
:100A2000008D880D808F880D808D880000AAA80613
:100A300006E0E05CF0E0A010090C001E0017002B9F
:100A40008037E06BF0D5F8AAFCFFFC080C04048C9E
:100A5000A8F8606870206070F80808020040040080
:100A6000200400080910181858DAFB7F1E18080522
:100A70002592623C10080C000000000000000000FD
:100A8000001C2A080C0000000000000000001C3EB2
:100A90003E080C00000000000000003E7F7F7F0841
:100AA0000C0000000000003E7F7F7F7F1C080C00D0
:100AB0000000003E7F7F7F7F1C1C3E080C00003E34
:100AC0007F7F7F7F1C08081C3E080C003E7F7F7FD5
:100AD0007F00000000081C080C001C3E7F7F3600D1
:100AE0000000000008080C00001C3E36000000005A
:100AF000000000080C0000081C00000000000000BE
:100B000000080C00000008000000000000000008C1
:100B10000C000000000000000000000000080800B9
:100B200000000000081C0008080000000008221453
:100B3000000808000000002208440010071C003EC6
:100B4000003E00FF80BE801C0022000F071C003EFC
:100B5000003600F380BE801C0022000F071C00221C
:100B6000002200F780BE801C0022001009007803DC
:100B7000F807FE03FC07F80DC0580078003000109D
:100B800009007802F805F203FC07F80DC058006868
:100B9000003000100E8000C000C000E0007000189F
:100BA000000E000F000F80FFE07FF037D81BC00160
:100BB000C0100E8000C000C000A000700018000E21
:100BC000000F000F80FE607E70274813C001C01028
:100BD000068040C1F0FFF847FC03FE01FE100680CE
:100BE00040C1F0BFE847E4033A01FE08050050A801
:100BF00050000F03007003801C000F030000FFFE75
:100C000000000F031C00038000700F03010003802D
:100C100001002804DBFFC5FFE0FA00490020720054
:100C20004D002023FFC9FFE0482300000000000022
:100C3000000000000000001800000001000000009B
:100C400007C000003E00000000007C0201E0000040
:100C500000000007F27F000000000000003DE000FF
:100C6000008020000003DFDF00011B36C0001E02F1
:100C700001E0012AA48001F007003E00B3128007C2
:100C80000002000100020000180007000000000040
:100C90000000000D800000005000000018C000009F
:100CA000501000000018C000009B558000003FE07D
:100CB00000005259000000EFB800008A5480000183
:100CC000EFBC00000000000001FFFC00000000007D
:100CD0000001FFFC000000800000FFFFFFF807FBA1
:100CE000EFF0007FFFFFF00001C00000221FC220D4
:100CF00000794F0000771FC7700000000000720FDE
:100D00008270000000000035070560000000000050
:100D100000FFF8000000000000007FF0000000006D
:100D200000000002000000000000000002000000BF
:100D300000000000000000000000000000000000B3
:100D400000008000000000000000010000210002FF
:100D5000000400C56310A1444420C502FFFFFFFF4B
:100D6000FFFFFFFFFF03053F213F1208120A100A91
:100D70000E1C0E0C1E0C141A14161F161E131E1E0B
:100D80001B1E1E1F1E3F213F3A2F3A173D173F21C2
:100D90003F181F02040A041F0E04040E1F0A1F0A34
:100DA0000E0E1F04110E2E252E2F2A2E2629290263
:100DB0001F02081F08150E04040E150E15151B152D
:100DC0001B040604040C04000000001700030003C9
:100DD0001F0A1F16371A1904130A153A00030000D8
:100DE0000E11110E000A040A040E0400300004045F
:100DF000040010001804031F111F121F101D1517E7
:100E000011151F07041F17151D1F151D01011F1F99
:100E1000151F17151F000A00003200040A110A0AE4
:100E20000A110A040115020E11171E051E1F150ACC
:100E30000E110A1F110E1F15111F05010E111D1F86
:100E4000041F111F1108100F1F041B1F10101F0675
:100E50001F1E040F0E110E1F09060E112E1F051A5C
:100E6000121509011F011F101F0F180F1F0C1F1B48
:100E7000041B031C03191513001F11030418111F71
:100E8000000201022020200001020C121E1F120C81
:100E90000C12120C121F0C1A14041E05242A1E1FF9
:100EA000021C141D1020201D1F0814111F101E04E9
:100EB0001E1E021C0C120C3E0A040C123E1E0402E2
:100EC00014160A020F120E101E0E100E1E081E120D
:100ED0000C1226281E322A26041E21001F00211E65
:100EE000040102013F213F0A4E6F205344206361F9
:100EF0007264206F720A6E6F204C4F414445522E2F
:100F00004845580A0A153A45786974001D20466C10
:100F1000617368696E670A20206C6F616465722E68
:100F20002E2E0A0A444F4E2754205455524E204F1D
:100F3000464621006D560A0A504C454153450A5415
:100F400055524E204F4646004C4F57204241545474
:100F50004552590A0017534400161378001613140B
:100F600000151020001520100000540A03E18186AE
:100F70007F3E186D830F0F0E0183866033186DC39B
:100F8000198F1803C38E6033186DE330CF1803C375
:100F90009E603630CDE360CF3006C79E7E3E30CDBA
:100FA000B360CF300CC6F6603330D9B660CF33CFE4
:100FB000CCF66061B0DB1E60CF30D86CE6C061B0AB
:100FC000DB1E618F19986CC6C063B19B0E330F0F87
:100FD000B078C6FF7E1F1B061E0F05008930080271
:100FE0003802497868140000F6E8DBCFC3B8AEA435
:100FF0009B928A827B746E68625C57524E4945416F
:101000003E3A3734312E2C29272523211F1D1C1A47
:101010001917161514131211100F0E0D0C0B0A09C7
:101020000807064500680100000500380168010056
:1010300000391035100101FF030101F70300000022
:101040000800020100000304070000000000000087
:101050000001020408102040800102040810200151
:10106000020408102004040404040404040202021C
:10107000020202030303030303000000002300260F
:1010800000290000000000250028002B00000000BF
:1010900000240027002A0000122711241FBECFEFD2
:1010A000D8E0DEBFCDBF11E0A0E0B1E0E0EEF4E7B4
:1010B00002C005900D92A43CB107D9F727E0A4EC3B
:1010C000B1E001C01D92AC37B207E1F710E1CAE907
:1010D000D0E104C02297FE010E94503AC839D107DE
:1010E000C9F70E9460370C946E3A0C940000643586
:1010F00008F047C0403308F044C0FC01878D242F1E
:10110000259525952595E62FFF27E7FDF095477056
:10111000823091F4DF01AB58BA4F84E52802A00D6C
:10112000B11D11248C9190E0042E02C095958795F5
:101130000A94E2F780958170811112C084E528023B
:10114000E00DF11D1124EB58FA4F81E090E0042EE0
:1011500001C0880F0A94EAF780959081982310C007
:1011600084E52802E00DF11D1124EB58FA4F81E0CF
:1011700090E0042E01C0880F0A94EAF79081982B22
:101180009083089581E490E09093DC048093DB04E5
:101190008BE290E09093DE048093DD041092E304F0
:1011A0001092DF041092E1041092E00483E0809337
:1011B000E20481E08093E4041092E90494E19093C6
:1011C000E8048093E6041092E7041092E50410927C
:1011D000EA041092EB041092ED0480E097E0989FEF
:1011E000F0011124EC52FE4F1282118214821382FC
:1011F000158216828F5F8A3090F38093D301089511
:101200008EEE94E00E940A3281E08093CE0110922B
:10121000CD011092CF010E94C20868E27CE08EEE00
:1012200094E00E948C311092060508958091CD01C2
:10123000882321F0813009F465C3089585E0809307
:10124000C60189E08093C40185E18093C5018CE3E8
:1012500090E09093BE048093BD0488E290E0909368
:10126000C0048093BF043DE03093C10427E0209385
:10127000C20481E592E09093C4048093C30489E39F
:1012800090E09093C6048093C5043093C7042093E4
:10129000C8048BE891E09093CA048093C90485E860
:1012A00090E09093CC048093CB043093CD042093B2
:1012B000CE0482E091E09093D0048093CF0486E244
:1012C00091E09093D2048093D1043093D30420937F
:1012D000D4048EE290E09093D6048093D50487E303
:1012E00092E09093D8048093D7043093D90420934C
:1012F000DA0481E290E0909337048093360485E429
:1013000090E090933904809338048AE192E09093BE
:10131000400480933F0489E490E0909342048093DA
:10132000410480E190E0909349048093480484E470
:1013300092E090934B0480934A0480E079E068E463
:1013400059E244E090E5789FF0011124EA5CFB4FFC
:1013500038E4648329E255834683108697838F5F40
:10136000843088F381E291E0909352048093510499
:1013700084EA90E09093540480935304309355048E
:101380002093560457E0509357041092590444E1B7
:101390004093580488E392E090935B0480935A044E
:1013A00084E191E090935D0480935C0430935E044B
:1013B00020935F0450936004109262044093610490
:1013C0008DE791E0909364048093630488EC91E04E
:1013D000909366048093650470E17093670466E1FE
:1013E000609368045093690410926B0440936A04FC
:1013F00088E592E090936D0480936C0425E032E0E0
:1014000030936F0420936E047093700460937104A2
:1014100050937204109274044093730425E132E0F7
:10142000309376042093750424E132E030937804FD
:10143000209377047093790460937A0450937B042B
:1014400010927D0440937C042FEF31E030937F04B1
:1014500020937E049093810480938004709382048F
:10146000609383045093840410928604409385040F
:1014700084E059E048E439E227E094E1589FF00124
:101480001124EA5CFB4F44833583268310869783BF
:101490008F5F893098F38FE590E090930B038093F2
:1014A0000A038EE191E090930D0380930C032DE4E9
:1014B00030E0309315032093140384E491E090937B
:1014C00017038093160385E790E090931F038093A2
:1014D0001E0388E591E0909321038093200386E822
:1014E00090E0909329038093280380E391E0909308
:1014F0002B0380932A038DE791E09093330380932D
:10150000320386E290E0909335038093340384EBBA
:1015100091E090933D0380933C0345E150E050936C
:101520003F0340933E0341EA51E050934703409309
:10153000460330934903209348032DE831E030936C
:101540005103209350032CE831E030935303209350
:1015500052032AE731E030935B0320935A032CEACD
:1015600031E030935D0320935C032DE931E030934B
:1015700065032093640328EC31E0309367032093E4
:10158000660323EC31E030936F0320936E0328EA67
:1015900031E030937103209370039093790380932B
:1015A00078038FE891E090937B0380937A0380E641
:1015B00092E0909383038093820388E292E0909379
:1015C0008503809384038AE492E090938D03809353
:1015D0008C038AE292E090938F0380938E038CE2D7
:1015E00092E0909397038093960384E392E0909324
:1015F00099038093980386E292E09093A1038093ED
:10160000A00389E492E09093A3038093A20383E272
:1016100092E09093AB038093AA0381E692E09093CB
:10162000AD038093AC0380E09AE047E038E024E12A
:10163000989FF0011124E65FFC4F44839583368325
:101640001086278311868F5F813190F38EE590E0BD
:101650009093B5038093B4038EE291E09093B70327
:101660008093B60381E991E09093BF038093BE031A
:1016700024E230E03093C1032093C0039093C90368
:101680008093C8038BE991E09093CB038093CA03C6
:1016900081E492E09093D3038093D20388E492E0B4
:1016A0009093D5038093D40381E14AE090E236E041
:1016B00020E5489FF0011124E65FFC4F9483958359
:1016C00036831086278311868F5F853190F38CE3F4
:1016D00092E090931B0280931A028BE790E0909324
:1016E0001D0280931C0285E391E090932702809372
:1016F000260286EA90E0909329028093280286E2EF
:1017000091E090933302809332028FEB90E09093BC
:101710003502809334028AE492E090933F028093F2
:101720003E0223E131E0309341022093400223E462
:1017300032E030934B0220934A022CE231E03093A6
:101740004D0220934C022EE631E030935702209355
:10175000560227EC31E0309359022093580225E8D5
:1017600031E0309363022093620223EE31E0309344
:1017700065022093640229E632E030936F022093E1
:101780006E0228E032E0309371022093700222E66C
:1017900032E030937B0220937A022DE132E03093E5
:1017A0007D0220937C0226E232E030938702209370
:1017B000860227E132E0309389022093880220E2FA
:1017C00032E030939302209392022EE232E0309383
:1017D00095022093940227E032E030939F022093F9
:1017E0009E0220E532E03093A1022093A00220E186
:1017F00032E03093AB022093AA022BE532E0309323
:10180000AD022093AC022DE530E03093B702209377
:10181000B6029093B9028093B80289E591E0909363
:10182000C3028093C2028CE192E09093C502809340
:10183000C40280E04CE096E035E021E0489FF001F2
:101840001124E65EFD4F94839583168210863783BC
:101850001186228713868F5F8F3080F38BE791E0AC
:101860009093CF028093CE0287E190E09093D102D3
:101870008093D00289E490E09093DB028093DA02B7
:101880008CE191E09093DD028093DC028BE991E0A2
:101890009093E7028093E6028EE891E09093E9024C
:1018A0008093E80287E191E09093F3028093F20243
:1018B00080E292E09093F5028093F40280E492E05B
:1018C0009093FF028093FE0283E192E090930103E4
:1018D000809300038FE06CE050E14EE031E02EE1B8
:1018E00094E0689FF0011124E65EFD4F5483458328
:1018F0003683108627831186928713868F5F843103
:1019000080F363C385E08093C60189E08093C401BE
:1019100085E18093C5018CE390E09093BE048093B1
:10192000BD0488E290E09093C0048093BF043DE042
:101930003093C10427E02093C20481E592E09093A4
:10194000C4048093C30489E390E09093C604809319
:10195000C5043093C7042093C8048BE891E09093AA
:10196000CA048093C90485E890E09093CC048093E6
:10197000CB043093CD042093CE0482E091E0909389
:10198000D0048093CF0486E291E09093D2048093B8
:10199000D1043093D3042093D4048EE290E090934A
:1019A000D6048093D50487E392E09093D804809383
:1019B000D7043093D9042093DA0481E290E0909325
:1019C00037048093360485E490E090933904809343
:1019D00038048AE192E09093400480933F0489E4C4
:1019E00090E0909342048093410480E190E09093D2
:1019F00049048093480484E492E090934B048093DC
:101A00004A0480E079E068E459E244E090E5789F98
:101A1000F0011124EA5CFB4F38E4648329E255832A
:101A20004683108697838F5F843088F381E291E04C
:101A3000909352048093510484EA90E0909354046C
:101A400080935304309355042093560457E05093E9
:101A500057041092590444E14093580488E392E0FB
:101A600090935B0480935A0484E191E090935D0429
:101A700080935C0430935E0420935F045093600471
:101A800010926204409361048DE791E090936404A6
:101A90008093630488EC91E09093660480936504DE
:101AA00070E17093670466E1609368045093690481
:101AB00010926B0440936A0488E592E090936D0461
:101AC00080936C0425E032E030936F0420936E0421
:101AD00070937004609371045093720410927404B4
:101AE0004093730425E132E030937604209375042B
:101AF00024E132E0309378042093770470937904E2
:101B000060937A0450937B0410927D0440937C048C
:101B10002FEF31E030937F0420937E049093810473
:101B200080938004709382046093830450938404B0
:101B3000109286044093850484E059E048E439E239
:101B400027E094E1589FF0011124EA5CFB4F4483A5
:101B500035832683108697838F5F893098F38FE5CE
:101B600090E090930B0380930A038EE191E09093B1
:101B70000D0380930C032DE430E030931503209384
:101B8000140384E491E0909317038093160385E790
:101B900090E090931F0380931E0388E591E090935B
:101BA00021038093200386E890E09093290380939B
:101BB000280380E391E090932B0380932A038DE721
:101BC00091E0909333038093320386E290E0909308
:101BD00035038093340384EB91E090933D0380932D
:101BE0003C0345E150E050933F0340933E0341EAFC
:101BF00051E05093470340934603309349032093A9
:101C000048032DE831E030935103209350032CE832
:101C100031E030935303209352032AE731E03093AD
:101C20005B0320935A032CEA31E030935D03209349
:101C30005C032DE931E0309365032093640328ECC5
:101C400031E0309367032093660323EC31E0309357
:101C50006F0320936E0328EA31E0309371032093E1
:101C6000700390937903809378038FE891E09093C9
:101C70007B0380937A0380E692E0909383038093C2
:101C8000820388E292E090938503809384038AE440
:101C900092E090938D0380938C038AE292E090937C
:101CA0008F0380938E038CE292E09093970380934E
:101CB000960384E392E0909399038093980386E2DD
:101CC00092E09093A1038093A00389E492E0909323
:101CD000A3038093A20383E292E09093AB038093EB
:101CE000AA0381E692E09093AD038093AC0380E079
:101CF0009AE047E038E024E1989FF0011124E65F84
:101D0000FC4F4483958336831086278311868F5F2B
:101D1000813190F38EE590E09093B5038093B40306
:101D20008EE291E09093B7038093B60381E991E04E
:101D30009093BF038093BE0324E230E03093C1034D
:101D40002093C0039093C9038093C8038BE991E06B
:101D50009093CB038093CA0381E492E09093D303E2
:101D60008093D20388E492E09093D5038093D403C8
:101D700081E14AE090E236E020E5489FF00111243D
:101D8000E65FFC4F94839583368310862783118604
:101D90008F5F853190F38CE392E090931B028093E8
:101DA0001A028BE790E090931D0280931C0285E35A
:101DB00091E0909327028093260286EA90E0909328
:101DC00029028093280286E291E090933302809367
:101DD00032028FEB90E090933502809334028AE4D4
:101DE00092E090933F0280933E0223E131E03093F2
:101DF00041022093400223E432E030934B022093CF
:101E00004A022CE231E030934D0220934C022EE640
:101E100031E0309357022093560227EC31E03093A3
:101E200059022093580225E831E030936302209351
:101E3000620223EE31E0309365022093640229E6CA
:101E400032E030936F0220936E0228E032E030934C
:101E500071022093700222E632E030937B022093DD
:101E60007A022DE132E030937D0220937C0226E25B
:101E700032E0309387022093860227E132E03093EC
:101E800089022093880220E232E03093930220936B
:101E900092022EE232E0309395022093940227E0E2
:101EA00032E030939F0220939E0220E532E030938F
:101EB000A1022093A00220E132E03093AB022093F4
:101EC000AA022BE532E03093AD022093AC022DE55F
:101ED00030E03093B7022093B6029093B90280931A
:101EE000B80289E591E09093C3028093C2028CE12D
:101EF00092E09093C5028093C40280E04CE096E0AB
:101F000035E021E0489FF0011124E65EFD4F948307
:101F100095831682108637831186228713868F5FFA
:101F20008F3080F38BE791E09093CF028093CE02C5
:101F300087E190E09093D1028093D00289E490E011
:101F40009093DB028093DA028CE191E09093DD02C2
:101F50008093DC028BE991E09093E7028093E602A4
:101F60008EE891E09093E9028093E80287E191E0A6
:101F70009093F3028093F20280E292E09093F50254
:101F80008093F40280E492E09093FF028093FE023B
:101F900083E192E090930103809300038FE06CE073
:101FA00050E14EE031E02EE194E0689FF001112411
:101FB000E65EFD4F54834583368310862783118662
:101FC000928713868F5F843180F38093D3010895C5
:101FD0008091CE01813019F0823071F1089562E074
:101FE00088EF94E00E944128882341F08091CD0140
:101FF00090E00196817099278093CD0160E088EF91
:1020000094E00E944128882351F08091CD018111F4
:1020100002C081E002C0817081508093CD0164E0F4
:1020200088EF94E00E944128882309F474C182E07B
:102030008093CE010C94160966E088EF94E00E942C
:102040004128882331F068E27CE08EEE94E00E9423
:102050008C3165E088EF94E00E944128882361F08C
:102060008091ED04882329F0813031F41092ED0441
:1020700003C081E08093ED0440E064E088EF94E0E9
:102080000E944A289091E404882309F433C19111F5
:1020900031C18091E304883009F02CC181E0809344
:1020A000E5048091E804882309F435C140E062E04A
:1020B00088EF94E00E944A28882369F04091E10467
:1020C000242F332727FD30958091E20490E02817D4
:1020D000390714F51EC040E060E088EF94E00E94EC
:1020E0004A284091E104882371F08091E20490E055
:1020F000919581959109242F332727FD30958217DB
:10210000930754F402C0141614F4415003C044233E
:1021100019F04F5F4093E10440E063E088EF94E002
:102120000E944A28882369F04091E004242F332735
:1021300027FD30958091E20490E02817390714F5C7
:102140001EC040E061E088EF94E00E944A28409180
:10215000E004882371F08091E20490E091958195EC
:102160009109242F332727FD30958217930754F4C4
:1021700002C0141614F4415003C0442319F04F5FF9
:102180004093E0042091E1041216A4F48091DB0452
:102190009091DC0460E0332727FD3095462F50E016
:1021A00042175307BCF4863742E094070CF40196BB
:1021B0006F5FF4CF2223A1F08091DB049091DC04C7
:1021C00060E0332721950CF43095462F50E04217FC
:1021D00053079CF09093DC048093DB046093D3015D
:1021E0002091E0041216DCF48091DD049091DE046D
:1021F00060E0332727FD30950CC0181619060CF443
:1022000001976F5FE2CF863742E094070CF40196A6
:102210006F5F462F50E042175307ACF310C02223E4
:10222000A1F08091DD049091DE0460E033272195D8
:102230000CF43095462F50E0421753077CF0609322
:10224000D3019093DE048093DD0440E064E088EFE6
:1022500094E00E944A28811107C052C0863091053F
:102260000CF001976F5FE6CF8091E404811148C0C4
:102270008091E304883009F043C081E08093E50455
:102280008091ED04811147C08091E10418163CF45F
:102290009091E004911117C01092DF0419C08111D0
:1022A00008C08091E0041816ACF482E08093DF044B
:1022B00011C087FF15C08091E004181624F593E043
:1022C0009093DF0424C019161CF491E09093DF046E
:1022D000811106C08091E00487FF1DC086E007C021
:1022E0001816CCF48091E00487FF15C087E0809336
:1022F000DF0408951092E504992309F4D2CE0895DD
:102300001092E504BDCF811102C084E0F0CF87FFB9
:1023100002C085E0ECCF0895282F30E06CE0869F66
:10232000F0011124E65EFD4F8781882309F484C003
:1023300088E08093D001808191814091DB045091AD
:10234000DC0464816695DC01A60FB11DBA01665FED
:102350007F4F6A177B073CF401979183808384E069
:1023600082878093D0018CE0829FF001839FF00DE3
:102370001124E65EFD4F8081918164816695DC01C8
:10238000A60FB11D4A505109A417B50734F40196A0
:102390009183808312861092D0018CE0829FF0019D
:1023A000839FF00D1124E65EFD4F82819381409161
:1023B000DD045091DE0465816695DC01A60FB11D38
:1023C000BA016A507109A617B7078CF40196938376
:1023D00082838091D001843031F0883031F08111D6
:1023E00006C081E003C083E001C082E082878CE008
:1023F000829FF001839FF00D1124E65EFD4F8281E4
:10240000938125812695BC01620F711D465F5F4F48
:10241000461757078CF40197938382838091D001EC
:10242000843031F0883031F0811106C087E003C07C
:1024300085E001C086E0828708952F923F924F92F7
:102440005F926F927F928F929F92AF92BF92CF9244
:10245000DF92EF92FF920F931F93CF93DF93CDB74D
:10246000DEB72E970FB6F894DEBF0FBECDBF10E0DB
:1024700047E05AE01A3008F099C0212F30E0429F1F
:10248000F001439FF00D1124EC52FE4F868188230A
:1024900009F48AC0858190E08830910508F06AC00F
:1024A000FC01EC5CFF4F0C944E3A429FF001439FBD
:1024B000F00D1124EC52FE4F81819281029630C0C2
:1024C000429FF001439FF00D1124EC52FE4F818199
:1024D0009281019615C0429FF001439FF00D112497
:1024E000EC52FE4F83819481029642C0429FF001DC
:1024F000439FF00D1124EC52FE4F81819281019790
:102500009283818383819481019632C0429FF0013E
:10251000439FF00D1124EC52FE4F8181928102976E
:102520009283818327C0429FF001439FF00D1124C5
:10253000EC52FE4F81819281019715C0429FF001BC
:10254000439FF00D1124EC52FE4F8381948102973A
:102550000FC0429FF001439FF00D1124EC52FE4F3B
:1025600081819281019692838183838194810197F5
:1025700094838383429FF001439FF00D1124EC521A
:10258000FE4F86818F5F86838F3170F0A0815A9FC6
:10259000D0011124A65FBC4F19961C9212821182A1
:1025A00014821382158216821F5F64CF0091C501C9
:1025B0008091DB049091DC046090DD047090DE0477
:1025C0002091E304B301621B7109E091CB015091AA
:1025D000CC014091C9012091CA01B090D101A12C38
:1025E000FAE09F2E88248394A01608F0DFC09A9CFE
:1025F000600111249601265F3C4F6901D9011496B0
:102600002C91149726954D915C911197420F511D75
:102610001596EC911597E69512962D913C9113978E
:102620002E0F311DFC01E41BF50BE65BFF4FE53976
:10263000F10508F0B6C0F301E21BF30BE65BFF4FB8
:10264000E539F10508F0ADC07601B9E0EB0EF11CFB
:10265000D6011996EC911997E111A3C01796EC9148
:10266000EE2309F49EC0E9EDF1E0A4EDB1E0BA87F4
:10267000A987AAEDB1E0BC87AB87B12C2701D601B1
:102680001696BE83AD83DA011596BE87AD871A0113
:10269000B5E02B1A3108790115E0E10EF11CD901E2
:1026A0001697B887AF836901B5E0CB1AD108B2E0BD
:1026B000EF31FB0709F474C0AB85BC851C91111187
:1026C00063C0B11061C014E1D2011C93AD81BE8121
:1026D000BC90B6E0BB1202C0D2019C92A985BA851B
:1026E000AC9212965C934E93119714963C932E9352
:1026F0001397AB85BC858C921082AD85BE85A817DB
:10270000B90724F4E616F7060CF4808282159305C7
:102710005CF0AD85BE85A817B9075CF026173707B2
:1027200044F4B2E0B08305C0E616F70614F413E0F3
:1027300010838417950744F46C157D052CF0E6167C
:10274000F70614F0A4E0A083821593052CF46C1511
:102750007D0574F4B5E00BC0AD85BE85A817B9073B
:102760003CF0AF81B8856A177B0714F4B6E0B083FC
:10277000AD85BE85A817B9072CF46C157D0514F43A
:10278000B7E0B083BB24B3943796A985BA85179672
:10279000BA87A987AB85BC851796BC87AB8787CFDF
:1027A0001AE0A394E42F422F232F1ECF3091E3048D
:1027B000B301631B71094B2C912C8824839434E062
:1027C000532EF3E1F91508F4F5C0FCE0F99DF00192
:1027D0001124E65EFD4FF887EF8324812695408122
:1027E0005181420F511DE581E695AF81B885129662
:1027F0002D913C9113972E0F311DFC01E41BF50B1D
:10280000E65BFF4FE539F10508F0CFC0F301E21BAD
:10281000F30BE65BFF4FE539F10508F0C6C07D011B
:10282000B9E0EB0EF11CAF81B8851996EC911997C0
:10283000E111BBC01796EC91EE2309F4B6C0E9EDA7
:10284000F1E004ED11E01A870987AAEDB1E0BC8739
:10285000AB87412C0F8118850A5F1F4F1C830B83A8
:10286000FA82E9827A0115E0E10EF11C1A01A5E075
:102870002A1A31085901B5E0AB0EB11C8901065086
:1028800011091E830D83690115E0C11AD108AF81BA
:10289000B8851A96B887AF83B2E0EF31FB0709F429
:1028A00083C0AB85BC851C91111171C041106DC0F6
:1028B000A985BA859C9212965C934E9311971496B3
:1028C0003C932E931397AB85BC858C92AB81BC81D6
:1028D0001C911123C1F0113009F057C008E2A98101
:1028E000BA810C93AF81B8851C911083A985BA85F4
:1028F00013960D911C9114970550110914961C9371
:102900000E93139742C004E1A981BA810C931082FF
:10291000E816F90624F4A616B7060CF48082821590
:1029200093054CF0E816F9065CF02617370744F4D7
:1029300012E0108305C0A616B70614F4A3E0A08326
:10294000841795073CF46C157D0524F0A616B70690
:102950000CF050828215930534F46C157D056CF4EF
:10296000B5E0B0830AC0E816F9063CF00D811E817F
:102970006017710714F416E01083E816F9062CF4BA
:102980006C157D0514F4A7E0A08344244394379686
:1029900009851A85095F1F4F1A870987AB85BC8592
:1029A0001796BC87AB8778CF1AE09394E42F422F19
:1029B000232F07CF1093D201E093CB015093CC018A
:1029C0004093C9012093CA014092D1019092D30152
:1029D0002E960FB6F894DEBF0FBECDBFDF91CF911C
:1029E0001F910F91FF90EF90DF90CF90BF90AF902D
:1029F0009F908F907F906F905F904F903F902F901F
:102A00000895EF92FF920F931F93CF93DF938091DE
:102A1000EC0481114CC08091DB049091DC04AC018A
:102A200043505109BC016D5F7F4F2091E3048091B9
:102A3000DD049091DE04821B9109DC01139703965B
:102A4000D091E804F090E90400E01091E404C0E0C3
:102A500027E0E22ECA3008F5EC9EF0011124EC527A
:102A6000FE4F2181328124173507ACF062177307BE
:102A700094F0238134812A173B076CF08217930767
:102A800054F0DD2311F0D55021F4FF24F394D0E06D
:102A900002C010E00CE0CF5FDDCFD093E804F092ED
:102AA000E9040093EC041093E404C093D201DF9195
:102AB000CF911F910F91FF90EF9008959091E404B2
:102AC0008091E904992319F0913059F011C0909147
:102AD000E304983068F481110BC09F5F9093E30486
:102AE00008959091E304992319F091509093E30491
:102AF000813099F42091E304222379F08091DF045E
:102B0000992787FD9095019668E070E00E94F93959
:102B10008093DF0421502093E30408958091E5041D
:102B2000813009F0CBC08091DF04992787FD909513
:102B3000A92FB92F8830910508F040C0FC01E45C52
:102B4000FF4F4091DB045091DC042091DD04309173
:102B5000DE040C944E3A405F5F4F15C0485F5F4FF4
:102B600009C05093CC014093CB01285F3F4F22C056
:102B7000485051095093CC014093CB012B5F3F4FFC
:102B800019C0405151095093CC014093CB0112C060
:102B90004850510909C05093CC014093CB012850B3
:102BA000310908C0485F5F4F5093CC014093CB017F
:102BB000255031093093CA012093C9017091C50194
:102BC0008091CB019091CC012091C9013091CA0133
:102BD00060E0AAE0671710F5A69FF0011124E65FF8
:102BE000FC4F4081518148175907B4F4B4814B0F11
:102BF000511D8417950784F442815381421753076E
:102C00005CF4B5814B0F511D241735072CF4478117
:102C1000442311F0415047836F5FDCCF7091C401B2
:102C200060E0A9E0671710F5A69FF0011124EA5CA7
:102C3000FB4F4081518148175907B4F4B4814B0FC1
:102C4000511D8417950784F442815381421753071D
:102C50005CF4B5814B0F511D241735072CF44781C7
:102C6000442311F0415047836F5FDCCF60E07CE08C
:102C7000643110F5769FF0011124E65EFD4F40812E
:102C8000518148175907B4F4A4814A0F511D841784
:102C9000950784F442815381421753075CF4A58160
:102CA0004A0F511D241735072CF44781442311F096
:102CB000415047836F5FDCCF6093D30108951F932A
:102CC000CF93DF938091E004811155C08091E1049E
:102CD000811151C08091E40481114DC08091CD01DA
:102CE000811149C0C091C6018091DB049091DC0440
:102CF0002091DD043091DE047091E804A091E60497
:102D0000B0E060E0D6E06C1790F5D69FF00111249A
:102D1000E354FB4F408151814817590734F5148122
:102D2000410F511D8417950704F5428153814217C5
:102D30005307DCF4E5814E0F511D24173507ACF421
:102D4000623069F028F4662341F0613061F00DC013
:102D5000633049F0643019F008C0713310F0AD31C0
:102D600020F4B1E002C07133E0F36F5FCCCFB093D9
:102D7000E4046093D3018091E404813009F060C0E1
:102D80008091E30481115CC08091CD01811158C014
:102D9000C091C6018091DB049091DC042091DD0498
:102DA0003091DE047091E8046091E604B1E0A0E0A7
:102DB000D6E0AC17E8F5DA9FF0011124E354FB4F9D
:102DC00040815181481759078CF51481410F511DDD
:102DD000841795075CF5428153814217530734F5F8
:102DE000E5814E0F511D2417350704F5A230B9F0C7
:102DF00028F4AA2341F0A13061F018C0A33049F0B3
:102E0000A43069F013C0723351F0723350F47F5F15
:102E100008C0723351F0723348F47F5F07C06E31DF
:102E200021F06E3118F46F5F01C0B0E0AF5FC1CF29
:102E30007093E8046093E604B093E404A093D30194
:102E4000DF91CF911F9108958091E3048823E1F0F1
:102E50008091E70490E0019664E670E00E94F93901
:102E60008093E704892B39F48091E604882319F0D4
:102E700081508093E6048091E604811105C081E0D1
:102E80008093E9048093E40408958A3291054CF01C
:102E90009C012A5231092332324010F082520895A7
:102EA0008AE20895823291054CF09C012252310948
:102EB0002734324010F08654089582E2089520911C
:102EC000DB043091DC042A32310564F0A9014A5256
:102ED00051094332524020F4821B930B8A9602C060
:102EE000825292402DE730E0B9010E94F9398358AF
:102EF0009F4FB9010E94F93908952091DD04309166
:102F0000DE042232310564F0A901425251094734EE
:102F1000524020F4821B930B829602C0865492404A
:102F20002DE730E0B9010E94F93983589F4FB9016C
:102F30000E94F93908952091DB043091DC042A3293
:102F4000310564F0A9014A5251094332524020F43C
:102F5000821B930B8A960895825292400895209185
:102F6000DD043091DE042232310564F0A9014252C1
:102F700051094734524020F4821B930B82960895E6
:102F80008654924008958091E604882361F08091F0
:102F9000E304882341F08091EA0490E00196837075
:102FA00099278093EA048091CF0190E0019662E333
:102FB00070E00E94F9398093CF018091E90481305B
:102FC00059F48091E304811107C08091EB048B30A8
:102FD00018F48F5F8093EB048091EC04882319F040
:102FE00081508093EC045091C50120E03AE0251710
:102FF000F8F4822F90E0389FF001399FF00D1124F2
:10300000E65FFC4F4781411105C040854C3010F40C
:103010004F5F4087389FF001399FF00D1124E65F24
:10302000FC4F8185882311F0815081872F5FDFCF8E
:103030002091C40180E039E0821778F4389FF001D4
:103040001124EA5CFB4F9781911105C090859C305B
:1030500010F49F5F90878F5FEFCF20E03CE024313A
:10306000F8F4822F90E0389FF001399FF00D112481
:10307000E65EFD4F4781411105C04085443610F49E
:103080004F5F4087389FF001399FF00D1124E65EB5
:10309000FD4F8185882311F0815081872F5FDFCF1D
:1030A0002093D3010895EF920F93CF938091DB0487
:1030B0009091DC040E944517C82F282F30E03093F0
:1030C000CC012093CB018091DD049091DE040E941D
:1030D0005217282F30E03093CA012093C9014EEFD8
:1030E000480F6EEF6C0F2BEE3BE08CE395E00E94F7
:1030F0003C2B8091EC0463E00E94D939911148C1C6
:103100002091EA0488E0289F900111242E50344F2A
:103110004091C9018091E304481B48506091CB0164
:1031200067508CE395E00E943C2B8091DF04992747
:1031300087FD9095A92FB92F8830910508F028C1F7
:10314000FC01EC5BFF4F60E08CE395E00C944E3AA1
:103150000E94DB284091C9018091E304481B46503E
:103160006091CB016950E12C00E02FEC3BE08CE357
:1031700095E00E94BC2B61E08CE395E00E94DB2887
:103180004091C9018091E304481B46506091CB01F6
:1031900069508DC00E94DB284091C9018091E304F1
:1031A000481B4D506091CB016750E12C00E023E9B2
:1031B0003BE08CE395E00E94BC2B61E08CE395E062
:1031C0000E94DB284091C9018091E304481B4D50C7
:1031D0006091CB01675046C00E94DB284091C90135
:1031E0008091E304481B46506091CB016450E12C70
:1031F00000E02BE33BE08CE395E00E94BC2B61E018
:103200008CE395E00E94DB284091C9018091E304A2
:10321000481B46506091CB0164502BE53BE0B4C0A5
:103220000E94DB284091C9018091E304481B4D5066
:103230006091CB016950EE24E39400E023E93BE088
:103240008CE395E00E94BC2B61E08CE395E00E944A
:10325000DB284091C9018091E304481B4D506091E7
:10326000CB01695021EB3BE08FC00E94DB284091ED
:10327000C9018091E304481B46506091CB0167501F
:10328000EE24E39400E02FEC3BE08CE395E00E9419
:10329000BC2B61E08CE395E00E94DB284091C901E2
:1032A0008091E304481B46506091CB0167502DED9F
:1032B0003BE06AC00E94DB284091C9018091E30491
:1032C000481B46506091CB016750EE24E39400E028
:1032D0002BE63BE08CE395E00E94BC2B61E08CE3A5
:1032E00095E00E94DB284091C9018091E304481BCE
:1032F00046506091CB01675045C00E94DB28409149
:10330000C9018091E304481B46506091CB01645091
:10331000E12C00E02BE33BE08CE395E00E94BC2B2A
:1033200061E08CE395E00E94DB284091C901809127
:10333000E304481B46506091CB0164502BE43BE012
:1033400023C00E94DB284091C9018091E304481BFF
:1033500046506091CB016950E12C00E02BE63BE048
:103360008CE395E00E94BC2B61E08CE395E00E9429
:10337000DB284091C9018091E304481B46506091CD
:10338000CB0169502FE73BE08CE395E00E94BC2B1A
:10339000CF910F91EF9008950F9360E08CE395E04B
:1033A0000E94DB2804E024E540E060E08CE395E047
:1033B0000E94642961E08CE395E00E94DB2822E111
:1033C0003CE040E060E08CE395E00E943C2B809183
:1033D000E80465E00E94D93902E0282F41E067E067
:1033E0008CE395E00E9464292091E6048BEA289FF3
:1033F000212D1124269541E068E18CE395E00E949F
:1034000064296EE371E08CE395E00E94D2378EEE82
:1034100094E00E94512E4AE050E0682F8CE395E042
:103420000F910C9457380F938091CD01882329F088
:10343000813049F460E671E002C06DE471E08CE334
:1034400095E00E94D23708E128E14EE067E18CE385
:1034500095E00E94952929E53AE04CE16BE18CE387
:1034600095E00E943C2B2EE63AE044E163E28CE3D7
:1034700095E00E943C2B28E14EE062E38CE395E06E
:103480000E9495296091CD018BE1689F602D1124E8
:103490006A5E0AE12AE14DE08CE395E00E949529FD
:1034A0000F910895CF938091CD01882319F0813039
:1034B00009F002C286E190E00E945F17C82F809356
:1034C000CB019093CC0180E190E00E947D17809326
:1034D000C9019093CA014CEE480F6CEE6C0F29E5C0
:1034E0003AE08CE395E00E943C2B8EE190E00E9454
:1034F0005F17C82F8093CB019093CC0185E190E0BA
:103500000E947D178093C9019093CA014CEE480F29
:103510006CEE6C0F29E53AE08CE395E00E943C2BC1
:1035200086E190E00E945F17C82F8093CB019093B3
:10353000CC018AE190E00E947D178093C9019093AD
:10354000CA014CEE480F6CEE6C0F29E53AE08CE3B3
:1035500095E00E943C2B8DE490E00E945F17C82FFD
:103560008093CB019093CC018BE090E00E947D177B
:103570008093C9019093CA014CEE480F6CEE6C0F1A
:1035800029E53AE08CE395E00E943C2B8BE290E049
:103590000E945F17C82F8093CB019093CC018DE2DE
:1035A00090E00E947D178093C9019093CA014CEE70
:1035B000480F6CEE6C0F29E53AE08CE395E00E9431
:1035C0003C2B82E590E00E945F17C82F8093CB01CF
:1035D0009093CC0180E390E00E947D178093C90115
:1035E0009093CA014CEE480F6CEE6C0F29E53AE05F
:1035F0008CE395E00E943C2B8BE190E00E945F17EA
:10360000C82F8093CB019093CC0181E590E00E947C
:103610007D178093C9019093CA014CEE480F6CEE60
:103620006C0F29E53AE08CE395E00E943C2B84E2A4
:1036300090E00E945F17C82F8093CB019093CC013C
:1036400085E590E00E947D178093C9019093CA019F
:103650004CEE480F6CEE6C0F29E53AE08CE395E0F8
:103660000E943C2B8CE190E00E945F17C82F809352
:10367000CB019093CC018BE590E00E947D17809365
:10368000C9019093CA014CEE480F6CEE6C0F29E50E
:103690003AE08CE395E00E943C2B87E690E00E94A4
:1036A0005F17C82F8093CB019093CC0184E790E003
:1036B0000E947D178093C9019093CA014CEE480F78
:1036C0006CEE6C0F29E53AE08CE395E00E943C2B10
:1036D00080E490E00E945F17C82F8093CB01909305
:1036E000CC018EE190E00E947D178093C9019093F8
:1036F000CA014CEE480F6CEE6C0F2EE63AE08CE3FC
:1037000095E00E943C2B8EE090E00E945F17C82F4E
:103710008093CB019093CC0180E490E00E947D17D0
:103720008093C9019093CA014CEE480F6CEE6C0F68
:103730002EE63AE08CE395E00E943C2B85E390E096
:103740000E945F17C82F8093CB019093CC0187E72D
:1037500090E00E947D178093C9019093CA014CEEBE
:10376000480F6CEE6C0F2EE63AE08CE395E00E9479
:103770003C2B84E090E00E945F17C82F8093CB0120
:103780009093CC0183E090E00E947D178093C90163
:103790009093CA014CEE480F6CEE6C0F23E63AE0B2
:1037A0008CE395E00E943C2B89E590E00E945F1736
:1037B000C82F8093CB019093CC0189E490E00E94C4
:1037C0007D178093C9019093CA014CEE480F6CEEAF
:1037D0006C0F23E63AE08CE395E00E943C2B84E5F5
:1037E00090E00E945F17C82F8093CB019093CC018B
:1037F00084E590E00E947D178093C9019093CA01EF
:103800004CEE480F6CEE6C0F27E33AE08CE395E04A
:103810000E943C2B82E690E00E945F17C82F8093A5
:10382000CB019093CC0180E590E00E947D178093BE
:10383000C9019093CA014CEE480F6CEE6C0F23E661
:103840003AE08CE395E00E943C2B87E090E00E94F8
:103850005F17C82F8093CB019093CC018DE690E049
:103860000E947D178093C9019093CA014CEE480FC6
:103870006CEE6C0F2BE43AE08CE395E00E943C2B5D
:103880008EE690E00E945F17C82F8093CB01909343
:10389000CC018AE190E00E947D178093C90190934A
:1038A000CA014CEE480F6CEE6C0F2BE43AE08CE34F
:1038B00095E0CF910C943C2BCF910895FF920F93FC
:1038C0001F93CF93DF938091CD01882321F0813026
:1038D00009F408C20DC489E390E00E949B17EC0133
:1038E0009093CC018093CB0183E190E00E94AF17CD
:1038F0009093CA018093C90123E12093C8012FE06E
:103900002093C7019E012E5E3F4F2636310580F47D
:103910009C01225F3F4F2E33310550F4209120014E
:1039200030912101482F6C2F8CE395E00E943C2BB5
:1039300088E190E00E949B17EC019093CC0180936A
:10394000CB018BE190E00E94AF179093CA01809366
:10395000C90120E22093C8012DE12093C7019E01F7
:10396000215E3F4F2337310580F49C01245E3F4F99
:103970002C34310550F42091220130912301482F3D
:103980006C2F8CE395E00E943C2B8AE090E00E9433
:103990009B17EC019093CC018093CB0186E292E0DF
:1039A0000E94AF179093CA018093C90120E220932F
:1039B000C8012DE12093C7019E01215E3F4F2337AF
:1039C000310580F49C01245E3F4F2C34310550F4C6
:1039D0002091220130912301482F6C2F8CE395E038
:1039E0000E943C2B81E891E00E949B17EC01909390
:1039F000CC018093CB0187E690E00E94AF179093B3
:103A0000CA018093C90120E22093C8012DE12093CF
:103A1000C7019E01215E3F4F2337310580F49C0191
:103A2000245E3F4F2C34310550F420912201309117
:103A30002301482F6C2F8CE395E00E943C2B8DE4F2
:103A400090E00E949B17EC019093CC018093CB01F6
:103A500081E290E00E94AF179093CA018093C90160
:103A600029E12093C8012AE12093C7019E01285E25
:103A70003F4F2C36310580F49C01275E3F4F29349F
:103A8000310550F42091240130912501482F6C2FED
:103A90008CE395E00E943C2B8DE492E00E949B1702
:103AA000EC019093CC018093CB018AE190E00E94DD
:103AB000AF179093CA018093C90129E12093C801EF
:103AC0002AE12093C7019E01285E3F4F2C36310525
:103AD00080F49C01275E3F4F2934310550F420913A
:103AE000240130912501482F6C2F8CE395E00E9432
:103AF0003C2B82E191E00E949B17EC019093CC015A
:103B00008093CB018FE191E00E94AF179093CA019F
:103B10008093C90129E12093C8012AE12093C701BC
:103B20009E01285E3F4F2C36310580F49C01275EB4
:103B30003F4F2934310550F4209124013091250163
:103B4000482F6C2F8CE395E00E943C2B8DEF90E08A
:103B50000E949B17EC019093CC018093CB018FE9DD
:103B600090E00E94AF179093CA018093C90124E2AC
:103B70002093C80128E12093C7019E012D5D3F4F8E
:103B80002737310580F49C01295E3F4F27343105EA
:103B900050F42091280130912901482F6C2F8CE39B
:103BA00095E00E943C2B88E990E00E949B17EC0175
:103BB0009093CC018093CB018EE991E00E94AF17E6
:103BC0009093CA018093C90124E22093C80128E19F
:103BD0002093C7019E012D5D3F4F2737310580F4AB
:103BE0009C01295E3F4F2734310550F42091280174
:103BF00030912901482F6C2F8CE395E00E943C2BDB
:103C00008EE092E00E949B17EC019093CC01809390
:103C1000CB018CE191E00E94AF179093CA01809391
:103C2000C90124E22093C80128E12093C7019E0125
:103C30002D5D3F4F2737310580F49C01295E3F4FB2
:103C40002734310550F42091280130912901482F63
:103C50006C2F8CE395E00E943C2B1092D30146E040
:103C6000F42EC091D301C53008F042C2FC9EE001A1
:103C70001124C354DB4F888199810E949B178C01CA
:103C80009093CC018093CB018A819B810E94AF17D6
:103C90009093CA018093C90104351105ECF42C817D
:103CA00030E031952195310920173107ACF480338C
:103CB000910594F42D8130E0319521953109281733
:103CC000390754F420911E0130911F01482F602FB5
:103CD0008CE395E00E943C2B8091D3018F5F809311
:103CE000D301BFCF89E390E00E949B17EC01909332
:103CF000CC018093CB0183E190E00E94AF179093B9
:103D0000CA018093C90123E12093C8012FE02093C9
:103D1000C7019E012E5E3F4F2636310580F49C017F
:103D2000225F3F4F2E33310550F420912001309116
:103D30002101482F6C2F8CE395E00E943C2B88E1F9
:103D400090E00E949B17EC019093CC018093CB01F3
:103D50008BE190E00E94AF179093CA018093C90154
:103D600020E22093C8012DE12093C7019E01215E2E
:103D70003F4F2337310580F49C01245E3F4F2C34A4
:103D8000310550F42091220130912301482F6C2FEE
:103D90008CE395E00E943C2B8AE090E00E949B1708
:103DA000EC019093CC018093CB0186E292E00E94DB
:103DB000AF179093CA018093C90120E22093C801F4
:103DC0002DE12093C7019E01215E3F4F233731052E
:103DD00080F49C01245E3F4F2C34310550F4209137
:103DE000220130912301482F6C2F8CE395E00E9433
:103DF0003C2B81E891E00E949B17EC019093CC0151
:103E00008093CB0187E690E00E94AF179093CA01A0
:103E10008093C90120E22093C8012DE12093C701BE
:103E20009E01215E3F4F2337310580F49C01245EC3
:103E30003F4F2C34310550F4209122013091230161
:103E4000482F6C2F8CE395E00E943C2B8DE490E092
:103E50000E949B17EC019093CC018093CB0181E2EF
:103E600090E00E94AF179093CA018093C90129E1A5
:103E70002093C8012AE12093C7019E01285E3F4F8D
:103E80002C36310580F49C01275E3F4F29343105E3
:103E900050F42091240130912501482F6C2F8CE3A0
:103EA00095E00E943C2B8DE492E00E949B17EC0170
:103EB0009093CC018093CB018AE190E00E94AF17F0
:103EC0009093CA018093C90129E12093C8012AE196
:103ED0002093C7019E01285E3F4F2C36310580F4A8
:103EE0009C01275E3F4F2934310550F42091240175
:103EF00030912501482F6C2F8CE395E00E943C2BDC
:103F000082E191E00E949B17EC019093CC01809399
:103F1000CB018FE191E00E94AF179093CA0180938B
:103F2000C90129E12093C8012AE12093C7019E011C
:103F3000285E3F4F2C36310580F49C01275E3F4FB1
:103F40002934310550F42091240130912501482F66
:103F50006C2F8CE395E00E943C2B8DEF90E00E944B
:103F60009B17EC019093CC018093CB018FE990E0FB
:103F70000E94AF179093CA018093C90124E2209355
:103F8000C80128E12093C7019E012D5D3F4F2737CF
:103F9000310580F49C01295E3F4F2734310550F4F0
:103FA0002091280130912901482F6C2F8CE395E056
:103FB0000E943C2B88E990E00E949B17EC019093B3
:103FC000CC018093CB018EE991E00E94AF179093D2
:103FD000CA018093C90124E22093C80128E12093FB
:103FE000C7019E012D5D3F4F2737310580F49C01AD
:103FF000295E3F4F2734310550F42091280130913C
:104000002901482F6C2F8CE395E00E943C2B8EE019
:1040100092E00E949B17EC019093CC018093CB011E
:104020008CE191E00E94AF179093CA018093C9017F
:1040300024E22093C80128E12093C7019E012D5D51
:104040003F4F2737310580F49C01295E3F4F2734CD
:10405000310550F42091280130912901482F6C2F0F
:104060008CE395E00E943C2B1092D30136E0F32EB6
:10407000C091D301C530E0F5FC9EE0011124C3548A
:10408000DB4F888199810E949B178C019093CC0112
:104090008093CB018A819B810E94AF179093CA01C4
:1040A0008093C90104351105ECF42C8130E0319581
:1040B0002195310920173107ACF48033910594F430
:1040C0002D8130E03195219531092817390754F4B5
:1040D00020911E0130911F01482F602F8CE395E045
:1040E0000E943C2B8091D3018F5F8093D301C0CF7E
:1040F000DF91CF911F910F91FF900895DF92EF9282
:10410000FF920F931F93CF93DF931092D30179E027
:10411000D72EE090D3018091C401E81608F057C073
:10412000F12CDE9CE001DF9CD00D1124CA5CDB4F3A
:10413000888199810E949B178C019093CC01809378
:10414000CB018A819B810E94AF179093CA01809313
:10415000C90104351105ACF52C8130E0319521956C
:104160003109201731076CF58033910554F52D8105
:1041700030E03195219531092817390714F52F8141
:1041800021110AC02885263038F0EE81F0E0EE0FCC
:10419000FF1FE65FFE4F0DC0DE9CF001DF9CF00DBF
:1041A0001124EA5CFB4FE681F0E0EE0FFF1FE25EB8
:1041B000FE4F20813181482F602F8CE395E00E94D3
:1041C0003C2B8091D3018F5F8093D301A2CFDF91ED
:1041D000CF911F910F91FF90EF90DF900895DF92A4
:1041E000EF92FF920F931F93CF93DF931092D3011F
:1041F000CAE0DC2EE090D3018091C501E81608F0FA
:1042000057C0F12CDE9CE001DF9CD00D1124C65F6D
:10421000DC4F888199810E949B178C019093CC017F
:104220008093CB018A819B810E94AF179093CA0132
:104230008093C90104351105ACF52C8130E031952E
:1042400021953109201731076CF58033910554F51C
:104250002D8130E03195219531092817390714F562
:104260002F8121110AC02885263038F0EE81F0E038
:10427000EE0FFF1FE65FFE4F0DC0DE9CF001DF9CDE
:10428000F00D1124E65FFC4FE681F0E0EE0FFF1F1A
:10429000E25EFE4F20813181482F602F8CE395E054
:1042A0000E943C2B8091D3018F5F8093D301A2CFDA
:1042B000DF91CF911F910F91FF90EF90DF900895C4
:1042C000CF92DF92EF92FF920F931F93CF93DF93E2
:1042D0001092D301DCE0FD2ECCEEDFEFE090D301B5
:1042E000F3E1FE1508F4CAC02E2D30E0F29EF00175
:1042F000F39EF00D1124E65EFD4F878181110AC007
:104300008085883038F0883108F0B2C08370823000
:1043100009F0AEC0F29E8001F39E100D1124065EDE
:104320001D4FF801808191810E949B176C01909331
:10433000CC018093CB01F801828193810E94AF1759
:104340009093CA018093C901F8E6CF16D104ACF46A
:10435000F8012481AE01421B51094C155D056CF436
:104360008434910554F42581FE01E21BF109E8171C
:10437000F9071CF48E2D0E948C116091CB01709175
:10438000CC01643571050CF073C0E091D301FE9E41
:10439000F0011124E65EFD4F848190E091958195B6
:1043A0009109861797070CF063C04091C90150919D
:1043B000CA01403351050CF05BC0858190E09195B6
:1043C00081959109841795070CF052C0868181115F
:1043D00013C08781882359F082858250843020F46D
:1043E000EE24E39400E005C02FE23AE03DC0E12C6A
:1043F00001E02FE23AE020C0828590E0883091050C
:10440000B8F5FC01E45BFF4F0C944E3A2091320169
:104410003091330129C0209134013091350124C0FD
:1044200020913601309137011FC020913401309125
:104430003501EE24E39400E08CE395E00E94BC2B70
:1044400017C02091320130913301F3CF20913A010E
:1044500030913B01EECF209138013091390104C0F9
:1044600020913A0130913B018CE395E00E943C2B76
:104470008091D3018F5F8093D30130CFDF91CF91B3
:104480001F910F91FF90EF90DF90CF9008950F93C1
:10449000CF93DF9398E0899FE0011124CD58DE4F40
:1044A00000E020E04E8160E083E195E00E94D73299
:1044B00020E0488161E083E195E00E94D7322C81C1
:1044C00021954D8162E083E195E00E94D7322A81F7
:1044D0002A534B8163E083E195E00E94D73220E0CC
:1044E0004F81698183E195E0DF91CF910F910C9429
:1044F0000833EF920F93CF938091E504813009F058
:104500004AC180E00E9447228091DB049091DC0444
:104510000E944517C82F482F50E05093CC0140937C
:10452000CB018091DD049091DE040E945217E82FA8
:10453000F0E0F093CA01E093C9014091DF045527F0
:1045400047FD5095652F752F4830510508F023C160
:10455000FA01EC5AFF4F9091CF0193700C944E3AB0
:1045600091110DC020E12C0F9091E304482F491BBD
:1045700066E06C0F082F8CE395E00E94E328209101
:10458000CF018BEA289F812D11248695982F990FB2
:10459000980F291B8AE0289F90011124235E344F35
:1045A0004091C90144506091CB01645FEDC091110D
:1045B0000FC005E0080F28E02C0F9091E304482F6E
:1045C000491B4F5F63E06C0F8CE395E00E94E3288A
:1045D0008091CF0163E00E94D9398AE0989F9001D1
:1045E0001124235E344F4091C9014F5FCAC091111D
:1045F0000CC008E0080F9091E304482F491B2C2FB2
:104600006C2F8CE395E00E94E3288091CF0163E05A
:104610000E94D9398AE0989F90011124235E344F7B
:104620004091C9014C5F6091CB016450ADC09111C4
:104630000FC005E0080F28EF2C0F9091E304482FDE
:10464000491B4F5F6DEF6C0F8CE395E00E94E328F0
:104650008091CF0163E00E94D9398AE0989F900150
:104660001124235E344F4091C9014F5F40C0911126
:104670000DC020EF2C0F9091E304482F491B6AEFE7
:104680006C0F082F8CE395E00E94E3288091CF0106
:1046900063E00E94D9398AE0989F90011124235E3B
:1046A000344F4091C90144506091CB01645142C0E4
:1046B00091110FC00BEF080F28EF2C0F9091E3041E
:1046C000482F491B42506BEF6C0F8CE395E00E9422
:1046D000E3288091CF0163E00E94D9398AE0989F56
:1046E00090011124235E344F4091C90149506091DB
:1046F000CB016C501FC091110CC008EF080F9091B6
:10470000E304482F491B2C2F6C2F8CE395E00E946B
:10471000E3288091CF0163E00E94D9398AE0989F15
:1047200090011124235E344F4091C9014C50609197
:10473000CB016450EE24E39400E08CE395E00E940A
:10474000BC2B29C091110FC00BEF080F28E02C0FD4
:104750009091E304482F491B425065E06C0F8CE3B5
:1047600095E00E94E3288091CF0163E00E94D9394F
:104770008AE0989F90011124235E344F4091C90133
:1047800049506091CB016C5F8CE395E0CF910F9124
:10479000EF900C943C2BCF910F91EF900895EF92F6
:1047A000FF921F93CF93DF931F92CDB7DEB7109286
:1047B000D30117E0E091D301EA3008F053C01E9F07
:1047C000F0011124EC52FE4F8681882309F444C085
:1047D000813019F480E00E9447228091D301189F14
:1047E00070011124C7018C529E4F7C01FC01818114
:1047F00092810E949B17682F8093CB019093CC01EC
:10480000F7018381948169830E94AF178093C90166
:104810009093CA01482F69818CE395E00E94770844
:104820006091CB016F5F4091C9018CE395E00E94DC
:1048300077084091C9014F5F6091CB016F5F8CE3B6
:1048400095E00E9477084091C9014F5F6091CB01CC
:104850008CE395E00E9477088091D3018F5F80936D
:10486000D301A8CF0F90DF91CF911F91FF90EF90D0
:104870000895EF92FF920F931F93CF93DF931F92B0
:10488000CDB7DEB78091E904813099F58091E304DA
:1048900081112FC08091EB048B3058F581E00E948C
:1048A00047228091DB049091DC040E944517082F79
:1048B00010E0025011091093CC010093CB018091BC
:1048C000DD049091DE040E945217282F30E03093CF
:1048D000CA012093C9012091EB049EE0299F900119
:1048E00011242B58354F482F602F8CE395E00E9400
:1048F0003C2B1092D3011AE00EE0E091D30180919D
:10490000C501E81708F0FCC01E9FF0011124E65F06
:10491000FC4F87818111EEC080858C3008F0EAC0A1
:1049200081E00E9447228091D301189F70011124D9
:10493000F701E65FFC4F7F01808191810E949B1708
:10494000682F8093CB019093CC01F70182819381F2
:1049500069830E94AF17AC01445051095093CA01BA
:104960004093C901F7012085029F900111242B5823
:10497000354F69818CE395E00E943C2BE091D30197
:104980001E9FF0011124E65FFC4F8681843009F000
:10499000B1C02085029F900111242B58354F4091C2
:1049A000C901415F6091CB016E5F8CE395E00E948D
:1049B0003C2BE091D3011E9FF0011124E65FFC4FD8
:1049C0002085029F900111242B58354F4091C90139
:1049D0004F5F6091CB01665F8CE395E00E943C2BBA
:1049E000E091D3011E9FF0011124E65FFC4F20856A
:1049F000029F900111242B58354F4091C901495E07
:104A00006091CB01625F8CE395E00E943C2BE091CA
:104A1000D3011E9FF0011124E65FFC4F2085029F09
:104A2000900111242B58354F4091C9014E5F609180
:104A3000CB01655E8CE395E00E943C2BE091D301B5
:104A40001E9FF0011124E65FFC4F2085029F90011C
:104A500011242B58354F4091C901445E6091CB0120
:104A6000625E8CE395E00E943C2BE091D3011E9F97
:104A7000F0011124E65FFC4F2085029F9001112474
:104A80002B58354F4091C9014B5E6091CB01625D5F
:104A90008CE395E00E943C2BE091D3011E9FF00136
:104AA0001124E65FFC4F2085029F900111242B58B2
:104AB000354F4091C9014E5F6091CB01675C8CE33B
:104AC00095E00E943C2BE091D3011E9FF001112440
:104AD000E65FFC4F2085029F900111242B58354F33
:104AE0004091C901465E6091CB01615C8CE395E029
:104AF0000E943C2B8091D3018F5F8093D301FDCE28
:104B00001092D30119E00EE0E091D3018091C4012D
:104B1000E81708F0FDC01E9FF0011124EA5CFB4F6E
:104B200087818111EFC080858C3008F0EBC081E077
:104B30000E9447228091D301189F70011124C70160
:104B40008A5C9B4F7C01FC01808191810E949B17B4
:104B5000682F8093CB019093CC01F70182819381E0
:104B600069830E94AF17AC01445051095093CA01A8
:104B70004093C901F7012085029F900111242B5811
:104B8000354F69818CE395E00E943C2BE091D30185
:104B90001E9FF0011124EA5CFB4F8681843009F0EE
:104BA000B1C02085029F900111242B58354F4091B0
:104BB000C901415F6091CB016E5F8CE395E00E947B
:104BC0003C2BE091D3011E9FF0011124EA5CFB4FC6
:104BD0002085029F900111242B58354F4091C90127
:104BE0004F5F6091CB01665F8CE395E00E943C2BA8
:104BF000E091D3011E9FF0011124EA5CFB4F208558
:104C0000029F900111242B58354F4091C901495EF4
:104C10006091CB01625F8CE395E00E943C2BE091B8
:104C2000D3011E9FF0011124EA5CFB4F2085029FF7
:104C3000900111242B58354F4091C9014E5F60916E
:104C4000CB01655E8CE395E00E943C2BE091D301A3
:104C50001E9FF0011124EA5CFB4F2085029F90010A
:104C600011242B58354F4091C901445E6091CB010E
:104C7000625E8CE395E00E943C2BE091D3011E9F85
:104C8000F0011124EA5CFB4F2085029F9001112462
:104C90002B58354F4091C9014B5E6091CB01625D4D
:104CA0008CE395E00E943C2BE091D3011E9FF00124
:104CB0001124EA5CFB4F2085029F900111242B58A0
:104CC000354F4091C9014E5F6091CB01675C8CE329
:104CD00095E00E943C2BE091D3011E9FF00111242E
:104CE000EA5CFB4F2085029F900111242B58354F21
:104CF0004091C901465E6091CB01615C8CE395E017
:104D00000E943C2B8091D3018F5F8093D301FCCE16
:104D10001092D3011CE00EE08091D301843108F0A1
:104D200043C0189F70011124C701865E9D4F7C010E
:104D3000FC018781811132C080858C3078F58081BB
:104D400091810E949B179093CC018093CB01F70136
:104D5000828193810E94AF1704979093CA01809338
:104D6000C901F70186818130C9F40E944722E09190
:104D7000D3011E9FF0011124E65EFD4F2085029FA6
:104D8000900111242B58354F4091C9014350609137
:104D9000CB016B5F8CE395E00E943C2B8091D301AB
:104DA0008F5F8093D301B8CF0F90DF91CF911F9188
:104DB0000F91FF90EF9008958EEE94E00E944F2F98
:104DC000882379F18091CE01813019F0823029F069
:104DD00008950E94131A0C94E80F0E945E1C0E9412
:104DE0007E200E94EF200E9460210E94521A0E94A1
:104DF00079220E94CF230E94CC190E9453180E944E
:104E000039240E945F160E94E80F0E945E150E94DE
:104E10008E150E9401150E9424170E941D120C94E9
:104E2000C317089510923F0510923E0587EA91E05E
:104E300090933D0580933C050895CF93CFB7F894A8
:104E400080917405811127C0EFE6F0E18491EBE5D4
:104E5000F0E19491E82FF0E0EE0FFF1FE357FF4ED3
:104E6000A591B4918C91892321F461E08AE00E949C
:104E7000003761E08AE00E94C7368CB580618CBD46
:104E80008CB580648CBD61E08DE00E94C73661E026
:104E90008BE00E94C736809174058F5F8093740504
:104EA000CFBFCF91089521E0FC012083089570E0E9
:104EB00085E00C943F36AF92BF92CF92DF92EF9293
:104EC000FF920F931F93CF93DF93EC0189819A8117
:104ED0002FE0289F8001299F100D112485E10E9459
:104EE0002236800F911F24E0969587952A95E1F749
:104EF0009A8389832881222391F1AC81AD80B12CE2
:104F0000C12CD12CE885F9857F0100E010E06E818D
:104F10007F819B0140E050E08617970728F0BC0195
:104F2000E817F90708F4BF0180E090E01F921F9294
:104F30001F92AF930E9464386B830F900F900F9075
:104F40000F9070E085E0DF91CF911F910F91FF905E
:104F5000EF90DF90CF90BF90AF900C943F36DF91F1
:104F6000CF911F910F91FF90EF90DF90CF90BF9066
:104F7000AF900895FC018CE39FE09383828384E0EB
:104F8000818381E084870895CF93DF93EC018C8542
:104F90008F7151F584E10E942236BC01882777FD8C
:104FA0008095982F0E94DA3826EE3FE34EEC50E4CD
:104FB0000E9466390E94AC389B017B836A8361152D
:104FC000710581F084E08983FE0140E08481958150
:104FD0002817390710F449830AC04F5F32964430CE
:104FE000A9F702C08FEF89838C858F5F8C87DF9153
:104FF000CF910895FC0188E0808389E0818387E078
:10500000828386E0838384E0848382E0858381E1F8
:1050100086830895DF92EF92FF920F931F93CF93B1
:10502000DF937C01EC0100E010E0DD24DA9462E023
:1050300088810E94C73688810E943637F701E00FC9
:10504000F11F892B21F487818F5F878308C08781B7
:10505000882349F08F3F11F4178201C0D78260E0A6
:1050600088810E94C7360F5F1F4F219607301105B8
:10507000F1F6DF91CF911F910F91FF90EF90DF90AC
:105080000895FC01E60FF11D81E09781913009F050
:1050900080E00895262F30E0FC01E20FF31F8781A6
:1050A000423028F481508E3F48F080E008958F3FD1
:1050B000E1F3642F0E94D9399130B9F781E0089566
:1050C0008EBD00000DB407FEFDCF8EB508951F9371
:1050D000CF93DF93EC01162FF89460E08E850E9449
:1050E00000378F8518161CF460E00E940037812F6E
:1050F0000E9460288F8518161CF461E00E9400371A
:105100007894DF91CF911F91089528EF31E0E5E782
:10511000F5E0DF01A9011D9241505040E1F7DC01AB
:1051200019961C9219971A961C920895DF92EF9285
:10513000FF920F931F93CF93DF93EC0185E7E82E47
:1051400085E0F82ED12C6D2D6064CE010E94672879
:1051500060E8CE010E94672861E08E850E940037DA
:105160008F8518161CF460E00E94003700E010E004
:10517000F701E00FF11F80810E9460280F5F1F4F31
:1051800004351105A9F78F8518161CF461E00E94FB
:105190000037D39484E5E80EF11C86E0D812D3CF13
:1051A00060E4CE01DF91CF911F910F91FF90EF90BE
:1051B000DF900C946728FC01678F60A30895FC01C1
:1051C000678F40A30895AF92BF92CF92DF92EF9284
:1051D000FF920F931F93CF93DF93EC01162FF42EC2
:1051E000E22EA02FBB27A7FDB095A41BB10947FD58
:1051F000B395B7FF03C0B195A195B109EE2DFF2777
:10520000E7FDF095E11BF10917FDF395F7FF03C0EA
:10521000F195E195F109BB24B394EA17FB0714F06B
:10522000B12C06C08E2DE02E082F812F1F2DF82EB9
:10523000E11634F48F2DF02E082F812F1E2DE82E2D
:10524000CE2CC11AE02FFF27E7FDF095EF19F109E9
:10525000F7FCF395F7FF03C0F195E195F109AE2E48
:10526000DC2CC7FE03C0DD24D394DC0CD594F016EF
:1052700014F401E00FC00FEF0DC0BB2071F0412FFF
:105280006F2DCE010E947708DA18D7FE02C0F00E0B
:10529000DC0C1F5FE1168CF703C04F2D612FF1CF9F
:1052A000DF91CF911F910F91FF90EF90DF90CF9002
:1052B000BF90AF9008950F93022F0150040F262F37
:1052C0000E94E3280F910895DF92EF92FF920F93CF
:1052D0001F93CF93DF937C01D42E162FC22FDD278F
:1052E000C7FDD095C60FD11D67FDDA95812F99278F
:1052F00087FD90958C179D0744F4202F4D2D612F2D
:10530000C7010E945B291F5FF1CFDF91CF911F91F1
:105310000F91FF90EF90DF9008950F932150260F8B
:10532000042F0E94E3280F910895EF92FF920F93AC
:105330001F93CF93DF93EC01F62E142FE22E0E94E1
:105340008D294FEF400F410F2E2D6F2DCE010E9462
:105350008D29202F412F6F2DCE010E945B296FEFE9
:105360006E0D6F0D202F412FCE01DF91CF911F9138
:105370000F91FF90EF900C945B298F929F92AF92C8
:10538000BF92CF92DF92EF92FF920F931F93CF9332
:10539000DF93EC01E62ED42E122FCC24C394C21A34
:1053A000B22EB194BB0CF12C802F8470A82E802FCC
:1053B0008270982E802F8870882E0170F1160CF064
:1053C0004DC0C7FC04C01150B394B394CB0CF394FC
:1053D0008F2D880F8F5FC80EAA2071F0412F4D0DC1
:1053E0006F2D6E0DCE010E9477084F2D4D0D612F50
:1053F0006E0DCE010E947708992071F04D2D411B52
:105400006F2D6E0DCE010E9477084D2D4F19612F23
:105410006E0DCE010E947708882071F04F2D4D0D42
:105420006E2D611BCE010E947708412F4D0D6E2D10
:105430006F19CE010E947708002309F4BFCF4D2DCC
:105440004F196E2D611BCE010E9477084D2D411B17
:105450006E2D6F19CE010E947708B0CFDF91CF91EA
:105460001F910F91FF90EF90DF90CF90BF90AF9082
:105470009F908F9008958F929F92AF92BF92CF92FC
:10548000DF92EF92FF920F931F93CF93DF93EC0184
:10549000B62EA42E122FDD24D394D21AC22EC1947C
:1054A000CC0CFF24F394802F8170882E9924939440
:1054B0009E0C02708FEF8F0D8117C4F5D7FC04C0CE
:1054C0001150C394C394DC0C8F2D880F8F5FD80EBE
:1054D000882099F0212F220F290D4A2D411B6F2D75
:1054E0006B0DCE010E945B2923E02E0D4A2D4F1932
:1054F000612F6B0DCE010E945B29002399F0212FB3
:10550000220F290D4A2D411B6B2D6F19CE010E94D0
:105510005B2923E02E0D4A2D4F196B2D611BCE0107
:105520000E945B29F394E394E394C4CFDF91CF917D
:105530001F910F91FF90EF90DF90CF90BF90AF90B1
:105540009F908F9008959F92AF92BF92CF92DF92DB
:10555000EF92FF920F931F93CF93DF93EC01B62E40
:10556000F42EA22EDE2CD194DD0C9D2C920E1E2D3D
:10557000160F292D612F0E948D29CC24CA94C00EAC
:10558000CF0C292D4C2D612FCE010E948D29D00EDC
:10559000FE0C2D2D4F2D6B2DCE010E945B29BA0CD8
:1055A0006FEF6B0D2D2D4F2DCE010E945B2901E079
:1055B0002E2D4F2D612FCE010E94BD29DE2CD094BF
:1055C000DB0C02E02E2D4F2D6D2DCE010E94BD294A
:1055D000CE1804E02E2D4C2D6D2DCE010E94BD293C
:1055E00008E02E2D4C2D612FCE010E94BD29DF91A8
:1055F000CF911F910F91FF90EF90DF90CF90BF90D0
:10560000AF909F900895AF92BF92CF92DF92EF92AA
:10561000FF920F931F93CF93DF93EC01A62EC42E1E
:10562000B22EF02E1E2DE194EE0CD12ED60E2E2D84
:105630002B0D6D2D0E946429FA94FE0CC10E6FEFA4
:105640006A0D6B0D611BEF2C01E0212F4C2DCE015B
:105650000E943B2A02E0212F4C2D6D2DCE010E948D
:105660003B2ADF91CF911F910F91FF90EF90DF9038
:10567000CF90BF90AF9008952F923F924F925F923C
:105680006F927F928F929F92AF92BF92CF92DF9252
:10569000EF92FF920F931F93CF93DF931F92CDB79B
:1056A000DEB78C01862E942EF901749031966490A9
:1056B0007901F2E0EF0EF11C872D992787FD909577
:1056C000DC011796B7FD17966D0193E0D594C7944A
:1056D0009A95E1F7212C312C512C20E8A22EB12CE7
:1056E0005614B4F520E0452C490C27156CF5822F93
:1056F00027FF02C087E0820F859585958595F1018A
:10570000E80FF11D87FDFA95EE0DFF1DE491F0E025
:10571000A22FA778A7FF03C0A150A86FAF5FC50154
:1057200002C095958795AA95E2F7DC01AE23BF23C9
:10573000AB2B41F0442D622F680DC80129830E94D4
:10574000770829812F5FD1CF53942C0C3D1CC8CFF3
:105750000F90DF91CF911F910F91FF90EF90DF900D
:10576000CF90BF90AF909F908F907F906F905F9001
:105770004F903F902F9008952F923F924F925F92BB
:105780006F927F928F929F92AF92BF92CF92DF9251
:10579000EF92FF920F931F93CF93DF9300D000D02F
:1057A00000D0CDB7DEB76C01762E642E01111CC07F
:1057B000E1101AC026960FB6F894DEBF0FBECDBF1B
:1057C000DF91CF911F910F91FF90EF90DF90CF90DD
:1057D000BF90AF909F908F907F906F905F904F9011
:1057E0003F902F900C943C2BF901449031962490DB
:1057F0005901F2E0AF0EB11C302F3370842D992780
:1058000087FD90954C0127E0820E911C97FE04C005
:105810004C01EEE08E0E911C43E0959487944A95DE
:10582000E1F733243A94320C1E821D82F12C5FEF93
:10583000540D00E810E0F2140CF064C0552E20E086
:1058400024150CF056C0822F27FF02C087E0820F7C
:10585000859585958595ED81FE81E80FF11D87FD84
:10586000FA95EA0DFB1DE491F0E0A22FA778A7FFBF
:1058700003C0A150A86FAF5FC80102C0959587957E
:10588000AA95E2F7DC01AE23BF23AB2B79F13230CE
:1058900039F0333041F0313049F4452D6F2D08C0D7
:1058A000652D432D05C0632D422F02C04F2D622F61
:1058B000EE2069F07E2D7370E0FE03C0942D961BE0
:1058C000692FE1FE05C0E22DE41B4E2F01C070E000
:1058D000670D460DC6012A833B835C8379830E9452
:1058E00077087981E72E5C813B812A812F5F5A946A
:1058F000A7CFF3948D819E81880D991D9E838D8302
:105900003A9499CF26960FB6F894DEBF0FBECDBF5E
:10591000DF91CF911F910F91FF90EF90DF90CF908B
:10592000BF90AF909F908F907F906F905F904F90BF
:105930003F902F900895DC01FB0184918F5F1496B6
:105940008C9314973196E491EF5F1596EC9315972D
:105950006E5F7F4F5E967C936E935D970895EF9296
:105960000F93CF93DF93EC014D876C872E87E88AE6
:105970000F8781E088878F8F18A28F8365E67DE08F
:10598000CE010E949B2C0E941D278CB58F7D8CBD63
:105990008CB58C7F81608CBD8DB581608DBD8CB5E3
:1059A0008C608CBD61E08D850E94C73661E08C857E
:1059B0000E94C73661E08E850E94C7368889181616
:1059C0001CF461E00E94C7368F8518161CF461E054
:1059D0000E94C736888918166CF460E00E94003770
:1059E0006AE070E080E090E00E94BF3561E0888965
:1059F0000E9400378C85992787FD9095FC01EB5913
:105A0000FF4EE491F0E0EE0FFF1FED57FF4E2591A2
:105A100034913C8B2B8BFC01EF5AFF4E84918A8F83
:105A20008D85992787FD9095FC01EB59FF4EE491F8
:105A3000F0E0EE0FFF1FED57FF4E259134913A8BAA
:105A4000298BFC01EF5AFF4E8491898F8F8599270E
:105A500087FD9095FC01EB59FF4EE491F0E0EE0FCD
:105A6000FF1FED57FF4E259134913E8B2D8BFC018E
:105A7000EF5AFF4E84918B8F8E85992787FD9095E5
:105A8000FC01EB59FF4EE491F0E0EE0FFF1FED57E4
:105A9000FF4E25913491388F2F8BFC01EF5AFF4E2A
:105AA00084918C8F61E2CE010E94672864E1CE016F
:105AB0000E9467288B8587FF02C08FE78B876B85E5
:105AC0006068CE010E94672860E2CE010E946728CC
:105AD0006CE0CE010E946728CE01DF91CF910F913B
