:100000000C94C8080C94F0080C94F0080C94F008B8
:100010000C94F0080C94F0080C94F0080C94F00880
:100020000C94F0080C94F0080C94F0080C94B5387B
:100030000C94F0080C94F0080C94F0080C94F00860
:100040000C9412390C94F0080C94F0080C94F008FD
:100050000C94F0080C94F0080C94F0080C94F00840
:100060000C94F0080C94F008751480148B149614FA
:10007000A614B314BE14C91469186C186F18761836
:100080007F18861889189018031B251B471B6B1BAC
:10009000901BB51BD81BFC1B49234E23532358230D
:1000A000642369236E237323422669268926A926A1
:1000B000C926EA260D273427100E021802300260E6
:1000C00007C00A7E163F103D10793FF37FE6FFCC54
:1000D000FF98FFF071C0100E008000800FF81F7CA9
:1000E0001F7C1E3C1C5C1C5C1E3C1FFC1FFC1FFC80
:1000F00013E41E3C100E02003FF83DF83C783838FF
:10010000383839383D783EF83EF83EF83EF827C892
:100110003C78100E02000200020003E0FE10FC0812
:10012000BC689E38CFEC67F633FB19FF0FFF038ED8
:10013000100E080008000980067F0820383C3FFEAA
:100140003FFE3FFE200215540FF800000000080A91
:1001500000000020704468D47AFE080A7CFE447CCB
:100160007C446C546C4420200000000006000050C9
:1001700009000212055C01000914000071AA400C7C
:1001800041550A207EFF8104558040125091200085
:10019000519521E44A911AB84D800D506EFFFABE78
:1001A000160187565A0362BC9701C1501A813AB0B2
:1001B000158003503EFE0EF80155F50401AAAB244C
:1001C0000F57D51435F7FF286B1F8148D519E1E487
:1001D000AB3FF15CD563D124791FD14449F7FF24AB
:1001E000C11401147F0C01FC2020080000203E00F7
:1001F00000F84900012441FFFF04E155550E41AAD2
:10020000AB04415555047EFFFEFC558003545A91C2
:1002100012B4559113545A9112B4558003547AFF75
:10022000FEBC158003501A8002B0158003501A805E
:1002300002B0158003503EFFFEF84155550441AA17
:10024000AB04E155550E41FFFF04490001247F0F27
:10025000E1FC4917D1244117D1044917D12449FFA2
:10026000FF24410001047F0001FC48290000000038
:1002700000000000000A0000000520000000060049
:10028000000018B000092404200000086014049243
:100290000414000006400809242678000002C0006B
:1002A00005963BC02800038040092C0F80100003F6
:1002B000804404920300000003815509FC03000000
:1002C000000380FF8DFA0300000200008109240072
:1002D000000006000CAD049E0000000A0002AD0FF5
:1002E000260002101AA800A26C9200412012AA1047
:1002F000FC092400195823FF060200000906002A01
:10030000022480000000BFE46ADA0000000000E080
:1003100020EADA0000000001A431AA028000000AED
:10032000283FEAFFFE40000004106180400000000A
:100330000000008C461404002060000005109002AC
:1003400000326800001081E3C0002DFC00001000A6
:100350008420282022080330800BD0102DAF1001FC
:10036000E4800BD0002DAE800187800C30002C2E55
:100370009C01C3000BD001BFFF8000E600042141B7
:10038000000000007E0003C3C0008058003C014014
:1003900007E006608A003C008007F0480286003CC7
:1003A00000000208800184003C0000029E0000CC96
:1003B000003E000001AA000068145500002282805F
:1003C00014380800000073FE200830000000000010
:1003D0000000003000000000000000000048290E6E
:1003E0000000080FE00000001BC0001C15500000BA
:1003F00000157000082AB00009242AA8000835500A
:100400001404925558001C2AB00809246AAC001C38
:1004100015500004923554283E0FE07E09241AB886
:10042000103E0380FF049207C0007F0381FF8924F0
:100430000300007F0381FF849203000022000081FB
:100440000924001E00220000AD0492003F002A0093
:1004500000AD09240073802BFC00A10492006DE024
:1004600023FE00FF0924002DF023FF000000000000
:1004700020202A0200000000002DA02ADA001FC060
:1004800000002DB02ADA003FE000002C282A0200EC
:100490007FF00A283FF43FFE007FF00410000000C8
:1004A00000002020000000000000002DA000007CC3
:1004B000000000002DBF8001AA0003C000203FC043
:1004C0000155800420282020C002AA800BD0102DC6
:1004D000AE800355400BD0002DAE8002AAC00C3078
:1004E000002C2E800355400BD0003FFFB802AAC05D
:1004F0000421FC00005601558003C3FE0001AB003F
:10050000FF014007FF000155003C008007FF00028B
:10051000AB003C00000202000355003C000002BAA0
:100520000002AB003E000002BA0001561455000064
:1005300002820014FC0800000003FE0008300000E6
:10054000000000000000300000000000000000007B
:10055000482980000000000007F8FF000007C000E5
:10056000000110110080046000000FFCFF100985DD
:10057000E0000011101108812570004010000100FA
:1005800000051820E01280013000078C2040128006
:1005900028025864EC20E013C02803FFFD7C206192
:1005A00013C07826C1643C00601140786630758CB9
:1005B00020E01060510E98258420E40000C1420024
:1005C000E58420E210000107FFE7FC20E00782003D
:1005D00015000000006011C3C100020000000017F8
:1005E00080F100096400000011E1C1080000000072
:1005F000001020F10C02001E000010000108008015
:100600002100000F9C3F0C00005E80000150110C87
:1006100000005E80033FFE1F1C000061800011117E
:10062000111C00005E80000000001C000021000082
:100630000000001C1C1E1E00000000001C222200E6
:1006400000000000000C5FFB00000000000000A79D
:10065000E500000002000000A6E20000001E00000D
:1006600000FE3C0000003E0000008388010600669A
:10067000102000A2A8010001EE3010088038000010
:10068000039E003000337E70000372007806BB7951
:10069000502003CA009410B0FF49589B8261320079
:1006A000FFF831EF02C2003A00000007D582C21CF9
:1006B0003810080026C682C2061800000003FF0397
:1006C000FE001848298000000000001FFFFF03FF04
:1006D000E7FC00001111110200240600181FFFFFA3
:1006E00002FFA5F500EE1111110280A516C15510EB
:1006F000C0010280A51562AA90500D03FFE7FEA578
:10070000555078290200240566ACD0787902AAA554
:1007100056A57450287902002405666C10285102F1
:10072000CC2584E5A410005102CC258420A0100023
:100730000102C0258420A010330103FFE7FC20A0A4
:1007400010A14100000000006011E1E10300000081
:10075000000011E1E11DC0000000001140A12AB01D
:10076000000000001140A15550001E0000100001C3
:10077000AAA8802100001FFFFFD598005E8000110D
:100780001111AE88005E80001FFFFFCD80006180E8
:10079000001111119480005E800000000014000020
:1007A00021000000000014FFFE1E000000000014E5
:1007B00080020000000000000CBFFF0000000000ED
:1007C0000000A00103FE03FE00C000A0010202021F
:1007D0000203B800FFFF02FB8EFA055400800902F5
:1007E0008B768A0AAA00AAAF028AAA8A15550080C7
:1007F0000903FF57FE19AB00B30F0202AA021175DD
:1008000000B30902AB56AA01B300B00F0203AE0257
:10081000012900FFF802C272C2002800000002C2D3
:1008200002C2002800080002C202C2002800000024
:1008300003FE03FE00301016101010105410AA0012
:1008400054008A8814449280500E0000000000007A
:1008500000400000400020141080000012008A12A6
:100860008290ECFE10161010383854549292AAAAB6
:10087000C6C692929292FEFE0000000000000000A8
:100880001010383854549292AAAAC6C68282828224
:10089000FEFE10151F0035F06AAC55562AAA355ECB
:1008A0000FE00640034E01D57DCAABFC57E039C0CE
:1008B0000DC007C003C001C001C001C003E010119A
:1008C0000F0035C06AB0D550AAA8D554AAAC55546B
:1008D000BAACDDD46FA837501FE0078007000700CF
:1008E0000F80101002000200070005000A8015406A
:1008F0002A8015406A8015702AA05750FFF807001B
:1009000007000F80281800040030202004005860E1
:10091000200A0068A050150058E0A80A006CB050EA
:100920001F00D550F80400A9B02000015950002C38
:1009300001A9B0105C00D950188C00A8E02906006D
:1009400070405B1980204069186021005966B10031
:10095000806D66A142A055062001406DFFEFFD406D
:1009600054001006406C002201C05408402060383A
:100970000A908410102C8003E0101C7FFC000808F3
:1009800005A240000A0450200E090C001E001700AA
:100990002B8037E06BF0D5F8AAFCFFFC080C0404B0
:1009A0008CA8F8606870206070F8080802004004A5
:1009B0000020040028180000C000000003B8000058
:1009C0000005540000000AAA0000001555000000B0
:1009D00019AB000000117500000801B300000A0106
:1009E0002900002C402800001C502800000000288E
:1009F00000003FFE3000005555C0FC00AAAAA142ED
:100A000000D55562A1006AFAA490801F07CC9FC050
:100A1000003017F4A00114000000039E0000000144
:100A20001E000000028A000000000A000000080901
:100A300010181858DAFB7F1E1808052592623C1022
:100A4000201A03E000000C1800001004000022022D
:100A50000000401100004001000083E08000AC185D
:100A600080009004BF80AFFABD80D7F5BC80D7F579
:100A7000BB8097F4A78097F4B78097F4BF80FFFFFF
:100A8000A0800000000000000000000600000388B5
:100A900000000250000002600000FFBC7000B03295
:100AA000E000C84A7000CFCCE000201D003F80006D
:100AB00000D540001FABE00075D60000AABC0000C6
:100AC000DD6B0000A7D58000CB7EC00095403FFCC9
:100AD0001D4040020B40FFFF0D4090090940A569F1
:100AE0000280B5490280A6250480FFFF07864002E8
:100AF00000694EFA009F4EAA00E54EFA00BD4E0274
:100B000060A57FFE96660000F9180E38A7000B2C32
:100B1000BD000EBAA5000F3C66000E38180000009C
:100B2000180F01F00003F80007FC000208003E4F18
:100B3000807EAFC0FC47E04000405CE74054E540A9
:100B40005CE74040E04043F8407C07C007FC0010F1
:100B500009AAA800008D880D808F880D808D8800DF
:100B600000AAA80606E0E05CF0E0A0080C00000087
:100B7000000000000000001C2A080C00000000001B
:100B8000000000001C3E3E080C00000000000000B9
:100B9000003E7F7F7F080C0000000000003E7F7F4A
:100BA0007F7F1C080C000000003E7F7F7F7F1C1CA5
:100BB0003E080C00003E7F7F7F7F1C08081C3E081B
:100BC0000C003E7F7F7F7F00000000081C080C00A7
:100BD0001C3E7F7F36000000000008080C00001C4F
:100BE0003E3600000000000000080C0000081C0059
:100BF00000000000000000080C00000008000000D9
:100C00000000000000080C000000000000000000D0
:100C100000000008080000000000081C0008080090
:100C20000000000822140008080000000022084408
:100C30000010071C003E003E00FF80BE801C00220A
:100C4000000F071C003E003600F380BE801C00220F
:100C5000000F071C0022002200F780BE801C00222B
:100C6000001009007803F807FE03FC07F80DC058D0
:100C700000780030001009007802F805F203FC0744
:100C8000F80DC0580068003000100E8000C000C091
:100C900000E000700018000E000F000F80FFE07FE2
:100CA000F037D81BC001C0100E8000C000C000A0EB
:100CB00000700018000E000F000F80FE607E70278D
:100CC0004813C001C010068040C1F0FFF847FC0384
:100CD000FE01FE10068040C1F0BFE847E4033A0180
:100CE000FE08050050A850000F03007003801C0090
:100CF0000F030000FFFE00000F031C0003800070C4
:100D00000F030100038001002804DBFFC5FFE0FAA8
:100D10000049002072004D002023FFC9FFE0482356
:100D200000000000000000000000000000180000AB
:100D300000010000000007C000003E0000000000AD
:100D40007C0201E0000000000007F27F00000000CC
:100D50000000003DE000008020000003DFDF000114
:100D60001B36C0001E0201E0012AA48001F007002A
:100D70003E00B312800700020001000200001800CC
:100D80000700000000000000000D8000000050007F
:100D9000000018C00000501000000018C000009BA8
:100DA000558000003FE000005259000000EFB800FD
:100DB000008A54800001EFBC00000000000001FF29
:100DC000FC00000000000001FFFC000000800000AB
:100DD000FFFFFFF807FBEFF0007FFFFFF00001C00F
:100DE0000000221FC22000794F0000771FC770004B
:100DF00000000000720F827000000000003507053F
:100E000060000000000000FFF8000000000000008B
:100E10007FF0000000000000000200000000000061
:100E200000000200000000000000000000000000C0
:100E30000000000000000000800000000000000032
:100E4000010000210002000400C56310A1444420F9
:100E5000C502FFFFFFFFFFFFFFFFFF03053F213F2D
:100E60001208120A100A0E1C0E0C1E0C141A14166C
:100E70001F161E131E1E1B1E1E1F1E3F213F3A2F34
:100E80003A173D173F213F181F02040A041F0E04A2
:100E9000040E1F0A1F0A0E0E1F04110E2E252E2FE0
:100EA0002A2E262929021F02081F08150E04040EE7
:100EB000150E15151B151B040604040C0400000078
:100EC0000017000300031F0A1F16371A1904130A1C
:100ED000153A000300000E11110E000A040A040E58
:100EE000040030000404040010001804031F111F44
:100EF000121F101D151711151F07041F17151D1F91
:100F0000151D01011F1F151F17151F000A000032B4
:100F100000040A110A0A0A110A040115020E111727
:100F20001E051E1F150A0E110A1F110E1F15111F77
:100F300005010E111D1F041F111F1108100F1F04A2
:100F40001B1F10101F061F1E040F0E110E1F090677
:100F50000E112E1F051A121509011F011F101F0F58
:100F6000180F1F0C1F1B041B031C03191513001F54
:100F700011030418111F00020102202020000102A9
:100F80000C121E1F120C0C12120C121F0C1A14043D
:100F90001E05242A1E1F021C141D1020201D1F08C0
:100FA00014111F101E041E1E021C0C120C3E0A04FB
:100FB0000C123E1E040214160A020F120E101E0E10
:100FC000100E1E081E120C1226281E322A26041E7F
:100FD00021001F00211E040102013F213F0A4E6F24
:100FE0002053442063617264206F720A6E6F204C3C
:100FF0004F414445522E4845580A0A153A457869EA
:1010000074001D20466C617368696E670A20206C4D
:101010006F616465722E2E2E0A0A444F4E275420AB
:101020005455524E204F464621006D560A0A504CE8
:10103000454153450A5455524E204F4646004C4FA9
:101040005720424154544552590A00175344001640
:10105000137800161314001510200015201000003E
:10106000540A03E181867F3E186D830F0F0E0183C2
:10107000866033186DC3198F1803C38E6033186DE3
:10108000E330CF1803C39E603630CDE360CF300627
:10109000C79E7E3E30CDB360CF300CC6F660333095
:1010A000D9B660CF33CFCCF66061B0DB1E60CF30F5
:1010B000D86CE6C061B0DB1E618F19986CC6C06346
:1010C000B19B0E330F0FB078C6FF7E1F1B061E0F9D
:1010D0000500893008023802497868140000F6E8F3
:1010E000DBCFC3B8AEA49B928A827B746E68625CCD
:1010F00057524E4945413E3A3734312E2C29272547
:1011000023211F1D1C1A1917161514131211100F65
:101110000E0D0C0B0A0908070645006801000005C2
:10112000003801680100002F112B110101FF03019C
:1011300001F703000000080002010000030407009B
:10114000000000000000000102040810204080019F
:1011500002040810200102040810200404040404FE
:101160000404040202020202020303030303030055
:1011700000000023002600290000000000250028B0
:10118000002B0000000000240027002A0000A22AF3
:1011900011241FBECFEFD8E0DEBFCDBF11E0A0E02D
:1011A000B1E0ECE1FDE702C005900D92A43FB1076C
:1011B000D9F727E0A4EFB1E001C01D92AE37B20726
:1011C000E1F711E1C0E9D1E104C02297FE010E94DC
:1011D0006E3ECE38D107C9F70E942C3B0C948C3E52
:1011E0000C94000080910102882311F0813061F499
:1011F00081E490E09093DF048093DE048BE290E042
:101200009093E1048093E0041092E5041092E204CC
:101210001092E4041092E30481E08093E6041092BB
:10122000EB0494E19093EA048093E8041092E904BB
:101230001092E7041092EC041092ED041092EF0467
:1012400080E097E0989FF0011124E85FFD4F128243
:10125000118214821382158216828F5F8A3090F376
:1012600080930702089580EF94E00E94D63581E0D4
:101270008093020210920102109200021092FF016C
:101280001092FE01109203020E94F2086EE17DE0CE
:1012900080EF94E00E94583510920805089510924E
:1012A000FD011092FF011092FE018091010288233E
:1012B00021F0813009F44DC40895E5E0E093F60192
:1012C00089E08093F40182E08093F5018CE390E063
:1012D0009093C1048093C00488E290E09093C3048B
:1012E0008093C2043DE03093C40427E02093C504FA
:1012F00081E592E09093C7048093C60489E390E06F
:101300009093C9048093C8043093CA042093CB04FB
:101310008BE891E09093CD048093CC0485E890E035
:101320009093CF048093CE043093D0042093D104C3
:1013300082E091E09093D3048093D20486E291E01E
:101340009093D5048093D4043093D6042093D7048B
:101350008EE290E09093D9048093D80487E392E0E2
:101360009093DB048093DA043093DC042093DD0453
:1013700026E130E0309362042093610480E190E044
:101380009093640480936304F3E0F09365046EE14A
:1013900070E0709367046093660445E150E05093F9
:1013A000690440936804F0936A0430936C042093BA
:1013B0006B044AE150E050936E0440936D04F09347
:1013C0006F042DE430E030937104209370042BE01F
:1013D00030E03093730420937204F09374042BE292
:1013E00030E030937604209375042DE230E03093A2
:1013F000780420937704F093790422E530E0309369
:101400007B0420937A0420E330E030937D04209322
:101410007C04F0937E042BE130E030938004209331
:101420007F0421E530E03093820420938104F0931F
:10143000830424E230E0309385042093840425E57E
:1014400030E03093870420938604F09388042CE1E5
:1014500030E030938A04209389042BE530E0309308
:101460008C0420938B04F0938D0427E630E03093B6
:101470008F0420938E0424E730E03093910420936E
:101480009004F093920420E430E03093940420938D
:1014900093047093960460939504109297046EE001
:1014A00070E0709399046093980430939B042093A8
:1014B0009A0410929C0425E330E030939E0420931C
:1014C0009D0427E730E03093A00420939F041092FE
:1014D000A10424E030E03093A3042093A20423E08D
:1014E00030E03093A5042093A404F1E0F093A60427
:1014F00029E530E03093A8042093A70429E430E0E4
:101500003093AA042093A904F093AB0462E670E040
:101510007093AD046093AC0460E570E07093AF0429
:101520006093AE04F093B00464E570E07093B2048D
:101530006093B1047093B4046093B304E093B50472
:1015400067E070E07093B7046093B6046DE670E0F6
:101550007093B9046093B804E4E0E093BA046EE6D3
:1015600070E07093BC046093BB045093BE0440933E
:10157000BD04E093BF044FE150E050931104409349
:10158000100448E450E050931304409312044AE1DD
:1015900052E050931A044093190430931C04209392
:1015A0001B04909323048093220484E492E090939C
:1015B00025048093240480E059E048E439E224E0E3
:1015C00090E5589FF0011124E05FFB4F4483358381
:1015D0002683108697838F5F833098F381E291E0B2
:1015E00090932C0480932B0484EA90E090932E0433
:1015F00080932D0488E392E0909335048093340423
:1016000084E191E090933704809336048DE791E074
:1016100090933E0480933D0488EC91E090934004C5
:1016200080933F0488E592E09093470480934604BA
:1016300025E032E0309349042093480425E132E06C
:101640003093500420934F0424E132E0309352044D
:10165000209351042FEF31E0309359042093580424
:1016600090935B0480935A0483E059E040E136E1B3
:1016700027E094E1589FF0011124E05FFB4F448381
:1016800035832683108697838F5F893098F38FE5A3
:1016900090E090933F0380933E038EE191E090931E
:1016A0004103809340032DE430E0309349032093BD
:1016B000480384E491E090934B0380934A0385E7C9
:1016C00090E0909353038093520388E591E09093C8
:1016D00055038093540386E890E090935D038093D4
:1016E0005C0380E391E090935F0380935E038DE75A
:1016F00091E0909367038093660386E290E0909375
:1017000069038093680384EB91E090937103809365
:10171000700345E150E0509373034093720341EA34
:1017200051E050937B0340937A0330937D032093E1
:101730007C032DE831E030938503209384032CE86B
:1017400031E030938703209386032AE731E030931A
:101750008F0320938E032CEA31E030939103209382
:1017600090032DE931E0309399032093980328ECFE
:1017700031E030939B0320939A0323EC31E03093C4
:10178000A3032093A20328EA31E03093A50320931A
:10179000A4039093AD038093AC038FE891E0909302
:1017A000AF038093AE0380E692E09093B7038093FB
:1017B000B60388E292E09093B9038093B8038AE479
:1017C00092E09093C1038093C0038AE292E09093E9
:1017D000C3038093C2038CE292E09093CB03809387
:1017E000CA0384E392E09093CD038093CC0386E216
:1017F00092E09093D5038093D40389E492E0909390
:10180000D7038093D60383E292E09093DF03809323
:10181000DE0381E692E09093E1038093E00380E0B1
:101820009AE047E038E024E1989FF0011124E25C5F
:10183000FC4F4483958336831086278311868F5F00
:10184000813190F38EE590E09093E9038093E80373
:101850008EE291E09093EB038093EA0381E991E0BB
:101860009093F3038093F20324E230E03093F50386
:101870002093F4039093FD038093FC038BE991E0A4
:101880009093FF038093FE0381E492E0909307041A
:101890008093060488E492E09093090480930804FE
:1018A00081E15AE090E236E020E5589FF0011124F2
:1018B000E25CFC4F9483958346E036831086278351
:1018C00011868F5F853188F3809307028091000233
:1018D000882309F48BC58CE392E090934F028093A8
:1018E0004E028BE790E0909351028093500285E383
:1018F00091E090935B0280935A0286EA90E0909385
:101900005D0280935C0223E02093650286E291E011
:1019100090936702809366028FEB90E09093690248
:1019200080936802209371028AE492E0909373029C
:101930008093720223E131E03093750220937402A8
:1019400054E050937D0223E432E030937F022093F1
:101950007E022CE231E0309381022093800250938A
:1019600089022EE631E030938B0220938A0227EC25
:1019700031E030938D0220938C0255E05093950214
:1019800025E831E0309397022093960223EE31E070
:1019900030939902209398025093A10229E632E0F5
:1019A0003093A3022093A20228E032E03093A502F4
:1019B0002093A4024093AD0222E632E03093AF02BE
:1019C0002093AE022DE132E03093B1022093B002B9
:1019D0004093B90226E232E03093BB022093BA0270
:1019E00027E132E03093BD022093BC0247E04093F0
:1019F000C50220E232E03093C7022093C6022EE2F5
:101A000032E03093C9022093C8024093D10227E00C
:101A100032E03093D3022093D20220E532E03093BB
:101A2000D5022093D40248E04093DD0220E132E069
:101A30003093DF022093DE022BE532E03093E102A7
:101A40002093E0024093E9022DE530E03093EB0271
:101A50002093EA029093ED028093EC0222E020931F
:101A6000F50289E591E09093F7028093F6028CE10C
:101A700092E09093F9028093F8022093010380E0B2
:101A80004CE096E035E021E0489FF0011124E25B54
:101A9000FD4F9483958316821086378311862287A3
:101AA0008F5F8F3088F38BE791E0909303038093EF
:101AB000020387E190E0909305038093040389E497
:101AC00090E090930F0380930E038CE191E090934C
:101AD0001103809310038BE991E090931B03809393
:101AE0001A038EE891E090931D0380931C0387E115
:101AF00091E0909327038093260380E292E09093F5
:101B000029038093280384E18093590280E492E0C2
:101B1000909333038093320383E192E090933503F3
:101B2000809334038FE06CE050E14EE031E02EE131
:101B300094E0689FF0011124E25BFD4F54834583DC
:101B4000368310862783118692878F5F843188F3CE
:101B50004BC485E08093F601E9E0E093F40185E170
:101B60008093F5018CE390E09093C1048093C004CE
:101B700088E290E09093C3048093C2042DE0209308
:101B8000C404F7E0F093C50481E592E09093C704A4
:101B90008093C60489E390E09093C9048093C804BD
:101BA0002093CA04F093CB048BE891E09093CD048A
:101BB0008093CC0485E890E09093CF048093CE048A
:101BC0002093D004F093D10482E091E09093D30469
:101BD0008093D20486E291E09093D5048093D4045C
:101BE0002093D604F093D7048EE290E09093D9042A
:101BF0008093D80487E392E09093DB048093DA0427
:101C00002093DC04F093DD0426E130E0309362049D
:101C10002093610480E190E09093640480936304D6
:101C2000A6E0A09365046EE170E070936704609392
:101C3000660445E150E05093690440936804A09322
:101C40006A0430936C0420936B044AE150E0509393
:101C50006E0440936D04A0936F042DE430E0309344
:101C60007104209370042BE030E0309373042093D0
:101C70007204A09374042BE230E030937604209336
:101C800075042DE230E03093780420937704A0931C
:101C9000790422E530E030937B0420937A0420E33A
:101CA00030E030937D0420937C04A0937E042BE1EC
:101CB00030E03093800420937F0421E530E03093BE
:101CC000820420938104A093830424E230E03093C3
:101CD00085042093840425E530E030938704209325
:101CE0008604A09388042CE130E030938A0420938A
:101CF00089042BE530E030938C0420938B04A0936F
:101D00008D0427E630E030938F0420938E0424E77F
:101D100030E03093910420939004A093920420E447
:101D200030E030939404209393047093960460936E
:101D30009504109297046EE070E07093990460939C
:101D4000980430939B0420939A0410929C0425E3FA
:101D500030E030939E0420939D0427E730E03093D9
:101D6000A00420939F042AE02093A10424E030E003
:101D70003093A3042093A20423E030E03093A50421
:101D80002093A404F093A60429E530E03093A8043E
:101D90002093A70429E430E03093AA042093A904F7
:101DA000F093AB0462E670E07093AD046093AC0412
:101DB00060E570E07093AF046093AE04F093B004FC
:101DC00064E570E07093B2046093B1047093B4045E
:101DD0006093B304E093B50467E070E07093B704D8
:101DE0006093B6046DE670E07093B9046093B80434
:101DF000E4E0E093BA046EE670E07093BC04609394
:101E0000BB045093BE044093BD04E093BF0441E281
:101E100050E0509311044093100445E450E0509377
:101E20001304409312044AE152E050931A04409381
:101E3000190430931C0420931B0490932304809373
:101E4000220484E492E0909325048093240480E0AB
:101E500059E048E439E225E090E5589FF00111246B
:101E6000E05FFB4F448335832683108697838F5F23
:101E7000833098F381E291E090932C0480932B04BB
:101E800084EA90E090932E0480932D0488E392E0FE
:101E9000909335048093340484E191E09093370467
:101EA000809336048DE791E090933E0480933D0447
:101EB00088EC91E09093400480933F0488E592E0A1
:101EC000909347048093460425E032E03093490420
:101ED0002093480425E132E03093500420934F04CE
:101EE00024E132E030935204209351042FEF31E08B
:101EF000309359042093580490935B0480935A04C0
:101F000083E059E040E136E127E094E1589FF00199
:101F10001124E05FFB4F448335832683108697832B
:101F20008F5F893098F38FE590E090933F03809323
:101F30003E038EE191E090934103809340032DE4B2
:101F400030E0309349032093480384E491E0909378
:101F50004B0380934A0385E790E09093530380936B
:101F6000520388E591E0909355038093540386E8EB
:101F700090E090935D0380935C0380E391E0909305
:101F80005F0380935E038DE791E0909367038093F6
:101F9000660386E290E0909369038093680384EB84
:101FA00091E0909371038093700345E150E050936A
:101FB00073034093720341EA51E050937B034093D3
:101FC0007A0330937D0320937C032DE831E0309336
:101FD0008503209384032CE831E03093870320931A
:101FE00086032AE731E030938F0320938E032CEA97
:101FF00031E030939103209390032DE931E0309349
:1020000099032093980328EC31E030939B032093AD
:102010009A0323EC31E03093A3032093A20328EA30
:1020200031E03093A5032093A4039093AD038093F4
:10203000AC038FE891E09093AF038093AE0380E60A
:1020400092E09093B7038093B60388E292E0909376
:10205000B9038093B8038AE492E09093C10380931C
:10206000C0038AE292E09093C3038093C2038CE2A0
:1020700092E09093CB038093CA0384E392E0909321
:10208000CD038093CC0386E292E09093D5038093B6
:10209000D40389E492E09093D7038093D60383E23C
:1020A00092E09093DF038093DE0381E692E09093C9
:1020B000E1038093E00380E09AE047E038E024E128
:1020C000989FF0011124E25CFC4F44839583368392
:1020D0001086278311868F5F813190F38EE590E023
:1020E0009093E9038093E8038EE291E09093EB03F1
:1020F0008093EA0381E991E09093F3038093F203E4
:1021000024E230E03093F5032093F4039093FD0331
:102110008093FC038BE991E09093FF038093FE038F
:1021200081E492E0909307048093060488E492E0AF
:10213000909309048093080481E15AE090E236E02C
:1021400020E5589FF0011124E25CFC4F94839583B5
:1021500046E036831086278311868F5F853188F3AA
:102160008093070280910002882309F43FC18CE329
:1021700092E090934F0280934E028BE790E0909311
:1021800051028093500285E391E090935B0280932B
:102190005A0286EA90E090935D0280935C0223E00D
:1021A0002093650286E291E0909367028093660235
:1021B0008FEB90E090936902809368022093710204
:1021C0008AE492E0909373028093720223E131E0FB
:1021D000309375022093740254E050937D0223E4FF
:1021E00032E030937F0220937E022CE231E0309384
:1021F000810220938002509389022EE631E03093D1
:102200008B0220938A0227EC31E030938D022093D9
:102210008C0255E05093950225E831E03093970207
:102220002093960223EE31E0309399022093980296
:102230005093A10229E632E03093A3022093A20238
:1022400028E032E03093A5022093A4024093AD022F
:1022500022E632E03093AF022093AE022DE132E06D
:102260003093B1022093B0024093B90226E232E0EB
:102270003093BB022093BA0227E132E03093BD02D3
:102280002093BC0247E04093C50220E232E0309345
:10229000C7022093C6022EE232E03093C902209397
:1022A000C8024093D10227E032E03093D30220935A
:1022B000D20220E532E03093D5022093D40248E0E8
:1022C0004093DD0220E132E03093DF022093DE0212
:1022D0002BE532E03093E1022093E0024093E902E3
:1022E0002DE530E03093EB022093EA029093ED026B
:1022F0008093EC0222E02093F50289E591E090932F
:10230000F7028093F6028CE192E09093F9028093B9
:10231000F8022093010380E04CE096E035E021E0F4
:10232000489FF0011124E25BFD4F94839583168250
:1023300010863783118622878F5F8F3088F38BE773
:1023400091E0909303038093020387E190E09093E0
:1023500005038093040389E490E090930F03809336
:102360000E038CE191E090931103809310038BE9AD
:1023700091E090931B0380931A038EE891E0909371
:102380001D0380931C0387E191E0909327038093C2
:10239000260380E292E0909329038093280384E14E
:1023A0008093590280E492E0909333038093320348
:1023B00083E192E090933503809334038FE06CE0E7
:1023C00050E14EE031E02EE194E0689FF0011124ED
:1023D000E25BFD4F54834583368310862783118645
:1023E00092878F5F843188F38093070208958091EC
:1023F0000202813021F0823009F461C0089562E068
:102400008AEF94E00E94D12B882341F08091010251
:1024100090E00196817099278093010260E08AEF35
:1024200094E00E94D12B882351F080910102811108
:1024300002C081E002C0817081508093010263E09C
:102440008AEF94E00E94D12B882351F08091000202
:1024500090E0019663E070E00E94173E80930002D6
:1024600061E08AEF94E00E94D12B882371F0809183
:102470000002811104C082E08093000206C063E084
:102480000E94F73D91509093000264E08AEF94E03F
:102490000E94D12B882329F082E0809302020E94BF
:1024A0004F0966E08AEF94E00E94D12B882309F45B
:1024B00052C16EE17DE080EF94E00C94583566E007
:1024C0008AEF94E00E94D12B882319F081E0809359
:1024D000020265E08AEF94E00E94D12B882361F02C
:1024E0008091EF04882329F0813031F41092EF04B9
:1024F00003C081E08093EF0440E064E08AEF94E061
:102500000E94DA2B9091E604882309F4D6C0911139
:10251000D4C08091E504883009F0CFC081E0809379
:10252000E7048091EA04882309F415C140E062E0E1
:102530008AEF94E00E94DA2B882341F08091E40432
:102540008330D4F48F5F8093E40416C040E060E0F1
:102550008AEF94E00E94DA2B9091E404882319F02A
:102560009E3F54F002C0191614F4915003C09923F1
:1025700019F09F5F9093E40440E063E08AEF94E0F9
:102580000E94DA2B882341F08091E3048330D4F455
:102590008F5F8093E30416C040E061E08AEF94E02F
:1025A0000E94DA2B9091E304882319F09E3F54F0A7
:1025B00002C0191614F4915003C0992319F09F5FBB
:1025C0009093E3042091E4041216A4F48091DE04B5
:1025D0009091DF0460E0332727FD3095462F50E0CF
:1025E00042175307BCF4863742E094070CF4019677
:1025F0006F5FF4CF2223A1F08091DE049091DF047D
:1026000060E0332721950CF43095462F50E04217B7
:1026100053079CF09093DF048093DE0460930702DD
:102620002091E3041216DCF48091E0049091E1041F
:1026300060E0332727FD30950CC0181619060CF4FE
:1026400001976F5FE2CF863742E094070CF4019662
:102650006F5F462F50E042175307ACF310C02223A0
:10266000A1F08091E0049091E10460E0332721958E
:102670000CF43095462F50E0421753077CF06093DE
:1026800007029093E1048093E00440E064E08AEF65
:1026900094E00E94DA2B811107C015C08E3091059D
:1026A0000CF001976F5FE6CF8091E60481110BC0BB
:1026B0008091E504883039F442C01092E7049923F0
:1026C00009F42FCF08951092E7048091EF0481114F
:1026D00042C08091E40418163CF49091E3049111F7
:1026E00017C01092E20419C0811108C08091E30460
:1026F0001816ACF482E08093E20411C087FF15C085
:102700008091E3041816FCF493E09093E2041FC058
:1027100019161CF491E09093E204811106C0809197
:10272000E30487FF18C086E007C01816A4F4809160
:10273000E30487FF10C087E08093E204089581E0FE
:102740008093E704C2CF811102C084E0F5CF87FFF8
:1027500002C085E0F1CF0895282F30E06CE0869F1D
:10276000F0011124E25BFD4F8781882309F484C0C6
:1027700088E080930402808191814091DE04509131
:10278000DF0464816695DC01A60FB11DBA01665FA6
:102790007F4F6A177B073CF401979183808384E025
:1027A0008287809304028CE0829FF001839FF00D6A
:1027B0001124E25BFD4F8081918164816695DC018B
:1027C000A60FB11D4A505109A417B50734F401965C
:1027D000918380831286109204028CE0829FF00124
:1027E000839FF00D1124E25BFD4F82819381409124
:1027F000E0045091E10465816695DC01A60FB11DEE
:10280000BA0168507109A617B7078CF40196938333
:10281000828380910402843031F0883031F081115C
:1028200006C081E003C083E001C082E082878CE0C3
:10283000829FF001839FF00D1124E25BFD4F8281A6
:10284000938125812695BC01620F711D485F5F4F02
:10285000461757078CF40197938382838091040273
:10286000843031F0883031F0811106C087E003C038
:1028700085E001C086E0828708952F923F924F92B3
:102880005F926F927F928F929F92AF92BF92CF9200
:10289000DF92EF92FF920F931F93CF93DF93CDB709
:1028A000DEB72E970FB6F894DEBF0FBECDBF10E097
:1028B00047E05AE01A3008F099C0212F30E0429FDB
:1028C000F001439FF00D1124E85FFD4F86818823BE
:1028D00009F48AC0858190E08830910508F06AC0CB
:1028E000FC01EC5CFF4F0C946C3E429FF001439F57
:1028F000F00D1124E85FFD4F81819281029630C076
:10290000429FF001439FF00D1124E85FFD4F81814C
:102910009281019615C0429FF001439FF00D112452
:10292000E85FFD4F83819481029642C0429FF0018F
:10293000439FF00D1124E85FFD4F81819281019743
:102940009283818383819481019632C0429FF001FA
:10295000439FF00D1124E85FFD4F81819281029722
:102960009283818327C0429FF001439FF00D112481
:10297000E85FFD4F81819281019715C0429FF00170
:10298000439FF00D1124E85FFD4F838194810297EE
:102990000FC0429FF001439FF00D1124E85FFD4FEF
:1029A00081819281019692838183838194810197B1
:1029B00094838383429FF001439FF00D1124E85FCD
:1029C000FD4F86818F5F86838F3170F0A0815A9F83
:1029D000D0011124A25CBC4F19961C921282118264
:1029E00014821382158216821F5F64CF0091F50155
:1029F0008091DE049091DF046090E0047090E10427
:102A00002091E504B301621B7109E091FB01509133
:102A1000FC014091F9012091FA01B0900502A12C2E
:102A2000FAE09F2E88248394A01608F0DFC09A9CB9
:102A3000600111249601225C3C4F6901D901149672
:102A40002C91149726954D915C911197420F511D31
:102A50001596EC911597E69512962D913C9113974A
:102A60002E0F311DFC01E41BF50BE65BFF4FE53932
:102A7000F10508F0B6C0F301E21BF30BE65BFF4F74
:102A8000E539F10508F0ADC07601B9E0EB0EF11CB7
:102A9000D6011996EC911997E111A3C01796EC9104
:102AA000EE2309F49EC0EDE0F2E0A8E0B2E0BA87C0
:102AB000A987AEE0B2E0BC87AB87B12C2701D60175
:102AC0001696BE83AD83DA011596BE87AD871A01CF
:102AD000B5E02B1A3108790115E0E10EF11CD9019E
:102AE0001697B887AF836901B5E0CB1AD108B2E079
:102AF000E335FB0709F474C0AB85BC851C9111114B
:102B000063C0B11061C014E1D2011C93AD81BE81DC
:102B1000BC90B6E0BB1202C0D2019C92A985BA85D6
:102B2000AC9212965C934E93119714963C932E930D
:102B30001397AB85BC858C921082AD85BE85A81796
:102B4000B90724F4E616F7060CF480828215930583
:102B50005CF0AD85BE85A817B9075CF0261737076E
:102B600044F4B2E0B08305C0E616F70614F413E0AF
:102B700010838417950744F46C157D052CF0E61638
:102B8000F70614F0A4E0A083821593052CF46C15CD
:102B90007D0574F4B5E00BC0AD85BE85A817B907F7
:102BA0003CF0AF81B8856A177B0714F4B6E0B083B8
:102BB000AD85BE85A817B9072CF46C157D0514F4F6
:102BC000B7E0B083BB24B3943796A985BA8517962E
:102BD000BA87A987AB85BC851796BC87AB8787CF9B
:102BE0001AE0A394E42F422F232F1ECF1093060246
:102BF000E093FB015093FC014093F9012093FA010B
:102C0000B0920502A092070230910002332309F42A
:102C100012C13091E504B301631B71094B2C912C57
:102C20008824839434E0532EF3E1F91508F4F5C0B9
:102C3000FCE0F99DF0011124E25BFD4FF887EF8382
:102C40002481269540815181420F511DE581E695F1
:102C5000AF81B88512962D913C9113972E0F311D9F
:102C6000FC01E41BF50BE65BFF4FE539F10508F0CD
:102C7000CFC0F301E21BF30BE65BFF4FE539F10533
:102C800008F0C6C07D01B9E0EB0EF11CAF81B8853C
:102C90001996EC911997E111BBC01796EC91EE23B0
:102CA00009F4B6C0EDE0F2E008E012E01C870B8703
:102CB000AEE0B2E0BA87A987412C0F8118850A5F80
:102CC0001F4F1C830B83FA82E9827A0115E0E10E23
:102CD000F11C1A01A5E02A1A31085901B5E0AB0E22
:102CE000B11C8901065011091E830D83690115E08D
:102CF000C11AD108AF81B8851A96B887AF83B2E000
:102D0000E335FB0709F483C0A985BA851C9111112D
:102D100071C041106DC0AB85BC859C9212965C93CE
:102D20004E93119714963C932E931397A985BA85C9
:102D30008C92AB81BC811C911123C1F0113009F040
:102D400057C008E2A981BA810C93AF81B8851C9164
:102D50001083AB85BC8513960D911C91149705507B
:102D6000110914961C930E93139742C004E1A98194
:102D7000BA810C931082E816F90624F4A616B70659
:102D80000CF48082821593054CF0E816F9065CF08D
:102D90002617370744F412E0108305C0A616B706BD
:102DA00014F4A3E0A083841795073CF46C157D050B
:102DB00024F0A616B7060CF050828215930534F461
:102DC0006C157D056CF4B5E0B0830AC0E816F90611
:102DD0003CF00D811E816017710714F416E010831A
:102DE000E816F9062CF46C157D0514F4A7E0A08311
:102DF0004424439437960B851C85095F1F4F1C871D
:102E00000B87A985BA851796BA87A98778CF1AE064
:102E10009394E42F422F232F07CF10930602E093C1
:102E2000FB015093FC014093F9012093FA01409279
:102E30000502909207022E960FB6F894DEBF0FBEE1
:102E4000CDBFDF91CF911F910F91FF90EF90DF9059
:102E5000CF90BF90AF909F908F907F906F905F903A
:102E60004F903F902F900895EF92FF920F931F93F2
:102E7000CF93DF938091EE0481114CC08091DE04EA
:102E80009091DF04AC0143505109BC016D5F7F4F4D
:102E90002091E5048091E0049091E104821B910966
:102EA000DC0115970196D091EA04F090EB0400E064
:102EB0001091E604C0E027E0E22ECA3008F5EC9E4F
:102EC000F0011124E85FFD4F21813281241735077D
:102ED000ACF06217730794F0238134812A173B0703
:102EE0006CF08217930754F0DD2311F0D55021F4D4
:102EF000FF24F394D0E002C010E00CE0CF5FDDCF00
:102F0000D093EA04F092EB040093EE041093E604ED
:102F1000C0930602DF91CF911F910F91FF90EF9028
:102F200008951F93CF93DF9340E06CE07AE0DEE1F9
:102F3000C9E015E04F3008F074C0242F30E0629FE4
:102F4000F001639FF00D1124E25BFD4FA385AA23DE
:102F500009F465C08781811162C08085883C09F0D1
:102F60005EC08681811128C0CA9FD0011124A05F54
:102F7000BB4F17968C9117978823F1F01783108613
:102F800014965C91149756958D919C91850F911D87
:102F900091838083A385CA9FD0011124A05FBB4F7A
:102FA00015965C911597569512968D919C91139755
:102FB000850F911D93838283629FF001639FF00DC3
:102FC0001124E25BFD4F8681813049F5A3857A9F0C
:102FD000D0011124A25CBC4F17968C9117978823BF
:102FE000F1F0D783108614962C91149726958D9125
:102FF0009C91820F911D91838083A3857A9FD0013C
:103000001124A25CBC4F15962C91159712968D91A8
:103010009C911397820F911D0596938382834F5F36
:1030200089CF40930702DF91CF911F91089590912E
:10303000E6048091EB04992319F0913059F011C006
:103040009091E504983068F481110BC09F5F9093D4
:10305000E50408959091E504992319F09150909317
:10306000E504813099F42091E504222379F08091E0
:10307000E204992787FD9095019668E070E00E9430
:10308000173E8093E20421502093E5040895FF92B7
:103090000F931F93CF93DF938091E704813009F062
:1030A00022C18091E204992787FD9095A92FB92F1D
:1030B0008830910508F040C0FC01E45CFF4F40916E
:1030C000DE045091DF042091E0043091E1040C947F
:1030D0006C3E405F5F4F15C0485F5F4F09C0509323
:1030E000FC014093FB01285F3F4F22C0485051092B
:1030F0005093FC014093FB012B5F3F4F19C040519F
:1031000051095093FC014093FB0112C048505109F2
:1031100009C05093FC014093FB012850310908C0BD
:10312000485F5F4F5093FC014093FB0125503109EC
:103130003093FA012093F901C091F5012091FB0130
:103140003091FC014091F9015091FA01A091FD01EB
:103150008091FE019091FF01B0E0DAE0BC1790F59C
:10316000DB9FF0011124E25CFC4F608171816217EA
:10317000730734F51481610F711D2617370704F5A5
:103180006281738164177507DCF41581610F711D0D
:1031900046175707ACF46781662391F06150678347
:1031A00061110EC0608561110BC0AF5F6681663032
:1031B00029F0683029F486509F4F02C088519C4FF7
:1031C000BF5FCCCFA093FD01B091F401C09100028C
:1031D000A0E0D9E0AB17B0F5DA9FF0011124E05F71
:1031E000FB4F608171816217730754F51481610F81
:1031F000711D2617370724F56281738164177507DF
:10320000FCF41581610F711D46175707CCF46781D7
:103210006623B1F061506783611112C0C23081F43E
:10322000608561110DC06681673029F0693031F029
:10323000643031F403C0825A9E4F02C088539F4FBE
:10324000AF5FC8CF9093FF018093FE01A093070268
:10325000CC2309F448C0D0E01CE009E0D431E8F503
:103260006D2F70E0169FF001179FF00D1124E25BA7
:10327000FD4FA081B181A217B3076CF5F480AF0DAB
:10328000B11D2A173B073CF5A281B381A417B507EE
:1032900014F5F580AF0DB11D4A175B07E4F4A78163
:1032A000AA23C9F0A150A783A11115C0C13099F478
:1032B000E085E11110C0069FF001079FF00D112479
:1032C000E05FFB4F6681662329F0613021F48C5961
:1032D0009F4F01C0C296DF5FC1CF9093FF018093E3
:1032E000FE01D0930702DF91CF911F910F91FF90C4
:1032F00008958091E5048823E1F08091E90490E04D
:10330000019664E670E00E94173E8093E904892BE1
:1033100039F48091E804882319F081508093E804FF
:103320008091E804811105C081E08093EB048093D3
:10333000E60408958A3291054CF09C012A52310925
:103340002332324010F0825208958AE20895823288
:1033500091054CF09C01225231092734324010F083
:103360008654089582E208952091DE043091DF04AE
:103370002A32310564F0A9014A52510943325240C0
:1033800020F4821B930B8A9602C0825292402DE752
:1033900030E0B9010E94173E83589F4FB9010E9447
:1033A000173E08952091E0043091E1042232310566
:1033B00064F0A901425251094734524020F4821B63
:1033C000930B829602C0865492402DE730E0B901FB
:1033D0000E94173E83589F4FB9010E94173E0895DF
:1033E0002091DE043091DF042A32310564F0A90116
:1033F0004A5251094332524020F4821B930B8A9661
:1034000008958252924008952091E0043091E104A1
:103410002232310564F0A901425251094734524029
:1034200020F4821B930B829608958654924008954F
:103430008091E804882361F08091E504882341F0BD
:103440008091EC0490E00196837099278093EC04BE
:103450008091030290E0019662E370E00E94173EC3
:10346000809303028091EB04813059F48091E5044C
:10347000811107C08091ED048B3018F48F5F809329
:10348000ED048091EE04882319F081508093EE04BE
:103490005091F50120E03AE02517F8F4822F90E0F2
:1034A000389FF001399FF00D1124E25CFC4F4781F9
:1034B000411105C040854C3010F44F5F4087389F64
:1034C000F001399FF00D1124E25CFC4F81858823C7
:1034D00011F0815081872F5FDFCF2091F40180E0D0
:1034E00039E0821778F4389FF0011124E05FFB4F38
:1034F0009781911105C090859C3010F49F5F908753
:103500008F5FEFCF8093070280910002882329F11B
:1035100020E03CE02431F8F4822F90E0389FF00165
:10352000399FF00D1124E25BFD4F4781411105C029
:103530004085493C10F44F5F4087389FF001399F28
:10354000F00D1124E25BFD4F8185882311F081503D
:1035500081872F5FDFCF209307020895EF920F93AB
:10356000CF938091DE049091DF040E949A19C82FB6
:10357000282F30E03093FC012093FB018091E00480
:103580009091E1040E94A719282F30E03093FA01AE
:103590002093F9014EEF480F6EEF6C0F21EE3CE0E7
:1035A0008EE395E00E94172F8091EE0463E00E9465
:1035B000F73D911148C12091EC0488E0289F9001CB
:1035C00011242851334F4091F9018091E504481BA3
:1035D00048506091FB0167508EE395E00E94172FE1
:1035E0008091E204992787FD9095A92FB92F883003
:1035F000910508F028C1FC01EC5BFF4F60E08EE311
:1036000095E00C946C3E0E94B62C4091F90180919B
:10361000E504481B46506091FB016950E12C00E035
:1036200025EC3CE08EE395E00E94972F61E08EE36D
:1036300095E00E94B62C4091F9018091E504481B69
:1036400046506091FB0169508DC00E94B62C40919C
:10365000F9018091E504481B4D506091FB016750D2
:10366000E12C00E029E83CE08EE395E00E94972FF2
:1036700061E08EE395E00E94B62C4091F9018091C3
:10368000E504481B4D506091FB01675046C00E9405
:10369000B62C4091F9018091E504481B4650609199
:1036A000FB016450E12C00E021E33CE08EE395E077
:1036B0000E94972F61E08EE395E00E94B62C409126
:1036C000F9018091E504481B46506091FB0164506C
:1036D00021E53CE0B4C00E94B62C4091F9018091F4
:1036E000E504481B4D506091FB016950EE24E394C2
:1036F00000E029E83CE08EE395E00E94972F61E02E
:103700008EE395E00E94B62C4091F9018091E5048A
:10371000481B4D506091FB01695027EA3CE08FC087
:103720000E94B62C4091F9018091E504481B465057
:103730006091FB016750EE24E39400E025EC3CE04F
:103740008EE395E00E94972F61E08EE395E00E9462
:10375000B62C4091F9018091E504481B46506091D8
:10376000FB01675023ED3CE06AC00E94B62C4091FB
:10377000F9018091E504481B46506091FB016750B8
:10378000EE24E39400E021E63CE08EE395E00E9425
:10379000972F61E08EE395E00E94B62C4091F901ED
:1037A0008091E504481B46506091FB01675045C07D
:1037B0000E94B62C4091F9018091E504481B4650C7
:1037C0006091FB016450E12C00E021E33CE08EE3DA
:1037D00095E00E94972F61E08EE395E00E94B62C61
:1037E0004091F9018091E504481B46506091FB012E
:1037F000645021E43CE023C00E94B62C4091F901C2
:103800008091E504481B46506091FB016950E12C12
:1038100000E021E63CE08EE395E00E94972F61E016
:103820008EE395E00E94B62C4091F9018091E50469
:10383000481B46506091FB01695025E73CE08EE350
:1038400095E00E94972FCF910F91EF9008950F93DD
:1038500060E08EE395E00E94B62C05E024E540E0B0
:1038600060E08EE395E00E943F2D61E08EE395E0FD
:103870000E94B62C9091FD018091F50198130BC028
:10388000809103028F3038F48091E504882319F089
:1038900064E571E05FC028E03DE041E06AE28EE36C
:1038A00095E00E94172F8091EF048823C9F08130A2
:1038B00039F54AE050E06091FD018EE395E00E9409
:1038C000753C6AE671E08EE395E00E949E3B4AE01B
:1038D00050E06091F5018EE395E00E94753C10C0C8
:1038E00068E671E08EE395E00E949E3B6091FE01E8
:1038F0007091FF014AE050E08EE395E00E94603C49
:103900008091EA0465E00E94F73D02E0282F42E042
:1039100061E38EE395E00E943F2D2091E8048BEA5D
:10392000289F212D1124269542E062E48EE395E044
:103930000E943F2D8FE480934705109248058091A7
:10394000EF04882329F0813051F460E771E002C070
:103950006CE671E08EE395E00F910C949E3B0F9125
:1039600008950F93CF9380910102882329F081302D
:1039700049F467E871E002C064E771E08EE395E026
:103980000E949E3B03E12EE147E06AE08EE395E072
:103990000E94702D209142013091430141E166E186
:1039A0008EE395E00E94172F209142013091430150
:1039B00043E16DE18EE395E00E94172F20913C01D9
:1039C00030913D0149E06EE18EE395E00E94172FB2
:1039D00020913E0130913F0149E06CE08EE395E09B
:1039E0000E94172F2EE147E062E38EE395E00E94EC
:1039F000702D20914E0130914F0149E064E38EE338
:103A000095E00E94172F20914601309147014FE029
:103A10006AE38EE395E00E94172F209148013091D0
:103A2000490149E064E48EE395E00E94172F60911C
:103A3000010288E2689F602D1124675F05E120E2A2
:103A400046E08EE395E00E94702DC3E2C0934705E7
:103A50008EE1809348056AE971E08EE395E00E946B
:103A60009E3BC093470584E2809348056FE971E06F
:103A70008EE395E00E949E3BC09347058AE28093C7
:103A8000480566EA71E08EE395E00E949E3B8091D6
:103A90000002482F440F480F440F435E23ED3CE0E3
:103AA0006FE08EE395E00E94172F80910002482F6F
:103AB000440F480F440F455E20EF3CE061E18EE388
:103AC00095E0CF910F910C94172F0F931F93CF93E5
:103AD000DF931092070205E0C0910702C33160F541
:103AE0000C9FE0011124CF59DB4F888199810E94FE
:103AF000B419182F8093FB019093FC018A819B815C
:103B00000E94D2198093F9019093FA01EC81F0E0C0
:103B1000EE0FFF1FE45CFE4F208131814CEE480F19
:103B20006CEE610F8EE395E00E94172F80910702E3
:103B30008F5F80930702D0CFDF91CF911F910F91BC
:103B40000895FF920F931F93CF93DF93809101020B
:103B5000882321F0813009F408C20DC489E390E084
:103B60000E94F019EC019093FC018093FB0183E12A
:103B700090E00E94041A9093FA018093F90123E1E6
:103B80002093F8012FE02093F7019E012E5E3F4F16
:103B90002636310580F49C01225F3F4F2E333105DC
:103BA00050F420911E0130911F01482F6C2F8EE39D
:103BB00095E00E94172F88E190E00E94F019EC0137
:103BC0009093FC018093FB018BE190E00E94041A2A
:103BD0009093FA018093F90120E22093F8012DE1FE
:103BE0002093F7019E01215E3F4F2337310580F47A
:103BF0009C01245E3F4F2C34310550F4209120016C
:103C000030912101482F6C2F8EE395E00E94172FF1
:103C10008AE090E00E94F019EC019093FC018093FF
:103C2000FB0186E292E00E94041A9093FA018093CD
:103C3000F90120E22093F8012DE12093F7019E0184
:103C4000215E3F4F2337310580F49C01245E3F4FB6
:103C50002C34310550F42091200130912101482F5E
:103C60006C2F8EE395E00E94172F81E891E00E946F
:103C7000F019EC019093FC018093FB0187E690E042
:103C80000E94041A9093FA018093F90120E2209394
:103C9000F8012DE12093F7019E01215E3F4F23376C
:103CA000310580F49C01245E3F4F2C34310550F4E3
:103CB0002091200130912101482F6C2F8EE395E057
:103CC0000E94172F8DE490E00E94F019EC01909370
:103CD000FC018093FB0181E290E00E94041A909322
:103CE000FA018093F90129E12093F8012AE1209358
:103CF000F7019E01285E3F4F2C36310580F49C0170
:103D0000275E3F4F2934310550F420912201309134
:103D10002301482F6C2F8EE395E00E94172F8DE42E
:103D200092E00E94F019EC019093FC018093FB015A
:103D30008AE190E00E94041A9093FA018093F901BD
:103D400029E12093F8012AE12093F7019E01285EE2
:103D50003F4F2C36310580F49C01275E3F4F2934BC
:103D6000310550F42091220130912301482F6C2F0E
:103D70008EE395E00E94172F82E191E00E94F019F6
:103D8000EC019093FC018093FB018FE191E00E9494
:103D9000041A9093FA018093F90129E12093F80124
:103DA0002AE12093F7019E01285E3F4F2C36310512
:103DB00080F49C01275E3F4F2934310550F4209157
:103DC000220130912301482F6C2F8EE395E00E9451
:103DD000172F8DEF90E00E94F019EC019093FC01F9
:103DE0008093FB018FE990E00E94041A9093FA01FE
:103DF0008093F90124E22093F80128E12093F70150
:103E00009E012D5D3F4F2737310580F49C01295ECF
:103E10003F4F2734310550F420912E0130912F016E
:103E2000482F6C2F8EE395E00E94172F88E990E0D1
:103E30000E94F019EC019093FC018093FB018EE944
:103E400091E00E94041A9093FA018093F90124E210
:103E50002093F80128E12093F7019E012D5D3F4F4B
:103E60002737310580F49C01295E3F4F2734310507
:103E700050F420912E0130912F01482F6C2F8EE3AA
:103E800095E00E94172F8EE092E00E94F019EC015D
:103E90009093FC018093FB018CE191E00E94041A55
:103EA0009093FA018093F90124E22093F80128E12C
:103EB0002093F7019E012D5D3F4F2737310580F498
:103EC0009C01295E3F4F2734310550F420912E018B
:103ED00030912F01482F6C2F8EE395E00E94172F11
:103EE0001092070256E0F52EC0910702C53008F087
:103EF00042C2FC9EE0011124C054DB4F88819981AD
:103F00000E94F0198C019093FC018093FB018A813F
:103F10009B810E94041A9093FA018093F901043561
:103F20001105ECF42C8130E03195219531092017F1
:103F30003107ACF48033910594F42D8130E0319554
:103F4000219531092817390754F420911C0130912B
:103F50001D01482F602F8EE395E00E94172F80915E
:103F600007028F5F80930702BFCF89E390E00E9432
:103F7000F019EC019093FC018093FB0183E190E048
:103F80000E94041A9093FA018093F90123E120938F
:103F9000F8012FE02093F7019E012E5E3F4F263659
:103FA000310580F49C01225F3F4F2E33310550F4E0
:103FB00020911E0130911F01482F6C2F8EE395E058
:103FC0000E94172F88E190E00E94F019EC01909375
:103FD000FC018093FB018BE190E00E94041A909316
:103FE000FA018093F90120E22093F8012DE120935A
:103FF000F7019E01215E3F4F2337310580F49C017C
:10400000245E3F4F2C34310550F420912001309133
:104010002101482F6C2F8EE395E00E94172F8AE034
:1040200090E00E94F019EC019093FC018093FB0159
:1040300086E292E00E94041A9093FA018093F901BB
:1040400020E22093F8012DE12093F7019E01215EEB
:104050003F4F2337310580F49C01245E3F4F2C34C1
:10406000310550F42091200130912101482F6C2F0F
:104070008EE395E00E94172F81E891E00E94F019ED
:10408000EC019093FC018093FB0187E690E00E9495
:10409000041A9093FA018093F90120E22093F80129
:1040A0002DE12093F7019E01215E3F4F233731051B
:1040B00080F49C01245E3F4F2C34310550F4209154
:1040C000200130912101482F6C2F8EE395E00E9452
:1040D000172F8DE490E00E94F019EC019093FC0101
:1040E0008093FB0181E290E00E94041A9093FA0110
:1040F0008093F90129E12093F8012AE12093F70147
:104100009E01285E3F4F2C36310580F49C01275ECE
:104110003F4F2934310550F4209122013091230181
:10412000482F6C2F8EE395E00E94172F8DE492E0CC
:104130000E94F019EC019093FC018093FB018AE14D
:1041400090E00E94041A9093FA018093F90129E10A
:104150002093F8012AE12093F7019E01285E3F4F4A
:104160002C36310580F49C01275E3F4F2934310500
:1041700050F42091220130912301482F6C2F8EE3BF
:1041800095E00E94172F82E191E00E94F019EC0166
:104190009093FC018093FB018FE191E00E94041A4F
:1041A0009093FA018093F90129E12093F8012AE123
:1041B0002093F7019E01285E3F4F2C36310580F495
:1041C0009C01275E3F4F2934310550F42091220194
:1041D00030912301482F6C2F8EE395E00E94172F1A
:1041E0008DEF90E00E94F019EC019093FC01809318
:1041F000FB018FE990E00E94041A9093FA018093EA
:10420000F90124E22093F80128E12093F7019E01AF
:104210002D5D3F4F2737310580F49C01295E3F4FCC
:104220002734310550F42091300130913101482F6D
:104230006C2F8EE395E00E94172F88E990E00E9492
:10424000F019EC019093FC018093FB018EE991E061
:104250000E94041A9093FA018093F90124E22093BA
:10426000F80128E12093F7019E012D5D3F4F27378C
:10427000310580F49C01295E3F4F2734310550F40D
:104280002091300130913101482F6C2F8EE395E061
:104290000E94172F8EE092E00E94F019EC0190939B
:1042A000FC018093FB018CE191E00E94041A909341
:1042B000FA018093F90124E22093F80128E1209388
:1042C000F7019E012D5D3F4F2737310580F49C019A
:1042D000295E3F4F2734310550F420913001309151
:1042E0003101482F6C2F8EE395E00E94172F10921A
:1042F000070246E0F42EC0910702C530E0F5FC9EAF
:10430000E0011124C054DB4F888199810E94F0198B
:104310008C019093FC018093FB018A819B810E9418
:10432000041A9093FA018093F90104351105ECF415
:104330002C8130E031952195310920173107ACF4FB
:104340008033910594F42D8130E031952195310928
:104350002817390754F420911C0130911D01482F72
:10436000602F8EE395E00E94172F809107028F5FE8
:1043700080930702C0CFDF91CF911F910F91FF90E3
:104380000895DF92EF92FF920F931F93CF93DF93E5
:1043900010920702E9E0DE2EE09007028091F4011E
:1043A000E81608F057C0F12CDE9CE001DF9CD00D30
:1043B0001124C05FDB4F888199810E94F0198C0124
:1043C0009093FC018093FB018A819B810E94041AD7
:1043D0009093FA018093F90104351105ACF52C8115
:1043E00030E0319521953109201731076CF5803384
:1043F000910554F52D8130E031952195310928172B
:10440000390714F52F8121110AC02885263038F08C
:10441000EE81F0E0EE0FFF1FE65FFE4F0DC0DE9C69
:10442000F001DF9CF00D1124E05FFB4FE681F0E02E
:10443000EE0FFF1FE45EFE4F20813181482F602F79
:104440008EE395E00E94172F809107028F5F809383
:104450000702A2CFDF91CF911F910F91FF90EF90B4
:10446000DF900895DF92EF92FF920F931F93CF9307
:10447000DF9310920702CAE0DC2EE09007028091E1
:10448000F501E81608F057C0F12CDE9CE001DF9C36
:10449000D00D1124C25CDC4F888199810E94F019F3
:1044A0008C019093FC018093FB018A819B810E9487
:1044B000041A9093FA018093F90104351105ACF5C3
:1044C0002C8130E0319521953109201731076CF5A9
:1044D0008033910554F52D8130E0319521953109D6
:1044E0002817390714F52F8121110AC02885263095
:1044F00038F0EE81F0E0EE0FFF1FE65FFE4F0DC0DB
:10450000DE9CF001DF9CF00D1124E25CFC4FE681A3
:10451000F0E0EE0FFF1FE45EFE4F20813181482F57
:10452000602F8EE395E00E94172F809107028F5F26
:1045300080930702A2CFDF91CF911F910F91FF903F
:10454000EF90DF900895CF92DF92EF92FF920F935A
:104550001F93CF93DF9310920702DCE0FD2ECCEE89
:10456000DFEFE0900702F3E1FE1508F4CAC02E2D3C
:1045700030E0F29EF001F39EF00D1124E25BFD4F5E
:10458000878181110AC08085883038F0883108F031
:10459000B2C08370823009F0AEC0F29E8001F39EFB
:1045A000100D1124025B1D4FF801808191810E9442
:1045B000F0196C019093FC018093FB01F80182815A
:1045C00093810E94041A9093FA018093F901F8E60E
:1045D000CF16D104ACF4F8012481AE01421B51097D
:1045E0004C155D056CF48434910554F42581FE016D
:1045F000E21BF109E817F9071CF48E2D0E94AC1399
:104600006091FB017091FC01643571050CF073C081
:10461000E0910702FE9EF0011124E25BFD4F8481D0
:1046200090E0919581959109861797070CF063C0EA
:104630004091F9015091FA01403351050CF05BC0F3
:10464000858190E0919581959109841795070CF0EB
:1046500052C08681811113C08781882359F08285D9
:104660008250843020F4EE24E39400E005C023E679
:104670003BE03DC0E12C01E023E63BE020C0828529
:1046800090E088309105B8F5FC01E45BFF4F0C9495
:104690006C3E209132013091330129C020913401C8
:1046A0003091350124C020913601309137011FC06F
:1046B0002091340130913501EE24E39400E08EE343
:1046C00095E00E94972F17C020913201309133015D
:1046D000F3CF20913A0130913B01EECF2091380188
:1046E0003091390104C020913A0130913B018EE3B1
:1046F00095E00E94172F809107028F5F8093070239
:1047000030CFDF91CF911F910F91FF90EF90DF900D
:10471000CF9008950F938091EA0481112BC080916E
:10472000ED048B3039F560E08EE395E00E94B62C05
:1047300007E026E242E168E18EE395E00E943F2D2A
:1047400061E08EE395E00E94B62C09E028E241E1A9
:1047500067E18EE395E00E94702D89E18093470523
:1047600083E1809348056BEA71E08EE395E00F9159
:104770000C949E3B0F9108950F9360E08EE395E0BB
:104780000E94B62C0FE02CE444E064E08EE395E058
:104790000E943F2D61E08EE395E00E94B62C01E17E
:1047A0002AE443E063E08EE395E00E94702D89E007
:1047B0008093470585E08093480565EB71E08EE3C3
:1047C00095E00E949E3B8091FE019091FF018A300E
:1047D000910514F488E208C08436910514F1883EEE
:1047E00023E09207BCF48FE1809347058CE080932F
:1047F000480568E671E08EE395E00E949E3B60917B
:10480000FE017091FF014AE050E08EE395E00F91C8
:104810000C94603C8031974214F48BE1E5CF87E142
:10482000E3CF83E2E1CF1F93CF93DF938091E30443
:104830008111A0C08091E40481119CC08091E604A4
:10484000811198C0809101028823A9F0813009F07C
:1048500091C0C091F6018091DE049091DF04209117
:10486000E0043091E1047091EA04A091E804B0E022
:1048700060E0D6E051C0C091F6018091DE049091D5
:10488000DF042091E0043091E1047091EA04A091EA
:10489000E804B0E060E0D6E06C1708F067C0D69F8F
:1048A000F0011124E054FB4F408151814817590712
:1048B00034F51481410F511D8417950704F5428189
:1048C000538142175307DCF4E5814E0F511D241725
:1048D0003507ACF4623069F028F4662341F06130AA
:1048E00061F00DC0633049F0643019F008C07133D5
:1048F00010F0AD3120F4B1E002C07133E0F36F5F2E
:10490000CBCFD69FF0011124E054FB4F4081518161
:104910004817590724F06F5F6C1798F327C014816C
:10492000410F511D84179507B4F7428153814217F7
:1049300053078CF7E5814E0F511D241735075CF79F
:10494000623069F028F4662341F0613061F0E3CF12
:10495000633049F0643019F0DECF713310F0AD31BF
:10496000D0F6B1E0D8CF7133E0F3D5CFB093E60401
:10497000609307028091E604813009F016C18091AE
:10498000E504811112C1809101028823A9F08130D0
:1049900009F00BC1C091F6018091DE049091DF0413
:1049A0002091E0043091E1047091EA046091E80400
:1049B000B1E0A0E0D6E0BCC010920702C6E0409192
:1049C00007028091F601481708F0EFC08091DE04DD
:1049D0009091DF04C49FF0011124E054FB4F20812B
:1049E0003181281739070CF092C05481250F311DF1
:1049F000821793070CF08BC08091E0049091E10442
:104A000022813381281739070CF081C05581250F89
:104A1000311D821793070CF07AC0423009F457C059
:104A200028F4442349F04130D1F171C04330B9F149
:104A3000443009F44CC06BC09091FD018091F501A8
:104A4000981303C00E94BC2362C09091EA04809135
:104A5000E804923329F48E3141F41092E60457C0F1
:104A6000923318F49F5F9093EA048E3118F48F5FAD
:104A70008093E8048091EA04823309F048C0809171
:104A8000E8048E3109F043C08091FE019091FF014E
:104A9000883E23E0920784F18052934034C0809195
:104AA000EA048233D1F2823318F48F5F8093EA04F0
:104AB0008091EA04823359F58091FE019091FF01C3
:104AC0008E3E22E09207C4F08E5E92401CC0809120
:104AD000E8048E3111F28E3118F48F5F8093E80470
:104AE0008091E8048E3199F48091FE019091FF014C
:104AF0008E3E22E092072CF41092FF011092FE01EC
:104B000006C0865991099093FF018093FE01809120
:104B100007028F5F8093070252CFDA9FF0011124C2
:104B2000E054FB4F408151814817590724F0AF5F93
:104B3000AC1798F332C01481410F511D84179507AB
:104B4000B4F742815381421753078CF7E5814E0F2A
:104B5000511D241735075CF7A230B9F028F4AA23B9
:104B600041F0A13061F0E3CFA33049F0A43069F007
:104B7000DECF723351F0723350F47F5F08C072336E
:104B800051F07233A0F67F5FD2CF6E3121F06E31DB
:104B900070F66F5FCCCFB0E0CACF7093EA04609339
:104BA000E804B093E604A0930702DF91CF911F9130
:104BB00008950F93CF93DF9398E0899FE00111242C
:104BC000CA53DE4F00E020E04E8160E085E195E0D1
:104BD0000E94A33620E0488161E085E195E00E94D3
:104BE000A3362C8121954D8162E085E195E00E94FC
:104BF000A3362A812A534B8163E085E195E00E9428
:104C0000A33620E04F81698185E195E0DF91CF9166
:104C10000F910C94D436EF920F93CF938091E704C9
:104C2000813009F04AC180E00E94D9258091DE04DC
:104C30009091DF040E949A19C82F482F50E050939A
:104C4000FC014093FB018091E0049091E1040E94FB
:104C5000A719E82FF0E0F093FA01E093F9014091F1
:104C6000E204552747FD5095652F752F48305105B3
:104C700008F023C1FA01EC5AFF4F909103029370A0
:104C80000C946C3E91110DC020E12C0F9091E50425
:104C9000482F491B66E06C0F082F8EE395E00E94B9
:104CA000BE2C209103028BEA289F812D112486952A
:104CB000982F990F980F291B8AE0289F90011124A3
:104CC0002D5E334F4091F90144506091FB01645FC8
:104CD000EDC091110FC005E0080F28E02C0F909156
:104CE000E504482F491B4F5F63E06C0F8EE395E0AE
:104CF0000E94BE2C8091030263E00E94F73D8AE08F
:104D0000989F900111242D5E334F4091F9014F5F20
:104D1000CAC091110CC008E0080F9091E504482F1B
:104D2000491B2C2F6C2F8EE395E00E94BE2C8091A6
:104D3000030263E00E94F73D8AE0989F90011124EE
:104D40002D5E334F4091F9014C5F6091FB0164503F
:104D5000ADC091110FC005E0080F28EF2C0F909106
:104D6000E504482F491B4F5F6DEF6C0F8EE395E014
:104D70000E94BE2C8091030263E00E94F73D8AE00E
:104D8000989F900111242D5E334F4091F9014F5FA0
:104D900040C091110DC020EF2C0F9091E504482FD9
:104DA000491B6AEF6C0F082F8EE395E00E94BE2C22
:104DB0008091030263E00E94F73D8AE0989F900192
:104DC00011242D5E334F4091F90144506091FB0155
:104DD000645142C091110FC00BEF080F28EF2C0F48
:104DE0009091E504482F491B42506BEF6C0F8EE306
:104DF00095E00E94BE2C8091030263E00E94F73D83
:104E00008AE0989F900111242D5E334F4091F90163
:104E100049506091FB016C501FC091110CC008EF0C
:104E2000080F9091E504482F491B2C2F6C2F8EE31F
:104E300095E00E94BE2C8091030263E00E94F73D42
:104E40008AE0989F900111242D5E334F4091F90123
:104E50004C506091FB016450EE24E39400E08EE33B
:104E600095E00E94972F29C091110FC00BEF080FFA
:104E700028E02C0F9091E504482F491B425065E033
:104E80006C0F8EE395E00E94BE2C8091030263E0DC
:104E90000E94F73D8AE0989F900111242D5E334FC8
:104EA0004091F90149506091FB016C5F8EE395E000
:104EB000CF910F91EF900C94172FCF910F91EF900E
:104EC0000895EF92FF920F931F93CF93DF931F925A
:104ED000CDB7DEB71092070217E0E0910702EA3083
:104EE000C0F51E9FF0011124E85FFD4F86818823E5
:104EF00051F1813019F480E00E94D9258091070298
:104F0000189F70011124C701885F9D4F7C01FC012F
:104F1000818192810E94F019682F8093FB01909308
:104F2000FC01F7018381948169830E94041A8093B4
:104F3000F9019093FA0101E021E0482F69818EE3A5
:104F400095E00E943F2D809107028F5F80930702BA
:104F5000C4CF0F90DF91CF911F910F91FF90EF90F1
:104F60000895AF92BF92DF92EF92FF920F931F933B
:104F7000CF93DF931F92CDB7DEB78091EB048130E2
:104F8000A1F58091E504811130C08091ED048B3052
:104F900060F581E00E94D9258091DE049091DF04C4
:104FA0000E949A19082F10E0025011091093FC0179
:104FB0000093FB018091E0049091E1040E94A71905
:104FC000482F50E04A5051095093FA014093F9019B
:104FD0002091ED048EE0289F900111242559344F33
:104FE000602F8EE395E00E94172F109207021AE0BF
:104FF0000EE0E09107028091F501E81708F0EFC09C
:105000001E9FF0011124E25CFC4F87818111E1C0F9
:1050100080858C3008F0DDC081E00E94D925809128
:105020000702189F70011124F701E25CFC4F7F0119
:10503000808191810E94F019682F8093FB019093E9
:10504000FC01F7018281938169830E94041AAC01FB
:10505000445051095093FA014093F901F7018681B8
:105060006981843009F0AAC02085029F9001112433
:105070002559344F415F6E5F8EE395E00E94172FF4
:10508000E09107021E9FF0011124E25CFC4F208595
:10509000029F900111242559344F4091F9014F5F2F
:1050A0006091FB01665F8EE395E00E94172FE0910F
:1050B00007021E9FF0011124E25CFC4F2085029F35
:1050C000900111242559344F4091F901495E6091B6
:1050D000FB01625F8EE395E00E94172FE0910702CB
:1050E0001E9FF0011124E25CFC4F2085029F90017D
:1050F00011242559344F4091F9014E5F6091FB0115
:10510000655E8EE395E00E94172FE09107021E9FD7
:10511000F0011124E25CFC4F2085029F90011124D4
:105120002559344F4091F901445E6091FB01625E64
:105130008EE395E00E94172FE09107021E9FF00179
:105140001124E25CFC4F2085029F90011124255917
:10515000344F4091F9014B5E6091FB01625D8EE33B
:1051600095E00E94172FE09107021E9FF001112485
:10517000E25CFC4F2085029F900111242559344F99
:105180004091F9014E5F6091FB01675C8EE395E011
:105190000E94172FE09107021E9FF0011124E25C8C
:1051A000FC4F2085029F900111242559344F4091D6
:1051B000F901465E6091FB01615C07C0F701208543
:1051C000029F900111242559344F8EE395E00E94EF
:1051D000172F809107028F5F809307020ACF1092EA
:1051E000070209E01EE0E09107028091F401E81750
:1051F00008F0F3C00E9FF0011124E05FFB4F8781A0
:105200008111E5C080858C3008F0E1C081E00E940A
:10521000D92580910702089F70011124C701805F82
:105220009B4F7C01FC01808191810E94F019682FC5
:105230008093FB019093FC01F70182819381698344
:105240000E94041AAC01445051095093FA01409352
:10525000F901F70186816981843019F0853009F000
:10526000ABC0F7012085129F900111242559344FBE
:10527000415F6E5F8EE395E00E94172FE091070279
:105280000E9FF0011124E05FFB4F2085129F9001DB
:1052900011242559344F4091F9014F5F6091FB0172
:1052A000665F8EE395E00E94172FE09107020E9F44
:1052B000F0011124E05FFB4F2085129F9001112423
:1052C0002559344F4091F901495E6091FB01625FBD
:1052D0008EE395E00E94172FE09107020E9FF001E8
:1052E0001124E05FFB4F2085129F90011124255966
:1052F000344F4091F9014E5F6091FB01655E8EE392
:1053000095E00E94172FE09107020E9FF0011124F3
:10531000E05FFB4F2085129F900111242559344FE7
:105320004091F901445E6091FB01625E8EE395E07D
:105330000E94172FE09107020E9FF0011124E05FF9
:10534000FB4F2085129F900111242559344F409125
:10535000F9014B5E6091FB01625D8EE395E00E9476
:10536000172FE09107020E9FF0011124E05FFB4F21
:105370002085129F900111242559344F4091F90145
:105380004E5F6091FB01675C8EE395E00E94172FF2
:10539000E09107020E9FF0011124E05FFB4F208592
:1053A000129F900111242559344F4091F901465E16
:1053B0006091FB01615C07C0F7012085129F90019D
:1053C00011242559344F8EE395E00E94172F8091C8
:1053D00007028F5F8093070206CF80910002882327
:1053E00009F464C0109207021CE0F12E0AE0E02EDE
:1053F0008EE0D82E80910702843108F057C090E0EB
:10540000F89E8001F99E100D1124025B1D4FF801DA
:105410002781211145C020852C3008F041C0E89E2D
:105420005001E99EB00C1124C501825C9C4F5C01C7
:10543000FC01808191810E94F019F5012481820F85
:10544000911D04979093FC018093FB0182819381CD
:105450000E94041AF5012581820F911D06979093F1
:10546000FA018093F901F80186818130C9F40E9424
:10547000D925E0910702FE9EF0011124E25BFD4F69
:105480002085D29E900111242559344F4091F90175
:1054900043506091FB016B5F8EE395E00E94172FF4
:1054A000809107028F5F80930702A4CF0F90DF9156
:1054B000CF911F910F91FF90EF90DF90BF90AF9031
:1054C000089580EF94E00E941B338823D1F18091EE
:1054D0000202813019F0823029F008950E94B11C37
:1054E0000C94F7110E94A11D0E94C1210E9432223A
:1054F0008091000281110E94A3220E94651D0E94DA
:105500000B260E9461270E94271C0E94AE1A0E944F
:10551000B1270E948A230E9413240E94F7110E943F
:1055200017180E9447180E9434170E9479190E9488
:105530003D140E94181A80910002823011F40C94DC
:105540009117089510924105109240058AED91E05F
:1055500090933F0580933E050895CF93CFB7F8947D
:1055600080917605811127C0E5E6F1E18491E1E5BE
:10557000F1E19491E82FF0E0EE0FFF1FED57FE4EA2
:10558000A591B4918C91892321F461E08AE00E9475
:10559000CC3A61E08AE00E94933A8CB580618CBD80
:1055A0008CB580648CBD61E08DE00E94933A61E02F
:1055B0008BE00E94933A809176058F5F8093760509
:1055C000CFBFCF91089521E0FC012083089570E0C2
:1055D00085E00C940B3AAF92BF92CF92DF92EF929C
:1055E000FF920F931F93CF93DF93EC0189819A81F0
:1055F0002FE0289F8001299F100D112485E10E9432
:10560000EE39800F911F24E0969587952A95E1F752
:105610009A8389832881222391F1AC81AD80B12CBA
:10562000C12CD12CE885F9857F0100E010E06E8166
:105630007F819B0140E050E08617970728F0BC016E
:10564000E817F90708F4BF0180E090E01F921F926D
:105650001F92AF930E94823C6B830F900F900F902C
:105660000F9070E085E0DF91CF911F910F91FF9037
:10567000EF90DF90CF90BF90AF900C940B3ADF91FA
:10568000CF911F910F91FF90EF90DF90CF90BF903F
:10569000AF900895FC018CE39FE09383828384E0C4
:1056A000818381E084870895CF93DF93EC018C851B
:1056B0008F7151F584E10E94EE39BC01882777FD96
:1056C0008095982F0E94F83C26EE3FE34EEC50E484
:1056D0000E94843D0E94CA3C9B017B836A836115C2
:1056E000710581F084E08983FE0140E08481958129
:1056F0002817390710F449830AC04F5F32964430A7
:10570000A9F702C08FEF89838C858F5F8C87DF912B
:10571000CF910895FC0188E0808389E0818387E050
:10572000828386E0838384E0848382E0858381E1D1
:1057300086830895DF92EF92FF920F931F93CF938A
:10574000DF937C01EC0100E010E0DD24DA9462E0FC
:1057500088810E94933A88810E94023BF701E00F02
:10576000F11F892B21F487818F5F878308C0878190
:10577000882349F08F3F11F4178201C0D78260E07F
:1057800088810E94933A0F5F1F4F219607301105C1
:10579000F1F6DF91CF911F910F91FF90EF90DF9085
:1057A0000895FC01E60FF11D81E09781913009F029
:1057B00080E00895262F30E0FC01E20FF31F87817F
:1057C000423028F481508E3F48F080E008958F3FAA
:1057D000E1F3642F0E94F73D9130B9F781E008951D
:1057E0008EBD00000DB407FEFDCF8EB50895643563
:1057F00008F047C0403308F044C0FC01878D242FD7
:10580000259525952595E62FFF27E7FDF09547700F
:10581000823091F4DF01A958BA4F84E52802A00D27
:10582000B11D11248C9190E0042E02C095958795AE
:105830000A94E2F780958170811112C084E52802F4
:10584000E00DF11D1124E958FA4F81E090E0042E9B
:1058500001C0880F0A94EAF780959081982310C0C0
:1058600084E52802E00DF11D1124E958FA4F81E08A
:1058700090E0042E01C0880F0A94EAF79081982BDB
:10588000908308951F93CF93DF93EC01162FF89424
:1058900060E08E850E94CC3A8F8518161CF460E07B
:1058A0000E94CC3A812F0E94F02B8F8518161CF491
:1058B00061E00E94CC3A7894DF91CF911F910895D6
:1058C00028EF31E0E7E7F5E0DF01A9011D92415043
:1058D0005040E1F7DC0119961C9219971A961C9218
:1058E0000895DF92EF92FF920F931F93CF93DF9370
:1058F000EC0187E7E82E85E0F82ED12C6D2D606451
:10590000CE010E94422C60E8CE010E94422C61E050
:105910008E850E94CC3A8F8518161CF460E00E9498
:10592000CC3A00E010E0F701E00FF11F80810E9407
:10593000F02B0F5F1F4F04351105A9F78F8518163F
:105940001CF461E00E94CC3AD39484E5E80EF11C8B
:1059500086E0D812D3CF60E4CE01DF91CF911F91C2
:105960000F91FF90EF90DF900C94422CFC01678F19
:1059700060A30895FC01678F40A30895AF92BF9282
:10598000CF92DF92EF92FF920F931F93CF93DF930B
:10599000EC01162FF42EE22EA02FBB27A7FDB09509
:1059A000A41BB10947FDB395B7FF03C0B195A195FD
:1059B000B109EE2DFF27E7FDF095E11BF10917FD79
:1059C000F395F7FF03C0F195E195F109BB24B3947A
:1059D000EA17FB0714F0B12C06C08E2DE02E082F1D
:1059E000812F1F2DF82EE11634F48F2DF02E082F65
:1059F000812F1E2DE82ECE2CC11AE02FFF27E7FDA8
:105A0000F095EF19F109F7FCF395F7FF03C0F19555
:105A1000E195F109AE2EDC2CC7FE03C0DD24D39442
:105A2000DC0CD594F01614F401E00FC00FEF0DC09C
:105A3000BB2071F0412F6F2DCE010E94F72BDA1899
:105A4000D7FE02C0F00EDC0C1F5FE1168CF703C01E
:105A50004F2D612FF1CFDF91CF911F910F91FF90CB
:105A6000EF90DF90CF90BF90AF9008950F93022FEB
:105A70000150040F262F0E94BE2C0F910895DF9233
:105A8000EF92FF920F931F93CF93DF937C01D42E5D
:105A9000162FC22FDD27C7FDD095C60FD11D67FD7C
:105AA000DA95812F992787FD90958C179D0744F4EF
:105AB000202F4D2D612FC7010E94362D1F5FF1CF82
:105AC000DF91CF911F910F91FF90EF90DF9008959C
:105AD0000F932150260F042F0E94BE2C0F91089582
