:100000000C944D080C9475080C9475080C947508A4
:100010000C9475080C9475080C9475080C9475086C
:100020000C9475080C9475080C9475080C9418378A
:100030000C9475080C9475080C9475080C9475084C
:100040000C9475370C9475080C9475080C9475080D
:100050000C9475080C9475080C9475080C9475082C
:100060000C9475080C94750863126E127912841240
:100070009412A112AC12B71257165A165D166416D6
:100080006D16741677167E16571A791A9B1ABF1AB0
:10009000E41A091B2C1B501B36243B244024452406
:1000A000512456245B246024E02407252725472576
:1000B00067258825AB25D225100E02180230026074
:1000C00007C00A7E163F103D10793FF37FE6FFCC54
:1000D000FF98FFF071C0100E008000800FF81F7CA9
:1000E0001F7C1E3C1C5C1C5C1E3C1FFC1FFC1FFC80
:1000F00013E41E3C100E02003FF83DF83C783838FF
:10010000383839383D783EF83EF83EF83EF827C892
:100110003C78100E02000200020003E0FE10FC0812
:10012000BC689E38CFEC67F633FB19FF0FFF038ED8
:10013000100E080008000980067F0820383C3FFEAA
:100140003FFE3FFE200215540FF800000000080A91
:1001500000000020704468D47AFE080A7CFE447CCB
:100160007C446C546C4420200000000006000050C9
:1001700009000212055C01000914000071AA400C7C
:1001800041550A207EFF8104558040125091200085
:10019000519521E44A911AB84D800D506EFFFABE78
:1001A000160187565A0362BC9701C1501A813AB0B2
:1001B000158003503EFE0EF80155F50401AAAB244C
:1001C0000F57D51435F7FF286B1F8148D519E1E487
:1001D000AB3FF15CD563D124791FD14449F7FF24AB
:1001E000C11401147F0C01FC2020080000203E00F7
:1001F00000F84900012441FFFF04E155550E41AAD2
:10020000AB04415555047EFFFEFC558003545A91C2
:1002100012B4559113545A9112B4558003547AFF75
:10022000FEBC158003501A8002B0158003501A805E
:1002300002B0158003503EFFFEF84155550441AA17
:10024000AB04E155550E41FFFF04490001247F0F27
:10025000E1FC4917D1244117D1044917D12449FFA2
:10026000FF24410001047F0001FC48290000000038
:1002700000000000000A0000000520000000060049
:10028000000018B000092404200000086014049243
:100290000414000006400809242678000002C0006B
:1002A00005963BC02800038040092C0F80100003F6
:1002B000804404920300000003815509FC03000000
:1002C000000380FF8DFA0300000200008109240072
:1002D000000006000CAD049E0000000A0002AD0FF5
:1002E000260002101AA800A26C9200412012AA1047
:1002F000FC092400195823FF060200000906002A01
:10030000022480000000BFE46ADA0000000000E080
:1003100020EADA0000000001A431AA028000000AED
:10032000283FEAFFFE40000004106180400000000A
:100330000000008C461404002060000005109002AC
:1003400000326800001081E3C0002DFC00001000A6
:100350008420282022080330800BD0102DAF1001FC
:10036000E4800BD0002DAE800187800C30002C2E55
:100370009C01C3000BD001BFFF8000E600042141B7
:10038000000000007E0003C3C0008058003C014014
:1003900007E006608A003C008007F0480286003CC7
:1003A00000000208800184003C0000029E0000CC96
:1003B000003E000001AA000068145500002282805F
:1003C00014380800000073FE200830000000000010
:1003D0000000003000000000000000000048290E6E
:1003E0000000080FE00000001BC0001C15500000BA
:1003F00000157000082AB00009242AA8000835500A
:100400001404925558001C2AB00809246AAC001C38
:1004100015500004923554283E0FE07E09241AB886
:10042000103E0380FF049207C0007F0381FF8924F0
:100430000300007F0381FF849203000022000081FB
:100440000924001E00220000AD0492003F002A0093
:1004500000AD09240073802BFC00A10492006DE024
:1004600023FE00FF0924002DF023FF000000000000
:1004700020202A0200000000002DA02ADA001FC060
:1004800000002DB02ADA003FE000002C282A0200EC
:100490007FF00A283FF43FFE007FF00410000000C8
:1004A00000002020000000000000002DA000007CC3
:1004B000000000002DBF8001AA0003C000203FC043
:1004C0000155800420282020C002AA800BD0102DC6
:1004D000AE800355400BD0002DAE8002AAC00C3078
:1004E000002C2E800355400BD0003FFFB802AAC05D
:1004F0000421FC00005601558003C3FE0001AB003F
:10050000FF014007FF000155003C008007FF00028B
:10051000AB003C00000202000355003C000002BAA0
:100520000002AB003E000002BA0001561455000064
:1005300002820014FC0800000003FE0008300000E6
:10054000000000000000300000000000000000007B
:10055000482980000000000007F8FF000007C000E5
:10056000000110110080046000000FFCFF100985DD
:10057000E0000011101108812570004010000100FA
:1005800000051820E01280013000078C2040128006
:1005900028025864EC20E013C02803FFFD7C206192
:1005A00013C07826C1643C00601140786630758CB9
:1005B00020E01060510E98258420E40000C1420024
:1005C000E58420E210000107FFE7FC20E00782003D
:1005D00015000000006011C3C100020000000017F8
:1005E00080F100096400000011E1C1080000000072
:1005F000001020F10C02001E000010000108008015
:100600002100000F9C3F0C00005E80000150110C87
:1006100000005E80033FFE1F1C000061800011117E
:10062000111C00005E80000000001C000021000082
:100630000000001C1C1E1E00000000001C222200E6
:1006400000000000000C5FFB00000000000000A79D
:10065000E500000002000000A6E20000001E00000D
:1006600000FE3C0000003E0000008388010600669A
:10067000102000A2A8010001EE3010088038000010
:10068000039E003000337E70000372007806BB7951
:10069000502003CA009410B0FF49589B8261320079
:1006A000FFF831EF02C2003A00000007D582C21CF9
:1006B0003810080026C682C2061800000003FF0397
:1006C000FE001848298000000000001FFFFF03FF04
:1006D000E7FC00001111110200240600181FFFFFA3
:1006E00002FFA5F500EE1111110280A516C15510EB
:1006F000C0010280A51562AA90500D03FFE7FEA578
:10070000555078290200240566ACD0787902AAA554
:1007100056A57450287902002405666C10285102F1
:10072000CC2584E5A410005102CC258420A0100023
:100730000102C0258420A010330103FFE7FC20A0A4
:1007400010A14100000000006011E1E10300000081
:10075000000011E1E11DC0000000001140A12AB01D
:10076000000000001140A15550001E0000100001C3
:10077000AAA8802100001FFFFFD598005E8000110D
:100780001111AE88005E80001FFFFFCD80006180E8
:10079000001111119480005E800000000014000020
:1007A00021000000000014FFFE1E000000000014E5
:1007B00080020000000000000CBFFF0000000000ED
:1007C0000000A00103FE03FE00C000A0010202021F
:1007D0000203B800FFFF02FB8EFA055400800902F5
:1007E0008B768A0AAA00AAAF028AAA8A15550080C7
:1007F0000903FF57FE19AB00B30F0202AA021175DD
:1008000000B30902AB56AA01B300B00F0203AE0257
:10081000012900FFF802C272C2002800000002C2D3
:1008200002C2002800080002C202C2002800000024
:1008300003FE03FE00301016101010105410AA0012
:1008400054008A8814449280500E0000000000007A
:1008500000400000400020141080000012008A12A6
:100860008290ECFE10161010383854549292AAAAB6
:10087000C6C692929292FEFE0000000000000000A8
:100880001010383854549292AAAAC6C68282828224
:10089000FEFE28180000C000000003B8000000059C
:1008A000540000000AAA000000155500000019AB12
:1008B000000000117500000801B300000A012900C2
:1008C000002C402800001C502800000000280000D8
:1008D0003FFE3000005555C0FC00AAAAA14200D539
:1008E0005562A1006AFAA490801F07CC9FC0003017
:1008F00017F4A00114000000039E000000011E0078
:100900000000028A000000000A000000201A03E034
:1009100000000C180000100400002202000040112A
:1009200000004001000083E08000AC1880009004CB
:10093000BF80AFFABD80D7F5BC80D7F5BB8097F4F8
:10094000A78097F4B78097F4BF80FFFFA0800000D6
:1009500000000000000000060000038800000250B4
:10096000000002600000FFBC7000B032E000C84A26
:100970007000CFCCE000201D003F800000D540007B
:100980001FABE00075D60000AABC0000DD6B0000C4
:10099000A7D58000CB7EC00095403FFC1D404002A3
:1009A0000B40FFFF0D4090090940A5690280B54941
:1009B0000280A6250480FFFF0786400200694EFAE8
:1009C000009F4EAA00E54EFA00BD4E0260A57FFED4
:1009D00096660000F9180E38A7000B2CBD000EBA61
:1009E000A5000F3C66000E3818000000180F01F03B
:1009F0000003F80007FC000208003E4F807EAFC0F5
:100A0000FC47E04000405CE74054E5405CE7404084
:100A1000E04043F8407C07C007FC001009AAA8008A
:100A2000008D880D808F880D808D880000AAA80613
:100A300006E0E05CF0E0A010090C001E0017002B9F
:100A40008037E06BF0D5F8AAFCFFFC080C04048C9E
:100A5000A8F8606870206070F80808020040040080
:100A6000200400080910181858DAFB7F1E18080522
:100A70002592623C10080C000000000000000000FD
:100A8000001C2A080C0000000000000000001C3EB2
:100A90003E080C00000000000000003E7F7F7F0841
:100AA0000C0000000000003E7F7F7F7F1C080C00D0
:100AB0000000003E7F7F7F7F1C1C3E080C00003E34
:100AC0007F7F7F7F1C08081C3E080C003E7F7F7FD5
:100AD0007F00000000081C080C001C3E7F7F3600D1
:100AE0000000000008080C00001C3E36000000005A
:100AF000000000080C0000081C00000000000000BE
:100B000000080C00000008000000000000000008C1
:100B10000C000000000000000000000000080800B9
:100B200000000000081C0008080000000008221453
:100B3000000808000000002208440010071C003EC6
:100B4000003E00FF80BE801C0022000F071C003EFC
:100B5000003600F380BE801C0022000F071C00221C
:100B6000002200F780BE801C0022001009007803DC
:100B7000F807FE03FC07F80DC0580078003000109D
:100B800009007802F805F203FC07F80DC058006868
:100B9000003000100E8000C000C000E0007000189F
:100BA000000E000F000F80FFE07FF037D81BC00160
:100BB000C0100E8000C000C000A000700018000E21
:100BC000000F000F80FE607E70274813C001C01028
:100BD000068040C1F0FFF847FC03FE01FE100680CE
:100BE00040C1F0BFE847E4033A01FE08050050A801
:100BF00050000F03007003801C000F030000FFFE75
:100C000000000F031C00038000700F03010003802D
:100C100001002804DBFFC5FFE0FA00490020720054
:100C20004D002023FFC9FFE0482300000000000022
:100C3000000000000000001800000001000000009B
:100C400007C000003E00000000007C0201E0000040
:100C500000000007F27F000000000000003DE000FF
:100C6000008020000003DFDF00011B36C0001E02F1
:100C700001E0012AA48001F007003E00B3128007C2
:100C80000002000100020000180007000000000040
:100C90000000000D800000005000000018C000009F
:100CA000501000000018C000009B558000003FE07D
:100CB00000005259000000EFB800008A5480000183
:100CC000EFBC00000000000001FFFC00000000007D
:100CD0000001FFFC000000800000FFFFFFF807FBA1
:100CE000EFF0007FFFFFF00001C00000221FC220D4
:100CF00000794F0000771FC7700000000000720FDE
:100D00008270000000000035070560000000000050
:100D100000FFF8000000000000007FF0000000006D
:100D200000000002000000000000000002000000BF
:100D300000000000000000000000000000000000B3
:100D400000008000000000000000010000210002FF
:100D5000000400C56310A1444420C502FFFFFFFF4B
:100D6000FFFFFFFFFF03053F213F1208120A100A91
:100D70000E1C0E0C1E0C141A14161F161E131E1E0B
:100D80001B1E1E1F1E3F213F3A2F3A173D173F21C2
:100D90003F181F02040A041F0E04040E1F0A1F0A34
:100DA0000E0E1F04110E2E252E2F2A2E2629290263
:100DB0001F02081F08150E04040E150E15151B152D
:100DC0001B040604040C04000000001700030003C9
:100DD0001F0A1F16371A1904130A153A00030000D8
:100DE0000E11110E000A040A040E0400300004045F
:100DF000040010001804031F111F121F101D1517E7
:100E000011151F07041F17151D1F151D01011F1F99
:100E1000151F17151F000A00003200040A110A0AE4
:100E20000A110A040115020E11171E051E1F150ACC
:100E30000E110A1F110E1F15111F05010E111D1F86
:100E4000041F111F1108100F1F041B1F10101F0675
:100E50001F1E040F0E110E1F09060E112E1F051A5C
:100E6000121509011F011F101F0F180F1F0C1F1B48
:100E7000041B031C03191513001F11030418111F71
:100E8000000201022020200001020C121E1F120C81
:100E90000C12120C121F0C1A14041E05242A1E1FF9
:100EA000021C141D1020201D1F0814111F101E04E9
:100EB0001E1E021C0C120C3E0A040C123E1E0402E2
:100EC00014160A020F120E101E0E100E1E081E120D
:100ED0000C1226281E322A26041E21001F00211E65
:100EE000040102013F213F0A4E6F205344206361F9
:100EF0007264206F720A6E6F204C4F414445522E2F
:100F00004845580A0A153A45786974001D20466C10
:100F1000617368696E670A20206C6F616465722E68
:100F20002E2E0A0A444F4E2754205455524E204F1D
:100F3000464621006D560A0A504C454153450A5415
:100F400055524E204F4646004C4F57204241545474
:100F50004552590A0017534400161378001613140B
:100F600000151020001520100000540A03E18186AE
:100F70007F3E186D830F0F0E0183866033186DC39B
:100F8000198F1803C38E6033186DE330CF1803C375
:100F90009E603630CDE360CF3006C79E7E3E30CDBA
:100FA000B360CF300CC6F6603330D9B660CF33CFE4
:100FB000CCF66061B0DB1E60CF30D86CE6C061B0AB
:100FC000DB1E618F19986CC6C063B19B0E330F0F87
:100FD000B078C6FF7E1F1B061E0F05008930080271
:100FE0003802497868140000F6E8DBCFC3B8AEA435
:100FF0009B928A827B746E68625C57524E4945416F
:101000003E3A3734312E2C29272523211F1D1C1A47
:101010001917161514131211100F0E0D0C0B0A09C7
:101020000807064500680100000500380168010056
:1010300000391035100101FF030101F70300000022
:101040000800020100000304070000000000000087
:101050000001020408102040800102040810200151
:10106000020408102004040404040404040202021C
:10107000020202030303030303000000002300260F
:1010800000290000000000250028002B00000000BF
:1010900000240027002A0000502911241FBECFEF92
:1010A000D8E0DEBFCDBF11E0A0E0B1E0E2EEF9E7AD
:1010B00002C005900D92A23DB107D9F727E0A2ED3D
:1010C000B1E001C01D92AE38B207E1F710E1CAE904
:1010D000D0E104C02297FE010E94D13CC839D1075B
:1010E000C9F70E948F390C94EF3C0C9400006435D2
:1010F00008F047C0403308F044C0FC01878D242F1E
:10110000259525952595E62FFF27E7FDF095477056
:10111000823091F4DF01A957BA4F84E52802A00D6F
:10112000B11D11248C9190E0042E02C095958795F5
:101130000A94E2F780958170811112C084E528023B
:10114000E00DF11D1124E957FA4F81E090E0042EE3
:1011500001C0880F0A94EAF780959081982310C007
:1011600084E52802E00DF11D1124E957FA4F81E0D2
:1011700090E0042E01C0880F0A94EAF79081982B22
:101180009083089581E490E09093EE048093ED04C1
:101190008BE290E09093F0048093EF041092F504BA
:1011A0001092F1041092F3041092F20483E0809301
:1011B000F40481E08093F6041092FB0494E1909390
:1011C000FA048093F8041092F9041092F704109234
:1011D000FC041092FD041092FF0480E097E0989FB9
:1011E000F0011124EA51FE4F1282118214821382FF
:1011F000158216828F5F8A3090F38093E5010895FF
:1012000080E095E00E94393481E08093E001109203
:10121000DF011092DE011092DD011092DC011092CC
:10122000E1010E94C20868E27CE080E095E00E9453
:10123000BB331092180508951092DB011092DD0166
:101240001092DC018091DF01882321F0813009F4C4
:101250004EC3089585E08093D40189E08093D20144
:1012600085E18093D3018CE390E09093D004809348
:10127000CF0488E290E09093D2048093D1043DE0C3
:101280003093D30427E02093D40481E592E0909337
:10129000D6048093D50489E390E09093D80480939A
:1012A000D7043093D9042093DA048BE891E090932B
:1012B000DC048093DB0485E890E09093DE04809367
:1012C000DD043093DF042093E00482E091E090930A
:1012D000E2048093E10486E291E09093E404809339
:1012E000E3043093E5042093E6048EE290E09093CB
:1012F000E8048093E70487E392E09093EA04809304
:10130000E9043093EB042093EC0481E290E09093A5
:1013100049048093480488E490E090934B048093C0
:101320004A048AE192E0909352048093510489E444
:1013300090E0909354048093530480E190E0909364
:101340005B0480935A0484E492E090935D0480935C
:101350005C0480E059E048E439E224E090E5589FDD
:10136000F0011124E85BFB4F44833583268310860C
:1013700097838F5F833098F381E291E090936404C8
:101380008093630484EA90E09093660480936504FC
:1013900088E392E090936D0480936C0484E191E083
:1013A00090936F0480936E048DE791E090937604A0
:1013B0008093750488EC91E090937804809377048F
:1013C00088E592E090937F0480937E0425E032E0EC
:1013D000309381042093800425E132E03093880427
:1013E0002093870424E132E030938A042093890417
:1013F0002FEF31E030939104209390049093930465
:101400008093920483E059E040E136E127E094E1E3
:10141000589FF0011124E85BFB4F448335832683FA
:10142000108697838F5F893098F38FE590E09093D3
:101430001D0380931C038EE191E090931F03809322
:101440001E032DE430E0309327032093260384E429
:1014500091E0909329038093280385E790E090938F
:1014600031038093300388E591E0909333038093B8
:10147000320386E890E090933B0380933A0380E345
:1014800091E090933D0380933C038DE791E090932E
:1014900045038093440386E290E090934703809352
:1014A000460384EB91E090934F0380934E0345E114
:1014B00050E0509351034093500341EA51E0509360
:1014C00059034093580330935B0320935A032DE84C
:1014D00031E030936303209362032CE831E03093D2
:1014E0006503209364032AE731E030936D03209372
:1014F0006C032CEA31E030936F0320936E032DE9E7
:1015000031E0309377032093760328EC31E0309379
:1015100079032093780323EC31E030938103209307
:10152000800328EA31E03093830320938203909371
:101530008B0380938A038FE891E090938D038093CF
:101540008C0380E692E0909395038093940388E265
:1015500092E090939703809396038AE492E09093AD
:101560009F0380939E038AE292E09093A10380936D
:10157000A0038CE292E09093A9038093A80384E3F4
:1015800092E09093AB038093AA0386E292E090935B
:10159000B3038093B20389E492E09093B503809300
:1015A000B40383E292E09093BD038093BC0381E691
:1015B00092E09093BF038093BE0380E09AE047E0FF
:1015C00038E024E1989FF0011124E45EFC4F44834D
:1015D000958336831086278311868F5F813190F340
:1015E0008EE590E09093C7038093C6038EE291E06E
:1015F0009093C9038093C80381E991E09093D1034C
:101600008093D00324E230E03093D3032093D203BD
:101610009093DB038093DA038BE991E09093DD03F1
:101620008093DC0381E492E09093E5038093E403EC
:1016300088E492E09093E7038093E60381E15AE027
:1016400090E236E020E5589FF0011124E45EFC4F63
:101650009483958346E036831086278311868F5FB7
:10166000853188F38093E5018091DE01882309F4B8
:101670008BC48CE392E090932D0280932C028BE735
:1016800090E090932F0280932E0285E391E0909357
:1016900039028093380286EA90E090933B0280936F
:1016A0003A0223E02093430286E291E090934502C0
:1016B000809344028FEB90E0909347028093460220
:1016C00020934F028AE492E090935102809350025B
:1016D00023E131E0309353022093520254E05093BF
:1016E0005B0223E432E030935D0220935C022CE243
:1016F00031E030935F0220935E02509367022EE642
:1017000031E0309369022093680227EC31E0309396
:101710006B0220936A0255E05093730225E831E092
:10172000309375022093740223EE31E030937702F8
:101730002093760250937F0229E632E030938102B3
:101740002093800228E032E03093830220938202CB
:1017500040938B0222E632E030938D0220938C027C
:101760002DE132E030938F0220938E024093970256
:1017700026E232E0309399022093980227E132E08A
:1017800030939B0220939A0247E04093A30220E209
:1017900032E03093A5022093A4022EE232E030938F
:1017A000A7022093A6024093AF0227E032E03093D5
:1017B000B1022093B00220E532E03093B3022093CF
:1017C000B20248E04093BB0220E132E03093BD0218
:1017D0002093BC022BE532E03093BF022093BE027F
:1017E0004093C7022DE530E03093C9022093C80230
:1017F0009093CB028093CA0222E02093D30289E522
:1018000091E09093D5028093D4028CE192E0909382
:10181000D7028093D6022093DF0280E04CE096E06E
:1018200035E021E0489FF0011124E45DFD4F9483F1
:101830009583168210863783118622878F5F8F30BB
:1018400088F38BE791E09093E1028093E00287E1D7
:1018500090E09093E3028093E20289E490E0909319
:10186000ED028093EC028CE191E09093EF02809383
:10187000EE028BE991E09093F9028093F8028EE8F2
:1018800091E09093FB028093FA0287E191E09093BC
:1018900005038093040380E292E090930703809312
:1018A000060384E18093370280E492E09093110371
:1018B0008093100383E192E09093130380931203CB
:1018C0008FE06CE050E14EE031E02EE194E0689F63
:1018D000F0011124E45DFD4F548345833683108667
:1018E0002783118692878F5F843188F34BC385E00D
:1018F0008093D40189E08093D20185E18093D30164
:101900008CE390E09093D0048093CF0488E290E041
:101910009093D2048093D1043DE03093D30427E028
:101920002093D40481E592E09093D6048093D5046B
:1019300089E390E09093D8048093D7043093D9043E
:101940002093DA048BE891E09093DC048093DB042D
:1019500085E890E09093DE048093DD043093DF040B
:101960002093E00482E091E09093E2048093E1040C
:1019700086E291E09093E4048093E3043093E504DD
:101980002093E6048EE290E09093E8048093E704CD
:1019900087E392E09093EA048093E9043093EB04A8
:1019A0002093EC0481E290E09093490480934804F2
:1019B00085E490E090934B0480934A048AE192E09E
:1019C000909352048093510489E490E090935404DE
:1019D0008093530480E190E090935B0480935A04D9
:1019E00084E492E090935D0480935C0480E099E04D
:1019F00048E439E220E5989FF0011124E85BFB4FB1
:101A0000448335839683108627838F5F833098F3D2
:101A100081E291E0909364048093630484EA90E00F
:101A2000909366048093650488E392E090936D043C
:101A300080936C0484E191E090936F0480936E0432
:101A40008DE791E0909376048093750488EC91E0A3
:101A5000909378048093770488E592E090937F04D4
:101A600080937E0425E032E030938104209380044B
:101A700025E132E0309388042093870424E132E0AA
:101A800030938A04209389042FEF31E0309391043E
:101A900020939004909393048093920483E059E000
:101AA00040E136E127E094E1589FF0011124E85B22
:101AB000FB4F448335832683108697838F5F89305D
:101AC00098F38FE590E090931D0380931C038EE1C3
:101AD00091E090931F0380931E032DE430E0309338
:101AE00027032093260384E491E0909329038093B5
:101AF000280385E790E0909331038093300388E5D5
:101B000091E0909333038093320386E890E09093C2
:101B10003B0380933A0380E391E090933D038093ED
:101B20003C038DE791E0909345038093440386E264
:101B300090E0909347038093460384EB91E0909369
:101B40004F0380934E0345E150E05093510340937F
:101B5000500341EA51E050935903409358033093A6
:101B60005B0320935A032DE831E030936303209305
:101B700062032CE831E030936503209364032AE785
:101B800031E030936D0320936C032CEA31E0309305
:101B90006F0320936E032DE931E030937703209398
:101BA000760328EC31E0309379032093780323EC1B
:101BB00031E0309381032093800328EA31E03093B1
:101BC00083032093820390938B0380938A038FE88F
:101BD00091E090938D0380938C0380E692E0909344
:101BE00095038093940388E292E090939703809307
:101BF00096038AE492E090939F0380939E038AE287
:101C000092E09093A1038093A0038CE292E09093E2
:101C1000A9038093A80384E392E09093AB0380939D
:101C2000AA0386E292E09093B3038093B20389E41F
:101C300092E09093B5038093B40383E292E0909393
:101C4000BD038093BC0381E692E09093BF03809331
:101C5000BE0380E09AE047E038E024E1989FF0017D
:101C60001124E45EFC4F44839583368310862783DA
:101C700011868F5F813190F38EE590E09093C703DA
:101C80008093C6038EE291E09093C9038093C803CA
:101C900081E991E09093D1038093D00324E230E076
:101CA0003093D3032093D2039093DB038093DA0322
:101CB0008BE991E09093DD038093DC0381E492E073
:101CC0009093E5038093E40388E492E09093E70324
:101CD0008093E60381E15AE090E236E020E5589FE8
:101CE000F0011124E45EFC4F9483958346E0368333
:101CF0001086278311868F5F853188F38093E501F5
:101D00008091DE01882309F43FC18CE392E0909337
:101D10002D0280932C028BE790E090932F0280930A
:101D20002E0285E391E0909339028093380286EA8F
:101D300090E090933B0280933A0223E02093430289
:101D400086E291E090934502809344028FEB90E00D
:101D5000909347028093460220934F028AE492E0D8
:101D6000909351028093500223E131E0309353026B
:101D70002093520254E050935B0223E432E030930C
:101D80005D0220935C022CE231E030935F022093ED
:101D90005E02509367022EE631E030936902209391
:101DA000680227EC31E030936B0220936A0255E021
:101DB0005093730225E831E030937502209374024A
:101DC00023EE31E0309377022093760250937F0226
:101DD00029E632E0309381022093800228E032E04D
:101DE000309383022093820240938B0222E632E0FA
:101DF00030938D0220938C022DE132E030938F02DC
:101E000020938E024093970226E232E030939902AB
:101E10002093980227E132E030939B0220939A02AC
:101E200047E04093A30220E232E03093A5022093E2
:101E3000A4022EE232E03093A7022093A602409340
:101E4000AF0227E032E03093B1022093B00220E5E8
:101E500032E03093B3022093B20248E04093BB02D9
:101E600020E132E03093BD022093BC022BE532E04A
:101E70003093BF022093BE024093C7022DE530E0AD
:101E80003093C9022093C8029093CB028093CA0278
:101E900022E02093D30289E591E09093D5028093CC
:101EA000D4028CE192E09093D7028093D6022093E3
:101EB000DF0280E04CE096E035E021E0489FF00151
:101EC0001124E45DFD4F9483958316821086378339
:101ED000118622878F5F8F3088F38BE791E0909394
:101EE000E1028093E00287E190E09093E302809327
:101EF000E20289E490E09093ED028093EC028CE1A1
:101F000091E09093EF028093EE028BE991E0909341
:101F1000F9028093F8028EE891E09093FB0280939F
:101F2000FA0287E191E0909305038093040380E235
:101F300092E0909307038093060384E18093370235
:101F400080E492E0909311038093100383E192E088
:101F500090931303809312038FE06CE050E14EE006
:101F600031E02EE194E0689FF0011124E45DFD4F23
:101F700054834583368310862783118692878F5F2B
:101F8000843188F38093E50108958091E0018130E8
:101F900021F0823009F461C0089562E08AE095E0A2
:101FA0000E947F2A882341F08091DF0190E0019612
:101FB000817099278093DF0160E08AE095E00E94BC
:101FC0007F2A882351F08091DF01811102C081E0D6
:101FD00002C0817081508093DF0163E08AE095E068
:101FE0000E947F2A882351F08091DE0190E00196C3
:101FF00063E070E00E947A3C8093DE0161E08AE059
:1020000095E00E947F2A882371F08091DE01811182
:1020100004C082E08093DE0106C063E00E945A3C67
:1020200091509093DE0164E08AE095E00E947F2A5F
:10203000882329F082E08093E0010E941C0966E079
:102040008AE095E00E947F2A882309F472C168E241
:102050007CE080E095E00C94BB3366E08AE095E09C
:102060000E947F2A882319F081E08093E00165E0D7
:102070008AE095E00E947F2A882361F08091FF0426
:10208000882329F0813031F41092FF0403C081E0ED
:102090008093FF0440E064E08AE095E00E94882A93
:1020A0009091F604882309F4F6C09111F4C0809150
:1020B000F504883009F0EFC081E08093F704809147
:1020C000FA04882309F435C140E062E08AE095E033
:1020D0000E94882A882369F04091F304242F332733
:1020E00027FD30958091F40490E02817390714F506
:1020F0001EC040E060E08AE095E00E94882A40919E
:10210000F304882371F08091F40490E09195819517
:102110009109242F332727FD30958217930754F414
:1021200002C0141614F4415003C0442319F04F5F49
:102130004093F30440E063E08AE095E00E94882A3F
:10214000882369F04091F204242F332727FD30952E
:102150008091F40490E02817390714F51EC040E080
:1021600061E08AE095E00E94882A4091F204882389
:1021700071F08091F40490E0919581959109242F5C
:10218000332727FD30958217930754F402C01416A5
:1021900014F4415003C0442319F04F5F4093F204FC
:1021A0002091F3041216A4F48091ED049091EE04B2
:1021B00060E0332727FD3095462F50E04217530744
:1021C000BCF4863742E094070CF401966F5FF4CFBD
:1021D0002223A1F08091ED049091EE0460E033277A
:1021E00021950CF43095462F50E0421753079CF090
:1021F0009093EE048093ED046093E5012091F20446
:102200001216DCF48091EF049091F00460E0332723
:1022100027FD30950CC0181619060CF401976F5F56
:10222000E2CF863742E094070CF401966F5F462FA9
:1022300050E042175307ACF310C02223A1F0809165
:10224000EF049091F00460E0332721950CF4309571
:10225000462F50E0421753077CF06093E5019093BE
:10226000F0048093EF0440E064E08AE095E00E948F
:10227000882A811107C015C08E3091050CF0019796
:102280006F5FE6CF8091F60481110BC08091F50459
:10229000883039F442C01092F704992309F40FCF23
:1022A00008951092F7048091FF04811142C080913B
:1022B000F30418163CF49091F204911117C0109297
:1022C000F10419C0811108C08091F2041816ACF411
:1022D00082E08093F10411C087FF15C08091F20461
:1022E0001816FCF493E09093F1041FC019161CF427
:1022F00091E09093F104811106C08091F20487FF70
:1023000018C086E007C01816A4F48091F20487FF75
:1023100010C087E08093F104089581E08093F70472
:10232000C2CF811102C084E0F5CF87FF02C085E0F3
:10233000F1CF0895282F30E06CE0869FF001112442
:10234000E45DFD4F8781882309F484C088E0809391
:10235000E201808191814091ED045091EE0464810D
:102360006695DC01A60FB11DBA01665F7F4F6A1743
:102370007B073CF401979183808384E0828780937C
:10238000E2018CE0829FF001839FF00D1124E45D57
:10239000FD4F8081918164816695DC01A60FB11D9E
:1023A0004A505109A417B50734F4019691838083EC
:1023B00012861092E2018CE0829FF001839FF00D63
:1023C0001124E45DFD4F828193814091EF0450918F
:1023D000F00465816695DC01A60FB11DBA01685055
:1023E0007109A617B7078CF40196938382838091B5
:1023F000E201843031F0883031F0811106C081E093
:1024000003C083E001C082E082878CE0829FF001FC
:10241000839FF00D1124E45DFD4F8281938125811E
:102420002695BC01620F711D485F5F4F4617570725
:102430008CF40197938382838091E201843031F0A0
:10244000883031F0811106C087E003C085E001C00B
:1024500086E0828708952F923F924F925F926F920B
:102460007F928F929F92AF92BF92CF92DF92EF9224
:10247000FF920F931F93CF93DF93CDB7DEB72E97C5
:102480000FB6F894DEBF0FBECDBF10E047E05AE0B4
:102490001A3008F099C0212F30E0429FF001439F8D
:1024A000F00D1124EA51FE4F8681882309F48AC079
:1024B000858190E08830910508F06AC0FC01EC5CF1
:1024C000FF4F0C94CF3C429FF001439FF00D11242D
:1024D000EA51FE4F81819281029630C0429FF00105
:1024E000439FF00D1124EA51FE4F818192810196A4
:1024F00015C0429FF001439FF00D1124EA51FE4F99
:1025000083819481029642C0429FF001439FF00D67
:102510001124EA51FE4F8181928101979283818338
:1025200083819481019632C0429FF001439FF00D58
:102530001124EA51FE4F8181928102979283818317
:1025400027C0429FF001439FF00D1124EA51FE4F36
:1025500081819281019715C0429FF001439FF00D48
:102560001124EA51FE4F8381948102970FC0429F4C
:10257000F001439FF00D1124EA51FE4F81819281B9
:1025800001969283818383819481019794838383CD
:10259000429FF001439FF00D1124EA51FE4F8681C6
:1025A0008F5F86838F3170F0A0815A9FD0011124F4
:1025B000A45EBC4F19961C9212821182148213825F
:1025C000158216821F5F64CF0091D3018091ED04C4
:1025D0009091EE046090EF047090F0042091F50467
:1025E000B301621B7109E091D9015091DA01409168
:1025F000D7012091D801B090E301A12CFAE09F2EE1
:1026000088248394A01608F0DFC09A9C60011124EE
:102610009601245E3C4F6901D90114962C911497C0
:1026200026954D915C911197420F511D1596EC9195
:102630001597E69512962D913C9113972E0F311D0B
:10264000FC01E41BF50BE65BFF4FE539F10508F0F3
:10265000B6C0F301E21BF30BE65BFF4FE539F10572
:1026600008F0ADC07601B9E0EB0EF11CD601199669
:10267000EC911997E111A3C01796EC91EE2309F4A0
:102680009EC0EBEEF1E0A6EEB1E0BA87A987ACEE12
:10269000B1E0BC87AB87B12C2701D6011696BE836B
:1026A000AD83DA011596BE87AD871A01B5E02B1A06
:1026B0003108790115E0E10EF11CD9011697B887B0
:1026C000AF836901B5E0CB1AD108B2E0E133FB0773
:1026D00009F474C0AB85BC851C91111163C0B110A5
:1026E00061C014E1D2011C93AD81BE81BC90B6E003
:1026F000BB1202C0D2019C92A985BA85AC921296F7
:102700005C934E93119714963C932E931397AB853D
:10271000BC858C921082AD85BE85A817B90724F4BC
:10272000E616F7060CF48082821593055CF0AD8501
:10273000BE85A817B9075CF02617370744F4B2E046
:10274000B08305C0E616F70614F413E0108384176F
:10275000950744F46C157D052CF0E616F70614F089
:10276000A4E0A083821593052CF46C157D0574F408
:10277000B5E00BC0AD85BE85A817B9073CF0AF81A9
:10278000B8856A177B0714F4B6E0B083AD85BE85C3
:10279000A817B9072CF46C157D0514F4B7E0B083C5
:1027A000BB24B3943796A985BA851796BA87A987AB
:1027B000AB85BC851796BC87AB8787CF1AE0A394FF
:1027C000E42F422F232F1ECF1093E401E093D90171
:1027D0005093DA014093D7012093D801B092E301DE
:1027E000A092E5013091DE01332309F412C130914A
:1027F000F504B301631B71094B2C912C882483943D
:1028000034E0532EF3E1F91508F4F5C0FCE0F99D2E
:10281000F0011124E45DFD4FF887EF8324812695B4
:1028200040815181420F511DE581E695AF81B88508
:1028300012962D913C9113972E0F311DFC01E41B34
:10284000F50BE65BFF4FE539F10508F0CFC0F3016A
:10285000E21BF30BE65BFF4FE539F10508F0C6C05C
:102860007D01B9E0EB0EF11CAF81B8851996EC91B2
:102870001997E111BBC01796EC91EE2309F4B6C08D
:10288000EBEEF1E006EE11E01C870B87ACEEB1E059
:10289000BA87A987412C0F8118850A5F1F4F1C83B7
:1028A0000B83FA82E9827A0115E0E10EF11C1A012C
:1028B000A5E02A1A31085901B5E0AB0EB11C890117
:1028C000065011091E830D83690115E0C11AD10854
:1028D000AF81B8851A96B887AF83B2E0E133FB07C2
:1028E00009F483C0A985BA851C91111171C04110EA
:1028F0006DC0AB85BC859C9212965C934E931197EC
:1029000014963C932E931397A985BA858C92AB812C
:10291000BC811C911123C1F0113009F057C008E2AD
:10292000A981BA810C93AF81B8851C911083AB85C6
:10293000BC8513960D911C9114970550110914969E
:102940001C930E93139742C004E1A981BA810C93A2
:102950001082E816F90624F4A616B7060CF4808255
:10296000821593054CF0E816F9065CF02617370738
:1029700044F412E0108305C0A616B70614F4A3E0D1
:10298000A083841795073CF46C157D0524F0A616EA
:10299000B7060CF050828215930534F46C157D0552
:1029A0006CF4B5E0B0830AC0E816F9063CF00D817E
:1029B0001E816017710714F416E01083E816F906FB
:1029C0002CF46C157D0514F4A7E0A08344244394F3
:1029D00037960B851C85095F1F4F1C870B87A985C0
:1029E000BA851796BA87A98778CF1AE09394E42F0F
:1029F000422F232F07CF1093E401E093D901509386
:102A0000DA014093D7012093D8014092E3019092DC
:102A1000E5012E960FB6F894DEBF0FBECDBFDF9155
:102A2000CF911F910F91FF90EF90DF90CF90BF90CB
:102A3000AF909F908F907F906F905F904F903F905E
:102A40002F900895EF92FF920F931F93CF93DF93F0
:102A50008091FE0481114CC08091ED049091EE04B0
:102A6000AC0143505109BC016D5F7F4F2091F504CB
:102A70008091EF049091F004821B9109DC0115977D
:102A80000196D091FA04F090FB0400E01091F60456
:102A9000C0E027E0E22ECA3008F5EC9EF0011124D8
:102AA000EA51FE4F2181328124173507ACF06217BD
:102AB000730794F0238134812A173B076CF0821747
:102AC000930754F0DD2311F0D55021F4FF24F39443
:102AD000D0E002C010E00CE0CF5FDDCFD093FA046D
:102AE000F092FB040093FE041093F604C093E401FB
:102AF000DF91CF911F910F91FF90EF9008951F9359
:102B0000CF93DF9340E06CE07AE0DEE1C9E015E0CE
:102B10004F3008F074C0242F30E0629FF001639FB3
:102B2000F00D1124E45DFD4FA385AA2309F465C0CF
:102B30008781811162C08085883C09F05EC08681F2
:102B4000811128C0CA9FD0011124A85BBB4F1796E2
:102B50008C9117978823F1F01783108614965C9157
:102B6000149756958D919C91850F911D918380832B
:102B7000A385CA9FD0011124A85BBB4F15965C9119
:102B80001597569512968D919C911397850F911DCF
:102B900093838283629FF001639FF00D1124E45DB3
:102BA000FD4F8681813049F5A3857A9FD00111249C
:102BB000A45EBC4F17968C9117978823F1F0D783AA
:102BC000108614962C91149726958D919C91820FC6
:102BD000911D91838083A3857A9FD0011124A45EE7
:102BE000BC4F15962C91159712968D919C91139729
:102BF000820F911D0596938382834F5F89CF409307
:102C0000E501DF91CF911F9108959091F604809195
:102C1000FB04992319F0913059F011C09091F504FB
:102C2000983068F481110BC09F5F9093F50408956C
:102C30009091F504992319F091509093F504813007
:102C400099F42091F504222379F08091F1049927D9
:102C500087FD9095019668E070E00E947A3C809331
:102C6000F10421502093F5040895FF920F931F93D0
:102C7000CF93DF938091F704813009F022C18091D6
:102C8000F104992787FD9095A92FB92F88309105D8
:102C900008F040C0FC01E45CFF4F4091ED0450910E
:102CA000EE042091EF043091F0040C94CF3C405F8F
:102CB0005F4F15C0485F5F4F09C05093DA014093E2
:102CC000D901285F3F4F22C0485051095093DA0183
:102CD0004093D9012B5F3F4F19C040515109509388
:102CE000DA014093D90112C04850510909C05093EC
:102CF000DA014093D9012850310908C0485F5F4F7D
:102D00005093DA014093D901255031093093D8010D
:102D10002093D701C091D3012091D9013091DA01DC
:102D20004091D7015091D801A091DB018091DC0145
:102D30009091DD01B0E0DAE0BC1790F5DB9FF00187
:102D40001124E45EFC4F608171816217730734F5D2
:102D50001481610F711D2617370704F56281738195
:102D600064177507DCF41581610F711D461757074D
:102D7000ACF46781662391F06150678361110EC0E6
:102D8000608561110BC0AF5F6681663029F06830E5
:102D900029F486509F4F02C088519C4FBF5FCCCF13
:102DA000A093DB01B091D201C091DE01A0E0D9E097
:102DB000AB17B0F5DA9FF0011124E85BFB4F60819F
:102DC00071816217730754F51481610F711D261705
:102DD000370724F56281738164177507FCF4158148
:102DE000610F711D46175707CCF467816623B1F058
:102DF00061506783611112C0C23081F46085611136
:102E00000DC06681673029F0693031F0643031F4EB
:102E100003C0825A9E4F02C088539F4FAF5FC8CFF6
:102E20009093DD018093DC01A093E501CC2309F4AC
:102E300048C0D0E01CE009E0D431E8F56D2F70E027
:102E4000169FF001179FF00D1124E45DFD4FA08146
:102E5000B181A217B3076CF5F480AF0DB11D2A172D
:102E60003B073CF5A281B381A417B50714F5F580A3
:102E7000AF0DB11D4A175B07E4F4A781AA23C9F07F
:102E8000A150A783A11115C0C13099F4E085E111CB
:102E900010C0069FF001079FF00D1124E85BFB4F67
:102EA0006681662329F0613021F48C599F4F01C05F
:102EB000C296DF5FC1CF9093DD018093DC01D09398
:102EC000E501DF91CF911F910F91FF9008951F931E
:102ED000CF93DF938091F2048111A0C08091F3041D
:102EE00081119CC08091F604811198C08091DF010E
:102EF0008823A9F0813009F091C0C091D40180915C
:102F0000ED049091EE042091EF043091F004709163
:102F1000FA04A091F804B0E060E0D6E051C0C0919E
:102F2000D4018091ED049091EE042091EF04309152
:102F3000F0047091FA04A091F804B0E060E0D6E0EB
:102F40006C1708F067C0D69FF0011124E153FB4FC6
:102F5000408151814817590734F51481410F511DA3
:102F60008417950704F54281538142175307DCF417
:102F7000E5814E0F511D24173507ACF4623069F01E
:102F800028F4662341F0613061F00DC0633049F0F0
:102F9000643019F008C0713310F0AD3120F4B1E0A5
:102FA00002C07133E0F36F5FCBCFD69FF0011124E5
:102FB000E153FB4F408151814817590724F06F5F5F
:102FC0006C1798F327C01481410F511D8417950782
:102FD000B4F742815381421753078CF7E5814E0FB6
:102FE000511D241735075CF7623069F028F4662319
:102FF00041F0613061F0E3CF633049F0643019F0A3
:10300000DECF713310F0AD31D0F6B1E0D8CF7133EF
:10301000E0F3D5CFB093F6046093E5018091F60418
:10302000813009F0B6C08091F5048111B2C0809161
:10303000DF018823A9F0813009F0ABC0C091D40131
:103040008091ED049091EE042091EF043091F00412
:103050007091FA046091F804B1E0A0E0D6E05CC0A1
:10306000C091D4018091ED049091EE042091EF0481
:103070003091F0047091FA046091F804B1E0A0E09E
:10308000D6E0AC1708F07DC0DA9FF0011124E153BF
:10309000FB4F40815181481759078CF51481410F2E
:1030A000511D841795075CF54281538142175307E0
:1030B00034F5E5814E0F511D2417350704F5A23074
:1030C000B9F028F4AA2341F0A13061F018C0A33070
:1030D00049F0A43069F013C0723351F0723350F4E8
:1030E0007F5F08C0723351F0723348F47F5F07C0CE
:1030F0006E3121F06E3118F46F5F01C0B0E0AF5F48
:10310000C0CFDA9FF0011124E153FB4F4081518180
:103110004817590724F0AF5FAC1798F332C01481F9
:10312000410F511D84179507B4F74281538142170F
:1031300053078CF7E5814E0F511D241735075CF7B7
:10314000A230B9F028F4AA2341F0A13061F0E3CF16
:10315000A33049F0A43069F0DECF723351F07233FE
:1031600050F47F5F08C0723351F07233A0F67F5F76
:10317000D2CF6E3121F06E3170F66F5FCCCFB0E000
:10318000CACF7093FA046093F804B093F604A09346
:10319000E501DF91CF911F9108958091F504882377
:1031A000E1F08091F90490E0019664E670E00E94FD
:1031B0007A3C8093F904892B39F48091F8048823B0
:1031C00019F081508093F8048091F804811105C0B2
:1031D00081E08093FB048093F60408958A32910580
:1031E0004CF09C012A5231092332324010F08252B5
:1031F00008958AE20895823291054CF09C01225292
:1032000031092734324010F08654089582E208953F
:103210002091ED043091EE042A32310564F0A901C9
:103220004A5251094332524020F4821B930B8A9632
:1032300002C0825292402DE730E0B9010E947A3CF0
:1032400083589F4FB9010E947A3C08952091EF0462
:103250003091F0042232310564F0A9014252510943
:103260004734524020F4821B930B829602C086544E
:1032700092402DE730E0B9010E947A3C83589F4F7D
:10328000B9010E947A3C08952091ED043091EE043A
:103290002A32310564F0A9014A52510943325240A1
:1032A00020F4821B930B8A960895825292400895CF
:1032B0002091EF043091F0042232310564F0A9012D
:1032C000425251094734524020F4821B930B82969C
:1032D00008958654924008958091F804882361F0FF
:1032E0008091F504882341F08091FC0490E00196E0
:1032F000837099278093FC048091E10190E001960E
:1033000062E370E00E947A3C8093E1018091FB04CB
:10331000813059F48091F504811107C08091FD043A
:103320008B3018F48F5F8093FD048091FE04882316
:1033300019F081508093FE045091D30120E03AE0CF
:103340002517F8F4822F90E0389FF001399FF00D97
:103350001124E45EFC4F4781411105C040854C308B
:1033600010F44F5F4087389FF001399FF00D112412
:10337000E45EFC4F8185882311F0815081872F5FA7
:10338000DFCF2091D20180E039E0821778F4389FB6
:10339000F0011124E85BFB4F9781911105C09085E6
:1033A0009C3010F49F5F90878F5FEFCF8093E50193
:1033B0008091DE01882329F120E03CE02431F8F4FB
:1033C000822F90E0389FF001399FF00D1124E45DC9
:1033D000FD4F4781411105C04085493C10F44F5FC6
:1033E0004087389FF001399FF00D1124E45DFD4FB7
:1033F0008185882311F0815081872F5FDFCF209353
:10340000E5010895EF920F93CF938091ED04909191
:10341000EE040E94EE18C82F282F30E03093DA0116
:103420002093D9018091EF049091F0040E94FB1841
:10343000282F30E03093D8012093D7014EEF480F6A
:103440006EEF6C0F2BEE3BE08EE495E00E947A2D40
:103450008091FE0463E00E945A3C911148C1209182
:10346000FC0488E0289F900111242E50344F409195
:10347000D7018091F504481B48506091D9016750ED
:103480008EE495E00E947A2D8091F104992787FDC2
:103490009095A92FB92F8830910508F028C1FC011B
:1034A000EC5BFF4F60E08EE495E00C94CF3C0E9413
:1034B000192B4091D7018091F504481B465060912B
:1034C000D9016950E12C00E02FEC3BE08EE495E05F
:1034D0000E94FA2D61E08EE495E00E94192B409144
:1034E000D7018091F504481B46506091D90169507D
:1034F0008DC00E94192B4091D7018091F504481B83
:103500004D506091D9016750E12C00E023E93BE088
:103510008EE495E00E94FA2D61E08EE495E00E9431
:10352000192B4091D7018091F504481B4D506091B3
:10353000D901675046C00E94192B4091D701809154
:10354000F504481B46506091D9016450E12C00E01D
:103550002BE33BE08EE495E00E94FA2D61E08EE4DF
:1035600095E00E94192B4091D7018091F504481BEA
:1035700046506091D90164502BE53BE0B4C00E94F5
:10358000192B4091D7018091F504481B4D50609153
:10359000D9016950EE24E39400E023E93BE08EE496
:1035A00095E00E94FA2D61E08EE495E00E94192BCF
:1035B0004091D7018091F504481B4D506091D9018D
:1035C000695021EB3BE08FC00E94192B4091D7013D
:1035D0008091F504481B46506091D9016750EE2454
:1035E000E39400E02FEC3BE08EE495E00E94FA2D9E
:1035F00061E08EE495E00E94192B4091D701809103
:10360000F504481B46506091D90167502DED3BE011
:103610006AC00E94192B4091D7018091F504481B84
:1036200046506091D9016750EE24E39400E02BE608
:103630003BE08EE495E00E94FA2D61E08EE495E097
:103640000E94192B4091D7018091F504481B4650E8
:103650006091D901675045C00E94192B4091D70154
:103660008091F504481B46506091D9016450E12CCB
:1036700000E02BE33BE08EE495E00E94FA2D61E050
:103680008EE495E00E94192B4091D7018091F504BA
:10369000481B46506091D90164502BE43BE023C0A5
:1036A0000E94192B4091D7018091F504481B465088
:1036B0006091D9016950E12C00E02BE63BE08EE4FB
:1036C00095E00E94FA2D61E08EE495E00E94192BAE
:1036D0004091D7018091F504481B46506091D90173
:1036E00069502FE73BE08EE495E00E94FA2DCF91E0
:1036F0000F91EF9008950F9360E08EE495E00E94A3
:10370000192B05E024E540E060E08EE495E00E949E
:10371000A22B61E08EE495E00E94192B22E13CE0AF
:1037200041E06AE28EE495E00E947A2D8091FF04E8
:103730008823C9F0813039F54AE050E06091DB011F
:103740008EE495E00E94D83A60E471E08EE495E062
:103750000E94013A4AE050E06091D3018EE495E086
:103760000E94D83A10C06EE371E08EE495E00E94AA
:10377000013A6091DC017091DD014AE050E08EE495
:1037800095E00E94C33A8091FA0465E00E945A3C99
:1037900002E0282F42E061E38EE495E00E94A22B34
:1037A0002091F8048BEA289F212D1124269542E0D0
:1037B00062E48EE495E00E94A22B8FE4809357058B
:1037C000109258058091FF04882329F0813051F42C
:1037D00066E471E002C062E471E08EE495E00F916E
:1037E0000C94013A0F9108950F93CF938091DF01CC
:1037F000882329F0813049F46DE571E002C06AE464
:1038000071E08EE495E00E94013A03E12EE147E089
:103810006AE08EE495E00E94D32B29E53AE041E18D
:1038200066E18EE495E00E947A2D29E53AE043E1D5
:103830006DE18EE495E00E947A2D2EE63AE049E0B3
:103840006EE18EE495E00E947A2D23E63AE049E0AD
:103850006CE08EE495E00E947A2D2EE147E062E371
:103860008EE495E00E94D32B6091DF0188E2689F8F
:10387000602D1124675F05E120E246E08EE495E0CB
:103880000E94D32BC3E2C09357058EE18093580565
:1038900060E771E08EE495E00E94013AC09357051D
:1038A00084E28093580565E771E08EE495E00E941C
:1038B000013AC09357058AE2809358056CE771E09E
:1038C0008EE495E00E94013A8091DE01482F440F7A
:1038D000480F440F435E2DED3BE06FE08EE495E032
:1038E0000E947A2D8091DE01482F440F480F440F2B
:1038F000455E2AEF3BE061E18EE495E0CF910F91C8
:103900000C947A2DCF938091DF01882319F08130B8
:1039100009F002C286E190E00E940819C82F809346
:10392000D9019093DA0180E190E00E9426198093FA
:10393000D7019093D8014CEE480F6CEE6C0F29E53F
:103940003AE08EE495E00E947A2D8EE190E00E94AC
:103950000819C82F8093D9019093DA0185E190E08E
:103960000E9426198093D7019093D8014CEE480FFE
:103970006CEE6C0F29E53AE08EE495E00E947A2D1A
:1039800086E190E00E940819C82F8093D901909396
:10399000DA018AE190E00E9426198093D701909382
:1039A000D8014CEE480F6CEE6C0F29E53AE08EE43E
:1039B00095E00E947A2D8DE490E00E940819C82FAE
:1039C0008093D9019093DA018BE090E00E94261950
:1039D0008093D7019093D8014CEE480F6CEE6C0F9A
:1039E00029E53AE08EE495E00E947A2D8BE290E0A2
:1039F0000E940819C82F8093D9019093DA018DE2B3
:103A000090E00E9426198093D7019093D8014CEE44
:103A1000480F6CEE6C0F29E53AE08EE495E00E94C9
:103A20007A2D82E590E00E940819C82F8093D90171
:103A30009093DA0180E390E00E9426198093D701E9
:103A40009093D8014CEE480F6CEE6C0F29E53AE0EC
:103A50008EE495E00E947A2D8BE190E00E94081997
:103A6000C82F8093D9019093DA0181E590E00E94FC
:103A700026198093D7019093D8014CEE480F6CEE35
:103A80006C0F29E53AE08EE495E00E947A2D84E2FD
:103A900090E00E940819C82F8093D9019093DA0111
:103AA00085E590E00E9426198093D7019093D80174
:103AB0004CEE480F6CEE6C0F29E53AE08EE495E091
:103AC0000E947A2D8CE190E00E940819C82F809303
:103AD000D9019093DA018BE590E00E94261980933A
:103AE000D7019093D8014CEE480F6CEE6C0F29E58E
:103AF0003AE08EE495E00E947A2D87E690E00E94FD
:103B00000819C82F8093D9019093DA0184E790E0D7
:103B10000E9426198093D7019093D8014CEE480F4C
:103B20006CEE6C0F29E53AE08EE495E00E947A2D68
:103B300080E490E00E940819C82F8093D9019093E7
:103B4000DA018EE190E00E9426198093D7019093CC
:103B5000D8014CEE480F6CEE6C0F2EE63AE08EE486
:103B600095E00E947A2D8EE090E00E940819C82FFF
:103B70008093D9019093DA0180E490E00E942619A5
:103B80008093D7019093D8014CEE480F6CEE6C0FE8
:103B90002EE63AE08EE495E00E947A2D85E390E0EF
:103BA0000E940819C82F8093D9019093DA0187E702
:103BB00090E00E9426198093D7019093D8014CEE93
:103BC000480F6CEE6C0F2EE63AE08EE495E00E9412
:103BD0007A2D84E090E00E940819C82F8093D901C3
:103BE0009093DA0183E090E00E9426198093D70138
:103BF0009093D8014CEE480F6CEE6C0F23E63AE040
:103C00008EE495E00E947A2D89E590E00E940819E3
:103C1000C82F8093D9019093DA0189E490E00E9443
:103C200026198093D7019093D8014CEE480F6CEE83
:103C30006C0F23E63AE08EE495E00E947A2D84E54D
:103C400090E00E940819C82F8093D9019093DA015F
:103C500084E590E00E9426198093D7019093D801C3
:103C60004CEE480F6CEE6C0F27E33AE08EE495E0E3
:103C70000E947A2D82E690E00E940819C82F809356
:103C8000D9019093DA0180E590E00E942619809393
:103C9000D7019093D8014CEE480F6CEE6C0F23E6E1
:103CA0003AE08EE495E00E947A2D87E090E00E9451
:103CB0000819C82F8093D9019093DA018DE690E01E
:103CC0000E9426198093D7019093D8014CEE480F9B
:103CD0006CEE6C0F2BE43AE08EE495E00E947A2DB6
:103CE0008EE690E00E940819C82F8093D901909326
:103CF000DA018AE190E00E9426198093D70190931F
:103D0000D8014CEE480F6CEE6C0F2BE43AE08EE4D9
:103D100095E0CF910C947A2DCF910895FF920F9357
:103D20001F93CF93DF938091DF01882321F08130AF
:103D300009F408C20DC489E390E00E944419EC0123
:103D40009093DA018093D90183E190E00E945819A1
:103D50009093D8018093D70123E12093D6012FE0DF
:103D60002093D5019E012E5E3F4F2636310580F40B
:103D70009C01225F3F4F2E33310550F420912001EA
:103D800030912101482F6C2F8EE495E00E947A2D0E
:103D900088E190E00E944419EC019093DA0180934D
:103DA000D9018BE190E00E9458199093D80180933B
:103DB000D70120E22093D6012DE12093D5019E0169
:103DC000215E3F4F2337310580F49C01245E3F4F35
:103DD0002C34310550F42091220130912301482FD9
:103DE0006C2F8EE495E00E947A2D8AE090E00E948C
:103DF0004419EC019093DA018093D90186E292E0B4
:103E00000E9458199093D8018093D70120E2209303
:103E1000D6012DE12093D5019E01215E3F4F23372E
:103E2000310580F49C01245E3F4F2C34310550F461
:103E30002091220130912301482F6C2F8EE495E0D0
:103E40000E947A2D81E891E00E944419EC01909340
:103E5000DA018093D90187E690E00E945819909387
:103E6000D8018093D70120E22093D6012DE1209341
:103E7000D5019E01215E3F4F2337310580F49C011F
:103E8000245E3F4F2C34310550F4209122013091B3
:103E90002301482F6C2F8EE495E00E947A2D8DE44B
:103EA00090E00E944419EC019093DA018093D901CB
:103EB00081E290E00E9458199093D8018093D70135
:103EC00029E12093D6012AE12093D5019E01285EA5
:103ED0003F4F2C36310580F49C01275E3F4F29343B
:103EE000310550F42091240130912501482F6C2F89
:103EF0008EE495E00E947A2D8DE492E00E944419B0
:103F0000EC019093DA018093D9018AE190E00E945C
:103F100058199093D8018093D70129E12093D601B5
:103F20002AE12093D5019E01285E3F4F2C363105B2
:103F300080F49C01275E3F4F2934310550F42091D5
:103F4000240130912501482F6C2F8EE495E00E94CA
:103F50007A2D82E191E00E944419EC019093DA01FC
:103F60008093D9018FE191E00E9458199093D80174
:103F70008093D70129E12093D6012AE12093D5012E
:103F80009E01285E3F4F2C36310580F49C01275E50
:103F90003F4F2934310550F42091240130912501FF
:103FA000482F6C2F8EE495E00E947A2D8DEF90E0E3
:103FB0000E944419EC019093DA018093D9018FE9B2
:103FC00090E00E9458199093D8018093D70124E281
:103FD0002093D60128E12093D5019E012D5D3F4F0E
:103FE0002737310580F49C01295E3F4F2734310586
:103FF00050F42091280130912901482F6C2F8EE434
:1040000095E00E947A2D88E990E00E944419EC0125
:104010009093DA018093D9018EE991E00E945819BA
:104020009093D8018093D70124E22093D60128E110
:104030002093D5019E012D5D3F4F2737310580F438
:104040009C01295E3F4F2734310550F4209128010F
:1040500030912901482F6C2F8EE495E00E947A2D33
:104060008EE092E00E944419EC019093DA01809373
:10407000D9018CE191E00E9458199093D801809366
:10408000D70124E22093D60128E12093D5019E0197
:104090002D5D3F4F2737310580F49C01295E3F4F4E
:1040A0002734310550F42091280130912901482FFF
:1040B0006C2F8EE495E00E947A2D1092E50146E087
:1040C000F42EC091E501C53008F042C2FC9EE0012B
:1040D0001124C153DB4F888199810E9444198C01BE
:1040E0009093DA018093D9018A819B810E945819AB
:1040F0009093D8018093D70104351105ECF42C81FD
:1041000030E031952195310920173107ACF4803327
:10411000910594F42D8130E03195219531092817CE
:10412000390754F420911E0130911F01482F602F50
:104130008EE495E00E947A2D8091E5018F5F809357
:10414000E501BFCF89E390E00E944419EC01909310
:10415000DA018093D90183E190E00E94581990938D
:10416000D8018093D70123E12093D6012FE020933B
:10417000D5019E012E5E3F4F2636310580F49C010D
:10418000225F3F4F2E33310550F4209120013091B2
:104190002101482F6C2F8EE495E00E947A2D88E152
:1041A00090E00E944419EC019093DA018093D901C8
:1041B0008BE190E00E9458199093D8018093D70129
:1041C00020E22093D6012DE12093D5019E01215EAE
:1041D0003F4F2337310580F49C01245E3F4F2C3440
:1041E000310550F42091220130912301482F6C2F8A
:1041F0008EE495E00E947A2D8AE090E00E944419B6
:10420000EC019093DA018093D90186E292E00E945A
:1042100058199093D8018093D70120E22093D601BA
:104220002DE12093D5019E01215E3F4F23373105BB
:1042300080F49C01245E3F4F2C34310550F42091D2
:10424000220130912301482F6C2F8EE495E00E94CB
:104250007A2D81E891E00E944419EC019093DA01F3
:104260008093D90187E690E00E9458199093D80175
:104270008093D70120E22093D6012DE12093D50130
:104280009E01215E3F4F2337310580F49C01245E5F
:104290003F4F2C34310550F42091220130912301FD
:1042A000482F6C2F8EE495E00E947A2D8DE490E0EB
:1042B0000E944419EC019093DA018093D90181E2C4
:1042C00090E00E9458199093D8018093D70129E17A
:1042D0002093D6012AE12093D5019E01285E3F4F0D
:1042E0002C36310580F49C01275E3F4F293431057F
:1042F00050F42091240130912501482F6C2F8EE439
:1043000095E00E947A2D8DE492E00E944419EC0120
:104310009093DA018093D9018AE190E00E945819C4
:104320009093D8018093D70129E12093D6012AE107
:104330002093D5019E01285E3F4F2C36310580F435
:104340009C01275E3F4F2934310550F42091240110
:1043500030912501482F6C2F8EE495E00E947A2D34
:1043600082E191E00E944419EC019093DA0180937C
:10437000D9018FE191E00E9458199093D801809360
:10438000D70129E12093D6012AE12093D5019E018E
:10439000285E3F4F2C36310580F49C01275E3F4F4D
:1043A0002934310550F42091240130912501482F02
:1043B0006C2F8EE495E00E947A2D8DEF90E00E94A4
:1043C0004419EC019093DA018093D9018FE990E0D0
:1043D0000E9458199093D8018093D70124E220932A
:1043E000D60128E12093D5019E012D5D3F4F27374F
:1043F000310580F49C01295E3F4F2734310550F48C
:104400002091280130912901482F6C2F8EE495E0EE
:104410000E947A2D88E990E00E944419EC01909363
:10442000DA018093D9018EE991E00E9458199093A6
:10443000D8018093D70124E22093D60128E120936C
:10444000D5019E012D5D3F4F2737310580F49C013A
:10445000295E3F4F2734310550F4209128013091D7
:104460002901482F6C2F8EE495E00E947A2D8EE072
:1044700092E00E944419EC019093DA018093D901F3
:104480008CE191E00E9458199093D8018093D70154
:1044900024E22093D60128E12093D5019E012D5DD1
:1044A0003F4F2737310580F49C01295E3F4F273469
:1044B000310550F42091280130912901482F6C2FAB
:1044C0008EE495E00E947A2D1092E50136E0F32EFD
:1044D000C091E501C530E0F5FC9EE0011124C15317
:1044E000DB4F888199810E9444198C019093DA01F5
:1044F0008093D9018A819B810E9458199093D80199
:104500008093D70104351105ECF42C8130E031950E
:104510002195310920173107ACF48033910594F4CB
:104520002D8130E03195219531092817390754F450
:1045300020911E0130911F01482F602F8EE495E0DD
:104540000E947A2D8091E5018F5F8093E501C0CFB5
:10455000DF91CF911F910F91FF900895DF92EF921D
:10456000FF920F931F93CF93DF931092E50179E0B1
:10457000D72EE090E5018091D201E81608F057C0EF
:10458000F12CDE9CE001DF9CD00D1124C85BDB4FD9
:10459000888199810E9444198C019093DA0180935B
:1045A000D9018A819B810E9458199093D8018093E8
:1045B000D70104351105ACF52C8130E031952195FA
:1045C0003109201731076CF58033910554F52D81A1
:1045D00030E03195219531092817390714F52F81DD
:1045E00021110AC02885263038F0EE81F0E0EE0F68
:1045F000FF1FE65FFE4F0DC0DE9CF001DF9CF00D5B
:104600001124E85BFB4FE681F0E0EE0FFF1FE25E56
:10461000FE4F20813181482F602F8EE495E00E946B
:104620007A2D8091E5018F5F8093E501A2CFDF9124
:10463000CF911F910F91FF90EF90DF900895DF923F
:10464000EF92FF920F931F93CF93DF931092E501A8
:10465000CAE0DC2EE090E5018091D301E81608F075
:1046600057C0F12CDE9CE001DF9CD00D1124C45E0C
:10467000DC4F888199810E9444198C019093DA0162
:104680008093D9018A819B810E9458199093D80107
:104690008093D70104351105ACF52C8130E03195BC
:1046A00021953109201731076CF58033910554F5B8
:1046B0002D8130E03195219531092817390714F5FE
:1046C0002F8121110AC02885263038F0EE81F0E0D4
:1046D000EE0FFF1FE65FFE4F0DC0DE9CF001DF9C7A
:1046E000F00D1124E45EFC4FE681F0E0EE0FFF1FB9
:1046F000E25EFE4F20813181482F602F8EE495E0ED
:104700000E947A2D8091E5018F5F8093E501A2CF11
:10471000DF91CF911F910F91FF90EF90DF9008955F
:10472000CF92DF92EF92FF920F931F93CF93DF937D
:104730001092E501DCE0FD2ECCEEDFEFE090E5012C
:10474000F3E1FE1508F4CAC02E2D30E0F29EF00110
:10475000F39EF00D1124E45DFD4F878181110AC0A5
:104760008085883038F0883108F0B2C0837082309C
:1047700009F0AEC0F29E8001F39E100D1124045D7D
:104780001D4FF801808191810E9444196C01909322
:10479000DA018093D901F801828193810E9458192E
:1047A0009093D8018093D701F8E6CF16D104ACF4EA
:1047B000F8012481AE01421B51094C155D056CF4D2
:1047C0008434910554F42581FE01E21BF109E817B8
:1047D000F9071CF48E2D0E949A116091D9017091F5
:1047E000DA01643571050CF073C0E091E501FE9EBD
:1047F000F0011124E45DFD4F848190E09195819555
:104800009109861797070CF063C04091D70150912A
:10481000D801403351050CF05BC0858190E0919543
:1048200081959109841795070CF052C086818111FA
:1048300013C08781882359F082858250843020F408
:10484000EE24E39400E005C02FE23AE03DC0E12C05
:1048500001E02FE23AE020C0828590E088309105A7
:10486000B8F5FC01E45BFF4F0C94CF3C2091320182
:104870003091330129C0209134013091350124C099
:1048800020913601309137011FC0209134013091C1
:104890003501EE24E39400E08EE495E00E94FA2DC9
:1048A00017C02091320130913301F3CF20913A01AA
:1048B00030913B01EECF209138013091390104C095
:1048C00020913A0130913B018EE495E00E947A2DCF
:1048D0008091E5018F5F8093E50130CFDF91CF912B
:1048E0001F910F91FF90EF90DF90CF9008950F935D
:1048F000CF93DF9398E0899FE0011124CF57DE4FDB
:1049000000E020E04E8160E085E295E00E940635FF
:1049100020E0488161E085E295E00E9406352C8127
:1049200021954D8162E085E295E00E9406352A815D
:104930002A534B8163E085E295E00E94063520E032
:104940004F81698185E295E0DF91CF910F910C94C1
:104950003735EF920F93CF938091F704813009F0B0
:104960004AC180E00E9477248091ED049091EE048A
:104970000E94EE18C82F482F50E05093DA01409360
:10498000D9018091EF049091F0040E94FB18E82F68
:10499000F0E0F093D801E093D7014091F10455275E
:1049A00047FD5095652F752F4830510508F023C1FC
:1049B000FA01EC5AFF4F9091E10193700C94CF3CB7
:1049C00091110DC020E12C0F9091F504482F491B47
:1049D00066E06C0F082F8EE495E00E94212B209159
:1049E000E1018BEA289F812D11248695982F990F3C
:1049F000980F291B8AE0289F90011124235E344FD1
:104A00004091D70144506091D901645FEDC091118C
:104A10000FC005E0080F28E02C0F9091F504482FF7
:104A2000491B4F5F63E06C0F8EE495E00E94212BE1
:104A30008091E10163E00E945A3C8AE0989F9001D6
:104A40001124235E344F4091D7014F5FCAC09111AA
:104A50000CC008E0080F9091F504482F491B2C2F3B
:104A60006C2F8EE495E00E94212B8091E10163E0A0
:104A70000E945A3C8AE0989F90011124235E344F93
:104A80004091D7014C5F6091D9016450ADC0911144
:104A90000FC005E0080F28EF2C0F9091F504482F68
:104AA000491B4F5F6DEF6C0F8EE495E00E94212B48
:104AB0008091E10163E00E945A3C8AE0989F900156
:104AC0001124235E344F4091D7014F5F40C09111B4
:104AD0000DC020EF2C0F9091F504482F491B6AEF71
:104AE0006C0F082F8EE495E00E94212B8091E1014C
:104AF00063E00E945A3C8AE0989F90011124235E53
:104B0000344F4091D70144506091D901645142C063
:104B100091110FC00BEF080F28EF2C0F9091F504A7
:104B2000482F491B42506BEF6C0F8EE495E00E94BA
:104B3000212B8091E10163E00E945A3C8AE0989F1A
:104B400090011124235E344F4091D7014950609168
:104B5000D9016C501FC091110CC008EF080F909143
:104B6000F504482F491B2C2F6C2F8EE495E00E94F2
:104B7000212B8091E10163E00E945A3C8AE0989FDA
:104B800090011124235E344F4091D7014C50609125
:104B9000D9016450EE24E39400E08EE495E00E9495
:104BA000FA2D29C091110FC00BEF080F28E02C0F30
:104BB0009091F504482F491B425065E06C0F8EE43C
:104BC00095E00E94212B8091E10163E00E945A3C14
:104BD0008AE0989F90011124235E344F4091D701C1
:104BE00049506091D9016C5F8EE495E0CF910F91AF
:104BF000EF900C947A2DCF910F91EF900895EF9252
:104C0000FF921F93CF93DF931F92CDB7DEB7109221
:104C1000E50117E0E091E501EA3008F053C01E9F7E
:104C2000F0011124EA51FE4F8681882309F444C023
:104C3000813019F480E00E9477248091E501189F6B
:104C400070011124C7018A519E4F7C01FC018181B2
:104C500092810E944419682F8093D9019093DA01C0
:104C6000F7018381948169830E9458198093D70149
:104C70009093D801482F69818EE495E00E947708CF
:104C80006091D9016F5F4091D7018EE495E00E9459
:104C900077084091D7014F5F6091D9016F5F8EE433
:104CA00095E00E9477084091D7014F5F6091D9014C
:104CB0008EE495E00E9477088091E5018F5F8093F4
:104CC000E501A8CF0F90DF91CF911F91FF90EF905A
:104CD0000895EF92FF920F931F93CF93DF931F924C
:104CE000CDB7DEB78091FB04813099F58091F50452
:104CF00081112FC08091FD048B3058F581E00E9416
:104D000077248091ED049091EE040E94EE18082F14
:104D100010E0025011091093DA010093D90180913B
:104D2000EF049091F0040E94FB18282F30E030939C
:104D3000D8012093D7012091FD049EE0299F900186
:104D400011242B58354F482F602F8EE495E00E9498
:104D50007A2D1092E5011AE00EE0E091E5018091D4
:104D6000D301E81708F0FCC01E9FF0011124E45E97
:104D7000FC4F87818111EEC080858C3008F0EAC03D
:104D800081E00E9477248091E501189F7001112431
:104D9000F701E45EFC4F7F01808191810E944419FC
:104DA000682F8093D9019093DA01F7018281938172
:104DB00069830E945819AC01445051095093D8019D
:104DC0004093D701F7012085029F900111242B58B1
:104DD000354F69818EE495E00E947A2DE091E501DE
:104DE0001E9FF0011124E45EFC4F8681843009F09F
:104DF000B1C02085029F900111242B58354F40915E
:104E0000D701415F6091D9016E5F8EE495E00E9409
:104E10007A2DE091E5011E9FF0011124E45EFC4F24
:104E20002085029F900111242B58354F4091D701C6
:104E30004F5F6091D901665F8EE495E00E947A2D04
:104E4000E091E5011E9FF0011124E45EFC4F2085F6
:104E5000029F900111242B58354F4091D701495E94
:104E60006091D901625F8EE495E00E947A2DE09115
:104E7000E5011E9FF0011124E45EFC4F2085029F96
:104E8000900111242B58354F4091D7014E5F60910E
:104E9000D901655E8EE495E00E947A2DE091E501EE
:104EA0001E9FF0011124E45EFC4F2085029F9001BB
:104EB00011242B58354F4091D701445E6091D901A0
:104EC000625E8EE495E00E947A2DE091E5011E9FDE
:104ED000F0011124E45EFC4F2085029F9001112413
:104EE0002B58354F4091D7014B5E6091D901625DDF
:104EF0008EE495E00E947A2DE091E5011E9FF0017D
:104F00001124E45EFC4F2085029F900111242B5850
:104F1000354F4091D7014E5F6091D901675C8EE4B7
:104F200095E00E947A2DE091E5011E9FF001112489
:104F3000E45EFC4F2085029F900111242B58354FD1
:104F40004091D701465E6091D901615C8EE495E0A5
:104F50000E947A2D8091E5018F5F8093E501FDCE5F
:104F60001092E50119E00EE0E091E5018091D20197
:104F7000E81708F0FDC01E9FF0011124E85BFB4F0D
:104F800087818111EFC080858C3008F0EBC081E013
:104F90000E9477248091E501189F70011124C701B8
:104FA000885B9B4F7C01FC01808191810E944419A8
:104FB000682F8093D9019093DA01F7018281938160
:104FC00069830E945819AC01445051095093D8018B
:104FD0004093D701F7012085029F900111242B589F
:104FE000354F69818EE495E00E947A2DE091E501CC
:104FF0001E9FF0011124E85BFB4F8681843009F08D
:10500000B1C02085029F900111242B58354F40914B
:10501000D701415F6091D9016E5F8EE495E00E94F7
:105020007A2DE091E5011E9FF0011124E85BFB4F12
:105030002085029F900111242B58354F4091D701B4
:105040004F5F6091D901665F8EE495E00E947A2DF2
:10505000E091E5011E9FF0011124E85BFB4F2085E4
:10506000029F900111242B58354F4091D701495E82
:105070006091D901625F8EE495E00E947A2DE09103
:10508000E5011E9FF0011124E85BFB4F2085029F84
:10509000900111242B58354F4091D7014E5F6091FC
:1050A000D901655E8EE495E00E947A2DE091E501DC
:1050B0001E9FF0011124E85BFB4F2085029F9001A9
:1050C00011242B58354F4091D701445E6091D9018E
:1050D000625E8EE495E00E947A2DE091E5011E9FCC
:1050E000F0011124E85BFB4F2085029F9001112401
:1050F0002B58354F4091D7014B5E6091D901625DCD
:105100008EE495E00E947A2DE091E5011E9FF0016A
:105110001124E85BFB4F2085029F900111242B583E
:10512000354F4091D7014E5F6091D901675C8EE4A5
:1051300095E00E947A2DE091E5011E9FF001112477
:10514000E85BFB4F2085029F900111242B58354FBF
:105150004091D701465E6091D901615C8EE495E093
:105160000E947A2D8091E5018F5F8093E501FCCE4E
:105170008091DE01882309F44CC01092E5011CE007
:105180000EE08091E501843108F043C0189F700162
:105190001124C701845D9D4F7C01FC018781811131
:1051A00032C080858C3078F5808191810E944419CD
:1051B0009093DA018093D901F701828193810E9453
:1051C000581904979093D8018093D701F7018681ED
:1051D0008130C9F40E947724E091E5011E9FF0011F
:1051E0001124E45DFD4F2085029F900111242B586E
:1051F000354F4091D70143506091D9016B5F8EE4E8
:1052000095E00E947A2D8091E5018F5F8093E50102
:10521000B8CF0F90DF91CF911F910F91FF90EF903A
:10522000089580E095E00E947E318823C1F180914D
:10523000E001813019F0823029F008950E94F41BBA
:105240000C94C50F0E948E1E0E94AE220E941F2346
:105250008091DE0181110E9490230E94821C0E9495
:10526000A9240E94FF250E947B1B0E94021A0E9413
:1052700069260E9467170E94C50F0E9405160E94AA
:1052800035160E9422150E94CD180E942B120E94F2
:105290006C198091DE01823011F40C947F15089511
:1052A000109251051092500585EB91E090934F05B7
:1052B00080934E050895CF93CFB7F89480918605DB
:1052C000811127C0EFE6F0E18491EBE5F0E19491E4
:1052D000E82FF0E0EE0FFF1FE357FF4EA591B491CA
:1052E0008C91892321F461E08AE00E942F3961E0EA
:1052F0008AE00E94F6388CB580618CBD8CB58064E4
:105300008CBD61E08DE00E94F63861E08BE00E9488
:10531000F638809186058F5F80938605CFBFCF9149
:10532000089521E0FC012083089570E085E00C944D
:105330006E38AF92BF92CF92DF92EF92FF920F93AF
:105340001F93CF93DF93EC0189819A812FE0289FEF
:105350008001299F100D112485E10E945138800F92
:10536000911F24E0969587952A95E1F79A83898382
:105370002881222391F1AC81AD80B12CC12CD12C9C
:10538000E885F9857F0100E010E06E817F819B0157
:1053900040E050E08617970728F0BC01E817F907AE
:1053A00008F4BF0180E090E01F921F921F92AF931C
:1053B0000E94E53A6B830F900F900F900F9070E072
:1053C00085E0DF91CF911F910F91FF90EF90DF90DB
:1053D000CF90BF90AF900C946E38DF91CF911F911A
:1053E0000F91FF90EF90DF90CF90BF90AF90089516
:1053F000FC018CE39FE09383828384E0818381E0DE
:1054000084870895CF93DF93EC018C858F7151F5DC
:1054100084E10E945138BC01882777FD8095982F40
:105420000E945B3B26EE3FE34EEC50E40E94E73BDC
:105430000E942D3B9B017B836A836115710581F07E
:1054400084E08983FE0140E0848195812817390733
:1054500010F449830AC04F5F32964430A9F702C066
:105460008FEF89838C858F5F8C87DF91CF91089533
:10547000FC0188E0808389E0818387E0828386E085
:10548000838384E0848382E0858381E18683089539
:10549000DF92EF92FF920F931F93CF93DF937C01E4
:1054A000EC0100E010E0DD24DA9462E088810E94E3
:1054B000F63888810E946539F701E00FF11F892BCA
:1054C00021F487818F5F878308C08781882349F013
:1054D0008F3F11F4178201C0D78260E088810E945B
:1054E000F6380F5F1F4F219607301105F1F6DF9157
:1054F000CF911F910F91FF90EF90DF900895FC01E5
:10550000E60FF11D81E09781913009F080E0089568
:10551000262F30E0FC01E20FF31F8781423028F490
:1055200081508E3F48F080E008958F3FE1F3642F73
:105530000E945A3C9130B9F781E008958EBD000079
:105540000DB407FEFDCF8EB508951F93CF93DF9363
:10555000EC01162FF89460E08E850E942F398F851C
:1055600018161CF460E00E942F39812F0E949E2A99
:105570008F8518161CF461E00E942F397894DF9112
:10558000CF911F91089528EF31E0E7E8F5E0DF01C2
:10559000A9011D9241505040E1F7DC0119961C927F
:1055A00019971A961C920895DF92EF92FF920F932B
:1055B0001F93CF93DF93EC0187E8E82E85E0F82E68
:1055C000D12C6D2D6064CE010E94A52A60E8CE0129
:1055D0000E94A52A61E08E850E942F398F851816BA
:1055E0001CF460E00E942F3900E010E0F701E00FAA
:1055F000F11F80810E949E2A0F5F1F4F0435110505
:10560000A9F78F8518161CF461E00E942F39D394F6
:1056100084E5E80EF11C86E0D812D3CF60E4CE0119
:10562000DF91CF911F910F91FF90EF90DF900C943D
:10563000A52AFC01678F60A30895FC01678F40A332
:105640000895AF92BF92CF92DF92EF92FF920F93A5
:105650001F93CF93DF93EC01162FF42EE22EA02F91
:10566000BB27A7FDB095A41BB10947FDB395B7FFB4
:1056700003C0B195A195B109EE2DFF27E7FDF09587
:10568000E11BF10917FDF395F7FF03C0F195E195D3
:10569000F109BB24B394EA17FB0714F0B12C06C040
:1056A0008E2DE02E082F812F1F2DF82EE11634F4B9
:1056B0008F2DF02E082F812F1E2DE82ECE2CC11AF3
:1056C000E02FFF27E7FDF095EF19F109F7FCF395BF
:1056D000F7FF03C0F195E195F109AE2EDC2CC7FE72
:1056E00003C0DD24D394DC0CD594F01614F401E04F
:1056F0000FC00FEF0DC0BB2071F0412F6F2DCE01F9
:105700000E947708DA18D7FE02C0F00EDC0C1F5F8B
:10571000E1168CF703C04F2D612FF1CFDF91CF91B0
:105720001F910F91FF90EF90DF90CF90BF90AF90BF
:1057300008950F93022F0150040F262F0E94212B52
:105740000F910895DF92EF92FF920F931F93CF93E3
:10575000DF937C01D42E162FC22FDD27C7FDD095F5
:10576000C60FD11D67FDDA95812F992787FD90958A
:105770008C179D0744F4202F4D2D612FC7010E94E7
:10578000992B1F5FF1CFDF91CF911F910F91FF9068
:10579000EF90DF9008950F932150260F042F0E9461
:1057A000212B0F910895EF92FF920F931F93CF93A8
:1057B000DF93EC01F62E142FE22E0E94CB2B4FEF3D
:1057C000400F410F2E2D6F2DCE010E94CB2B202F8D
:1057D000412F6F2DCE010E94992B6FEF6E0D6F0D33
:1057E000202F412FCE01DF91CF911F910F91FF907C
:1057F000EF900C94992B8F929F92AF92BF92CF9281
:10580000DF92EF92FF920F931F93CF93DF93EC0100
:10581000E62ED42E122FCC24C394C21AB22EB194E9
:10582000BB0CF12C802F8470A82E802F8270982EB4
:10583000802F8870882E0170F1160CF04DC0C7FCC7
:1058400004C01150B394B394CB0CF3948F2D880FF4
:105850008F5FC80EAA2071F0412F4D0D6F2D6E0D78
:10586000CE010E9477084F2D4D0D612F6E0DCE0198
:105870000E947708992071F04D2D411B6F2D6E0D00
:10588000CE010E9477084D2D4F19612F6E0DCE016C
:105890000E947708882071F04F2D4D0D6E2D611BF1
:1058A000CE010E947708412F4D0D6E2D6F19CE014C
:1058B0000E947708002309F4BFCF4D2D4F196E2D9C
:1058C000611BCE010E9477084D2D411B6E2D6F1973
:1058D000CE010E947708B0CFDF91CF911F910F9139
:1058E000FF90EF90DF90CF90BF90AF909F908F9000
:1058F00008958F929F92AF92BF92CF92DF92EF92D4
:10590000FF920F931F93CF93DF93EC01B62EA42E3B
:10591000122FDD24D394D21AC22EC194CC0CFF24B2
:10592000F394802F8170882E992493949E0C02709A
:105930008FEF8F0D8117C4F5D7FC04C01150C394AD
:10594000C394DC0C8F2D880F8F5FD80E882099F0C0
:10595000212F220F290D4A2D411B6F2D6B0DCE01DA
:105960000E94992B23E02E0D4A2D4F19612F6B0DAC
:10597000CE010E94992B002399F0212F220F290D8F
:105980004A2D411B6B2D6F19CE010E94992B23E0EC
:105990002E0D4A2D4F196B2D611BCE010E94992BA4
:1059A000F394E394E394C4CFDF91CF911F910F91CF
:1059B000FF90EF90DF90CF90BF90AF909F908F902F
:1059C00008959F92AF92BF92CF92DF92EF92FF9293
:1059D0000F931F93CF93DF93EC01B62EF42EA22EDC
:1059E000DE2CD194DD0C9D2C920E1E2D160F292D30
:1059F000612F0E94CB2BCC24CA94C00ECF0C292D32
:105A00004C2D612FCE010E94CB2BD00EFE0C2D2DE4
:105A10004F2D6B2DCE010E94992BBA0C6FEF6B0DA1
:105A20002D2D4F2DCE010E94992B01E02E2D4F2DB3
:105A3000612FCE010E94FB2BDE2CD094DB0C02E008
:105A40002E2D4F2D6D2DCE010E94FB2BCE1804E084
:105A50002E2D4C2D6D2DCE010E94FB2B08E02E2DFE
:105A60004C2D612FCE010E94FB2BDF91CF911F9116
:105A70000F91FF90EF90DF90CF90BF90AF909F90ED
:105A80000895AF92BF92CF92DF92EF92FF920F9361
:105A90001F93CF93DF93EC01A62EC42EB22EF02ECF
:105AA0001E2DE194EE0CD12ED60E2E2D2B0D6D2D2C
:105AB0000E94A22BFA94FE0CC10E6FEF6A0D6B0DC3
:105AC000611BEF2C01E0212F4C2DCE010E94792C7F
:105AD00002E0212F4C2D6D2DCE010E94792CDF91FB
