:100000000C94710B0C94990B0C94990B0C94990B08
:100010000C94990B0C94990B0C94990B0C94990BD0
:100020000C94990B0C94990B0C94990B0C943F34F1
:100030000C94990B0C94990B0C94990B0C94990BB0
:100040000C9470340C94990B0C94990B0C94990BA0
:100050000C94990B0C94990B0C94990B0C94990B90
:100060000C94990B0C94990B261331133C134713E2
:10007000571364136F137A13761879187C18831842
:100080008C18931896189D18E11C031D251D491DF9
:100090006E1D931DB61DDA1D912096209B20A02079
:1000A000AC20B120B620BB201B2108210B210E2142
:1000B000112114211721FE221F233F235F237F23B9
:1000C000A023C323EA23100E02180230026007C0E7
:1000D0000A7E163F103D10793FF37FE6FFCCFF9874
:1000E000FFF071C0100E008000800FF81F7C1F7C95
:1000F0001E3C1C5C1C5C1E3C1FFC1FFC1FFC13E414
:100100001E3C100E02003FF83DF83C783838383875
:1001100039383D783EF83EF83EF83EF827C83C783E
:10012000100E02000200020003E0FE10FC08BC6892
:100130009E38CFEC67F633FB19FF0FFF038E100ECE
:10014000080008000980067F0820383C3FFE3FFE7B
:100150003FFE200215540FF800000000080A0000BE
:100160000020704468D47AFE080A7CFE447C7C44FB
:100170006C546C4420200000000006000050090070
:100180000212055C01000914000071AA400C4155DF
:100190000A207EFF81045580401250912000519525
:1001A00021E44A911AB84D800D506EFFFABE160137
:1001B00087565A0362BC9701C1501A813AB0158024
:1001C00003503EFE0EF80155F50401AAAB240F576B
:1001D000D51435F7FF286B1F8148D519E1E4AB3FF3
:1001E000F15CD563D124791FD14449F7FF24C114B0
:1001F00001147F0C01FC2020080000203E0000F8C4
:100200004900012441FFFF04E155550E41AAAB040A
:10021000415555047EFFFEFC558003545A9112B49B
:10022000559113545A9112B4558003547AFFFEBC71
:10023000158003501A8002B0158003501A8002B056
:10024000158003503EFFFEF84155550441AAAB040A
:10025000E155550E41FFFF04490001247F0FE1FCE9
:100260004917D1244117D1044917D12449FFFF244C
:10027000410001047F0001FC4829800000000000CB
:1002800007F8FF000007C0000001101100800460A3
:1002900000000FFCFF100985E0000011101108811B
:1002A000257000401000010000051820E0128001B8
:1002B0003000078C2040128028025864EC20E013A4
:1002C000C02803FFFD7C206113C07826C1643C0078
:1002D000601140786630758C20E01060510E9825D2
:1002E0008420E40000C14200E58420E21000010700
:1002F000FFE7FC20E007820015000000006011C34A
:10030000C10002000000001780F100096400000035
:1003100011E1C10800000000001020F10C02001ED5
:1003200000001000010800802100000F9C3F0C001D
:10033000005E80000150110C00005E80033FFE1F34
:100340001C00006180001111111C00005E80000083
:1003500000001C00002100000000001C1C1E1E00EC
:10036000000000001C22220000000000000C5FFBC7
:1003700000000000000000A7E500000002000000EF
:10038000A6E20000001E000000FE3C0000003E004F
:100390000000838801060066102000A2A801000169
:1003A000EE30100880380000039E003000337E706D
:1003B000000372007806BB79502003CA009410B085
:1003C000FF49589B82613200FFF831EF02C2003AC8
:1003D00000000007D582C21C3810080026C682C261
:1003E000061800000003FF03FE00184829800000E3
:1003F0000000001FFFFF03FFE7FC000011111102C6
:1004000000240600181FFFFF02FFA5F500EE1111E2
:10041000110280A516C15510C0010280A51562AA5F
:1004200090500D03FFE7FEA55550782902002405E2
:1004300066ACD0787902AAA556A574502879020036
:100440002405666C10285102CC2584E5A4100051C7
:1004500002CC258420A010000102C0258420A01019
:10046000330103FFE7FC20A010A1410000000000C1
:100470006011E1E103000000000011E1E11DC00096
:100480000000001140A12AB0000000001140A15559
:1004900050001E0000100001AAA8802100001FFFCC
:1004A000FFD598005E8000111111AE88005E8000BB
:1004B0001FFFFFCD80006180001111119480005E4C
:1004C000800000000014000021000000000014FF64
:1004D000FE1E00000000001480020000000000006A
:1004E0000CBFFF00000000000000A00103FE03FE9F
:1004F00000C000A0010202020203B800FFFF02FBDD
:100500008EFA0554008009028B768A0AAA00AAAFE7
:10051000028AAA8A155500800903FF57FE19AB000D
:10052000B30F0202AA02117500B30902AB56AA0169
:10053000B300B00F0203AE02012900FFF802C2723D
:10054000C2002800000002C202C200280008000207
:10055000C202C2002800000003FE03FE0030101695
:10056000101010105410AA0054008A88144492806D
:10057000500E000000000000004000004000201469
:100580001080000012008A128290ECFE10161010EB
:10059000383854549292AAAAC6C692929292FEFEFB
:1005A00000000000000000001010383854549292EF
:1005B000AAAAC6C682828282FEFE0E090C001E0016
:1005C00017002B8037E06BF0D5F8AAFCFFFC080C75
:1005D00004048CA8F8606870206070F808080200B5
:1005E00040040020040028180000C000000003B8E8
:1005F00000000005540000000AAA00000015550084
:10060000000019AB000000117500000801B30000E4
:100610000A012900002C402800001C50280000007E
:10062000002800003FFE3000005555C0FC00AAAA7B
:10063000A14200D55562A1006AFAA490801F07CCA0
:100640009FC0003017F4A00114000000039E0000BA
:1006500000011E000000028A000000000A000000E5
:10066000080910181858DAFB7F1E18080525926231
:100670003C10201A03E000000C18000010040000D9
:1006800022020000401100004001000083E08000D1
:10069000AC1880009004BF80AFFABD80D7F5BC8055
:1006A000D7F5BB8097F4A78097F4B78097F4BF8005
:1006B000FFFFA08000000000000000000006000016
:1006C000038800000250000002600000FFBC7000C0
:1006D000B032E000C84A7000CFCCE000201D003FDF
:1006E000800000D540001FABE00075D60000AABC1A
:1006F0000000DD6B0000A7D58000CB7EC0009540D8
:100700003FFC1D4040020B40FFFF0D409009094097
:10071000A5690280B5490280A6250480FFFF0786EF
:10072000400200694EFA009F4EAA00E54EFA00BD55
:100730004E0260A57FFE96660000F9180E38A700ED
:100740000B2CBD000EBAA5000F3C66000E38180039
:100750000000180F01F00003F80007FC0002080079
:100760003E4F807EAFC0FC47E04000405CE7405415
:10077000E5405CE74040E04043F8407C07C007FCB0
:10078000001009AAA800008D880D808F880D808D2B
:10079000880000AAA870003800008000380000908F
:1007A00000380000A000380004A000280001A000CC
:1007B000180003B000180000C000180000D0001896
:1007C0000000E000180000F000180000000119000F
:1007D0000200012900051001290002100139000161
:1007E00010014900011001590001100169000110B8
:1007F00001790005200179000030017900004001F5
:1008000079000050017900006001790002600189DF
:10081000000160019900016001A900016001B900B7
:10082000016001C800045001C800004001C8000672
:100830003001C800002001C800001001C8000000FD
:1008400001C800030001D800010001E80001000117
:10085000F800010001080104F000080100E00008B0
:100860000103E000180101E000280101E000380167
:1008700001E000480104D000480100C00048010028
:10088000B000480100A0004801009000480103901A
:10089000005801019000680101900078010190006A
:1008A00088010480008801007000880100600088D1
:1008B000010360009801016000A801016000B80117
:1008C000016000C801045000C801035000D80104B1
:1008D0004000D801034000E801014000F801014058
:1008E000000802014000180204A0003800A100190D
:1008F00000F90019000E012D000E0175005E017A4D
:10090000006101C4005601CA007501170149015D6B
:1009100001E6002D01DC004F019B004C019100839A
:100920000168008B016200C6014200E60140001828
:10093000021E001F021010F7D998370948194621E6
:10094000224220C413848AC8C88412621162222100
:10095000423094C897FB6F1010C083C103C280C39C
:1009600000E2A0608021507020708A38033C001E95
:1009700000478005E001FF20771010C103C083010C
:10098000430003050700060A84040E710E401C0094
:100990003C007801E207A0FF80EE041010207701F0
:1009A000FF05E047801E003C083802708A70202155
:1009B000106008E0A0C000C280C003C0831010EE29
:1009C00004FF8007A001E20078003CC01C510E0427
:1009D0000E0A840006050700030143C083C103100B
:1009E00010C003C14184018043C1024083C143C0A0
:1009F000014503C0A3C08240038143C202C282C03A
:100A0000031010F7D99EFF000000000000004052C4
:100A10000908A25200000A2000000000000000CFD8
:100A2000F7FB6F100E0F003F807EC05CF0E9F8FE10
:100A30007E7E1A3F8B1FE717D30DD701FE00B8004B
:100A400070100E00F001FC037E0F3A1F977E7F5856
:100A50007ED1FCE7F8CBE8EBB07F801D000E0010E4
:100A60000E000007E007E007E004200FF00C300C58
:100A7000300C300C300C300BD007E00240100E0070
:100A8000000000000000000E0013FF13FF3FFFFFF7
:100A9000FF7FFFFFFF140A08040000100E00000093
:100AA00000000000000070FFC8FFC8FFFCFFFFFF50
:100AB000FEFFFF502820100000100F003000F00350
:100AC000FD0FE31FCF731FD9BF8FFFC4FDF7F99F41
:100AD000FEC7F87EE03C800F00100F0C000F001FD7
:100AE000C027F0E3F8F0CEFC9BFFF1BF239FEF7F20
:100AF000F91FE3077E013C00F0100E07E00A500EDC
:100B00007004200420042007E007E007E004200729
:100B1000E00FF00BD007E0202000000000000000F4
:100B20000007967E800E1FFFC00DDDFEC00F6FFF19
:100B3000C01EFFDF800E6B87800FECC00006DBD08D
:100B400000000840000000400000104000000000CD
:100B5000000000400000000000F7D9EFB098373DDA
:100B6000FC09480000194600002122000042200034
:100B700080C413A410848A1144C8C8A4008412003D
:100B800014621140006222000021420000309400F3
:100B900000C8979FECFB6FF6DC2020FFFFFFFCFFF7
:100BA000FFFFFCFFF9FFFCFFF9FFFCFFFEFFFCED80
:100BB000FBFFFCFFFEF7FCFFFDEBFCFFFFF5DC7F1E
:100BC000FBFECC7FFFFDCCFDFBFE9CFFFFFF94FFF7
:100BD000FFFE3CFFFFFF4C7FFF9FB47FFFFEB8FA94
:100BE000FFFFF8FEFFFB68FFBF66D4FFBFBF6CFDD1
:100BF000FFBCFCFDBFDFF4EEFFFE7CEEFFFFFCFF61
:100C0000FFFEFCFFFFFFFCFD7FFFFCFAFFCFFCFFB8
:100C10006FFFFCFB6FFFFCFE3FFFBC2020000000CD
:100C200000000000000011010000190110003E83C7
:100C30002002D7C220077D66401FEBFCC07FFBFF70
:100C4000E07FFFFF30FFFDFFA8FBFE7DE8FFFEFF1A
:100C5000847FFFFFACFFFFFEECFFFB7FFCDFFBFFB1
:100C6000FCFF73FDBCFF739E7CFDF3DEFC7E63BD69
:100C70001CFFF3EF98FFF1FF78FFC1FEFCFFE0FFE0
:100C8000D07FC07FF46F800EE03FC01FC017E0BF71
:100C9000400BF5FDC09CFFFFECFF9F36FC202000C1
:100CA00000000000000000000000800009010000BA
:100CB000198100003F831001FFC32007FFE7600F89
:100CC000FF7DC03D7FBFE07F3F3FF87FBFFFF84122
:100CD000BFFFFC613BFBFC7371CF9C7E70E3FCC3E8
:100CE000F0C7ECC3F0EFFCC7E0FFFCC3C07FEC73C0
:100CF000C0EFFC73C07FF8B1C0FFF83DC07FD4ECFB
:100D0000C001D06EC003F47F0003C07F8003A03F0A
:100D1000C00F401FF07F409FFCFF6CFEFFD77C2080
:100D2000200000000000000000000000000008009B
:100D30008000088100002D8100017FC10001FFC3F8
:100D40002003FFE3201D7FFF603F1E7FF03F1E3F1B
:100D5000F8731FBFFC610F9FFC326F37FC227FDFEF
:100D6000FCFEFFD7FC33FFE7F863F8FFFC43F8FF16
:100D7000FC41F0FFFC61F07FF8A1F0FE7830E07DEF
:100D8000F4BCE034E00EC001D44380018000800157
:100D90000000E00600003FFC009FEF9FECF6DFF64E
:100DA000DC20200000000000000000000000000027
:100DB0000000000000000000000000000000000033
:100DC0000000000021000001FFC00001FFF000034F
:100DD000FFFC0001FCFF80007C9FE00079C7F00071
:100DE000090FF0EFBE04383DFE0C3C003FBFF87128
:100DF000BFFFF841FFFFF003FFFFE0A7FBFFF01389
:100E0000F5FFC4A5E0F5C001F40394598041000C3E
:100E100080040000C01C00001EC0009FEF9FECF685
:100E2000DFF6DC20200000000000000000000000D1
:100E300000000000000000000000000000000000B2
:100E400000000000000000000000000000000000A2
:100E5000000000000000000000003F000000FFE074
:100E60000001FFF000DFFFFF647FFFFFFC07FFBE14
:100E7000000FFFBE000FFE07000FFE07C05FF54F1B
:100E8000E42F883BE85F814BE00F2807E88F008163
:100E9000E0060000E0024001C00038FB803FDF3F79
:100EA000DCEDBFEDBC583000000DF80000DDD400D3
:100EB000000000001AFC00006FA8000000000035D0
:100EC0007E0000375000000000082ABF00001FE02D
:100ED000000000000C3FFF00000780000000000C35
:100EE000000000000700000000000A0000000007EA
:100EF00000000000000700E000000F80000000007C
:100F0000018700000000000000000000F8001F0042
:100F1000C0000000000003F00035F0E00000000019
:100F2000001CF8006AAC680000000000E3E6005511
:100F30005604000000000707E7002AAA2A00000064
:100F4000001AE27480355E100000000035593C0044
:100F50000FE008000000006AA81C00064000000026
:100F6000000055540000034E00020000006AAA036E
:100F70004001D50000400500555602207DCA000200
:100F80000002002AAA0080ABFC0015A000005D56FC
:100F9000024057E002884000006EEA012039C0019B
:100FA0000080000037D400000DC000008002001B4C
:100FB000A8000007C0C1280001000FF0000003C016
:100FC000E11070000003C0000001C06940CC0000C7
:100FD0000380000001C00480E300000380000001E2
:100FE000C02A409F000007C0000013E01070850079
:100FF0000000000000100008DFC700000007C0006C
:10100000000000E2670000000D7C000000029F9DD0
:101010000000001AAB0006002A87070000001555E3
:101020008001000085C20000000AAA8007800087B6
:10103000C70000000D57801AE000877F0000000302
:10104000F8003558007DFE0000000190006AA9807C
:101050001FFC0A000000D3805554801CAD440000E2
:101060000075406AAA000CB48000001F72805556BB
:10107000610BEC0000002AFF002AAA109AC4140099
:101080000015F8005D5602ABF408000000000000F7
:10109000000C379C00000000000000000438000035
:1010A000000000000000000400000000000000003C
:1010B00000000000000000583000000000000000A8
:1010C00000000000740000084000004008000024F8
:1010D0000200080000000008000026236A6A5991F7
:1010E000AB5918000025524A8C512A2A52A80000F8
:1010F0002561466A73319A731800000000000000F1
:1011000000000000000000000000000000000000DF
:101110000000000000000000000000001C0048214A
:10112000000000000000002000402100000000003E
:1011300000002DDCCBB10000000000000025554A66
:10114000A8000000000000001DDCCBB10000000082
:101150000000000000080000000000000000000087
:1011600000000000000000000000000003FFFFFF7F
:10117000801FFFF000000003FFFFEFE0757FF0002D
:10118000000003FFFFF57FEABFF0000000038000CE
:101190006AAAB5780000000003800055FDFEB80083
:1011A000000000039FFE6AAAAB79F0000000039FD5
:1011B000FE57FFFFF9F0000000039FFE6AAAAAB9DC
:1011C000F0000000039C0E5555FB79C000000003A1
:1011D0009C0E6AFAA6B9C0000000039C0E552F5D54
:1011E00079C0000000039C0E7FD5BFF9C00000004D
:1011F00003FFFFC07FE03FF00311C803FFFFC00003
:10120000003FF022A89403FFFFC000003FF053907E
:101210008803800040000038005000000380004038
:101220001F00380000311B8398C640FFE0398070F2
:101230003A930398C64080200FC00032B3838000E9
:101240004080200FC000000003800040FFE03CF021
:1012500000000003800041FFF03CF0000000039F0D
:101260000041209033303339933B9F00412090332D
:101270003043B12B939F00412090303032BB2A93F2
:101280009F004120903030000000039700412090E3
:101290003330000000039F0041E0F03330000000D5
:1012A000039F004120903FF000000003FFFFC1FFBB
:1012B000F03FF000000003FFFFC0C0600FC000005F
:1012C0000003FFFFC0C0600FC00606E0E05CF0E076
:1012D000A0080B0000000000000000001C2A080B02
:1012E00000000000000000001C3E3E080B00000053
:1012F000000000003E7F7F7F080B00000000003EE2
:101300007F7F7F7F1C080B0000003E7F7F7F7F1C5C
:101310001C3E080B003E7F7F7F7F1C08081C3E0898
:101320000B3E7F7F7F7F00000000081C080B1C3EE7
:101330007F7F36000000000008080B001C3E3600CE
:10134000000000000000080B00081C000000000066
:10135000000000080B000008000000000000000072
:10136000080B00000000000000000000000808005A
:1013700000000000081C00080800000000082214FB
:10138000000808000000002208440010071C003E6E
:10139000003E00FF80BE801C0022000F071C003EA4
:1013A000003600F380BE801C0022000F071C0022C4
:1013B000002200F780BE801C002200100900780384
:1013C000F807FE03FC07F80DC05800780030001045
:1013D00009007802F805F203FC07F80DC058006810
:1013E000003000100E8000C000C000E00070001847
:1013F000000E000F000F80FFE07FF037D81BC00108
:10140000C0100E8000C000C000A000700018000EC8
:10141000000F000F80FE607E70274813C001C010CF
:10142000068040C1F0FFF847FC03FE01FE10068075
:1014300040C1F0BFE847E4033A01FE08050050A8A8
:1014400050000F03007003801C000F030000FFFE1C
:1014500000000F031C00038000700F0301000380D5
:101460000100380409FFE29FFE2FFF7D0027D00214
:101470004801FD00239002680149FFE11FFE4FFF74
:1014800003053F213F1208120A100A0E1C0E0C1E03
:101490000C141A14161F161E131E1E1B1E1E1F1EB2
:1014A0003F213F3A2F3A173D173F213F181F0204B3
:1014B0000A041F0E04040E1F0A1F0A0E0E1F041139
:1014C0000E2E252E2F2A2E262929021F02081F083C
:1014D000150E04040E150E15151B151B0406040429
:1014E0000C040000000017000300031F0A1F16373A
:1014F0001A1904130A153A000300000E11110E0008
:101500000A040A040E040030000404040010001849
:1015100004031F111F121F101D151711151F07049B
:101520001F17151D1F151D01011F1F151F17151F43
:10153000000A00003200040A110A0A0A110A040112
:1015400015020E11171E051E1F150A0E110A1F1176
:101550000E1F15111F05010E111D1F041F111F1154
:1015600008100F1F041B1F10101F061F1E040F0E54
:10157000110E1F09060E112E1F051A121509011F43
:10158000011F101F0F180F1F0C1F1B041B031C0330
:10159000191513001F11030418111F000201022066
:1015A00020200001020C121E1F120C0C12120C1231
:1015B0001F0C1A14041E05242A1E1F021C141D10C1
:1015C00020201D1F0814111F101E041E1E021C0CBB
:1015D000120C3E0A040C123E1E040214160A020FDC
:1015E000120E101E0E100E1E081E120C1226281EA1
:1015F000322A26041E21001F00211E040102013F81
:10160000213F0A0A153A49676E6F7265006D560AE6
:101610000A504C45415345205455524E204F4646A2
:1016200020004C4F5720424154544552592120002C
:101630000500893008023802497868140000F6E88D
:10164000DBCFC3B8AEA49B928A827B746E68625C67
:1016500057524E4945413E3A3734312E2C292725E1
:1016600023211F1D1C1A1917161514131211100F00
:101670000E0D0C0B0A0908070681167D160101FFE5
:10168000030101F703000000080002010000030449
:1016900007000000000000000001020408102040C4
:1016A0008001020408102001020408102004040430
:1016B00004040404040202020202020303030303FB
:1016C0000300000000230026002900000000002580
:1016D0000028002B0000000000240027002A000042
:1016E000512611241FBECFEFD8E0DEBFCDBF12E0E0
:1016F000A0E0B1E0EAE7F5E702C005900D92AC305A
:10170000B107D9F728E0ACE0B2E001C01D92A430E7
:10171000B207E1F716E1C2EED6E104C02297FE015E
:101720000E949D3AC03ED107C9F70E948A360C94A8
:10173000BB3A0C94000065E087E795E00E948D2796
:10174000882361F080915105882329F0813031F49C
:101750001092510503C081E08093510540E064E0A0
:1017600087E795E00E94962790914805882309F421
:1017700013C1911111C180914705883009F00CC146
:1017800081E08093490580914C05882309F415C1B7
:1017900040E062E087E795E00E949627882341F0C9
:1017A000809146058330D4F48F5F8093460516C040
:1017B00040E060E087E795E00E949627909146051B
:1017C000882319F09E3F54F002C0191614F491506A
:1017D00003C0992319F09F5F9093460540E063E0B2
:1017E00087E795E00E949627882341F08091450580
:1017F0008330D4F48F5F8093450516C040E061E0EC
:1018000087E795E00E94962790914505882319F077
:101810009E3F54F002C0191614F4915003C099234E
:1018200019F09F5F90934505209146051216A4F488
:10183000809140059091410560E0332727FD309568
:10184000462F50E042175307BCF4863742E0940716
:101850000CF401966F5FF4CF2223A1F08091400534
:101860009091410560E0332721950CF43095462F87
:1018700050E0421753079CF0909341058093400538
:1018800060931D02209145051216DCF480914205FB
:101890009091430560E0332727FD30950CC0181662
:1018A00019060CF401976F5FE2CF863742E0940788
:1018B0000CF401966F5F462F50E042175307ACF3CC
:1018C00010C02223A1F0809142059091430560E071
:1018D000332721950CF43095462F50E042175307DB
:1018E0007CF060931D02909343058093420540E095
:1018F00064E087E795E00E949627811107C052C0F7
:101900008E3091050CF001976F5FE6CF809148050E
:10191000811148C080914705883009F043C081E0BB
:101920008093490580915105811147C080914605FA
:1019300018163CF490914505911117C0109244057A
:1019400019C0811108C0809145051816ACF482E0D9
:101950008093440511C087FF15C080914505181676
:1019600024F593E09093440524C019161CF491E0EB
:1019700090934405811106C08091450587FF1DC0E5
:1019800086E007C01816CCF48091450587FF15C086
:1019900087E080934405089510924905992309F43E
:1019A000F2CE089510924905BDCF811102C084E0A6
:1019B000F0CF87FF02C085E0ECCF089581E490E08E
:1019C00090934105809340058BE290E0909343050E
:1019D00080934205109247051092440510924605E7
:1019E0001092450581E08093480510924D0594E1E1
:1019F00090934C0580934A0510924B05109249052F
:101A000010924E0510924F051092510580E097E01C
:101A1000989FF0011124E15EFD4F12821182148221
:101A20001382158216828F5F8A3090F380931D0295
:101A30000895AF92BF92CF92DF92EF92FF920F93F1
:101A40001F93CF93DF9310921E02109215021092F3
:101A500017021092160280EF80930C0285E0F82E98
:101A6000F092100289E080930E0285E180930F02CC
:101A700086E190E0909379048093780440E150E00F
:101A800050937B0440937A0423E0D22ED0927C04BE
:101A90006EE170E070937E0460937D0425E130E098
:101AA0003093800420937F04D09281049093830428
:101AB000809382048AE190E090938504809384046B
:101AC000D0928604EDE4F0E0F0938804E09387047C
:101AD0002BE030E030938A0420938904D0928B0469
:101AE0002BE230E030938D0420938C042DE230E023
:101AF00030938F0420938E04D092900422E530E03E
:101B0000309392042093910420E330E030939404C6
:101B100020939304D0929504CBE1D0E0D093970426
:101B2000C093960421E530E0309399042093980403
:101B3000D0929A0424E230E030939C0420939B04DA
:101B400025E530E030939E0420939D04D0929F04BD
:101B50002CE130E03093A1042093A0042BE530E089
:101B60003093A3042093A204D092A404A7E6B0E08B
:101B7000B093A604A093A50424E730E03093A80412
:101B80002093A704D092A90420E430E03093AB0462
:101B90002093AA047093AD046093AC041092AE0439
:101BA0006EE070E07093B0046093AF043093B204C1
:101BB0002093B1041092B30425E330E03093B504D0
:101BC0002093B40467E770E07093B7046093B604A1
:101BD0001092B80464E070E07093BA046093B904A2
:101BE00063E070E07093BC046093BB04AA24A394E8
:101BF000A092BD0469E570E07093BF046093BE04D9
:101C000069E470E07093C1046093C004A092C204C0
:101C100002E610E01093C4040093C30400E510E052
:101C20001093C6040093C504A092C70404E510E015
:101C30001093C9040093C8041093CB040093CA0402
:101C4000F092CC0407E010E01093CE040093CD0492
:101C50000DE610E01093D0040093CF0414E0F12EB1
:101C6000F092D1040EE610E01093D3040093D20456
:101C70009093D5048093D404F092D6040CE310E042
:101C80001093D8040093D70408E210E01093DA040C
:101C90000093D9040DE0B02EB092DB0417E0C12E02
:101CA000C092DC041092DD0401E512E01093DF0421
:101CB0000093DE0409E310E01093E1040093E004D4
:101CC000B092E204C092E3041092E4040F2EFBE809
:101CD000EF2EFF24F394F02DF092E604E092E50459
:101CE0000F2EF5E8EF2EF12CF02DF092E804E092A3
:101CF000E704B092E904C092EA041092EB046894FD
:101D0000EE24E1F8FF24F394F092ED04E092EC0469
:101D10000F2EF6E2EF2EFF24F394F02DF092EF0455
:101D2000E092EE04B092F004C092F1041092F2043A
:101D30000F2EFEE2EF2EF12CF02DF092F404E09243
:101D4000F3040F2EF7E3EF2EF2E0FF2EF02DF092CA
:101D5000F604E092F504B092F704C092F8041092F1
:101D6000F9041093FB040093FA0403E110E01093CC
:101D7000FD040093FC0413E11093FE041FE0109394
:101D8000FF04A092000508E110E010930205009303
:101D90000105D0930405C0930305C0E2FC2EF09228
:101DA00005050DE10093060512E010930705CAE052
:101DB000D0E0D0930905C0930805C6E2D2E0D093E5
:101DC0000B05C0930A05F0920C0500930D051093C6
:101DD0000E05C1E8D1E0D0931005C0930F05B09374
:101DE0001205A0931105F0921305009314051093AA
:101DF0001505F0931705E0931605E1E2F0E0F09386
:101E00001905E0931805B9E1B0931A05AAE1A0936A
:101E10001B05D0921C05EDE4F2E0F0931E05E09363
:101E20001D059093200580931F05B0932105A09375
:101E30002205D092230582E191E0909325058093BD
:101E400024058FE191E09093270580932605B093B8
:101E50002805A0932905D0922A058DEF90E0909354
:101E60002C0580932B058FE990E090932E058093AD
:101E70002D05A4E2A0932F05F8E1F0933005E8E0EA
:101E8000E093310588E990E0909333058093320523
:101E90008EE991E09093350580933405A093360543
:101EA000F0933705E09338058EE092E090933A0581
:101EB000809339058CE191E090933C0580933B053C
:101EC000A0933D05F0933E05E0933F058FE190E040
:101ED000909328048093270488E490E090932A0448
:101EE000809329048AE192E0909331048093300436
:101EF000709333046093320450933A04409339044E
:101F000084E492E090933C0480933B048DED90E058
:101F100090934304809342043093450420934404F7
:101F200080E291E090934C0480934B0486EA90E029
:101F300090934E0480934D042EEA31E03093550483
:101F4000209354042FED30E030935704209356042F
:101F500022E331E030935E0420935D0424E131E01C
:101F60003093600420935F042DE031E030936704E8
:101F70002093660423E631E03093690420936804DB
:101F80009093700480936F0480E391E090937204C7
:101F90008093710480E099E020E136E146E054E16D
:101FA00068E479E2A4E0B0E5893098F4989FF00104
:101FB0001124E95DFB4F1086833028F46483758318
:101FC000A683B78304C024833583468357838F5FFA
:101FD000EBCF8CE690E0909356038093550384EB0F
:101FE00090E090935803809357038DE490E0909392
:101FF000600380935F038DEC90E090936203809385
:10200000610386E291E090936A038093690329E675
:1020100030E030936C0320936B03909374038093B0
:1020200073038DE890E0909376038093750389EBBA
:1020300091E090937E0380937D038EE790E09093F0
:10204000800380937F0386E191E0909388038093DF
:1020500087038EED90E090938A038093890382EF4B
:1020600090E0909392038093910389EF90E0909396
:1020700094038093930380E991E090939C03809371
:102080009B0380E191E090939E0380939D0387EBF7
:1020900091E09093A6038093A50384E191E090934F
:1020A000A8038093A70387EC91E09093B0038093FB
:1020B000AF038DE291E09093B2038093B10380EA85
:1020C00091E09093BA038093B9038EE491E09093EA
:1020D000BC038093BB038DE791E09093C40380938E
:1020E000C30381E391E09093C6038093C5032FE57A
:1020F00030E03093CE032093CD032EE131E03093D6
:10210000D0032093CF0327E830E03093D803209307
:10211000D7039093DA038093D90385E790E09093F7
:10212000E2038093E10388E591E09093E4038093D8
:10213000E3038EE490E09093EC038093EB0385E45B
:1021400091E09093EE038093ED0389EA90E0909301
:10215000F6038093F5038FE591E09093F803809365
:10216000F7038CE190E0909300048093FF038BEAE7
:1021700090E0909302048093010481E991E09093B0
:102180000A048093090484E290E090930C04809305
:102190000B048EE590E090931404809313048FE277
:1021A00091E0909316048093150485E991E0909353
:1021B0001E0480931D0481E291E09093200480939B
:1021C0001F0480E09AE020E245E050E537E064E15A
:1021D0008531A0F4989FF0011124EB5AFC4F108632
:1021E0001186813128F4348395833683678304C054
:1021F00024832583468357838F5FEACF83ED90E066
:10220000909366028093650281E390E09093680268
:10221000809367028CEE90E090937202809371023B
:102220008DE090E0909374028093730283E080933A
:102230007C0284E091E090937E0280937D028BE6A5
:1022400090E09093800280937F0224E020938802A4
:1022500085E391E090938A028093890286EA90E078
:1022600090938C0280938B022093940285E291E0FC
:1022700090939602809395028FEB90E09093980252
:10228000809397022093A00286E391E09093A202AC
:102290008093A10288E091E09093A4028093A3022E
:1022A00026E02093AC0286E291E09093AE02809308
:1022B000AD0284E191E09093B0028093AF0220934D
:1022C000B80220EC31E03093BA022093B90221EE3B
:1022D00030E03093BC022093BB0245E04093C4023F
:1022E00029EB31E03093C6022093C50226EF30E09F
:1022F0003093C8022093C7024093D00221ED30E012
:102300003093D2022093D1022AE231E03093D402FA
:102310002093D30267E06093DC0220EC30E030933E
:10232000DE022093DD024AE551E05093E002409343
:10233000DF026093E8022BEC30E03093EA02209356
:10234000E90226E631E03093EC022093EB02609341
:10235000F40265E171E07093F6026093F502509328
:10236000F8024093F70268E0609300034EE151E009
:10237000509302034093010330930403209303031B
:1023800060930C032CE530E030930E0320930D0393
:1023900029E432E03093100320930F036093180375
:1023A0002BE231E030931A03209319032DE130E042
:1023B00030931C0320931B032EE931E03093260356
:1023C0002093250390932803809327038BED90E0BF
:1023D000909332038093310382E691E0909334032B
:1023E000809333038AEA90E090933E0380933D0309
:1023F0008EE691E09093400380933F0384E18093C5
:10240000700289E490E090934A038093490382E943
:1024100091E090934C0380934B0380E02CE034E0F8
:1024200040E15EE061E07EE196E0A5E08431A8F461
:10243000289FF0011124EB59FD4F10861186328739
:102440008F3028F4948395831682A78304C0448335
:102450005583668377838F5FE9CF80931D02DF9179
:10246000CF911F910F91FF90EF90DF90CF90BF9091
:10247000AF900895CF93DF93A0915305B091540589
:10248000282F30E04CE0849FF0011124EB59FD4FE0
:10249000C081D181609155057091560582819381EB
:1024A0004781442309F498C0AD014C1B5D0B57FFD5
:1024B00003C0519541955109FB01E81BF90BCF0170
:1024C000F7FF03C0919581959109840F951F4F9750
:1024D0008534910508F080C088E080931A028CE072
:1024E000829FF001839FF00D1124EB59FD4F8481F1
:1024F0008695AE01480F511DCD010A9684179507A8
:102500003CF42197D183C08384E0828780931A02B0
:102510008CE0829FF001839FF00D1124EB59FD4F59
:102520008081918144814695EC01C40FD11D1A9799
:10253000CA17DB0734F401969183808312861092C8
:102540001A028CE0829FF001839FF00D1124EB5959
:10255000FD4F8281938145814695DC01A40FB11D19
:10256000AB0148505109A417B5078CF40196938329
:10257000828380911A02843031F0883031F08111E9
:1025800006C081E003C083E001C082E082878CE066
:10259000829FF001839FF00D1124EB59FD4F828142
:1025A000938125812695AC01420F511D685F7F4FB5
:1025B000641775078CF401979383828380911A02C4
:1025C000843031F0883031F0811106C087E003C0DB
:1025D00085E001C086E08287DF91CF9108952F9238
:1025E0003F924F925F926F927F928F929F92AF92A3
:1025F000BF92CF92DF92EF92FF920F931F93CF93F0
:10260000DF93CDB7DEB72F970FB6F894DEBF0FBEBE
:10261000CDBF40E057E04A3008F091C0242F30E0B1
:10262000529FF001539FF00D1124E15EFD4F868112
:10263000882309F482C0858190E08830910508F0F4
:102640006AC0FC01EC5CFF4F0C949B3A529FF00176
:10265000539FF00D1124E15EFD4F8181928102961E
:1026600030C0529FF001539FF00D1124E15EFD4FE9
:1026700081819281019615C0529FF001539FF00D08
:102680001124E15EFD4F83819481029642C0529FE6
:10269000F001539FF00D1124E15EFD4F8181928185
:1026A00001979283818383819481019632C0529FE6
:1026B000F001539FF00D1124E15EFD4F8181928165
:1026C00002979283818327C0529FF001539FF00DA0
:1026D0001124E15EFD4F81819281019715C0529FC7
:1026E000F001539FF00D1124E15EFD4F8381948131
:1026F00002970FC0529FF001539FF00D1124E15E2D
:10270000FD4F81819281019692838183838194819F
:10271000019794838383529FF001539FF00D1124FE
:10272000E15EFD4F86818F5F86838F3130F01282AC
:10273000118214821382158216824F5F6CCF4090F3
:102740000F024C82C0905305D090540560915505FE
:102750007091560500914005109141051D870C8729
:1027600020914205309143053A83298350914705D2
:102770004B832091130230911402809111029091A9
:102780001202612CB7E07B2E5524539429803A80A5
:10279000251A3108BC816B1608F0B7C13AE0369DA6
:1027A000F0011124EB5AFC4F8481869540815181C0
:1027B000480F511D2581269582819381820F911D9D
:1027C0004601841A950AAAE48A0E911C5B01A81A94
:1027D000B90ABAE4AB0EB11C0C851D85041B150BA0
:1027E0009801265B3F4F3F832E83E980FA80E81AE9
:1027F000F90A3AE4E30EF11CA5E2B2E0BB87AA872E
:1028000020E030E0FF87EE878F01075F1F4F1987B9
:102810000887025011092B832A30310509F472C14F
:10282000A885B9854C90411065C1B5E98B16910416
:1028300008F0A7C0A5E9AA16B10408F0A2C0D80103
:102840004C90442009F49DC0AA85BB854C90411052
:1028500098C0B4E1B187A681A53019F4AAE04A2E48
:102860004186729EF001739EF00D1124E15EFD4FD2
:10287000608252834183948383835682DA01159662
:10288000AC15BD054CF0729EF001739EF00D112445
:10289000E15EFD4F158207C08C010B5F1F4F0617CD
:1028A00017078CF755828A0105501109C016D10609
:1028B00094F0AC15BD0504F186179707ECF4729EF1
:1028C000F001739EF00D1124E15EFD4F6894FF242A
:1028D000F1F8F58211C0FC013596E617F70764F4AC
:1028E000729EF001739EF00D1124E15EFD4F0F2EDC
:1028F000F3E04F2EF02D4582C416D506A4F4FC015A
:1029000035976E177F077CF03A96E617F7075CF06D
:10291000729EF001739EF00D1124E15EFD4F6894EC
:10292000FF24F2F8F582C016D1067CF4FC0135973D
:102930006E177F07DCF4729EF001739EF00D112478
:10294000E15EFD4F05E0058311C0AC15BD0574F0D7
:10295000FC0136976E177F074CF4729EF001739E50
:10296000F00D1124E15EFD4F16E01583AC15BD0599
:102970000CF0C8C0FC0135976E177F070CF0C2C081
:10298000B0C0AE81BF81A539B10508F0B3C0B5E9CB
:10299000EB16F10408F0AEC0D8014C90442009F4C5
:1029A000A9C0AA85BB854C904110A4C0B4E1B187F1
:1029B000A681A53019F4AAE04A2E4186729EF00144
:1029C000739EF00D1124E15EFD4F608252834183BE
:1029D0009483838356821582DA0115960C851D85B2
:1029E000A017B1073CF48C010B5F1F4F02151305B4
:1029F0000CF455828A0105501109EC85FD85E0171C
:102A0000F10794F0AE17BF0704F182159305ECF4BB
:102A1000729EF001739EF00D1124E15EFD4F6894EB
:102A2000442441F8458211C0FC013596E215F305B6
:102A300064F4729EF001739EF00D1124E15EFD4F6F
:102A40000F2EF3E0FF2EF02DF582EC85FD85E417C7
:102A5000F507A4F4FC0135972E163F067CF03A9654
:102A6000E215F3055CF0729EF001739EF00D1124E7
:102A7000E15EFD4F6894442442F84582EC85FD8573
:102A8000E017F10784F4FC0135972E163F06FCF49D
:102A9000729EF001739EF00D1124E15EFD4F05E082
:102AA000402E458214C00C851D85A017B1077CF00F
:102AB000FC0136972E163F0654F4729EF001739E69
:102AC000F00D1124E15EFD4F16E0F12EF5820C852C
:102AD0001D85A017B107B4F4FC0135972E163F06EB
:102AE0008CF4729EF001739EF00D1124E15EFD4F97
:102AF000758208C02F5F3F4FAA85BB851796BB879D
:102B0000AA8789CE63949A0145CEE0905305F09050
:102B10005405E0915505F0915605FF87EE878090AA
:102B200040059090410500914205109143051D8399
:102B30000C8340914705612CB7E07B2E55245394BC
:102B40005801A41AB108B3E1B61508F4BEC1262D88
:102B500030E03A8329834CE0429FF001439FF00D1F
:102B60001124EB59FD4F8481869540815181480F96
:102B7000511D2581269582819381820F911D970198
:102B8000241B350BB901665B7F4F7F836E832E84D8
:102B90003F84281A390A7AE4270E311CB401641BD9
:102BA000750BDB01A65BBF4FB987A8870C811D8120
:102BB000081B190B065B1F4F25E232E03D872C876F
:102BC00020E030E06F01BF01675F7F4F7B876A873E
:102BD00077E0C70ED11CAAE04A2EA981BA814A9E8D
:102BE000B0014B9E700D1124645A7C4F2B832A3008
:102BF000310509F467C1AA85BB854C9041105AC1C3
:102C0000AE81BF81A539B10508F094C0B5E92B1696
:102C1000310408F08FC0DB014C90442009F48AC0D5
:102C2000AC85BD854C90411085C0729ED001739ECD
:102C3000B00D1124A15EBD4F6C9212965C934E9321
:102C4000119714969C938E93139716965C921697F1
:102C500015961C9215976681662321F0613009F460
:102C600055C030C174E1472E4186BA016B5F7F4F7A
:102C70006E157F054CF4FC0135960E851F85E01717
:102C8000F10714F415965C92FA013597EE16FF06DB
:102C900094F06E157F0504F16E857F858617970782
:102CA000DCF4729EF001739EF00D1124E15EFD4F85
:102CB00072E0758311C0BC016B5F7F4FAE85BF852D
:102CC0006A177B074CF4729EF001739EF00D11247D
:102CD000E15EFD4FA3E0A583E416F506BCF4BC015C
:102CE00065507109EE85FF85E617F7077CF0665F92
:102CF0007F4F6E177F0754F0729EF001739EF00DA8
:102D00001124E15EFD4F64E0462E45826CE00981AE
:102D10001A81609FF001619FF00D1124EB59FD4F66
:102D200078E27187729ED001739EB00D1124A15E6E
:102D3000BD4FB1C0A885B985A539B10508F0BAC0A5
:102D40000539110508F0B6C0D6014C90442009F4AD
:102D5000B1C0AC85BD854C904110ACC0729ED00115
:102D6000739EB00D1124A15EBD4F6C9212965C93C0
:102D70004E93119714969C938E93139716965C928C
:102D800016976681662331F0613009F09BC028E216
:102D9000218781C004E1402E418615961C9215972B
:102DA000BA016B5F7F4F681579053CF4FC013596DD
:102DB000EA15FB0514F415965C92DA0115978A164C
:102DC0009B0684F068157905DCF08A159B05C4F430
:102DD000729EF001739EF00D1124E15EFD4F02E042
:102DE00005830EC0FC013596EA15FB054CF4729E76
:102DF000F001739EF00D1124E15EFD4F13E0158389
:102E0000841695069CF4FC013597AE16BF0674F047
:102E10003A96EA15FB0554F0729EF001739EF00D90
:102E20001124E15EFD4F14E0412E45828A169B0677
:102E30007CF4FC013597AE16BF06DCF4729EF001FF
:102E4000739EF00D1124E15EFD4F05E0058311C076
:102E50006815790574F0FC013697AE16BF064CF480
:102E6000729EF001739EF00D1124E15EFD4F16E09D
:102E700015836815790534F5BC0165507109A616EE
:102E8000B70604F5729EF001739EF00D1124E15E09
:102E9000FD4F758217C0228515962C9315971396B2
:102EA0002D913C9114972550310914963C932E9303
:102EB000139708C02F5F3F4FAC85BD851796BD8720
:102EC000AC8794CE63949A013ECEEB81E0931C02D2
:102ED00020931302309314028093110290931202F4
:102EE00060921D022F960FB6F894DEBF0FBECDBFC5
:102EF000DF91CF911F910F91FF90EF90DF90CF90D6
:102F0000BF90AF909F908F907F906F905F904F9009
:102F10003F902F900895BF92CF92DF92EF92FF9251
:102F20000F931F93CF93DF9310921C02C7E0DCE056
:102F3000BB24B39460911C026A3008F07CC080917D
:102F4000500581113FC0C69FF0011124E15EFD4F85
:102F500086818823B9F12091400530914105818116
:102F60009281A90143505109841795075CF12D5FA7
:102F70003F4F2817390734F12091470580914205CA
:102F800090914305821B910923813481AC01455006
:102F9000510924173507B4F001968217930794F06E
:102FA00080914C05882319F0855080934C058091C1
:102FB0004C05811103C0B0924D0504C0D09350055B
:102FC0001092480580916C0581112FC00091550524
:102FD000109156052091530530915405C69FF0017C
:102FE0001124E15EFD4F43815481618172818EE045
:102FF000C82ED12C9EE0E92EF12C8DE695E00E94A2
:103000009C31882391F080916905882319F08550BF
:103010008093690580916905811105C010924C0566
:10302000B0924D0502C0D0936C0580911C028F5F59
:1030300080931C027FCFDF91CF911F910F91FF9062
:10304000EF90DF90CF90BF900895909148058091C8
:103050004D05992319F0913059F011C09091470511
:10306000983068F481110BC09F5F909347050895D5
:1030700090914705992319F091509093470581301D
:1030800099F420914705222379F0809144059927EE
:1030900087FD9095019668E070E00E94463A809323
:1030A000440521502093470508950F931F93CF9314
:1030B000DF9380914905813009F013C18091440567
:1030C000992787FD9095A92FB92F8830910508F091
:1030D00040C0FC01E45CFF4F409140055091410528
:1030E00020914205309143050C949B3A405F5F4F1D
:1030F00015C0485F5F4F09C05093140240931302FC
:10310000285F3F4F22C0485051095093140240930A
:1031100013022B5F3F4F19C04051510950931402C5
:103120004093130212C04850510909C05093140231
:10313000409313022850310908C0485F5F4F5093F5
:103140001402409313022550310930931202209348
:103150001102C0910F02209113023091140240918C
:10316000110250911202A0911502809116029091C5
:103170001702B0E0DAE0BC1790F5DB9FF0011124F4
:10318000EB5AFC4F608171816217730734F514812B
:10319000610F711D2617370704F56281738164176B
:1031A0007507DCF41581610F711D46175707ACF4E4
:1031B0006781662391F06150678361110EC060855D
:1031C00061110BC0AF5F6681663029F0683029F469
:1031D00086509F4F02C088519C4FBF5FCCCFA093B9
:1031E0001502B0910E02A0E0C9E0AB17A0F5CA9F8E
:1031F000F0011124E95DFB4F608171816217730753
:1032000044F5D4816D0F711D2617370714F56281BF
:10321000738164177507ECF4D5816D0F711D461726
:103220005707BCF467816623A1F061506783611181
:1032300010C0608561110DC06681673029F069306A
:1032400031F0643031F403C0825A9E4F02C088537B
:103250009F4FAF5FCACFC0E0DCE019E0C431D8F5C2
:103260006C2F70E0D69FF001D79FF00D1124EB5921
:10327000FD4FA081B181A217B3075CF50481A00FB7
:10328000B11D2A173B072CF5A281B381A417B507FE
:1032900004F50581A00FB11D4A175B07D4F4A7817F
:1032A000AA23B9F0A150A783A11113C0E085E111B1
:1032B00010C0169FF001179FF00D1124E95DFB4F20
:1032C0006681662329F0613021F48C599F4F01C03B
:1032D000C296CF5FC3CF9093170280931602C0931C
:1032E0001D02DF91CF911F910F91089580914705A5
:1032F0008823E1F080914B0590E0019664E670E050
:103300000E94463A80934B05892B39F480914A05F7
:10331000882319F0815080934A0580914A058111D4
:1033200005C081E080934D058093480508958A3259
:1033300091054CF09C012A5231092332324010F0A1
:10334000825208958AE20895823291054CF09C01E0
:10335000225231092734324010F08654089582E217
:10336000089520914005309141052A32310564F0DD
:10337000A9014A5251094332524020F4821B930B57
:103380008A9602C0825292402DE730E0B9010E9435
:10339000463A83589F4FB9010E94463A08952091BA
:1033A0004205309143052232310564F0A9014252B1
:1033B00051094734524020F4821B930B829602C07D
:1033C000865492402DE730E0B9010E94463A835876
:1033D0009F4FB9010E94463A0895209140053091CF
:1033E00041052A32310564F0A9014A52510943329C
:1033F000524020F4821B930B8A9608958252924089
:10340000089520914205309143052232310564F040
:10341000A901425251094734524020F4821B930BB8
:103420008296089586549240089580914A05882393
:1034300061F080914705882341F080914E0590E02E
:1034400001968370992780934E058091190290E030
:10345000019662E370E00E94463A809319028091DF
:103460004D05813059F480914705811107C0809145
:103470004F058B3018F48F5F80934F058091500576
:10348000882319F081508093500580916C05882322
:1034900019F0815080936C0550910F0220E03AE0C2
:1034A0002517F8F4822F90E0389FF001399FF00D36
:1034B0001124EB5AFC4F4781411105C040854C3027
:1034C00010F44F5F4087389FF001399FF00D1124B1
:1034D000EB5AFC4F8185882311F0815081872F5F43
:1034E000DFCF20910E0280E039E0821778F4389F18
:1034F000F0011124E95DFB4F9781911105C0908582
:103500009C3010F49F5F90878F5FEFCF20E03CE00E
:103510002431F8F4822F90E0389FF001399FF00DAC
:103520001124EB59FD4F4781411105C04085493CAD
:1035300010F44F5F4087389FF001399FF00D112440
:10354000EB59FD4F8185882311F0815081872F5FD2
:10355000DFCF20931D02089585E790E090935405F6
:10356000809353058FE390E0909356058093550523
:1035700080E1809357058EE08093580580936A051B
:1035800010926B058AEF8093690510920D020895E1
:1035900082E0809318021092170210921602109285
:1035A0001902109285050E94190D0E94DE0C0C94E0
:1035B000AC1A8DE695E00E9441310C94C81ACF9365
:1035C000DF93CEEFDFE38DE695E00E940E30882397
:1035D000D1F327EB30E140E060E08BEB95E00E9417
:1035E000182B66E087E795E00E948D27882321F05D
:1035F000DF91CF910C94C81A64E087E795E00E94B0
:103600008D27811107C065E087E795E00E948D272F
:103610008823C9F28BEB95E00E94292825EA3EE039
:1036200040E060E08BEB95E00E94182B8BEB95E07F
:103630000E943A2882E691E0FE010995C4CF1F93CB
:10364000CF93DF9380914505882331F08091480521
:10365000813009F006C152C0809146058111F6CF34
:10366000809148058111F2CFC091100280914005F0
:1036700090914105209142053091430570914C0590
:10368000A0914A05B0E060E0D7E06C1790F5D69FB6
:10369000F0011124E952FB4F40815181481759072D
:1036A00034F51481410F511D8417950704F54281AB
:1036B000538142175307DCF4E5814E0F511D241747
:1036C0003507ACF4623069F028F4662341F06130CC
:1036D00061F00DC0633049F0643019F008C07133F7
:1036E00010F0AD3120F4B1E002C07133E0F36F5F50
:1036F000CCCFB093480560931D02A8CF80914705B9
:103700008111AFC010921D02C7E040911D0280914F
:103710001002481708F0A5C080914005909141051E
:10372000C49FF0011124E952FB4F208131812817F9
:1037300039070CF090C05481250F311D8217930773
:103740000CF089C08091420590914305228133811C
:10375000281739070CF07FC05581250F311D8217BE
:1037600093070CF078C0423009F455C028F4442384
:1037700049F04130C1F16FC04330A9F1443009F440
:103780004AC069C080910D02882319F00E94DF1A97
:1037900062C090914C0580914A05923329F48E3194
:1037A00041F41092480557C0923318F49F5F9093EC
:1037B0004C058E3118F48F5F80934A0580914C053B
:1037C000823309F048C080914A058E3109F043C028
:1037D0008091160290911702883E23E0920784F1AF
:1037E0008052934034C080914C058233D1F28233B1
:1037F00018F48F5F80934C0580914C05823359F506
:1038000080911602909117028E3E22E09207C4F03A
:103810008E5E92401CC080914A058E3111F28E312D
:1038200018F48F5F80934A0580914A058E3199F490
:1038300080911602909117028E3E22E092072CF49E
:10384000109217021092160206C0865991099093A1
:1038500017028093160280911D028F5F80931D02D4
:1038600054CFDF91CF911F910895CF93DF93CEEF87
:10387000DFE38DE695E00E940E308823D1F365E604
:1038800071E08BEB95E00E9419376CE771E08BEBF0
:1038900095E00E9419376AE871E08BEB95E00E9491
:1038A00019376AE971E08BEB95E00E94193766E001
:1038B00087E795E00E948D27882321F0DF91CF9143
:1038C0000C94C81A64E087E795E00E948D2788234E
:1038D000C1F08BEB95E00E9429286DEA71E08BEB3B
:1038E00095E00E9419376CEB71E08BEB95E00E943C
:1038F00019378BEB95E00E943A2882E691E0FE01B1
:10390000099565E087E795E00E948D27882309F4F3
:10391000B0CFDF91CF910895EF920F93CF93809125
:103920004005909141050E949719C82F282F30E03B
:103930003093140220931302809142059091430525
:103940000E94A419282F30E0309312022093110214
:103950004EEF480F6EEF6C0F2BE334E18BEB95E0ED
:103960000E94182B8091500563E00E94263A911125
:1039700048C120914E0588E0289F900111242E5BBC
:103980003B4E4091110280914705481B4850609181
:10399000130267508BEB95E00E94182B8091440531
:1039A000992787FD9095A92FB92F8830910508F0A8
:1039B00028C1FC01EC5BFF4F60E08BEB95E00C94C1
:1039C0009B3A0E9482284091110280914705481B32
:1039D0004650609113026950E12C00E02FE134E180
:1039E0008BEB95E00E944A2C61E08BEB95E00E9406
:1039F00082284091110280914705481B46506091F2
:103A0000130269508DC00E9482284091110280915A
:103A10004705481B4D50609113026750E12C00E0B0
:103A200023EE33E18BEB95E00E944A2C61E08BEBB7
:103A300095E00E9482284091110280914705481B21
:103A40004D5060911302675046C00E9482284091F9
:103A5000110280914705481B465060911302645043
:103A6000E12C00E02BE833E18BEB95E00E944A2C3F
:103A700061E08BEB95E00E948228409111028091D9
:103A80004705481B46506091130264502BEA33E10E
:103A9000B4C00E9482284091110280914705481BC2
:103AA0004D50609113026950EE24E39400E023EE40
:103AB00033E18BEB95E00E944A2C61E08BEB95E0C3
:103AC0000E9482284091110280914705481B4D5069
:103AD00060911302695021E034E18FC00E94822876
:103AE0004091110280914705481B46506091130296
:103AF0006750EE24E39400E02FE134E18BEB95E096
:103B00000E944A2C61E08BEB95E00E948228409154
:103B1000110280914705481B46506091130267507F
:103B20002DE234E16AC00E94822840911102809106
:103B30004705481B4650609113026750EE24E394FA
:103B400000E02BEB33E18BEB95E00E944A2C61E027
:103B50008BEB95E00E9482284091110280914705ED
:103B6000481B465060911302675045C00E9482284E
:103B70004091110280914705481B46506091130205
:103B80006450E12C00E02BE833E18BEB95E00E94E0
:103B90004A2C61E08BEB95E00E9482284091110253
:103BA00080914705481B46506091130264502BE9F1
:103BB00033E123C00E948228409111028091470581
:103BC000481B4650609113026950E12C00E02BEB3A
:103BD00033E18BEB95E00E944A2C61E08BEB95E0A2
:103BE0000E9482284091110280914705481B46504F
:103BF0006091130269502FEC33E18BEB95E00E944A
:103C00004A2CCF910F91EF9008950F9360E08BEBCA
:103C100095E00E94822805E024E540E060E08BEB1F
:103C200095E00E94F82861E08BEB95E00E948228E5
:103C300080910D02882359F0809119028F3038F459
:103C400080914705882319F068EC71E06BC022E68B
:103C500034E141E065E18BEB95E00E94182B809107
:103C600051058823C9F0813039F54AE050E0609170
:103C700015028BEB95E00E94E3376EED71E08BEB64
:103C800095E00E94FC364AE050E060910F028BEB19
:103C900095E00E94E33710C06CED71E08BEB95E08E
:103CA0000E94FC3660911602709117024AE050E0C3
:103CB0008BEB95E00E94CE3780914C0565E00E9429
:103CC000263A02E0282F42E061E38BEB95E00E9468
:103CD000F8288091690569E10E94263A282F42E080
:103CE0006DE18BEB95E00E94F82820914A058BEA64
:103CF000289F212D1124269542E062E48BEB95E06C
:103D00000E94F8288FE48093C4051092C505809125
:103D10005105882329F0813051F464EE71E002C02E
:103D200060EE71E08BEB95E00F910C94FC360F91F7
:103D300008950F931F93CF93DF9310921D0205E018
:103D4000C0911D02C33160F50C9FE0011124C858D9
:103D5000DB4F888199810E94B119182F809313023B
:103D6000909314028A819B810E94CF198093110243
:103D700090931202EC81F0E0EE0FFF1FEA5CFE4F21
:103D8000208131814CEE480F6CEE610F8BEB95E09A
:103D90000E94182B80911D028F5F80931D02D0CF4F
:103DA000DF91CF911F910F910895FF920F931F9371
:103DB000CF93DF9310921D0247E0F42EC0911D02B5
:103DC000CF3008F040C0FC9EE0011124C952DB4F07
:103DD000888199810E94ED198C019093140280933F
:103DE00013028A819B810E94011A90931202809390
:103DF0001102043511050CF52C8130E03195219527
:103E0000310920173107CCF480339105B4F42D81AA
:103E100030E03195219531092817390774F4EE8186
:103E2000F0E0EE0FFF1FE65EFE4F20813181482F4C
:103E3000602F8BEB95E00E94182B80911D028F5F05
:103E400080931D02BBCFDF91CF911F910F91FF9007
:103E50000895DF92EF92FF920F931F93CF93DF931A
:103E600010921D0279E0D72EE0901D0280910E0283
:103E7000E81608F057C0F12CDE9CE001DF9CD00D65
:103E80001124C95DDB4F888199810E94ED198C0155
:103E900090931402809313028A819B810E94011ADD
:103EA000909312028093110204351105ACF52C8118
:103EB00030E0319521953109201731076CF58033B9
:103EC000910554F52D8130E0319521953109281760
:103ED000390714F52F8121110AC02885263038F0C2
:103EE000EE81F0E0EE0FFF1FE65FFE4F0DC0DE9C9F
:103EF000F001DF9CF00D1124E95DFB4FE681F0E05D
:103F0000EE0FFF1FE65EFE4F20813181482F602FAC
:103F10008BEB95E00E94182B80911D028F5F8093A0
:103F20001D02A2CFDF91CF911F910F91FF90EF90D3
:103F3000DF900895DF92EF92FF920F931F93CF933C
:103F4000DF9310921D02CAE0DC2EE0901D028091EA
:103F50000F02E81608F057C0F12CDE9CE001DF9C50
:103F6000D00D1124CB5ADC4F888199810E94ED1924
:103F70008C0190931402809313028A819B810E948A
:103F8000011A909312028093110204351105ACF5C9
:103F90002C8130E0319521953109201731076CF5DE
:103FA0008033910554F52D8130E03195219531090B
:103FB0002817390714F52F8121110AC028852630CA
:103FC00038F0EE81F0E0EE0FFF1FE65FFE4F0DC010
:103FD000DE9CF001DF9CF00D1124EB5AFC4FE681D2
:103FE000F0E0EE0FFF1FE65EFE4F20813181482F8B
:103FF000602F8BEB95E00E94182B80911D028F5F44
:1040000080931D02A2CFDF91CF911F910F91FF905E
:10401000EF90DF900895EF920F931F93CF93DF936C
:1040200010921D021CE000911D02043108F0B1C085
:10403000202F30E0129FF001139FF00D1124EB5957
:10404000FD4F878181110AC08085883038F0883122
:1040500008F099C08370823009F095C0129FE0018A
:10406000139FD00D1124CB59DD4F888199810E9477
:10407000ED1990931402809313028A819B810E9410
:10408000011A9093120280931102802F0E943A121B
:104090006091130270911402643571050CF073C0C5
:1040A000E0911D021E9FF0011124EB59FD4F848108
:1040B00090E0919581959109861797070CF063C060
:1040C0004091110250911202403351050CF05BC037
:1040D000858190E0919581959109841795070CF061
:1040E00052C08681811113C08781882359F082854F
:1040F0008250843020F4EE24E39400E005C029ECE3
:1041000032E13DC0E12C01E029EC32E120C08285A2
:1041100090E088309105B8F5FC01E45BFF4F0C940A
:104120009B3A20912C0130912D0129C020912E0124
:1041300030912F0124C020913001309131011FC0F6
:1041400020912E0130912F01EE24E39400E08BEBBF
:1041500095E00E944A2C17C020912C0130912D012E
:10416000F3CF2091340130913501EECF209132010F
:104170003091330104C020913401309135018BEB33
:1041800095E00E94182B80911D028F5F80931D0285
:104190004ACFDF91CF911F910F91EF900895DF9259
:1041A000EF92FF920F931F93CF93DF9315E9E12EC8
:1041B00017E0F12E07E0D02EF70185919491F701D9
:1041C0003296059114910E94ED19EC01909314021E
:1041D00080931302C8010E94011AAC01909312024D
:1041E00080931102CE010F968336910508F03EC0F0
:1041F000CA010F96CF97D0F5F7013496049110E0DD
:104200000730110598F5F801EC5AFF4F0C949B3AD2
:104210002FED39E026C02DEB39E023C02BE939E042
:1042200020C029E739E01DC027E539E01AC0809198
:104230005205873018F421E03AE013C080911E0245
:10424000833268F46D2D0E94263AE82FF0E0EE0FDD
:10425000FF1FEE5BFE4F20813181405102C025E3FC
:1042600039E06C2F8BEB95E00E94182B85E0E80E6F
:10427000F11C89EEE81688E0F80609F09DCFDF9181
:10428000CF911F910F91FF90EF90DF900895CF9302
:10429000DF9380915305909154050E94ED19EC0134
:1042A00090931402809313028091550590915605C6
:1042B0000E94011AAC019093120280931102CE0168
:1042C0000F9683369105D8F4CA010F96CF97B8F4AC
:1042D00080916C0563E00E94263A911110C0E09134
:1042E0006B05F0E0EE0FFF1FE75AFA4F2081318196
:1042F0006C2F8BEB95E0DF91CF910C94182BDF9115
:10430000CF9108950F9380914C0581112BC080911E
:104310004F058B3039F560E08BEB95E00E948228E9
:1043200007E026E242E168E18BEB95E00E94F82885
:1043300061E08BEB95E00E94822809E028E241E1F0
:1043400067E18BEB95E00E94D02889E18093C4055A
:1043500083E18093C50568EE71E08BEB95E00F91EA
:104360000C94FC360F9108950F93882331F081301F
:1043700061F400E020E04AE003C000E020E043E018
:1043800060E082E995E00E942D3200E020E041E00B
:1043900061E082E995E00E942D3229EF40E062E081
:1043A00082E995E00E942D3228EF40E063E082E947
:1043B00095E00E942D3220E043E061E182E995E042
:1043C0000F910C945E323F924F925F926F927F9268
:1043D0008F929F92AF92BF92CF92DF92EF92FF9215
:1043E0000F931F93CF93DF933090520582E1831593
:1043F00008F4B8C080916905882309F4B3C0832DFF
:1044000090E0FC01EE0FFF1FEE0FFF1FE751F74F8B
:10441000A590B490FC01EE0FFF1FEE0FFF1FE551BA
:10442000F74F859094900091530510915405B50174
:10443000601B710B882777FD8095982F0E94D038DC
:104440002B013C01C0915505D0915605B4016C1B60
:104450007D0B882777FD8095982F0E94D0386B01BF
:104460007C01A3019201C301B2010E945C392B01BE
:104470003C01A7019601C701B6010E945C399B016E
:10448000AC01C301B2010E9439380E94C3390E94B5
:104490009D38633071056CF5832D8D7F853019F063
:1044A0008AE0381222C080910C02815019F080936A
:1044B0000C0206C080EF80930C02339430925205B8
:1044C00080915205873009F050C080911E028332DE
:1044D00008F04BC0811103C081E00E94B42180919B
:1044E0001E028F5F80931E0240C0339430925205AB
:1044F0003CC08091DE0580FF38C085E080936B056D
:104500000A151B054CF40F5F1F4F109354050093C1
:10451000530510926B050CC0A016B1064CF4015067
:104520001109109354050093530583E080936B05A4
:10453000C815D9054CF42196D0935605C09355055E
:1045400080916B058E5F0BC08C169D0674F42197CD
:10455000D0935605C093550580916B058F5F80936E
:104560006B0503C081E080930D02DF91CF911F9115
:104570000F91FF90EF90DF90CF90BF90AF909F9002
:104580008F907F906F905F904F903F900895EF9243
:104590000F93CF9380914905813009F044C180E0A9
:1045A0000E94B42180914005909141050E94971985
:1045B000C82F482F50E0509314024093130280916B
:1045C0004205909143050E94A419E82FF0E0F09372
:1045D0001202E093110240914405552747FD509582
:1045E000652F752F4830510508F01DC1FA01E55AB5
:1045F000FF4F9091190293700C949B3A91110DC04A
:1046000020E12C0F90914705482F491B66E06C0F65
:10461000082F8BEB95E00E9421298091190263E01D
:104620000E94263A8AE0989F9001112423593C4E1B
:1046300040911102445060911302645FEDC09111EA
:104640000FC005E0080F28E02C0F90914705482F78
:10465000491B4F5F63E06C0F8BEB95E00E942129B3
:104660008091190263E00E94263A8AE0989F9001A7
:10467000112423593C4E409111024F5FCAC0911141
:104680000CC008E0080F90914705482F491B2C2FBC
:104690006C2F8BEB95E00E9421298091190263E039
:1046A0000E94263A8AE0989F9001112423593C4E9B
:1046B000409111024C5F609113026450ADC09111A2
:1046C0000FC005E0080F28EF2C0F90914705482FE9
:1046D000491B4F5F6DEF6C0F8BEB95E00E9421291A
:1046E0008091190263E00E94263A8AE0989F900127
:1046F000112423593C4E409111024F5F40C091114B
:104700000DC020EF2C0F90914705482F491B6AEFF1
:104710006C0F082F8BEB95E00E94212980911902E4
:1047200063E00E94263A8AE0989F90011124235961
:104730003C4E40911102445060911302645142C0BA
:1047400091110FC00BEF080F28EF2C0F9091470528
:10475000482F491B42506BEF6C0F8BEB95E00E948A
:1047600021298091190263E00E94263A8AE0989FED
:104770009001112423593C4E4091110249506091FF
:1047800013026C501FC091110CC008EF080F9091DC
:104790004705482F491B2C2F6C2F8BEB95E00E946F
:1047A00021298091190263E00E94263A8AE0989FAD
:1047B0009001112423593C4E409111024C506091BC
:1047C00013026450EE24E39400E08BEB95E00E942A
:1047D0004A2C29C091110FC00BEF080F28E02C0FB5
:1047E00090914705482F491B425065E06C0F8BEBB9
:1047F00095E00E9421298091190263E00E94263AE7
:104800008AE0989F9001112423593C4E4091110257
:104810004950609113026C5F8BEB95E0CF910F9143
:10482000EF900C94182BCF910F91EF900895EF9289
:10483000FF920F931F93CF93DF9310921D0217E007
:10484000E0911D02EA3008F03FC01E9FF0011124E4
:10485000E15EFD4F8681882389F1813019F480E083
:104860000E94B421C0911D021C9FE0011124C15E71
:10487000DD4F89819A810E94ED197C019093140289
:10488000809313028B819C810E94011A90931202E3
:10489000809311029701215031092335310570F4BD
:1048A0009C01215031092F32310540F402E022E011
:1048B000482F6E2D8BEB95E00E94F82880911D0209
:1048C0008F5F80931D02BCCFDF91CF911F910F911D
:1048D000FF90EF900895CF92DF92EF92FF920F93A7
:1048E0001F93CF93DF931F92CDB7DEB780914D0515
:1048F0008130A1F580914705811130C080914F052D
:104900008B3060F581E00E94B42180914005909148
:1049100041050E949719082F10E0025011091093C9
:1049200014020093130280914205909143050E9466
:10493000A419482F50E04A50510950931202409355
:10494000110220914F058DE0289F900111242F52D4
:104950003D4E602F8BEB95E00E94182B90910F023B
:1049600080910E02891718F490931B0202C0809365
:104970001B0280911B02843118F484E180931B0296
:1049800010921D020AE01DE049E0F42E5CE0E52EE5
:10499000E0911D0280911B02E81708F03DC1809153
:1049A0000F028E1708F474C00E9FF0011124EB5A09
:1049B000FC4F878181116CC080858C3008F068C005
:1049C00081E00E94B42180911D02089F60011124A2
:1049D000F601EB5AFC4F6F01808191810E94ED1925
:1049E000682F8093130290931402F60182819381C1
:1049F00069830E94011AAC0143505109509312027D
:104A000040931102F601868169818430B1F52085D9
:104A1000129F900111242F523D4E6B5F8BEB95E05E
:104A20000E94182BE0911D020E9FF0011124EB5AF9
:104A3000FC4F2085129F900111242F523D4E409132
:104A400011024B5F609113026C5E8BEB95E00E944C
:104A5000182BE0911D020E9FF0011124EB5AFC4F20
:104A60002085129F900111242F523D4E409111023A
:104A7000415F60911302685F07C0F6012085129FB5
:104A8000900111242F523D4E8BEB95E00E94182B84
:104A9000E0911D0280910E028E1708F477C0FE9EF1
:104AA000F0011124E95DFB4F878181116FC0808582
:104AB0008C3008F06BC081E00E94B42180911D020F
:104AC000F89E60011124C601895D9B4F6C01FC01B9
:104AD000808191810E94ED19682F80931302909339
:104AE0001402F6018281938169830E94011AAC014C
:104AF000435051095093120240931102F6018681EE
:104B000069818430B9F52085129F900111242F52BC
:104B10003D4E4D5F665F8BEB95E00E94182BE09158
:104B20001D02FE9EF0011124E95DFB4F2085129FBE
:104B3000900111242F523D4E409111024C5F609123
:104B40001302675D8BEB95E00E94182BE0911D022C
:104B5000FE9EF0011124E95DFB4F2085129F90011C
:104B600011242F523D4E40911102485E6091130274
:104B70006A5D08C0F6012085129F900111242F5212
:104B80003D4E6D5F8BEB95E00E94182B80911D02CE
:104B90008531E0F5E89E60011124C6018B599D4FD7
:104BA0006C01FC018781811131C080858C3070F5EA
:104BB000808191810E94ED19059690931402809353
:104BC0001302F601828193810E94011A0397909348
:104BD000120280931102F60186818130B9F40E949D
:104BE000B421E0911D02EE9EF0011124EB59FD4F1E
:104BF0002085129F900111242F523D4E40911102A9
:104C0000609113028BEB95E00E94182B80911D029E
:104C10008F5F80931D02BCCE0F90DF91CF911F91CB
:104C20000F91FF90EF90DF90CF9008958DE695E083
:104C30000E940E308823A1F166E087E795E00E948C
:104C40008D2781110E94351C0E94D51E0E94291FAC
:104C50000E949A1F0E940B200E94CF200E94991E42
:104C60000E94C7220E9417240E94051E0E948C1CCD
:104C70000E94E3210E9447210E946B240E9482210E
:104C80000E941F1B0E949B0B0E9425180E94551812
:104C90000E948B170E9476190E94EF120C94151A2D
:104CA00008951092BE051092BD0587E092E09093A2
:104CB000BC058093BB0580E1E2E5F1E0A9E5B5E044
:104CC00001900D928A95E1F70895CF93CFB7F894AC
:104CD0008091F405811127C0E7EBF6E18491E3EAC6
:104CE000F6E19491E82FF0E0EE0FFF1FEB52F94E42
:104CF000A591B4918C91892321F461E08AE00E940E
:104D00002A3661E08AE00E94F1358CB580618CBD65
:104D10008CB580648CBD61E08DE00E94F13561E06E
:104D20008BE00E94F1358091F4058F5F8093F4054C
:104D3000CFBFCF91089521E0FC012083089570E05A
:104D400085E00C946935AF92BF92CF92DF92EF92DB
:104D5000FF920F931F93CF93DF93EC0189819A8188
:104D60002FE0289F8001299F100D112485E10E94CA
:104D70004C35800F911F24E0969587952A95E1F791
:104D80009A8389832881222391F1AC81AD80B12C53
:104D9000C12CD12CE885F9857F0100E010E06E81FF
:104DA0007F819B0140E050E08617970728F0BC0107
:104DB000E817F90708F4BF0180E090E01F921F9206
:104DC0001F92AF930E94F0376B830F900F900F905C
:104DD0000F9070E085E0DF91CF911F910F91FF90D0
:104DE000EF90DF90CF90BF90AF900C946935DF913A
:104DF000CF911F910F91FF90EF90DF90CF90BF90D8
:104E0000AF900895FC018CE39FE09383828384E05C
:104E1000818381E084870895CF93DF93EC018C81B7
:104E20009D81892B81F18C858F7151F584E10E94E0
:104E30004C35BC01882777FD8095982F0E94D0388B
:104E400026EE3FE34EEC50E40E945C390E94A2380B
:104E50009B017B836A836115710581F084E08983FE
:104E6000FE0140E0848195812817390710F44983B9
:104E70000AC04F5F32964430A9F702C08FEF898392
:104E80008C858F5F8C87DF91CF910895FC0188E03E
:104E9000808389E0818387E0828386E0838384E066
:104EA000848382E0858381E186830895DF92EF9297
:104EB000FF920F931F93CF93DF937C01EC0100E0EF
:104EC00010E0DD24DA9462E088810E94F135888167
:104ED0000E946036F701E00FF11F892B21F48781D2
:104EE0008F5F878308C08781882349F08F3F11F443
:104EF000178201C0D78260E088810E94F1350F5F80
:104F00001F4F219607301105F1F6DF91CF911F91C8
:104F10000F91FF90EF90DF900895FC01E60FF11DD7
:104F200081E09781913009F080E00895262F30E0EC
:104F3000FC01E20FF31F8781423028F481508E3F3D
:104F400048F080E008958F3FE1F3642F0E94263AF5
:104F50009130B9F781E008958EBD00000DB407FED1
:104F6000FDCF8EB50895DC01643508F053C04033A1
:104F700008F050C090968C919097342F35953595C8
:104F80003595E62FFF27E7FDF095242F2770823017
:104F900099F4DF01AB50BA4F84E53802A00DB11D82
:104FA00011248C9190E0022E02C0959587950A9469
:104FB000E2F78095817009C0833039F446271C964A
:104FC0008C91482740FF03C014C0811112C084E5B2
:104FD0003802E00DF11D1124EB50FA4F81E090E012
:104FE000022E01C0880F0A94EAF7809590819823D9
:104FF00010C084E53802E00DF11D1124EB50FA4F8A
:1050000081E090E0022E01C0880F0A94EAF79081B7
:10501000982B908308951F93CF93DF93EC01162F65
:10502000F89460E08F850E942A36888918161CF44F
:1050300060E00E942A36812F0E94AC2788891816CA
:105040001CF461E00E942A367894DF91CF911F9181
:10505000089528EF31E0E5EFF5E0DF01A9011D92A9
:1050600041505040E1F7DC0119961C9219971A96AD
:105070001C920895DF92EF92FF920F931F93CF93AC
:10508000DF93EC018C858F5F8C8785EFE82E85E0C0
:10509000F82ED12C6D2D6064CE010E940B2860E8A3
:1050A000CE010E940B2861E08F850E942A368889F4
:1050B00018161CF460E00E942A3600E010E0F701A8
:1050C000E00FF11F80810E94AC270F5F1F4F043556
:1050D0001105A9F7888918161CF461E00E942A3688
:1050E000D39484E5E80EF11C86E0D812D3CF60E4B7
:1050F000CE01DF91CF911F910F91FF90EF90DF9044
:105100000C940B28FC0160A361A30895FC0160A32B
:1051100041A30895CF92DF92FF920F931F93CF93F5
:10512000DF931F92CDB7DEB76C01062FF42E10E08F
:10513000121754F4412F4F0D602FC60129830E948E
:10514000B3271F5F2981F4CF0F90DF91CF911F917B
:105150000F91FF90DF90CF900895CF92DF92FF9252
:105160000F931F93CF93DF931F92CDB7DEB76C01E0
:10517000062FF42E10E0121754F4612F600F4F2DFC
:10518000C60129830E94B3271F5F2981F4CF0F90A6
:10519000DF91CF911F910F91FF90DF90CF900895F5
:1051A000EF92FF920F931F93CF93DF93EC01F62EB4
:1051B000142FE22E0E94AD284FEF400F410F2E2DED
:1051C0006F2DCE010E94AD28202F412F6F2DCE01D3
:1051D0000E948A286FEF6E0D6F0D202F412FCE0198
:1051E000DF91CF911F910F91FF90EF900C948A283F
:1051F000DF92EF92FF920F931F93CF93DF93EC0117
:10520000E62ED22EF42E112707FD1095040F111D46
:1052100047FD1A958F2D992787FD90958017910747
:1052200044F42D2D4F2D6E2DCE010E94AD28F39408
:10523000F1CFDF91CF911F910F91FF90EF90DF9011
:105240000895AF92BF92CF92DF92EF92FF920F93A9
:105250001F93CF93DF93EC01162FF42EE22EA02F95
:10526000BB27A7FDB095A41BB10947FDB395B7FFB8
:1052700003C0B195A195B109EE2DFF27E7FDF0958B
:10528000E11BF10917FDF395F7FF03C0F195E195D7
:10529000F109BB24B394EA17FB0714F0B12C06C044
:1052A0008E2DE02E082F812F1F2DF82EE11634F4BD
:1052B0008F2DF02E082F812F1E2DE82ECE2CC11AF7
:1052C000E02FFF27E7FDF095EF19F109F7FCF395C3
:1052D000F7FF03C0F195E195F109AE2EDC2CC7FE76
:1052E00003C0DD24D394DC0CD594F01614F401E053
:1052F0000FC00FEF0DC0BB2071F0412F6F2DCE01FD
:105300000E94B327DA18D7FE02C0F00EDC0C1F5F34
:10531000E1168CF703C04F2D612FF1CFDF91CF91B4
:105320001F910F91FF90EF90DF90CF90BF90AF90C3
:1053300008958F929F92AF92BF92CF92DF92EF9299
:10534000FF920F931F93CF93DF93EC01E62ED42EA1
:10535000122FCC24C394C21AB22EB194BB0CF12CE0
:10536000802F8470A82E802F8270982E802F8870B6
:10537000882E0170F1160CF04DC0C7FC04C011500E
:10538000B394B394CB0CF3948F2D880F8F5FC80E1A
:10539000AA2071F0412F4D0D6F2D6E0DCE010E9490
:1053A000B3274F2D4D0D612F6E0DCE010E94B327F7
:1053B000992071F04D2D411B6F2D6E0DCE010E9475
:1053C000B3274D2D4F19612F6E0DCE010E94B327CB
:1053D000882071F04F2D4D0D6E2D611BCE010E9466
:1053E000B327412F4D0D6E2D6F19CE010E94B327AB
:1053F000002309F4BFCF4D2D4F196E2D611BCE0137
:105400000E94B3274D2D411B6E2D6F19CE010E94B6
:10541000B327B0CFDF91CF911F910F91FF90EF9005
:10542000DF90CF90BF90AF909F908F9008958F9214
:105430009F92AF92BF92CF92DF92EF92FF920F9323
:105440001F93CF93DF93EC01B62EA42E122FDD24F1
:10545000D394D21AC22EC194CC0CFF24F394802F83
:105460008170882E992493949E0C02708FEF8F0D7B
:105470008117C4F5D7FC04C01150C394C394DC0C4D
:105480008F2D880F8F5FD80E882099F0212F220F43
:10549000290D4A2D411B6F2D6B0DCE010E948A28CC
:1054A00023E02E0D4A2D4F19612F6B0DCE010E9466
:1054B0008A28002399F0212F220F290D4A2D411B04
:1054C0006B2D6F19CE010E948A2823E02E0D4A2DE4
:1054D0004F196B2D611BCE010E948A28F394E3942F
:1054E000E394C4CFDF91CF911F910F91FF90EF9084
:1054F000DF90CF90BF90AF909F908F9008959F9234
:10550000AF92BF92CF92DF92EF92FF920F931F93D1
:10551000CF93DF93EC01B62EF42EA22EDE2CD19485
:10552000DD0C9D2C920E1E2D160F292D612F0E9431
:10553000AD28CC24CA94C00ECF0C292D4C2D612F40
:10554000CE010E94AD28D00EFE0C2D2D4F2D6B2DBF
:10555000CE010E948A28BA0C6FEF6B0D2D2D4F2DB6
:10556000CE010E948A2801E02E2D4F2D612FCE0101
:105570000E949929DE2CD094DB0C02E02E2D4F2DB9
:105580006D2DCE010E949929CE1804E02E2D4C2DB0
:105590006D2DCE010E94992908E02E2D4C2D612FF2
:1055A000CE010E949929DF91CF911F910F91FF9019
:1055B000EF90DF90CF90BF90AF909F900895AF9203
:1055C000BF92CF92DF92EF92FF920F931F93CF93F0
:1055D000DF93EC01A62EC42EB22EF02E1E2DE194E8
:1055E000EE0CD12ED60E2E2D2B0D6D2D0E94F828EF
:1055F000FA94FE0CC10E6FEF6A0D6B0D611BEF2C60
:1056000001E0212F4C2DCE010E94172A02E0212F0C
:105610004C2D6D2DCE010E94172ADF91CF911F9145
:105620000F91FF90EF90DF90CF90BF90AF900895D3
:105630006F927F928F929F92AF92BF92CF92DF92A2
:10564000EF92FF920F931F93CF93DF93F901A490F2
:1056500031965491FC01F0A064350CF00CC1BB24D0
:10566000A7FCB094A62FBB27A7FDB095FD01EA0DBE
:10567000FB1D1E161F060CF0FEC040330CF0FBC0D5
:10568000C52E042F112707FD1095E801C50FD11D68
:1056900057FDDA951C161D060CF0EDC0E9012296A7
:1056A0009501295F3F4F37FF02C0295F3F4F73E0ED
:1056B000359527957A95E1F747FF0AC0C52EC40EA8
:1056C000209FA001219F500D1124C41BD50B40E049
:1056D0000C2D112707FD1095040F111D47FD1A957C
:1056E000013311051CF070E3C72EC41A67FD60E09A
:1056F000E535F10514F0E4E5F0E01E2FFC017485BA
:105700007427862F992787FD9095FC01EA1BFB0BD8
:10571000DF015F01F7E0AF22BB24E0E8F0E002C068
:10572000F595E795AA94E2F70E2FB7FD179653E08B
:10573000B595A7955A95E1F7AC0FBD1FE42FE7701B
:1057400051E001C0550FEA95EAF745954595459515
:10575000E4E54E02800D911D11248B509A4F40E0DC
:10576000DD24C7FCD094BB24B3943327E42FF0E0AE
:10577000EC15FD050CF07FC0FD01E490F1E0FF1297
:1057800019C0EC01A02EFD01862E881A9C2E980CC3
:10579000911608F067C09E2C9A2019F09880952ADF
:1057A0009882A69429F43196E4906894AA24A7F8E4
:1057B0002196ECCFF1101BC0752E7094EC01A02E39
:1057C000FD01862E881A9C2E980C911608F04AC06E
:1057D0009E2C9A2019F0988097209882A69429F4FC
:1057E0003196E4906894AA24A7F82196ECCFE3E0E0
:1057F000FE1631F0EC01A02EFD01862E881A2EC077
:10580000752E7094962EEC01A02EFD019116B0F429
:105810008E2C8A2049F08880692C672660FE02C0A1
:10582000852A01C087208882A69429F43196E490C5
:105830006894AA24A7F893942196E8CF7B2512C0F8
:105840009E2C9A2019F0988095269882A69429F487
:105850003196E4906894AA24A7F821969C2E980C7F
:10586000911670F3550F19F48C5A9F4F51E04F5F0A
:10587000A20FB31F7BCFDF91CF911F910F91FF90AC
:10588000EF90DF90CF90BF90AF909F908F907F90E0
:105890006F9008952F923F924F925F926F927F92F6
:1058A0008F929F92AF92BF92CF92DF92EF92FF9230
:1058B0000F931F93CF93DF93CDB7DEB72A970FB621
:1058C000F894DEBF0FBECDBF6C01262E542F011100
:1058D0001CC0E1101AC02A960FB6F894DEBF0FBEA6
:1058E000CDBFDF91CF911F910F91FF90EF90DF908F
:1058F000CF90BF90AF909F908F907F906F905F9070
:105900004F903F902F900C94182BF9018491319671
:105910003490B9016E5F7F4F7A836983A82EB12CD2
:105920009501295F3F4FB3E035952795BA95E1F78B
:105930003A87298703702FEF280F522E10E07FEF50
:10594000730D832D90E09C838B83812F992787FD96
:1059500090958A159B050CF071C0812F17FF02C02E
:1059600087E0810F682E659465946594812F877810
:1059700087FF03C08150886F8F5FA0E88A2E912C2B
:1059800002C0959487948A95E2F7472EF12C7724EC
:1059900067FC70948F2D992787FD9095EB81FC8192
:1059A0008E179F070CF047C0A985BA858A9FF00122
:1059B0008B9FF00D9A9FF00D1124E60DF71D898144
:1059C0009A81E80FF91FE491F0E0E821F921EF2B2B
:1059D00079F1023039F0033041F0013049F4452DBE
:1059E0006F2D08C0652D442D05C0642D412F02C0C8
:1059F0004F2D612FEE2069F03E2D3370E0FE03C085
:105A0000922F961B692FE1FE05C0A32DA41B4A2FE0
:105A100001C030E0620D450FC6012E833D835F83D8
:105A200078870E94B3273D81E32E78855F812E81A0
:105A3000F3944A94AFCF1F5F5A9487CF2A960FB63C
:105A4000F894DEBF0FBECDBFDF91CF911F910F91B4
:105A5000FF90EF90DF90CF90BF90AF909F908F908E
:105A60007F906F905F904F903F902F900895DC0152
:105A7000FB0184918F5F14968C9314973196E49177
:105A8000EF5F1596EC9315976E5F7F4F5F967C9353
:105A90006E935E970895EF920F93CF93DF93EC018F
:105AA0004E876D872F87E98A088B81E0888788A3D6
:105AB00019A28F8360E874E1CE010E94372D0E9405
:105AC00065268CB58F7D8CBD8CB58C7F81608CBD3F
:105AD0008DB581608DBD8CB58C608CBD61E08E858F
