:100000000C94D4040C94FC040C94FC040C94FC0498
:100010000C94FC040C94FC040C94FC040C94FC0460
:100020000C94FC040C94FC040C94FC040C943F2AE7
:100030000C94FC040C94FC040C94FC040C94FC0440
:100040000C94702A0C94FC040C94FC040C94FC0496
:100050000C94FC040C94FC040C94FC040C94FC0420
:100060000C94FC040C94FC04B20CBD0CC80CD30C16
:10007000E30CF00CFB0C060D9210951098109F10DD
:10008000A810AF10B210B910161338135A137E13FC
:10009000A313C813EB130F14DC16E116E616EB16C8
:1000A000F716FC160117061724194B196B198B1933
:1000B000AB19CC19EF19161A100E02180230026093
:1000C00007C00A7E163F103D10793FF37FE6FFCC54
:1000D000FF98FFF071C0100E008000800FF81F7CA9
:1000E0001F7C1E3C1C5C1C5C1E3C1FFC1FFC1FFC80
:1000F00013E41E3C100E02003FF83DF83C783838FF
:10010000383839383D783EF83EF83EF83EF827C892
:100110003C78100E02000200020003E0FE10FC0812
:10012000BC689E38CFEC67F633FB19FF0FFF038ED8
:10013000100E080008000980067F0820383C3FFEAA
:100140003FFE3FFE200215540FF800000000080A91
:100150007CFE447C7C446C546C44202008000020CD
:100160003E0000F84900012441FFFF04E155550E0F
:1001700041AAAB04415555047EFFFEFC5580035453
:100180005A9112B4559113545A9112B45580035494
:100190007AFFFEBC158003501A8002B01580035010
:1001A0001A8002B0158003503EFFFEF841555504F9
:1001B00041AAAB04E155550E41FFFF04490001245B
:1001C0007F0FE1FC4917D1244117D1044917D124ED
:1001D00049FFFF24410001047F0001FC48290E0073
:1001E00000080FE00000001BC0001C1550000000BC
:1001F000157000082AB00009242AA80008355014F8
:1002000004925558001C2AB00809246AAC001C1539
:10021000500004923554283E0FE07E09241AB8108D
:100220003E0380FF049207C0007F0381FF892403FF
:1002300000007F0381FF84920300002200008109F7
:1002400024001E00220000AD0492003F002A00009E
:10025000AD09240073802BFC00A10492006DE02303
:10026000FE00FF0924002DF023FF00000000002005
:10027000202A0200000000002DA02ADA001FC00082
:10028000002DB02ADA003FE000002C282A02007F6F
:10029000F00A283FF43FFE007FF004100000000049
:1002A000002020000000000000002DA000007C00C5
:1002B0000000002DBF8001AA0003C000203FC00144
:1002C00055800420282020C002AA800BD0102DAE1B
:1002D000800355400BD0002DAE8002AAC00C300028
:1002E0002C2E800355400BD0003FFFB802AAC0045B
:1002F00021FC00005601558003C3FE0001AB00FF46
:10030000014007FF000155003C008007FF0002ABE1
:10031000003C00000202000355003C000002BA004D
:1003200002AB003E000002BA000156145500000264
:10033000820014FC0800000003FE000830000000EA
:10034000000000000030000000000000000000106D
:10035000161010383854549292AAAAC6C692929295
:1003600092FEFE000000000000000010103838541B
:10037000549292AAAAC6C682828282FEFE10151FDD
:100380000035F06AAC55562AAA355E0FE0064003E8
:100390004E01D57DCAABFC57E039C00DC007C00384
:1003A000C001C001C001C003E010110F0035C06AD8
:1003B000B0D550AAA8D554AAAC5554BAACDDD46F68
:1003C000A837501FE00780070007000F80080E18AD
:1003D0002C342C366A54ACD46C54381010281800C5
:1003E00000003020200040586020004068A05000ED
:1003F000A058E0A801506CB05000A0D550F801F012
:10040000A9B0204C41595000EC01A9B0215C00D9A1
:100410005032AC00A8E05513007040B60CC020402C
:10042000D633202100B230E10080DACD6142A0AAAB
:10043000CD400140DA0C4FFD40ABFFD55640D8000F
:100440002AABC0A808555560700AAAAAB0202CD5BE
:1004500057E0201C7FFC00080805A240000A045059
:10046000200E090C001E0017002B8037E06BF0D522
:10047000F8AAFCFFFC201A03E000000C1800001092
:10048000040000220200004011000040010000832F
:10049000E08000AC1880009004BF80AFFABD80D728
:1004A000F5BC80D7F5BB8097F4A78097F4B7809709
:1004B000F4BF80FFFFA080000000000000000000EB
:1004C000060000038800000250000002600000FFE8
:1004D000BC7000B032E000C84A7000CFCCE0002011
:1004E0001D003F800000D540001FABE00075D60026
:1004F00000AABC0000DD6B0000A7D58000CB7EC049
:100500000095403FFC1D4040020B40FFFF0D409016
:10051000090940A5690280B5490280A6250480FF2B
:10052000FF0786400200694EFA009F4EAA00E54E82
:10053000FA00BD4E0260A57FFE96660000F9180E17
:1005400038A7000B2CBD000EBAA5000F3C66000EAC
:100550003818000000180F01F00003F80007FC0035
:100560000208003E4F807EAFC0FC47E04000405C88
:10057000E74054E5405CE74040E04043F8407C07FA
:10058000C007FC001009AAA800008D880D808F8884
:100590000D808D880000AAA80606E0E05CF0E0A0CF
:1005A000080B0000000000000000001C2A080B00DF
:1005B000000000000000001C3E3E080B0000000090
:1005C0000000003E7F7F7F080B00000000003E7FA0
:1005D0007F7F7F1C080B0000003E7F7F7F7F1C1CFD
:1005E0003E080B003E7F7F7F7F1C08081C3E080BE7
:1005F0003E7F7F7F7F00000000081C080B1C3E7FB1
:100600007F36000000000008080B001C3E3600008A
:100610000000000000080B00081C000000000000A3
:100620000000080B000008000000000000000008A7
:100630000B0000000000000000000000080800009F
:10064000000000081C000808000000000822140038
:100650000808000000002208440010071C003E00AB
:100660003E00FF80BE801C0022000F071C003E00E1
:100670003600F380BE801C0022000F071C00220001
:100680002200F780BE801C0022001009007803F8C9
:1006900007FE03FC07F80DC0580078003000100971
:1006A000007802F805F203FC07F80DC05800680056
:1006B0003000100E8000C000C000E0007000180084
:1006C0000E000F000F80FFE07FF037D81BC001C085
:1006D000100E8000C000C000A000700018000E00C6
:1006E0000F000F80FE607E70274813C001C0100607
:1006F0008040C1F0FFF847FC03FE01FE1006804079
:10070000C1F0BFE847E4033A01FE08050050A850D5
:10071000000F03007003801C000F030000FFFE00A9
:10072000000F031C00038000700F03010003800111
:10073000002804DBFFC5FFE0FA0049002072004DED
:10074000002023FFC9FFE003053F213F1208120AE2
:10075000100A0E1C0E0C1E0C141A14161F161E1353
:100760001E1E1B1E1E1F1E3F213F3A2F3A173D170C
:100770003F213F181F02040A041F0E04040E1F0A23
:100780001F0A0E0E1F04110E2E252E2F2A2E26298B
:1007900029021F02081F08150E04040E150E151558
:1007A0001B151B040604040C0400000000170003C2
:1007B00000031F0A1F16371A1904130A153A0003FB
:1007C00000000E11110E000A040A040E040030008D
:1007D0000404040010001804031F111F121F101D31
:1007E000151711151F07041F17151D1F151D0101D2
:1007F0001F1F151F17151F000A00003200040A11E1
:100800000A0A0A110A040115020E11171E051E1FFD
:10081000150A0E110A1F110E1F15111F05010E11C9
:100820001D1F041F111F1108100F1F041B1F101084
:100830001F061F1E040F0E110E1F09060E112E1F7C
:10084000051A121509011F011F101F0F180F1F0C89
:100850001F1B041B031C03191513001F110304188D
:10086000111F000201022020200001020C121E1F95
:10087000120C0C12120C121F0C1A14041E05242A3E
:100880001E1F021C141D1020201D1F0814111F10F4
:100890001E041E1E021C0C120C3E0A040C123E1EEC
:1008A000040214160A020F120E101E0E100E1E085D
:1008B0001E120C1226281E322A26041E21001F009A
:1008C000211E040102013F213F0A0A153A49676EC1
:1008D0006F7265006D560A0A504C454153452054CD
:1008E00055524E204F464620004C4F57204241540F
:1008F0005445525921200005008930080238024928
:100900007868140000F6E8DBCFC3B8AEA49B928AE7
:10091000827B746E68625C57524E4945413E3A375D
:1009200034312E2C29272523211F1D1C1A19171697
:100930001514131211100F0E0D0C0B0A09080706DF
:10094000480944090101FF030101F7030000000801
:100950000002010000030407000000000000000086
:100960000102040810204080010204081020010246
:100970000408102004040404040404040202020213
:100980000202030303030303000000002300260008
:10099000290000000000250028002B0000000000B6
:1009A000240027002A00791C11241FBECFEFD8E0B5
:1009B000DEBFCDBF11E0A0E0B1E0E8EFFFE502C08F
:1009C00005900D92A23DB107D9F727E0A2EDB1E065
:1009D00001C01D92AC3AB207E1F719E0C8EAD9E0CC
:1009E00004C02297FE010E94DC2FC63AD107C9F746
:1009F0000E948A2C0C94FA2F0C940000CF93DF9362
:100A0000CEEFDFE385E195E00E942D268823D1F328
:100A10006CE371E083E695E00E94192D63E571E0D7
:100A200083E695E00E94192D61E671E083E695E08A
:100A30000E94192D64E08FE195E00E94AC1D88238F
:100A4000C1F083E695E00E94481E61E771E083E60D
:100A500095E00E94192D60E871E083E695E00E9420
:100A6000192D83E695E00E94591E8CE891E0FE0165
:100A7000099565E08FE195E00E94AC1D811108C0E9
:100A800066E08FE195E00E94AC1D882309F4BACF9F
:100A9000DF91CF91089566E08FE195E00E94AC1D53
:100AA000882319F081E08093DC0165E08FE195E017
:100AB0000E94AC1D882361F080911405882329F0E1
:100AC000813031F41092140503C081E08093140545
:100AD00040E064E08FE195E00E94B51D90910B0528
:100AE000882339F0911105C080910A05883009F4F6
:100AF0000EC110920C05911109C180910F05882338
:100B000009F414C140E062E08FE195E00E94B51D58
:100B1000882341F0809109058330D4F48F5F80935E
:100B2000090516C040E060E08FE195E00E94B51D28
:100B300090910905882319F09E3F54F002C01916C0
:100B400014F4915003C0992319F09F5F9093090505
:100B500040E063E08FE195E00E94B51D882341F0FD
:100B6000809108058330D4F48F5F8093080516C008
:100B700040E061E08FE195E00E94B51D909108058D
:100B8000882319F09E3F54F002C0191614F49150B6
:100B900003C0992319F09F5F9093080520910905E0
:100BA0001216A4F4809103059091040560E03327A8
:100BB00027FD3095462F50E042175307BCF4863787
:100BC00042E094070CF401966F5FF4CF2223A1F06A
:100BD000809103059091040560E0332721950CF482
:100BE0003095462F50E0421753079CF09093040530
:100BF000809303056093E101209108051216DCF44F
:100C0000809105059091060560E0332727FD30951A
:100C10000CC0181619060CF401976F5FE2CF8637E7
:100C200042E094070CF401966F5F462F50E04217A4
:100C30005307ACF310C02223A1F0809105059091D9
:100C4000060560E0332721950CF43095462F50E0DF
:100C5000421753077CF06093E1019093060580935F
:100C6000050540E064E08FE195E00E94B51D81112B
:100C700007C051C08E3091050CF001976F5FE6CF31
:100C800080910B05811147C080910A05883009F0D9
:100C900042C081E080930C0580911405811146C00B
:100CA0008091090518163CF490910805911117C020
:100CB0001092070519C0811108C080910805181607
:100CC000ACF482E08093070511C087FF15C08091C6
:100CD000080518161CF593E09093070523C0191614
:100CE0001CF491E090930705811106C080910805DE
:100CF00087FF1CC086E007C01816C4F48091080561
:100D000087FF14C087E0809307050895089581E068
:100D100080930C05F2CE10920C05BECF811102C05B
:100D200084E0F1CF87FF02C085E0EDCF08958CE32A
:100D300092E0909304058093030581E592E09093FF
:100D400006058093050510920A051092070510927A
:100D500009051092080581E080930B05109210059B
:100D600094E190930F0580930D0510920E0510925B
:100D70000C0510921105109212051092140580E0D6
:100D800097E0989FF0011124EE51FE4F12821182DC
:100D900014821382158216828F5F8A3090F38093BB
:100DA000E1010895EF92FF921F93CF93DF9310928A
:100DB000D9011092DB011092DA0185E08093D40111
:100DC00089E08093D20185E18093D301A7E3B0E06D
:100DD000B0933C04A0933B0488E290E090933E04DF
:100DE00080933D0411E010933F048EE490E09093D3
:100DF00041048093400485E290E090934304809303
:100E0000420410934404E8E4F0E0F0934604E093D5
:100E100045042AE330E030934804209347041093BC
:100E2000490484E390E090934B0480934A044CE59A
:100E300050E050934D0440934C0410934E0469E6E7
:100E400070E07093500460934F048CE690E09093B0
:100E50005204809351041093530483E190E09093E3
:100E600055048093540480E190E09093570480935C
:100E700056041092580489E590E090935A048093A8
:100E8000590487E190E090935C0480935B04109296
:100E90005D04C4E0D0E0D0935F04C0935E04CFE66D
:100EA000D0E0D0936104C093600410926204C5E066
:100EB000D0E0D0936404C0936304F0936604E0939D
:100EC0006504D2E0D093670470936904609368046A
:100ED00060E470E070936B0460936A04D0936C04D8
:100EE00061E370E070936E0460936D046BE070E0FA
:100EF0007093700460936F04C3E0C0937104E2E0E8
:100F0000F0E0F0937304E0937204E1E2F0E0F09318
:100F10007504E0937404C09376040F2EF7E6EF2E69
:100F2000F12CF02DF0927804E09277040F2EF7E286
:100F3000EF2EF12CF02DF0927A04E0927904C09318
:100F40007B040F2EF2E2EF2EF12CF02DF0927D04B7
:100F5000E0927C04B0937F04A0937E04C09380044D
:100F6000ABE4B0E0B0938204A0938104A2E5B0E0CA
:100F7000B0938404A0938304C0938504AAE1B0E0F5
:100F8000B0938704A0938604AFE5B0E0B0938904E2
:100F9000A0938804C0938A04A3E0B0E0B0938C04CB
:100FA000A0938B04A9E0B0E0B0938E04A0938D04CD
:100FB000A4E0A0938F04F0939104E0939004EDE1FA
:100FC000F0E0F0939304E0939204A0939404709360
:100FD00096046093950463E370E0709398046093C3
:100FE0009704A093990467E372E070939B04609365
:100FF0009A046EE472E070939D0460939C04FDE09B
:10100000F0939E04E7E0E0939F0461E171E0709348
:10101000A2046093A1045093A4044093A304F0930A
:10102000A504E093A60449E352E05093A904409339
:10103000A8044FE150E05093AB044093AA04F0930E
:10104000AC04E093AD045093B0044093AF0448E582
:1010500051E05093B2044093B104F093B304E09391
:10106000B4043093B7042093B60428E532E03093FB
:10107000B9042093B804F093BA04E093BB0425E3C9
:1010800032E03093BE042093BD042BE332E0309372
:10109000C0042093BF0423E12093C1042FE02093D8
:1010A000C2041093C30420E232E03093C5042093BD
:1010B000C40423E532E03093C7042093C60450E211
:1010C0005093C8044DE14093C904D093CA0428E169
:1010D00032E03093CC042093CB0422E130E0309313
:1010E000CE042093CD045093CF044093D004D093EA
:1010F000D1049093D3048093D20488E492E0909337
:10110000D5048093D4045093D6044093D704D0934D
:10111000D80489E492E09093DA048093D90485E5B9
:1011200092E09093DC048093DB0439E13093DD049A
:101130002AE12093DE04C093DF0484E291E09093DF
:10114000E1048093E00485E590E09093E3048093CC
:10115000E2043093E4042093E504C093E6048FE2B4
:1011600090E09093E8048093E70480E591E0909309
:10117000EA048093E9043093EB042093EC04C093D9
:10118000ED0489EA90E09093EF048093EE0481ED02
:1011900091E09093F1048093F00444E24093F204D0
:1011A00038E13093F30428E02093F40483E990E0DD
:1011B0009093F6048093F50483ED90E09093F80407
:1011C0008093F7044093F9043093FA042093FB04CE
:1011D0008AE891E09093FD048093FC0483E591E01C
:1011E0009093FF048093FE04409300053093010523
:1011F000209302058BE891E09093EB038093EA0340
:1012000081E492E09093ED038093EC0384E290E01C
:101210009093F4038093F30381E590E09093F603B9
:101220008093F50387E192E09093FD038093FC03A4
:101230008BE590E09093FF038093FE038AE790E0B4
:10124000909306048093050488E090E0909308044E
:101250008093070484E791E090930F0480930E0439
:1012600027E030E030931104209310049093180489
:101270008093170425E830E030931A042093190472
:1012800027EF30E0309321042093200421E031E067
:10129000309323042093220490932A0480932904FA
:1012A0008EE791E090932C0480932B048BE790E0E1
:1012B00090933304809332048BEF91E09093350444
:1012C0008093340480E099E020E136E146E054E187
:1012D00068E479E2B0E5893098F4989FF001112430
:1012E000E651FC4F1086833028F464837583A6830F
:1012F000B78304C024833583468357838F5FEBCF46
:1013000083E090E0909319038093180380E190E0CC
:1013100090931B0380931A038BE290E09093230336
:101320008093220382E090E090932503809324032E
:101330008BE390E090932D0380932C0383E390E064
:1013400090932F0380932E0389E490E090933703CA
:101350008093360383E290E09093390380933803BF
:1013600081EB90E0909341038093400381E690E00D
:10137000909343038093420386E991E090934B035B
:1013800080934A0386E590E090934D0380934C034D
:1013900087EA91E0909355038093540386E490E0AC
:1013A00090935703809356038FEC91E090935F03E3
:1013B00080935E038BE690E09093610380936003DB
:1013C00083EB91E0909369038093680381EE90E052
:1013D00090936B0380936A0384E890E09093730387
:1013E0008093720387E191E0909375038093740377
:1013F00080E191E090937D0380937C0380E691E00F
:1014000090937F0380937E038AE391E09093870318
:101410008093860385E491E0909389038093880309
:101420008FE491E090939103809390038AE691E09A
:10143000909393038093920381E190E090939B03B8
:1014400080939A0381EB91E090939D0380939C039A
:101450008EE790E09093A5038093A40385E891E044
:101460009093A7038093A60382E690E09093AF0346
:101470008093AE0385EC91E09093B1038093B00329
:1014800084E090E09093B9038093B80383E092E006
:101490009093BB038093BA0384E290E09093C303DC
:1014A0008093C2038EE090E09093C5038093C403C1
:1014B0008EE290E09093CD038093CC038EEC91E08C
:1014C0009093CF038093CE038AE291E09093D70369
:1014D0008093D60381E591E09093D9038093D8035C
:1014E00086EA91E09093E1038093E00385E590E044
:1014F0009093E3038093E20380E09AE020E245E0EA
:1015000050E537E064E18531A0F4989FF0011124A3
:10151000E85EFC4F10861186813128F43483958370
:101520003683678304C024832583468357838F5F74
:10153000EACF8AE990E090932902809328028CE117
:1015400090E090932B0280932A0283E890E090939E
:1015500035028093340281E390E0909337028093C8
:10156000360283E080933F0285E790E0909341024A
:10157000809340028FE490E0909343028093420274
:1015800021E020934B0281E490E090934D02809300
:101590004C0288E790E090934F0280934E02209394
:1015A000570285E991E0909359028093580220E216
:1015B00030E030935B0220935A0224E020936302D0
:1015C0002AE432E0309365022093640226E430E09E
:1015D000309367022093660242E040936F0229E055
:1015E00032E0309371022093700224E630E03093B1
:1015F00073022093720240937B022EE432E0309318
:101600007D0220937C0228E830E030937F02209313
:101610007E02409387022BE531E0309389022093CC
:10162000880220E830E030938B0220938A0245E064
:101630004093930226E931E030939502209394027F
:101640002BE930E0309397022093960240939F025B
:1016500022EE30E03093A1022093A0022CEF30E084
:101660003093A3022093A20246E04093AB0227E10D
:1016700031E03093AD022093AC0228E131E03093A9
:10168000AF022093AE024093B70224E931E03093D9
:10169000B9022093B8029093BB028093BA0287E00C
:1016A0008093C30285E690E09093C5028093C402C4
:1016B00086E192E09093C7028093C60228E02093CF
:1016C000CF0281E990E09093D1028093D00285E52A
:1016D00092E09093D3028093D2022093DB0284E2C3
:1016E00090E09093DD028093DC028FE290E0909393
:1016F000DF028093DE0284E590E09093E90280931C
:10170000E8028FED91E09093EB028093EA028CE285
:1017100091E09093F5028093F40285E791E0909335
:10172000F7028093F6028EEC91E090930103809390
:10173000000384E490E0909303038093020383EB1F
:1017400091E090930D0380930C038BED91E09093C7
:101750000F0380930E0381E18093330280E02CE03D
:1017600034E040E15EE061E07EE196E0A5E08431B6
:10177000A8F4289FF0011124E85DFD4F1086118622
:1017800032878F3028F4948395831682A78304C010
:1017900044835583668377838F5FE9CF8093E1012C
:1017A000DF91CF911F91FF90EF90089585E195E033
:1017B0000E94602781E08093DC011092DB0110928F
:1017C000DA011092DD0110922D050E94D2060C94D0
:1017D0009706282F30E06CE0869FF0011124E85D29
:1017E000FD4F8781882309F484C088E08093DE015F
:1017F0008081918140910305509104056481669533
:10180000DC01A60FB11DBA01665F7F4F6A177B0727
:101810003CF401979183808384E082878093DE018A
:101820008CE0829FF001839FF00D1124E85DFD4F55
:101830008081918164816695DC01A60FB11D4A50BB
:101840005109A417B50734F4019691838083128659
:101850001092DE018CE0829FF001839FF00D112435
:10186000E85DFD4F82819381409105055091060509
:1018700065816695DC01A60FB11DBA01685071093A
:10188000A617B7078CF40196938382838091DE01BB
:10189000843031F0883031F0811106C081E003C01E
:1018A00083E001C082E082878CE0829FF001839F09
:1018B000F00D1124E85DFD4F8281938125812695ED
:1018C000BC01620F711D485F5F4F461757078CF4CC
:1018D0000197938382838091DE01843031F08830D8
:1018E00031F0811106C087E003C085E001C086E0C9
:1018F000828708952F923F924F925F926F927F92CC
:101900008F929F92AF92BF92CF92DF92EF92FF920F
:101910000F931F93CF93DF93CDB7DEB72E970FB6FC
:10192000F894DEBF0FBECDBF10E047E05AE01A309A
:1019300008F099C0212F30E0429FF001439FF00D45
:101940001124EE51FE4F8681882309F48AC08581D7
:1019500090E08830910508F06AC0FC01EC5CFF4F14
:101960000C94DA2F429FF001439FF00D1124EE51A9
:10197000FE4F81819281029630C0429FF001439FC9
:10198000F00D1124EE51FE4F81819281019615C018
:10199000429FF001439FF00D1124EE51FE4F8381D1
:1019A0009481029642C0429FF001439FF00D1124A2
:1019B000EE51FE4F818192810197928381838381D1
:1019C0009481019632C0429FF001439FF00D112493
:1019D000EE51FE4F8181928102979283818327C0CD
:1019E000429FF001439FF00D1124EE51FE4F818183
:1019F0009281019715C0429FF001439FF00D112481
:101A0000EE51FE4F8381948102970FC0429FF001F7
:101A1000439FF00D1124EE51FE4F8181928101967A
:101A20009283818383819481019794838383429FEE
:101A3000F001439FF00D1124EE51FE4F86818F5F20
:101A400086838F3170F0A0815A9FD0011124A85E47
:101A5000BC4F19961C921282118214821382158235
:101A600016821F5F64CF0091D3018091030590918E
:101A70000405609005057090060520910A05B301E4
:101A8000621B7109E091D7015091D8014091D501B5
:101A90002091D601B090DF01A12CFAE09F2E88247E
:101AA0008394A01608F0DFC09A9C6001112496016F
:101AB000285E3C4F6901D90114962C911497269504
:101AC0004D915C911197420F511D1596EC91159710
:101AD000E69512962D913C9113972E0F311DFC0126
:101AE000E41BF50BE65BFF4FE539F10508F0B6C0E6
:101AF000F301E21BF30BE65BFF4FE539F10508F05C
:101B0000ADC07601B9E0EB0EF11CD6011996EC914F
:101B10001997E111A3C01796EC91EE2309F49EC02A
:101B2000E7EEF1E0A2EEB1E0BA87A987A8EEB1E056
:101B3000BC87AB87B12C2701D6011696BE83AD8337
:101B4000DA011596BE87AD871A01B5E02B1A310868
:101B5000790115E0E10EF11CD9011697B887AF8322
:101B60006901B5E0CB1AD108B2E0ED32FB0709F408
:101B700074C0AB85BC851C91111163C0B11061C0EC
:101B800014E1D2011C93AD81BE81BC90B6E0BB12C2
:101B900002C0D2019C92A985BA85AC9212965C9340
:101BA0004E93119714963C932E931397AB85BC8557
:101BB0008C921082AD85BE85A817B90724F4E6166D
:101BC000F7060CF48082821593055CF0AD85BE8526
:101BD000A817B9075CF02617370744F4B2E0B083C2
:101BE00005C0E616F70614F413E010838417950772
:101BF00044F46C157D052CF0E616F70614F0A4E00D
:101C0000A083821593052CF46C157D0574F4B5E062
:101C10000BC0AD85BE85A817B9073CF0AF81B8856C
:101C20006A177B0714F4B6E0B083AD85BE85A817AC
:101C3000B9072CF46C157D0514F4B7E0B083BB2410
:101C4000B3943796A985BA851796BA87A987AB85C5
:101C5000BC851796BC87AB8787CF1AE0A394E42F87
:101C6000422F232F1ECF30910A05B301631B710948
:101C70004B2C912C8824839434E0532EF3E1F915F6
:101C800008F4F5C0FCE0F99DF0011124E85DFD4F7A
:101C9000F887EF832481269540815181420F511DA1
:101CA000E581E695AF81B88512962D913C91139709
:101CB0002E0F311DFC01E41BF50BE65BFF4FE539F0
:101CC000F10508F0CFC0F301E21BF30BE65BFF4F19
:101CD000E539F10508F0C6C07D01B9E0EB0EF11C55
:101CE000AF81B8851996EC911997E111BBC0179691
:101CF000EC91EE2309F4B6C0E7EEF1E002EE11E05C
:101D00001A870987A8EEB1E0BC87AB87412C0F8109
:101D100018850A5F1F4F1C830B83FA82E9827A01C0
:101D200015E0E10EF11C1A01A5E02A1A310859014B
:101D3000B5E0AB0EB11C8901065011091E830D835D
:101D4000690115E0C11AD108AF81B8851A96B88724
:101D5000AF83B2E0ED32FB0709F483C0AB85BC85ED
:101D60001C91111171C041106DC0A985BA859C925A
:101D700012965C934E93119714963C932E9313975F
:101D8000AB85BC858C92AB81BC811C911123C1F0C9
:101D9000113009F057C008E2A981BA810C93AF81D4
:101DA000B8851C911083A985BA8513960D911C9155
:101DB00014970550110914961C930E93139742C063
:101DC00004E1A981BA810C931082E816F90624F483
:101DD000A616B7060CF48082821593054CF0E8161F
:101DE000F9065CF02617370744F412E0108305C0AB
:101DF000A616B70614F4A3E0A083841795073CF455
:101E00006C157D0524F0A616B7060CF050828215DD
:101E1000930534F46C157D056CF4B5E0B0830AC00D
:101E2000E816F9063CF00D811E816017710714F465
:101E300016E01083E816F9062CF46C157D0514F4F1
:101E4000A7E0A08344244394379609851A85095F47
:101E50001F4F1A870987AB85BC851796BC87AB8750
:101E600078CF1AE09394E42F422F232F07CF1093BB
:101E7000E001E093D7015093D8014093D50120931E
:101E8000D6014092DF019092E1012E960FB6F894B0
:101E9000DEBF0FBECDBFDF91CF911F910F91FF909D
:101EA000EF90DF90CF90BF90AF909F908F907F90FA
:101EB0006F905F904F903F902F900895EF92FF9218
:101EC0000F931F93CF93DF938091130581114CC023
:101ED0008091030590910405AC0143505109BC0168
:101EE0006D5F7F4F20910A05809105059091060551
:101EF000821B9109DC0115970196D0910F05F09096
:101F0000100500E010910B05C0E027E0E22ECA307A
:101F100008F5EC9EF0011124EE51FE4F2181328133
:101F200024173507ACF06217730794F023813481CE
:101F30002A173B076CF08217930754F0DD2311F04A
:101F4000D55021F4FF24F394D0E002C010E00CE05F
:101F5000CF5FDDCFD0930F05F092100500931305EE
:101F600010930B05C093E001DF91CF911F910F916A
:101F7000FF90EF9008951F93CF93DF9340E06CE0C4
:101F80007AE0DEE1C9E015E04F3008F074C0242F9C
:101F900030E0629FF001639FF00D1124E85DFD4F7A
:101FA000A385AA2309F465C08781811162C0808559
:101FB000883C09F05EC08681811128C0CA9FD0018B
:101FC0001124A651BC4F17968C9117978823F1F0D6
:101FD0001783108614965C91149756958D919C9159
:101FE000850F911D91838083A385CA9FD001112401
:101FF000A651BC4F15965C911597569512968D91EA
:102000009C911397850F911D93838283629FF001AA
:10201000639FF00D1124E85DFD4F8681813049F505
:10202000A3857A9FD0011124A85EBC4F17968C918E
:1020300017978823F1F0D783108614962C91149764
:1020400026958D919C91820F911D91838083A3850C
:102050007A9FD0011124A85EBC4F15962C9115973C
:1020600012968D919C911397820F911D05969383E3
:1020700082834F5F89CF4093E101DF91CF911F9120
:10208000089590910B0580911005992319F09130D6
:1020900059F011C090910A05983068F481110BC075
:1020A0009F5F90930A05089590910A05992319F06E
:1020B000915090930A05813099F420910A052223CA
:1020C00079F080910705992787FD9095019668E042
:1020D00070E00E94852F80930705215020930A0508
:1020E00008950F931F93CF93DF9380910C05813058
:1020F00009F013C180910705992787FD9095A92FB5
:10210000B92F8830910508F040C0FC01E45CFF4F16
:102110004091030550910405209105053091060575
:102120000C94DA2F405F5F4F15C0485F5F4F09C0C6
:102130005093D8014093D701285F3F4F22C04850A9
:1021400051095093D8014093D7012B5F3F4F19C0DD
:10215000405151095093D8014093D70112C04850C3
:10216000510909C05093D8014093D7012850310933
:1021700008C0485F5F4F5093D8014093D701255066
:1021800031093093D6012093D501C091D30120911C
:10219000D7013091D8014091D5015091D601A0913D
:1021A000D9018091DA019091DB01B0E0DAE0BC174F
:1021B00090F5DB9FF0011124E85EFC4F6081718196
:1021C0006217730734F51481610F711D26173707E5
:1021D00004F56281738164177507DCF41581610F62
:1021E000711D46175707ACF46781662391F0615063
:1021F000678361110EC0608561110BC0AF5F66819E
:10220000663029F0683029F486509F4F02C088510B
:102210009C4FBF5FCCCFA093D901B091D201A0E079
:10222000C9E0AB17A0F5CA9FF0011124E651FC4F9D
:10223000608171816217730744F5D4816D0F711D40
:102240002617370714F56281738164177507ECF45C
:10225000D5816D0F711D46175707BCF46781662342
:10226000A1F061506783611110C0608561110DC0DC
:102270006681673029F0693031F0643031F403C091
:10228000825A9E4F02C088539F4FAF5FCACFC0E0B3
:10229000DCE019E0C431D8F56C2F70E0D69FF00176
:1022A000D79FF00D1124E85DFD4FA081B181A217E9
:1022B000B3075CF50481A00FB11D2A173B072CF56D
:1022C000A281B381A417B50704F50581A00FB11D44
:1022D0004A175B07D4F4A781AA23B9F0A150A783BA
:1022E000A11113C0E085E11110C0169FF001179FE6
:1022F000F00D1124E651FC4F6681662329F0613010
:1023000021F48C599F4F01C0C296CF5FC3CF9093E9
:10231000DB018093DA01C093E101DF91CF911F913E
:102320000F91089580910A058823E1F080910E05B0
:1023300090E0019664E670E00E94852F80930E0580
:10234000892B39F480910D05882319F081508093F1
:102350000D0580910D05811105C081E08093100568
:1023600080930B0508958A3291054CF09C012A5206
:1023700031092332324010F0825208958AE20895E2
:10238000823291054CF09C012252310927343240AF
:1023900010F08654089582E208952091030530914B
:1023A00004052A32310564F0A9014A525109433229
:1023B000524020F4821B930B8A9602C082529240B4
:1023C0002DE730E0B9010E94852F83589F4FB90156
:1023D0000E94852F0895209105053091060522322F
:1023E000310564F0A901425251094734524020F4AA
:1023F000821B930B829602C0865492402DE730E0F8
:10240000B9010E94852F83589F4FB9010E94852FE3
:10241000089520910305309104052A32310564F0B6
:10242000A9014A5251094332524020F4821B930BB6
:102430008A96089582529240089520910505309120
:1024400006052232310564F0A90142525109473490
:10245000524020F4821B930B82960895865492403A
:10246000089580910D05882361F080910A058823E5
:1024700041F08091110590E0019683709927809337
:1024800011058091DD0190E0019662E370E00E9409
:10249000852F8093DD0180911005813059F4809162
:1024A0000A05811107C0809112058B3018F48F5FE7
:1024B0008093120580911305882319F08150809331
:1024C00013055091D30120E03AE02517F8F4822F4C
:1024D00090E0389FF001399FF00D1124E85EFC4F29
:1024E0004781411105C040854C3010F44F5F408753
:1024F000389FF001399FF00D1124E85EFC4F818573
:10250000882311F0815081872F5FDFCF2091D20186
:1025100080E039E0821778F4389FF0011124E65109
:10252000FC4F9781911105C090859C3010F49F5FFE
:1025300090878F5FEFCF20E03CE02431F8F4822FCA
:1025400090E0389FF001399FF00D1124E85DFD4FB8
:102550004781411105C04085493C10F44F5F4087D9
:10256000389FF001399FF00D1124E85DFD4F818502
:10257000882311F0815081872F5FDFCF2093E10105
:102580000895EF920F93CF938091030590910405E6
:102590000E94B311C82F282F30E03093D801209328
:1025A000D70180910505909106050E94C011282F42
:1025B00030E03093D6012093D5014EEF480F6EEFF7
:1025C0006C0F2AE037E083E695E00E943721809186
:1025D000130563E00E94652F911148C120911105F8
:1025E00088E0289F900111242F5E384F4091D5013B
:1025F00080910A05481B48506091D701675083E6D7
:1026000095E00E94372180910705992787FD9095D5
:10261000A92FB92F8830910508F028C1FC01EC5B87
:10262000FF4F60E083E695E00C94DA2F0E94A11E34
:102630004091D50180910A05481B46506091D70111
:102640006950E12C00E02EEE36E083E695E00E9432
:10265000692261E083E695E00E94A11E4091D501C8
:1026600080910A05481B46506091D70169508DC082
:102670000E94A11E4091D50180910A05481B4D5032
:102680006091D7016750E12C00E022EB36E083E651
:1026900095E00E94692261E083E695E00E94A11E18
:1026A0004091D50180910A05481B4D506091D7019A
:1026B000675046C00E94A11E4091D50180910A0535
:1026C000481B46506091D7016450E12C00E02AE598
:1026D00036E083E695E00E94692261E083E695E0BA
:1026E0000E94A11E4091D50180910A05481B4650C9
:1026F0006091D70164502AE736E0B4C00E94A11E61
:102700004091D50180910A05481B4D506091D70139
:102710006950EE24E39400E022EB36E083E695E096
:102720000E94692261E083E695E00E94A11E40912B
:10273000D50180910A05481B4D506091D701695021
:1027400020ED36E08FC00E94A11E4091D5018091FE
:102750000A05481B46506091D7016750EE24E39468
:1027600000E02EEE36E083E695E00E94692261E00B
:1027700083E695E00E94A11E4091D50180910A0553
:10278000481B46506091D70167502CEF36E06AC075
:102790000E94A11E4091D50180910A05481B465018
:1027A0006091D7016750EE24E39400E02AE836E018
:1027B00083E695E00E94692261E083E695E00E944D
:1027C000A11E4091D50180910A05481B4650609199
:1027D000D701675045C00E94A11E4091D50180914C
:1027E0000A05481B46506091D7016450E12C00E077
:1027F0002AE536E083E695E00E94692261E083E6FF
:1028000095E00E94A11E4091D50180910A05481BC8
:1028100046506091D70164502AE636E023C00E94FA
:10282000A11E4091D50180910A05481B4650609138
:10283000D7016950E12C00E02AE836E083E695E014
:102840000E94692261E083E695E00E94A11E40910A
:10285000D50180910A05481B46506091D701695007
:102860002EE936E083E695E00E946922CF910F9130
:10287000EF9008950F9360E083E695E00E94A11E1B
:1028800005E024E540E060E083E695E00E94171F44
:1028900061E083E695E00E94A11E9091D9018091AC
:1028A000D30198130BC08091DD018F3038F48091F3
:1028B0000A05882319F06FE871E05FC021E337E073
:1028C00041E06AE283E695E00E9437218091140599
:1028D0008823C9F0813039F54AE050E06091D90190
:1028E00083E695E00E94E32D65EA71E083E695E0DA
:1028F0000E94FC2C4AE050E06091D30183E695E011
:102900000E94E32D10C063EA71E083E695E00E9427
:10291000FC2C6091DA017091DB014AE050E083E623
:1029200095E00E94CE2D80910F0565E00E94652FF5
:1029300002E0282F42E061E383E695E00E94171F42
:1029400020910D058BEA289F212D1124269542E028
:1029500062E483E695E00E94171F8FE480936C0584
:1029600010926D0580911405882329F0813051F46F
:102970006BEA71E002C067EA71E083E695E00F91CF
:102980000C94FC2C0F9108950F931F93CF93DF931A
:102990001092E10105E0C091E101C33160F50C9FA7
:1029A000E0011124C55CDB4F888199810E94CD1123
:1029B000182F8093D7019093D8018A819B810E9420
:1029C000EB118093D5019093D601EC81F0E0EE0FEE
:1029D000FF1FE25DFE4F208131814CEE480F6CEE0F
:1029E000610F83E695E00E9437218091E1018F5FBE
:1029F0008093E101D0CFDF91CF911F910F91089586
:102A0000FF920F931F93CF93DF931092E10157E052
:102A1000F52EC091E101CF3008F040C0FC9EE001EE
:102A20001124C656DB4F888199810E9409128C01BE
:102A30009093D8018093D7018A819B810E941D12B7
:102A40009093D6018093D501043511050CF52C81A6
:102A500030E031952195310920173107CCF48033CE
:102A60009105B4F42D8130E0319521953109281775
:102A7000390774F4EE81F0E0EE0FFF1FEE5EFE4FBB
:102A800020813181482F602F83E695E00E94372115
:102A90008091E1018F5F8093E101BBCFDF91CF9106
:102AA0001F910F91FF900895DF92EF92FF920F9385
:102AB0001F93CF93DF931092E101E9E0DE2EE090C7
:102AC000E1018091D201E81608F057C0F12CDE9C9C
:102AD000E001DF9CD00D1124C651DC4F8881998123
:102AE0000E9409128C019093D8018093D7018A81AA
:102AF0009B810E941D129093D6018093D5010435CD
:102B00001105ACF52C8130E0319521953109201764
:102B100031076CF58033910554F52D8130E0319506
:102B2000219531092817390714F52F8121110AC081
:102B30002885263038F0EE81F0E0EE0FFF1FE65FCB
:102B4000FE4F0DC0DE9CF001DF9CF00D1124E6511C
:102B5000FC4FE681F0E0EE0FFF1FEE5EFE4F20819E
:102B60003181482F602F83E695E00E9437218091C4
:102B7000E1018F5F8093E101A2CFDF91CF911F919F
:102B80000F91FF90EF90DF900895DF92EF92FF9208
:102B90000F931F93CF93DF931092E101CAE0DC2ED5
:102BA000E090E1018091D301E81608F057C0F12CC4
:102BB000DE9CE001DF9CD00D1124C85EDC4F8881D3
:102BC00099810E9409128C019093D8018093D701BA
:102BD0008A819B810E941D129093D6018093D5011A
:102BE00004351105ACF52C8130E031952195310982
:102BF000201731076CF58033910554F52D8130E0B5
:102C00003195219531092817390714F52F812111A4
:102C10000AC02885263038F0EE81F0E0EE0FFF1F65
:102C2000E65FFE4F0DC0DE9CF001DF9CF00D11242D
:102C3000E85EFC4FE681F0E0EE0FFF1FEE5EFE4F18
:102C400020813181482F602F83E695E00E94372153
:102C50008091E1018F5F8093E101A2CFDF91CF915D
:102C60001F910F91FF90EF90DF900895CF92DF9228
:102C7000EF92FF920F931F93CF93DF931092E10196
:102C8000DCE0FD2ECCEEDFEFE090E101F3E1FE159C
:102C900008F4CAC02E2D30E0F29EF001F39EF00D34
:102CA0001124E85DFD4F878181110AC0808588303D
:102CB00038F0883108F0B2C08370823009F0AEC0BD
:102CC000F29E8001F39E100D1124085D1D4FF80146
:102CD000808191810E9409126C019093D8018093A8
:102CE000D701F801828193810E941D129093D60131
:102CF0008093D501F8E6CF16D104ACF4F801248115
:102D0000AE01421B51094C155D056CF484349105EC
:102D100054F42581FE01E21BF109E817F9071CF4C0
:102D20008E2D0E94E90B6091D7017091D801643516
:102D300071050CF073C0E091E101FE9EF0011124D9
:102D4000E85DFD4F848190E091958195910986170A
:102D500097070CF063C04091D5015091D6014033E4
:102D600051050CF05BC0858190E0919581959109AA
:102D7000841795070CF052C08681811113C087819A
:102D8000882359F082858250843020F4EE24E39425
:102D900000E005C028E935E03DC0E12C01E028E96C
:102DA00035E020C0828590E088309105B8F5FC01BF
:102DB000E45BFF4F0C94DA2F209124013091250120
:102DC00029C0209126013091270124C0209128019B
:102DD000309129011FC02091260130912701EE2456
:102DE000E39400E083E695E00E94692217C02091F9
:102DF000240130912501F3CF20912C0130912D0138
:102E0000EECF20912A0130912B0104C020912C019A
:102E100030912D0183E695E00E9437218091E101F8
:102E20008F5F8093E10130CFDF91CF911F910F91A0
:102E3000FF90EF90DF90CF9008950F9380910F0552
:102E400081112BC0809112058B3039F560E083E64B
:102E500095E00E94A11E07E026E242E168E183E6D8
:102E600095E00E94171F61E083E695E00E94A11E95
:102E700009E028E241E167E183E695E00E94EF1E68
:102E800089E180936C0583E180936D056FEA71E0C1
:102E900083E695E00F910C94FC2C0F9108950F930D
:102EA00060E083E695E00E94A11E0FE02CE444E080
:102EB00064E083E695E00E94171F61E083E695E0F9
:102EC0000E94A11E01E12AE443E063E083E695E06D
:102ED0000E94EF1E89E080936C0585E080936D056C
:102EE00069EB71E083E695E00E94FC2C8091DA01A9
:102EF0009091DB018A30910514F488E208C0843691
:102F0000910514F1883E23E09207BCF48FE1809391
:102F10006C058CE080936D0563EA71E083E695E0D3
:102F20000E94FC2C6091DA017091DB014AE050E0D4
:102F300083E695E00F910C94CE2D8031974214F4E6
:102F40008BE1E5CF87E1E3CF83E2E1CF1F93CF931E
:102F5000DF9380910805882331F080910B05813043
:102F600009F008C152C0809109058111F6CF809106
:102F70000B058111F2CFC091D4018091030590918E
:102F80000405209105053091060570910F05A0916B
:102F90000D05B0E060E0D7E06C1790F5D69FF0012A
:102FA0001124E656FB4F408151814817590734F5EB
:102FB0001481410F511D8417950704F542815381F7
:102FC00042175307DCF4E5814E0F511D24173507D6
:102FD000ACF4623069F028F4662341F0613061F0AE
:102FE0000DC0633049F0643019F008C0713310F03F
:102FF000AD3120F4B1E002C07133E0F36F5FCCCFAC
:10300000B0930B056093E101A8CF80910A0581116F
:10301000B1C01092E101C7E04091E1018091D4017B
:10302000481708F0A7C08091030590910405C49F3C
:10303000F0011124E656FB4F208131812817390712
:103040000CF092C05481250F311D821793070CF0AC
:103050008BC0809105059091060522813381281748
:1030600039070CF081C05581250F311D8217930758
:103070000CF07AC0423009F457C028F4442349F0D8
:103080004130D1F171C04330B9F1443009F44CC042
:103090006BC09091D9018091D301981303C00E9415
:1030A0004F1762C090910F0580910D05923329F45E
:1030B0008E3141F410920B0557C0923318F49F5F84
:1030C00090930F058E3118F48F5F80930D058091DA
:1030D0000F05823309F048C080910D058E3109F04B
:1030E00043C08091DA019091DB01883E23E0920792
:1030F00084F18052934034C080910F058233D1F225
:10310000823318F48F5F80930F0580910F0582330F
:1031100059F58091DA019091DB018E3E22E0920711
:10312000C4F08E5E92401CC080910D058E3111F26C
:103130008E3118F48F5F80930D0580910D058E31CF
:1031400099F48091DA019091DB018E3E22E09207A2
:103150002CF41092DB011092DA0106C08659910915
:103160009093DB018093DA018091E1018F5F80937E
:10317000E10152CFDF91CF911F9108950F938823E2
:1031800031F0813061F400E020E04AE003C000E06B
:1031900020E043E060E08AE395E00E942D2800E013
:1031A00020E041E061E08AE395E00E942D2829EFCC
:1031B00040E062E08AE395E00E942D2828EF40E09D
:1031C00063E08AE395E00E942D2820E043E061E17E
:1031D0008AE395E00F910C945E28EF920F93CF93C2
:1031E00080910C05813009F04AC180E00E94BE1830
:1031F00080910305909104050E94B311C82F482FB8
:1032000050E05093D8014093D701809105059091EB
:1032100006050E94C011E82FF0E0F093D601E0937C
:10322000D50140910705552747FD5095652F752F0E
:103230004830510508F023C1FA01EC5AFF4F909134
:10324000DD0193700C94DA2F91110DC020E12C0F49
:1032500090910A05482F491B66E06C0F082F83E602
:1032600095E00E94401F2091DD018BEA289F812D6F
:1032700011248695982F990F980F291B8AE0289F73
:1032800090011124245C394F4091D5014450609144
:10329000D701645FEDC091110FC005E0080F28E071
:1032A0002C0F90910A05482F491B4F5F63E06C0F6C
:1032B00083E695E00E94401F8091DD0163E00E945B
:1032C000652F8AE0989F90011124245C394F40912A
:1032D000D5014F5FCAC091110CC008E0080F909152
:1032E0000A05482F491B2C2F6C2F83E695E00E947E
:1032F000401F8091DD0163E00E94652F8AE0989F66
:1033000090011124245C394F4091D5014C5F6091AC
:10331000D7016450ADC091110FC005E0080F28EF30
:103320002C0F90910A05482F491B4F5F6DEF6C0FD2
:1033300083E695E00E94401F8091DD0163E00E94DA
:10334000652F8AE0989F90011124245C394F4091A9
:10335000D5014F5F40C091110DC020EF2C0F90910F
:103360000A05482F491B6AEF6C0F082F83E695E08A
:103370000E94401F8091DD0163E00E94652F8AE07A
:10338000989F90011124245C394F4091D5014450FD
:103390006091D701645142C091110FC00BEF080F2B
:1033A00028EF2C0F90910A05482F491B42506BEFD4
:1033B0006C0F83E695E00E94401F8091DD0163E081
:1033C0000E94652F8AE0989F90011124245C394F58
:1033D0004091D50149506091D7016C501FC09111A7
:1033E0000CC008EF080F90910A05482F491B2C2F9D
:1033F0006C2F83E695E00E94401F8091DD0163E021
:103400000E94652F8AE0989F90011124245C394F17
:103410004091D5014C506091D7016450EE24E39463
:1034200000E083E695E00E94692229C091110FC057
:103430000BEF080F28E02C0F90910A05482F491B2D
:10344000425065E06C0F83E695E00E94401F80913A
:10345000DD0163E00E94652F8AE0989F90011124AE
:10346000245C394F4091D50149506091D7016C5F80
:1034700083E695E0CF910F91EF900C943721CF9197
:103480000F91EF900895EF92FF920F931F93CF93B8
:10349000DF931092E10117E0E091E101EA3008F0DA
:1034A0003FC01E9FF0011124EE51FE4F86818823FC
:1034B00089F1813019F480E00E94BE18C091E101C9
:1034C0001C9FE0011124CE51DE4F89819A810E9418
:1034D00009127C019093D8018093D7018B819C8144
:1034E0000E941D129093D6018093D501970121501F
:1034F00031092335310570F49C01215031092F32F7
:10350000310540F402E022E0482F6E2D83E695E07D
:103510000E94171F8091E1018F5F8093E101BCCF72
:10352000DF91CF911F910F91FF90EF900895CF926F
:10353000DF92EF92FF920F931F93CF93DF931F922F
:10354000CDB7DEB7809110058130A1F580910A05D5
:10355000811130C0809112058B3060F581E00E94AE
:10356000BE1880910305909104050E94B311082FA5
:1035700010E0025011091093D8010093D7018091F7
:103580000505909106050E94C011482F50E04A5051
:1035900051095093D6014093D501209112058DE039
:1035A000289F9001112420563A4F602F83E695E022
:1035B0000E9437219091D3018091D201891718F48C
:1035C0009093DF0102C08093DF018091DF0184319D
:1035D00018F484E18093DF011092E1010AE01DE01C
:1035E00089E0F82E9CE0E92EE091E1018091DF0175
:1035F000E81708F03DC18091D3018E1708F474C01C
:103600000E9FF0011124E85EFC4F878181116CC090
:1036100080858C3008F068C081E00E94BE188091DF
:10362000E101089F60011124F601E85EFC4F6F0183
:10363000808191810E940912682F8093D701909315
:10364000D801F6018281938169830E941D12AC0129
:10365000435051095093D6014093D501F60186811C
:1036600069818430B1F52085129F90011124205684
:103670003A4F6B5F83E695E00E943721E091E101CC
:103680000E9FF0011124E85EFC4F2085129F9001EF
:10369000112420563A4F4091D5014B5F6091D701DC
:1036A0006C5E83E695E00E943721E091E1010E9F78
:1036B000F0011124E85EFC4F2085129F9001112437
:1036C00020563A4F4091D501415F6091D701685F24
:1036D00007C0F6012085129F9001112420563A4F11
:1036E00083E695E00E943721E091E1018091D201CB
:1036F0008E1708F477C0FE9EF0011124E651FC4FAE
:10370000878181116FC080858C3008F06BC081E0AB
:103710000E94BE188091E101F89E60011124C6014B
:1037200086519C4F6C01FC01808191810E9409129D
:10373000682F8093D7019093D801F60182819381FD
:1037400069830E941D12AC01435051095093D60168
:103750004093D501F601868169818430B9F52085D1
:10376000129F9001112420563A4F4D5F665F83E609
:1037700095E00E943721E091E101FE9EF0011124C5
:10378000E651FC4F2085129F9001112420563A4F9C
:103790004091D5014C5F6091D701675D83E695E06C
:1037A0000E943721E091E101FE9EF0011124E651D3
:1037B000FC4F2085129F9001112420563A4F4091D2
:1037C000D501485E6091D7016A5D08C0F601208589
:1037D000129F9001112420563A4F6D5F83E695E0C9
:1037E0000E9437218091E1018531E0F5E89E60017A
:1037F0001124C601885D9D4F6C01FC0187818111F8
:1038000031C080858C3070F5808191810E940912D1
:1038100005969093D8018093D701F6018281938118
:103820000E941D1203979093D6018093D501F60153
:1038300086818130B9F40E94BE18E091E101EE9ECC
:10384000F0011124E85DFD4F2085129F90011124A5
:1038500020563A4F4091D5016091D70183E695E01B
:103860000E9437218091E1018F5F8093E101BCCEFE
:103870000F90DF91CF911F910F91FF90EF90DF900C
:10388000CF90089585E195E00E942D26882381F14F
:1038900066E08FE195E00E94AC1D81110E94FE045C
:1038A0000E9400150E9454150E94C5150E943616EC
:1038B0000E94C4140E94ED180E94431A0E943A14F8
:1038C0000E94C1120E94971A0E941D170E94A617FB
:1038D0000E944B050E9441100E9471100E945E0FD1
:1038E0000E9492110E947A0C0E9431120C94BB0F1C
:1038F000089510926605109265058EEC91E0909304
:103900006405809363050895CF93CFB7F8948091B1
:103910009C05811127C0EEE7F9E08491EAE6F9E021
:103920009491E82FF0E0EE0FFF1FE456F64FA591BB
:10393000B4918C91892321F461E08AE00E942A2CC1
:1039400061E08AE00E94F12B8CB580618CBD8CB562
:1039500080648CBD61E08DE00E94F12B61E08BE022
:103960000E94F12B80919C058F5F80939C05CFBFB7
:10397000CF91089521E0FC012083089570E085E057
:103980000C94692BAF92BF92CF92DF92EF92FF928D
:103990000F931F93CF93DF93EC0189819A812FE0DE
:1039A000289F8001299F100D112485E10E944C2B36
:1039B000800F911F24E0969587952A95E1F79A83C9
:1039C00089832881222391F1AC81AD80B12CC12C57
:1039D000D12CE885F9857F0100E010E06E817F81C0
:1039E0009B0140E050E08617970728F0BC01E817DC
:1039F000F90708F4BF0180E090E01F921F921F9228
:103A0000AF930E94F02D6B830F900F900F900F904B
:103A100070E085E0DF91CF911F910F91FF90EF90C3
:103A2000DF90CF90BF90AF900C94692BDF91CF9136
:103A30001F910F91FF90EF90DF90CF90BF90AF90CC
:103A40000895FC018CE39FE09383828384E081836B
:103A500081E084870895CF93DF93EC018C819D8171
:103A6000892B81F18C858F7151F584E10E944C2B5B
:103A7000BC01882777FD8095982F0E94662E26EE40
:103A80003FE34EEC50E40E94F22E0E94382E9B0140
:103A90007B836A836115710581F084E08983FE016F
:103AA00040E0848195812817390710F449830AC0C2
:103AB0004F5F32964430A9F702C08FEF89838C851F
:103AC0008F5F8C87DF91CF910895FC0188E0808320
:103AD00089E0818387E0828386E0838384E0848336
:103AE00082E0858381E186830895DF92EF92FF92E1
:103AF0000F931F93CF93DF937C01EC0100E010E064
:103B0000DD24DA9462E088810E94F12B88810E9492
:103B1000602CF701E00FF11F892B21F487818F5F63
:103B2000878308C08781882349F08F3F11F417826B
:103B300001C0D78260E088810E94F12B0F5F1F4F88
:103B4000219607301105F1F6DF91CF911F910F916A
:103B5000FF90EF90DF900895FC01E60FF11D81E0EA
:103B60009781913009F080E00895262F30E0FC0124
:103B7000E20FF31F8781423028F481508E3F48F0D6
:103B800080E008958F3FE1F3642F0E94652F91300C
:103B9000B9F781E008958EBD00000DB407FEFDCF9A
:103BA0008EB50895DC01643508F053C0403308F049
:103BB00050C090968C919097342F359535953595CA
:103BC000E62FFF27E7FDF095242F2770823099F428
:103BD000DF01A356BA4F84E53802A00DB11D1124B0
:103BE0008C9190E0022E02C0959587950A94E2F799
:103BF0008095817009C0833039F446271C968C91DA
:103C0000482740FF03C014C0811112C084E5380268
:103C1000E00DF11D1124E356FA4F81E090E0022EF1
:103C200001C0880F0A94EAF780959081982310C00C
:103C300084E53802E00DF11D1124E356FA4F81E0CE
:103C400090E0022E01C0880F0A94EAF79081982B29
:103C5000908308951F93CF93DF93EC01162FF89470
:103C600060E08F850E942A2C888918161CF460E079
:103C70000E942A2C812F0E94CB1D888918161CF4C3
:103C800061E00E942A2C7894DF91CF911F910895D2
:103C900028EF31E0EDE9F5E0DF01A9011D92415087
:103CA0005040E1F7DC0119961C9219971A961C9264
:103CB0000895DF92EF92FF920F931F93CF93DF93BC
:103CC000EC018C858F5F8C878DE9E82E85E0F82EDE
:103CD000D12C6D2D6064CE010E942A1E60E8CE01B9
:103CE0000E942A1E61E08F850E942A2C888918165E
:103CF0001CF460E00E942A2C00E010E0F701E00FC5
:103D0000F11F80810E94CB1D0F5F1F4F04351105ED
:103D1000A9F7888918161CF461E00E942A2CD39414
:103D200084E5E80EF11C86E0D812D3CF60E4CE0122
:103D3000DF91CF911F910F91FF90EF90DF900C9446
:103D40002A1EFC0160A361A30895FC0160A341A3A6
:103D50000895CF92DF92FF920F931F93CF93DF933B
:103D60001F92CDB7DEB76C01062FF42E10E01217AC
:103D700054F4412F4F0D602FC60129830E94D21D9C
:103D80001F5F2981F4CF0F90DF91CF911F910F9189
:103D9000FF90DF90CF900895CF92DF92FF920F9324
:103DA0001F93CF93DF931F92CDB7DEB76C01062F21
:103DB000F42E10E0121754F4612F600F4F2DC6013E
:103DC00029830E94D21D1F5F2981F4CF0F90DF91BC
:103DD000CF911F910F91FF90DF90CF900895EF92B8
:103DE000FF920F931F93CF93DF93EC01F62E142FC6
:103DF000E22E0E94CC1E4FEF400F410F2E2D6F2D53
:103E0000CE010E94CC1E202F412F6F2DCE010E948B
:103E1000A91E6FEF6E0D6F0D202F412FCE01DF9188
:103E2000CF911F910F91FF90EF900C94A91EDF92FC
:103E3000EF92FF920F931F93CF93DF93EC01E62E47
:103E4000D22EF42E112707FD1095040F111D47FDEA
:103E50001A958F2D992787FD90958017910744F427
:103E60002D2D4F2D6E2DCE010E94CC1EF394F1CF3F
:103E7000DF91CF911F910F91FF90EF90DF90089508
:103E8000AF92BF92CF92DF92EF92FF920F931F9368
:103E9000CF93DF93EC01162FF42EE22EA02FBB2739
:103EA000A7FDB095A41BB10947FDB395B7FF03C0AB
:103EB000B195A195B109EE2DFF27E7FDF095E11B26
:103EC000F10917FDF395F7FF03C0F195E195F109AD
:103ED000BB24B394EA17FB0714F0B12C06C08E2D57
:103EE000E02E082F812F1F2DF82EE11634F48F2D90
:103EF000F02E082F812F1E2DE82ECE2CC11AE02F78
:103F0000FF27E7FDF095EF19F109F7FCF395F7FFAF
:103F100003C0F195E195F109AE2EDC2CC7FE03C07C
:103F2000DD24D394DC0CD594F01614F401E00FC01A
:103F30000FEF0DC0BB2071F0412F6F2DCE010E94FD
:103F4000D21DDA18D7FE02C0F00EDC0C1F5FE1169E
:103F50008CF703C04F2D612FF1CFDF91CF911F91CF
:103F60000F91FF90EF90DF90CF90BF90AF900895AA
:103F70008F929F92AF92BF92CF92DF92EF92FF9279
:103F80000F931F93CF93DF93EC01E62ED42E122FC5
:103F9000CC24C394C21AB22EB194BB0CF12C802F46
:103FA0008470A82E802F8270982E802F8870882E83
:103FB0000170F1160CF04DC0C7FC04C01150B39451
:103FC000B394CB0CF3948F2D880F8F5FC80EAA206B
:103FD00071F0412F4D0D6F2D6E0DCE010E94D21D3F
:103FE0004F2D4D0D612F6E0DCE010E94D21D9920D7
:103FF00071F04D2D411B6F2D6E0DCE010E94D21D13
:104000004D2D4F19612F6E0DCE010E94D21D8820BB
:1040100071F04F2D4D0D6E2D611BCE010E94D21DF2
:10402000412F4D0D6E2D6F19CE010E94D21D002320
:1040300009F4BFCF4D2D4F196E2D611BCE010E948B
:10404000D21D4D2D411B6E2D6F19CE010E94D21D28
:10405000B0CFDF91CF911F910F91FF90EF90DF9044
:10406000CF90BF90AF909F908F9008958F929F9226
:10407000AF92BF92CF92DF92EF92FF920F931F9376
:10408000CF93DF93EC01B62EA42E122FDD24D39410
:10409000D21AC22EC194CC0CFF24F394802F8170CD
:1040A000882E992493949E0C02708FEF8F0D8117A8
:1040B000C4F5D7FC04C01150C394C394DC0C8F2DFD
:1040C000880F8F5FD80E882099F0212F220F290D9D
:1040D0004A2D411B6F2D6B0DCE010E94A91E23E0BE
:1040E0002E0D4A2D4F19612F6B0DCE010E94A91E76
:1040F000002399F0212F220F290D4A2D411B6B2DF2
:104100006F19CE010E94A91E23E02E0D4A2D4F19D2
:104110006B2D611BCE010E94A91EF394E394E394DE
:10412000C4CFDF91CF911F910F91FF90EF90DF905F
:10413000CF90BF90AF909F908F9008959F92AF9235
:10414000BF92CF92DF92EF92FF920F931F93CF9384
:10415000DF93EC01B62EF42EA22EDE2CD194DD0CD2
:104160009D2C920E1E2D160F292D612F0E94CC1E04
:10417000CC24CA94C00ECF0C292D4C2D612FCE011A
:104180000E94CC1ED00EFE0C2D2D4F2D6B2DCE017E
:104190000E94A91EBA0C6FEF6B0D2D2D4F2DCE0175
:1041A0000E94A91E01E02E2D4F2D612FCE010E94ED
:1041B000B81FDE2CD094DB0C02E02E2D4F2D6D2D80
:1041C000CE010E94B81FCE1804E02E2D4C2D6D2D6F
:1041D000CE010E94B81F08E02E2D4C2D612FCE017C
:1041E0000E94B81FDF91CF911F910F91FF90EF9028
:1041F000DF90CF90BF90AF909F900895AF92BF9205
:10420000CF92DF92EF92FF920F931F93CF93DF93A2
:10421000EC01A62EC42EB22EF02E1E2DE194EE0C33
:10422000D12ED60E2E2D2B0D6D2D0E94171FFA9418
:10423000FE0CC10E6FEF6A0D6B0D611BEF2C01E0E0
:10424000212F4C2DCE010E94362002E0212F4C2D33
:104250006D2DCE010E943620DF91CF911F910F91DD
:10426000FF90EF90DF90CF90BF90AF9008956F9246
:104270007F928F929F92AF92BF92CF92DF92EF92F6
:10428000FF920F931F93CF93DF93F901A490319680
:104290005491FC01F0A064350CF00CC1BB24A7FCC8
:1042A000B094A62FBB27A7FDB095FD01EA0DFB1D1D
:1042B0001E161F060CF0FEC040330CF0FBC0C52ECE
:1042C000042F112707FD1095E801C50FD11D57FDDB
:1042D000DA951C161D060CF0EDC0E9012296950139
:1042E000295F3F4F37FF02C0295F3F4F73E035958D
:1042F00027957A95E1F747FF0AC0C52EC40E209F87
:10430000A001219F500D1124C41BD50B40E00C2DA2
:10431000112707FD1095040F111D47FD1A95013354
:1043200011051CF070E3C72EC41A67FD60E0E53587
:10433000F10514F0E4E5F0E01E2FFC01748574270C
:10434000862F992787FD9095FC01EA1BFB0BDF0167
:104350005F01F7E0AF22BB24E0E8F0E002C0F59592
:10436000E795AA94E2F70E2FB7FD179653E0B5959F
:10437000A7955A95E1F7AC0FBD1FE42FE77051E008
:1043800001C0550FEA95EAF7459545954595E4E551
:104390004E02800D911D112483569A4F40E0DD247A
:1043A000C7FCD094BB24B3943327E42FF0E0EC1582
:1043B000FD050CF07FC0FD01E490F1E0FF1219C093
:1043C000EC01A02EFD01862E881A9C2E980C9116C9
:1043D00008F067C09E2C9A2019F09880952A988240
:1043E000A69429F43196E4906894AA24A7F821961B
:1043F000ECCFF1101BC0752E7094EC01A02EFD01C6
:10440000862E881A9C2E980C911608F04AC09E2C75
:104410009A2019F0988097209882A69429F43196D2
:10442000E4906894AA24A7F82196ECCFE3E0FE1666
:1044300031F0EC01A02EFD01862E881A2EC0752EBB
:104440007094962EEC01A02EFD019116B0F48E2CE6
:104450008A2049F08880692C672660FE02C0852A80
:1044600001C087208882A69429F43196E49068944C
:10447000AA24A7F893942196E8CF7B2512C09E2CFE
:104480009A2019F0988095269882A69429F431965E
:10449000E4906894AA24A7F821969C2E980C911673
:1044A00070F3550F19F48C5A9F4F51E04F5FA20FD4
:1044B000B31F7BCFDF91CF911F910F91FF90EF90B2
:1044C000DF90CF90BF90AF909F908F907F906F9034
:1044D00008952F923F924F925F926F927F928F92A8
:1044E0009F92AF92BF92CF92DF92EF92FF920F9383
:1044F0001F93CF93DF93CDB7DEB72A970FB6F8940B
:10450000DEBF0FBECDBF6C01262E542F01111CC083
:10451000E1101AC02A960FB6F894DEBF0FBECDBFC9
:10452000DF91CF911F910F91FF90EF90DF90CF908F
:10453000BF90AF909F908F907F906F905F904F90C3
:104540003F902F900C943721F9018491319634904B
:10455000B9016E5F7F4F7A836983A82EB12C9501D4
:10456000295F3F4FB3E035952795BA95E1F73A8734
:10457000298703702FEF280F522E10E07FEF730D65
:10458000832D90E09C838B83812F992787FD9095C5
:104590008A159B050CF071C0812F17FF02C087E0C0
:1045A000810F682E659465946594812F877887FFC5
:1045B00003C08150886F8F5FA0E88A2E912C02C0C3
:1045C000959487948A95E2F7472EF12C772467FC1F
:1045D00070948F2D992787FD9095EB81FC818E1724
:1045E0009F070CF047C0A985BA858A9FF0018B9F71
:1045F000F00D9A9FF00D1124E60DF71D89819A8127
:10460000E80FF91FE491F0E0E821F921EF2B79F1AF
:10461000023039F0033041F0013049F4452D6F2D5F
:1046200008C0652D442D05C0642D412F02C04F2DBB
:10463000612FEE2069F03E2D3370E0FE03C0922F13
:10464000961B692FE1FE05C0A32DA41B4A2F01C0B4
:1046500030E0620D450FC6012E833D835F8378876E
:104660000E94D21D3D81E32E78855F812E81F394D7
:104670004A94AFCF1F5F5A9487CF2A960FB6F8940B
:10468000DEBF0FBECDBFDF91CF911F910F91FF9085
:10469000EF90DF90CF90BF90AF909F908F907F90E2
:1046A0006F905F904F903F902F900895DC01FB0139
:1046B00084918F5F14968C9314973196E491EF5FF9
:1046C0001596EC9315976E5F7F4F5F967C936E9374
:1046D0005E970895EF920F93CF93DF93EC014E878F
:1046E0006D872F87E98A088B81E0888788A319A2C4
:1046F0008F8367E477E0CE010E9456230E94841CDA
:104700008CB58F7D8CBD8CB58C7F81608CBD8DB55B
:1047100081608DBD8CB58C608CBD61E08E850E9402
:10472000F12B61E08D850E94F12B61E08F850E9465
:10473000F12B898918161CF461E00E94F12B8889FD
:1047400018161CF461E00E94F12B898918166CF48C
:1047500060E00E942A2C6AE070E080E090E00E9415
:10476000E92A61E089890E942A2C8D85992787FD95
:104770009095FC01EC58F64FE491F0E0EE0FFF1F2E
:10478000EE56F64F259134913D8B2C8BFC01E05A6F
:10479000F64F84918B8F8E85992787FD9095FC012C
:1047A000EC58F64FE491F0E0EE0FFF1FEE56F64F97
:1047B000259134913B8B2A8BFC01E05AF64F849172
:1047C0008A8F8889992787FD9095FC01EC58F64FD0
:1047D000E491F0E0EE0FFF1FEE56F64F2591349175
:1047E0003F8B2E8BFC01E05AF64F84918C8F8F8586
:1047F000992787FD9095FC01EC58F64FE491F0E085
:10480000EE0FFF1FEE56F64F25913491398F288F0A
:10481000FC01E05AF64F84918D8F61E2CE010E9437
:104820002A1E64E1CE010E942A1E8B8587FF02C0EA
:104830008FE78B876B856068CE010E942A1E60E23D
:10484000CE010E942A1E6CE0CE010E942A1ECE01DB
:10485000DF91CF910F91EF900C94591E6F927F9240
:104860008F929F92AF92BF92CF92DF92EF92FF9280
:104870000F931F93CF93DF93EC01162FF42EB02EDE
:10488000E8A064350CF081C08FE284170CF47DC081
:10489000EC81F0E031970E9FC0010F9F900D112425
:1048A000860F911D67FD9A95181619060CF06DC0BC
:1048B0008D81809FC0011124840F911D47FD9A9521
:1048C000181619060CF061C0A62E962EC22ED12CF9
:1048D0008A2D811B992787FD90952C8130E08217C6
:1048E00093070CF051C0215031098217930779F0DA
:1048F000C29ED001C39EB00DD29EB00D1124A80F50
:10490000B91FEE8DFF8DEA0FFB1F749001C0712C53
:104910008F2C6F2C282D2F19332727FD30958D8153
:1049200090E0281739076CF570FE11C081E0B812CD
:1049300006C0482D6A2DCE010E94D21D1EC00B2D2F
:104940002B2D462D692DCE010E94171F16C089A15F
:1049500098A1891791F088A381E0B81206C0482D6C
:104960006A2DCE010E94D21D07C00B2D2B2D462D86
:10497000692DCE010E94171FE8A276946B0C8394D8
:10498000C9CF9B0CA394A4CFE8A2DF91CF911F9134
:104990000F91FF90EF90DF90CF90BF90AF909F90DE
:1049A0008F907F906F9008950F93CF93DF93EC01DA
:1049B000262F6A3039F42D8198858A85299F800DAC
:1049C000112422C06D3011F108854A8569850E9445
:1049D0002E2448855C812985549F200D1124298728
:1049E0008F81882399F0332727FD309584E590E067
:1049F000459F801991091124821793073CF49D81EA
:104A00008A85499F800D11248A87198681E090E06C
:104A1000DF91CF910F9108958F929F92AF92BF92A5
:104A2000CF92DF92EF92FF920F931F93CF93DF937A
:104A3000EC015C0186E8A80EB11CD5018C9188239D
:104A400009F44DC08C3018F41CE0181B01C010E0B4
:104A5000FE01EA5AFF4F81E080836E01BEE4CB0E77
:104A6000D11C60E0C6010E94A11E4E01E3E58E0E3E
:104A7000911CD4018C9103E0080F9DE2F92E4F2D7B
:104A8000481B410F23E0E22E24E560E0C6010E94AE
:104A9000FE2061E0C6010E94A11EF401808103E0B6
:104AA000080F4F2D481B410F24E560E0C6010E940E
:104AB0009E20FE01E95AFF4F84E080833196D401A5
:104AC0008C91181B115D1083CC57DF4F6881798161
:104AD000C6010E94D72CF501808181508083DF912F
:104AE000CF911F910F91FF90EF90DF90CF90BF90EB
:104AF000AF909F908F900895DF92EF92FF920F9367
:104B00001F93CF93DF93EC018C8D9D8D892B09F43E
:104B10009CC08E01025B1F4F40E061E0C8010E9413
:104B2000A51E85E5FE01EE5AFF4F9081891B359643
:104B3000808331961082698D613009F462C028F05B
:104B4000888D653008F074C06FC0CE0185960E94D4
:104B5000E52881E0FE01EA5AFF4F808367E477E0B1
:104B6000C8010E9456231D8E1C8EFE01EC5AFF4F79
:104B7000108238EAD32E7E018AE0E80EF11CCE01C5
:104B80000E942D268823D9F369EE78E0C8010E949F
:104B9000D72C6A8D7B8D4AE050E0C8010E94EA2D37
:104BA00064ED78E0C8010E94D72C6D2D62956F707E
:104BB00070E04AE050E0C8010E94CE2D69EC78E038
:104BC000C8010E94D72C64E0C7010E94AC1D81116E
:104BD0003CC0DA94A1F660E0CE010E94BE1C83B70F
:104BE000817F846083BF83B7816083BF83B7816027
:104BF00083BF889583B78E7F83BF83B78E7F83BF44
:104C0000BECFCF58DF4F488159816A817B814F7079
:104C1000552766277727483051056105710510F43F
:104C200067E009C068E707C0882379F06B5F03C0BD
:104C3000882359F06FE2C801DF91CF911F910F9146
:104C4000FF90EF90DF900C94FE2CDF91CF911F919D
:104C50000F91FF90EF90DF9008958F929F92AF9207
:104C6000BF92EF92FF920F931F93CF93DF93EC01CC
:104C70007C0100E8E00EF11CF70180809180A280A9
:104C8000B3800E94BA2A95018401061B170B280BDA
:104C9000390BB901A8015E011FE7A10EB11CF50196
:104CA000808190E0A0E0B0E08E0105581F4F84178E
:104CB0009507A607B70750F4F80180819181A2817A
:104CC000B381892B8A2B8B2B09F040C0F80180819E
:104CD0009181A281B381892B8A2B8B2BA9F57E012F
:104CE000F5E2EF0EF11CC7010E94E228C7010E9405
:104CF0004F29C7010E94132ACE010E940C25CE0124
:104D00000E947C257E012EE4E20EF11CC7010E9468
:104D1000591EFE01EC5AFF4F8081811103C0C7016B
:104D20000E94481E0E94C62AF80160837183828314
:104D30009383FE01EB58FF4FC958DF4F288139811B
:104D4000621B730B7183608380E036C00E94BA2AB5
:104D5000F5012081620F711D811D911DF701608396
:104D6000718382839383FE01EF58FF4F408151810D
:104D7000628173814F5F5F4F6F4F7F4F40835183DD
:104D800062837383F80110821182128213820E945F
:104D9000C62AFE01E958FF4F6083718382839383A3
:104DA000CE010E94C21CCE010A960E94751DCE0142
:104DB00048960E942B1D81E0DF91CF911F910F91AA
:104DC000FF90EF90BF90AF909F908F900895E0E894
:104DD000F7E72591349181E02130304C09F080E0F3
:104DE0000895CF93DF93EC010E94E7269E01275A96
:104DF0003F4FDE01A059BF4F882309F43CC0E6E9CC
:104E0000F7E78491F9018083E7E9F7E7E491EC8320
:104E1000E8E9F7E7E491ED83E9E9F7E78591949113
:104E20009F838E83EBE9F7E7859194919987888733
:104E3000EDE9F7E7E491EBA7EEE9F7E7E491EAA7FC
:104E4000EFE9F7E7E491EC93E0EAF7E785919491D5
:104E50009D8F8C8FE2EAF7E7859194919F8F8E8FDB
:104E6000E4EAF7E78591949199A388A3E6EAF7E746
:104E70008591949120C08CE3F90180831C822FEFEF
:104E80002D8380E293E09F838E8384ED93E0998766
:104E9000888781E08BA78AA72C938CEA9DE09D8F61
:104EA0008C8F8EED9DE09F8F8E8F84E79EE099A37F
:104EB00088A38CE39FE09BA38AA3DF91CF91089501
:104EC000CF92DF92EF920F93CF93DF93EC01FC012F
:104ED000E158FF4F82E38083349741E050E060E087
:104EE00070E040835183628373833B978FEF8083AD
:104EF000CE010E94F126CE010E94BA1C6FEFCE01B6
:104F00000E94BE1C6E018AE0C80ED11CC6010E9420
:104F1000651DC6010E94751DCE0148960E94211D87
:104F20003EE0E32E0FE020E14BE06DE0CE01825B3E
:104F30009F4F0E946A23A596CE010E94F82765E044
:104F4000C6010E94AC1D882351F060E0CE01DF91C4
:104F5000CF910F91EF90DF90CF900C94632A40E0B7
:104F600067EF78E0CE01DF91CF910F91EF90DF9066
:104F7000CF900C949728CF93DF9350E0FA01EE0F77
:104F8000FF1FE80FF91F37852089E32FF22FE60F67
:104F9000F11DE60FF11D25913491FA01EE0FFF1F6F
:104FA000E80FF91F30A3278FF90165917491FC0177
:104FB000D481D69FC02D1124E40FF51FC1A3F901A0
:104FC000A591B4916B2F70E0EC2FF0E0DC01A40F01
:104FD000B51F6E177F0720F4F90125913491C32F77
:104FE000CD9FC02D11249296CC93DF91CF9108953F
:104FF00021E0FC01248324E020A720E439E0308B69
:10500000278740E060E00E94BB2761E070E083E01A
:105010000E94692BE1EBF0E08081887F81608083D2
:10502000F89410928000E1E8F0E010821092850080
:105030001092840088E191E0909389008093880029
:10504000808188608083808181608083EFE6F0E0EA
:10505000808182608083789408950F93FC01862F6D
:10506000642F011129C08230D1F048F4882391F0D7
:10507000813011F540E0CF010F910C94BB278330B4
:10508000A9F08430C9F48481489F602D1124658F74
:10509000268F12C04B3008F06AE0668B0DC0848109
:1050A000489F602D1124618F228F06C08481489F04
:1050B000602D1124638F248F0F910895FC0121111D
:1050C0000EC0648B8481489F402D1124458B15A20E
:1050D00014A213A281E0878B8093A107108E0895FC
:1050E0008091A107882319F080919E0701C080E07C
:1050F0008093B4000895FC0161110DC0178A158AD0
:1051000014A213A2108E10929E0710929F07109265
:10511000A1070C9470280895CF93DF93EC016111DF
:1051200003C00E947B281982DF91CF9108950F93CD
:105130001F93CF93DF93EC018B0141110EC060E010
:105140000E948C281E870D871B8A1A8A81E089831A
:1051500089E08E8B198E1B8E1D8EDF91CF911F9152
:105160000F910895CF93DF93EC01611128C08881DE
:10517000882329F18981811122C089852F81988511
:10518000E22FF92FE80FF11DE80FF11D85919491A1
:105190008F3F2FEF920711F4188211C09C87992737
:1051A000880F991FEA85FB85E80FF91F65917491B7
:1051B00040E0CE010E94972889858F5F8987DF9123
:1051C000CF91089560E00C94B22860E00C948C2894
:1051D0000F93CF93DF93EC0161115DC08981882328
:1051E00009F459C08D89811156C02D853E858A8963
:1051F0009B89880F991F820F931FFC0185919491C1
:105200000097D1F48989882321F01B8A1A8AF90131
:1052100011C01982888160E0882331F0CE010E949C
:10522000B2288A899B8925C0CE01DF91CF910F9149
:105230000C947B2885919491BC0176956795769521
:10524000679580FF1DC0AC01A6E056954795AA95CD
:10525000E1F7292F26952695269520514F716F70DD
:1052600000E0CE010E942D288A899B8901969B8BA4
:105270008A8B880F991FED85FE85E80FF91FDACF1D
:10528000492F6F7320E0CE010E945E288A899B8996
:1052900001969B8B8A8BDF91CF910F91089560E0EF
:1052A0000C94E828CF93DF93EC016111B9C08F898A
:1052B000882309F4B5C08D89811105C0CE01DF9125
:1052C000CF910C947B2881508D8B8DA1811138C09A
:1052D0008BA19CA101969C01220F331FEF8DF8A199
:1052E000E20FF31F25913491422F47704EA3A9017D
:1052F00063E0569547956A95E1F7BA01769567950B
:10530000232F269526952FA36F732C81629F602DE6
:1053100011246DA3417040939D079CA38BA329A1E9
:1053200030E08217930760F08AA1882329F0281BB8
:1053300031093CA32BA304C060E0CE010E947B286E
:105340008DA181508DA3288D2F5F288F4C893FA17F
:10535000340F8C85380F3A836B8D662361F070E0D3
:10536000822F992787FD90950E94852F8C8D869F8F
:10537000300D11243A838A8190E0CB966BE370E084
:105380000E94852F8A833E893B83698D662371F055
:10539000772767FD7095822F992787FD90950E944A
:1053A000852F8A8D869F300D11243B836D8D66235A
:1053B00091F0822F992787FD909570E00E94852FAC
:1053C000CB0162E070E00E94852F2E8D9B81289F8B
:1053D000900D11249B838B814F3339F08A300CF070
:1053E00089E087FD80E08B8301C01B82F894EA810D
:1053F000F0E0EB5FF64FE491E093A00798A58D8174
:10540000989F802D11249B81899F802D11249EA11E
:10541000899F802D112480939F0780939E07789405
:10542000DF91CF91089560E00C94522960919F071D
:10543000662321F18091A2078F5F8093A20790914C
:10544000A0078917D8F08091A10791E08927809360
:10545000A1071092A20780919D07882369F090917F
:105460003A0183E4989F802D1124895B80933A014F
:105470000E94652F90939E070C94702808951F92A8
:105480000F920FB60F9211242F933F934F935F9378
:105490006F937F938F939F93AF93BF93EF93FF93FC
:1054A0000E94162AFF91EF91BF91AF919F918F912A
:1054B0007F916F915F914F913F912F910F900FBE10
:1054C0000F901F901895FC01862F992787FD9095C6
:1054D000668170E06F5F7F4F0E94852F85830895FE
:1054E0001F920F920FB60F9211242F933F938F9319
:1054F0009F93AF93BF938091A4079091A507A0912C
:10550000A607B091A7073091A30723E0230F2D37FB
:1055100020F40196A11DB11D05C026E8230F0296B7
:10552000A11DB11D2093A3078093A4079093A50705
:10553000A093A607B093A7078091A8079091A90709
:10554000A091AA07B091AB070196A11DB11D809350
:10555000A8079093A907A093AA07B093AB07BF91A0
:10556000AF919F918F913F912F910F900FBE0F9010
:105570001F9018952FB7F8946091A4077091A50714
:105580008091A6079091A7072FBF08953FB7F89481
:105590008091A8079091A907A091AA07B091AB07A5
:1055A00026B5A89B05C02F3F19F00196A11DB11D7E
:1055B0003FBF6627782F892F9A2F620F711D811D9B
:1055C000911D42E0660F771F881F991F4A95D1F7FA
:1055D0000895CF92DF92EF92FF92CF93DF936B010A
:1055E0007C010E94C62AEB01C114D104E104F1043C
:1055F00089F00E94372E0E94C62A6C1B7D0B683EE4
:10560000734090F381E0C81AD108E108F108C8514D
:10561000DC4FEACFDF91CF91FF90EF90DF90CF90FA
:105620000895789484B5826084BD84B5816084BD1A
:1056300085B5826085BD85B5816085BDEEE6F0E00B
:10564000808181608083E1E8F0E010828081826067
:105650008083808181608083E0E8F0E080818160E8
:105660008083E1EBF0E0808184608083E0EBF0E018
:10567000808181608083EAE7F0E0808184608083BC
:105680008081826080838081816080838081806866
:1056900080831092C10008958E3008F08E5087707C
:1056A00020913B0190E4299F90011124822B80934B
:1056B0007C0080917A00806480937A0080917A00E7
:1056C00086FDFCCF809178002091790090E0922BAC
:1056D00008951F93CF93DF93182FEB0161E00E9491
:1056E000F12B209711F460E004C0CF3FD10539F4CD
:1056F00061E0812FDF91CF911F910C942A2CE12F33
:10570000F0E0E45BF64FE491E330F9F048F4E13087
:10571000B9F0E230A1F584B5806284BDC8BD34C063
:10572000E730E9F0E83019F1E43049F58091800084
:10573000806280938000D0938B00C0938A0024C045
:1057400084B5806884BDC7BD1FC08091800080681B
:1057500080938000D0938900C093880015C0809109
:10576000B00080688093B000C093B3000DC08091FA
:10577000B00080628093B000C093B40005C0C03810
:10578000D1050CF0B5CFAFCFDF91CF911F91089528
:10579000833081F028F4813099F08230A1F00895AF
:1057A0008730A9F08830B9F08430D1F4809180003E
:1057B0008F7D03C0809180008F7780938000089553
:1057C00084B58F7702C084B58F7D84BD08958091A4
:1057D000B0008F7703C08091B0008F7D8093B000C0
:1057E0000895CF93DF9390E0FC01E05AF64F2491A7
:1057F000FC01EC58F64F8491882349F190E0880F22
:10580000991FFC01E456F64FA591B4918E56964F20
:10581000FC01C591D4919FB7611108C0F8948C9197
:10582000209582238C93888182230AC0623051F4B0
:10583000F8948C91322F309583238C938881822B1E
:10584000888304C0F8948C91822B8C939FBFDF9146
:10585000CF9108950F931F93CF93DF931F92CDB7EE
:10586000DEB7282F30E0F901E45BF64F8491F901AF
:10587000E05AF64F1491F901EC58F64F04910023C9
:10588000C9F0882321F069830E94C82B6981E02F29
:10589000F0E0EE0FFF1FEE56F64FA591B4919FB7C3
:1058A000F8948C91611103C01095812301C0812B64
:1058B0008C939FBF0F90DF91CF911F910F9108950F
:1058C000CF93DF93282F30E0F901E45BF64F84910A
:1058D000F901E05AF64FD491F901EC58F64FC49112
:1058E000CC2391F081110E94C82BEC2FF0E0EE0F39
:1058F000FF1FE857F64FA591B4912C912D2381E01D
:1059000090E021F480E002C080E090E0DF91CF9150
:10591000089508950E94112B0E94892C0E94D60B95
:10592000C0E0D0E00E94421C2097E1F30E940000FA
:10593000F9CFCF92DF92EF92FF920F931F93CF9305
:10594000DF936C017A01EB01E60EF71E00E010E038
:10595000CE15DF0561F06991D601ED91FC910190C2
:10596000F081E02DC6010995080F191FF1CFC8017C
:10597000DF91CF911F910F91FF90EF90DF90CF902B
:1059800008956115710581F0DB010D900020E9F7A4
:10599000AD0141505109461B570BDC01ED91FC91C3
:1059A0000280F381E02D099480E090E00895EF9269
:1059B000FF920F931F93CF93DF938C01FB01C0E005
:1059C000D0E064917F018FEFE81AF80A662361F056
:1059D000D801ED91FC910190F081E02DC80109956D
:1059E000C80FD91FF701EDCFCE01DF91CF911F91E5
:1059F0000F91FF90EF9008950C94C12CDC01ED9174
:105A0000FC910190F081E02D09940F931F93CF93A7
:105A1000DF93EC016DE00E94FE2C8C016AE0CE0168
:105A20000E94FE2C800F911FDF91CF911F910F914B
:105A300008950F931F93CF93DF93EC010E94C12C25
:105A40008C01CE010E94052D800F911FDF91CF9117
:105A50001F910F9108958F929F92AF92BF92CF9214
:105A6000DF92EF92FF920F931F93CF93DF93CDB707
:105A7000DEB7A1970FB6F894DEBF0FBECDBF7C0195
:105A8000C42EE52FCB01D22E19A221E02D1510F046
:105A90002AE0D22E8E010F5D1F4F8D2C912CA12C50
:105AA000B12C6C2D7E2FA50194010E94992F8C2D75
:105AB000D29E80191124015011098A3014F4805D9E
:105AC00001C0895CF801808321153105410551052C
:105AD00021F0C22EE32FCA01E4CFB801C7010E9412
