:100000000C94CC050C94F4050C94F4050C94F405B4
:100010000C94F4050C94F4050C94F4050C94F4057C
:100020000C94F4050C94F4050C94F4050C94412BF9
:100030000C94F4050C94F4050C94F4050C94F4055C
:100040000C94722B0C94F4050C94F4050C94F405A8
:100050000C94F4050C94F4050C94F4050C94F4053C
:100060000C94F4050C94F405B40DBF0DCA0DD50D18
:10007000E50DF20DFD0D080E941197119A11A111C5
:10008000AA11B111B411BB1118143A145C148014E4
:10009000A514CA14ED141115DE17E317E817ED17B0
:1000A000F917FE1703180818261A4D1A6D1A8D1A1B
:1000B000AD1ACE1AF11A181B100E02180230026087
:1000C00007C00A7E163F103D10793FF37FE6FFCC54
:1000D000FF98FFF071C0100E008000800FF81F7CA9
:1000E0001F7C1E3C1C5C1C5C1E3C1FFC1FFC1FFC80
:1000F00013E41E3C100E02003FF83DF83C783838FF
:10010000383839383D783EF83EF83EF83EF827C892
:100110003C78100E02000200020003E0FE10FC0812
:10012000BC689E38CFEC67F633FB19FF0FFF038ED8
:10013000100E080008000980067F0820383C3FFEAA
:100140003FFE3FFE200215540FF800000000080A91
:1001500000000020704468D47AFE080A7CFE447CCB
:100160007C446C546C4420200000000006000050C9
:1001700009000212055C01000914000071AA400C7C
:1001800041550A207EFF8104558040125091200085
:10019000519521E44A911AB84D800D506EFFFABE78
:1001A000160187565A0362BC9701C1501A813AB0B2
:1001B000158003503EFE0EF80155F50401AAAB244C
:1001C0000F57D51435F7FF286B1F8148D519E1E487
:1001D000AB3FF15CD563D124791FD14449F7FF24AB
:1001E000C11401147F0C01FC2020080000203E00F7
:1001F00000F84900012441FFFF04E155550E41AAD2
:10020000AB04415555047EFFFEFC558003545A91C2
:1002100012B4559113545A9112B4558003547AFF75
:10022000FEBC158003501A8002B0158003501A805E
:1002300002B0158003503EFFFEF84155550441AA17
:10024000AB04E155550E41FFFF04490001247F0F27
:10025000E1FC4917D1244117D1044917D12449FFA2
:10026000FF24410001047F0001FC482980000000B8
:10027000000007F8FF000007C00000011011008017
:10028000046000000FFCFF100985E0000011101150
:100290000881257000401000010000051820E012C0
:1002A00080013000078C2040128028025864EC2026
:1002B000E013C02803FFFD7C206113C07826C164D1
:1002C0003C00601140786630758C20E01060510E63
:1002D00098258420E40000C14200E58420E210005B
:1002E0000107FFE7FC20E007820015000000006026
:1002F00011C3C10002000000001780F10009640072
:10030000000011E1C10800000000001020F10C0203
:10031000001E00001000010800802100000F9C3F1B
:100320000C00005E80000150110C00005E80033F55
:10033000FE1F1C00006180001111111C00005E8076
:10034000000000001C00002100000000001C1C1E1A
:100350001E00000000001C22220000000000000C13
:100360005FFB00000000000000A7E50000000200A5
:100370000000A6E20000001E000000FE3C0000009D
:100380003E000000838801060066102000A2A8013C
:100390000001EE30100880380000039E003000336A
:1003A0007E70000372007806BB79502003CA009467
:1003B00010B0FF49589B82613200FFF831EF02C252
:1003C000003A00000007D582C21C3810080026C67B
:1003D00082C2061800000003FF03FE0018482980AF
:1003E00000000000001FFFFF03FFE7FC00001111E9
:1003F000110200240600181FFFFF02FFA5F500EE02
:100400001111110280A516C15510C0010280A51559
:1004100062AA90500D03FFE7FEA55550782902000F
:10042000240566ACD0787902AAA556A5745028791F
:1004300002002405666C10285102CC2584E5A41026
:10044000005102CC258420A010000102C025842088
:10045000A010330103FFE7FC20A010A14100000021
:1004600000006011E1E103000000000011E1E11D66
:10047000C0000000001140A12AB00000000011409F
:10048000A15550001E0000100001AAA88021000004
:100490001FFFFFD598005E8000111111AE88005E2D
:1004A00080001FFFFFCD800061800011111194803A
:1004B000005E800000000014000021000000000029
:1004C00014FFFE1E00000000001480020000000067
:1004D00000000CBFFF00000000000000A00103FEB0
:1004E00003FE00C000A0010202020203B800FFFFE9
:1004F00002FB8EFA0554008009028B768A0AAA0054
:10050000AAAF028AAA8A155500800903FF57FE196F
:10051000AB00B30F0202AA02117500B30902AB5679
:10052000AA01B300B00F0203AE02012900FFF802D6
:10053000C272C2002800000002C202C200280008E5
:100540000002C202C2002800000003FE03FE0030C9
:100550001016101010105410AA0054008A88144469
:100560009280500E0000000000000040000040009B
:1005700020141080000012008A128290ECFE1016E7
:100580001010383854549292AAAAC6C692929292E7
:10059000FEFE000000000000000010103838545427
:1005A0009292AAAAC6C682828282FEFE0E090C0020
:1005B0001E0017002B8037E06BF0D5F8AAFCFFFC7B
:1005C000080C04048CA8F8606870206070F80808B3
:1005D000020040040020040028180000C0000000B1
:1005E00003B800000005540000000AAA000000152E
:1005F0005500000019AB000000117500000801B3A0
:1006000000000A012900002C402800001C5028008E
:100610000000002800003FFE3000005555C0FC00DF
:10062000AAAAA14200D55562A1006AFAA490801F2F
:1006300007CC9FC0003017F4A00114000000039EF7
:10064000000000011E000000028A000000000A00F5
:100650000000080910181858DAFB7F1E1808052535
:1006600092623C10201A03E000000C1800001004F5
:10067000000022020000401100004001000083E061
:100680008000AC1880009004BF80AFFABD80D7F521
:10069000BC80D7F5BB8097F4A78097F4B78097F418
:1006A000BF80FFFFA08000000000000000000006E7
:1006B0000000038800000250000002600000FFBC40
:1006C0007000B032E000C84A7000CFCCE000201DBE
:1006D000003F800000D540001FABE00075D6000051
:1006E000AABC0000DD6B0000A7D58000CB7EC00057
:1006F00095403FFC1D4040020B40FFFF0D4090091C
:100700000940A5690280B5490280A6250480FFFF43
:100710000786400200694EFA009F4EAA00E54EFA95
:1007200000BD4E0260A57FFE96660000F9180E38E7
:10073000A7000B2CBD000EBAA5000F3C66000E38BA
:1007400018000000180F01F00003F80007FC000279
:1007500008003E4F807EAFC0FC47E04000405CE7B1
:100760004054E5405CE74040E04043F8407C07C02F
:1007700007FC001009AAA800008D880D808F880D45
:10078000808D880000AAA80606E0E05CF0E0A008E2
:100790000B0000000000000000001C2A080B0000F5
:1007A0000000000000001C3E3E080B00000000009E
:1007B00000003E7F7F7F080B00000000003E7F7F2F
:1007C0007F7F1C080B0000003E7F7F7F7F1C1C3E4C
:1007D000080B003E7F7F7F7F1C08081C3E080B3EF5
:1007E0007F7F7F7F00000000081C080B1C3E7F7F7E
:1007F00036000000000008080B001C3E3600000018
:1008000000000000080B00081C00000000000000B1
:1008100000080B0000080000000000000000080BAA
:1008200000000000000000000000000808000000B8
:100830000000081C0008080000000008221400083E
:1008400008000000002208440010071C003E003E83
:1008500000FF80BE801C0022000F071C003E0036F7
:1008600000F380BE801C0022000F071C0022002223
:1008700000F780BE801C0022001009007803F807F2
:10088000FE03FC07F80DC058007800300010090086
:100890007802F805F203FC07F80DC0580068003034
:1008A00000100E8000C000C000E000700018000EB4
:1008B000000F000F80FFE07FF037D81BC001C01091
:1008C0000E8000C000C000A000700018000E000FD5
:1008D000000F80FE607E70274813C001C0100680A4
:1008E00040C1F0FFF847FC03FE01FE10068040C146
:1008F000F0BFE847E4033A01FE08050050A85000A5
:100900000F03007003801C000F030000FFFE0000B7
:100910000F031C00038000700F030100038001001F
:100920002804DBFFC5FFE0FA0049002072004D00FB
:100930002023FFC9FFE003053F213F1208120A10E0
:100940000A0E1C0E0C1E0C141A14161F161E131E53
:100950001E1B1E1E1F1E3F213F3A2F3A173D173FF9
:10096000213F181F02040A041F0E04040E1F0A1F51
:100970000A0E0E1F04110E2E252E2F2A2E2629298F
:10098000021F02081F08150E04040E150E15151B74
:10099000151B040604040C040000000017000300EB
:1009A000031F0A1F16371A1904130A153A00030009
:1009B000000E11110E000A040A040E040030000497
:1009C00004040010001804031F111F121F101D152E
:1009D0001711151F07041F17151D1F151D01011FD6
:1009E0001F151F17151F000A00003200040A110A04
:1009F0000A0A110A040115020E11171E051E1F1501
:100A00000A0E110A1F110E1F15111F05010E111DCF
:100A10001F041F111F1108100F1F041B1F10101F90
:100A2000061F1E040F0E110E1F09060E112E1F05A4
:100A30001A121509011F011F101F0F180F1F0C1F7D
:100A40001B041B031C03191513001F1103041811A9
:100A50001F000201022020200001020C121E1F12A2
:100A60000C0C12120C121F0C1A14041E05242A1E40
:100A70001F021C141D1020201D1F0814111F101E02
:100A8000041E1E021C0C120C3E0A040C123E1E0414
:100A90000214160A020F120E101E0E100E1E081E51
:100AA000120C1226281E322A26041E21001F0021A5
:100AB0001E040102013F213F0A0A153A49676E6F81
:100AC0007265006D560A0A504C45415345205455F5
:100AD000524E204F464620004C4F5720424154541E
:100AE0004552592120000500893008023802497812
:100AF00068140000F6E8DBCFC3B8AEA49B928A82EC
:100B00007B746E68625C57524E4945413E3A3734B9
:100B1000312E2C29272523211F1D1C1A19171615C4
:100B200014131211100F0E0D0C0B0A0908070637CB
:100B30000B330B0101FF030101F703000000080064
:100B40000201000003040700000000000000000193
:100B50000204081020408001020408102001020451
:100B60000810200404040404040404020202020223
:100B700002030303030303000000002300260029EF
:100B80000000000000250028002B000000000024C9
:100B90000027002A00007B1D11241FBECFEFD8E0E4
:100BA000DEBFCDBF11E0A0E0B1E0ECEFF1E602C0A6
:100BB00005900D92AA3DB107D9F727E0AAEDB1E063
:100BC00001C01D92A43BB207E1F71BE0C8E9DBE0DE
:100BD00004C02297FE010E94DE30C639D107C9F752
:100BE0000E948C2D0C94FC300C940000CF93DF936A
:100BF000CEEFDFE38DE195E00E942F278823D1F32C
:100C000064E471E08BE695E00E941B2E6BE571E0D9
:100C10008BE695E00E941B2E69E671E08BE695E07D
:100C20000E941B2E64E087E295E00E94AE1E88239E
:100C3000C1F08BE695E00E944A1F69E771E08BE600
:100C400095E00E941B2E68E871E08BE695E00E941B
:100C50001B2E8BE695E00E945B1F84E991E0FE016C
:100C6000099565E087E295E00E94AE1E811108C0FB
:100C700066E087E295E00E94AE1E882309F4BACFB1
:100C8000DF91CF91089565E087E295E00E94AE1E66
:100C9000882361F080911C05882329F0813031F48C
:100CA00010921C0503C081E080931C0540E064E0C5
:100CB00087E295E00E94B71E90911305882309F4FE
:100CC00013C1911111C180911205883009F00CC136
:100CD00081E08093140580911705882309F415C1DC
:100CE00040E062E087E295E00E94B71E882341F071
:100CF000809111058330D4F48F5F8093110516C065
:100D000040E060E087E295E00E94B71E90911105F7
:100D1000882319F09E3F54F002C0191614F4915024
:100D200003C0992319F09F5F9093110540E063E0A1
:100D300087E295E00E94B71E882341F0809110055C
:100D40008330D4F48F5F8093100516C040E061E0DB
:100D500087E295E00E94B71E90911005882319F054
:100D60009E3F54F002C0191614F4915003C0992309
:100D700019F09F5F90931005209111051216A4F4AD
:100D800080910B0590910C0560E0332727FD30958D
:100D9000462F50E042175307BCF4863742E09407D1
:100DA0000CF401966F5FF4CF2223A1F080910B0524
:100DB00090910C0560E0332721950CF43095462F77
:100DC00050E0421753079CF090930C0580930B055D
:100DD0006093E901209110051216DCF480910D0555
:100DE00090910E0560E0332727FD30950CC0181652
:100DF00019060CF401976F5FE2CF863742E0940743
:100E00000CF401966F5F462F50E042175307ACF386
:100E100010C02223A1F080910D0590910E0560E095
:100E2000332721950CF43095462F50E04217530795
:100E30007CF06093E90190930E0580930D0540E0EE
:100E400064E087E295E00E94B71E811107C052C09E
:100E50008E3091050CF001976F5FE6CF80911305FE
:100E6000811148C080911205883009F043C081E0AB
:100E70008093140580911C05811147C08091110554
:100E800018163CF490911005911117C010920F059F
:100E900019C0811108C0809110051816ACF482E0C9
:100EA00080930F0511C087FF15C08091100518169B
:100EB00024F593E090930F0524C019161CF491E0DB
:100EC00090930F05811106C08091100587FF1DC00A
:100ED00086E007C01816CCF48091100587FF15C076
:100EE00087E080930F05089510921405992309F463
:100EF000F2CE089510921405BDCF811102C084E096
:100F0000F0CF87FF02C085E0ECCF089581E490E048
:100F100090930C0580930B058BE290E090930E0567
:100F200080930D051092120510920F051092110575
:100F30001092100581E0809313051092180594E13A
:100F400090931705809315051092160510921405BD
:100F50001092190510921A0510921C0580E097E076
:100F6000989FF0011124E651FE4F128211821482E3
:100F70001382158216828F5F8A3090F38093E90185
:100F80000895CF92DF92EF92FF920F931F93CF932A
:100F9000DF931092E1011092E3011092E20185E0EB
:100FA000F82EF092DC0189E08093DA0185E18093EC
:100FB000DB0186E190E0909344048093430420E1B8
:100FC00030E0309346042093450413E01093470427
:100FD000CEE1D0E0D0934904C093480445E150E00D
:100FE00050934B0440934A0410934C0490934E0446
:100FF00080934D048AE190E09093500480934F04D5
:10100000109351046DE470E07093530460935204A4
:101010004BE050E050935504409354041093560411
:101020004BE250E050935804409357044DE250E097
:1010300050935A044093590410935B0442E550E0E6
:1010400050935D0440935C0440E350E050935F0490
:1010500040935E0410936004ABE1B0E0B09362048F
:10106000A093610441E550E050936404409363040D
:101070001093650444E250E0509367044093660483
:1010800045E550E0509369044093680410936A0466
:101090004CE150E050936C0440936B044BE550E0FE
:1010A00050936E0440936D0410936F04E7E6F0E0F4
:1010B000F0937104E093700444E750E0509373049C
:1010C000409372041093740440E450E0509376040B
:1010D00040937504D0937804C093770410927904F8
:1010E000CEE0D0E0D0937B04C0937A0450937D048B
:1010F00040937C0410927E0445E350E050938004BA
:1011000040937F0447E750E050938204409381046A
:101110001092830444E050E050938504409384048B
:1011200043E050E0509387044093860401E000932D
:10113000880449E550E050938A044093890449E4C7
:1011400050E050938C0440938B0400938D04C2E6CE
:10115000D0E0D0938F04C0938E04C0E5D0E0D0934C
:101160009104C093900400939204C4E5D0E0D0931E
:101170009404C0939304D0939604C0939504F09282
:101180009704C7E0D0E0D0939904C0939804CDE6CB
:10119000D0E0D0939B04C0939A04C4E0FC2EF0925C
:1011A0009C04CEE6D0E0D0939E04C0939D0490931F
:1011B000A00480939F04F092A104CCE3D0E0D093EC
:1011C000A304C093A204C8E2D0E0D093A504C093C6
:1011D000A404DDE0CD2EC092A604C7E0DC2ED092A0
:1011E000A7041092A804C1E5D2E0D093AA04C0934A
:1011F000A904C9E3D0E0D093AC04C093AB04C0927F
:10120000AD04D092AE041092AF040F2EFBE8EF2E87
:10121000FF24F394F02DF092B104E092B0040F2E6D
:10122000F5E8EF2EF12CF02DF092B304E092B20429
:10123000C092B404D092B5041092B6046894EE241F
:10124000E1F8FF24F394F092B804E092B7040F2E73
:10125000F6E2EF2EFF24F394F02DF092BA04E09220
:10126000B904C092BB04D092BC041092BD040F2EEE
:10127000FEE2EF2EF12CF02DF092BF04E092BE04BE
:101280000F2EF7E3EF2EF2E0FF2EF02DF092C104C7
:10129000E092C004C092C204D092C3041092C4046D
:1012A000D093C604C093C504C3E1D0E0D093C80472
:1012B000C093C704C093C904CFE0C093CA0400938D
:1012C000CB04C8E1D0E0D093CD04C093CC04B0935C
:1012D000CF04A093CE0400E20093D004DDE1D093CC
:1012E000D104C2E0C093D204AAE0B0E0B093D40429
:1012F000A093D304A6E2B2E0B093D604A093D504A1
:101300000093D704D093D804C093D904A1E8B1E0E6
:10131000B093DB04A093DA04F093DD04E093DC04E3
:101320000093DE04D093DF04C093E0047093E204E2
:101330006093E10461E270E07093E4046093E3047D
:10134000F9E1F093E504EAE1E093E6041093E704A1
:101350006DE472E07093E9046093E8049093EB0409
:101360008093EA04F093EC04E093ED041093EE0410
:1013700082E191E09093F0048093EF048FE191E09B
:101380009093F2048093F104F093F304E093F40457
:101390001093F5048DEF90E09093F7048093F6049A
:1013A0008FE990E09093F9048093F804E4E2E093ED
:1013B000FA0478E17093FB0468E06093FC0488E928
:1013C00090E09093FE048093FD048EE991E0909369
:1013D00000058093FF04E09301057093020560937C
:1013E00003058EE092E090930505809304058CE15F
:1013F00091E09093070580930605E09308057093AC
:10140000090560930A058FE190E09093F3038093C0
:10141000F20388E490E09093F5038093F4038AE16B
:1014200092E09093FC038093FB035093FE03409360
:10143000FD03309305042093040484E492E0909328
:1014400007048093060481E291E090930E04809358
:101450000D0484EA90E09093100480930F0488E3D5
:1014600092E0909317048093160484E191E09093A6
:101470001904809318048DE791E0909320048093E1
:101480001F0488EC91E0909322048093210488E566
:1014900092E0909329048093280425E032E0309371
:1014A0002B0420932A0425E132E030933204209368
:1014B000310424E132E030933404209333042FEFDD
:1014C00031E030933B0420933A0490933D048093A1
:1014D0003C0480E099E020E136E146E054E168E434
:1014E00079E2A4E0B0E5893098F4989FF0011124E6
:1014F000EE50FC4F1086833028F464837583A683F6
:10150000B78304C024833583468357838F5FEBCF33
:101510008FE590E090932103809320038EE191E08A
:1015200090932303809322032DE430E030932B0328
:1015300020932A0384E491E090932D0380932C035D
:1015400085E790E0909335038093340388E591E03C
:10155000909337038093360386E890E090933F039F
:1015600080933E0380E391E0909341038093400396
:101570008DE791E0909349038093480386E290E0E1
:1015800090934B0380934A0384EB91E09093530331
:101590008093520345E150E0509355034093540328
:1015A00041EA51E050935D0340935C0330935F0345
:1015B00020935E032DE831E03093670320936603A8
:1015C0002CE831E030936903209368032AE731E087
:1015D00030937103209370032CEA31E0309373034E
:1015E000209372032DE931E030937B0320937A033B
:1015F00028EC31E030937D0320937C0323EC31E031
:10160000309385032093840328EA31E030938703E5
:101610002093860390938F0380938E038FE891E04D
:10162000909391038093900380E692E090939903C6
:101630008093980388E292E090939B0380939A03AF
:101640008AE492E09093A3038093A2038AE292E05B
:101650009093A5038093A4038CE292E09093AD0352
:101660008093AC0384E392E09093AF038093AE0346
:1016700086E292E09093B7038093B60389E492E008
:101680009093B9038093B80383E292E09093C103EF
:101690008093C00381E692E09093C3038093C203DA
:1016A0008EE590E09093CB038093CA038EE291E0A5
:1016B0009093CD038093CC0381E991E09093D5037F
:1016C0008093D40324E230E03093D7032093D603F1
:1016D0009093DF038093DE038BE991E09093E10325
:1016E0008093E00381E492E09093E9038093E80320
:1016F00088E492E09093EB038093EA0380E09AE021
:1017000020E245E050E537E064E18531A0F4989FA0
:10171000F0011124E05EFC4F10861186813128F41F
:10172000348395833683678304C02483258346836B
:1017300057838F5FEACF8CE392E0909331028093DE
:1017400030028BE790E0909333028093320285E37E
:1017500091E090933D0280933C0286EA90E0909362
:101760003F0280933E0223E02093470286E291E00D
:1017700090934902809348028FEB90E090934B0244
:1017800080934A02209353022AE432E030935502B8
:101790002093540283E191E0909357028093560284
:1017A00044E040935F0283E492E09093610280936F
:1017B00060028CE291E09093630280936202409316
:1017C0006B028EE691E090936D0280936C0287EC41
:1017D00091E090936F0280936E0245E04093770210
:1017E00085E891E0909379028093780283EE91E00E
:1017F00090937B0280937A024093830289E692E081
:10180000909385028093840288E092E0909387020F
:101810008093860246E040938F0282E692E09093A6
:101820009102809390028DE192E0909393028093D5
:10183000920240939B0286E292E090939D028093F5
:101840009C0287E192E090939F0280939E0267E062
:101850006093A70280E292E09093A9028093A8028D
:101860004EE252E05093AB024093AA026093B3025F
:1018700047E052E05093B5024093B40240E552E095
:101880005093B7024093B60268E06093BF0240E114
:1018900052E05093C1024093C0024BE552E0509396
:1018A000C3024093C2026093CB024DE550E05093D7
:1018B000CD024093CC023093CF022093CE0242E07F
:1018C0004093D70229E531E03093D9022093D80222
:1018D0002CE132E03093DB022093DA024093E30202
:1018E0002BE731E03093E5022093E40227E130E07A
:1018F0003093E7022093E60229E430E03093F102CE
:101900002093F0022CE131E03093F3022093F202B5
:101910002BE931E03093FD022093FC022EE831E008
:101920003093FF022093FE0227E131E03093090358
:101930002093080390930B0380930A0384E1809320
:101940003B0280E492E0909315038093140383E1BB
:1019500092E0909317038093160380E02CE034E02C
:1019600040E15EE061E07EE196E0A5E08431A8F42C
:10197000289FF0011124E05DFD4F1086118632870B
:101980008F3028F4948395831682A78304C0448300
:101990005583668377838F5FE9CF8093E901DF9179
:1019A000CF911F910F91FF90EF90DF90CF9008950E
:1019B0008DE195E00E94622882E08093E40110921C
:1019C000E3011092E2011092E501109235050E94A8
:1019D000C1070C948607282F30E06CE0869FF00149
:1019E0001124E05DFD4F8781882309F484C088E0DD
:1019F0008093E6018081918140910B0550910C0507
:101A000064816695DC01A60FB11DBA01665F7F4F48
:101A10006A177B073CF401979183808384E0828777
:101A20008093E6018CE0829FF001839FF00D1124EA
:101A3000E05DFD4F8081918164816695DC01A60F98
:101A4000B11D4A505109A417B50734F4019691838A
:101A5000808312861092E6018CE0829FF001839FC2
:101A6000F00D1124E05DFD4F8281938140910D05C1
:101A700050910E0565816695DC01A60FB11DBA0176
:101A800068507109A617B7078CF401969383828377
:101A90008091E601843031F0883031F0811106C048
:101AA00081E003C083E001C082E082878CE0829FF6
:101AB000F001839FF00D1124E05DFD4F8281938141
:101AC00025812695BC01620F711D485F5F4F461747
:101AD00057078CF40197938382838091E6018430C9
:101AE00031F0883031F0811106C087E003C085E015
:101AF00001C086E0828708952F923F924F925F92B5
:101B00006F927F928F929F92AF92BF92CF92DF920D
:101B1000EF92FF920F931F93CF93DF93CDB7DEB772
:101B20002E970FB6F894DEBF0FBECDBF10E047E092
:101B30005AE01A3008F099C0212F30E0429FF0019E
:101B4000439FF00D1124E651FE4F8681882309F44E
:101B50008AC0858190E08830910508F06AC0FC0158
:101B6000EC5CFF4F0C94DC30429FF001439FF00D82
:101B70001124E651FE4F81819281029630C0429F2E
:101B8000F001439FF00D1124E651FE4F81819281B7
:101B9000019615C0429FF001439FF00D1124E651BC
:101BA000FE4F83819481029642C0429FF001439F81
:101BB000F00D1124E651FE4F8181928101979283AD
:101BC000818383819481019632C0429FF001439FBB
:101BD000F00D1124E651FE4F81819281029792838C
:101BE000818327C0429FF001439FF00D1124E651ED
:101BF000FE4F81819281019715C0429FF001439F62
:101C0000F00D1124E651FE4F8381948102970FC09D
:101C1000429FF001439FF00D1124E651FE4F818158
:101C20009281019692838183838194810197948329
:101C30008383429FF001439FF00D1124E651FE4F34
:101C400086818F5F86838F3170F0A0815A9FD0018B
:101C50001124A05EBC4F19961C921282118214822C
:101C60001382158216821F5F64CF0091DB01809181
:101C70000B0590910C0560900D0570900E0520915C
:101C80001205B301621B7109E091DF015091E0017F
:101C90004091DD012091DE01B090E701A12CFAE036
:101CA0009F2E88248394A01608F0DFC09A9C6001C0
:101CB00011249601205E3C4F6901D90114962C91A4
:101CC000149726954D915C911197420F511D1596D1
:101CD000EC911597E69512962D913C9113972E0F46
:101CE000311DFC01E41BF50BE65BFF4FE539F10507
:101CF00008F0B6C0F301E21BF30BE65BFF4FE539DA
:101D0000F10508F0ADC07601B9E0EB0EF11CD6018B
:101D10001996EC911997E111A3C01796EC91EE2357
:101D200009F49EC0EFEEF1E0AAEEB1E0BA87A98710
:101D3000A0EFB1E0BC87AB87B12C2701D601169686
:101D4000BE83AD83DA011596BE87AD871A01B5E073
:101D50002B1A3108790115E0E10EF11CD901169713
:101D6000B887AF836901B5E0CB1AD108B2E0E5339B
:101D7000FB0709F474C0AB85BC851C91111163C0CD
:101D8000B11061C014E1D2011C93AD81BE81BC9041
:101D9000B6E0BB1202C0D2019C92A985BA85AC9272
:101DA00012965C934E93119714963C932E9313972F
:101DB000AB85BC858C921082AD85BE85A817B9070E
:101DC00024F4E616F7060CF48082821593055CF085
:101DD000AD85BE85A817B9075CF02617370744F410
:101DE000B2E0B08305C0E616F70614F413E01083E2
:101DF0008417950744F46C157D052CF0E616F7065C
:101E000014F0A4E0A083821593052CF46C157D05D5
:101E100074F4B5E00BC0AD85BE85A817B9073CF0DA
:101E2000AF81B8856A177B0714F4B6E0B083AD853F
:101E3000BE85A817B9072CF46C157D0514F4B7E01E
:101E4000B083BB24B3943796A985BA851796BA8711
:101E5000A987AB85BC851796BC87AB8787CF1AE06F
:101E6000A394E42F422F232F1ECF30911205B301EC
:101E7000631B71094B2C912C8824839434E0532EDE
:101E8000F3E1F91508F4F5C0FCE0F99DF001112427
:101E9000E05DFD4FF887EF832481269540815181D5
:101EA000420F511DE581E695AF81B88512962D91BF
:101EB0003C9113972E0F311DFC01E41BF50BE65BE3
:101EC000FF4FE539F10508F0CFC0F301E21BF30B3A
:101ED000E65BFF4FE539F10508F0C6C07D01B9E0CA
:101EE000EB0EF11CAF81B8851996EC911997E111B1
:101EF000BBC01796EC91EE2309F4B6C0EFEEF1E00B
:101F00000AEE11E01A870987A0EFB1E0BC87AB8722
:101F1000412C0F8118850A5F1F4F1C830B83FA82A7
:101F2000E9827A0115E0E10EF11C1A01A5E02A1AF6
:101F300031085901B5E0AB0EB11C890106501109F9
:101F40001E830D83690115E0C11AD108AF81B885E0
:101F50001A96B887AF83B2E0E533FB0709F483C074
:101F6000AB85BC851C91111171C041106DC0A98554
:101F7000BA859C9212965C934E93119714963C935B
:101F80002E931397AB85BC858C92AB81BC811C9141
:101F90001123C1F0113009F057C008E2A981BA81BC
:101FA0000C93AF81B8851C911083A985BA851396CF
:101FB0000D911C9114970550110914961C930E93C2
:101FC000139742C004E1A981BA810C931082E816EC
:101FD000F90624F4A616B7060CF480828215930540
:101FE0004CF0E816F9065CF02617370744F412E0C7
:101FF000108305C0A616B70614F4A3E0A0838417C7
:1020000095073CF46C157D0524F0A616B7060CF078
:1020100050828215930534F46C157D056CF4B5E09F
:10202000B0830AC0E816F9063CF00D811E816017E6
:10203000710714F416E01083E816F9062CF46C15F9
:102040007D0514F4A7E0A0834424439437960985C2
:102050001A85095F1F4F1A870987AB85BC851796BC
:10206000BC87AB8778CF1AE09394E42F422F232FBD
:1020700007CF1093E801E093DF015093E001409314
:10208000DD012093DE014092E7019092E9012E9656
:102090000FB6F894DEBF0FBECDBFDF91CF911F9179
:1020A0000F91FF90EF90DF90CF90BF90AF909F90F7
:1020B0008F907F906F905F904F903F902F900895FA
:1020C000EF92FF920F931F93CF93DF9380911B05A5
:1020D00081114CC080910B0590910C05AC014350CF
:1020E0005109BC016D5F7F4F2091120580910D0554
:1020F00090910E05821B9109DC0115970196D091F4
:102100001705F090180500E010911305C0E027E0D6
:10211000E22ECA3008F5EC9EF0011124E651FE4F84
:102120002181328124173507ACF06217730794F0D0
:10213000238134812A173B076CF08217930754F0F0
:10214000DD2311F0D55021F4FF24F394D0E002C038
:1021500010E00CE0CF5FDDCFD0931705F0921805AB
:1021600000931B0510931305C093E801DF91CF91F5
:102170001F910F91FF90EF9008951F93CF93DF93DE
:1021800040E06CE07AE0DEE1C9E015E04F3008F0B5
:1021900074C0242F30E0629FF001639FF00D112482
:1021A000E05DFD4FA385AA2309F465C087818111F5
:1021B00062C08085883C09F05EC08681811128C09C
:1021C000CA9FD0011124AE50BC4F17968C9117971F
:1021D0008823F1F01783108614965C911497569516
:1021E0008D919C91850F911D91838083A385CA9FBA
:1021F000D0011124AE50BC4F15965C9115975695A1
:1022000012968D919C911397850F911D93838283D4
:10221000629FF001639FF00D1124E05DFD4F868108
:10222000813049F5A3857A9FD0011124A05EBC4F6F
:1022300017968C9117978823F1F0D7831086149600
:102240002C91149726958D919C91820F911D9183CD
:102250008083A3857A9FD0011124A05EBC4F159680
:102260002C91159712968D919C911397820F911D29
:102270000596938382834F5F89CF4093E901DF9175
:10228000CF911F910895909113058091180599237E
:1022900019F0913059F011C090911205983068F4FE
:1022A00081110BC09F5F90931205089590911205C4
:1022B000992319F0915090931205813099F420914F
:1022C0001205222379F080910F05992787FD9095BB
:1022D000019668E070E00E94873080930F052150DE
:1022E0002093120508950F931F93CF93DF9380914E
:1022F0001405813009F013C180910F05992787FDDE
:102300009095A92FB92F8830910508F040C0FC01A5
:10231000E45CFF4F40910B0550910C0520910D0599
:1023200030910E050C94DC30405F5F4F15C0485F64
:102330005F4F09C05093E0014093DF01285F3F4F9A
:1023400022C0485051095093E0014093DF012B5FB8
:102350003F4F19C0405151095093E0014093DF01B4
:1023600012C04850510909C05093E0014093DF0169
:102370002850310908C0485F5F4F5093E0014093F7
:10238000DF01255031093093DE012093DD01C0913A
:10239000DB012091DF013091E0014091DD0150919E
:1023A000DE01A091E1018091E2019091E301B0E0B2
:1023B000DAE0BC1790F5DB9FF0011124E05EFC4FE2
:1023C000608171816217730734F51481610F711D8B
:1023D0002617370704F56281738164177507DCF4EB
:1023E0001581610F711D46175707ACF4678166238D
:1023F00091F06150678361110EC0608561110BC05F
:10240000AF5F6681663029F0683029F486509F4FAF
:1024100002C088519C4FBF5FCCCFA093E101B09127
:10242000DA01A0E0C9E0AB17A0F5CA9FF0011124C2
:10243000EE50FC4F608171816217730744F5D481BF
:102440006D0F711D2617370714F5628173816417AC
:102450007507ECF4D5816D0F711D46175707BCF455
:1024600067816623A1F061506783611110C06085A8
:1024700061110DC06681673029F0693031F0643038
:1024800031F403C0825A9E4F02C088539F4FAF5F02
:10249000CACFC0E0DCE019E0C431D8F56C2F70E0A1
:1024A000D69FF001D79FF00D1124E05DFD4FA08174
:1024B000B181A217B3075CF50481A00FB11D2A17E3
:1024C0003B072CF5A281B381A417B50704F505815C
:1024D000A00FB11D4A175B07D4F4A781AA23B9F056
:1024E000A150A783A11113C0E085E11110C0169F70
:1024F000F001179FF00D1124EE50FC4F668166230A
:1025000029F0613021F48C599F4F01C0C296CF5FF2
:10251000C3CF9093E3018093E201C093E901DF917F
:10252000CF911F910F910895809112058823E1F0BA
:102530008091160590E0019664E670E00E94873075
:1025400080931605892B39F480911505882319F09D
:1025500081508093150580911505811105C081E09A
:10256000809318058093130508958A3291054CF0E5
:102570009C012A5231092332324010F082520895D0
:102580008AE20895823291054CF09C012252310971
:102590002734324010F08654089582E20895209145
:1025A0000B0530910C052A32310564F0A9014A521D
:1025B00051094332524020F4821B930B8A9602C089
:1025C000825292402DE730E0B9010E948730835853
:1025D0009F4FB9010E948730089520910D053091D9
:1025E0000E052232310564F0A901425251094734E7
:1025F000524020F4821B930B829602C08654924074
:102600002DE730E0B9010E94873083589F4FB90110
:102610000E948730089520910B0530910C052A32D5
:10262000310564F0A9014A5251094332524020F465
:10263000821B930B8A9608958252924008952091AE
:102640000D0530910E052232310564F0A901425288
:1026500051094734524020F4821B930B829608950F
:1026600086549240089580911505882361F08091E9
:102670001205882341F08091190590E0019683703E
:102680009927809319058091E50190E0019662E316
:1026900070E00E9487308093E501809118058130B9
:1026A00059F480911205811107C080911A058B3071
:1026B00018F48F5F80931A0580911B05882319F009
:1026C000815080931B055091DB0120E03AE02517F3
:1026D000F8F4822F90E0389FF001399FF00D11241B
:1026E000E05EFC4F4781411105C040854C3010F43D
:1026F0004F5F4087389FF001399FF00D1124E05E55
:10270000FC4F8185882311F0815081872F5FDFCFB7
:102710002091DA0180E039E0821778F4389FF001E7
:102720001124EE50FC4F9781911105C090859C308B
:1027300010F49F5F90878F5FEFCF20E03CE0243163
:10274000F8F4822F90E0389FF001399FF00D1124AA
:10275000E05DFD4F4781411105C04085493C10F4C3
:102760004F5F4087389FF001399FF00D1124E05DE5
:10277000FD4F8185882311F0815081872F5FDFCF46
:102780002093E9010895EF920F93CF9380910B0569
:1027900090910C050E94B512C82F282F30E030937D
:1027A000E0012093DF0180910D0590910E050E94BC
:1027B000C212282F30E03093DE012093DD014EEF6E
:1027C000480F6EEF6C0F29EF38E08BE695E00E9422
:1027D000392280911B0563E00E946730911148C146
:1027E0002091190588E0289F900111242050374F2F
:1027F0004091DD0180911205481B48506091DF0136
:1028000067508BE695E00E94392280910F05992749
:1028100087FD9095A92FB92F8830910508F028C120
:10282000FC01EC5BFF4F60E08BE695E00C94DC3044
:102830000E94A31F4091DD0180911205481B465064
:102840006091DF016950E12C00E02DED38E08BE66E
:1028500095E00E946B2361E08BE695E00E94A31F48
:102860004091DD0180911205481B46506091DF01C7
:1028700069508DC00E94A31F4091DD018091120517
:10288000481B4D506091DF016750E12C00E021EAC8
:1028900038E08BE695E00E946B2361E08BE695E0E3
:1028A0000E94A31F4091DD0180911205481B4D50ED
:1028B0006091DF01675046C00E94A31F4091DD0177
:1028C00080911205481B46506091DF016450E12C55
:1028D00000E029E438E08BE695E00E946B2361E09C
:1028E0008BE695E00E94A31F4091DD0180911205C7
:1028F000481B46506091DF01645029E638E0B4C0BF
:102900000E94A31F4091DD0180911205481B4D508C
:102910006091DF016950EE24E39400E021EA38E0A1
:102920008BE695E00E946B2361E08BE695E00E94C8
:10293000A31F4091DD0180911205481B4D5060910D
:10294000DF0169502FEB38E08FC00E94A31F409138
:10295000DD0180911205481B46506091DF016750F0
:10296000EE24E39400E02DED38E08BE695E00E9444
:102970006B2361E08BE695E00E94A31F4091DD018F
:1029800080911205481B46506091DF0167502BEE85
:1029900038E06AC00E94A31F4091DD0180911205BA
:1029A000481B46506091DF016750EE24E39400E03D
:1029B00029E738E08BE695E00E946B2361E08BE627
:1029C00095E00E94A31F4091DD0180911205481BF4
:1029D00046506091DF01675045C00E94A31F40919F
:1029E000DD0180911205481B46506091DF01645063
:1029F000E12C00E029E438E08BE695E00E946B23AF
:102A000061E08BE695E00E94A31F4091DD0180917B
:102A10001205481B46506091DF01645029E538E0FB
:102A200023C00E94A31F4091DD0180911205481B25
:102A300046506091DF016950E12C00E029E738E061
:102A40008BE695E00E946B2361E08BE695E00E94A7
:102A5000A31F4091DD0180911205481B46506091F3
:102A6000DF0169502DE838E08BE695E00E946B238A
:102A7000CF910F91EF9008950F9360E08BE695E072
:102A80000E94A31F05E024E540E060E08BE695E0AE
:102A90000E94192061E08BE695E00E94A31F9091AF
:102AA000E1018091DB0198130BC08091E5018F302B
:102AB00038F480911205882319F067E971E05FC04E
:102AC00020E239E041E06AE28BE695E00E9439229B
:102AD00080911C058823C9F0813039F54AE050E027
:102AE0006091E1018BE695E00E94E52E6DEA71E0D0
:102AF0008BE695E00E94FE2D4AE050E06091DB01FC
:102B00008BE695E00E94E52E10C06BEA71E08BE643
:102B100095E00E94FE2D6091E2017091E3014AE090
:102B200050E08BE695E00E94D02E8091170565E07D
:102B30000E94673002E0282F42E061E38BE695E0D7
:102B40000E941920209115058BEA289F212D112420
:102B5000269542E062E48BE695E00E9419208FE41E
:102B6000809374051092750580911C05882329F0C7
:102B7000813051F463EB71E002C06FEA71E08BE6E3
:102B800095E00F910C94FE2D0F9108950F931F93D4
:102B9000CF93DF931092E90105E0C091E901C331C1
:102BA00060F50C9FE0011124CD5BDB4F888199819A
:102BB0000E94CF12182F8093DF019093E0018A8149
:102BC0009B810E94ED128093DD019093DE01EC81E8
:102BD000F0E0EE0FFF1FEA5CFE4F208131814CEEEA
:102BE000480F6CEE610F8BE695E00E9439228091D0
:102BF000E9018F5F8093E901D0CFDF91CF911F91E1
:102C00000F910895FF920F931F93CF93DF9310922C
:102C1000E90157E0F52EC091E901CF3008F040C03E
:102C2000FC9EE0011124CE55DB4F888199810E94E2
:102C30000B138C019093E0018093DF018A819B81CB
:102C40000E941F139093DE018093DD01043511056E
:102C50000CF52C8130E03195219531092017310791
:102C6000CCF480339105B4F42D8130E03195219579
:102C700031092817390774F4EE81F0E0EE0FFF1FD9
:102C8000E65EFE4F20813181482F602F8BE695E074
:102C90000E9439228091E9018F5F8093E901BBCFC7
:102CA000DF91CF911F910F91FF900895DF92EF92E6
:102CB000FF920F931F93CF93DF931092E901E9E006
:102CC000DE2EE090E9018091DA01E81608F057C0A5
:102CD000F12CDE9CE001DF9CD00D1124CE50DC4FA6
:102CE000888199810E940B138C019093E00180935D
:102CF000DF018A819B810E941F139093DE018093E4
:102D0000DD0104351105ACF52C8130E031952195BC
:102D10003109201731076CF58033910554F52D8169
:102D200030E03195219531092817390714F52F81A5
:102D300021110AC02885263038F0EE81F0E0EE0F30
:102D4000FF1FE65FFE4F0DC0DE9CF001DF9CF00D23
:102D50001124EE50FC4FE681F0E0EE0FFF1FE65E1F
:102D6000FE4F20813181482F602F8BE695E00E9435
:102D700039228091E9018F5F8093E901A2CFDF9131
:102D8000CF911F910F91FF90EF90DF900895DF9208
:102D9000EF92FF920F931F93CF93DF931092E9016D
:102DA000CAE0DC2EE090E9018091DB01E81608F032
:102DB00057C0F12CDE9CE001DF9CD00D1124C05ED9
:102DC000DC4F888199810E940B138C019093E00164
:102DD0008093DF018A819B810E941F139093DE0103
:102DE0008093DD0104351105ACF52C8130E031957F
:102DF00021953109201731076CF58033910554F581
:102E00002D8130E03195219531092817390714F5C6
:102E10002F8121110AC02885263038F0EE81F0E09C
:102E2000EE0FFF1FE65FFE4F0DC0DE9CF001DF9C42
:102E3000F00D1124E05EFC4FE681F0E0EE0FFF1F85
:102E4000E65EFE4F20813181482F602F8BE695E0B2
:102E50000E9439228091E9018F5F8093E901A2CF1E
:102E6000DF91CF911F910F91FF90EF90DF90089528
:102E7000CF92DF92EF92FF920F931F93CF93DF9346
:102E80001092E901DCE0FD2ECCEEDFEFE090E901ED
:102E9000F3E1FE1508F4CAC02E2D30E0F29EF001D9
:102EA000F39EF00D1124E05DFD4F878181110AC072
:102EB0008085883038F0883108F0B2C08370823065
:102EC00009F0AEC0F29E8001F39E100D1124005D4A
:102ED0001D4FF801808191810E940B136C0190932A
:102EE000E0018093DF01F801828193810E941F132A
:102EF0009093DE018093DD01F8E6CF16D104ACF4A7
:102F0000F8012481AE01421B51094C155D056CF49A
:102F10008434910554F42581FE01E21BF109E81780
:102F2000F9071CF48E2D0E94EB0C6091DF0170916B
:102F3000E001643571050CF073C0E091E901FE9E7B
:102F4000F0011124E05DFD4F848190E09195819521
:102F50009109861797070CF063C04091DD015091ED
:102F6000DE01403351050CF05BC0858190E0919506
:102F700081959109841795070CF052C086818111C3
:102F800013C08781882359F082858250843020F4D1
:102F9000EE24E39400E005C027E837E03DC0E12CD3
:102FA00001E027E837E020C0828590E08830910575
:102FB000B8F5FC01E45BFF4F0C94DC3020912C0150
:102FC00030912D0129C020912E0130912F0124C074
:102FD00020913001309131011FC020912E0130919C
:102FE0002F01EE24E39400E08BE695E00E946B2332
:102FF00017C020912C0130912D01F3CF2091340185
:1030000030913501EECF209132013091330104C06F
:1030100020913401309135018BE695E00E943922F0
:103020008091E9018F5F8093E90130CFDF91CF91EB
:103030001F910F91FF90EF90DF90CF9008950F9325
:103040008091170581112BC080911A058B3039F5BD
:1030500060E08BE695E00E94A31F07E026E242E1D4
:1030600068E18BE695E00E94192061E08BE695E02F
:103070000E94A31F09E028E241E167E18BE695E0A9
:103080000E94F11F89E18093740583E180937505A7
:1030900067EB71E08BE695E00F910C94FE2D0F919C
:1030A00008950F9360E08BE695E00E94A31F0FE068
:1030B0002CE444E064E08BE695E00E94192061E096
:1030C0008BE695E00E94A31F01E12AE443E063E060
:1030D0008BE695E00E94F11F89E08093740585E0FE
:1030E0008093750561EC71E08BE695E00E94FE2D02
:1030F0008091E2019091E3018A30910514F488E215
:1031000008C08436910514F1883E23E09207BCF490
:103110008FE1809374058CE0809375056BEA71E014
:103120008BE695E00E94FE2D6091E2017091E30133
:103130004AE050E08BE695E00F910C94D02E803160
:10314000974214F48BE1E5CF87E1E3CF83E2E1CF4F
:103150001F93CF93DF9380911005882331F08091E6
:103160001305813009F008C152C080911105811109
:10317000F6CF809113058111F2CFC091DC018091CF
:103180000B0590910C0520910D0530910E05709165
:103190001705A0911505B0E060E0D7E06C1790F539
:1031A000D69FF0011124EE55FB4F40815181481705
:1031B000590734F51481410F511D8417950704F503
:1031C0004281538142175307DCF4E5814E0F511DB4
:1031D00024173507ACF4623069F028F4662341F017
:1031E000613061F00DC0633049F0643019F008C0FF
:1031F000713310F0AD3120F4B1E002C07133E0F36F
:103200006F5FCCCFB09313056093E901A8CF809195
:1032100012058111B1C01092E901C7E04091E901A6
:103220008091DC01481708F0A7C080910B059091B0
:103230000C05C49FF0011124EE55FB4F2081318114
:10324000281739070CF092C05481250F311D8217C1
:1032500093070CF08BC080910D0590910E05228193
:103260003381281739070CF081C05581250F311D96
:10327000821793070CF07AC0423009F457C028F443
:10328000442349F04130D1F171C04330B9F14430A9
:1032900009F44CC06BC09091E1018091DB0198135F
:1032A00003C00E94511862C09091170580911505C6
:1032B000923329F48E3141F41092130557C09233A2
:1032C00018F49F5F909317058E3118F48F5F8093E9
:1032D000150580911705823309F048C080911505C6
:1032E0008E3109F043C08091E2019091E301883E64
:1032F00023E0920784F18052934034C080911705F7
:103300008233D1F2823318F48F5F80931705809156
:103310001705823359F58091E2019091E3018E3EC9
:1033200022E09207C4F08E5E92401CC08091150589
:103330008E3111F28E3118F48F5F809315058091D4
:1033400015058E3199F48091E2019091E3018E3E52
:1033500022E092072CF41092E3011092E20106C0E1
:10336000865991099093E3018093E2018091E901EC
:103370008F5F8093E90152CFDF91CF911F91089524
:103380000F93882331F0813061F400E020E04AE0BF
:1033900003C000E020E043E060E082E495E00E94AA
:1033A0002F2900E020E041E061E082E495E00E9406
:1033B0002F2929EF40E062E082E495E00E942F2966
:1033C00028EF40E063E082E495E00E942F2920E0AE
:1033D00043E061E182E495E00F910C946029EF9263
:1033E0000F93CF9380911405813009F04AC180E09A
:1033F0000E94C01980910B0590910C050E94B51296
:10340000C82F482F50E05093E0014093DF01809196
:103410000D0590910E050E94C212E82FF0E0F09386
:10342000DE01E093DD0140910F05552747FD5095E2
:10343000652F752F4830510508F023C1FA01EC5A69
:10344000FF4F9091E50193700C94DC3091110DC009
:1034500020E12C0F90911205482F491B66E06C0F5C
:10346000082F8BE695E00E9442202091E5018BEA2F
:10347000289F812D11248695982F990F980F291B2D
:103480008AE0289F90011124255D374F4091DD018E
:1034900044506091DF01645FEDC091110FC005E001
:1034A000080F28E02C0F90911205482F491B4F5F01
:1034B00063E06C0F8BE695E00E9442208091E5016D
:1034C00063E00E9467308AE0989F90011124255D97
:1034D000374F4091DD014F5FCAC091110CC008E029
:1034E000080F90911205482F491B2C2F6C2F8BE64B
:1034F00095E00E9442208091E50163E00E946730E0
:103500008AE0989F90011124255D374F4091DD019D
:103510004C5F6091DF016450ADC091110FC005E0B8
:10352000080F28EF2C0F90911205482F491B4F5F71
:103530006DEF6C0F8BE695E00E9442208091E501D3
:1035400063E00E9467308AE0989F90011124255D16
:10355000374F4091DD014F5F40C091110DC020EF0A
:103560002C0F90911205482F491B6AEF6C0F082F02
:103570008BE695E00E9442208091E50163E00E9485
:1035800067308AE0989F90011124255D374F409164
:10359000DD0144506091DF01645142C091110FC0C0
:1035A0000BEF080F28EF2C0F90911205482F491BA5
:1035B00042506BEF6C0F8BE695E00E9442208091A9
:1035C000E50163E00E9467308AE0989F9001112432
:1035D000255D374F4091DD0149506091DF016C500E
:1035E0001FC091110CC008EF080F90911205482FD1
:1035F000491B2C2F6C2F8BE695E00E944220809176
:10360000E50163E00E9467308AE0989F90011124F1
:10361000255D374F4091DD014C506091DF016450D2
:10362000EE24E39400E08BE695E00E946B2329C032
:1036300091110FC00BEF080F28E02C0F909112058D
:10364000482F491B425065E06C0F8BE695E00E94C5
:1036500042208091E50163E00E9467308AE0989FF4
:1036600090011124255D374F4091DD014950609153
:10367000DF016C5F8BE695E0CF910F91EF900C949A
:103680003922CF910F91EF900895EF92FF920F930F
:103690001F93CF93DF931092E90117E0E091E901C6
:1036A000EA3008F03FC01E9FF0011124E651FE4FA2
:1036B0008681882389F1813019F480E00E94C01945
:1036C000C091E9011C9FE0011124C651DE4F8981A0
:1036D0009A810E940B137C019093E0018093DF019B
:1036E0008B819C810E941F139093DE018093DD01EA
:1036F0009701215031092335310570F49C01215087
:1037000031092F32310540F402E022E0482F6E2DBE
:103710008BE695E00E9419208091E9018F5F8093EC
:10372000E901BCCFDF91CF911F910F91FF90EF90F6
:103730000895CF92DF92EF92FF920F931F93CF9352
:10374000DF931F92CDB7DEB7809118058130A1F5C8
:1037500080911205811130C080911A058B3060F57F
:1037600081E00E94C01980910B0590910C050E9488
:10377000B512082F10E0025011091093E0010093D8
:10378000DF0180910D0590910E050E94C212482F15
:1037900050E04A5051095093DE014093DD012091E1
:1037A0001A058DE0289F900111242157384F602F72
:1037B0008BE695E00E9439229091DB018091DA013D
:1037C000891718F49093E70102C08093E701809174
:1037D000E701843118F484E18093E7011092E90154
:1037E0000AE01DE089E0F82E9CE0E92EE091E90175
:1037F0008091E701E81708F03DC18091DB018E1749
:1038000008F474C00E9FF0011124E05EFC4F878124
:1038100081116CC080858C3008F068C081E00E9406
:10382000C0198091E901089F60011124F601E05E52
:10383000FC4F6F01808191810E940B13682F809350
:10384000DF019093E001F6018281938169830E94F8
:103850001F13AC01435051095093DE014093DD0129
:10386000F601868169818430B1F52085129F90012F
:1038700011242157384F6B5F8BE695E00E94392267
:10388000E091E9010E9FF0011124E05EFC4F2085DC
:10389000129F900111242157384F4091DD014B5F59
:1038A0006091DF016C5E8BE695E00E943922E09129
:1038B000E9010E9FF0011124E05EFC4F2085129F6C
:1038C000900111242157384F4091DD01415F6091F3
:1038D000DF01685F07C0F6012085129F9001112467
:1038E0002157384F8BE695E00E943922E091E9019B
:1038F0008091DA018E1708F477C0FE9EF001112442
:10390000EE50FC4F878181116FC080858C3008F0AC
:103910006BC081E00E94C0198091E901F89E6001AE
:103920001124C6018E509C4F6C01FC018081918155
:103930000E940B13682F8093DF019093E001F60142
:103940008281938169830E941F13AC014350510906
:103950005093DE014093DD01F60186816981843058
:10396000B9F52085129F900111242157384F4D5FE2
:10397000665F8BE695E00E943922E091E901FE9EA8
:10398000F0011124EE50FC4F2085129F900111246C
:103990002157384F4091DD014C5F6091DF01675D39
:1039A0008BE695E00E943922E091E901FE9EF0014C
:1039B0001124EE50FC4F2085129F900111242157B5
:1039C000384F4091DD01485E6091DF016A5D08C0BB
:1039D000F6012085129F900111242157384F6D5F09
:1039E0008BE695E00E9439228091E9018531E0F56E
:1039F000E89E60011124C601805D9D4F6C01FC01B1
:103A00008781811131C080858C3070F580819181F2
:103A10000E940B1305969093E0018093DF01F6015D
:103A2000828193810E941F1303979093DE018093FC
:103A3000DD01F60186818130B9F40E94C019E09160
:103A4000E901EE9EF0011124E05DFD4F2085129FFB
:103A5000900111242157384F4091DD016091DF0121
:103A60008BE695E00E9439228091E9018F5F809377
:103A7000E901BCCE0F90DF91CF911F910F91FF9084
:103A8000EF90DF90CF9008958DE195E00E942F2771
:103A9000882381F166E087E295E00E94AE1E8111E5
:103AA0000E94F6050E9402160E9456160E94C71632
:103AB0000E9438170E94C6150E94EF190E94451BEC
:103AC0000E943C150E94C3130E94991B0E941F185C
:103AD0000E94A8180E9443060E9443110E9473117D
:103AE0000E9460100E9494120E947C0D0E94331369
:103AF0000C94BD10089510926E0510926D0586ED20
:103B000091E090936C0580936B050895CF93CFB7A8
:103B1000F8948091A405811127C0EDE6FBE0849123
:103B2000E9E5FBE09491E82FF0E0EE0FFF1FE55789
:103B3000F44FA591B4918C91892321F461E08AE03E
:103B40000E942C2D61E08AE00E94F32C8CB58061EC
:103B50008CBD8CB580648CBD61E08DE00E94F32C3F
:103B600061E08BE00E94F32C8091A4058F5F80932D
:103B7000A405CFBFCF91089521E0FC0120830895D3
:103B800070E085E00C946B2CAF92BF92CF92DF92E5
:103B9000EF92FF920F931F93CF93DF93EC018981F4
:103BA0009A812FE0289F8001299F100D112485E123
:103BB0000E944E2C800F911F24E0969587952A95A0
:103BC000E1F79A8389832881222391F1AC81AD802A
:103BD000B12CC12CD12CE885F9857F0100E010E0E3
:103BE0006E817F819B0140E050E08617970728F0A7
:103BF000BC01E817F90708F4BF0180E090E01F92CC
:103C00001F921F92AF930E94F22E6B830F900F9022
:103C10000F900F9070E085E0DF91CF911F910F9191
:103C2000FF90EF90DF90CF90BF90AF900C946B2CF3
:103C3000DF91CF911F910F91FF90EF90DF90CF9088
:103C4000BF90AF900895FC018CE39FE09383828343
:103C500084E0818381E084870895CF93DF93EC0132
:103C60008C819D81892B81F18C858F7151F584E147
:103C70000E944E2CBC01882777FD8095982F0E94CA
:103C8000682F26EE3FE34EEC50E40E94F42F0E9492
:103C90003A2F9B017B836A836115710581F084E073
:103CA0008983FE0140E0848195812817390710F44B
:103CB00049830AC04F5F32964430A9F702C08FEFA4
:103CC00089838C858F5F8C87DF91CF910895FC016C
:103CD00088E0808389E0818387E0828386E0838334
:103CE00084E0848382E0858381E186830895DF9286
:103CF000EF92FF920F931F93CF93DF937C01EC0120
:103D000000E010E0DD24DA9462E088810E94F32C68
:103D100088810E94622DF701E00FF11F892B21F4A9
:103D200087818F5F878308C08781882349F08F3F11
:103D300011F4178201C0D78260E088810E94F32CC1
:103D40000F5F1F4F219607301105F1F6DF91CF91DC
:103D50001F910F91FF90EF90DF900895FC01E60F07
:103D6000F11D81E09781913009F080E00895262FC0
:103D700030E0FC01E20FF31F8781423028F48150CC
:103D80008E3F48F080E008958F3FE1F3642F0E945A
:103D900067309130B9F781E008958EBD00000DB411
:103DA00007FEFDCF8EB50895DC01643508F053C0E1
:103DB000403308F050C090968C919097342F3595F1
:103DC00035953595E62FFF27E7FDF095242F2770D1
:103DD000823099F4DF01AB55BA4F84E53802A00D6B
:103DE000B11D11248C9190E0022E02C0959587950B
:103DF0000A94E2F78095817009C0833039F4462730
:103E00001C968C91482740FF03C014C0811112C03A
:103E100084E53802E00DF11D1124EB55FA4F81E0E5
:103E200090E0022E01C0880F0A94EAF780959081F5
:103E3000982310C084E53802E00DF11D1124EB55E4
:103E4000FA4F81E090E0022E01C0880F0A94EAF751
:103E50009081982B908308951F93CF93DF93EC016B
:103E6000162FF89460E08F850E942C2D88891816F3
:103E70001CF460E00E942C2D812F0E94CD1E8889A9
:103E800018161CF461E00E942C2D7894DF91CF91DC
:103E90001F91089528EF31E0E5EAF5E0DF01A9017F
:103EA0001D9241505040E1F7DC0119961C92199780
:103EB0001A961C920895DF92EF92FF920F931F9330
:103EC000CF93DF93EC018C858F5F8C8785EAE82E9A
:103ED00085E0F82ED12C6D2D6064CE010E942C1F40
:103EE00060E8CE010E942C1F61E08F850E942C2D7E
:103EF000888918161CF460E00E942C2D00E010E068
:103F0000F701E00FF11F80810E94CD1E0F5F1F4F50
:103F100004351105A9F7888918161CF461E00E9480
:103F20002C2DD39484E5E80EF11C86E0D812D3CF73
:103F300060E4CE01DF91CF911F910F91FF90EF9040
:103F4000DF900C942C1FFC0160A361A30895FC0179
:103F500060A341A30895CF92DF92FF920F931F9326
:103F6000CF93DF931F92CDB7DEB76C01062FF42EEF
:103F700010E0121754F4412F4F0D602FC601298312
:103F80000E94D41E1F5F2981F4CF0F90DF91CF9143
:103F90001F910F91FF90DF90CF900895CF92DF9205
:103FA000FF920F931F93CF93DF931F92CDB7DEB78E
:103FB0006C01062FF42E10E0121754F4612F600FDD
:103FC0004F2DC60129830E94D41E1F5F2981F4CF83
:103FD0000F90DF91CF911F910F91FF90DF90CF90C5
:103FE0000895EF92FF920F931F93CF93DF93EC010D
:103FF000F62E142FE22E0E94CE1F4FEF400F410FDE
:104000002E2D6F2DCE010E94CE1F202F412F6F2D00
:10401000CE010E94AB1F6FEF6E0D6F0D202F412F51
:10402000CE01DF91CF911F910F91FF90EF900C94F3
:10403000AB1FDF92EF92FF920F931F93CF93DF930B
:10404000EC01E62ED22EF42E112707FD1095040F59
:10405000111D47FD1A958F2D992787FD9095801783
:10406000910744F42D2D4F2D6E2DCE010E94CE1FB1
:10407000F394F1CFDF91CF911F910F91FF90EF90CB
:10408000DF900895AF92BF92CF92DF92EF92FF92AE
:104090000F931F93CF93DF93EC01162FF42EE22E94
:1040A000A02FBB27A7FDB095A41BB10947FDB39571
:1040B000B7FF03C0B195A195B109EE2DFF27E7FD2C
:1040C000F095E11BF10917FDF395F7FF03C0F1959A
:1040D000E195F109BB24B394EA17FB0714F0B12C66
:1040E00006C08E2DE02E082F812F1F2DF82EE116F1
:1040F00034F48F2DF02E082F812F1E2DE82ECE2C7C
:10410000C11AE02FFF27E7FDF095EF19F109F7FC41
:10411000F395F7FF03C0F195E195F109AE2EDC2C84
:10412000C7FE03C0DD24D394DC0CD594F01614F440
:1041300001E00FC00FEF0DC0BB2071F0412F6F2DBC
:10414000CE010E94D41EDA18D7FE02C0F00EDC0C9D
:104150001F5FE1168CF703C04F2D612FF1CFDF9168
:10416000CF911F910F91FF90EF90DF90CF90BF9074
:10417000AF9008958F929F92AF92BF92CF92DF92AD
:10418000EF92FF920F931F93CF93DF93EC01E62EF4
:10419000D42E122FCC24C394C21AB22EB194BB0CCD
:1041A000F12C802F8470A82E802F8270982E802F63
:1041B0008870882E0170F1160CF04DC0C7FC04C049
:1041C0001150B394B394CB0CF3948F2D880F8F5F61
:1041D000C80EAA2071F0412F4D0D6F2D6E0DCE012E
:1041E0000E94D41E4F2D4D0D612F6E0DCE010E94E9
:1041F000D41E992071F04D2D411B6F2D6E0DCE01F7
:104200000E94D41E4D2D4F19612F6E0DCE010E94BC
:10421000D41E882071F04F2D4D0D6E2D611BCE01E7
:104220000E94D41E412F4D0D6E2D6F19CE010E949C
:10423000D41E002309F4BFCF4D2D4F196E2D611BE5
:10424000CE010E94D41E4D2D411B6E2D6F19CE0143
:104250000E94D41EB0CFDF91CF911F910F91FF909C
:10426000EF90DF90CF90BF90AF909F908F90089588
:104270008F929F92AF92BF92CF92DF92EF92FF9276
:104280000F931F93CF93DF93EC01B62EA42E122F22
:10429000DD24D394D21AC22EC194CC0CFF24F39403
:1042A000802F8170882E992493949E0C02708FEF3A
:1042B0008F0D8117C4F5D7FC04C01150C394C3946B
:1042C000DC0C8F2D880F8F5FD80E882099F0212F5E
:1042D000220F290D4A2D411B6F2D6B0DCE010E941F
:1042E000AB1F23E02E0D4A2D4F19612F6B0DCE0110
:1042F0000E94AB1F002399F0212F220F290D4A2D78
:10430000411B6B2D6F19CE010E94AB1F23E02E0DB8
:104310004A2D4F196B2D611BCE010E94AB1FF394E8
:10432000E394E394C4CFDF91CF911F910F91FF905D
:10433000EF90DF90CF90BF90AF909F908F900895B7
:104340009F92AF92BF92CF92DF92EF92FF920F9324
:104350001F93CF93DF93EC01B62EF42EA22EDE2C0A
:10436000D194DD0C9D2C920E1E2D160F292D612F40
:104370000E94CE1FCC24CA94C00ECF0C292D4C2DE8
:10438000612FCE010E94CE1FD00EFE0C2D2D4F2D81
:104390006B2DCE010E94AB1FBA0C6FEF6B0D2D2D54
:1043A0004F2DCE010E94AB1F01E02E2D4F2D612F0E
:1043B000CE010E94BA20DE2CD094DB0C02E02E2D20
:1043C0004F2D6D2DCE010E94BA20CE1804E02E2D67
:1043D0004C2D6D2DCE010E94BA2008E02E2D4C2DC3
:1043E000612FCE010E94BA20DF91CF911F910F91D2
:1043F000FF90EF90DF90CF90BF90AF909F90089587
:10440000AF92BF92CF92DF92EF92FF920F931F93E2
:10441000CF93DF93EC01A62EC42EB22EF02E1E2DCC
:10442000E194EE0CD12ED60E2E2D2B0D6D2D0E946B
:104430001920FA94FE0CC10E6FEF6A0D6B0D611B13
:10444000EF2C01E0212F4C2DCE010E94382102E0FB
:10445000212F4C2D6D2DCE010E943821DF91CF915F
:104460001F910F91FF90EF90DF90CF90BF90AF9092
:1044700008956F927F928F929F92AF92BF92CF9248
:10448000DF92EF92FF920F931F93CF93DF93F90187
:10449000A49031965491FC01F0A064350CF00CC14D
:1044A000BB24A7FCB094A62FBB27A7FDB095FD01A8
:1044B000EA0DFB1D1E161F060CF0FEC040330CF06B
:1044C000FBC0C52E042F112707FD1095E801C50F6D
:1044D000D11D57FDDA951C161D060CF0EDC0E90143
:1044E00022969501295F3F4F37FF02C0295F3F4F5A
:1044F00073E0359527957A95E1F747FF0AC0C52EF9
:10450000C40E209FA001219F500D1124C41BD50B68
:1045100040E00C2D112707FD1095040F111D47FDDC
:104520001A95013311051CF070E3C72EC41A67FDFC
:1045300060E0E535F10514F0E4E5F0E01E2FFC0144
:1045400074857427862F992787FD9095FC01EA1BB7
:10455000FB0BDF015F01F7E0AF22BB24E0E8F0E0F6
:1045600002C0F595E795AA94E2F70E2FB7FD1796CE
:1045700053E0B595A7955A95E1F7AC0FBD1FE42F11
:10458000E77051E001C0550FEA95EAF7459545956A
:104590004595E4E54E02800D911D11248B559A4FEF
:1045A00040E0DD24C7FCD094BB24B3943327E42F30
:1045B000F0E0EC15FD050CF07FC0FD01E490F1E0AA
:1045C000FF1219C0EC01A02EFD01862E881A9C2E28
:1045D000980C911608F067C09E2C9A2019F09880CC
:1045E000952A9882A69429F43196E4906894AA2496
:1045F000A7F82196ECCFF1101BC0752E7094EC013A
:10460000A02EFD01862E881A9C2E980C911608F07B
:104610004AC09E2C9A2019F0988097209882A694E0
:1046200029F43196E4906894AA24A7F82196ECCF57
:10463000E3E0FE1631F0EC01A02EFD01862E881A73
:104640002EC0752E7094962EEC01A02EFD019116B1
:10465000B0F48E2C8A2049F08880692C672660FE91
:1046600002C0852A01C087208882A69429F4319649
:10467000E4906894AA24A7F893942196E8CF7B2528
:1046800012C09E2C9A2019F0988095269882A694A4
:1046900029F43196E4906894AA24A7F821969C2ED8
:1046A000980C911670F3550F19F48C5A9F4F51E0E6
:1046B0004F5FA20FB31F7BCFDF91CF911F910F915F
:1046C000FF90EF90DF90CF90BF90AF909F908F9032
:1046D0007F906F9008952F923F924F925F926F92CA
:1046E0007F928F929F92AF92BF92CF92DF92EF9282
:1046F000FF920F931F93CF93DF93CDB7DEB72A9727
:104700000FB6F894DEBF0FBECDBF6C01262E542F1E
:1047100001111CC0E1101AC02A960FB6F894DEBF32
:104720000FBECDBFDF91CF911F910F91FF90EF9002
:10473000DF90CF90BF90AF909F908F907F906F90C1
:104740005F904F903F902F900C943922F901849103
:1047500031963490B9016E5F7F4F7A836983A82EBA
:10476000B12C9501295F3F4FB3E035952795BA9558
:10477000E1F73A87298703702FEF280F522E10E0B8
:104780007FEF730D832D90E09C838B83812F99277E
:1047900087FD90958A159B050CF071C0812F17FF3E
:1047A00002C087E0810F682E659465946594812F1F
:1047B000877887FF03C08150886F8F5FA0E88A2EBB
:1047C000912C02C0959487948A95E2F7472EF12C9C
:1047D000772467FC70948F2D992787FD9095EB8146
:1047E000FC818E179F070CF047C0A985BA858A9F68
:1047F000F0018B9FF00D9A9FF00D1124E60DF71D2F
:1048000089819A81E80FF91FE491F0E0E821F9210C
:10481000EF2B79F1023039F0033041F0013049F4E7
:10482000452D6F2D08C0652D442D05C0642D412FE9
:1048300002C04F2D612FEE2069F03E2D3370E0FE57
:1048400003C0922F961B692FE1FE05C0A32DA41B68
:104850004A2F01C030E0620D450FC6012E833D8313
:104860005F8378870E94D41E3D81E32E78855F8127
:104870002E81F3944A94AFCF1F5F5A9487CF2A9624
:104880000FB6F894DEBF0FBECDBFDF91CF911F9161
:104890000F91FF90EF90DF90CF90BF90AF909F90DF
:1048A0008F907F906F905F904F903F902F900895E2
:1048B000DC01FB0184918F5F14968C9314973196E1
:1048C000E491EF5F1596EC9315976E5F7F4F5F96BF
:1048D0007C936E935E970895EF920F93CF93DF933F
:1048E000EC014E876D872F87E98A088B81E08887E6
:1048F00088A319A28F8366E379E0CE010E94582431
:104900000E94861D8CB58F7D8CBD8CB58C7F81609F
:104910008CBD8DB581608DBD8CB58C608CBD61E02A
:104920008E850E94F32C61E08D850E94F32C61E05E
:104930008F850E94F32C898918161CF461E00E946F
:10494000F32C888918161CF461E00E94F32C8989E5
:1049500018166CF460E00E942C2D6AE070E080E094
:1049600090E00E94EB2B61E089890E942C2D8D85BF
:10497000992787FD9095FC01ED59F44FE491F0E003
:10498000EE0FFF1FEF57F44F259134913D8B2C8B89
:10499000FC01E15BF44F84918B8F8E85992787FD15
:1049A0009095FC01ED59F44FE491F0E0EE0FFF1FFC
:1049B000EF57F44F259134913B8B2A8BFC01E15B3F
:1049C000F44F84918A8F8889992787FD9095FC01FF
:1049D000ED59F44FE491F0E0EE0FFF1FEF57F44F65
:1049E000259134913F8B2E8BFC01E15BF44F849138
:1049F0008C8F8F85992787FD9095FC01ED59F44F99
:104A0000E491F0E0EE0FFF1FEF57F44F2591349142
:104A1000398F288FFC01E15BF44F84918D8F61E227
:104A2000CE010E942C1F64E1CE010E942C1F8B85B9
:104A300087FF02C08FE78B876B856068CE010E947D
:104A40002C1F60E2CE010E942C1F6CE0CE010E9460
:104A50002C1FCE01DF91CF910F91EF900C945B1F33
:104A60006F927F928F929F92AF92BF92CF92DF927E
:104A7000EF92FF920F931F93CF93DF93EC01162FCA
:104A8000F42EB02EE8A064350CF081C08FE28417BC
:104A90000CF47DC0EC81F0E031970E9FC0010F9FB8
:104AA000900D1124860F911D67FD9A951816190611
:104AB0000CF06DC08D81809FC0011124840F911D69
:104AC00047FD9A95181619060CF061C0A62E962E71
:104AD000C22ED12C8A2D811B992787FD90952C8180
:104AE00030E0821793070CF051C021503109821732
:104AF000930779F0C29ED001C39EB00DD29EB00D37
:104B00001124A80FB91FEE8DFF8DEA0FFB1F7490C3
:104B100001C0712C8F2C6F2C282D2F19332727FDC6
:104B200030958D8190E0281739076CF570FE11C023
:104B300081E0B81206C0482D6A2DCE010E94D41E15
:104B40001EC00B2D2B2D462D692DCE010E94192044
:104B500016C089A198A1891791F088A381E0B812A5
:104B600006C0482D6A2DCE010E94D41E07C00B2D11
:104B70002B2D462D692DCE010E941920E8A2769496
:104B80006B0C8394C9CF9B0CA394A4CFE8A2DF91B4
:104B9000CF911F910F91FF90EF90DF90CF90BF903A
:104BA000AF909F908F907F906F9008950F93CF93C9
:104BB000DF93EC01262F6A3039F42D8198858A85A0
:104BC000299F800D112422C06D3011F108854A857E
:104BD00069850E94302548855C812985549F200D78
:104BE000112429878F81882399F0332727FD309559
:104BF00084E590E0459F801991091124821793075D
:104C00003CF49D818A85499F800D11248A871986ED
:104C100081E090E0DF91CF910F9108958F929F9264
:104C2000AF92BF92CF92DF92EF92FF920F931F93BA
:104C3000CF93DF93EC015C0186E8A80EB11CD5018F
:104C40008C91882309F44DC08C3018F41CE0181B9B
:104C500001C010E0FE01EA5AFF4F81E080836E013F
:104C6000BEE4CB0ED11C60E0C6010E94A31F4E0122
:104C7000E3E58E0E911CD4018C9103E0080F9DE2B8
:104C8000F92E4F2D481B410F23E0E22E24E560E072
:104C9000C6010E94002261E0C6010E94A31FF40128
:104CA000808103E0080F4F2D481B410F24E560E091
:104CB000C6010E94A021FE01E95AFF4F84E08083D3
:104CC0003196D4018C91181B115D1083CC57DF4FA6
:104CD00068817981C6010E94D92DF50180818150BA
:104CE0008083DF91CF911F910F91FF90EF90DF9024
:104CF000CF90BF90AF909F908F900895DF92EF92EA
:104D0000FF920F931F93CF93DF93EC018C8D9D8DBA
:104D1000892B09F49CC08E01025B1F4F40E061E0CB
:104D2000C8010E94A71F85E5FE01EE5AFF4F908142
:104D3000891B3596808331961082698D613009F424
:104D400062C028F0888D653008F074C06FC0CE0155
:104D500085960E94E72981E0FE01EA5AFF4F808391
:104D600066E379E0C8010E9458241D8E1C8EFE0166
:104D7000EC5AFF4F108238EAD32E7E018AE0E80E0B
:104D8000F11CCE010E942F278823D9F368ED7AE029
:104D9000C8010E94D92D6A8D7B8D4AE050E0C80180
:104DA0000E94EC2E63EC7AE0C8010E94D92D6D2D93
:104DB00062956F7070E04AE050E0C8010E94D02E0A
:104DC00068EB7AE0C8010E94D92D64E0C7010E9417
:104DD000AE1E81113CC0DA94A1F660E0CE010E94C3
:104DE000C01D83B7817F846083BF83B7816083BF29
:104DF00083B7816083BF889583B78E7F83BF83B776
:104E00008E7F83BFBECFCF58DF4F488159816A81E3
:104E10007B814F70552766277727483051056105FC
:104E2000710510F467E009C068E707C0882379F0CE
:104E30006B5F03C0882359F06FE2C801DF91CF9107
:104E40001F910F91FF90EF90DF900C94002EDF9157
:104E5000CF911F910F91FF90EF90DF9008958F9267
:104E60009F92AF92BF92EF92FF920F931F93CF93B7
:104E7000DF93EC017C0100E8E00EF11CF70180807B
:104E80009180A280B3800E94BC2B95018401061BF7
:104E9000170B280B390BB901A8015E011FE7A10E02
:104EA000B11CF501808190E0A0E0B0E08E010558D2
:104EB0001F4F84179507A607B70750F4F8018081A4
:104EC0009181A281B381892B8A2B8B2B09F040C061
:104ED000F80180819181A281B381892B8A2B8B2B50
:104EE000A9F57E01F5E2EF0EF11CC7010E94E4294D
:104EF000C7010E94512AC7010E94152BCE010E94B2
:104F00000E26CE010E947E267E012EE4E20EF11CCA
:104F1000C7010E945B1FFE01EC5AFF4F8081811187
:104F200003C0C7010E944A1F0E94C82BF80160837A
:104F3000718382839383FE01EB58FF4FC958DF4F83
:104F400028813981621B730B7183608380E036C0D6
:104F50000E94BC2BF5012081620F711D811D911DE6
:104F6000F7016083718382839383FE01EF58FF4FC3
:104F700040815181628173814F5F5F4F6F4F7F4FDF
:104F80004083518362837383F801108211821282FD
:104F900013820E94C82BFE01E958FF4F6083718382
:104FA00082839383CE010E94C41DCE010A960E9483
:104FB000771ECE0148960E942D1E81E0DF91CF9191
:104FC0001F910F91FF90EF90BF90AF909F908F90A7
:104FD0000895E0E8F7E72591349181E02130304CE5
:104FE00009F080E00895CF93DF93EC010E94E92758
:104FF0009E01275A3F4FDE01A059BF4F882309F475
:105000003CC0E6E9F7E78491F9018083E7E9F7E737
:10501000E491EC83E8E9F7E7E491ED83E9E9F7E768
:10502000859194919F838E83EBE9F7E78591949125
:1050300099878887EDE9F7E7E491EBA7EEE9F7E7D1
:10504000E491EAA7EFE9F7E7E491EC93E0EAF7E708
:10505000859194919D8F8C8FE2EAF7E785919491E9
:105060009F8F8E8FE4EAF7E78591949199A388A3A7
:10507000E6EAF7E78591949120C08CE3F9018083FB
:105080001C822FEF2D8380E293E09F838E8384ED3B
:1050900093E09987888781E08BA78AA72C938CEA75
:1050A0009DE09D8F8C8F8EED9DE09F8F8E8F84E78E
:1050B0009EE099A388A38CE39FE09BA38AA3DF9142
:1050C000CF910895CF92DF92EF920F93CF93DF931A
:1050D000EC01FC01E158FF4F82E38083349741E00B
:1050E00050E060E070E040835183628373833B97BC
:1050F0008FEF8083CE010E94F327CE010E94BC1D5A
:105100006FEFCE010E94C01D6E018AE0C80ED11C57
:10511000C6010E94671EC6010E94771ECE014896F6
:105120000E94231E3EE0E32E0FE020E14BE06DE005
:10513000CE01825B9F4F0E946C24A596CE010E94F7
:10514000FA2865E0C6010E94AE1E882351F060E097
:10515000CE01DF91CF910F91EF90DF90CF900C9423
:10516000652B40E066EE7AE0CE01DF91CF910F91A2
:10517000EF90DF90CF900C949929CF93DF9350E07C
:10518000FA01EE0FFF1FE80FF91F37852089E32F83
:10519000F22FE60FF11DE60FF11D25913491FA0172
:1051A000EE0FFF1FE80FF91F30A3278FF90165915C
:1051B0007491FC01D481D69FC02D1124E40FF51FFA
:1051C000C1A3F901A591B4916B2F70E0EC2FF0E031
:1051D000DC01A40FB51F6E177F0720F4F90125919C
:1051E0003491C32FCD9FC02D11249296CC93DF9183
:1051F000CF91089521E0FC01248324E020A72FE231
:105200003BE0308B278740E060E00E94BD2861E0F2
:1052100070E083E00E946B2CE1EBF0E08081887FFE
:1052200081608083F89410928000E1E8F0E01082C1
:10523000109285001092840088E191E0909389009B
:1052400080938800808188608083808181608083F2
:10525000EFE6F0E0808182608083789408950F9378
:10526000FC01862F642F011129C08230D1F048F44F
:10527000882391F0813011F540E0CF010F910C941B
:10528000BD288330A9F08430C9F48481489F602D03
:105290001124658F268F12C04B3008F06AE0668BB0
:1052A0000DC08481489F602D1124618F228F06C01C
:1052B0008481489F602D1124638F248F0F9108955E
:1052C000FC0121110EC0648B8481489F402D112464
:1052D000458B15A214A213A281E0878B8093A907A6
:1052E000108E08958091A907882319F08091A60750
:1052F00001C080E08093B4000895FC0161110DC0ED
:10530000178A158A14A213A2108E1092A607109263
:10531000A7071092A9070C9472290895CF93DF93E1
:10532000EC01611103C00E947D291982DF91CF91A8
:1053300008950F931F93CF93DF93EC018B014111DD
:105340000EC060E00E948E291E870D871B8A1A8A74
:1053500081E0898389E08E8B198E1B8E1D8EDF91F3
:10536000CF911F910F910895CF93DF93EC016111BD
:1053700028C08881882329F18981811122C08985EB
:105380002F819885E22FF92FE80FF11DE80FF11D0D
:10539000859194918F3F2FEF920711F4188211C0DD
:1053A0009C879927880F991FEA85FB85E80FF91FCD
:1053B0006591749140E0CE010E94992989858F5FA3
:1053C0008987DF91CF91089560E00C94B42960E063
:1053D0000C948E290F93CF93DF93EC0161115DC084
:1053E0008981882309F459C08D89811156C02D8582
:1053F0003E858A899B89880F991F820F931FFC0124
:10540000859194910097D1F48989882321F01B8A92
:105410001A8AF90111C01982888160E0882331F06D
:10542000CE010E94B4298A899B8925C0CE01DF91D3
:10543000CF910F910C947D2985919491BC01769523
:1054400067957695679580FF1DC0AC01A6E05695DF
:105450004795AA95E1F7292F26952695269520515F
:105460004F716F7000E0CE010E942F298A899B89BD
:1054700001969B8B8A8B880F991FED85FE85E80F1F
:10548000F91FDACF492F6F7320E0CE010E94602907
:105490008A899B8901969B8B8A8BDF91CF910F9193
:1054A000089560E00C94EA29CF93DF93EC01611139
:1054B000B9C08F89882309F4B5C08D89811105C0D1
:1054C000CE01DF91CF910C947D2981508D8B8DA1E0
:1054D000811138C08BA19CA101969C01220F331F22
:1054E000EF8DF8A1E20FF31F25913491422F477001
:1054F0004EA3A90163E0569547956A95E1F7BA0175
:1055000076956795232F269526952FA36F732C816B
:10551000629F602D11246DA341704093A5079CA349
:105520008BA329A130E08217930760F08AA188231A
:1055300029F0281B31093CA32BA304C060E0CE0155
:105540000E947D298DA181508DA3288D2F5F288FEA
:105550004C893FA1340F8C85380F3A836B8D6623BD
:1055600061F070E0822F992787FD90950E94873027
:105570008C8D869F300D11243A838A8190E0CB96E2
:105580006BE370E00E9487308A833E893B83698D9C
:10559000662371F0772767FD7095822F992787FD25
:1055A00090950E9487308A8D869F300D11243B8311
:1055B0006D8D662391F0822F992787FD909570E07D
:1055C0000E948730CB0162E070E00E9487302E8D10
:1055D0009B81289F900D11249B838B814F3339F041
:1055E0008A300CF089E087FD80E08B8301C01B824C
:1055F000F894EA81F0E0EC50F54FE491E093A807CD
:1056000098A58D81989F802D11249B81899F802D45
:1056100011249EA1899F802D11248093A707809338
:10562000A6077894DF91CF91089560E00C94542AF6
:105630006091A707662321F18091AA078F5F80936D
:10564000AA079091A8078917D8F08091A90791E03F
:1056500089278093A9071092AA078091A50788231C
:1056600069F09091420183E4989F802D1124895B19
:10567000809342010E9467309093A6070C94722990
:1056800008951F920F920FB60F9211242F933F93FC
:105690004F935F936F937F938F939F93AF93BF933A
:1056A000EF93FF930E94182BFF91EF91BF91AF9161
:1056B0009F918F917F916F915F914F913F912F912A
:1056C0000F900FBE0F901F901895FC01862F992701
:1056D00087FD9095668170E06F5F7F4F0E948730F5
:1056E000858308951F920F920FB60F9211242F9366
:1056F0003F938F939F93AF93BF938091AC0790910B
:10570000AD07A091AE07B091AF073091AB0723E092
:10571000230F2D3720F40196A11DB11D05C026E8E9
:10572000230F0296A11DB11D2093AB078093AC07F8
:105730009093AD07A093AE07B093AF078091B007E9
:105740009091B107A091B207B091B3070196A11D46
:10575000B11D8093B0079093B107A093B207B093A7
:10576000B307BF91AF919F918F913F912F910F9070
:105770000FBE0F901F9018952FB7F8946091AC074B
:105780007091AD078091AE079091AF072FBF08953C
:105790003FB7F8948091B0079091B107A091B207FC
:1057A000B091B30726B5A89B05C02F3F19F001960D
:1057B000A11DB11D3FBF6627782F892F9A2F620F39
:1057C000711D811D911D42E0660F771F881F991F73
:1057D0004A95D1F70895CF92DF92EF92FF92CF933F
:1057E000DF936B017C010E94C82BEB01C114D10433
:1057F000E104F10489F00E94392F0E94C82B6C1B30
:105800007D0B683E734090F381E0C81AD108E1082F
:10581000F108C851DC4FEACFDF91CF91FF90EF90B4
:10582000DF90CF900895789484B5826084BD84B56C
:10583000816084BD85B5826085BD85B5816085BD8B
:10584000EEE6F0E0808181608083E1E8F0E01082A4
:10585000808182608083808181608083E0E8F0E0E5
:10586000808181608083E1EBF0E0808184608083CF
:10587000E0EBF0E0808181608083EAE7F0E0808106
:105880008460808380818260808380818160808366
:105890008081806880831092C10008958E3008F066
:1058A0008E5087702091430190E4299F900111242C
:1058B000822B80937C0080917A00806480937A00B0
:1058C00080917A0086FDFCCF80917800209179004C
:1058D00090E0922B08951F93CF93DF93182FEB0145
:1058E00061E00E94F32C209711F460E004C0CF3FE8
:1058F000D10539F461E0812FDF91CF911F910C9494
:105900002C2DE12FF0E0E55CF44FE491E330F9F069
:1059100048F4E130B9F0E230A1F584B5806284BD8D
:10592000C8BD34C0E730E9F0E83019F1E43049F59A
:1059300080918000806280938000D0938B00C09320
:105940008A0024C084B5806884BDC7BD1FC0809113
:105950008000806880938000D0938900C093880085
:1059600015C08091B00080688093B000C093B300F0
:105970000DC08091B00080628093B000C093B400ED
:1059800005C0C038D1050CF0B5CFAFCFDF91CF91B6
:105990001F910895833081F028F4813099F082308E
:1059A000A1F008958730A9F08830B9F08430D1F49F
:1059B000809180008F7D03C0809180008F778093DD
:1059C0008000089584B58F7702C084B58F7D84BD33
:1059D00008958091B0008F7703C08091B0008F7DD3
:1059E0008093B0000895CF93DF9390E0FC01E15BDA
:1059F000F44F2491FC01ED59F44F8491882349F12F
:105A000090E0880F991FFC01E557F44FA591B491E0
:105A10008F57944FFC01C591D4919FB7611108C075
:105A2000F8948C91209582238C93888182230AC0DC
:105A3000623051F4F8948C91322F309583238C93FB
:105A40008881822B888304C0F8948C91822B8C935C
:105A50009FBFDF91CF9108950F931F93CF93DF9353
:105A60001F92CDB7DEB7282F30E0F901E55CF44F87
:105A70008491F901E15BF44F1491F901ED59F44F70
:105A800004910023C9F0882321F069830E94CA2C65
:105A90006981E02FF0E0EE0FFF1FEF57F44FA59163
:105AA000B4919FB7F8948C91611103C01095812334
:105AB00001C0812B8C939FBF0F90DF91CF911F91DD
:105AC0000F910895CF93DF93282F30E0F901E55C23
:105AD000F44F8491F901E15BF44FD491F901ED5950
