:100000000C94DF030C9407040C9407040C9407046D
:100010000C9407040C9407040C9407040C94070434
:100020000C9407040C9407040C9407040C949B2B69
:100030000C9407040C9407040C9407040C94070414
:100040000C94F82B0C9407040C9407040C940704EC
:100050000C9407040C9407040C9407040C940704F4
:100060000C9407040C9407044572726F7200476188
:100070006D65206C6F6164656400536176696E67BD
:100080002067616D65004E6F7468696E6720746FDC
:1000900020626520736176656421004E6F20736174
:1000A0007665642067616D650046696C6520656DE5
:1000B000707479004C6F6164696E67207361766556
:1000C000642067616D6500436C65616E696E6720D1
:1000D000454550524F4D00202D20474F474F474F29
:1000E000474F474F20212057617220646F6E742064
:1000F000776169742021202D2000202120444F4E5B
:100100002754205455524E204F464620212000208F
:10011000201D20496E697469616C69736174696F2F
:100120006E2E2E202000496E736572742053442079
:10013000262072657374617274001D2052656164BB
:10014000696E6720534420636172642E2E2E0A0A62
:100150000020197FFFFFE0FFFFFFF0FFE0FFF0FF4F
:10016000FBFFE03FFFFFC01FFFFF801FFFFF001FDF
:10017000FFFF000FFFFD000FFFF10009F80300096A
:10018000F0820008E0E2000C40020008080200488B
:100190000E0220F80003F098000190B81F83D0F8F9
:1001A0002043F0FE1087F0FF8F0FF0FFF07FF0FF8D
:1001B0007077F0FF1FC7F020197FFFFFE0FFFFFF00
:1001C000F0FFE0FFF0FFFBFFE03FFFFFC01FFFFF7E
:1001D000801FFFFF001FFFFF000FFFFD000FFFF15B
:1001E0000009F8030009F0820008E0E2000C400278
:1001F0000008080200480E0220F80003F0980001F1
:1002000090B81F83D0F83FC3F0FE0007F0FF800FC7
:10021000F0FFF07FF0FF7077F0FF1FC7F04823007A
:1002200000000000000000000000000018000000B6
:10023000010000000007C000003E00000000007C3C
:100240000201E0000000000007F27F000000000053
:1002500000003DE000008020000003DFDF00011B04
:1002600036C0001E0201E0012AA48001F007003E12
:1002700000B312800700020001000200001800070E
:1002800000000000000000000D8000000050000091
:100290000018C00000501000000018C000009B555E
:1002A0008000003FE000005259000000EFB800005D
:1002B0008A54800001EFBC00000000000001FFFC38
:1002C00000000000000001FFFC000000800000FFB3
:1002D000FFFFF807FBEFF0007FFFFFF00001C00019
:1002E00000221FC22000794F0000771FC770000056
:1002F000000000720F8270000000000035070560EA
:10030000000000000000FFF8000000000000007F77
:10031000F0000000000000000200000000000000EB
:1003200000020000000000000000000000000000CB
:10033000000000000000008000000000000000013C
:100340000000210002000400C56310A1444420C540
:1003500002FFFFFFFFFFFFFFFFFF40240000000040
:10036000000000000000000000000000000000008D
:100370000000000000000001F8FFFFFC0000000387
:10038000F9FFFFFE00000007FFFFFFFF000007FF6F
:10039000FFFFFFFF00000FFF0330C71F00001C0618
:1003A0000120820F00001C0649E7924F00001FFE4B
:1003B00049279E4F00001C0649279E4F00001C063F
:1003C00079209E0F00001FFE79309F1F00001C0641
:1003D00079FFFFFF00001C07FF0041BF00001FFF67
:1003E000FC00466F00001807F87FFD870000180723
:1003F000FC0FFE0300001FFFFE03FE0300001C07AE
:10040000FFC1800700001C07F001801F00001FFFD4
:10041000E003007F00001807E00F07FF0000180747
:10042000FFFFFFFF00001FFFFFFFFFFF00001C0793
:10043000FF7FFBFF00001C07FF77337300001FFFE7
:10044000FF6AAAAF00001C07FF6AAA6F00001C0722
:10045000FFB7332F00000FFFFFFFFFFE000007FF75
:10046000FFFFFFFC00000000000000000000000093
:1004700000000000000000000000000003053F2114
:100480003F1208120A100A0E1C0E0C1E0C141A142D
:10049000161F161E131E1E1B1E1E1F1E3F213F3A37
:1004A0002F3A173D173F213F181F02040A041F0E61
:1004B00004040E1F0A1F0A0E0E1F04110E2E252EF5
:1004C0002F2A2E262929021F02081F08150E0404B0
:1004D0000E150E15151B151B040604040C04000054
:1004E000000017000300031F0A1F16371A19041310
:1004F0000A153A000300000E11110E000A040A0446
:100500000E040030000404040010001804031F113E
:100510001F121F101D151711151F07041F17151D7A
:100520001F151D01011F1F151F17151F000A0000B1
:100530003200040A110A0A0A110A040115020E11F6
:10054000171E051E1F150A0E110A1F110E1F151169
:100550001F05010E111D1F041F111F1108100F1F71
:10056000041B1F10101F061F1E040F0E110E1F0963
:10057000060E112E1F051A121509011F011F101F4B
:100580000F180F1F0C1F1B041B031C03191513004E
:100590001F11030418111F00020102202020000176
:1005A000020C121E1F120C0C12120C121F0C1A1429
:1005B000041E05242A1E1F021C141D1020201D1FAE
:1005C0000814111F101E041E1E021C0C120C3E0AE1
:1005D000040C123E1E040214160A020F120E101E04
:1005E0000E100E1E081E120C1226281E322A260479
:1005F0001E21001F00211E040102013F213F0A4E5F
:100600006F2053442063617264206F720A6E6F2002
:100610004C4F414445522E4845580A0A153A4578F0
:100620006974001D20466C617368696E670A20203A
:100630006C6F616465722E2E2E0A0A444F4E275449
:10064000205455524E204F464621000A0A153A4979
:10065000676E6F7265006D560A0A504C45415345EE
:10066000205455524E204F464620004C4F572042B2
:100670004154544552592120001753440016137811
:100680000016131400151020001520100000540A45
:1006900003E181867F3E186D830F0F0E0183866014
:1006A00033186DC3198F1803C38E6033186DE33090
:1006B000CF1803C39E603630CDE360CF3006C79EAF
:1006C0007E3E30CDB360CF300CC6F6603330D9B645
:1006D00060CF33CFCCF66061B0DB1E60CF30D86C1A
:1006E000E6C061B0DB1E618F19986CC6C063B19B18
:1006F0000E330F0FB078C6FF7E1F1B061E0F0500BE
:10070000893008023802497868140000F6E8DBCF27
:10071000C3B8AEA49B928A827B746E68625C5752A7
:100720004E4945413E3A3734312E2C292725232185
:100730001F1D1C1A1917161514131211100F0E0D68
:100740000C0B0A090807064500680100000500387F
:1007500001680100005D0759070101FF030101F76E
:10076000030000000800020100000304070000006D
:100770000000000000010204081020408001020473
:1007800008102001020408102004040404040404D6
:100790000402020202020203030303030300000037
:1007A0000023002600290000000000250028002B5F
:1007B0000000000000240027002A0000E00C1124A3
:1007C0001FBECFEFD8E0DEBFCDBF11E0A0E0B1E0AB
:1007D000E6EEF4E602C005900D92A437B107D9F712
:1007E00027E0A4E7B1E001C01D92AD33B207E1F705
:1007F00017E0CEEBD7E004C02297FE010E949231B1
:10080000CC3BD107C9F70E94122E0C9471320C9484
:100810000000FB0105900020E9F7609570956E0FD0
:100820007F1FCB01089504960C945714895B9D4F4C
:100830000C94A80E895B9D4F0C940F0FCF93DF9300
:100840001F92CDB7DEB7698341E050E0BE016F5F14
:100850007F4F04960E9457140F90DF91CF91089517
:10086000FB01242F60912B0570912C05AF010C9496
:10087000D213FF920F931F93CF93DF938C01F62E29
:10088000EC01C95DDD4FCE010E94C913B801CE0154
:100890000E941A10882359F0FF2039F08881807750
:1008A00031F0D0932C05C0932B0581E001C080E08E
:1008B000DF91CF911F910F91FF900895DC01643576
:1008C00008F053C0403308F050C090968C91909738
:1008D000342F359535953595E62FFF27E7FDF095B3
:1008E000242F2770823099F4DF01A25DBA4F84E58E
:1008F0003802A00DB11D11248C9190E0022E02C08F
:10090000959587950A94E2F78095817009C08330A8
:1009100039F446271C968C91482740FF03C014C029
:10092000811112C084E53802E00DF11D1124E25D51
:10093000FA4F81E090E0022E01C0880F0A94EAF796
:1009400080959081982310C084E53802E00DF11D58
:100950001124E25DFA4F81E090E0022E01C0880F81
:100960000A94EAF79081982B90830895ABE7B1E061
:10097000E0E8F7E784918D933196E11588E7F80771
:10098000C9F7E6E2F2E0ADE7B1E081918D9382E054
:10099000EF32F807D1F76BE771E080E897E7EDEF0A
:1009A000FFE309940F9361E080EF94E00E94DA1F67
:1009B00007E024E540E060E080EF94E00E945020F2
:1009C00082E08093F90481E08093FA0460E080EF94
:1009D00094E00E94DA1F01E024E547E060E080EF48
:1009E00094E00E9450200F9108950F9361E080EFF2
:1009F00094E00E94DA1F07E024E549E260E080EF1E
:100A000094E00E94502082E08093F9048AE280936F
:100A1000FA0460E080EF94E00E94DA1F01E024E530
:100A200048E260E080EF94E00E9450200F9108952A
:100A3000CF93DF93EC01BC01882777FD8095982F39
:100A40000E9409042091F8044091F404429FA001FF
:100A50001124489F9001499F300D589F300D11245B
:100A6000369527958AE2821B8093F904BE0180EFB8
:100A700094E0DF91CF910C94492ECF93DF9300D077
:100A8000CDB7DEB789839A830E94D20489819A8187
:100A90000F900F90DF91CF910C941805CF93DF93B7
:100AA00000D0CDB7DEB789839A830E94F50489818F
:100AB0009A810F900F90DF91CF910C941805FC0153
:100AC00001900020E9F73197E81BF90B2091F80419
:100AD0004091F404429FA00111244E9F90014F9F2A
:100AE000300D5E9F300D1124369527953AE2321B6A
:100AF0003093F904BC0180EF94E00C946E2ECF93F8
:100B0000DF9300D0CDB7DEB789839A830E94D204E9
:100B100089819A810F900F90DF91CF910C945F059E
:100B20002F923F924F925F926F927F928F929F92FD
:100B3000AF92BF92CF92DF92EF92FF920F931F93EB
:100B4000CF93DF9300D000D0CDB7DEB7582E662EFE
:100B5000742E422EB80141E083E392E00E943004FB
:100B6000882309F481C0472D50E0495F5F4F63E05F
:100B7000559547956A95E1F75C834B835B81598373
:100B800080E890E06B817C810E9430316B016A8348
:100B9000A70160E070E083E392E00E94C61100E0EC
:100BA00010E0A42CB12C70E8872E912C202E041577
:100BB00008F054C0822D6A810E941031392E992389
:100BC00071F08B819C81389E7001399EF00C11244C
:100BD000312CF701E558FE4F7F01260C3AC0750114
:100BE000E01AF10ACE14DF040CF47601F981FE9DBF
:100BF000E02C1124F12CA7016BE771E083E392E074
:100C00000E9434108E159F05E4F683E392E00E9463
:100C1000C9132AC0832D869586958695F701E80F1E
:100C2000F11D8081992787FD9095232D2770A401C0
:100C300002C0559547952A95E2F784239523892B81
:100C400039F0422D632D650D80EF94E00E945E0423
:100C500033943710DFCF0F5F1F4FA8CF83E392E0AD
:100C60000E94C91381E001C080E00F900F900F90A7
:100C70000F90DF91CF911F910F91FF90EF90DF9038
:100C8000CF90BF90AF909F908F907F906F905F902C
:100C90004F903F902F900895EF92FF920F931F93E4
:100CA000CF93DF93EC0160E080EF94E00E94DA1FC5
:100CB00000E224E540E160E080EF94E00E945020F3
:100CC00061E080EF94E00E94DA1F6091040289E005
:100CD000689FB00111246B5F7D4F8FE091E00E940F
:100CE000233266E471E08FE091E00E94183280E6E2
:100CF00091E0C89F7001C99FF00CD89FF00C11249F
:100D000081E5E80EF11C0FE011E020E244E560E12E
:100D100080E00E949005DF91CF911F910F91FF908D
:100D2000EF900895EF92FF920F931F9360E080EF92
:100D300094E00E94DA1F00E224E548E060E080EFE2
:100D400094E00E94502061E080EF94E00E94DA1F5E
:100D50006091040289E0689FB00111246B5F7D4FB0
:100D60008FE091E00E94233266E471E08FE091E031
:100D70000E941832E1E5EE2EF12C0FE011E020E2A6
:100D800044E568E080E00E9490051F910F91FF907C
:100D9000EF900895CF9380EF94E00E94811F61E06F
:100DA00080EF94E00E94DA1F109278011092770190
:100DB0008EE18093740110927A0110927901109261
:100DC0007601109275016091040289E0689FB0017C
:100DD00011246B5F7D4F8FE091E00E94233266E427
:100DE00071E08FE091E00E94183241E06FE071E025
:100DF00083E392E00E943004882389F141E550E0CA
:100E00006BE771E083E392E00E9434108135910535
:100E100031F580918101813011F51092950182E8C0
:100E200091E00E947F058091CB018093780183E35C
:100E300092E00E94C9138091770190E00E944C06D5
:100E4000811149C086E18093FA0483E08093F9041C
:100E500067ED70E080EF94E0CF910C94492E6091A3
:100E60000402C9E0C69FB00111246B5F7D4F8FE083
:100E700091E00E9423326BE471E08FE091E00E94E8
:100E8000183210928D0141E06FE071E083E392E04F
:100E90000E94300485E08093FA048EE18093F90487
:100EA00080913602882359F042E150E06BE771E00F
:100EB00083E392E00E94FC156BE771E007C060914C
:100EC0000402C69FB00111246B5F7D4F80EF94E058
:100ED0000E946E2EACCFCF910895EFE0F1E0A0E03C
:100EE00080E0811104C090819E32B1F405C0813050
:100EF00021F490819E3281F08F5F823069F491E01D
:100F00009A0FB0E0A150BE4F20812C93933019F47A
:100F1000109202020895A92F319691E0EC31F90761
:100F200001F7F6CF6FE071E083E392E00E948F1A41
:100F30000E946D076CE471E08FEF91E00E943932FE
:100F4000892B29F090913302907781E009F080E0BD
:100F50000895CF936091040289E0689FB001112445
:100F60006B5F7D4F8FE091E00E94233266E471E079
:100F70008FE091E00E94183241E06FE071E083E37E
:100F800092E00E943004882331F141E550E06BE7A4
:100F900071E083E392E00E94341081359105D9F429
:100FA000809181018130B9F41092950189E180939B
:100FB000F90488E08093FA0462E871E080EF94E03D
:100FC0000E946E2E83E392E00E94C91387EC94E0A6
:100FD000CF910C94D52B60910402C9E0C69FB0015B
:100FE00011246B5F7D4F8FE091E00E9423326BE410
:100FF00071E08FE091E00E94183210928D0141E083
:101000006FE071E083E392E00E9430048091360249
:10101000882389F042E150E06BE771E083E392E0DE
:101020000E94FC1589E18093F90488E08093FA041A
:101030006BE771E0C3CF89E18093F90488E0809386
:10104000FA0460910402C69FB00111246B5F7D4FCA
:10105000B5CFAF92BF92CF92DF92EF92FF920F93F4
:101060001F93CF93DF9380EF94E00E94811F61E094
:1010700080EF94E00E94DA1F61E083E592E00E9435
:10108000390410920302C9E041E06AE774E083E3A7
:1010900092E00E941113882309F469C00E9492070C
:1010A000882309F45FC0C0900F01B0901001D09167
:1010B0000302A5E0B2E02091200230912102220F2C
:1010C000331F245E3E4F40E050E060E070E0F901E5
:1010D000E40FF51F8081C81649F06F5F7F4F4E5FA8
:1010E0005F4F19964630510591F731C08181B81292
:1010F000F4CFEFE0EE2EE1E0FE2E80E090E0182F3E
:10110000F701D1907F01FEE2DF1209C0FC01CD9F03
:10111000E00DF11D1124EB5FFD4F10820AC08D011F
:10112000080F191FF801D08201968830910539F710
:1011300018E01F5FC69FF001C79FF00D1124E10F5B
:10114000F11DEB5FFD4F1082DF5FD33030F2D093A3
:10115000030280910302833028F083E392E00E942F
:10116000C91305C083E392E00E94C9138DCF61E0EB
:1011700080EF94E00E94DA1FC12C29E0A22E80911A
:101180000302C81608F07CC0AC9CE0011124CB5FC0
:10119000DD4FBE018FE091E00E94233266E471E0F2
:1011A0008FE091E00E941832CC20B1F0F1E0CF1234
:1011B0000DC004E125E147E169E180EF94E00E9480
:1011C000282089E1D82E9BE1B92E0FC002E0C0167D
:1011D00041F0D12CB12C09C013E0D12E04E0B02E87
:1011E00004C0A9E1DA2EB7E3BB2E02E123E14D2DC5
:1011F0006B2D80EF94E00E94282003E124E14FEF63
:101200004D0D6FEF6B0D80EF94E00E942820FAE106
:10121000EF2EF12C0FE011E022E143E16D2D8B2D3B
:101220000E94900581112AC013E01B0D1093F90450
:1012300082E08D0D8093FA0444E050E0BE018AE024
:1012400091E00E942A326AE071E080EF94E00E940F
:101250006E2E1093F90488E08D0D8093FA04BE0180
:101260006C5F7F4F44E050E08AE091E00E942A32B8
:101270006AE071E080EF94E00E946E2EC3947FCF0D
:10128000DF91CF911F910F91FF90EF90DF90CF9062
:10129000BF90AF900C94A907CF93DF93EC0187EC3C
:1012A00090E00E944E0580EF94E00E94921FC115CD
:1012B00084E0D8075CF4CE010E945332882321F0E9
:1012C00060E0CE010E945B322196F1CFDF91CF9199
:1012D0000895DF92EF92FF920F931F93CF93DF93C6
:1012E00066E272E08FE091E00E942332EFE0F1E0ED
:1012F0008081803209F41082319681E0E731F8076D
:10130000B9F760E571E08FE091E00E94183241E0AA
:101310006FE071E083E392E00E943004882309F4D7
:1013200040C084EB90E00E944E0580EF94E00E9464
:10133000921FD12CF12C40E850E06BE771E083E381
:1013400092E00E9434108C01181619060CF5CD2D70
:10135000DF2DEC2EED18F12CE016F1069CF5CE01F8
:101360000E945332F701E558FE4F6081482F50E04C
:10137000262F332727FD30954217530719F0CE014A
:101380000E945B322196C11584E0D80714F31AC07D
:101390002D2D3F2D232BC9F489EA90E00E944E05A4
:1013A00014C08BE990E00E944E05D12CF12C8D2DBC
:1013B0009F2DDF91CF911F910F91FF90EF90DF90C4
:1013C0000C944C09DC2EFD2EB6CF83E392E00E94F4
:1013D000C913EDCF6091040289E0689FB001112428
:1013E0006B5F7D4F86E292E00E9423320E94B6043A
:1013F0000E9469090E949206811107C084E18093CE
:10140000FA0486E292E00E945F058FE091E00E947C
:101410003D058AEF90E00E944E0580EF94E00E9427
:10142000921F86E292E0EEEFFFE30994FF920F93A2
:10143000CF93DF930E94CA06ACE0FA2EC2E2D0E05E
:1014400082EA94E00E9401268823D1F365E08CEAC9
:1014500094E00E943D1F811107C066E08CEA94E091
:101460000E943D1F882341F087EC94E0DF91CF91EB
:101470000F91FF900C94D52B64E08CEA94E00E94CD
:101480003D1F882331F087EC94E00E94D52B0E9409
:10149000EA0961E08CEA94E00E943D1F81110EC0D0
:1014A0008091B4048B3008F4BDC043E061E08CEA65
:1014B00094E00E94461F882309F4B4C0609178012B
:1014C00080917701860F81500E94103190937701AF
:1014D000892F90E00E944C06F0927401809178016F
:1014E000823008F462C080917401882309F45DC0E1
:1014F00081508093740160E0811117C080EF94E007
:101500000E94DA1F02E225E047E06FE480EF94E0FA
:101510000E94502061E080EF94E00E94DA1F8091E9
:10152000770190E00E944C0640C080EF94E00E945A
:10153000DA1F02E225E047E06FE480EF94E00E94CA
:10154000502061E080EF94E00E94DA1F00E521E086
:1015500047E060E580EF94E00E94282003E521E069
:1015600047E063E580EF94E00E9428202091780115
:1015700030E040917701CE01B9010E9430316330F3
:10158000710514F463E070E001E0060F52E2459F3C
:10159000C0011124B9010E94303147E0460F23E019
:1015A00061E580EF94E00E94502080917A0187FFEE
:1015B00033C028E030E040E050E063E070E080E0DD
:1015C00090E00E947F2F60937A018091790191E0F1
:1015D00089278093790160E080EF94E00E94DA1F10
:1015E00009E12CE140E060E080EF94E00E945020AF
:1015F00061E080EF94E00E94DA1F809179018823F6
:1016000019F027EB31E002C021E531E040E060E075
:1016100080EF94E00E94F82180917A0181508093BC
:101620007A010ECF63E08CEA94E00E943D1F8111A5
:101630000EC08091B6048B3008F450CF43E063E0D5
:101640008CEA94E00E94461F882309F447CF8091DA
:1016500077018F5F6091780137CFEF92FF920F9300
:101660001F93CF93DF93C0E0D0E0CE010E945332AE
:1016700081110FC02196C11584E0D807B1F786E823
:1016800090E0DF91CF911F910F91FF90EF900C941C
:101690004E0566E272E08FE091E00E94233260E541
:1016A00071E08FE091E00E9418328AE790E00E949A
:1016B0004E0543E46FE071E083E392E00E94300462
:1016C000811103C088E690E0DCCFC0E0D0E00BE7FA
:1016D00011E0FE01EB57F1407F01F1E00B3F1F07E6
:1016E00049F0C701800F911F0E945332F801819386
:1016F0008F01F3CF40E850E06BE771E083E392E0C5
:101700000E945714C058DF4FC11584E0D807F9F67E
:1017100083E392E00E94C9138EE690E00E944E059A
:1017200080EF94E0DF91CF911F910F91FF90EF90A8
:101730000C94921F6DE172E082EA94E00E943E28D0
:101740001092BA0480EF94E00E94811F81E08093A0
:10175000F6042AE533E04CE060E080EF94E00E947C
:10176000F8218AE391E00E943D0580EF94E00E9419
:10177000921F24E04AE061EA74E08AE994E00E9462
:10178000F90D882309F496C08AE794E00E94C913F2
:1017900061E083E592E00E94171D882351F063E524
:1017A00072E08AE794E00E941A10882309F482C04C
:1017B00008C060E083E592E00E94171D8111EFCF21
:1017C00079C080917A04807709F474C08AE794E044
:1017D00090932C0580932B05E2E8F7E7E491E093E2
:1017E0002602E3E8F7E7E491E0932702E4E8F7E76D
:1017F000E491E0932802E5E8F7E7E491E093290219
:10180000E6E8F7E7E491E0932A02E7E8F7E7E491F6
:10181000E0932B02E8E8F7E7E491E0932C02E9E893
:10182000F7E7E491E0932D02E6E2F2E08081803276
:1018300009F41082319682E0EE32F807B9F7809110
:101840002602882321F00E942D0B0E94B60461E03D
:1018500083E592E00E94390441E06AE774E083E3A3
:1018600092E00E941113882391F00E94920788232E
:1018700049F08091240290912502019690932502CF
:101880008093240283E392E00E94C913E5CF809104
:10189000240290912502019763E070E00E943031AC
:1018A0006F5F7F4F70932302609322021092F704C0
:1018B0000C94290886E291E00E943D0580EF94E0B7
:1018C0000E94921FFFCF82EA94E00E94BC280C94F1
:1018D0009A0B82EA94E00E940126882309F46FC0E3
:1018E00066E08CEA94E00E943D1F81110E949A0BF1
:1018F00064E08CEA94E00E943D1F882341F087EC6D
:1019000094E00E94D52B0E94160A0E94290843E009
:1019100062E08CEA94E00E94461F8823A1F02091A7
:10192000200230912102809124029091250201979A
:101930002817390744F42F5F3F4F3093210220933B
:1019400020020E94290843E063E08CEA94E00E94B0
:10195000461F43E060E08CEA94E00E94461F882323
:1019600071F08091200290912102181619063CF422
:10197000019790932102809320020E94290843E05E
:1019800061E08CEA94E00E94461F61E080EF94E001
:101990000E94DA1F8091130590911405A0911505FE
:1019A000B091160587709927AA27BB270497A10530
:1019B000B10528F060E080EF94E00C94DA1F089500
:1019C0001092F3041092F20489E691E09093F104EE
:1019D0008093F0041092580210927A0410927B04C3
:1019E00089E180939D041092A00481E691E0909398
:1019F00054028093530210923302109234021092D8
:101A000032021092310289E591E090933002809386
:101A10002F02089590E022E0281740F0892F806A75
:101A200086958CBD909591709DBD08959730B0F7C7
:101A3000220F953010F431E001C032E0930FECCF6B
:101A40008FEF8EBD0DB407FEFDCF8EB508958EBD10
:101A50000DB407FEFDCF089561E0FC0182810E9474
:101A6000B22D8FEF0C94270DCF93DF93EC018C8177
:101A70000E940A0D60E08A81DF91CF910C94B22D13
:101A8000CF92DF92EF92FF920F931F93CF93DF934A
:101A9000EC018B017A010E94422C6B010E94200D07
:101AA0008D838F3F49F40E94422C6C197D096D3261
:101AB0007140A0F381E103C08E3F39F08FE08B834A
:101AC000CE010E942C0D80E028C0E114F104E1F069
:101AD00081E0E81AF1088FEF8EBDF8012FEFCF01FA
:101AE000801B910B8E159F0538F40DB407FEFDCFBA
:101AF0008EB52EBD8193F3CF0DB407FEFDCF8EB50D
:101B0000F801EE0DFF1D80831D820E94200D0E94B2
:101B1000200DCE010E942C0D81E0DF91CF911F910D
:101B20000F91FF90EF90DF90CF9008950F931F9348
:101B3000CF93DF93EB010E94422C8B010E94200D7A
:101B40008F3F49F00E94422C601B710B6C177D0780
:101B5000A8F380E001C081E0DF91CF911F910F9148
:101B60000895FF920F931F93CF93DF9300D000D07F
:101B7000CDB7DEB78C01F62E29833A834B835C8385
:101B80000E94340D68E572E0C8010E94960D8F2D09
:101B900080640E94270D8C810E94270D8B810E94FA
:101BA000270D8A810E94270D89810E94270DF1103F
:101BB00002C085E901C087E80E94270D8CE0F81279
:101BC00002C00E94200DF12C0E94200DF801858397
:101BD00087FF05C0FFEFFF1611F0F394F5CF0F90CC
:101BE0000F900F900F90DF91CF911F910F91FF9069
:101BF0000895BF92CF92DF92EF92FF920F931F93BF
:101C0000CF93DF93EC01B22E1E821B82798368830F
:101C10004A830E94422C8B0161E08A810E94792DC7
:101C200061E08A810E94B22D2A9A229A239A259AEB
:101C300080E48C830E940A0D2AE0F22E8FEF0E942E
:101C4000270DFA94D9F720E030E0A90160E0CE0139
:101C50000E94B10D813049F00E94422C601B710B33
:101C6000613D774080F381E051C02AEA31E040E0F5
:101C700050E068E0CE010E94B10D853011F481E0A2
:101C80000AC094E0F92E0E94200D8D83FA94D9F7B2
:101C90008A3A59F482E08E838E81823079F4C12CA5
:101CA000D12CE12C80E4F82E0CC00E94422C601B49
:101CB000710B613D7740C8F282E028C0C12CD12C65
:101CC000760120E030E0A90167E3CE010E94B10D6A
:101CD000A701960169E2CE010E94B10D882349F067
:101CE0000E94422C601B710B613D774050F38AE0EB
:101CF0000DC08E818230E9F420E030E0A9016AE372
:101D0000CE010E94B10D882339F088E08B83CE018B
:101D10000E942C0D80E012C00E94200D807C803C2F
:101D200011F483E08E830E94200D0E94200D0E94FA
:101D3000200DCE010E942C0DBC8281E0DF91CF915D
:101D40001F910F91FF90EF90DF90CF90BF9008957B
:101D50000F931F93CF93DF93EC0189018E81833022
:101D600039F039E0440F551F661F771F3A95D1F7B8
:101D70009A01AB0161E1CE010E94B10D81110AC04F
:101D800040E052E0B801CE01DF91CF911F910F9159
:101D90000C94400D84E08B83CE010E942C0D80E0DA
:101DA000DF91CF911F910F9108950F931F93CF93C0
:101DB000DF93EC01862F8A010E94270DF8018081B4
:101DC0008EBD818122E030E00DB407FEFDCF8EBDD7
:101DD0002115F2E03F0739F0F801E20FF31F80818F
:101DE0002F5F3F4FF1CF0DB407FEFDCF8FEF0E9465
:101DF000270D8FEF0E94270D0E94200D8D838F717C
:101E0000853039F083E18B83CE010E942C0D80E078
:101E100001C081E0DF91CF911F910F9108950F9341
:101E20001F93CF93DF93EC0189018E81833039F0CA
:101E300089E0440F551F661F771F8A95D1F79A01D5
:101E4000AB0168E1CE010E94B10D882319F086E054
:101E50008B830CC0A8016EEFCE010E94D50E182F07
:101E6000882321F0CE010E942C0D04C0CE010E94D7
:101E70002C0D10E0812FDF91CF911F910F910895CC
:101E8000FC018281806882839F01245F3F4F4485EB
:101E9000558566857785868197810C94281C9F924D
:101EA000AF92BF92CF92DF92EF92FF920F931F9368
:101EB000CF93DF93EC01888185FF02C0912C5EC037
:101EC00088899989AA89BB8981159E4FAF41B1053F
:101ED000A8F7CE010E94400F982E882379F34C85F5
:101EE0005D856E857F858E819F810E943F1B6B0182
:101EF0007C018E819F8125E0B701A60180960E941A
:101F0000FD1A5C010097D1F280E092E0F5019C019E
:101F1000119221503040E1F711E0AE81BF8112965D
:101F20000C9112971017A0F4ED91FC91119702807B
:101F3000F381E02D9501B701A601410F511D611DEF
:101F4000711DCD010995882309F4B8CF1F5FE5CF36
:101F500010E020E030E089E0000F111F221F331F46
:101F60008A95D1F7488959896A897B89400F511F21
:101F7000621F731F488B598B6A8B7B8B892DDF9176
:101F8000CF911F910F91FF90EF90DF90CF90BF9076
:101F9000AF909F900895CF93DF93EC01262F4C894B
:101FA0005D896E897F898E819F8180960E94FD1A4E
:101FB0009C01009761F08C819D818F70992745E08D
:101FC000880F991F4A95E1F7820F931F02C080E0A6
:101FD00090E0DF91CF910895CF93DF93DC01FC0176
:101FE00090E048E080E05EE220812032C1F098304D
:101FF00031F4EB01C80FD11D58838F5F40E1208180
:102000003FEB320F3A3130F41C963C911C9734234D
:1020100009F0205EEB01C80FD11D28838F5F9F5F01
:1020200031969B3009F7FB01E80FF11D1082DF911B
:10203000CF910895FC018081811114C080E2DF01FD
:10204000982F1D929A95E9F777836683DB011596A1
:102050009C91903119F0903229F480E4808381E0E2
:102060008283089580E008952F923F924F925F926D
:102070006F927F928F929F92AF92BF92CF92DF9298
:10208000EF92FF920F931F93CF93DF9300D000D076
:10209000CDB7DEB79C838B834B017A01DC018C9139
:1020A000882309F112969C9190FF1DC027C0D38010
:1020B000D822A114B10409F09CC0D1109AC0452BBC
:1020C000462B472B09F47EC0AB81BC811C964D91F9
:1020D0005D916D917C911F9729813A81CF010E947A
:1020E000571B87FF7EC0AB81BC8111968C911197E5
:1020F000826011968C938FEF9FEFE3C083FF17C030
:10210000EB81FC81808D918DA28DB38D40895189A9
:1021100062897389841B950BA60BB70BA70160E03E
:1021200070E0481759076A077B07D0F018C085FF91
:1021300017C0AB81BC811696ED91FC9117978681F3
:10214000978155E0880F991F5A95E1F750962D9188
:102150003C915197821B930B8E159F0508F47C01CF
:102160008701EB81FC813C96FA83E983612C42E094
:10217000742E0115110509F468C0AB81BC8150961D
:102180004D915D916D917C9153975A01B1E0BB22C5
:10219000EB81FC8120810680F781E02DDB01CA0103
:1021A00039E0B695A795979587953A95D1F725FF8C
:1021B0007ECF448D558D668D778D480F591F6A1FD0
:1021C0007B1F2BC026FD02C0EB81FC81848D958D89
:1021D000A68DB78DEB81FC8184879587A687B7870D
:1021E00008C0811106C0EB81FC818081807769F590
:1021F0007ACFAB81BC811C964D915D916D917C91A4
:102200001F9716968D919C9117970E943F1BAB01CB
:10221000BC014D0D511D611D711DEB81FC8186813D
:102220009781A114B104B1F50115F2E01F0790F1F7
:10223000DC0193962D903D904D905C9096974215C1
:1022400053056405750529F425C0C701801B910B52
:1022500038C0DC01ED91FC910190F081E02D9401FA
:102260000995882309F43FCFC12CF2E0DF2E8C0CB6
:102270009D1CEB81FC8180899189A289B3898C0D99
:102280009D1DA11DB11D808B918BA28BB38B0C1951
:102290001D096FCF93012A193B09680120173107E7
:1022A00008F4690120E080960E94FD1A009709F465
:1022B0001ACFBC016A0D7B1DA601C4010E940F321A
:1022C000D6CF0F900F900F900F90DF91CF911F916D
:1022D0000F91FF90EF90DF90CF90BF90AF909F90C5
:1022E0008F907F906F905F904F903F902F900895C8
:1022F000FF920F931F93CF93DF931F92CDB7DEB75B
:102300008C01262FFC014089518962897389DB0188
:10231000CA01E5E0B695A79597958795EA95D1F717
:10232000F82FFF70FF2E11F0211117C041E050E08F
:10233000BE016F5F7F4FC8010E943410813019F0D9
:1023400080E090E01CC0F80140895189628973895E
:10235000415E5F4F6F4F7F4F05C0405E5F4F6F4FD5
:102360007F4FF801408B518B628B738BF801868114
:1023700097818796F0E2FF9E800D911D11240F90AA
:10238000DF91CF911F910F91FF9008954F925F922F
:102390006F927F928F929F92AF92BF92CF92DF9275
:1023A000EF92FF920F931F93CF93DF93EC016A019B
:1023B0007B014C845D846E847F84A881AA2309F408
:1023C0008CC0411551056105710529F41C861D86D7
:1023D0001E861F867CC0A3FF0BC0488D598D6A8D59
:1023E0007B8D4C155D056E057F0508F476C014C025
:1023F000A5FF12C0EE81FF8186819781F5E0880FED
:10240000991FFA95E1F7A0E0B0E084179507A607B9
:10241000B70708F462C05BC0088919892A893B891B
:10242000EE81FF81848190E00996B901A8014150B5
:10243000510961097109082E04C076956795579571
:1024400047950A94D2F746015701B1E08B1A9108DB
:10245000A108B10804C0B694A794979487948A956C
:10246000D2F784169506A606B70620F0012B022B9C
:10247000032B81F4A6FF05C0848D958DA68DB78DA5
:1024800004C08C8D9D8DAE8DBF8D8C879D87AE8752
:10249000BF8704C0841A950AA60AB70A8E01045F92
:1024A0001F4F81149104A104B10489F04C855D850E
:1024B0006E857F8598018E819F810E94571B91E0D8
:1024C000891A9108A108B10818165CF306C0C88AD9
:1024D000D98AEA8AFB8A81E005C04C865D866E86D1
:1024E0007F8680E0DF91CF911F910F91FF90EF9059
:1024F000DF90CF90BF90AF909F908F907F906F9024
:102500005F904F9008958F929F92AF92BF92FF92EB
:102510000F931F93CF93DF93EC01F22E80E2DE0145
:102520001D928A95E9F7FB01868197819F838E83AF
:102530005D834C83848C958CA68CB78C8886998619
:10254000AA86BB86FC01B7964F705527B5E0440FAD
:10255000551FBA95E1F7E40FF51F338533FF03C02C
:10256000188280E054C0377138832385287111F4B4
:10257000386038830B832F2D227319F02881217145
:1025800079F72F2D2F702A83DC0193964D915D9161
:102590006D917C9196974C8B5D8B6E8B7F8B448974
:1025A000558960E070E0BA0155274427028D138DEC
:1025B00020E030E0402B512B622B732BF4FE0AC03D
:1025C0004115510561057105E9F00E94CA1C811190
:1025D00019C0C6CF4C8F5D8F6E8F7F8F448D558D08
:1025E000668D778D488F598F6A8F7B8FF5FE0EC071
:1025F000488D598D6A8D7B8DCE010E94C611811147
:1026000005C0AECF8A8180688A83F0CF81E0DF91F8
:10261000CF911F910F91FF90BF90AF909F908F909F
:1026200008958F929F92AF92BF92DF92EF92FF92A6
:102630000F931F93CF93DF937C01EB01D42EFC010A
:102640008081811138C088818077A9F10889198932
:102650002A893B890F71112722273327012B022B4F
:10266000032B49F500E010E088889988AA88BB8888
:1026700060E0CE010E9478110097E9F0FC01208112
:102680002223C9F02E3211F400E0EECF253EE1F313
:10269000338533FD07C0002381F00E94BD15181358
:1026A0000AC00BC03F3081F726FFDECF022F0F712B
:1026B000FC011585D9CF80E00EC0B501A40115E05D
:1026C00076956795579547951A95D1F72D2DBE01AB
:1026D000C7010E948312DF91CF911F910F91FF904C
:1026E000EF90DF90BF90AF909F908F9008950F93E1
:1026F0001F93CF93DF93EC018881882309F443C0B3
:102700008A8187FF38C061E0CE010E94CB0F8C0127
:10271000009729F489818160898380E035C0FC01BC
:102720008081853EB9F3888183FF08C0488D598D2B
:102730006A8D7B8D448F558F668F778F4C8D5D8D25
:102740006E8D7F8DF801538F428F758B648BE09176
:102750002905F0912A05309759F0B8016A5E7F4F3C
:10276000C80148960995F801808D918D938B828BD5
:102770008A818F778A838E819F8180960E94AA1A90
:10278000882341F201C081E0DF91CF911F910F9129
:102790000895CF93DF93EC010E9477131882DF91A5
:1027A000CF910895CF92DF92EF92FF920F931F93F4
:1027B000CF93DF93CDB7DEB7E3970FB6F894DEBFC4
:1027C0000FBECDBF8C017B015BAB4AABD22E198211
:1027D0001A82FC018081882311F080E059C0FB013E
:1027E00080818077D1F3EAA9FBA980818F32D9F467
:1027F000EAA9FBA980818F3221F43196FBABEAABC9
:10280000F7CFF70166817781811104C0C8010E946A
:102810001A103EC0CE0101960E941A108823E9F2D8
:10282000CE0101967C0150E2C52EAE014E5C5F4F99
:10283000BE016F5D7F4F8AA99BA90E94C2168823A3
:1028400061F2EAA9FBA980818823D1F021E0AE01E1
:102850004F5D5F4FB701C8010E944318882309F4F8
:10286000BCCFF801DE0111968C2D01900D928A9556
:10287000E1F7C8010E94C913FE0131967F01D5CF4F
:102880002D2DAE014F5D5F4FB701C8010E94431867
:10289000E3960FB6F894DEBF0FBECDBFDF91CF91A8
:1028A0001F910F91FF90EF90DF90CF9008952F929E
:1028B0003F924F925F926F927F928F929F92AF92D0
:1028C000BF92CF92DF92EF92FF920F931F93CF931D
:1028D000DF93EC015B014A01888183FF0EC08A818E
:1028E00081FF0BC082FF0FC0488D598D6A8D7B8D93
:1028F000CE010E94C611811106C089818160898341
:102900008FEF9FEF06C1A40160E070E0888999898C
:10291000AA89BB8980959095A095B0958417950755
:10292000A607B70750F364011E012CE0220E311CEC
:10293000488959896A897B89C114D10409F4C7C0BF
:102940008E819F812A013B0129E0769467945794F8
:1029500047942A95D1F7DC0113961C9114217A0132
:10296000B1E0FB22111134C0E114F10489F54C856A
:102970005D856E857F85411551056105710569F09D
:1029800091010E94571B87FDB8CF811121C0CE0154
:102990000E94400F81111CC0B0CF8C8D9D8DAE8DDB
:1029A000BF8D0097A105B10579F4CE010E94400FBB
:1029B000882309F4A2CF8C859D85AE85BF858C8F39
:1029C0009D8FAE8FBF8F04C08C879D87AE87BF87DA
:1029D0004C855D856E857F858E819F810E943F1B22
:1029E000AB01BC01410F511D611D711DEE81FF81C5
:1029F000E114F10421F4C11422E0D206B8F580E01C
:102A000092E08E199F0986018C159D0508F48C01B2
:102A1000E114F10479F4488859886A887B88888DA4
:102A2000998DAA8DBB8D481659066A067B0610F053
:102A300025E001C021E0CF0180960E94FD1A009799
:102A400009F45BCFA801B5018E0D9F1D0E940F32C6
:102A5000E00EF11EE11482E0F80641F58E819F81BF
:102A600080960E94AA1A811121C047CF83A194A108
:102A7000A5A1B6A184179507A607B70741F410A230
:102A80008FEF9FEFDC0183A394A3A5A3B6A38E8150
:102A90009F81DC01ED91FC910280F381E02D950195
:102AA0000995882309F429CF00E012E088899989E3
:102AB000AA89BB89800F911FA11DB11D888B998B9D
:102AC000AA8BBB8BA00EB11EC01AD10A31CF888D44
:102AD000998DAA8DBB8D2A8184179507A607B70704
:102AE00028F4488F598F6A8F7B8F06C08091290503
:102AF00090912A05892B11F020682A838A8183FD11
:102B000002C0C40106C0CE010E9477138111F9CF23
:102B1000F4CEDF91CF911F910F91FF90EF90DF9056
:102B2000CF90BF90AF909F908F907F906F905F906D
:102B30004F903F902F900895653040F4FC01E60FD0
:102B4000F11DE60FF11D8181928108956B3040F4F3
:102B5000FC01E60FF11DE60FF11D848195810895BA
:102B6000613140F4FC01E60FF11DE60FF11D868195
:102B70009781089580E090E00895FC0190E080E066
:102B800080FB879587F92191820F9F5F9B30C1F76A
:102B90000895CF93DF93FC01DB0118964D915D9171
:102BA0006D917C911B97452B462B472B41F4169634
:102BB0006D917C911797DF91CF910C941A1080E260
:102BC000EF0119928A95E9F780E1808381E08283A1
:102BD00016968D919C9117979783868318964D91A1
:102BE0005D916D917C911B97448F558F668F778F88
:102BF00081E0DF91CF9108952F923F924F925F92A3
:102C00006F927F928F929F92AF92BF92CF92DF92FC
:102C1000EF92FF920F931F93CF93DF93CDB7DEB761
:102C2000A1970FB6F894DEBF0FBECDBF8C016B012C
:102C30005A0119821A82FC018081811104C0F601B7
:102C40001082412C85C04D305105C8F3F8018381B5
:102C5000811106C0B601C8010E948F1A482E78C0A3
:102C6000B801CE0101960E94C915882341F355246D
:102C7000539446018A0C9B1C21E0821A9108F801AA
:102C800083818515E0F2652C712CF8014481558112
:102C90004619570960E070E085E0440F551F661F34
:102CA000771F8A95D1F7CE0101960E94C611482E52
:102CB000882329F260E0CE0101960E9478117C0100
:102CC000009709F4BCCFFC0183858F3009F0B7CFA2
:102CD00080818F7190E06816790609F0B0CFC3014A
:102CE0000197FDE0F89F3001F99F700C1124160147
:102CF000260C371C50E0652FC70159A30E949C1574
:102D000059A1009791F06A147B04D0F42FEF621A56
:102D1000720A8F37910510F4282F01C02FE3F101BB
:102D200021931F015F5F5D3031F76A147B0440F42B
:102D3000F701808186FF04C0F601E60DF71D1082C1
:102D4000F4011082F701808186FD02C0539497CF71
:102D5000842DA1960FB6F894DEBF0FBECDBFDF91D4
:102D6000CF911F910F91FF90EF90DF90CF90BF9088
:102D7000AF909F908F907F906F905F904F903F901B
:102D80002F900895CF92DF92EF92FF920F931F93AF
:102D9000CF93DF93FB01DC0101962C912032D9F314
:102DA000B483A383ED01BE016A1B7B0B8991811162
:102DB00005C0CD01860F971FEC0118C08F32C9F3F3
:102DC0008C3511F480E0D0C0982F977F9232D1F3E8
:102DD0008A33C1F3982F9F7B9C33A1F392EC980F19
:102DE000923080F380528F35F0F2ECCF1C2F3D2FC4
:102DF00029912032D9F32F32C9F3EA01188339839C
:102E0000EC016115710561F08A918E3211F080320A
:102E100019F461507109F5CF6F3F710509F094F60F
:102E20007283618380E090E020E2EF01C80FD91F38
:102E30002E8301968B309105C1F7ED01CE018A1BDF
:102E40009B0B29912E32D1F32032C1F351E0009730
:102E500009F050E09B012150310938F407E010E0FF
:102E6000C12CF12CC8E0EC2E0FC0ED01C20FD31F16
:102E700048814E3281F7F2CFED01C80FD91F48814A
:102E8000403231F450E0019686179707ACF343C007
:102E90004E3221F428173907A9F704C04232A1F0B5
:102EA0004C3791F0C6EDC40FC63010F44D3261F4CA
:102EB000C6ECC40FC63040F0C5EAC40FC33020F0E2
:102EC000CFEDC40FCE3530F08217930709F150E0F3
:102ED0004FE503C082179307D9F00117D0F1CFE96E
:102EE000C40FCA3118F44052FE2805C0CFEBC40FFE
:102EF000CA3108F4CE28DD24D394D10EEF01C10FDE
:102F0000D11D4E8346E04D1508F0D5821D2DBBCF57
:102F10000A30C9F450E08681803209F453CF55233A
:102F200039F0CF2011F082E001C08F2D808309C0DD
:102F300081E080838581E80FF11D8EE7868381E340
:102F4000878381E011C0C9010AE018E040E1E42E66
:102F50009ACF0A30F9F228173907E4F2C9010AE0DA
:102F600018E050E1E52E8ECFDF91CF911F910F91A8
:102F7000FF90EF90DF90CF900895AF92BF92CF92E5
:102F8000DF92EF92FF920F931F93CF93DF937C0119
:102F9000EB01AD8002E010E07EE7B72E6E0186E027
:102FA000C80ED11C89819A819801280F391FEB81A5
:102FB000FC81AF01480F591FE417F50779F0C901EB
:102FC00065E0880F991F6A95E1F7820F931F2191A1
:102FD000332727FD309528273927EECFE3E0EA1580
:102FE00010F453E0A52E84E08A0D922F9F70E82FF5
:102FF000F0E09A3010F4905D01C0995CEC0FFD1F79
:10300000968344E0369527954A95E1F78150A816B6
:1030100060F3FE01EA0DF11DB68240E050E0BA0116
:10302000C7010E94C61161E0C7010E947811BC016E
:10303000009731F481E0F70191819923C9F017C01D
:10304000FC018081882359F0838583FDECCF4BE020
:1030500050E0C6010E940232892B29F702C081E0AC
:1030600007C00F5F1F4F0436110509F09BCF80E0AA
:10307000DF91CF911F910F91FF90EF90DF90CF9054
:10308000BF90AF9008952F923F924F925F926F92B0
:103090007F928F929F92AF92BF92CF92DF92EF92E8
:1030A000FF920F931F93CF93DF93CDB7DEB72B978C
:1030B0000FB6F894DEBF0FBECDBF3C017B876A8799
:1030C0007A012A83DA0111968D909C901297FB0168
:1030D0008081807711F480E0F3C1D3018C9181115C
:1030E000FACFFA018081837009F4E1C1C4010C9622
:1030F0006DE070E00E941C3155245394560E40E060
:1031000050E0BA018A859B850E94C6111C821D82EF
:103110001982412C10E000E01B821701B6E02B0E53
:10312000311CAA85BB8550962D913D914D915C91A6
:10313000539765E056954795379527956A95D1F74A
:10314000590161E0CD0128873E8349875F830E9452
:1031500078116C0128853E81009739F4EA85FB855A
:103160008181882309F488C0B6CFDC018C91853E2B
:1031700011F081110AC0111102C02C833D83151575
:1031800008F41F5F811104C077C0151528F005C031
:10319000853E19F400E0C5CF10E08E32D9F3F60178
:1031A00093859F3009F046C0011108C086FFB9CF52
:1031B000082F0F7125852983402E07C04A9484115A
:1031C000E9CF858529812813E5CF842D90E00197EB
:1031D000ADE0A89F5001A99FB00C1124A814B90418
:1031E000C8F620E0622FC60128870E949C1528851A
:1031F000A814B90419F4892B69F693CF8F3F910570
:1032000009F040F63FEB380F3A3108F4805EA50133
:103210004F5F5F4FD7011396ED91FC911497EA0D24
:10322000FB1D90813FEB390F3A3108F4905E891312
:10323000B1CF40C193FDAECF002351F0B1E04B12AE
:103240004ACFC6010E94BD152981821344CF10C008
:103250004BE050E0B101C6010E940232892B09F017
:1032600060CFD7018C9180FF03C021E02B8359CF21
:103270002A8127FF14C12FCF8A818274823409F0FA
:103280002ACF112359F0AC80BD8008C060E08A8548
:103290009B850E947811892B21F01F5F1515B0F3D3
:1032A00018C0AA85BB8511968C91882391F013CF05
:1032B0008A859B850E944F0F882309F40CCFAA852D
:1032C000BB851696ED91FC9117978281823018F498
:1032D000105F151568F32B81222341F0B7018A8511
:1032E0009B850E94BD17882309F4F5CEA50160E0F7
:1032F00070E025E0440F551F661F771F2A95D1F710
:103300008A859B850E94C611882309F4E4CE0FEFBD
:10331000050D102F8FE0482E670186E0C80ED11CE6
:103320009DE0592E49C060E08A859B850E947811F6
:103330005C01009709F4CFCEAA85BB851696ED9166
:10334000FC91179780A1816080A3412F101301C0C9
:103350004064F501408343861486C60149870E9474
:10336000BD15D5011D968C931D975B961C921E92E0
:103370005A97F7012381348149854F7150E04150BC
:103380005109549EC001559E900D1124F50160E035
:1033900088159905A0F4D901A80FB91F4C9155279C
:1033A00047FD50956530B0F4528341836F5F0196BD
:1033B00032966D3069F711501111B5CF13C041E04D
:1033C00050E08815990511F440E050E05195419581
:1033D0005109E8CF6B3018F455834483E7CF578306
:1033E0004683E4CFEA85FB8580899189A289B389E8
:1033F00015E0B695A795979587951A95D1F75C0135
:1034000060E0CF010E9478116C01009709F463CE4F
:1034100080E2D6011D928A95E9F7F70136968BE096
:10342000D60101900D928A95E1F7F70180818871AC
:10343000D6011C968C93E0912905F0912A053097CE
:1034400039F0B601625F7F4FC6014096099509C009
:1034500081E298E2F601918B808B80E098E097877B
:103460008687D60150968D919C91519753969C9347
:103470008E93529759969C938E9358971E968D9142
:103480009C911F9757969C938E935697AA85BB85C0
:103490001696ED91FC91179780A1816080A32A81F7
:1034A000A5016A857B85C3010E94831209C055244A
:1034B000539425CE2F5F2D3009F433CE5A0192CE8E
:1034C0002B960FB6F894DEBF0FBECDBFDF91CF9124
:1034D0001F910F91FF90EF90DF90CF90BF90AF9032
:1034E0009F908F907F906F905F904F903F902F9024
:1034F00008956115710581F0DB010D900020E9F759
:10350000AD0141505109461B570BDC01ED91FC9177
:103510000280F381E02D099480E090E00895CF933C
:10352000DF93EB01FC012081211102C080E00FC07C
:10353000207621F08FE28883198208C060E00E9423
:10354000CB0F009799F3BE010E94EC0F81E0DF9151
:10355000CF910895BF92CF92DF92EF92FF920F9397
:103560001F93CF93DF93EC01888180FF39C089815D
:103570009A818E01095F1F4FDC01ED91FC914B8117
:103580005C816D817E810280F381E02D9801099537
:10359000B82E811102C0B12C25C0888181FD04C0E4
:1035A00088818E7F88831EC0A981BA81ED91FC91AC
:1035B00011971C964D915D916D917C911F97CB80D9
:1035C000DC80ED80FE804C0D5D1D6E1D7F1D028038
:1035D000F381E02D9801CD0109958111E1CFDBCF79
:1035E000BB24B3948B2DDF91CF911F910F91FF904E
:1035F000EF90DF90CF90BF900895CF92DF92EF923F
:10360000FF921F93CF93DF93EC016A017B01122F8E
:103610004B815C816D817E814C155D056E057F055A
:1036200001F10E94AA1A811103C080E090E01FC03E
:1036300012FF06C01882CB82DC82ED82FE8211C0AE
:1036400089819A81DC01ED91FC910190F081E02D5E
:103650009E01295F3F4FB701A60109958111EACF6D
:10366000E4CF13708881812B8883CE010796DF9188
:10367000CF911F91FF90EF90DF90CF90089542502F
:10368000510961097109FC01048004C0440F551FF0
:10369000661F771F0A94D2F780899189A289B3891E
:1036A000480F591F6A1F7B1FCB01BA010895CF92A3
:1036B000DF92EF92FF920F931F93CF93DF93EC0172
:1036C0006A017B0189018D81803251F5E7E07695B1
:1036D000679557954795EA95D1F78C899D89AE896D
:1036E000BF89480F591F6A1F7B1F22E0CE018096B9
:1036F0000E94FD1A009711F48FEF40C0E894C7F8BC
:10370000DD24EE24FF24F601EE0FFF1FEE0FFF1F56
:10371000E80FF91F40815181628173817F701DC064
:10372000803151F74C895D896E897F894D0D511D1E
:10373000611D711D22E0CE0180960E94FD1A009746
:10374000D9F2DD24EE24FF24F601EE0FFF1FE80F6F
:10375000F91F4081518160E070E0888D998DAA8DBC
:10376000BB8D84179507A607B70738F0F80140838B
:1037700051836283738381E001C080E0DF91CF9148
:103780001F910F91FF90EF90DF90CF9008958F924F
:103790009F92AF92BF92CF92DF92EF92FF920F93E0
:1037A0001F936A017B0148015901FC0125812032E8
:1037B00031F517E076956795579547951A95D1F7A6
:1037C0000489158926893789400F511F621F731F8D
:1037D00023E080960E94FD1A009799F0E894C7F8BC
:1037E000DD24EE24FF24F601EE0FFF1FEE0FFF1F76
:1037F000E80FF91F80829182A282B3821DC020311E
:1038000011F080E01AC0FC014489558966897789E6
:103810004D0D511D611D711D23E080960E94FD1A02
:10382000009779F3DD24EE24FF24F601EE0FFF1F4D
:10383000E80FF91F9182808281E01F910F91FF9024
:10384000EF90DF90CF90BF90AF909F908F900895B2
:103850003F924F925F926F927F928F929F92AF9220
:10386000BF92CF92DF92EF92FF920F931F93CF936D
:10387000DF93CDB7DEB728970FB6F894DEBF0FBE43
:10388000CDBF9E838D832A013B0138872F8341154D
:1038900051056105710531F4FC0180849184A28495
:1038A000B38402C04A015B0175016401FFEFCF1AC6
:1038B000DF0AEF0AFF0AED81FE81808D918DA28DD6
:1038C000B38D8C159D05AE05BF0528F402E0C02E12
:1038D000D12CE12CF12C9E012F5F3F4FB701A601A7
:1038E0008D819E810E94571B87FD1DC0882341F05A
:1038F00089819A81AB81BC81892B8A2B8B2B31F0FA
:10390000C814D904EA04FB0489F60DC00FEF1FEFB9
:103910002FEF3FE0B701A6018D819E810E94C71B5A
:10392000382E811102C0312C1CC041145104610495
:10393000710459F097018601B301A2018D819E8126
:103940000E94C71B811107C0EECFED81FE81C086AA
:10395000D186E286F386EF81F885C082D182E28249
:10396000F382832D28960FB6F894DEBF0FBECDBF2D
:10397000DF91CF911F910F91FF90EF90DF90CF904B
:10398000BF90AF909F908F907F906F905F904F907F
:103990003F9008959F92AF92BF92CF92DF92EF92A5
:1039A000FF920F931F93CF93DF9300D000D0CDB73A
:1039B000DEB75C016A017B019E012F5F3F4FB701BB
:1039C000A601C5010E94571B982E87FF02C080E008
:1039D0001EC000E010E09801B701A601C5010E94D9
:1039E000C71B8823A1F3F501408551856285738546
:1039F000C416D506E606F70620F4C086D186E28610
:103A0000F386C980DA80EB80FC809110D5CF0F90CF
:103A10000F900F900F90DF91CF911F910F91FF901A
:103A2000EF90DF90CF90BF90AF909F900895CF928E
:103A3000DF92EF92FF920F931F93CF93DF93EC01EE
:103A4000162F1D8281E090E0A0E0B0E08887998782
:103A5000AA87BB87DAA3C9A318A28FEF9FEFDC0167
:103A60008BA39CA3ADA3BEA3662321F1653008F010
:103A7000BFC020E040E050E0BA01CE0180960E9435
:103A8000FD1A009709F4B4C0FC0100E1109FE00D9D
:103A9000F11D1124E255FE4F80818F7709F0A8C0F7
:103AA000C084D184E284F384C114D104E104F1041C
:103AB00021F49EC0C12CD12C760120E0B701A601D3
:103AC000CE0180960E94FD1AFC01009709F490C077
:103AD000838594858115924009F08AC0808982305F
:103AE00009F086C086859785892B09F481C03585C4
:103AF0003A838FEF830F8B831C8289E090E021E073
:103B0000321741F0019709F473C0220F4C814F5FC7
:103B10004C83F6CF468957894115510519F060E06D
:103B200070E004C044A155A166A177A14C875D87D0
:103B30006E877F878685978597018601080F191FF5
:103B4000211D311D0C8B1D8B2E8B3F8B8189928902
:103B50009F838E83440F551F661F771F400F511F91
:103B6000621F731F4C8F5D8F6E8F7F8FB5E0880F44
:103B7000991FBA95E1F781509E4F892F9927869515
:103B8000480F591F611D711D488B598B6A8B7B8BA8
:103B900083899489009719F0A0E0B0E004C080A167
:103BA00091A1A2A1B3A197018601041B150B260BBD
:103BB000370BB901A801480F591F6A1F7B1F0C80E2
:103BC00004C076956795579547950A94D2F7DB011F
:103BD000CA010196A11DB11D888F998FAA8FBB8F35
:103BE000453F1FE051076105710520F48CE08D838E
:103BF00080E012C0453F5F4F6105710510F480E120
:103C000009C084A595A5A6A5B7A58C8F9D8FAE8F5D
:103C1000BF8F80E28D8381E0DF91CF911F910F9163
:103C2000FF90EF90DF90CF900895CF93CFB7F894A7
:103C300080912D05811127C0E3E9F7E08491EFE73A
:103C4000F7E09491E82FF0E0EE0FFF1FEF54F84FEC
:103C5000A591B4918C91892321F461E08AE00E94BE
:103C6000B22D61E08AE00E94792D8CB580618CBD17
:103C70008CB580648CBD61E08DE00E94792D61E09F
:103C80008BE00E94792D80912D058F5F80932D050B
:103C9000CFBFCF91089521E0FC012083089570E00B
:103CA00085E00C94F12CAF92BF92CF92DF92EF920D
:103CB000FF920F931F93CF93DF93EC0189819A8139
:103CC0002FE0289F8001299F100D112485E10E947B
:103CD000D42C800F911F24E0969587952A95E1F7C3
:103CE0009A8389832881222391F1AC81AD80B12C04
:103CF000C12CD12CE885F9857F0100E010E06E81B0
:103D00007F819B0140E050E08617970728F0BC01B7
:103D1000E817F90708F4BF0180E090E01F921F92B6
:103D20001F92AF930E949B2F6B830F900F900F9069
:103D30000F9070E085E0DF91CF911F910F91FF9080
:103D4000EF90DF90CF90BF90AF900C94F12CDF916B
:103D5000CF911F910F91FF90EF90DF90CF90BF9088
:103D6000AF900895FC018CE39FE09383828384E00D
:103D7000818381E084870895CF93DF93EC018C8168
:103D80009D81892B81F18C858F7151F584E10E9491
:103D9000D42CBC01882777FD8095982F0E94113084
:103DA00026EE3FE34EEC50E40E949D300E94E32F4C
:103DB0009B017B836A836115710581F084E08983AF
:103DC000FE0140E0848195812817390710F449836A
:103DD0000AC04F5F32964430A9F702C08FEF898343
:103DE0008C858F5F8C87DF91CF910895FC0188E0EF
:103DF000808389E0818387E0828386E0838384E017
:103E0000848382E0858381E186830895DF92EF9247
:103E1000FF920F931F93CF93DF937C01EC0100E09F
:103E200010E0DD24DA9462E088810E94792D888197
:103E30000E94E82DF701E00FF11F892B21F4878103
:103E40008F5F878308C08781882349F08F3F11F4F3
:103E5000178201C0D78260E088810E94792D0F5FB0
:103E60001F4F219607301105F1F6DF91CF911F9179
:103E70000F91FF90EF90DF900895FC01E60FF11D88
:103E800081E09781913009F080E00895262F30E09D
:103E9000FC01E20FF31F8781423028F481508E3FEE
:103EA00048F080E008958F3FE1F3642F0E941031C5
:103EB0009130B9F781E008958EBD00000DB407FE82
:103EC000FDCF8EB508951F93CF93DF93EC01162F8E
:103ED000F89460E08F850E94B22D888918161CF432
:103EE00060E00E94B22D812F0E945C1F8889181605
:103EF0001CF461E00E94B22D7894DF91CF911F9164
:103F0000089528EF31E0EEE2F5E0DF01A9011D920E
:103F100041505040E1F7DC0119961C9219971A960E
:103F20001C920895DF92EF92FF920F931F93CF930D
:103F3000DF93EC018C858F5F8C878EE2E82E85E025
:103F4000F82ED12C6D2D6064CE010E94631F60E8B5
:103F5000CE010E94631F61E08F850E94B22D888987
:103F600018161CF460E00E94B22D00E010E0F7018A
:103F7000E00FF11F80810E945C1F0F5F1F4F04350F
:103F80001105A9F7888918161CF461E00E94B22D6A
:103F9000D39484E5E80EF11C86E0D812D3CF60E418
:103FA000CE01DF91CF911F910F91FF90EF90DF90A5
:103FB0000C94631FFC0160A361A30895FC0160A33E
:103FC00041A30895CF92DF92FF920F931F93CF9357
:103FD000DF931F92CDB7DEB76C01062FF42E10E0F1
:103FE000121754F4412F4F0D602FC60129830E94F0
:103FF0005E041F5F2981F4CF0F90DF91CF911F9155
:104000000F91FF90DF90CF900895CF92DF92FF92B3
:104010000F931F93CF93DF931F92CDB7DEB76C0141
:10402000062FF42E10E0121754F4612F600F4F2D5D
:10403000C60129830E945E041F5F2981F4CF0F907F
:10404000DF91CF911F910F91FF90DF90CF90089556
:10405000EF92FF920F931F93CF93DF93EC01F62E15
:10406000142FE22E0E9405204FEF400F410F2E2DFE
:104070006F2DCE010E940520202F412F6F2DCE01E4
:104080000E94E21F6FEF6E0D6F0D202F412FCE01AA
:10409000DF91CF911F910F91FF90EF900C94E21F51
:1040A000DF92EF92FF920F931F93CF93DF93EC0178
:1040B000E62ED22EF42E112707FD1095040F111DA8
:1040C00047FD1A958F2D992787FD909580179107A9
:1040D00044F42D2D4F2D6E2DCE010E940520F3941A
:1040E000F1CFDF91CF911F910F91FF90EF90DF9073
:1040F00008958F929F92AF92BF92CF92DF92EF92EC
:10410000FF920F931F93CF93DF93EC01E62ED42EF3
:10411000122FCC24C394C21AB22EB194BB0CF12C32
:10412000802F8470A82E802F8270982E802F887008
:10413000882E0170F1160CF04DC0C7FC04C0115060
:10414000B394B394CB0CF3948F2D880F8F5FC80E6C
:10415000AA2071F0412F4D0D6F2D6E0DCE010E94E2
:104160005E044F2D4D0D612F6E0DCE010E945E0439
:10417000992071F04D2D411B6F2D6E0DCE010E94C7
:104180005E044D2D4F19612F6E0DCE010E945E040D
:10419000882071F04F2D4D0D6E2D611BCE010E94B8
:1041A0005E04412F4D0D6E2D6F19CE010E945E04ED
:1041B000002309F4BFCF4D2D4F196E2D611BCE0189
:1041C0000E945E044D2D411B6E2D6F19CE010E9481
:1041D0005E04B0CFDF91CF911F910F91FF90EF90D0
:1041E000DF90CF90BF90AF909F908F9008958F9267
:1041F0009F92AF92BF92CF92DF92EF92FF920F9376
:104200001F93CF93DF93EC01B62EA42E122FDD2443
:10421000D394D21AC22EC194CC0CFF24F394802FD5
:104220008170882E992493949E0C02708FEF8F0DCD
:104230008117C4F5D7FC04C01150C394C394DC0C9F
:104240008F2D880F8F5FD80E882099F0212F220F95
:10425000290D4A2D411B6F2D6B0DCE010E94E21FCF
:1042600023E02E0D4A2D4F19612F6B0DCE010E94B8
:10427000E21F002399F0212F220F290D4A2D411B07
:104280006B2D6F19CE010E94E21F23E02E0D4A2DE7
:104290004F196B2D611BCE010E94E21FF394E39432
:1042A000E394C4CFDF91CF911F910F91FF90EF90D6
:1042B000DF90CF90BF90AF909F908F9008959F9286
:1042C000AF92BF92CF92DF92EF92FF920F931F9324
:1042D000CF93DF93EC01B62EF42EA22EDE2CD194D8
:1042E000DD0C9D2C920E1E2D160F292D612F0E9484
:1042F0000520CC24CA94C00ECF0C292D4C2D612F43
:10430000CE010E940520D00EFE0C2D2D4F2D6B2DC1
:10431000CE010E94E21FBA0C6FEF6B0D2D2D4F2DB9
:10432000CE010E94E21F01E02E2D4F2D612FCE0104
:104330000E947920DE2CD094DB0C02E02E2D4F2D34
:104340006D2DCE010E947920CE1804E02E2D4C2D2B
:104350006D2DCE010E94792008E02E2D4C2D612F6D
:10436000CE010E947920DF91CF911F910F91FF9094
:10437000EF90DF90CF90BF90AF909F900895AF9255
:10438000BF92CF92DF92EF92FF920F931F93CF9342
:10439000DF93EC01A62EC42EB22EF02E1E2DE1943A
:1043A000EE0CD12ED60E2E2D2B0D6D2D0E945020F1
:1043B000FA94FE0CC10E6FEF6A0D6B0D611BEF2CB2
:1043C00001E0212F4C2DCE010E94F72002E0212F89
:1043D0004C2D6D2DCE010E94F720DF91CF911F91C2
:1043E0000F91FF90EF90DF90CF90BF90AF90089526
:1043F0006F927F928F929F92AF92BF92CF92DF92F5
:10440000EF92FF920F931F93CF93DF93F901A49044
:1044100031965491FC01F0A064350CF00CC1BB2422
:10442000A7FCB094A62FBB27A7FDB095FD01EA0D10
:10443000FB1D1E161F060CF0FEC040330CF0FBC027
:10444000C52E042F112707FD1095E801C50FD11DBA
:1044500057FDDA951C161D060CF0EDC0E9012296F9
:104460009501295F3F4F37FF02C0295F3F4F73E03F
:10447000359527957A95E1F747FF0AC0C52EC40EFA
:10448000209FA001219F500D1124C41BD50B40E09B
:104490000C2D112707FD1095040F111D47FD1A95CE
:1044A000013311051CF070E3C72EC41A67FD60E0EC
:1044B000E535F10514F0E4E5F0E01E2FFC0174850C
:1044C0007427862F992787FD9095FC01EA1BFB0B2B
:1044D000DF015F01F7E0AF22BB24E0E8F0E002C0BB
:1044E000F595E795AA94E2F70E2FB7FD179653E0DE
:1044F000B595A7955A95E1F7AC0FBD1FE42FE7706E
:1045000051E001C0550FEA95EAF745954595459567
:10451000E4E54E02800D911D1124825D9A4F40E02A
:10452000DD24C7FCD094BB24B3943327E42FF0E000
:10453000EC15FD050CF07FC0FD01E490F1E0FF12E9
:1045400019C0EC01A02EFD01862E881A9C2E980C15
:10455000911608F067C09E2C9A2019F09880952A31
:104560009882A69429F43196E4906894AA24A7F836
:104570002196ECCFF1101BC0752E7094EC01A02E8B
:10458000FD01862E881A9C2E980C911608F04AC0C0
:104590009E2C9A2019F0988097209882A69429F44E
:1045A0003196E4906894AA24A7F82196ECCFE3E032
:1045B000FE1631F0EC01A02EFD01862E881A2EC0C9
:1045C000752E7094962EEC01A02EFD019116B0F47C
:1045D0008E2C8A2049F08880692C672660FE02C0F4
:1045E000852A01C087208882A69429F43196E49018
:1045F0006894AA24A7F893942196E8CF7B2512C04B
:104600009E2C9A2019F0988095269882A69429F4D9
:104610003196E4906894AA24A7F821969C2E980CD1
:10462000911670F3550F19F48C5A9F4F51E04F5F5C
:10463000A20FB31F7BCFDF91CF911F910F91FF90FE
:10464000EF90DF90CF90BF90AF909F908F907F9032
:104650006F900895DC01FB0184918F5F14968C9319
:1046600014973196E491EF5F1596EC9315976E5F72
:104670007F4F5F967C936E935E970895EF920F93B2
:10468000CF93DF93EC014E876D872F87E98A088BE4
:1046900081E0888788A319A28F836CE774E0CE013C
:1046A0000E942A230E94151E8CB58F7D8CBD8CB56F
:1046B0008C7F81608CBD8DB581608DBD8CB58C602B
:1046C0008CBD61E08E850E94792D61E08D850E9410
:1046D000792D61E08F850E94792D898918161CF447
:1046E00061E00E94792D888918161CF461E00E940F
:1046F000792D898918166CF460E00E94B22D6AE069
:1047000070E080E090E00E94712C61E089890E9455
:10471000B22D8D85992787FD9095FC01E757F84FBD
:10472000E491F0E0EE0FFF1FE955F84F2591349129
:104730003D8B2C8BFC01EB58F84F84918B8F8E8531
:10474000992787FD9095FC01E757F84FE491F0E039
:10475000EE0FFF1FE955F84F259134913B8B2A8BC3
:10476000FC01EB58F84F84918A8F8889992787FD3F
:104770009095FC01E757F84FE491F0E0EE0FFF1F32
:10478000E955F84F259134913F8B2E8BFC01EB5866
:10479000F84F84918C8F8F85992787FD9095FC0128
:1047A000E757F84FE491F0E0EE0FFF1FE955F84F9F
:1047B00025913491398F288FFC01EB58F84F849163
:1047C0008D8F61E2CE010E94631F64E1CE010E94E1
:1047D000631F8B8587FF02C08FE78B876B856068BF
:1047E000CE010E94631F60E2CE010E94631F6CE055
:1047F000CE010E94631FCE01DF91CF910F91EF9008
:104800000C94921F6F927F928F929F92AF92BF9261
:10481000CF92DF92EF92FF920F931F93CF93DF938C
:10482000EC01162FF42EB02EE8A064350CF081C0F8
:104830008FE284170CF47DC0EC81F0E031970E9F7D
:10484000C0010F9F900D1124860F911D67FD9A9551
:10485000181619060CF06DC08D81809FC0011124BF
:10486000840F911D47FD9A95181619060CF061C02A
:10487000A62E962EC22ED12C8A2D811B992787FD1C
:1048800090952C8130E0821793070CF051C0215095
:1048900031098217930779F0C29ED001C39EB00DF3
:1048A000D29EB00D1124A80FB91FEE8DFF8DEA0F17
:1048B000FB1F749001C0712C8F2C6F2C282D2F1989
:1048C000332727FD30958D8190E0281739076CF547
:1048D00070FE11C081E0B81206C0482D6A2DCE01CD
:1048E0000E945E041EC00B2D2B2D462D692DCE017E
:1048F0000E94502016C089A198A1891791F088A321
:1049000081E0B81206C0482D6A2DCE010E945E04D7
:1049100007C00B2D2B2D462D692DCE010E94502056
:10492000E8A276946B0C8394C9CF9B0CA394A4CF7C
:10493000E8A2DF91CF911F910F91FF90EF90DF9050
:10494000CF90BF90AF909F908F907F906F90089581
:104950000F93CF93DF93EC01262F6A3039F42D812A
:1049600098858A85299F800D112422C06D3011F110
:1049700008854A8569850E94022448855C812985CD
:10498000549F200D112429878F81882399F0332784
:1049900027FD309584E590E0459F80199109112409
:1049A000821793073CF49D818A85499F800D1124CD
:1049B0008A87198681E090E0DF91CF910F91089569
:1049C0008F929F92AF92BF92CF92DF92EF92FF921F
:1049D0000F931F93CF93DF93EC015C0186E8A80E41
:1049E000B11CD5018C91882309F44DC08C3018F48A
:1049F0001CE0181B01C010E0FE01EA5AFF4F81E0E5
:104A000080836E01BEE4CB0ED11C60E0C6010E9423
:104A1000DA1F4E01E3E58E0E911CD4018C9103E068
:104A2000080F9DE2F92E4F2D481B410F23E0E22E87
:104A300024E560E0C6010E94BF2161E0C6010E943A
:104A4000DA1FF401808103E0080F4F2D481B410F4E
:104A500024E560E0C6010E945F21FE01E95AFF4F94
:104A600084E080833196D4018C91181B115D1083F2
:104A7000CC57DF4F68817981C6010E94492EF5012C
:104A8000808181508083DF91CF911F910F91FF90A2
:104A9000EF90DF90CF90BF90AF909F908F90089550
:104AA000DF92EF92FF920F931F93CF93DF93EC016E
:104AB0008C8D9D8D892B09F49CC08E01025B1F4F4C
:104AC00040E061E0C8010E94DE1F85E5FE01EE5A6C
:104AD000FF4F9081891B3596808331961082698DB6
:104AE000613009F462C028F0888D653008F074C028
:104AF0006FC0CE0185960E94412A81E0FE01EA5AEC
:104B0000FF4F80836CE774E0C8010E942A231D8E4A
:104B10001C8EFE01EC5AFF4F108238EAD32E7E0124
:104B20008AE0E80EF11CCE010E9401268823D9F309
:104B30006BE676E0C8010E94492E6A8D7B8D4AE0C3
:104B400050E0C8010E94552F66E576E0C8010E943A
:104B5000492E6D2D62956F7070E04AE050E0C801FB
:104B60000E94402F6BE476E0C8010E94492E64E069
:104B7000C7010E943D1F81113CC0DA94A1F660E09C
:104B8000CE010E944F1E83B7817F846083BF83B7AD
:104B9000816083BF83B7816083BF889583B78E7F31
:104BA00083BF83B78E7F83BFBECFCF58DF4F48818F
:104BB00059816A817B814F70552766277727483056
:104BC00051056105710510F467E009C068E707C089
:104BD000882379F06B5F03C0882359F06FE2C80126
:104BE000DF91CF911F910F91FF90EF90DF900C9488
:104BF000702EDF91CF911F910F91FF90EF90DF907A
:104C000008958F929F92AF92BF92EF92FF920F936F
:104C10001F93CF93DF93EC017C0100E8E00EF11CC1
:104C2000F70180809180A280B3800E94422C950180
:104C30008401061B170B280B390BB901A8015E0173
:104C40001FE7A10EB11CF501808190E0A0E0B0E06B
:104C50008E0105581F4F84179507A607B70750F414
:104C6000F80180819181A281B381892B8A2B8B2BC2
:104C700009F040C0F80180819181A281B381892B24
:104C80008A2B8B2BA9F57E01F5E2EF0EF11CC701F3
:104C90000E943E2AC7010E94AB2AC7010E946F2BC7
:104CA000CE010E94E024CE010E9450257E012EE418
:104CB000E20EF11CC7010E94921FFE01EC5AFF4F49
:104CC0008081811103C0C7010E94811F0E944E2C68
:104CD000F8016083718382839383FE01EB58FF4F59
:104CE000C958DF4F28813981621B730B7183608340
:104CF00080E036C00E94422CF5012081620F711DB8
:104D0000811D911DF7016083718382839383FE016E
:104D1000EF58FF4F40815181628173814F5F5F4F38
:104D20006F4F7F4F4083518362837383F8011082FA
:104D30001182128213820E944E2CFE01E958FF4F0D
:104D40006083718382839383CE010E94531ECE01C0
:104D50000A960E94061FCE0148960E94BC1E81E062
:104D6000DF91CF911F910F91FF90EF90BF90AF9087
:104D70009F908F9008950F931F93CF93DF938C0193
:104D8000EC01C25BDF4FCE010E94811F63E276E03F
:104D9000CE010E94492ECE010E94921F8CB58360E5
:104DA0008CBD8DB58E7F8DBD8DE691E0EEEFFFE37E
:104DB0000995F801EC5AFF4F10826EEF75E0CE01B5
:104DC0000E948B2ECE010E94921F065F1F4FC801CA
:104DD0000E94061F64E0C8010E943D1F811107C0A8
:104DE00062E370E080E090E00E94712CF0CFDF91F0
:104DF000CF911F910F9108952F923F924F925F9202
:104E00006F927F928F929F92AF92BF92CF92DF92DA
:104E1000EF92FF920F931F93CF93DF93CDB7DEB73F
:104E200029970FB6F894DEBF0FBECDBF998788874C
:104E30001B012A013C0180E7680E711CF30180818F
:104E4000882309F402C181E0E885F985EA5AFF4F19
:104E50008083E885F985EB5AFF4F1082E885F98554
:104E6000EC5AFF4F1082E885F985108E8F01025BA6
:104E70001F4F61E0C8010E94DA1F888599858D5A0D
:104E80009F4F9C838B83C884D98497E5C90ED11C1E
:104E9000E884F984E8E5EE0EF11C888599858E5A40
:104EA0009F4F9A838983E885F985EF58FF4FFE83EA
:104EB000ED8388849984FAE08F0E911CA884B984CC
:104EC00085E2A80EB11C888599850E940126882359
:104ED000D1F3F1018491882321F0EB81FC81508191
:104EE00001C050E02EE836E040E060E0C8015F839A
:104EF0000E94F8215F814114510439F04CE0450FC4
:104F0000920160E0C8010E94F821F60110828CE055
:104F1000F7018083B101C8010E94492EE981FA811D
:104F20009081892F880F890F81958D5AF601808392
:104F3000EB81FC819081892F880F890F8195835D9A
:104F4000F7018083ED81FE81808184FF03C069E8E1
:104F500076E002C065E876E0C8010E948B2EE98108
:104F6000FA819081892F880F890F81958D5AF601DA
:104F70008083F70180818F5F8083E885F98582A532
:104F8000882319F061E876E002C06DE776E0C80199
:104F90000E948B2EE981FA819081892F880F890FD9
:104FA00081958D5AF6018083F70180818F5F808320
:104FB00069E776E0C8010E948B2E65E0C4010E947B
:104FC0003D1F882351F0E885F98562A56F5FC50113
:104FD0000E94EB2BC5010E94D52B64E0C4010E9406
:104FE0003D1F811113C0F3012081822F90E0A0E0CA
:104FF000B0E0ED81FE81408151816281738148176B
:1050000059076A077B07A8F02F3F99F08FEFF3014C
:105010008083088519850B5D1F4F60E0C8010E94E1
:10502000E829C8010E94BF2B81E0E885F985808FBF
:105030000CC066E0C4010E943D1F882309F443CFE1
:10504000888599850E94BB2634CF29960FB6F8949F
:10505000DEBF0FBECDBFDF91CF911F910F91FF90AB
:10506000EF90DF90CF90BF90AF909F908F907F9008
:105070006F905F904F903F902F900895AB016DE837
:1050800076E00C94FC26E0E8F7E72591349181E086
:105090002130304C09F080E00895CF93DF93EC018C
:1050A0000E9443289E01275A3F4FDE01A059BF4F5F
:1050B000882309F43CC0E6E9F7E78491F90180838D
:1050C000E7E9F7E7E491EC83E8E9F7E7E491ED83BA
:1050D000E9E9F7E7859194919F838E83EBE9F7E700
:1050E0008591949199878887EDE9F7E7E491EBA79B
:1050F000EEE9F7E7E491EAA7EFE9F7E7E491EC934B
:10510000E0EAF7E7859194919D8F8C8FE2EAF7E7CB
:10511000859194919F8F8E8FE4EAF7E78591949122
:1051200099A388A3E6EAF7E78591949120C08CE3E0
:10513000F90180831C822FEF2D8380E293E09F830F
:105140008E8384ED93E09987888781E08BA78AA777
:105150002C938CEA9DE09D8F8C8F8EED9DE09F8F30
:105160008E8F84E79EE099A388A38CE39FE09BA3A6
:105170008AA3DF91CF910895CF92DF92EF920F93A0
:10518000CF93DF93EC01FC01E158FF4F82E3808372
:10519000349741E050E060E070E0408351836283E7
:1051A00073833B978FEF8083CE010E944D28CE0101
:1051B0000E944B1E6FEFCE010E944F1E6E018AE0CF
:1051C000C80ED11CC6010E94F61EC6010E94061F11
:1051D000CE0148960E94B21E3EE0E32E0FE020E191
:1051E0004BE06DE0CE01825B9F4F0E943E23A5966F
:1051F000CE010E94542965E0C6010E943D1F88230C
:1052000051F060E0CE01DF91CF910F91EF90DF90F0
:10521000CF900C94EB2B40E06EEF76E0CE01DF9167
:10522000CF910F91EF90DF90CF900C94F329CF9313
:10523000DF9350E0FA01EE0FFF1FE80FF91F3785EB
:105240002089E32FF22FE60FF11DE60FF11D2591C6
:105250003491FA01EE0FFF1FE80FF91F30A3278FDB
:10526000F90165917491FC01D481D69FC02D112460
:10527000E40FF51FC1A3F901A591B4916B2F70E064
:10528000EC2FF0E0DC01A40FB51F6E177F0720F4B0
:10529000F90125913491C32FCD9FC02D11249296F1
:1052A000CC93DF91CF91089521E0FC01248324E089
:1052B00020A725E537E0308B278740E060E00E949B
:1052C000172961E070E083E00E94F12CE1EBF0E04F
:1052D0008081887F81608083F89410928000E1E86B
:1052E000F0E01082109285001092840088E191E035
:1052F000909389008093880080818860808380817A
:1053000081608083EFE6F0E0808182608083789422
:1053100008950F93FC01862F642F011129C082305C
:10532000D1F048F4882391F0813011F540E0CF01AD
:105330000F910C9417298330A9F08430C9F484812B
:10534000489F602D1124658F268F12C04B3008F0C6
:105350006AE0668B0DC08481489F602D1124618FA7
:10536000228F06C08481489F602D1124638F248F73
:105370000F910895FC0121110EC0648B8481489F18
:10538000402D1124458B15A214A213A281E0878B16
:1053900080933207108E089580913207882319F088
:1053A00080912F0701C080E08093B4000895FC0134
:1053B00061110DC0178A158A14A213A2108E1092C3
:1053C0002F0710923007109232070C94CC290895C1
:1053D000CF93DF93EC01611103C00E94D72919829A
:1053E000DF91CF9108950F931F93CF93DF93EC013B
:1053F0008B0141110EC060E00E94E8291E870D87D5
:105400001B8A1A8A81E0898389E08E8B198E1B8E14
:105410001D8EDF91CF911F910F910895CF93DF9350
:10542000EC01611128C08881882329F189818111CB
:1054300022C089852F819885E22FF92FE80FF11D71
:10544000E80FF11D859194918F3F2FEF920711F492
:10545000188211C09C879927880F991FEA85FB85C0
:10546000E80FF91F6591749140E0CE010E94F32985
:1054700089858F5F8987DF91CF91089560E00C94D3
:105480000E2A60E00C94E8290F93CF93DF93EC0190
:1054900061115DC08981882309F459C08D8981110A
:1054A00056C02D853E858A899B89880F991F820F5A
:1054B000931FFC01859194910097D1F489898823E9
:1054C00021F01B8A1A8AF90111C01982888160E0D3
:1054D000882331F0CE010E940E2A8A899B8925C03B
:1054E000CE01DF91CF910F910C94D72985919491A2
:1054F000BC01769567957695679580FF1DC0AC01D8
:10550000A6E056954795AA95E1F7292F2695269569
:10551000269520514F716F7000E0CE010E948929BD
:105520008A899B8901969B8B8A8B880F991FED85B1
:10553000FE85E80FF91FDACF492F6F7320E0CE0107
:105540000E94BA298A899B8901969B8B8A8BDF915D
:10555000CF910F91089560E00C94442ACF93DF938C
:10556000EC016111B9C08F89882309F4B5C08D8918
:10557000811105C0CE01DF91CF910C94D7298150C4
:105580008D8B8DA1811138C08BA19CA101969C01AE
:10559000220F331FEF8DF8A1E20FF31F25913491F5
:1055A000422F47704EA3A90163E0569547956A952F
:1055B000E1F7BA0176956795232F269526952FA3B7
:1055C0006F732C81629F602D11246DA341704093F5
:1055D0002E079CA38BA329A130E08217930760F0CC
:1055E0008AA1882329F0281B31093CA32BA304C0DE
:1055F00060E0CE010E94D7298DA181508DA3288D16
:105600002F5F288F4C893FA1340F8C85380F3A8348
:105610006B8D662361F070E0822F992787FD90954E
:105620000E9430318C8D869F300D11243A838A81FF
:1056300090E0CB966BE370E00E9430318A833E8924
:105640003B83698D662371F0772767FD7095822F04
:10565000992787FD90950E9430318A8D869F300D65
:1056600011243B836D8D662391F0822F992787FD4E
:10567000909570E00E943031CB0162E070E00E94B2
:1056800030312E8D9B81289F900D11249B838B811F
:105690004F3339F08A300CF089E087FD80E08B834E
:1056A00001C01B82F894EA81F0E0E45FF84FE491D6
:1056B000E093310798A58D81989F802D11249B81BF
:1056C000899F802D11249EA1899F802D1124809374
:1056D000300780932F077894DF91CF91089560E091
:1056E0000C94AE2A60913007662321F18091330734
:1056F0008F5F80933307909131078917D8F080919D
:10570000320791E089278093320710923307809106
:105710002E07882369F09091440183E4989F802D9F
:105720001124895B809344010E94103190932F07CC
:105730000C94CC2908951F920F920FB60F9211244A
:105740002F933F934F935F936F937F938F939F9389
:10575000AF93BF93EF93FF930E94722BFF91EF9152
:10576000BF91AF919F918F917F916F915F914F9179
:105770003F912F910F900FBE0F901F901895CF93D0
:10578000DF93EC0160E00E94E8298DE497E09E87BA
:105790008D871B8A1A8A81E0898389E08E8B198E16
:1057A0001B8E1D8EDF91CF910895CF93DF93EC0177
:1057B00060E00E94E82987E497E09E878D871B8A36
:1057C0001A8A81E0898389E08E8B198E1B8E1D8E4B
:1057D000DF91CF910895FC01862F992787FD909541
:1057E000668170E06F5F7F4F0E943031858308953E
:1057F0001F920F920FB60F9211242F933F938F9306
:105800009F93AF93BF938091350790913607A091F6
:105810003707B09138073091340723E0230F2D3735
:1058200020F40196A11DB11D05C026E8230F0296A4
:10583000A11DB11D2093340780933507909336073F
:10584000A0933707B09338078091390790913A07B2
:10585000A0913B07B0913C070196A11DB11D80931B
:10586000390790933A07A0933B07B0933C07BF9149
:10587000AF919F918F913F912F910F900FBE0F90FD
:105880001F9018952FB7F8946091350770913607DF
:1058900080913707909138072FBF08953FB7F8944C
:1058A0008091390790913A07A0913B07B0913C074E
:1058B00026B5A89B05C02F3F19F00196A11DB11D6B
:1058C0003FBF6627782F892F9A2F620F711D811D88
:1058D000911D42E0660F771F881F991F4A95D1F7E7
:1058E0000895CF92DF92EF92FF92CF93DF936B01F7
:1058F0007C010E944E2CEB01C114D104E104F1049F
:1059000089F00E94E22F0E944E2C6C1B7D0B683E9A
:10591000734090F381E0C81AD108E108F108C8513A
:10592000DC4FEACFDF91CF91FF90EF90DF90CF90E7
:105930000895789484B5826084BD84B5816084BD07
:1059400085B5826085BD85B5816085BDEEE6F0E0F8
:10595000808181608083E1E8F0E010828081826054
:105960008083808181608083E0E8F0E080818160D5
:105970008083E1EBF0E0808184608083E0EBF0E005
:10598000808181608083EAE7F0E0808184608083A9
:105990008081826080838081816080838081806853
:1059A00080831092C10008958E3008F08E50877069
:1059B0002091450190E4299F90011124822B80932E
:1059C0007C0080917A00806480937A0080917A00D4
:1059D00086FDFCCF809178002091790090E0922B99
:1059E00008951F93CF93DF93182FEB0161E00E947E
:1059F000792D209711F460E004C0CF3FD10539F430
:105A000061E0812FDF91CF911F910C94B22DE12F96
:105A1000F0E0EF59F84FE491E330F9F048F4E13069
:105A2000B9F0E230A1F584B5806284BDC8BD34C050
:105A3000E730E9F0E83019F1E43049F58091800071
:105A4000806280938000D0938B00C0938A0024C032
:105A500084B5806884BDC7BD1FC080918000806808
:105A600080938000D0938900C093880015C08091F6
:105A7000B00080688093B000C093B3000DC08091E7
:105A8000B00080628093B000C093B40005C0C038FD
:105A9000D1050CF0B5CFAFCFDF91CF911F91089515
:105AA000833081F028F4813099F08230A1F008959C
:105AB0008730A9F08830B9F08430D1F4809180002B
:105AC0008F7D03C0809180008F7780938000089540
:105AD00084B58F7702C084B58F7D84BD0895809191
