:100000000C94CC050C94F4050C94F4050C94F405B4
:100010000C94F4050C94F4050C94F4050C94F4057C
:100020000C94F4050C94F4050C94F4050C94572BE3
:100030000C94F4050C94F4050C94F4050C94F4055C
:100040000C94882B0C94F4050C94F4050C94F40592
:100050000C94F4050C94F4050C94F4050C94F4053C
:100060000C94F4050C94F405760D810D8C0D970D10
:10007000A70DB40DBF0DCA0D59115C115F116611AA
:100080006F11761179118011F513171439145D145D
:100090008214A714CA14EE14B917BE17C317C817D1
:1000A000D417D917DE17E317FF19261A461A661A4E
:1000B000861AA71ACA1AF11A100E02180230026024
:1000C00007C00A7E163F103D10793FF37FE6FFCC54
:1000D000FF98FFF071C0100E008000800FF81F7CA9
:1000E0001F7C1E3C1C5C1C5C1E3C1FFC1FFC1FFC80
:1000F00013E41E3C100E02003FF83DF83C783838FF
:10010000383839383D783EF83EF83EF83EF827C892
:100110003C78100E02000200020003E0FE10FC0812
:10012000BC689E38CFEC67F633FB19FF0FFF038ED8
:10013000100E080008000980067F0820383C3FFEAA
:100140003FFE3FFE200215540FF800000000080A91
:1001500000000020704468D47AFE080A7CFE447CCB
:100160007C446C546C4420200000000006000050C9
:1001700009000212055C01000914000071AA400C7C
:1001800041550A207EFF8104558040125091200085
:10019000519521E44A911AB84D800D506EFFFABE78
:1001A000160187565A0362BC9701C1501A813AB0B2
:1001B000158003503EFE0EF80155F50401AAAB244C
:1001C0000F57D51435F7FF286B1F8148D519E1E487
:1001D000AB3FF15CD563D124791FD14449F7FF24AB
:1001E000C11401147F0C01FC2020080000203E00F7
:1001F00000F84900012441FFFF04E155550E41AAD2
:10020000AB04415555047EFFFEFC558003545A91C2
:1002100012B4559113545A9112B4558003547AFF75
:10022000FEBC158003501A8002B0158003501A805E
:1002300002B0158003503EFFFEF84155550441AA17
:10024000AB04E155550E41FFFF04490001247F0F27
:10025000E1FC4917D1244117D1044917D12449FFA2
:10026000FF24410001047F0001FC482980000000B8
:10027000000007F8FF000007C00000011011008017
:10028000046000000FFCFF100985E0000011101150
:100290000881257000401000010000051820E012C0
:1002A00080013000078C2040128028025864EC2026
:1002B000E013C02803FFFD7C206113C07826C164D1
:1002C0003C00601140786630758C20E01060510E63
:1002D00098258420E40000C14200E58420E210005B
:1002E0000107FFE7FC20E007820015000000006026
:1002F00011C3C10002000000001780F10009640072
:10030000000011E1C10800000000001020F10C0203
:10031000001E00001000010800802100000F9C3F1B
:100320000C00005E80000150110C00005E80033F55
:10033000FE1F1C00006180001111111C00005E8076
:10034000000000001C00002100000000001C1C1E1A
:100350001E00000000001C22220000000000000C13
:100360005FFB00000000000000A7E50000000200A5
:100370000000A6E20000001E000000FE3C0000009D
:100380003E000000838801060066102000A2A8013C
:100390000001EE30100880380000039E003000336A
:1003A0007E70000372007806BB79502003CA009467
:1003B00010B0FF49589B82613200FFF831EF02C252
:1003C000003A00000007D582C21C3810080026C67B
:1003D00082C2061800000003FF03FE0018482980AF
:1003E00000000000001FFFFF03FFE7FC00001111E9
:1003F000110200240600181FFFFF02FFA5F500EE02
:100400001111110280A516C15510C0010280A51559
:1004100062AA90500D03FFE7FEA55550782902000F
:10042000240566ACD0787902AAA556A5745028791F
:1004300002002405666C10285102CC2584E5A41026
:10044000005102CC258420A010000102C025842088
:10045000A010330103FFE7FC20A010A14100000021
:1004600000006011E1E103000000000011E1E11D66
:10047000C0000000001140A12AB00000000011409F
:10048000A15550001E0000100001AAA88021000004
:100490001FFFFFD598005E8000111111AE88005E2D
:1004A00080001FFFFFCD800061800011111194803A
:1004B000005E800000000014000021000000000029
:1004C00014FFFE1E00000000001480020000000067
:1004D00000000CBFFF00000000000000A00103FEB0
:1004E00003FE00C000A0010202020203B800FFFFE9
:1004F00002FB8EFA0554008009028B768A0AAA0054
:10050000AAAF028AAA8A155500800903FF57FE196F
:10051000AB00B30F0202AA02117500B30902AB5679
:10052000AA01B300B00F0203AE02012900FFF802D6
:10053000C272C2002800000002C202C200280008E5
:100540000002C202C2002800000003FE03FE0030C9
:100550001016101010105410AA0054008A88144469
:100560009280500E0000000000000040000040009B
:1005700020141080000012008A128290ECFE1016E7
:100580001010383854549292AAAAC6C692929292E7
:10059000FEFE000000000000000010103838545427
:1005A0009292AAAAC6C682828282FEFE0E090C0020
:1005B0001E0017002B8037E06BF0D5F8AAFCFFFC7B
:1005C000080C04048CA8F8606870206070F80808B3
:1005D000020040040020040028180000C0000000B1
:1005E00003B800000005540000000AAA000000152E
:1005F0005500000019AB000000117500000801B3A0
:1006000000000A012900002C402800001C5028008E
:100610000000002800003FFE3000005555C0FC00DF
:10062000AAAAA14200D55562A1006AFAA490801F2F
:1006300007CC9FC0003017F4A00114000000039EF7
:10064000000000011E000000028A000000000A00F5
:100650000000080910181858DAFB7F1E1808052535
:1006600092623C10201A03E000000C1800001004F5
:10067000000022020000401100004001000083E061
:100680008000AC1880009004BF80AFFABD80D7F521
:10069000BC80D7F5BB8097F4A78097F4B78097F418
:1006A000BF80FFFFA08000000000000000000006E7
:1006B0000000038800000250000002600000FFBC40
:1006C0007000B032E000C84A7000CFCCE000201DBE
:1006D000003F800000D540001FABE00075D6000051
:1006E000AABC0000DD6B0000A7D58000CB7EC00057
:1006F00095403FFC1D4040020B40FFFF0D4090091C
:100700000940A5690280B5490280A6250480FFFF43
:100710000786400200694EFA009F4EAA00E54EFA95
:1007200000BD4E0260A57FFE96660000F9180E38E7
:10073000A7000B2CBD000EBAA5000F3C66000E38BA
:1007400018000000180F01F00003F80007FC000279
:1007500008003E4F807EAFC0FC47E04000405CE7B1
:100760004054E5405CE74040E04043F8407C07C02F
:1007700007FC001009AAA800008D880D808F880D45
:10078000808D880000AAA80606E0E05CF0E0A008E2
:100790000B0000000000000000001C2A080B0000F5
:1007A0000000000000001C3E3E080B00000000009E
:1007B00000003E7F7F7F080B00000000003E7F7F2F
:1007C0007F7F1C080B0000003E7F7F7F7F1C1C3E4C
:1007D000080B003E7F7F7F7F1C08081C3E080B3EF5
:1007E0007F7F7F7F00000000081C080B1C3E7F7F7E
:1007F00036000000000008080B001C3E3600000018
:1008000000000000080B00081C00000000000000B1
:1008100000080B0000080000000000000000080BAA
:1008200000000000000000000000000808000000B8
:100830000000081C0008080000000008221400083E
:1008400008000000002208440010071C003E003E83
:1008500000FF80BE801C0022000F071C003E0036F7
:1008600000F380BE801C0022000F071C0022002223
:1008700000F780BE801C0022001009007803F807F2
:10088000FE03FC07F80DC058007800300010090086
:100890007802F805F203FC07F80DC0580068003034
:1008A00000100E8000C000C000E000700018000EB4
:1008B000000F000F80FFE07FF037D81BC001C01091
:1008C0000E8000C000C000A000700018000E000FD5
:1008D000000F80FE607E70274813C001C0100680A4
:1008E00040C1F0FFF847FC03FE01FE10068040C146
:1008F000F0BFE847E4033A01FE08050050A85000A5
:100900000F03007003801C000F030000FFFE0000B7
:100910000F031C00038000700F030100038001001F
:100920002804DBFFC5FFE0FA0049002072004D00FB
:100930002023FFC9FFE003053F213F1208120A10E0
:100940000A0E1C0E0C1E0C141A14161F161E131E53
:100950001E1B1E1E1F1E3F213F3A2F3A173D173FF9
:10096000213F181F02040A041F0E04040E1F0A1F51
:100970000A0E0E1F04110E2E252E2F2A2E2629298F
:10098000021F02081F08150E04040E150E15151B74
:10099000151B040604040C040000000017000300EB
:1009A000031F0A1F16371A1904130A153A00030009
:1009B000000E11110E000A040A040E040030000497
:1009C00004040010001804031F111F121F101D152E
:1009D0001711151F07041F17151D1F151D01011FD6
:1009E0001F151F17151F000A00003200040A110A04
:1009F0000A0A110A040115020E11171E051E1F1501
:100A00000A0E110A1F110E1F15111F05010E111DCF
:100A10001F041F111F1108100F1F041B1F10101F90
:100A2000061F1E040F0E110E1F09060E112E1F05A4
:100A30001A121509011F011F101F0F180F1F0C1F7D
:100A40001B041B031C03191513001F1103041811A9
:100A50001F000201022020200001020C121E1F12A2
:100A60000C0C12120C121F0C1A14041E05242A1E40
:100A70001F021C141D1020201D1F0814111F101E02
:100A8000041E1E021C0C120C3E0A040C123E1E0414
:100A90000214160A020F120E101E0E100E1E081E51
:100AA000120C1226281E322A26041E21001F0021A5
:100AB0001E040102013F213F0A0A153A49676E6F81
:100AC0007265006D560A0A504C45415345205455F5
:100AD000524E204F464620004C4F5720424154541E
:100AE0004552592120000500893008023802497812
:100AF00068140000F6E8DBCFC3B8AEA49B928A82EC
:100B00007B746E68625C57524E4945413E3A3734B9
:100B1000312E2C29272523211F1D1C1A19171615C4
:100B200014131211100F0E0D0C0B0A0908070637CB
:100B30000B330B0101FF030101F703000000080064
:100B40000201000003040700000000000000000193
:100B50000204081020408001020408102001020451
:100B60000810200404040404040404020202020223
:100B700002030303030303000000002300260029EF
:100B80000000000000250028002B000000000024C9
:100B90000027002A0000541D11241FBECFEFD8E00B
:100BA000DEBFCDBF11E0A0E0B1E0E2E8F3E602C0B5
:100BB00005900D92A23FB107D9F727E0A2EFB1E06F
:100BC00001C01D92AE36B207E1F71BE0C8E9DBE0D9
:100BD00004C02297FE010E943C31C639D107C9F7F3
:100BE0000E94A22D0C94BF310C94000065E081EEB0
:100BF00094E00E94871E882361F08091D6048823A8
:100C000029F0813031F41092D60403C081E0809342
:100C1000D60440E064E081EE94E00E94901E909142
:100C2000CD04882309F413C1911111C18091CC0422
:100C3000883009F00CC181E08093CE048091D1040A
:100C4000882309F415C140E062E081EE94E00E943F
:100C5000901E882341F08091CB048330D4F48F5FC1
:100C60008093CB0416C040E060E081EE94E00E94E7
:100C7000901E9091CB04882319F09E3F54F002C03F
:100C8000191614F4915003C0992319F09F5F9093A3
:100C9000CB0440E063E081EE94E00E94901E882344
:100CA00041F08091CA048330D4F48F5F8093CA04EA
:100CB00016C040E061E081EE94E00E94901E9091A9
:100CC000CA04882319F09E3F54F002C0191614F488
:100CD000915003C0992319F09F5F9093CA0420910B
:100CE000CB041216A4F48091C5049091C60460E070
:100CF000332727FD3095462F50E042175307BCF4A9
:100D0000863742E094070CF401966F5FF4CF2223FC
:100D1000A1F08091C5049091C60460E0332721952D
:100D20000CF43095462F50E0421753079CF09093F7
:100D3000C6048093C504609303022091CA0412166E
:100D4000DCF48091C7049091C80460E0332727FD4C
:100D500030950CC0181619060CF401976F5FE2CF9E
:100D6000863742E094070CF401966F5F462F50E0FF
:100D700042175307ACF310C02223A1F08091C7049F
:100D80009091C80460E0332721950CF43095462FEC
:100D900050E0421753077CF0609303029093C8041D
:100DA0008093C70440E064E081EE94E00E94901ECE
:100DB000811107C052C08E3091050CF001976F5F12
:100DC000E6CF8091CD04811148C08091CC04883059
:100DD00009F043C081E08093CE048091D604811154
:100DE00047C08091CB0418163CF49091CA0491112D
:100DF00017C01092C90419C0811108C08091CA049B
:100E00001816ACF482E08093C90411C087FF15C0A6
:100E10008091CA04181624F593E09093C90424C065
:100E200019161CF491E09093C904811106C08091B9
:100E3000CA0487FF1DC086E007C01816CCF4809155
:100E4000CA0487FF15C087E08093C90408951092F3
:100E5000CE04992309F4F2CE08951092CE04BDCFAA
:100E6000811102C084E0F0CF87FF02C085E0ECCFA3
:100E7000089581E490E09093C6048093C5048BE2CA
:100E800090E09093C8048093C7041092CC04109211
:100E9000C9041092CB041092CA0481E08093CD045F
:100EA0001092D20494E19093D1048093CF041092D5
:100EB000D0041092CE041092D3041092D404109255
:100EC000D60480E097E0989FF0011124EC5FFD4F7D
:100ED0001282118214821382158216828F5F8A30E9
:100EE00090F3809303020895CF92DF92EF92FF92E6
:100EF0000F931F93CF93DF931092FB011092FD018C
:100F00001092FC0185E0F82EF092F60189E08093C2
:100F1000F40185E18093F50186E190E09093FE0372
:100F20008093FD0320E130E0309300042093FF0321
:100F300013E010930104CEE1D0E0D0930304C093FA
:100F4000020445E150E050930504409304041093DB
:100F5000060490930804809307048AE190E090933C
:100F60000A048093090410930B046DE470E07093FD
:100F70000D0460930C044BE050E050930F04409339
:100F80000E04109310044BE250E05093120440936F
:100F900011044DE250E05093140440931304109355
:100FA000150442E550E0509317044093160440E3C3
:100FB00050E0509319044093180410931A04ABE1C5
:100FC000B0E0B0931C04A0931B0441E550E05093A3
:100FD0001E0440931D0410931F0444E250E05093FC
:100FE00021044093200445E550E0509323044093AE
:100FF0002204109324044CE150E0509326044093C3
:1010000025044BE550E050932804409327041093A7
:101010002904E7E6F0E0F0932B04E0932A0444E788
:1010200050E050932D0440932C0410932E0440E480
:1010300050E05093300440932F04D0933204C09377
:10104000310410923304CEE0D0E0D0933504C09345
:10105000340450933704409336041092380445E327
:1010600050E050933A044093390447E750E05093DE
:101070003C0440933B0410923D0444E050E0509304
:101080003F0440933E0443E050E0509341044093BA
:10109000400401E00093420449E550E050934404C9
:1010A0004093430449E450E0509346044093450480
:1010B00000934704C2E6D0E0D0934904C0934804AB
:1010C000C0E5D0E0D0934B04C0934A0400934C0495
:1010D000C4E5D0E0D0934E04C0934D04D0935004A7
:1010E000C0934F04F0925104C7E0D0E0D093530472
:1010F000C0935204CDE6D0E0D0935504C09354047D
:10110000C4E0FC2EF0925604CEE6D0E0D093580412
:10111000C093570490935A0480935904F0925B044F
:10112000CCE3D0E0D0935D04C0935C04C8E2D0E08F
:10113000D0935F04C0935E04DDE0CD2EC0926004C6
:10114000C7E0DC2ED092610410926204C1E5D2E0C7
:10115000D0936404C0936304C9E3D0E0D0936604E1
:10116000C0936504C0926704D09268041092690429
:101170000F2EFBE8EF2EFF24F394F02DF0926B047A
:10118000E0926A040F2EF5E8EF2EF12CF02DF0928C
:101190006D04E0926C04C0926E04D0926F041092C1
:1011A00070046894EE24E1F8FF24F394F092720442
:1011B000E09271040F2EF6E2EF2EFF24F394F02D4F
:1011C000F0927404E0927304C0927504D092760495
:1011D000109277040F2EFEE2EF2EF12CF02DF092FC
:1011E0007904E09278040F2EF7E3EF2EF2E0FF2E61
:1011F000F02DF0927B04E0927A04C0927C04D092AD
:101200007D0410927E04D0938004C0937F04C3E1D8
:10121000D0E0D0938204C0938104C0938304CFE0D4
:10122000C093840400938504C8E1D0E0D093870480
:10123000C0938604B0938904A093880400E20093CD
:101240008A04DDE1D0938B04C2E0C0938C04AAE051
:10125000B0E0B0938E04A0938D04A6E2B2E0B09308
:101260009004A0938F0400939104D0939204C093B0
:101270009304A1E8B1E0B0939504A0939404F09393
:101280009704E093960400939804D0939904C09334
:101290009A0470939C0460939B0461E270E07093E5
:1012A0009E0460939D04F9E1F0939F04EAE1E093CA
:1012B000A0041093A1046DE472E07093A304609302
:1012C000A2049093A5048093A404F093A604E09351
:1012D000A7041093A80482E191E09093AA0480935C
:1012E000A9048FE191E09093AC048093AB04F09358
:1012F000AD04E093AE041093AF048DEF90E09093B3
:10130000B1048093B0048FE990E09093B30480938C
:10131000B204E4E2E093B40478E17093B50468E0C9
:101320006093B60488E990E09093B8048093B70482
:101330008EE991E09093BA048093B904E093BB04E2
:101340007093BC046093BD048EE092E09093BF0460
:101350008093BE048CE191E09093C1048093C0041B
:10136000E093C2047093C3046093C4048FE190E0DF
:101370009093AD038093AC0388E490E09093AF0327
:101380008093AE038AE192E09093B6038093B50315
:101390005093B8034093B7033093BF032093BE0329
:1013A00084E492E09093C1038093C00381E291E0D2
:1013B0009093C8038093C70384EA90E09093CA0394
:1013C0008093C90388E392E09093D1038093D00384
:1013D00084E191E09093D3038093D2038DE791E071
:1013E0009093DA038093D90388EC91E09093DC0327
:1013F0008093DB0388E592E09093E3038093E2031C
:1014000025E032E03093E5032093E40325E132E068
:101410003093EC032093EB0324E132E03093EE03AE
:101420002093ED032FEF31E03093F5032093F40385
:101430009093F7038093F60380E099E020E136E192
:1014400046E054E168E479E2A4E0B0E5893098F43C
:10145000989FF0011124E455FC4F1086833028F446
:1014600064837583A683B78304C02483358346834E
:1014700057838F5FEBCF8FE590E09093DB028093F3
:10148000DA028EE191E09093DD028093DC022DE49C
:1014900030E03093E5022093E40284E491E09093FD
:1014A000E7028093E60285E790E09093EF02809355
:1014B000EE0288E591E09093F1028093F00286E8D5
:1014C00090E09093F9028093F80280E391E090938A
:1014D000FB028093FA028DE791E0909303038093DF
:1014E000020386E290E0909305038093040384EB6B
:1014F00091E090930D0380930C0345E150E05093ED
:101500000F0340930E0341EA51E0509317034093B9
:10151000160330931903209318032DE831E030931C
:101520002103209320032CE831E030932303209300
:1015300022032AE731E030932B0320932A032CEA7D
:1015400031E030932D0320932C032DE931E03093CB
:1015500035032093340328EC31E030933703209394
:10156000360323EC31E030933F0320933E0328EA17
:1015700031E03093410320934003909349038093DB
:1015800048038FE891E090934B0380934A0380E6F1
:1015900092E0909353038093520388E292E09093F9
:1015A0005503809354038AE492E090935D03809303
:1015B0005C038AE292E090935F0380935E038CE287
:1015C00092E0909367038093660384E392E09093A4
:1015D00069038093680386E292E09093710380939D
:1015E000700389E492E0909373038093720383E223
:1015F00092E090937B0380937A0381E692E090934C
:101600007D0380937C038EE590E090938503809327
:1016100084038EE291E0909387038093860381E9AF
:1016200091E090938F0380938E0324E230E0309317
:1016300091032093900390939903809398038BE9EF
:1016400091E090939B0380939A0381E492E09093BE
:10165000A3038093A20388E492E09093A503809370
:10166000A40380E09AE020E245E050E537E064E141
:101670008531A0F4989FF0011124E652FD4F1086A9
:101680001186813128F4348395833683678304C0BF
:1016900024832583468357838F5FEACF8CE392E0D0
:1016A00090934B0280934A028BE790E090934D0217
:1016B00080934C0281E08093550285E391E0909302
:1016C00057028093560286EA90E0909359028093E5
:1016D000580283E0809361028AE492E0909363026F
:1016E0008093620223E131E030936502209364022B
:1016F00024E020936D022EE631E030936F022093B8
:101700006E0227EC31E0309371022093700225E0E5
:101710002093790229E632E030937B0220937A020B
:1017200028E032E030937D0220937C0226E0209373
:10173000850226E232E0309387022093860227E179
:1017400032E0309389022093880227E020939102AF
:1017500027E032E0309393022093920220E532E0BA
:10176000309395022093940228E020939D022DE56A
:1017700030E030939F0220939E029093A1028093C9
:10178000A00282E08093A9028BE791E09093AB02E4
:101790008093AA0287E190E09093AD028093AC021F
:1017A00082E18093B50289E490E09093B702809340
:1017B000B6028CE191E09093B9028093B80281E186
:1017C0008093C1028BE991E09093C3028093C2029F
:1017D0008EE891E09093C5028093C40283E18093E8
:1017E000CD0280E492E09093CF028093CE0283E119
:1017F00092E09093D1028093D00284E18093D90249
:1018000080E02CE034E040E15EE061E07EE196E0E3
:10181000A5E08C30A8F4289FF0011124E65BFD4F71
:10182000108611863287883028F494839583168237
:10183000A78304C044835583668377838F5FE9CF92
:1018400080930302DF91CF911F910F91FF90EF9052
:10185000DF90CF90089587ED94E00E94E72582E025
:101860008093FE011092FD011092FC011092FF0185
:101870000E9474070E9439071092F20125E030E0BF
:1018800040E050E060E070E0CB010E94342FFB01AB
:10189000EE5BFE4F80818093F301089587ED94E025
:1018A0000E9478281092EF040C942B0CCF93DF93B6
:1018B000CEEFDFE387ED94E00E9445278823D1F344
:1018C00069E471E085E295E00E94312E60E671E006
:1018D00085E295E00E94312E6EE671E085E295E0AA
:1018E0000E94312E6EE771E085E295E00E94312E74
:1018F00066E081EE94E00E94871E882321F0DF914C
:10190000CF910C942B0C64E081EE94E00E94871E32
:101910008823C1F085E295E00E94231F61E971E010
:1019200085E295E00E94312E60EA71E085E295E063
:101930000E94312E85E295E00E94341F8CEA91E0EE
:10194000FE01099565E081EE94E00E94871E8823E0
:1019500009F4B0CFDF91CF910895282F30E06CE0EB
:10196000869FF0011124E65BFD4F8781882309F4EF
:1019700084C088E080930002808191814091C504F9
:101980005091C60464816695DC01A60FB11DBA01B1
:10199000665F7F4F6A177B073CF4019791838083D2
:1019A00084E08287809300028CE0829FF001839F15
:1019B000F00D1124E65BFD4F808191816481669575
:1019C000DC01A60FB11D4A505109A417B50734F424
:1019D0000196918380831286109200028CE0829F90
:1019E000F001839FF00D1124E65BFD4F828193810E
:1019F0004091C7045091C80465816695DC01A60F2B
:101A0000B11DBA0168507109A617B7078CF4019689
:101A10009383828380910002843031F0883031F0EA
:101A2000811106C081E003C083E001C082E08287AB
:101A30008CE0829FF001839FF00D1124E65BFD4F47
:101A40008281938125812695BC01620F711D485FBB
:101A50005F4F461757078CF40197938382838091D9
:101A60000002843031F0883031F0811106C087E007
:101A700003C085E001C086E0828708952F923F92DF
:101A80004F925F926F927F928F929F92AF92BF928E
:101A9000CF92DF92EF92FF920F931F93CF93DF933A
:101AA000CDB7DEB72E970FB6F894DEBF0FBECDBF11
:101AB00010E047E05AE01A3008F099C0212F30E0DA
:101AC000429FF001439FF00D1124EC5FFD4F868192
:101AD000882309F48AC0858190E08830910508F058
:101AE0006AC0FC01EC5CFF4F0C943A31429FF0015C
:101AF000439FF00D1124EC5FFD4F8181928102968E
:101B000030C0429FF001439FF00D1124EC5FFD4F68
:101B100081819281019615C0429FF001439FF00D93
:101B20001124EC5FFD4F83819481029642C0429F55
:101B3000F001439FF00D1124EC5FFD4F81819281F4
:101B400001979283818383819481019632C0429F61
:101B5000F001439FF00D1124EC5FFD4F81819281D4
:101B600002979283818327C0429FF001439FF00D2B
:101B70001124EC5FFD4F81819281019715C0429F36
:101B8000F001439FF00D1124EC5FFD4F83819481A0
:101B900002970FC0429FF001439FF00D1124EC5FAC
:101BA000FD4F81819281019692838183838194810B
:101BB000019794838383429FF001439FF00D11248A
:101BC000EC5FFD4F86818F5F86838F3170F0A0813F
:101BD0005A9FD0011124A652BD4F19961C92128211
:101BE000118214821382158216821F5F64CF0091C6
:101BF000F5018091C5049091C6046090C70470906F
:101C0000C8042091CC04B301621B7109E091F90171
:101C10005091FA014091F7012091F801B090010232
:101C2000A12CFAE09F2E88248394A01608F0DFC030
:101C30009A9C60011124960126523D4F6901D901F9
:101C400014962C91149726954D915C911197420F03
:101C5000511D1596EC911597E69512962D913C9194
:101C600013972E0F311DFC01E41BF50BE65BFF4FB4
:101C7000E539F10508F0B6C0F301E21BF30BE65BB2
:101C8000FF4FE539F10508F0ADC07601B9E0EB0E84
:101C9000F11CD6011996EC911997E111A3C0179682
:101CA000EC91EE2309F49EC0E9E0F2E0A4E0B2E09A
:101CB000BA87A987AAE0B2E0BC87AB87B12C27011D
:101CC000D6011696BE83AD83DA011596BE87AD8721
:101CD0001A01B5E02B1A3108790115E0E10EF11C6B
:101CE000D9011697B887AF836901B5E0CB1AD1083F
:101CF000B2E0EF34FB0709F474C0AB85BC851C91DE
:101D0000111163C0B11061C014E1D2011C93AD8107
:101D1000BE81BC90B6E0BB1202C0D2019C92A985E4
:101D2000BA85AC9212965C934E93119714963C939D
:101D30002E931397AB85BC858C921082AD85BE85A2
:101D4000A817B90724F4E616F7060CF4808282156A
:101D500093055CF0AD85BE85A817B9075CF0261722
:101D6000370744F4B2E0B08305C0E616F70614F472
:101D700013E010838417950744F46C157D052CF04F
:101D8000E616F70614F0A4E0A083821593052CF460
:101D90006C157D0574F4B5E00BC0AD85BE85A81744
:101DA000B9073CF0AF81B8856A177B0714F4B6E039
:101DB000B083AD85BE85A817B9072CF46C157D05D9
:101DC00014F4B7E0B083BB24B3943796A985BA85E1
:101DD0001796BA87A987AB85BC851796BC87AB8752
:101DE00087CF1AE0A394E42F422F232F1ECF3091E8
:101DF000CC04B301631B71094B2C912C8824839470
:101E000034E0532EFBE0F91508F4F5C0FCE0F99D31
:101E1000F0011124E65BFD4FF887EF8324812695BE
:101E200040815181420F511DE581E695AF81B88512
:101E300012962D913C9113972E0F311DFC01E41B3E
:101E4000F50BE65BFF4FE539F10508F0CFC0F30174
:101E5000E21BF30BE65BFF4FE539F10508F0C6C066
:101E60007D01B9E0EB0EF11CAF81B8851996EC91BC
:101E70001997E111BBC01796EC91EE2309F4B6C097
:101E8000E9E0F2E004E012E01A870987AAE0B2E094
:101E9000BC87AB87412C0F8118850A5F1F4F1C83BD
:101EA0000B83FA82E9827A0115E0E10EF11C1A0136
:101EB000A5E02A1A31085901B5E0AB0EB11C890121
:101EC000065011091E830D83690115E0C11AD1085E
:101ED000AF81B8851A96B887AF83B2E0EF34FB07BD
:101EE00009F483C0AB85BC851C91111171C04110F0
:101EF0006DC0A985BA859C9212965C934E931197FA
:101F000014963C932E931397AB85BC858C92AB8132
:101F1000BC811C911123C1F0113009F057C008E2B7
:101F2000A981BA810C93AF81B8851C911083A985D2
:101F3000BA8513960D911C911497055011091496AA
:101F40001C930E93139742C004E1A981BA810C93AC
:101F50001082E816F90624F4A616B7060CF480825F
:101F6000821593054CF0E816F9065CF02617370742
:101F700044F412E0108305C0A616B70614F4A3E0DB
:101F8000A083841795073CF46C157D0524F0A616F4
:101F9000B7060CF050828215930534F46C157D055C
:101FA0006CF4B5E0B0830AC0E816F9063CF00D8188
:101FB0001E816017710714F416E01083E816F90605
:101FC0002CF46C157D0514F4A7E0A08344244394FD
:101FD000379609851A85095F1F4F1A870987AB85D0
:101FE000BC851796BC87AB8778CF1AE09394E42F13
:101FF000422F232F07CF10930202E093F901509351
:10200000FA014093F7012093F80140920102909267
:1020100003022E960FB6F894DEBF0FBECDBFDF9140
:10202000CF911F910F91FF90EF90DF90CF90BF90D5
:10203000AF909F908F907F906F905F904F903F9068
:102040002F900895EF92FF920F931F93CF93DF93FA
:102050008091D50481114CC08091C5049091C60433
:10206000AC0143505109BC016D5F7F4F2091CC04FE
:102070008091C7049091C804821B9109DC011597D7
:102080000196D091D104F090D20400E01091CD04DB
:10209000C0E027E0E22ECA3008F5EC9EF0011124E2
:1020A000EC5FFD4F2181328124173507ACF06217B8
:1020B000730794F0238134812A173B076CF0821751
:1020C000930754F0DD2311F0D55021F4FF24F3944D
:1020D000D0E002C010E00CE0CF5FDDCFD093D104A0
:1020E000F092D2040093D5041093CD04C093020261
:1020F000DF91CF911F910F91FF90EF9008951F9363
:10210000CF93DF9340E06CE07AE0DEE1C9E015E0D8
:102110004C3008F074C0242F30E0629FF001639FC0
:10212000F00D1124E65BFD4FA385AA2309F465C0D9
:102130008781811162C08085883C09F05EC08681FC
:10214000811128C0CA9FD0011124A455BC4F1796F5
:102150008C9117978823F1F01783108614965C9161
:10216000149756958D919C91850F911D9183808335
:10217000A385CA9FD0011124A455BC4F15965C912C
:102180001597569512968D919C911397850F911DD9
:1021900093838283629FF001639FF00D1124E65BBD
:1021A000FD4F8681813049F5A3857A9FD0011124A6
:1021B000A652BD4F17968C9117978823F1F0D783BD
:1021C000108614962C91149726958D919C91820FD0
:1021D000911D91838083A3857A9FD0011124A652FB
:1021E000BD4F15962C91159712968D919C91139732
:1021F000820F911D0596938382834F5F89CF409311
:102200000302DF91CF911F9108959091CD048091A9
:10221000D204992319F0913059F011C09091CC0457
:10222000983068F481110BC09F5F9093CC0408959F
:102230009091CC04992319F091509093CC04813063
:1022400099F42091CC04222379F08091C904992734
:1022500087FD9095019668E070E00E94E5308093DC
:10226000C90421502093CC040895DF92EF92FF928D
:102270000F931F93CF93DF938091CE04813009F0A9
:1022800028C18091C904992787FD9095A92FB92F5E
:102290008830910508F040C0FC01E45CFF4F40919C
:1022A000C5045091C6042091C7043091C8040C9411
:1022B0003A31405F5F4F15C0485F5F4F09C0509390
:1022C000FA014093F901285F3F4F22C0485051095D
:1022D0005093FA014093F9012B5F3F4F19C04051D1
:1022E00051095093FA014093F90112C04850510925
:1022F00009C05093FA014093F9012850310908C0F0
:10230000485F5F4F5093FA014093F901255031091E
:102310003093F8012093F701F090F5012091F90135
:102320003091FA014091F7015091F801E090F301EA
:10233000C091FB011091F2018091FC019091FD018F
:10234000D0E00AE0DF1508F040C06D2F70E0069F76
:10235000F001079FF00D1124E652FD4FA081B181DD
:10236000A217B30784F5D480AD0DB11D2A173B0722
:1023700054F5A281B381A417B5072CF5D580AD0D16
:10238000B11D4A175B07FCF4A781AA23E1F0A15015
:10239000A783A11118C0E085E11115C0CF5FDE1140
:1023A00001C011E0069FF001079FF00D1124E652D5
:1023B000FD4F6681653029F0673029F486509F4FC4
:1023C00002C088519C4FDF5FBDCFC093FB011093CB
:1023D000F201B091F401A0E0C9E0AB17A0F5CA9FEB
:1023E000F0011124E455FC4F60817181621773077D
:1023F00044F5D4816D0F711D2617370714F56281DE
:10240000738164177507ECF4D5816D0F711D461744
:102410005707BCF467816623A1F06150678361119F
:1024200010C0608561110DC06681663029F068308A
:1024300031F0643031F403C0825A9E4F02C0885399
:102440009F4FAF5FCACFC0E0DCE019E0CC30D8F5D9
:102450006C2F70E0D69FF001D79FF00D1124E65B42
:10246000FD4FA081B181A217B3075CF50481A00FD5
:10247000B11D2A173B072CF5A281B381A417B5071C
:1024800004F50581A00FB11D4A175B07D4F4A7819D
:10249000AA23B9F0A150A783A11113C0E085E111CF
:1024A00010C0169FF001179FF00D1124E455FC4F4A
:1024B0006681662329F0613021F48C599F4F01C059
:1024C000C296CF5FC3CF9093FD018093FC01C09370
:1024D0000302DF91CF911F910F91FF90EF90DF905A
:1024E00008958091CC048823E1F08091D00490E09D
:1024F000019664E670E00E94E5308093D004892B59
:1025000039F48091CF04882319F081508093CF044F
:102510008091CF04811105C081E08093D204809323
:10252000CD0408958A3291054CF09C012A5231095C
:102530002332324010F0825208958AE208958232A6
:1025400091054CF09C01225231092734324010F0A1
:102550008654089582E208952091C5043091C604FE
:102560002A32310564F0A9014A52510943325240DE
:1025700020F4821B930B8A9602C0825292402DE770
:1025800030E0B9010E94E53083589F4FB9010E94A5
:10259000E53008952091C7043091C80422323105F6
:1025A00064F0A901425251094734524020F4821B81
:1025B000930B829602C0865492402DE730E0B90119
:1025C0000E94E53083589F4FB9010E94E53008957D
:1025D0002091C5043091C6042A32310564F0A90166
:1025E0004A5251094332524020F4821B930B8A967F
:1025F00008958252924008952091C7043091C804F2
:102600002232310564F0A901425251094734524047
:1026100020F4821B930B829608958654924008956D
:102620008091CF04882361F08091CC04882341F00D
:102630008091D30490E00196837099278093D3040E
:102640008091FF0190E0019662E370E00E94E53026
:102650008093FF018091D204813059F48091CC04A1
:10266000811107C08091D4048B3018F48F5F809360
:10267000D4048091D504882319F081508093D50427
:102680005091F50120E03AE02517F8F4822F90E010
:10269000389FF001399FF00D1124E652FD4F47811C
:1026A000411105C040854C3010F44F5F4087389F82
:1026B000F001399FF00D1124E652FD4F81858823EA
:1026C00011F0815081872F5FDFCF2091F40180E0EE
:1026D00039E0821778F4389FF0011124E455FC4F5B
:1026E0009781911105C090859C3010F49F5F908771
:1026F0008F5FEFCF20E03CE02C30F8F4822F90E0A9
:10270000389FF001399FF00D1124E65BFD4F4781A2
:10271000411105C04085493C10F44F5F4087389F08
:10272000F001399FF00D1124E65BFD4F8185882370
:1027300011F0815081872F5FDFCF2093030208952E
:10274000EF920F93CF938091C5049091C6040E949D
:102750009212C82F282F30E03093FA012093F9010C
:102760008091C7049091C8040E949F12282F30E0E6
:102770003093F8012093F7014EEF480F6EEF6C0F86
:1027800029EF38E085E295E00E9412228091D5047D
:1027900063E00E94C530911148C12091D30488E0C4
:1027A000289F900111242050374F4091F7018091CC
:1027B000CC04481B48506091F901675085E295E0D0
:1027C0000E9412228091C904992787FD9095A92F14
:1027D000B92F8830910508F028C1FC01EC5BFF4F50
:1027E00060E085E295E00C943A310E947C1F4091B4
:1027F000F7018091CC04481B46506091F901695063
:10280000E12C00E02DED38E085E295E00E944423C4
:1028100061E085E295E00E947C1F4091F701809184
:10282000CC04481B46506091F90169508DC00E944C
:102830007C1F4091F7018091CC04481B4D50609162
:10284000F9016750E12C00E021EA38E085E295E0EB
:102850000E94442361E085E295E00E947C1F409144
:10286000F7018091CC04481B4D506091F9016750ED
:1028700046C00E947C1F4091F7018091CC04481B08
:1028800046506091F9016450E12C00E029E438E001
:1028900085E295E00E94442361E085E295E00E9494
:1028A0007C1F4091F7018091CC04481B46506091F9
:1028B000F901645029E638E0B4C00E947C1F4091C1
:1028C000F7018091CC04481B4D506091F90169508B
:1028D000EE24E39400E021EA38E085E295E00E94EE
:1028E000442361E085E295E00E947C1F4091F7015E
:1028F0008091CC04481B4D506091F90169502FEB39
:1029000038E08FC00E947C1F4091F7018091CC0479
:10291000481B46506091F9016750EE24E39400E0B3
:102920002DED38E085E295E00E94442361E085E2E8
:1029300095E00E947C1F4091F7018091CC04481BD8
:1029400046506091F90167502BEE38E06AC00E9452
:102950007C1F4091F7018091CC04481B4650609148
:10296000F9016750EE24E39400E029E738E085E2BE
:1029700095E00E94442361E085E295E00E947C1F7F
:102980004091F7018091CC04481B46506091F901B9
:10299000675045C00E947C1F4091F7018091CC0494
:1029A000481B46506091F9016450E12C00E029E495
:1029B00038E085E295E00E94442361E085E295E0FD
:1029C0000E947C1F4091F7018091CC04481B465027
:1029D0006091F901645029E538E023C00E947C1F12
:1029E0004091F7018091CC04481B46506091F90159
:1029F0006950E12C00E029E738E085E295E00E948B
:102A0000442361E085E295E00E947C1F4091F7013C
:102A10008091CC04481B46506091F90169502DE823
:102A200038E085E295E00E944423CF910F91EF902A
:102A300008950F9360E085E295E00E947C1F05E019
:102A400024E540E060E085E295E00E94F21F61E04D
:102A500085E295E00E947C1F8091F201882359F065
:102A60008091FF018F3038F48091CC04882319F0D5
:102A70006FEA71E05FC020E239E041E06AE285E29E
:102A800095E00E9412228091D6048823C9F08130FB
:102A900039F54AE050E06091FB0185E295E00E9443
:102AA000FB2E65EC71E085E295E00E94142E4AE071
:102AB00050E06091F50185E295E00E94FB2E10C088
:102AC00063EC71E085E295E00E94142E6091FC01B8
:102AD0007091FD014AE050E085E295E00E94E62E0B
:102AE0008091D10465E00E94C53002E0282F42E0C9
:102AF00061E385E295E00E94F21F2091CF048BEA0A
:102B0000289F212D1124269542E062E485E295E07C
:102B10000E94F21F8FE480932E0510922F05809162
:102B2000D604882329F0813051F46BEC71E002C0A7
:102B300067EC71E085E295E00F910C94142E0F91F3
:102B400008950F931F93CF93DF931092030205E034
:102B5000C0910302C33160F50C9FE0011124C35002
:102B6000DC4F888199810E94AC12182F8093F90163
:102B70009093FA018A819B810E94CA128093F70187
:102B80009093F801EC81F0E0EE0FFF1FEA5CFE4F3E
:102B9000208131814CEE480F6CEE610F85E295E0AB
:102BA0000E941222809103028F5F80930302D0CF94
:102BB000DF91CF911F910F910895FF920F931F9373
:102BC000CF93DF931092030257E0F52EC0910302DA
:102BD000CF3008F040C0FC9EE0011124C45ADB4F06
:102BE000888199810E94E8128C019093FA01809368
:102BF000F9018A819B810E94FC129093F8018093D5
:102C0000F701043511050CF52C8130E03195219543
:102C1000310920173107CCF480339105B4F42D81AC
:102C200030E03195219531092817390774F4EE8188
:102C3000F0E0EE0FFF1FE65EFE4F20813181482F4E
:102C4000602F85E295E00E941222809103028F5F3F
:102C500080930302BBCFDF91CF911F910F91FF9023
:102C60000895DF92EF92FF920F931F93CF93DF931C
:102C700010920302E9E0DE2EE09003028091F4015D
:102C8000E81608F057C0F12CDE9CE001DF9CD00D67
:102C90001124C455DC4F888199810E94E8128C016F
:102CA0009093FA018093F9018A819B810E94FC1222
:102CB0009093F8018093F70104351105ACF52C8150
:102CC00030E0319521953109201731076CF58033BB
:102CD000910554F52D8130E0319521953109281762
:102CE000390714F52F8121110AC02885263038F0C4
:102CF000EE81F0E0EE0FFF1FE65FFE4F0DC0DE9CA1
:102D0000F001DF9CF00D1124E455FC4FE681F0E06A
:102D1000EE0FFF1FE65EFE4F20813181482F602FAE
:102D200085E295E00E941222809103028F5F8093DA
:102D30000302A2CFDF91CF911F910F91FF90EF90EF
:102D4000DF900895DF92EF92FF920F931F93CF933E
:102D5000DF9310920302CAE0DC2EE0900302809120
:102D6000F501E81608F057C0F12CDE9CE001DF9C6D
:102D7000D00D1124C652DD4F888199810E94E8123E
:102D80008C019093FA018093F9018A819B810E94C2
:102D9000FC129093F8018093F70104351105ACF50E
:102DA0002C8130E0319521953109201731076CF5E0
:102DB0008033910554F52D8130E03195219531090D
:102DC0002817390714F52F8121110AC028852630CC
:102DD00038F0EE81F0E0EE0FFF1FE65FFE4F0DC012
:102DE000DE9CF001DF9CF00D1124E652FD4FE681E0
:102DF000F0E0EE0FFF1FE65EFE4F20813181482F8D
:102E0000602F85E295E00E941222809103028F5F7D
:102E100080930302A2CFDF91CF911F910F91FF907A
:102E2000EF90DF900895CF92DF92EF92FF920F9391
:102E30001F93CF93DF9310920302DCE0FD2ECCEEC4
:102E4000DFEFE0900302FBE0FE1508F4CAC02E2D70
:102E500030E0F29EF001F39EF00D1124E65BFD4F91
:102E6000878181110AC08085883038F0883108F068
:102E7000B2C08370823009F0AEC0F29E8001F39E32
:102E8000100D1124065B1D4FF801808191810E9475
:102E9000E8126C019093FA018093F901F8018281A4
:102EA00093810E94FC129093F8018093F701F8E659
:102EB000CF16D104ACF4F8012481AE01421B5109B4
:102EC0004C155D056CF48434910554F42581FE01A4
:102ED000E21BF109E817F9071CF48E2D0E94AD0CD6
:102EE0006091F9017091FA01643571050CF073C0BD
:102EF000E0910302FE9EF0011124E65BFD4F848108
:102F000090E0919581959109861797070CF063C021
:102F10004091F7015091F801403351050CF05BC02E
:102F2000858190E0919581959109841795070CF022
:102F300052C08681811113C08781882359F0828510
:102F40008250843020F4EE24E39400E005C027E8AA
:102F500037E03DC0E12C01E027E837E020C0828562
:102F600090E088309105B8F5FC01E45BFF4F0C94CC
:102F70003A3120912C0130912D0129C020912E0150
:102F800030912F0124C020913001309131011FC0B8
:102F900020912E0130912F01EE24E39400E085E290
:102FA00095E00E94442317C020912C0130912D01FF
:102FB000F3CF2091340130913501EECF20913201D1
:102FC0003091330104C0209134013091350185E204
:102FD00095E00E941222809103028F5F809303028A
:102FE00030CFDF91CF911F910F91FF90EF90DF9045
:102FF000CF9008950F938091D10481112BC08091BF
:10300000D4048B3039F560E085E295E00E947C1FA6
:1030100007E026E242E168E185E295E00E94F21FC6
:1030200061E085E295E00E947C1F09E028E241E131
:1030300067E185E295E00E94CA1F89E180932E0531
:1030400083E180932F056FEC71E085E295E00F91AD
:103050000C94142E0F9108950F9360E085E295E093
:103060000E947C1F0FE02CE444E064E085E295E0E0
:103070000E94F21F61E085E295E00E947C1F01E161
:103080002AE443E063E085E295E00E94CA1F89E0FC
:1030900080932E0585E080932F0569ED71E085E230
:1030A00095E00E94142E8091FC019091FD018A30E0
:1030B000910514F488E208C08436910514F1883E25
:1030C00023E09207BCF48FE180932E058CE080937F
:1030D0002F0563EC71E085E295E00E94142E60916B
:1030E000FC017091FD014AE050E085E295E00F910E
:1030F0000C94E62E8031974214F48BE1E5CF87E102
:10310000E3CF83E2E1CF1F93CF93DF938091CA0493
:10311000882331F08091CD04813009F006C152C07E
:103120008091CB048111F6CF8091CD048111F2CF33
:10313000C091F6018091C5049091C6042091C70406
:103140003091C8047091D104A091CF04B0E060E048
:10315000D7E06C1790F5D69FF0011124E45AFB4F8D
:10316000408151814817590734F51481410F511D91
:103170008417950704F54281538142175307DCF405
:10318000E5814E0F511D24173507ACF4623069F00C
:1031900028F4662341F0613061F00DC0633049F0DE
:1031A000643019F008C0713310F0AD3120F4B1E093
:1031B00002C07133E0F36F5FCCCFB093CD04609366
:1031C0000302A8CF8091CC048111AFC010920302FA
:1031D000C7E0409103028091F601481708F0A5C0AE
:1031E0008091C5049091C604C49FF0011124E45A53
:1031F000FB4F20813181281739070CF090C0548192
:10320000250F311D821793070CF089C08091C704E8
:103210009091C80422813381281739070CF07FC0B0
:103220005581250F311D821793070CF078C042306D
:1032300009F455C028F4442349F04130C1F16FC06E
:103240004330A9F1443009F44AC069C08091F201C9
:10325000882319F00E942C1862C09091D1048091AB
:10326000CF04923329F48E3141F41092CD0457C02B
:10327000923318F49F5F9093D1048E3118F48F5FCE
:103280008093CF048091D104823309F048C08091AB
:10329000CF048E3109F043C08091FC019091FD0173
:1032A000883E23E0920784F18052934034C080919D
:1032B000D1048233D1F2823318F48F5F8093D1042A
:1032C0008091D104823359F58091FC019091FD01E8
:1032D0008E3E22E09207C4F08E5E92401CC0809128
:1032E000CF048E3111F28E3118F48F5F8093CF04AA
:1032F0008091CF048E3199F48091FC019091FD0171
:103300008E3E22E092072CF41092FD011092FC01F7
:1033100006C0865991099093FD018093FC0180912C
:1033200003028F5F8093030254CFDF91CF911F91EF
:1033300008950F93882331F0813061F400E020E09C
:103340004AE003C000E020E043E060E08CEF94E05E
:103350000E94452900E020E041E061E08CEF94E02C
:103360000E94452929EF40E062E08CEF94E00E9442
:10337000452928EF40E063E08CEF94E00E94452966
:1033800020E043E061E18CEF94E00F910C9476290A
:10339000EF920F93CF938091CE04813009F04AC110
:1033A00080E00E9499198091C5049091C6040E9402
:1033B0009212C82F482F50E05093FA014093F90120
:1033C0008091C7049091C8040E949F12E82FF0E0FA
:1033D000F093F801E093F7014091C904552747FDA8
:1033E0005095652F752F4830510508F023C1FA011B
:1033F000EC5AFF4F9091FF0193700C943A31911168
:103400000DC020E12C0F9091CC04482F491B66E0A1
:103410006C0F082F85E295E00E941B202091FF0190
:103420008BEA289F812D11248695982F990F980F4C
:10343000291B8AE0289F90011124255D374F409178
:10344000F70144506091F901645FEDC091110FC024
:1034500005E0080F28E02C0F9091CC04482F491B61
:103460004F5F63E06C0F85E295E00E941B20809126
:10347000FF0163E00E94C5308AE0989F900111240B
:10348000255D374F4091F7014F5FCAC091110CC0C5
:1034900008E0080F9091CC04482F491B2C2F6C2F6B
:1034A00085E295E00E941B208091FF0163E00E946D
:1034B000C5308AE0989F90011124255D374F4091D7
:1034C000F7014C5F6091F9016450ADC091110FC0DC
:1034D00005E0080F28EF2C0F9091CC04482F491BD2
:1034E0004F5F6DEF6C0F85E295E00E941B2080918D
:1034F000FF0163E00E94C5308AE0989F900111248B
:10350000255D374F4091F7014F5F40C091110DC0CD
:1035100020EF2C0F9091CC04482F491B6AEF6C0FC1
:10352000082F85E295E00E941B208091FF0163E057
:103530000E94C5308AE0989F90011124255D374F85
:103540004091F70144506091F901645142C09111DA
:103550000FC00BEF080F28EF2C0F9091CC04482FD1
:10356000491B42506BEF6C0F85E295E00E941B20D7
:103570008091FF0163E00E94C5308AE0989F90012E
:103580001124255D374F4091F70149506091F901B1
:103590006C501FC091110CC008EF080F9091CC0423
:1035A000482F491B2C2F6C2F85E295E00E941B2091
:1035B0008091FF0163E00E94C5308AE0989F9001EE
:1035C0001124255D374F4091F7014C506091F9016E
:1035D0006450EE24E39400E085E295E00E944423E9
:1035E00029C091110FC00BEF080F28E02C0F90910C
:1035F000CC04482F491B425065E06C0F85E295E0F2
:103600000E941B208091FF0163E00E94C5308AE088
:10361000989F90011124255D374F4091F701495043
:103620006091F9016C5F85E295E0CF910F91EF9089
:103630000C941222CF910F91EF900895EF92FF9288
:103640000F931F93CF93DF931092030217E0E09143
:103650000302EA3008F03FC01E9FF0011124EC5F26
:10366000FD4F8681882389F1813019F480E00E9422
:103670009919C09103021C9FE0011124CC5FDD4F1A
:1036800089819A810E94E8127C019093FA018093CB
:10369000F9018B819C810E94FC129093F801809328
:1036A000F7019701215031092335310570F49C0150
:1036B000215031092F32310540F402E022E0482F39
:1036C0006E2D85E295E00E94F21F809103028F5FCC
:1036D00080930302BCCFDF91CF911F910F91FF9098
:1036E000EF900895CF92DF92EF92FF920F931F9386
:1036F000CF93DF931F92CDB7DEB78091D204813094
:10370000A1F58091CC04811130C08091D4048B301C
:1037100060F581E00E9499198091C5049091C604DA
:103720000E949212082F10E0025011091093FA0122
:103730000093F9018091C7049091C8040E949F12E0
:10374000482F50E04A5051095093F8014093F70137
:103750002091D4048DE0289F900111242157384FE7
:10376000602F85E295E00E9412229091F5018091F0
:10377000F401891718F49093010202C080930102AA
:1037800080910102843118F484E180930102109247
:1037900003020AE01DE089E0F82E9CE0E92EE091AA
:1037A000030280910102E81708F03DC18091F50104
:1037B0008E1708F474C00E9FF0011124E652FD4FDD
:1037C000878181116CC080858C3008F068C081E0F1
:1037D0000E94991980910302089F60011124F6014B
:1037E000E652FD4F6F01808191810E94E812682F9F
:1037F0008093F9019093FA01F601828193816983A4
:103800000E94FC12AC01435051095093F8014093BF
:10381000F701F601868169818430B1F52085129F18
:10382000900111242157384F6B5F85E295E00E948B
:103830001222E09103020E9FF0011124E652FD4F87
:103840002085129F900111242157384F4091F70194
:103850004B5F6091F9016C5E85E295E00E94122257
:10386000E09103020E9FF0011124E652FD4F2085E6
:10387000129F900111242157384F4091F701415F69
:103880006091F901685F07C0F6012085129F9001E1
:1038900011242157384F85E295E00E941222E091D1
:1038A00003028091F4018E1708F477C0FE9EF001A8
:1038B0001124E455FC4F878181116FC080858C30C5
:1038C00008F06BC081E00E94991980910302F89E74
:1038D00060011124C60184559C4F6C01FC0180815C
:1038E00091810E94E812682F8093F9019093FA0168
:1038F000F6018281938169830E94FC12AC014350DE
:1039000051095093F8014093F701F60186816981CE
:103910008430B9F52085129F900111242157384F2A
:103920004D5F665F85E295E00E941222E0910302FE
:10393000FE9EF0011124E455FC4F2085129F90015A
:1039400011242157384F4091F7014C5F6091F901E4
:10395000675D85E295E00E941222E0910302FE9EDF
:10396000F0011124E455FC4F2085129F9001112491
:103970002157384F4091F701485E6091F9016A5D27
:1039800008C0F6012085129F900111242157384F5D
:103990006D5F85E295E00E941222809103028D30D6
:1039A000E0F5E89E60011124C601865B9D4F6C0125
:1039B000FC018781811131C080858C3070F5808158
:1039C00091810E94E81205969093FA018093F90183
:1039D000F601828193810E94FC1203979093F80173
:1039E0008093F701F60186818130B9F40E9499191C
:1039F000E0910302EE9EF0011124E65BFD4F20856D
:103A0000129F900111242157384F4091F701609186
:103A1000F90185E295E00E941222809103028F5FF6
:103A200080930302BCCE0F90DF91CF911F910F9135
:103A3000FF90EF90DF90CF90089587ED94E00E9483
:103A40004527882381F166E081EE94E00E94871E7D
:103A500081110E94560C0E94DD150E9431160E94B1
:103A6000A2160E9413170E94A1150E94C8190E9455
:103A70001E1B0E9419150E94A0130E94721B0E9417
:103A8000FA170E9483180E94F6050E9405110E94F1
:103A900035110E9422100E9471120E943E0D0E9458
:103AA00010130C947F10089510922805109227058A
:103AB0008EEE91E090932605809325050895CF938F
:103AC000CFB7F89480915E05811127C0EDE6FBE049
:103AD0008491E9E5FBE09491E82FF0E0EE0FFF1F01
:103AE000E557F44FA591B4918C91892321F461E0BD
:103AF0008AE00E94422D61E08AE00E94092D8CB587
:103B000080618CBD8CB580648CBD61E08DE00E94CD
:103B1000092D61E08BE00E94092D80915E058F5F89
:103B200080935E05CFBFCF91089521E0FC012083F3
:103B3000089570E085E00C94812CAF92BF92CF92F3
:103B4000DF92EF92FF920F931F93CF93DF93EC01DD
:103B500089819A812FE0289F8001299F100D1124CF
:103B600085E10E94642C800F911F24E09695879533
:103B70002A95E1F79A8389832881222391F1AC81E8
:103B8000AD80B12CC12CD12CE885F9857F0100E0F6
:103B900010E06E817F819B0140E050E0861797071F
:103BA00028F0BC01E817F90708F4BF0180E090E0B5
:103BB0001F921F921F92AF930E94502F6B830F9002
:103BC0000F900F900F9070E085E0DF91CF911F91E3
:103BD0000F91FF90EF90DF90CF90BF90AF900C943B
:103BE000812CDF91CF911F910F91FF90EF90DF908B
:103BF000CF90BF90AF900895FC018CE39FE093833A
:103C0000828384E0818381E084870895CF93DF936A
:103C1000EC018C819D81892B81F18C858F7151F50F
:103C200084E10E94642CBC01882777FD8095982F41
:103C30000E94C62F26EE3FE34EEC50E40E94523025
:103C40000E94982F9B017B836A836115710581F027
:103C500084E08983FE0140E084819581281739073B
:103C600010F449830AC04F5F32964430A9F702C06E
:103C70008FEF89838C858F5F8C87DF91CF9108953B
:103C8000FC0188E0808389E0818387E0828386E08D
:103C9000838384E0848382E0858381E18683089541
:103CA000DF92EF92FF920F931F93CF93DF937C01EC
:103CB000EC0100E010E0DD24DA9462E088810E94EB
:103CC000092D88810E94782DF701E00FF11F892BC3
:103CD00021F487818F5F878308C08781882349F01B
:103CE0008F3F11F4178201C0D78260E088810E9463
:103CF000092D0F5F1F4F219607301105F1F6DF9157
:103D0000CF911F910F91FF90EF90DF900895FC01EC
:103D1000E60FF11D81E09781913009F080E0089570
:103D2000262F30E0FC01E20FF31F8781423028F498
:103D300081508E3F48F080E008958F3FE1F3642F7B
:103D40000E94C5309130B9F781E008958EBD000022
:103D50000DB407FEFDCF8EB50895DC01643508F083
:103D600053C0403308F050C090968C919097342FF8
:103D7000359535953595E62FFF27E7FDF095242FEE
:103D80002770823099F4DF01A15ABA4F84E53802D6
:103D9000A00DB11D11248C9190E0022E02C09595CA
:103DA00087950A94E2F78095817009C0833039F4D1
:103DB00046271C968C91482740FF03C014C08111F0
:103DC00012C084E53802E00DF11D1124E15AFA4FCA
:103DD00081E090E0022E01C0880F0A94EAF78095F6
:103DE0009081982310C084E53802E00DF11D112464
:103DF000E15AFA4F81E090E0022E01C0880F0A9448
:103E0000EAF79081982B908308951F93CF93DF93C7
:103E1000EC01162FF89460E08F850E94422D88896E
:103E200018161CF460E00E94422D812F0E94A61EED
:103E3000888918161CF461E00E94422D7894DF9165
:103E4000CF911F91089528EF31E0EFE5F5E0DF0114
:103E5000A9011D9241505040E1F7DC0119961C92D6
:103E600019971A961C920895DF92EF92FF920F9382
:103E70001F93CF93DF93EC018C858F5F8C878FE549
:103E8000E82E85E0F82ED12C6D2D6064CE010E94C5
:103E9000051F60E8CE010E94051F61E08F850E942A
:103EA000422D888918161CF460E00E94422D00E023
:103EB00010E0F701E00FF11F80810E94A61E0F5F46
:103EC0001F4F04351105A9F7888918161CF461E005
:103ED0000E94422DD39484E5E80EF11C86E0D812AE
:103EE000D3CF60E4CE01DF91CF911F910F91FF906E
:103EF000EF90DF900C94051FFC0160A361A308956F
:103F0000FC0160A341A30895CF92DF92FF920F932B
:103F10001F93CF93DF931F92CDB7DEB76C01062FAF
:103F2000F42E10E0121754F4412F4F0D602FC601EC
:103F300029830E94AD1E1F5F2981F4CF0F90DF916E
:103F4000CF911F910F91FF90DF90CF900895CF9266
:103F5000DF92FF920F931F93CF93DF931F92CDB702
:103F6000DEB76C01062FF42E10E0121754F4612F07
:103F7000600F4F2DC60129830E94AD1E1F5F29814E
:103F8000F4CF0F90DF91CF911F910F91FF90DF90B1
:103F9000CF900895EF92FF920F931F93CF93DF93EB
:103FA000EC01F62E142FE22E0E94A71F4FEF400FB8
:103FB000410F2E2D6F2DCE010E94A71F202F412FC4
:103FC0006F2DCE010E94841F6FEF6E0D6F0D202F9D
:103FD000412FCE01DF91CF911F910F91FF90EF9074
:103FE0000C94841FDF92EF92FF920F931F93CF9355
:103FF000DF93EC01E62ED22EF42E112707FD10954B
:10400000040F111D47FD1A958F2D992787FD909557
:104010008017910744F42D2D4F2D6E2DCE010E9457
:10402000A71FF394F1CFDF91CF911F910F91FF90D4
:10403000EF90DF900895AF92BF92CF92DF92EF9210
:10404000FF920F931F93CF93DF93EC01162FF42E63
:10405000E22EA02FBB27A7FDB095A41BB10947FDF9
:10406000B395B7FF03C0B195A195B109EE2DFF2718
:10407000E7FDF095E11BF10917FDF395F7FF03C08C
:10408000F195E195F109BB24B394EA17FB0714F00D
:10409000B12C06C08E2DE02E082F812F1F2DF82E5B
:1040A000E11634F48F2DF02E082F812F1E2DE82ECF
:1040B000CE2CC11AE02FFF27E7FDF095EF19F1098B
:1040C000F7FCF395F7FF03C0F195E195F109AE2EEA
:1040D000DC2CC7FE03C0DD24D394DC0CD594F01691
:1040E00014F401E00FC00FEF0DC0BB2071F0412FA1
:1040F0006F2DCE010E94AD1EDA18D7FE02C0F00E61
:10410000DC0C1F5FE1168CF703C04F2D612FF1CF40
:10411000DF91CF911F910F91FF90EF90DF90CF90A3
:10412000BF90AF9008958F929F92AF92BF92CF921F
:10413000DF92EF92FF920F931F93CF93DF93EC01E7
:10414000E62ED42E122FCC24C394C21AB22EB194D0
:10415000BB0CF12C802F8470A82E802F8270982E9B
:10416000802F8870882E0170F1160CF04DC0C7FCAE
:1041700004C01150B394B394CB0CF3948F2D880FDB
:104180008F5FC80EAA2071F0412F4D0D6F2D6E0D5F
:10419000CE010E94AD1E4F2D4D0D612F6E0DCE0133
:1041A0000E94AD1E992071F04D2D411B6F2D6E0D9B
:1041B000CE010E94AD1E4D2D4F19612F6E0DCE0107
:1041C0000E94AD1E882071F04F2D4D0D6E2D611B8C
:1041D000CE010E94AD1E412F4D0D6E2D6F19CE01E7
:1041E0000E94AD1E002309F4BFCF4D2D4F196E2D37
:1041F000611BCE010E94AD1E4D2D411B6E2D6F190E
:10420000CE010E94AD1EB0CFDF91CF911F910F91D3
:10421000FF90EF90DF90CF90BF90AF909F908F90E6
:1042200008958F929F92AF92BF92CF92DF92EF92BA
:10423000FF920F931F93CF93DF93EC01B62EA42E22
:10424000122FDD24D394D21AC22EC194CC0CFF2499
:10425000F394802F8170882E992493949E0C027081
:104260008FEF8F0D8117C4F5D7FC04C01150C39494
:10427000C394DC0C8F2D880F8F5FD80E882099F0A7
:10428000212F220F290D4A2D411B6F2D6B0DCE01C1
:104290000E94841F23E02E0D4A2D4F19612F6B0DB4
:1042A000CE010E94841F002399F0212F220F290D97
:1042B0004A2D411B6B2D6F19CE010E94841F23E0F4
:1042C0002E0D4A2D4F196B2D611BCE010E94841FAC
:1042D000F394E394E394C4CFDF91CF911F910F91B6
:1042E000FF90EF90DF90CF90BF90AF909F908F9016
:1042F00008959F92AF92BF92CF92DF92EF92FF927A
:104300000F931F93CF93DF93EC01B62EF42EA22EC2
:10431000DE2CD194DD0C9D2C920E1E2D160F292D16
:10432000612F0E94A71FCC24CA94C00ECF0C292D48
:104330004C2D612FCE010E94A71FD00EFE0C2D2DFB
:104340004F2D6B2DCE010E94841FBA0C6FEF6B0DA9
:104350002D2D4F2DCE010E94841F01E02E2D4F2DBB
:10436000612FCE010E949320DE2CD094DB0C02E062
:104370002E2D4F2D6D2DCE010E949320CE1804E0DE
:104380002E2D4C2D6D2DCE010E94932008E02E2D58
:104390004C2D612FCE010E949320DF91CF911F9170
:1043A0000F91FF90EF90DF90CF90BF90AF909F90D4
:1043B0000895AF92BF92CF92DF92EF92FF920F9348
:1043C0001F93CF93DF93EC01A62EC42EB22EF02EB6
:1043D0001E2DE194EE0CD12ED60E2E2D2B0D6D2D13
:1043E0000E94F21FFA94FE0CC10E6FEF6A0D6B0D66
:1043F000611BEF2C01E0212F4C2DCE010E941121D9
:1044000002E0212F4C2D6D2DCE010E941121DF9154
:10441000CF911F910F91FF90EF90DF90CF90BF90C1
:10442000AF9008956F927F928F929F92AF92BF92BA
:10443000CF92DF92EF92FF920F931F93CF93DF9370
:10444000F901A49031965491FC01F0A064350CF070
:104450000CC1BB24A7FCB094A62FBB27A7FDB09529
:10446000FD01EA0DFB1D1E161F060CF0FEC04033B9
:104470000CF0FBC0C52E042F112707FD1095E80195
:10448000C50FD11D57FDDA951C161D060CF0EDC0A9
:10449000E90122969501295F3F4F37FF02C0295F4E
:1044A0003F4F73E0359527957A95E1F747FF0AC0AE
:1044B000C52EC40E209FA001219F500D1124C41BA6
:1044C000D50B40E00C2D112707FD1095040F111D91
:1044D00047FD1A95013311051CF070E3C72EC41A6D
:1044E00067FD60E0E535F10514F0E4E5F0E01E2F2E
:1044F000FC0174857427862F992787FD9095FC0110
:10450000EA1BFB0BDF015F01F7E0AF22BB24E0E811
:10451000F0E002C0F595E795AA94E2F70E2FB7FDFB
:10452000179653E0B595A7955A95E1F7AC0FBD1FC7
:10453000E42FE77051E001C0550FEA95EAF7459581
:1045400045954595E4E54E02800D911D1124815A53
:104550009A4F40E0DD24C7FCD094BB24B3943327AA
:10456000E42FF0E0EC15FD050CF07FC0FD01E490B8
:10457000F1E0FF1219C0EC01A02EFD01862E881A71
:104580009C2E980C911608F067C09E2C9A2019F06A
:104590009880952A9882A69429F43196E49068949C
:1045A000AA24A7F82196ECCFF1101BC0752E7094A9
:1045B000EC01A02EFD01862E881A9C2E980C9116D7
:1045C00008F04AC09E2C9A2019F098809720988273
:1045D000A69429F43196E4906894AA24A7F8219629
:1045E000ECCFE3E0FE1631F0EC01A02EFD01862EAB
:1045F000881A2EC0752E7094962EEC01A02EFD0107
:104600009116B0F48E2C8A2049F08880692C672698
:1046100060FE02C0852A01C087208882A69429F402
:104620003196E4906894AA24A7F893942196E8CF51
:104630007B2512C09E2C9A2019F09880952698828E
:10464000A69429F43196E4906894AA24A7F82196B8
:104650009C2E980C911670F3550F19F48C5A9F4F9D
:1046600051E04F5FA20FB31F7BCFDF91CF911F911E
:104670000F91FF90EF90DF90CF90BF90AF909F9001
:104680008F907F906F9008952F923F924F925F92FC
:104690006F927F928F929F92AF92BF92CF92DF9252
:1046A000EF92FF920F931F93CF93DF93CDB7DEB7B7
:1046B0002A970FB6F894DEBF0FBECDBF6C01262E31
:1046C000542F01111CC0E1101AC02A960FB6F8949D
:1046D000DEBF0FBECDBFDF91CF911F910F91FF9035
:1046E000EF90DF90CF90BF90AF909F908F907F9092
:1046F0006F905F904F903F902F900C941222F90191
:10470000849131963490B9016E5F7F4F7A836983CB
:10471000A82EB12C9501295F3F4FB3E03595279521
:10472000BA95E1F73A87298703702FEF280F522EA9
:1047300010E07FEF730D832D90E09C838B83812F9E
:10474000992787FD90958A159B050CF071C0812FE4
:1047500017FF02C087E0810F682E65946594659409
:10476000812F877887FF03C08150886F8F5FA0E813
:104770008A2E912C02C0959487948A95E2F7472E51
:10478000F12C772467FC70948F2D992787FD9095E5
:10479000EB81FC818E179F070CF047C0A985BA8575
:1047A0008A9FF0018B9FF00D9A9FF00D1124E60D6A
:1047B000F71D89819A81E80FF91FE491F0E0E82163
:1047C000F921EF2B79F1023039F0033041F001305B
:1047D00049F4452D6F2D08C0652D442D05C0642D6D
:1047E000412F02C04F2D612FEE2069F03E2D337016
:1047F000E0FE03C0922F961B692FE1FE05C0A32D9A
:10480000A41B4A2F01C030E0620D450FC6012E8364
:104810003D835F8378870E94AD1E3D81E32E7885BE
:104820005F812E81F3944A94AFCF1F5F5A9487CF54
:104830002A960FB6F894DEBF0FBECDBFDF91CF91A1
:104840001F910F91FF90EF90DF90CF90BF90AF90AE
:104850009F908F907F906F905F904F903F902F90A0
:104860000895DC01FB0184918F5F14968C9314975B
:104870003196E491EF5F1596EC9315976E5F7F4F3D
:104880005F967C936E935E970895EF920F93CF930C
:10489000DF93EC014E876D872F87E98A088B81E0D3
:1048A000888788A319A28F8366E379E0CE010E94EE
:1048B00031240E945F1D8CB58F7D8CBD8CB58C7FA3
:1048C00081608CBD8DB581608DBD8CB58C608CBDDB
:1048D00061E08E850E94092D61E08D850E94092D81
:1048E00061E08F850E94092D898918161CF461E00A
:1048F0000E94092D888918161CF461E00E94092D78
:10490000898918166CF460E00E94422D6AE070E01C
:1049100080E090E00E94012C61E089890E94422D94
:104920008D85992787FD9095FC01ED59F44FE49111
:10493000F0E0EE0FFF1FEF57F44F259134913D8BC0
:104940002C8BFC01E15BF44F84918B8F8E85992732
:1049500087FD9095FC01ED59F44FE491F0E0EE0FE6
:10496000FF1FEF57F44F259134913B8B2A8BFC01AD
:10497000E15BF44F84918A8F8889992787FD909510
:10498000FC01ED59F44FE491F0E0EE0FFF1FEF57FB
:10499000F44F259134913F8B2E8BFC01E15BF44F5A
:1049A00084918C8F8F85992787FD9095FC01ED5917
:1049B000F44FE491F0E0EE0FFF1FEF57F44F259115
:1049C0003491398F288FFC01E15BF44F84918D8FF6
:1049D00061E2CE010E94051F64E1CE010E94051F25
:1049E0008B8587FF02C08FE78B876B856068CE0160
:1049F0000E94051F60E2CE010E94051F6CE0CE01FF
:104A00000E94051FCE01DF91CF910F91EF900C9482
:104A1000341F6F927F928F929F92AF92BF92CF92EC
:104A2000DF92EF92FF920F931F93CF93DF93EC01EE
:104A3000162FF42EB02EE8A064350CF081C08FE262
:104A400084170CF47DC0EC81F0E031970E9FC0011B
:104A50000F9F900D1124860F911D67FD9A951816D2
:104A600019060CF06DC08D81809FC0011124840F48
:104A7000911D47FD9A95181619060CF061C0A62ED7
:104A8000962EC22ED12C8A2D811B992787FD9095B9
:104A90002C8130E0821793070CF051C0215031096E
:104AA0008217930779F0C29ED001C39EB00DD29EAB
:104AB000B00D1124A80FB91FEE8DFF8DEA0FFB1F5B
:104AC000749001C0712C8F2C6F2C282D2F19332737
:104AD00027FD30958D8190E0281739076CF570FE21
:104AE00011C081E0B81206C0482D6A2DCE010E9487
:104AF000AD1E1EC00B2D2B2D462D692DCE010E9403
:104B0000F21F16C089A198A1891791F088A381E0AE
:104B1000B81206C0482D6A2DCE010E94AD1E07C0F6
:104B20000B2D2B2D462D692DCE010E94F21FE8A2E0
:104B300076946B0C8394C9CF9B0CA394A4CFE8A26A
:104B4000DF91CF911F910F91FF90EF90DF90CF9069
:104B5000BF90AF909F908F907F906F9008950F932C
:104B6000CF93DF93EC01262F6A3039F42D8198859D
:104B70008A85299F800D112422C06D3011F108858E
:104B80004A8569850E94092548855C812985549F4D
:104B9000200D112429878F81882399F0332727FD41
:104BA000309584E590E0459F801991091124821782
:104BB00093073CF49D818A85499F800D11248A8743
:104BC000198681E090E0DF91CF910F910895CF9207
:104BD000DF92EF92FF920F931F93CF93DF93EC013D
:104BE0000A8D1B8D009510950E94DE2B6B017C01B8
:104BF0000E94DE2BC094D094E094F0946095709560
:104C000080959095C69E9001C79E300DD69E300D22
:104C10001124209F7001219FF00C309FF00C112473
:104C20000980DA81C02D0E94DE2BCE01860F971FEE
:104C30008E0D9F1DDF91CF911F910F91FF90EF90EF
:104C4000DF90CF900C94082F8F929F92AF92BF92DB
:104C5000CF92DF92EF92FF920F931F93CF93DF9348
:104C6000EC015C0186E8A80EB11CD5018C9188236B
:104C700009F44DC08C3018F41CE0181B01C010E082
:104C8000FE01EA5AFF4F81E080836E01BEE4CB0E45
:104C9000D11C60E0C6010E947C1F4E01E3E58E0E30
:104CA000911CD4018C9103E0080F9DE2F92E4F2D49
:104CB000481B410F23E0E22E24E560E0C6010E947C
:104CC000D92161E0C6010E947C1FF401808103E0CC
:104CD000080F4F2D481B410F24E560E0C6010E94DC
:104CE0007921FE01E95AFF4F84E080833196D40197
:104CF0008C91181B115D1083CC57DF4F688179812F
:104D0000C6010E94EF2DF501808181508083DF91E3
:104D1000CF911F910F91FF90EF90DF90CF90BF90B8
:104D2000AF909F908F900895DF92EF92FF920F9334
:104D30001F93CF93DF93EC018C8D9D8D892B09F40C
:104D40009CC08E01025B1F4F40E061E0C8010E94E1
:104D5000801F85E5FE01EE5AFF4F9081891B359635
:104D6000808331961082698D613009F462C028F029
:104D7000888D653008F074C06FC0CE0185960E94A2
:104D8000FD2981E0FE01EA5AFF4F808366E379E066
:104D9000C8010E9431241D8E1C8EFE01EC5AFF4F6B
:104DA000108238EAD32E7E018AE0E80EF11CCE0193
:104DB0000E9445278823D9F368ED7AE0C8010E9454
:104DC000EF2D6A8D7B8D4AE050E0C8010E94022FD2
:104DD00063EC7AE0C8010E94EF2D6D2D62956F7033
:104DE00070E04AE050E0C8010E94E62E68EB7AE0ED
:104DF000C8010E94EF2D64E0C7010E94871E811147
:104E00003CC0DA94A1F660E0CE010E94991D83B700
:104E1000817F846083BF83B7816083BF83B78160F4
:104E200083BF889583B78E7F83BF83B78E7F83BF11
:104E3000BECFCF58DF4F488159816A817B814F7047
:104E4000552766277727483051056105710510F40D
:104E500067E009C068E707C0882379F06B5F03C08B
:104E6000882359F06FE2C801DF91CF911F910F9114
:104E7000FF90EF90DF900C94162EDF91CF911F9151
:104E80000F91FF90EF90DF9008958F929F92AF92D5
:104E9000BF92EF92FF920F931F93CF93DF93EC019A
:104EA0007C0100E8E00EF11CF70180809180A28077
:104EB000B3800E94D22B95018401061B170B280B8F
:104EC000390BB901A8015E011FE7A10EB11CF50164
:104ED000808190E0A0E0B0E08E0105581F4F84175C
:104EE0009507A607B70750F4F80180819181A28148
:104EF000B381892B8A2B8B2B09F040C0F80180816C
:104F00009181A281B381892B8A2B8B2BA9F57E01FC
:104F1000F5E2EF0EF11CC7010E94FA29C7010E94B9
:104F2000672AC7010E942B2BCE010E942426CE01A6
:104F30000E9494267E012EE4E20EF11CC7010E941D
:104F4000341FFE01EC5AFF4F8081811103C0C7015D
:104F50000E94231F0E94DE2BF801608371838283ED
:104F60009383FE01EB58FF4FC958DF4F28813981E9
:104F7000621B730B7183608380E036C00E94D22B6A
:104F8000F5012081620F711D811D911DF701608364
:104F9000718382839383FE01EF58FF4F40815181DB
:104FA000628173814F5F5F4F6F4F7F4F40835183AB
:104FB00062837383F80110821182128213820E942D
:104FC000DE2BFE01E958FF4F608371838283938358
:104FD000CE010E949D1DCE010A960E94501ECE0158
:104FE00048960E94061E81E0DF91CF911F910F919C
:104FF000FF90EF90BF90AF909F908F900895E0E862
:10500000F7E72591349181E02130304C09F080E0C0
:105010000895CF93DF93EC010E94FF279E01275A4A
:105020003F4FDE01A059BF4F882309F43CC0E6E999
:10503000F7E78491F9018083E7E9F7E7E491EC83EE
:10504000E8E9F7E7E491ED83E9E9F7E785919491E1
:105050009F838E83EBE9F7E7859194919987888701
:10506000EDE9F7E7E491EBA7EEE9F7E7E491EAA7CA
:10507000EFE9F7E7E491EC93E0EAF7E785919491A3
:105080009D8F8C8FE2EAF7E7859194919F8F8E8FA9
:10509000E4EAF7E78591949199A388A3E6EAF7E714
:1050A0008591949120C08CE3F90180831C822FEFBD
:1050B0002D8380E293E09F838E8384ED93E0998734
:1050C000888781E08BA78AA72C938CEA9DE09D8F2F
:1050D0008C8F8EED9DE09F8F8E8F84E79EE099A34D
:1050E00088A38CE39FE09BA38AA3DF91CF910895CF
:1050F000CF92DF92EF920F93CF93DF93EC01FC01FD
:10510000E158FF4F82E38083349741E050E060E054
:1051100070E040835183628373833B978FEF80837A
:10512000CE010E940928CE010E94951D6FEFCE018D
:105130000E94991D6E018AE0C80ED11CC6010E9412
:10514000401EC6010E94501ECE0148960E94FC1DC2
:105150003EE0E32E0FE020E14BE06DE0CE01825B0C
:105160009F4F0E944524A596CE010E94102965E01C
:10517000C6010E94871E882351F060E0CE01DF91B6
:10518000CF910F91EF90DF90CF900C947B2B40E06C
:1051900066EE7AE0CE01DF91CF910F91EF90DF9034
:1051A000CF900C94AF29CF93DF9350E0FA01EE0F2C
:1051B000FF1FE80FF91F37852089E32FF22FE60F35
:1051C000F11DE60FF11D25913491FA01EE0FFF1F3D
:1051D000E80FF91F30A3278FF90165917491FC0145
:1051E000D481D69FC02D1124E40FF51FC1A3F9016E
:1051F000A591B4916B2F70E0EC2FF0E0DC01A40FCF
:10520000B51F6E177F0720F4F90125913491C32F44
:10521000CD9FC02D11249296CC93DF91CF9108950C
:1052200021E0FC01248324E020A72FE23BE0308B27
:10523000278740E060E00E94D32861E070E083E0CF
:105240000E94812CE1EBF0E08081887F8160808387
:10525000F89410928000E1E8F0E01082109285004E
:105260001092840088E191E09093890080938800F7
:10527000808188608083808181608083EFE6F0E0B8
:10528000808182608083789408950F93FC01862F3B
:10529000642F011129C08230D1F048F4882391F0A5
:1052A000813011F540E0CF010F910C94D328833069
:1052B000A9F08430C9F48481489F602D1124658F42
:1052C000268F12C04B3008F06AE0668B0DC08481D7
:1052D000489F602D1124618F228F06C08481489FD2
:1052E000602D1124638F248F0F910895FC012111EB
:1052F0000EC0648B8481489F402D1124458B15A2DC
:1053000014A213A281E0878B80936307108E089507
:1053100080916307882319F08091600701C080E0C5
:105320008093B4000895FC0161110DC0178A158A9D
:1053300014A213A2108E10926007109261071092AF
:1053400063070C9488290895CF93DF93EC016111D2
:1053500003C00E9493291982DF91CF9108950F9382
:105360001F93CF93DF93EC018B0141110EC060E0DE
:105370000E94A4291E870D871B8A1A8A81E08983CF
:1053800089E08E8B198E1B8E1D8EDF91CF911F9120
:105390000F910895CF93DF93EC01611128C08881AC
:1053A000882329F18981811122C089852F819885DF
:1053B000E22FF92FE80FF11DE80FF11D859194916F
:1053C0008F3F2FEF920711F4188211C09C87992705
:1053D000880F991FEA85FB85E80FF91F6591749185
:1053E00040E0CE010E94AF2989858F5F8987DF91D8
:1053F000CF91089560E00C94CA2960E00C94A42930
:105400000F93CF93DF93EC0161115DC089818823F5
:1054100009F459C08D89811156C02D853E858A8930
:105420009B89880F991F820F931FFC01859194918E
:105430000097D1F48989882321F01B8A1A8AF901FF
:1054400011C01982888160E0882331F0CE010E946A
:10545000CA298A899B8925C0CE01DF91CF910F91FE
:105460000C94932985919491BC01769567957695D6
:10547000679580FF1DC0AC01A6E056954795AA959B
:10548000E1F7292F26952695269520514F716F70AB
:1054900000E0CE010E9445298A899B8901969B8B59
:1054A0008A8B880F991FED85FE85E80FF91FDACFEB
:1054B000492F6F7320E0CE010E9476298A899B894B
:1054C00001969B8B8A8BDF91CF910F91089560E0BD
:1054D0000C94002ACF93DF93EC016111B9C08F893E
:1054E000882309F4B5C08D89811105C0CE01DF91F3
:1054F000CF910C94932981508D8B8DA1811138C04F
:105500008BA19CA101969C01220F331FEF8DF8A166
:10551000E20FF31F25913491422F47704EA3A9014A
:1055200063E0569547956A95E1F7BA0176956795D8
:10553000232F269526952FA36F732C81629F602DB4
:1055400011246DA3417040935F079CA38BA329A1F5
:1055500030E08217930760F08AA1882329F0281B86
:1055600031093CA32BA304C060E0CE010E94932923
:105570008DA181508DA3288D2F5F288F4C893FA14D
:10558000340F8C85380F3A836B8D662361F070E0A1
:10559000822F992787FD90950E94E5308C8D869FFC
:1055A000300D11243A838A8190E0CB966BE370E052
:1055B0000E94E5308A833E893B83698D662371F0C2
:1055C000772767FD7095822F992787FD90950E9418
:1055D000E5308A8D869F300D11243B836D8D6623C7
:1055E00091F0822F992787FD909570E00E94E53019
:1055F000CB0162E070E00E94E5302E8D9B81289FF8
:10560000900D11249B838B814F3339F08A300CF03D
:1056100089E087FD80E08B8301C01B82F894EA81DA
:10562000F0E0EC50F54FE491E093620798A58D818E
:10563000989F802D11249B81899F802D11249EA1EC
:10564000899F802D1124809361078093600778944F
:10565000DF91CF91089560E00C946A2A6091610710
:10566000662321F1809164078F5F80936407909196
:1056700062078917D8F08091630791E089278093AA
:1056800063071092640780915F07882369F0909107
:10569000470183E4989F802D1124895B8093470103
:1056A0000E94C530909360070C94882908951F923A
:1056B0000F920FB60F9211242F933F934F935F9346
:1056C0006F937F938F939F93AF93BF93EF93FF93CA
:1056D0000E942E2BFF91EF91BF91AF919F918F91DF
:1056E0007F916F915F914F913F912F910F900FBEDE
:1056F0000F901F901895FC01862F992787FD909594
:10570000668170E06F5F7F4F0E94E530858308956A
:105710001F920F920FB60F9211242F933F938F93E6
:105720009F93AF93BF938091660790916707A09175
:105730006807B09169073091650723E0230F2D3783
:1057400020F40196A11DB11D05C026E8230F029685
:10575000A11DB11D2093650780936607909367078D
:10576000A0936807B093690780916A0790916B07CF
:10577000A0916C07B0916D070196A11DB11D80939A
:105780006A0790936B07A0936C07B0936D07BF9166
:10579000AF919F918F913F912F910F900FBE0F90DE
:1057A0001F9018952FB7F89460916607709167075E
:1057B00080916807909169072FBF08953FB7F894CB
:1057C00080916A0790916B07A0916C07B0916D076B
:1057D00026B5A89B05C02F3F19F00196A11DB11D4C
:1057E0003FBF6627782F892F9A2F620F711D811D69
:1057F000911D42E0660F771F881F991F4A95D1F7C8
:105800000895CF92DF92EF92FF92CF93DF936B01D7
:105810007C010E94DE2BEB01C114D104E104F104F0
:1058200089F00E94972F0E94DE2B6C1B7D0B683E37
:10583000734090F381E0C81AD108E108F108C8511B
:10584000DC4FEACFDF91CF91FF90EF90DF90CF90C8
:105850000895789484B5826084BD84B5816084BDE8
:1058600085B5826085BD85B5816085BDEEE6F0E0D9
:10587000808181608083E1E8F0E010828081826035
:105880008083808181608083E0E8F0E080818160B6
:105890008083E1EBF0E0808184608083E0EBF0E0E6
:1058A000808181608083EAE7F0E08081846080838A
:1058B0008081826080838081816080838081806834
:1058C00080831092C10008958E3008F08E5087704A
:1058D0002091480190E4299F90011124822B80930C
:1058E0007C0080917A00806480937A0080917A00B5
:1058F00086FDFCCF809178002091790090E0922B7A
:1059000008951F93CF93DF93182FEB0161E00E945E
:10591000092D209711F460E004C0CF3FD10539F480
:1059200061E0812FDF91CF911F910C94422DE12FE7
:10593000F0E0E55CF44FE491E330F9F048F4E13055
:10594000B9F0E230A1F584B5806284BDC8BD34C031
:10595000E730E9F0E83019F1E43049F58091800052
:10596000806280938000D0938B00C0938A0024C013
:1059700084B5806884BDC7BD1FC0809180008068E9
:1059800080938000D0938900C093880015C08091D7
:10599000B00080688093B000C093B3000DC08091C8
:1059A000B00080628093B000C093B40005C0C038DE
:1059B000D1050CF0B5CFAFCFDF91CF911F910895F6
:1059C000833081F028F4813099F08230A1F008957D
:1059D0008730A9F08830B9F08430D1F4809180000C
:1059E0008F7D03C0809180008F7780938000089521
:1059F00084B58F7702C084B58F7D84BD0895809172
:105A0000B0008F7703C08091B0008F7D8093B0008D
:105A10000895CF93DF9390E0FC01E15BF44F249174
:105A2000FC01ED59F44F8491882349F190E0880FEF
:105A3000991FFC01E557F44FA591B4918F57944FEE
:105A4000FC01C591D4919FB7611108C0F8948C9165
:105A5000209582238C93888182230AC0623051F47E
:105A6000F8948C91322F309583238C938881822BEC
:105A7000888304C0F8948C91822B8C939FBFDF9114
:105A8000CF9108950F931F93CF93DF931F92CDB7BC
:105A9000DEB7282F30E0F901E55CF44F8491F9017D
:105AA000E15BF44F1491F901ED59F44F0491002397
:105AB000C9F0882321F069830E94E02C6981E02FDE
:105AC000F0E0EE0FFF1FEF57F44FA591B4919FB791
:105AD000F8948C91611103C01095812301C0812B32
